{
	"StekcitBMVRF.sol": {
		"StekcitBMVRF": {
			"abi": [
				{
					"inputs": [],
					"stateMutability": "nonpayable",
					"type": "constructor"
				},
				{
					"anonymous": false,
					"inputs": [
						{
							"indexed": false,
							"internalType": "uint256",
							"name": "requestId",
							"type": "uint256"
						},
						{
							"indexed": false,
							"internalType": "uint256[]",
							"name": "randomWords",
							"type": "uint256[]"
						},
						{
							"indexed": false,
							"internalType": "uint256",
							"name": "payment",
							"type": "uint256"
						}
					],
					"name": "RequestFulfilled",
					"type": "event"
				},
				{
					"anonymous": false,
					"inputs": [
						{
							"indexed": false,
							"internalType": "uint256",
							"name": "requestId",
							"type": "uint256"
						},
						{
							"indexed": false,
							"internalType": "uint32",
							"name": "numWords",
							"type": "uint32"
						}
					],
					"name": "RequestSent",
					"type": "event"
				},
				{
					"inputs": [
						{
							"internalType": "uint256",
							"name": "",
							"type": "uint256"
						}
					],
					"name": "allRandomWords",
					"outputs": [
						{
							"internalType": "uint256",
							"name": "",
							"type": "uint256"
						}
					],
					"stateMutability": "view",
					"type": "function"
				},
				{
					"inputs": [
						{
							"internalType": "uint256",
							"name": "_requestId",
							"type": "uint256"
						}
					],
					"name": "getRequestStatus",
					"outputs": [
						{
							"internalType": "uint256",
							"name": "paid",
							"type": "uint256"
						},
						{
							"internalType": "bool",
							"name": "fulfilled",
							"type": "bool"
						},
						{
							"internalType": "uint256[]",
							"name": "randomWords",
							"type": "uint256[]"
						}
					],
					"stateMutability": "view",
					"type": "function"
				},
				{
					"inputs": [],
					"name": "lastRequestId",
					"outputs": [
						{
							"internalType": "uint256",
							"name": "",
							"type": "uint256"
						}
					],
					"stateMutability": "view",
					"type": "function"
				},
				{
					"inputs": [
						{
							"internalType": "uint256",
							"name": "_requestId",
							"type": "uint256"
						},
						{
							"internalType": "uint256[]",
							"name": "_randomWords",
							"type": "uint256[]"
						}
					],
					"name": "rawFulfillRandomWords",
					"outputs": [],
					"stateMutability": "nonpayable",
					"type": "function"
				},
				{
					"inputs": [
						{
							"internalType": "uint256",
							"name": "",
							"type": "uint256"
						}
					],
					"name": "requestIds",
					"outputs": [
						{
							"internalType": "uint256",
							"name": "",
							"type": "uint256"
						}
					],
					"stateMutability": "view",
					"type": "function"
				},
				{
					"inputs": [],
					"name": "requestRandomWords",
					"outputs": [
						{
							"internalType": "uint256",
							"name": "requestId",
							"type": "uint256"
						}
					],
					"stateMutability": "nonpayable",
					"type": "function"
				},
				{
					"inputs": [
						{
							"internalType": "uint256",
							"name": "",
							"type": "uint256"
						}
					],
					"name": "s_requests",
					"outputs": [
						{
							"internalType": "uint256",
							"name": "paid",
							"type": "uint256"
						},
						{
							"internalType": "bool",
							"name": "fulfilled",
							"type": "bool"
						}
					],
					"stateMutability": "view",
					"type": "function"
				},
				{
					"inputs": [],
					"name": "withdrawLink",
					"outputs": [],
					"stateMutability": "nonpayable",
					"type": "function"
				}
			],
			"devdoc": {
				"kind": "dev",
				"methods": {},
				"version": 1
			},
			"evm": {
				"assembly": "    /* \"StekcitBMVRF.sol\":749:4235  contract StekcitBMVRF is VRFV2WrapperConsumerBase {... */\n  mstore(0x40, 0xc0)\n    /* \"StekcitBMVRF.sol\":1743:1749  100000 */\n  0x0186a0\n    /* \"StekcitBMVRF.sol\":1717:1749  uint32 callbackGasLimit = 100000 */\n  0x04\n  exp(0x0100, 0x00)\n  dup2\n  sload\n  dup2\n  0xffffffff\n  mul\n  not\n  and\n  swap1\n  dup4\n  0xffffffff\n  and\n  mul\n  or\n  swap1\n  sstore\n  pop\n    /* \"StekcitBMVRF.sol\":1840:1841  1 */\n  0x01\n    /* \"StekcitBMVRF.sol\":1810:1841  uint16 requestConfirmations = 1 */\n  0x04\n  dup1\n  0x0100\n  exp\n  dup2\n  sload\n  dup2\n  0xffff\n  mul\n  not\n  and\n  swap1\n  dup4\n  0xffff\n  and\n  mul\n  or\n  swap1\n  sstore\n  pop\n    /* \"StekcitBMVRF.sol\":1991:1992  1 */\n  0x01\n    /* \"StekcitBMVRF.sol\":1973:1992  uint32 numWords = 1 */\n  0x04\n  exp(0x0100, 0x06)\n  dup2\n  sload\n  dup2\n  0xffffffff\n  mul\n  not\n  and\n  swap1\n  dup4\n  0xffffffff\n  and\n  mul\n  or\n  swap1\n  sstore\n  pop\n    /* \"StekcitBMVRF.sol\":2072:2114  0x0b9d5D9136855f6FEc3c0993feE6E9CE8a297846 */\n  0x0b9d5d9136855f6fec3c0993fee6e9ce8a297846\n    /* \"StekcitBMVRF.sol\":2050:2114  address linkAddress = 0x0b9d5D9136855f6FEc3c0993feE6E9CE8a297846 */\n  0x04\n  exp(0x0100, 0x0a)\n  dup2\n  sload\n  dup2\n  0xffffffffffffffffffffffffffffffffffffffff\n  mul\n  not\n  and\n  swap1\n  dup4\n  0xffffffffffffffffffffffffffffffffffffffff\n  and\n  mul\n  or\n  swap1\n  sstore\n  pop\n    /* \"StekcitBMVRF.sol\":2199:2241  0x9345AC54dA4D0B5Cda8CB749d8ef37e5F02BBb21 */\n  0x9345ac54da4d0b5cda8cb749d8ef37e5f02bbb21\n    /* \"StekcitBMVRF.sol\":2174:2241  address wrapperAddress = 0x9345AC54dA4D0B5Cda8CB749d8ef37e5F02BBb21 */\n  0x05\n  exp(0x0100, 0x00)\n  dup2\n  sload\n  dup2\n  0xffffffffffffffffffffffffffffffffffffffff\n  mul\n  not\n  and\n  swap1\n  dup4\n  0xffffffffffffffffffffffffffffffffffffffff\n  and\n  mul\n  or\n  swap1\n  sstore\n  pop\n    /* \"StekcitBMVRF.sol\":2248:2368  constructor()... */\n  callvalue\n  dup1\n  iszero\n  tag_1\n  jumpi\n  0x00\n  dup1\n  revert\ntag_1:\n  pop\n    /* \"StekcitBMVRF.sol\":2333:2344  linkAddress */\n  0x04\n  0x0a\n  swap1\n  sload\n  swap1\n  0x0100\n  exp\n  swap1\n  div\n  0xffffffffffffffffffffffffffffffffffffffff\n  and\n    /* \"StekcitBMVRF.sol\":2346:2360  wrapperAddress */\n  0x05\n  0x00\n  swap1\n  sload\n  swap1\n  0x0100\n  exp\n  swap1\n  div\n  0xffffffffffffffffffffffffffffffffffffffff\n  and\n    /* \"@chainlink/contracts@1.1.0/src/v0.8/vrf/VRFV2WrapperConsumerBase.sol\":2169:2174  _link */\n  dup2\n    /* \"@chainlink/contracts@1.1.0/src/v0.8/vrf/VRFV2WrapperConsumerBase.sol\":2143:2175  LINK = LinkTokenInterface(_link) */\n  0xffffffffffffffffffffffffffffffffffffffff\n  and\n  0x80\n  dup2\n  0xffffffffffffffffffffffffffffffffffffffff\n  and\n  dup2\n  mstore\n  pop\n  pop\n    /* \"@chainlink/contracts@1.1.0/src/v0.8/vrf/VRFV2WrapperConsumerBase.sol\":2220:2233  _vrfV2Wrapper */\n  dup1\n    /* \"@chainlink/contracts@1.1.0/src/v0.8/vrf/VRFV2WrapperConsumerBase.sol\":2181:2234  VRF_V2_WRAPPER = VRFV2WrapperInterface(_vrfV2Wrapper) */\n  0xffffffffffffffffffffffffffffffffffffffff\n  and\n  0xa0\n  dup2\n  0xffffffffffffffffffffffffffffffffffffffff\n  and\n  dup2\n  mstore\n  pop\n  pop\n    /* \"@chainlink/contracts@1.1.0/src/v0.8/vrf/VRFV2WrapperConsumerBase.sol\":2087:2239  constructor(address _link, address _vrfV2Wrapper) {... */\n  pop\n  pop\n    /* \"StekcitBMVRF.sol\":749:4235  contract StekcitBMVRF is VRFV2WrapperConsumerBase {... */\n  mload(0x80)\n  mload(0xa0)\n  codecopy(0x00, dataOffset(sub_0), dataSize(sub_0))\n  0x00\n  assignImmutable(\"0xe41a685dc3df81383d452481451b89eb3f69781b836c19936fa9714a13d1c9c2\")\n  0x00\n  assignImmutable(\"0x2e5129c19be59da29ff89133759e8d7e21d926bf22eda9cdfd27c0cd8774b8c2\")\n  return(0x00, dataSize(sub_0))\nstop\n\nsub_0: assembly {\n        /* \"StekcitBMVRF.sol\":749:4235  contract StekcitBMVRF is VRFV2WrapperConsumerBase {... */\n      mstore(0x40, 0x80)\n      callvalue\n      dup1\n      iszero\n      tag_1\n      jumpi\n      0x00\n      dup1\n      revert\n    tag_1:\n      pop\n      jumpi(tag_2, lt(calldatasize, 0x04))\n      shr(0xe0, calldataload(0x00))\n      dup1\n      0xa168fa89\n      gt\n      tag_11\n      jumpi\n      dup1\n      0xa168fa89\n      eq\n      tag_7\n      jumpi\n      dup1\n      0xd8a4676f\n      eq\n      tag_8\n      jumpi\n      dup1\n      0xe0c86289\n      eq\n      tag_9\n      jumpi\n      dup1\n      0xfc2a88c3\n      eq\n      tag_10\n      jumpi\n      jump(tag_2)\n    tag_11:\n      dup1\n      0x1fe543e3\n      eq\n      tag_3\n      jumpi\n      dup1\n      0x43a77ff6\n      eq\n      tag_4\n      jumpi\n      dup1\n      0x8796ba8c\n      eq\n      tag_5\n      jumpi\n      dup1\n      0x8dc654a2\n      eq\n      tag_6\n      jumpi\n    tag_2:\n      0x00\n      dup1\n      revert\n        /* \"@chainlink/contracts@1.1.0/src/v0.8/vrf/VRFV2WrapperConsumerBase.sol\":3804:4088  function rawFulfillRandomWords(uint256 _requestId, uint256[] memory _randomWords) external {... */\n    tag_3:\n      tag_12\n      0x04\n      dup1\n      calldatasize\n      sub\n      dup2\n      add\n      swap1\n      tag_13\n      swap2\n      swap1\n      tag_14\n      jump\t// in\n    tag_13:\n      tag_15\n      jump\t// in\n    tag_12:\n      stop\n        /* \"StekcitBMVRF.sol\":1262:1312  mapping (uint256 => uint256) public allRandomWords */\n    tag_4:\n      tag_16\n      0x04\n      dup1\n      calldatasize\n      sub\n      dup2\n      add\n      swap1\n      tag_17\n      swap2\n      swap1\n      tag_18\n      jump\t// in\n    tag_17:\n      tag_19\n      jump\t// in\n    tag_16:\n      mload(0x40)\n      tag_20\n      swap2\n      swap1\n      tag_21\n      jump\t// in\n    tag_20:\n      mload(0x40)\n      dup1\n      swap2\n      sub\n      swap1\n      return\n        /* \"StekcitBMVRF.sol\":1344:1371  uint256[] public requestIds */\n    tag_5:\n      tag_22\n      0x04\n      dup1\n      calldatasize\n      sub\n      dup2\n      add\n      swap1\n      tag_23\n      swap2\n      swap1\n      tag_18\n      jump\t// in\n    tag_23:\n      tag_24\n      jump\t// in\n    tag_22:\n      mload(0x40)\n      tag_25\n      swap2\n      swap1\n      tag_21\n      jump\t// in\n    tag_25:\n      mload(0x40)\n      dup1\n      swap2\n      sub\n      swap1\n      return\n        /* \"StekcitBMVRF.sol\":3997:4233  function withdrawLink() public {... */\n    tag_6:\n      tag_26\n      tag_27\n      jump\t// in\n    tag_26:\n      stop\n        /* \"StekcitBMVRF.sol\":1170:1221  mapping(uint256 => RequestStatus) public s_requests */\n    tag_7:\n      tag_28\n      0x04\n      dup1\n      calldatasize\n      sub\n      dup2\n      add\n      swap1\n      tag_29\n      swap2\n      swap1\n      tag_18\n      jump\t// in\n    tag_29:\n      tag_30\n      jump\t// in\n    tag_28:\n      mload(0x40)\n      tag_31\n      swap3\n      swap2\n      swap1\n      tag_32\n      jump\t// in\n    tag_31:\n      mload(0x40)\n      dup1\n      swap2\n      sub\n      swap1\n      return\n        /* \"StekcitBMVRF.sol\":3505:3920  function getRequestStatus(uint256 _requestId)... */\n    tag_8:\n      tag_33\n      0x04\n      dup1\n      calldatasize\n      sub\n      dup2\n      add\n      swap1\n      tag_34\n      swap2\n      swap1\n      tag_18\n      jump\t// in\n    tag_34:\n      tag_35\n      jump\t// in\n    tag_33:\n      mload(0x40)\n      tag_36\n      swap4\n      swap3\n      swap2\n      swap1\n      tag_37\n      jump\t// in\n    tag_36:\n      mload(0x40)\n      dup1\n      swap2\n      sub\n      swap1\n      return\n        /* \"StekcitBMVRF.sol\":2374:3000  function requestRandomWords()... */\n    tag_9:\n      tag_38\n      tag_39\n      jump\t// in\n    tag_38:\n      mload(0x40)\n      tag_40\n      swap2\n      swap1\n      tag_21\n      jump\t// in\n    tag_40:\n      mload(0x40)\n      dup1\n      swap2\n      sub\n      swap1\n      return\n        /* \"StekcitBMVRF.sol\":1377:1405  uint256 public lastRequestId */\n    tag_10:\n      tag_41\n      tag_42\n      jump\t// in\n    tag_41:\n      mload(0x40)\n      tag_43\n      swap2\n      swap1\n      tag_21\n      jump\t// in\n    tag_43:\n      mload(0x40)\n      dup1\n      swap2\n      sub\n      swap1\n      return\n        /* \"@chainlink/contracts@1.1.0/src/v0.8/vrf/VRFV2WrapperConsumerBase.sol\":3804:4088  function rawFulfillRandomWords(uint256 _requestId, uint256[] memory _randomWords) external {... */\n    tag_15:\n        /* \"@chainlink/contracts@1.1.0/src/v0.8/vrf/VRFV2WrapperConsumerBase.sol\":3982:3996  VRF_V2_WRAPPER */\n      immutable(\"0xe41a685dc3df81383d452481451b89eb3f69781b836c19936fa9714a13d1c9c2\")\n        /* \"@chainlink/contracts@1.1.0/src/v0.8/vrf/VRFV2WrapperConsumerBase.sol\":3960:3997  msg.sender == address(VRF_V2_WRAPPER) */\n      0xffffffffffffffffffffffffffffffffffffffff\n      and\n        /* \"@chainlink/contracts@1.1.0/src/v0.8/vrf/VRFV2WrapperConsumerBase.sol\":3960:3970  msg.sender */\n      caller\n        /* \"@chainlink/contracts@1.1.0/src/v0.8/vrf/VRFV2WrapperConsumerBase.sol\":3960:3997  msg.sender == address(VRF_V2_WRAPPER) */\n      0xffffffffffffffffffffffffffffffffffffffff\n      and\n      eq\n        /* \"@chainlink/contracts@1.1.0/src/v0.8/vrf/VRFV2WrapperConsumerBase.sol\":3952:4033  require(msg.sender == address(VRF_V2_WRAPPER), \"only VRF V2 wrapper can fulfill\") */\n      tag_45\n      jumpi\n      mload(0x40)\n      0x08c379a000000000000000000000000000000000000000000000000000000000\n      dup2\n      mstore\n      0x04\n      add\n      tag_46\n      swap1\n      tag_47\n      jump\t// in\n    tag_46:\n      mload(0x40)\n      dup1\n      swap2\n      sub\n      swap1\n      revert\n    tag_45:\n        /* \"@chainlink/contracts@1.1.0/src/v0.8/vrf/VRFV2WrapperConsumerBase.sol\":4039:4083  fulfillRandomWords(_requestId, _randomWords) */\n      tag_48\n        /* \"@chainlink/contracts@1.1.0/src/v0.8/vrf/VRFV2WrapperConsumerBase.sol\":4058:4068  _requestId */\n      dup3\n        /* \"@chainlink/contracts@1.1.0/src/v0.8/vrf/VRFV2WrapperConsumerBase.sol\":4070:4082  _randomWords */\n      dup3\n        /* \"@chainlink/contracts@1.1.0/src/v0.8/vrf/VRFV2WrapperConsumerBase.sol\":4039:4057  fulfillRandomWords */\n      tag_49\n        /* \"@chainlink/contracts@1.1.0/src/v0.8/vrf/VRFV2WrapperConsumerBase.sol\":4039:4083  fulfillRandomWords(_requestId, _randomWords) */\n      jump\t// in\n    tag_48:\n        /* \"@chainlink/contracts@1.1.0/src/v0.8/vrf/VRFV2WrapperConsumerBase.sol\":3804:4088  function rawFulfillRandomWords(uint256 _requestId, uint256[] memory _randomWords) external {... */\n      pop\n      pop\n      jump\t// out\n        /* \"StekcitBMVRF.sol\":1262:1312  mapping (uint256 => uint256) public allRandomWords */\n    tag_19:\n      mstore(0x20, 0x01)\n      dup1\n      0x00\n      mstore\n      keccak256(0x00, 0x40)\n      0x00\n      swap2\n      pop\n      swap1\n      pop\n      sload\n      dup2\n      jump\t// out\n        /* \"StekcitBMVRF.sol\":1344:1371  uint256[] public requestIds */\n    tag_24:\n      0x02\n      dup2\n      dup2\n      sload\n      dup2\n      lt\n      tag_50\n      jumpi\n      0x00\n      dup1\n      revert\n    tag_50:\n      swap1\n      0x00\n      mstore\n      keccak256(0x00, 0x20)\n      add\n      0x00\n      swap2\n      pop\n      swap1\n      pop\n      sload\n      dup2\n      jump\t// out\n        /* \"StekcitBMVRF.sol\":3997:4233  function withdrawLink() public {... */\n    tag_27:\n        /* \"StekcitBMVRF.sol\":4038:4061  LinkTokenInterface link */\n      0x00\n        /* \"StekcitBMVRF.sol\":4083:4094  linkAddress */\n      0x04\n      0x0a\n      swap1\n      sload\n      swap1\n      0x0100\n      exp\n      swap1\n      div\n      0xffffffffffffffffffffffffffffffffffffffff\n      and\n        /* \"StekcitBMVRF.sol\":4038:4095  LinkTokenInterface link = LinkTokenInterface(linkAddress) */\n      swap1\n      pop\n        /* \"StekcitBMVRF.sol\":4126:4130  link */\n      dup1\n        /* \"StekcitBMVRF.sol\":4126:4139  link.transfer */\n      0xffffffffffffffffffffffffffffffffffffffff\n      and\n      0xa9059cbb\n        /* \"StekcitBMVRF.sol\":4140:4150  msg.sender */\n      caller\n        /* \"StekcitBMVRF.sol\":4152:4156  link */\n      dup4\n        /* \"StekcitBMVRF.sol\":4152:4166  link.balanceOf */\n      0xffffffffffffffffffffffffffffffffffffffff\n      and\n      0x70a08231\n        /* \"StekcitBMVRF.sol\":4175:4179  this */\n      address\n        /* \"StekcitBMVRF.sol\":4152:4181  link.balanceOf(address(this)) */\n      mload(0x40)\n      dup3\n      0xffffffff\n      and\n      0xe0\n      shl\n      dup2\n      mstore\n      0x04\n      add\n      tag_53\n      swap2\n      swap1\n      tag_54\n      jump\t// in\n    tag_53:\n      0x20\n      mload(0x40)\n      dup1\n      dup4\n      sub\n      dup2\n      dup7\n      gas\n      staticcall\n      iszero\n      dup1\n      iszero\n      tag_56\n      jumpi\n      returndatasize\n      0x00\n      dup1\n      returndatacopy\n      revert(0x00, returndatasize)\n    tag_56:\n      pop\n      pop\n      pop\n      pop\n      mload(0x40)\n      returndatasize\n      not(0x1f)\n      0x1f\n      dup3\n      add\n      and\n      dup3\n      add\n      dup1\n      0x40\n      mstore\n      pop\n      dup2\n      add\n      swap1\n      tag_57\n      swap2\n      swap1\n      tag_58\n      jump\t// in\n    tag_57:\n        /* \"StekcitBMVRF.sol\":4126:4182  link.transfer(msg.sender, link.balanceOf(address(this))) */\n      mload(0x40)\n      dup4\n      0xffffffff\n      and\n      0xe0\n      shl\n      dup2\n      mstore\n      0x04\n      add\n      tag_59\n      swap3\n      swap2\n      swap1\n      tag_60\n      jump\t// in\n    tag_59:\n      0x20\n      mload(0x40)\n      dup1\n      dup4\n      sub\n      dup2\n      0x00\n      dup8\n      gas\n      call\n      iszero\n      dup1\n      iszero\n      tag_62\n      jumpi\n      returndatasize\n      0x00\n      dup1\n      returndatacopy\n      revert(0x00, returndatasize)\n    tag_62:\n      pop\n      pop\n      pop\n      pop\n      mload(0x40)\n      returndatasize\n      not(0x1f)\n      0x1f\n      dup3\n      add\n      and\n      dup3\n      add\n      dup1\n      0x40\n      mstore\n      pop\n      dup2\n      add\n      swap1\n      tag_63\n      swap2\n      swap1\n      tag_64\n      jump\t// in\n    tag_63:\n        /* \"StekcitBMVRF.sol\":4105:4226  require(... */\n      tag_65\n      jumpi\n      mload(0x40)\n      0x08c379a000000000000000000000000000000000000000000000000000000000\n      dup2\n      mstore\n      0x04\n      add\n      tag_66\n      swap1\n      tag_67\n      jump\t// in\n    tag_66:\n      mload(0x40)\n      dup1\n      swap2\n      sub\n      swap1\n      revert\n    tag_65:\n        /* \"StekcitBMVRF.sol\":4028:4233  {... */\n      pop\n        /* \"StekcitBMVRF.sol\":3997:4233  function withdrawLink() public {... */\n      jump\t// out\n        /* \"StekcitBMVRF.sol\":1170:1221  mapping(uint256 => RequestStatus) public s_requests */\n    tag_30:\n      mstore(0x20, 0x00)\n      dup1\n      0x00\n      mstore\n      keccak256(0x00, 0x40)\n      0x00\n      swap2\n      pop\n      swap1\n      pop\n      dup1\n      0x00\n      add\n      sload\n      swap1\n      dup1\n      0x01\n      add\n      0x00\n      swap1\n      sload\n      swap1\n      0x0100\n      exp\n      swap1\n      div\n      0xff\n      and\n      swap1\n      pop\n      dup3\n      jump\t// out\n        /* \"StekcitBMVRF.sol\":3505:3920  function getRequestStatus(uint256 _requestId)... */\n    tag_35:\n        /* \"StekcitBMVRF.sol\":3611:3623  uint256 paid */\n      0x00\n        /* \"StekcitBMVRF.sol\":3637:3651  bool fulfilled */\n      dup1\n        /* \"StekcitBMVRF.sol\":3665:3693  uint256[] memory randomWords */\n      0x60\n        /* \"StekcitBMVRF.sol\":3756:3757  0 */\n      0x00\n        /* \"StekcitBMVRF.sol\":3726:3736  s_requests */\n      dup1\n        /* \"StekcitBMVRF.sol\":3726:3748  s_requests[_requestId] */\n      0x00\n        /* \"StekcitBMVRF.sol\":3737:3747  _requestId */\n      dup7\n        /* \"StekcitBMVRF.sol\":3726:3748  s_requests[_requestId] */\n      dup2\n      mstore\n      0x20\n      add\n      swap1\n      dup2\n      mstore\n      0x20\n      add\n      0x00\n      keccak256\n        /* \"StekcitBMVRF.sol\":3726:3753  s_requests[_requestId].paid */\n      0x00\n      add\n      sload\n        /* \"StekcitBMVRF.sol\":3726:3757  s_requests[_requestId].paid > 0 */\n      gt\n        /* \"StekcitBMVRF.sol\":3718:3779  require(s_requests[_requestId].paid > 0, \"request not found\") */\n      tag_69\n      jumpi\n      mload(0x40)\n      0x08c379a000000000000000000000000000000000000000000000000000000000\n      dup2\n      mstore\n      0x04\n      add\n      tag_70\n      swap1\n      tag_71\n      jump\t// in\n    tag_70:\n      mload(0x40)\n      dup1\n      swap2\n      sub\n      swap1\n      revert\n    tag_69:\n        /* \"StekcitBMVRF.sol\":3789:3817  RequestStatus memory request */\n      0x00\n        /* \"StekcitBMVRF.sol\":3820:3830  s_requests */\n      dup1\n        /* \"StekcitBMVRF.sol\":3820:3842  s_requests[_requestId] */\n      0x00\n        /* \"StekcitBMVRF.sol\":3831:3841  _requestId */\n      dup7\n        /* \"StekcitBMVRF.sol\":3820:3842  s_requests[_requestId] */\n      dup2\n      mstore\n      0x20\n      add\n      swap1\n      dup2\n      mstore\n      0x20\n      add\n      0x00\n      keccak256\n        /* \"StekcitBMVRF.sol\":3789:3842  RequestStatus memory request = s_requests[_requestId] */\n      mload(0x40)\n      dup1\n      0x60\n      add\n      0x40\n      mstore\n      swap1\n      dup2\n      0x00\n      dup3\n      add\n      sload\n      dup2\n      mstore\n      0x20\n      add\n      0x01\n      dup3\n      add\n      0x00\n      swap1\n      sload\n      swap1\n      0x0100\n      exp\n      swap1\n      div\n      0xff\n      and\n      iszero\n      iszero\n      iszero\n      iszero\n      dup2\n      mstore\n      0x20\n      add\n      0x02\n      dup3\n      add\n      dup1\n      sload\n      dup1\n      0x20\n      mul\n      0x20\n      add\n      mload(0x40)\n      swap1\n      dup2\n      add\n      0x40\n      mstore\n      dup1\n      swap3\n      swap2\n      swap1\n      dup2\n      dup2\n      mstore\n      0x20\n      add\n      dup3\n      dup1\n      sload\n      dup1\n      iszero\n      tag_72\n      jumpi\n      0x20\n      mul\n      dup3\n      add\n      swap2\n      swap1\n      0x00\n      mstore\n      keccak256(0x00, 0x20)\n      swap1\n    tag_73:\n      dup2\n      sload\n      dup2\n      mstore\n      0x20\n      add\n      swap1\n      0x01\n      add\n      swap1\n      dup1\n      dup4\n      gt\n      tag_73\n      jumpi\n    tag_72:\n      pop\n      pop\n      pop\n      pop\n      pop\n      dup2\n      mstore\n      pop\n      pop\n      swap1\n      pop\n        /* \"StekcitBMVRF.sol\":3860:3867  request */\n      dup1\n        /* \"StekcitBMVRF.sol\":3860:3872  request.paid */\n      0x00\n      add\n      mload\n        /* \"StekcitBMVRF.sol\":3874:3881  request */\n      dup2\n        /* \"StekcitBMVRF.sol\":3874:3891  request.fulfilled */\n      0x20\n      add\n      mload\n        /* \"StekcitBMVRF.sol\":3893:3900  request */\n      dup3\n        /* \"StekcitBMVRF.sol\":3893:3912  request.randomWords */\n      0x40\n      add\n      mload\n        /* \"StekcitBMVRF.sol\":3852:3913  return (request.paid, request.fulfilled, request.randomWords) */\n      swap4\n      pop\n      swap4\n      pop\n      swap4\n      pop\n      pop\n        /* \"StekcitBMVRF.sol\":3505:3920  function getRequestStatus(uint256 _requestId)... */\n      swap2\n      swap4\n      swap1\n      swap3\n      pop\n      jump\t// out\n        /* \"StekcitBMVRF.sol\":2374:3000  function requestRandomWords()... */\n    tag_39:\n        /* \"StekcitBMVRF.sol\":2476:2493  uint256 requestId */\n      0x00\n        /* \"StekcitBMVRF.sol\":2530:2643  requestRandomness(... */\n      tag_75\n        /* \"StekcitBMVRF.sol\":2561:2577  callbackGasLimit */\n      0x04\n      0x00\n      swap1\n      sload\n      swap1\n      0x0100\n      exp\n      swap1\n      div\n      0xffffffff\n      and\n        /* \"StekcitBMVRF.sol\":2591:2611  requestConfirmations */\n      0x04\n      dup1\n      sload\n      swap1\n      0x0100\n      exp\n      swap1\n      div\n      0xffff\n      and\n        /* \"StekcitBMVRF.sol\":2625:2633  numWords */\n      0x04\n      0x06\n      swap1\n      sload\n      swap1\n      0x0100\n      exp\n      swap1\n      div\n      0xffffffff\n      and\n        /* \"StekcitBMVRF.sol\":2530:2547  requestRandomness */\n      tag_76\n        /* \"StekcitBMVRF.sol\":2530:2643  requestRandomness(... */\n      jump\t// in\n    tag_75:\n        /* \"StekcitBMVRF.sol\":2518:2643  requestId = requestRandomness(... */\n      swap1\n      pop\n        /* \"StekcitBMVRF.sol\":2677:2849  RequestStatus({... */\n      mload(0x40)\n      dup1\n      0x60\n      add\n      0x40\n      mstore\n      dup1\n        /* \"StekcitBMVRF.sol\":2711:2725  VRF_V2_WRAPPER */\n      immutable(\"0xe41a685dc3df81383d452481451b89eb3f69781b836c19936fa9714a13d1c9c2\")\n        /* \"StekcitBMVRF.sol\":2711:2747  VRF_V2_WRAPPER.calculateRequestPrice */\n      0xffffffffffffffffffffffffffffffffffffffff\n      and\n      0x4306d354\n        /* \"StekcitBMVRF.sol\":2748:2764  callbackGasLimit */\n      0x04\n      0x00\n      swap1\n      sload\n      swap1\n      0x0100\n      exp\n      swap1\n      div\n      0xffffffff\n      and\n        /* \"StekcitBMVRF.sol\":2711:2765  VRF_V2_WRAPPER.calculateRequestPrice(callbackGasLimit) */\n      mload(0x40)\n      dup3\n      0xffffffff\n      and\n      0xe0\n      shl\n      dup2\n      mstore\n      0x04\n      add\n      tag_77\n      swap2\n      swap1\n      tag_78\n      jump\t// in\n    tag_77:\n      0x20\n      mload(0x40)\n      dup1\n      dup4\n      sub\n      dup2\n      dup7\n      gas\n      staticcall\n      iszero\n      dup1\n      iszero\n      tag_80\n      jumpi\n      returndatasize\n      0x00\n      dup1\n      returndatacopy\n      revert(0x00, returndatasize)\n    tag_80:\n      pop\n      pop\n      pop\n      pop\n      mload(0x40)\n      returndatasize\n      not(0x1f)\n      0x1f\n      dup3\n      add\n      and\n      dup3\n      add\n      dup1\n      0x40\n      mstore\n      pop\n      dup2\n      add\n      swap1\n      tag_81\n      swap2\n      swap1\n      tag_58\n      jump\t// in\n    tag_81:\n        /* \"StekcitBMVRF.sol\":2677:2849  RequestStatus({... */\n      dup2\n      mstore\n      0x20\n      add\n        /* \"StekcitBMVRF.sol\":2833:2838  false */\n      0x00\n        /* \"StekcitBMVRF.sol\":2677:2849  RequestStatus({... */\n      iszero\n      iszero\n      dup2\n      mstore\n      0x20\n      add\n        /* \"StekcitBMVRF.sol\":2806:2807  0 */\n      0x00\n        /* \"StekcitBMVRF.sol\":2792:2808  new uint256[](0) */\n      0xffffffffffffffff\n      dup2\n      gt\n      iszero\n      tag_82\n      jumpi\n      tag_83\n      tag_84\n      jump\t// in\n    tag_83:\n    tag_82:\n      mload(0x40)\n      swap1\n      dup1\n      dup3\n      mstore\n      dup1\n      0x20\n      mul\n      0x20\n      add\n      dup3\n      add\n      0x40\n      mstore\n      dup1\n      iszero\n      tag_85\n      jumpi\n      dup2\n      0x20\n      add\n      0x20\n      dup3\n      mul\n      dup1\n      calldatasize\n      dup4\n      calldatacopy\n      dup1\n      dup3\n      add\n      swap2\n      pop\n      pop\n      swap1\n      pop\n    tag_85:\n      pop\n        /* \"StekcitBMVRF.sol\":2677:2849  RequestStatus({... */\n      dup2\n      mstore\n      pop\n        /* \"StekcitBMVRF.sol\":2653:2663  s_requests */\n      0x00\n        /* \"StekcitBMVRF.sol\":2653:2674  s_requests[requestId] */\n      dup1\n        /* \"StekcitBMVRF.sol\":2664:2673  requestId */\n      dup4\n        /* \"StekcitBMVRF.sol\":2653:2674  s_requests[requestId] */\n      dup2\n      mstore\n      0x20\n      add\n      swap1\n      dup2\n      mstore\n      0x20\n      add\n      0x00\n      keccak256\n        /* \"StekcitBMVRF.sol\":2653:2849  s_requests[requestId] = RequestStatus({... */\n      0x00\n      dup3\n      add\n      mload\n      dup2\n      0x00\n      add\n      sstore\n      0x20\n      dup3\n      add\n      mload\n      dup2\n      0x01\n      add\n      exp(0x0100, 0x00)\n      dup2\n      sload\n      dup2\n      0xff\n      mul\n      not\n      and\n      swap1\n      dup4\n      iszero\n      iszero\n      mul\n      or\n      swap1\n      sstore\n      pop\n      0x40\n      dup3\n      add\n      mload\n      dup2\n      0x02\n      add\n      swap1\n      dup1\n      mload\n      swap1\n      0x20\n      add\n      swap1\n      tag_86\n      swap3\n      swap2\n      swap1\n      tag_87\n      jump\t// in\n    tag_86:\n      pop\n      swap1\n      pop\n      pop\n        /* \"StekcitBMVRF.sol\":2859:2869  requestIds */\n      0x02\n        /* \"StekcitBMVRF.sol\":2875:2884  requestId */\n      dup2\n        /* \"StekcitBMVRF.sol\":2859:2885  requestIds.push(requestId) */\n      swap1\n      dup1\n      0x01\n      dup2\n      sload\n      add\n      dup1\n      dup3\n      sstore\n      dup1\n      swap2\n      pop\n      pop\n      0x01\n      swap1\n      sub\n      swap1\n      0x00\n      mstore\n      keccak256(0x00, 0x20)\n      add\n      0x00\n      swap1\n      swap2\n      swap1\n      swap2\n      swap1\n      swap2\n      pop\n      sstore\n        /* \"StekcitBMVRF.sol\":2911:2920  requestId */\n      dup1\n        /* \"StekcitBMVRF.sol\":2895:2908  lastRequestId */\n      0x03\n        /* \"StekcitBMVRF.sol\":2895:2920  lastRequestId = requestId */\n      dup2\n      swap1\n      sstore\n      pop\n        /* \"StekcitBMVRF.sol\":2935:2967  RequestSent(requestId, numWords) */\n      0xcc58b13ad3eab50626c6a6300b1d139cd6ebb1688a7cced9461c2f7e762665ee\n        /* \"StekcitBMVRF.sol\":2947:2956  requestId */\n      dup2\n        /* \"StekcitBMVRF.sol\":2958:2966  numWords */\n      0x04\n      0x06\n      swap1\n      sload\n      swap1\n      0x0100\n      exp\n      swap1\n      div\n      0xffffffff\n      and\n        /* \"StekcitBMVRF.sol\":2935:2967  RequestSent(requestId, numWords) */\n      mload(0x40)\n      tag_89\n      swap3\n      swap2\n      swap1\n      tag_90\n      jump\t// in\n    tag_89:\n      mload(0x40)\n      dup1\n      swap2\n      sub\n      swap1\n      log1\n        /* \"StekcitBMVRF.sol\":2374:3000  function requestRandomWords()... */\n      swap1\n      jump\t// out\n        /* \"StekcitBMVRF.sol\":1377:1405  uint256 public lastRequestId */\n    tag_42:\n      sload(0x03)\n      dup2\n      jump\t// out\n        /* \"StekcitBMVRF.sol\":3006:3499  function fulfillRandomWords(... */\n    tag_49:\n        /* \"StekcitBMVRF.sol\":3173:3174  0 */\n      0x00\n        /* \"StekcitBMVRF.sol\":3143:3153  s_requests */\n      dup1\n        /* \"StekcitBMVRF.sol\":3143:3165  s_requests[_requestId] */\n      0x00\n        /* \"StekcitBMVRF.sol\":3154:3164  _requestId */\n      dup5\n        /* \"StekcitBMVRF.sol\":3143:3165  s_requests[_requestId] */\n      dup2\n      mstore\n      0x20\n      add\n      swap1\n      dup2\n      mstore\n      0x20\n      add\n      0x00\n      keccak256\n        /* \"StekcitBMVRF.sol\":3143:3170  s_requests[_requestId].paid */\n      0x00\n      add\n      sload\n        /* \"StekcitBMVRF.sol\":3143:3174  s_requests[_requestId].paid > 0 */\n      gt\n        /* \"StekcitBMVRF.sol\":3135:3196  require(s_requests[_requestId].paid > 0, \"request not found\") */\n      tag_92\n      jumpi\n      mload(0x40)\n      0x08c379a000000000000000000000000000000000000000000000000000000000\n      dup2\n      mstore\n      0x04\n      add\n      tag_93\n      swap1\n      tag_71\n      jump\t// in\n    tag_93:\n      mload(0x40)\n      dup1\n      swap2\n      sub\n      swap1\n      revert\n    tag_92:\n        /* \"StekcitBMVRF.sol\":3241:3245  true */\n      0x01\n        /* \"StekcitBMVRF.sol\":3206:3216  s_requests */\n      0x00\n        /* \"StekcitBMVRF.sol\":3206:3228  s_requests[_requestId] */\n      dup1\n        /* \"StekcitBMVRF.sol\":3217:3227  _requestId */\n      dup5\n        /* \"StekcitBMVRF.sol\":3206:3228  s_requests[_requestId] */\n      dup2\n      mstore\n      0x20\n      add\n      swap1\n      dup2\n      mstore\n      0x20\n      add\n      0x00\n      keccak256\n        /* \"StekcitBMVRF.sol\":3206:3238  s_requests[_requestId].fulfilled */\n      0x01\n      add\n      0x00\n        /* \"StekcitBMVRF.sol\":3206:3245  s_requests[_requestId].fulfilled = true */\n      0x0100\n      exp\n      dup2\n      sload\n      dup2\n      0xff\n      mul\n      not\n      and\n      swap1\n      dup4\n      iszero\n      iszero\n      mul\n      or\n      swap1\n      sstore\n      pop\n        /* \"StekcitBMVRF.sol\":3292:3304  _randomWords */\n      dup1\n        /* \"StekcitBMVRF.sol\":3255:3265  s_requests */\n      0x00\n        /* \"StekcitBMVRF.sol\":3255:3277  s_requests[_requestId] */\n      dup1\n        /* \"StekcitBMVRF.sol\":3266:3276  _requestId */\n      dup5\n        /* \"StekcitBMVRF.sol\":3255:3277  s_requests[_requestId] */\n      dup2\n      mstore\n      0x20\n      add\n      swap1\n      dup2\n      mstore\n      0x20\n      add\n      0x00\n      keccak256\n        /* \"StekcitBMVRF.sol\":3255:3289  s_requests[_requestId].randomWords */\n      0x02\n      add\n        /* \"StekcitBMVRF.sol\":3255:3304  s_requests[_requestId].randomWords = _randomWords */\n      swap1\n      dup1\n      mload\n      swap1\n      0x20\n      add\n      swap1\n      tag_94\n      swap3\n      swap2\n      swap1\n      tag_87\n      jump\t// in\n    tag_94:\n      pop\n        /* \"StekcitBMVRF.sol\":3344:3356  _randomWords */\n      dup1\n        /* \"StekcitBMVRF.sol\":3357:3358  0 */\n      0x00\n        /* \"StekcitBMVRF.sol\":3344:3359  _randomWords[0] */\n      dup2\n      mload\n      dup2\n      lt\n      tag_95\n      jumpi\n      tag_96\n      tag_97\n      jump\t// in\n    tag_96:\n    tag_95:\n      0x20\n      mul\n      0x20\n      add\n      add\n      mload\n        /* \"StekcitBMVRF.sol\":3315:3329  allRandomWords */\n      0x01\n        /* \"StekcitBMVRF.sol\":3315:3341  allRandomWords[_requestId] */\n      0x00\n        /* \"StekcitBMVRF.sol\":3330:3340  _requestId */\n      dup5\n        /* \"StekcitBMVRF.sol\":3315:3341  allRandomWords[_requestId] */\n      dup2\n      mstore\n      0x20\n      add\n      swap1\n      dup2\n      mstore\n      0x20\n      add\n      0x00\n      keccak256\n        /* \"StekcitBMVRF.sol\":3315:3359  allRandomWords[_requestId] = _randomWords[0] */\n      dup2\n      swap1\n      sstore\n      pop\n        /* \"StekcitBMVRF.sol\":3375:3492  RequestFulfilled(... */\n      0x147eb1ff0c82f87f2b03e2c43f5a36488ff63ec6b730195fde4605f612f8db51\n        /* \"StekcitBMVRF.sol\":3405:3415  _requestId */\n      dup3\n        /* \"StekcitBMVRF.sol\":3429:3441  _randomWords */\n      dup3\n        /* \"StekcitBMVRF.sol\":3455:3465  s_requests */\n      0x00\n        /* \"StekcitBMVRF.sol\":3455:3477  s_requests[_requestId] */\n      dup1\n        /* \"StekcitBMVRF.sol\":3466:3476  _requestId */\n      dup7\n        /* \"StekcitBMVRF.sol\":3455:3477  s_requests[_requestId] */\n      dup2\n      mstore\n      0x20\n      add\n      swap1\n      dup2\n      mstore\n      0x20\n      add\n      0x00\n      keccak256\n        /* \"StekcitBMVRF.sol\":3455:3482  s_requests[_requestId].paid */\n      0x00\n      add\n      sload\n        /* \"StekcitBMVRF.sol\":3375:3492  RequestFulfilled(... */\n      mload(0x40)\n      tag_98\n      swap4\n      swap3\n      swap2\n      swap1\n      tag_99\n      jump\t// in\n    tag_98:\n      mload(0x40)\n      dup1\n      swap2\n      sub\n      swap1\n      log1\n        /* \"StekcitBMVRF.sol\":3006:3499  function fulfillRandomWords(... */\n      pop\n      pop\n      jump\t// out\n        /* \"@chainlink/contracts@1.1.0/src/v0.8/vrf/VRFV2WrapperConsumerBase.sol\":2968:3367  function requestRandomness(... */\n    tag_76:\n        /* \"@chainlink/contracts@1.1.0/src/v0.8/vrf/VRFV2WrapperConsumerBase.sol\":3103:3120  uint256 requestId */\n      0x00\n        /* \"@chainlink/contracts@1.1.0/src/v0.8/vrf/VRFV2WrapperConsumerBase.sol\":3128:3132  LINK */\n      immutable(\"0x2e5129c19be59da29ff89133759e8d7e21d926bf22eda9cdfd27c0cd8774b8c2\")\n        /* \"@chainlink/contracts@1.1.0/src/v0.8/vrf/VRFV2WrapperConsumerBase.sol\":3128:3148  LINK.transferAndCall */\n      0xffffffffffffffffffffffffffffffffffffffff\n      and\n      0x4000aea0\n        /* \"@chainlink/contracts@1.1.0/src/v0.8/vrf/VRFV2WrapperConsumerBase.sol\":3164:3178  VRF_V2_WRAPPER */\n      immutable(\"0xe41a685dc3df81383d452481451b89eb3f69781b836c19936fa9714a13d1c9c2\")\n        /* \"@chainlink/contracts@1.1.0/src/v0.8/vrf/VRFV2WrapperConsumerBase.sol\":3187:3201  VRF_V2_WRAPPER */\n      immutable(\"0xe41a685dc3df81383d452481451b89eb3f69781b836c19936fa9714a13d1c9c2\")\n        /* \"@chainlink/contracts@1.1.0/src/v0.8/vrf/VRFV2WrapperConsumerBase.sol\":3187:3223  VRF_V2_WRAPPER.calculateRequestPrice */\n      0xffffffffffffffffffffffffffffffffffffffff\n      and\n      0x4306d354\n        /* \"@chainlink/contracts@1.1.0/src/v0.8/vrf/VRFV2WrapperConsumerBase.sol\":3224:3241  _callbackGasLimit */\n      dup9\n        /* \"@chainlink/contracts@1.1.0/src/v0.8/vrf/VRFV2WrapperConsumerBase.sol\":3187:3242  VRF_V2_WRAPPER.calculateRequestPrice(_callbackGasLimit) */\n      mload(0x40)\n      dup3\n      0xffffffff\n      and\n      0xe0\n      shl\n      dup2\n      mstore\n      0x04\n      add\n      tag_101\n      swap2\n      swap1\n      tag_78\n      jump\t// in\n    tag_101:\n      0x20\n      mload(0x40)\n      dup1\n      dup4\n      sub\n      dup2\n      dup7\n      gas\n      staticcall\n      iszero\n      dup1\n      iszero\n      tag_103\n      jumpi\n      returndatasize\n      0x00\n      dup1\n      returndatacopy\n      revert(0x00, returndatasize)\n    tag_103:\n      pop\n      pop\n      pop\n      pop\n      mload(0x40)\n      returndatasize\n      not(0x1f)\n      0x1f\n      dup3\n      add\n      and\n      dup3\n      add\n      dup1\n      0x40\n      mstore\n      pop\n      dup2\n      add\n      swap1\n      tag_104\n      swap2\n      swap1\n      tag_58\n      jump\t// in\n    tag_104:\n        /* \"@chainlink/contracts@1.1.0/src/v0.8/vrf/VRFV2WrapperConsumerBase.sol\":3261:3278  _callbackGasLimit */\n      dup8\n        /* \"@chainlink/contracts@1.1.0/src/v0.8/vrf/VRFV2WrapperConsumerBase.sol\":3280:3301  _requestConfirmations */\n      dup8\n        /* \"@chainlink/contracts@1.1.0/src/v0.8/vrf/VRFV2WrapperConsumerBase.sol\":3303:3312  _numWords */\n      dup8\n        /* \"@chainlink/contracts@1.1.0/src/v0.8/vrf/VRFV2WrapperConsumerBase.sol\":3250:3313  abi.encode(_callbackGasLimit, _requestConfirmations, _numWords) */\n      add(0x20, mload(0x40))\n      tag_105\n      swap4\n      swap3\n      swap2\n      swap1\n      tag_106\n      jump\t// in\n    tag_105:\n      mload(0x40)\n      0x20\n      dup2\n      dup4\n      sub\n      sub\n      dup2\n      mstore\n      swap1\n      0x40\n      mstore\n        /* \"@chainlink/contracts@1.1.0/src/v0.8/vrf/VRFV2WrapperConsumerBase.sol\":3128:3319  LINK.transferAndCall(... */\n      mload(0x40)\n      dup5\n      0xffffffff\n      and\n      0xe0\n      shl\n      dup2\n      mstore\n      0x04\n      add\n      tag_107\n      swap4\n      swap3\n      swap2\n      swap1\n      tag_108\n      jump\t// in\n    tag_107:\n      0x20\n      mload(0x40)\n      dup1\n      dup4\n      sub\n      dup2\n      0x00\n      dup8\n      gas\n      call\n      iszero\n      dup1\n      iszero\n      tag_110\n      jumpi\n      returndatasize\n      0x00\n      dup1\n      returndatacopy\n      revert(0x00, returndatasize)\n    tag_110:\n      pop\n      pop\n      pop\n      pop\n      mload(0x40)\n      returndatasize\n      not(0x1f)\n      0x1f\n      dup3\n      add\n      and\n      dup3\n      add\n      dup1\n      0x40\n      mstore\n      pop\n      dup2\n      add\n      swap1\n      tag_111\n      swap2\n      swap1\n      tag_64\n      jump\t// in\n    tag_111:\n      pop\n        /* \"@chainlink/contracts@1.1.0/src/v0.8/vrf/VRFV2WrapperConsumerBase.sol\":3332:3346  VRF_V2_WRAPPER */\n      immutable(\"0xe41a685dc3df81383d452481451b89eb3f69781b836c19936fa9714a13d1c9c2\")\n        /* \"@chainlink/contracts@1.1.0/src/v0.8/vrf/VRFV2WrapperConsumerBase.sol\":3332:3360  VRF_V2_WRAPPER.lastRequestId */\n      0xffffffffffffffffffffffffffffffffffffffff\n      and\n      0xfc2a88c3\n        /* \"@chainlink/contracts@1.1.0/src/v0.8/vrf/VRFV2WrapperConsumerBase.sol\":3332:3362  VRF_V2_WRAPPER.lastRequestId() */\n      mload(0x40)\n      dup2\n      0xffffffff\n      and\n      0xe0\n      shl\n      dup2\n      mstore\n      0x04\n      add\n      0x20\n      mload(0x40)\n      dup1\n      dup4\n      sub\n      dup2\n      dup7\n      gas\n      staticcall\n      iszero\n      dup1\n      iszero\n      tag_113\n      jumpi\n      returndatasize\n      0x00\n      dup1\n      returndatacopy\n      revert(0x00, returndatasize)\n    tag_113:\n      pop\n      pop\n      pop\n      pop\n      mload(0x40)\n      returndatasize\n      not(0x1f)\n      0x1f\n      dup3\n      add\n      and\n      dup3\n      add\n      dup1\n      0x40\n      mstore\n      pop\n      dup2\n      add\n      swap1\n      tag_114\n      swap2\n      swap1\n      tag_58\n      jump\t// in\n    tag_114:\n        /* \"@chainlink/contracts@1.1.0/src/v0.8/vrf/VRFV2WrapperConsumerBase.sol\":3325:3362  return VRF_V2_WRAPPER.lastRequestId() */\n      swap1\n      pop\n        /* \"@chainlink/contracts@1.1.0/src/v0.8/vrf/VRFV2WrapperConsumerBase.sol\":2968:3367  function requestRandomness(... */\n      swap4\n      swap3\n      pop\n      pop\n      pop\n      jump\t// out\n    tag_87:\n      dup3\n      dup1\n      sload\n      dup3\n      dup3\n      sstore\n      swap1\n      0x00\n      mstore\n      keccak256(0x00, 0x20)\n      swap1\n      dup2\n      add\n      swap3\n      dup3\n      iszero\n      tag_115\n      jumpi\n      swap2\n      0x20\n      mul\n      dup3\n      add\n    tag_116:\n      dup3\n      dup2\n      gt\n      iszero\n      tag_117\n      jumpi\n      dup3\n      mload\n      dup3\n      sstore\n      swap2\n      0x20\n      add\n      swap2\n      swap1\n      0x01\n      add\n      swap1\n      jump(tag_116)\n    tag_117:\n    tag_115:\n      pop\n      swap1\n      pop\n      tag_118\n      swap2\n      swap1\n      tag_119\n      jump\t// in\n    tag_118:\n      pop\n      swap1\n      jump\t// out\n    tag_119:\n    tag_120:\n      dup1\n      dup3\n      gt\n      iszero\n      tag_121\n      jumpi\n      0x00\n      dup2\n      0x00\n      swap1\n      sstore\n      pop\n      0x01\n      add\n      jump(tag_120)\n    tag_121:\n      pop\n      swap1\n      jump\t// out\n        /* \"#utility.yul\":7:82   */\n    tag_122:\n        /* \"#utility.yul\":40:46   */\n      0x00\n        /* \"#utility.yul\":73:75   */\n      0x40\n        /* \"#utility.yul\":67:76   */\n      mload\n        /* \"#utility.yul\":57:76   */\n      swap1\n      pop\n        /* \"#utility.yul\":7:82   */\n      swap1\n      jump\t// out\n        /* \"#utility.yul\":88:205   */\n    tag_123:\n        /* \"#utility.yul\":197:198   */\n      0x00\n        /* \"#utility.yul\":194:195   */\n      dup1\n        /* \"#utility.yul\":187:199   */\n      revert\n        /* \"#utility.yul\":211:328   */\n    tag_124:\n        /* \"#utility.yul\":320:321   */\n      0x00\n        /* \"#utility.yul\":317:318   */\n      dup1\n        /* \"#utility.yul\":310:322   */\n      revert\n        /* \"#utility.yul\":334:411   */\n    tag_125:\n        /* \"#utility.yul\":371:378   */\n      0x00\n        /* \"#utility.yul\":400:405   */\n      dup2\n        /* \"#utility.yul\":389:405   */\n      swap1\n      pop\n        /* \"#utility.yul\":334:411   */\n      swap2\n      swap1\n      pop\n      jump\t// out\n        /* \"#utility.yul\":417:539   */\n    tag_126:\n        /* \"#utility.yul\":490:514   */\n      tag_173\n        /* \"#utility.yul\":508:513   */\n      dup2\n        /* \"#utility.yul\":490:514   */\n      tag_125\n      jump\t// in\n    tag_173:\n        /* \"#utility.yul\":483:488   */\n      dup2\n        /* \"#utility.yul\":480:515   */\n      eq\n        /* \"#utility.yul\":470:533   */\n      tag_174\n      jumpi\n        /* \"#utility.yul\":529:530   */\n      0x00\n        /* \"#utility.yul\":526:527   */\n      dup1\n        /* \"#utility.yul\":519:531   */\n      revert\n        /* \"#utility.yul\":470:533   */\n    tag_174:\n        /* \"#utility.yul\":417:539   */\n      pop\n      jump\t// out\n        /* \"#utility.yul\":545:684   */\n    tag_127:\n        /* \"#utility.yul\":591:596   */\n      0x00\n        /* \"#utility.yul\":629:635   */\n      dup2\n        /* \"#utility.yul\":616:636   */\n      calldataload\n        /* \"#utility.yul\":607:636   */\n      swap1\n      pop\n        /* \"#utility.yul\":645:678   */\n      tag_176\n        /* \"#utility.yul\":672:677   */\n      dup2\n        /* \"#utility.yul\":645:678   */\n      tag_126\n      jump\t// in\n    tag_176:\n        /* \"#utility.yul\":545:684   */\n      swap3\n      swap2\n      pop\n      pop\n      jump\t// out\n        /* \"#utility.yul\":690:807   */\n    tag_128:\n        /* \"#utility.yul\":799:800   */\n      0x00\n        /* \"#utility.yul\":796:797   */\n      dup1\n        /* \"#utility.yul\":789:801   */\n      revert\n        /* \"#utility.yul\":813:915   */\n    tag_129:\n        /* \"#utility.yul\":854:860   */\n      0x00\n        /* \"#utility.yul\":905:907   */\n      0x1f\n        /* \"#utility.yul\":901:908   */\n      not\n        /* \"#utility.yul\":896:898   */\n      0x1f\n        /* \"#utility.yul\":889:894   */\n      dup4\n        /* \"#utility.yul\":885:899   */\n      add\n        /* \"#utility.yul\":881:909   */\n      and\n        /* \"#utility.yul\":871:909   */\n      swap1\n      pop\n        /* \"#utility.yul\":813:915   */\n      swap2\n      swap1\n      pop\n      jump\t// out\n        /* \"#utility.yul\":921:1101   */\n    tag_84:\n        /* \"#utility.yul\":969:1046   */\n      0x4e487b7100000000000000000000000000000000000000000000000000000000\n        /* \"#utility.yul\":966:967   */\n      0x00\n        /* \"#utility.yul\":959:1047   */\n      mstore\n        /* \"#utility.yul\":1066:1070   */\n      0x41\n        /* \"#utility.yul\":1063:1064   */\n      0x04\n        /* \"#utility.yul\":1056:1071   */\n      mstore\n        /* \"#utility.yul\":1090:1094   */\n      0x24\n        /* \"#utility.yul\":1087:1088   */\n      0x00\n        /* \"#utility.yul\":1080:1095   */\n      revert\n        /* \"#utility.yul\":1107:1388   */\n    tag_130:\n        /* \"#utility.yul\":1190:1217   */\n      tag_181\n        /* \"#utility.yul\":1212:1216   */\n      dup3\n        /* \"#utility.yul\":1190:1217   */\n      tag_129\n      jump\t// in\n    tag_181:\n        /* \"#utility.yul\":1182:1188   */\n      dup2\n        /* \"#utility.yul\":1178:1218   */\n      add\n        /* \"#utility.yul\":1320:1326   */\n      dup2\n        /* \"#utility.yul\":1308:1318   */\n      dup2\n        /* \"#utility.yul\":1305:1327   */\n      lt\n        /* \"#utility.yul\":1284:1302   */\n      0xffffffffffffffff\n        /* \"#utility.yul\":1272:1282   */\n      dup3\n        /* \"#utility.yul\":1269:1303   */\n      gt\n        /* \"#utility.yul\":1266:1328   */\n      or\n        /* \"#utility.yul\":1263:1351   */\n      iszero\n      tag_182\n      jumpi\n        /* \"#utility.yul\":1331:1349   */\n      tag_183\n      tag_84\n      jump\t// in\n    tag_183:\n        /* \"#utility.yul\":1263:1351   */\n    tag_182:\n        /* \"#utility.yul\":1371:1381   */\n      dup1\n        /* \"#utility.yul\":1367:1369   */\n      0x40\n        /* \"#utility.yul\":1360:1382   */\n      mstore\n        /* \"#utility.yul\":1150:1388   */\n      pop\n        /* \"#utility.yul\":1107:1388   */\n      pop\n      pop\n      jump\t// out\n        /* \"#utility.yul\":1394:1523   */\n    tag_131:\n        /* \"#utility.yul\":1428:1434   */\n      0x00\n        /* \"#utility.yul\":1455:1475   */\n      tag_185\n      tag_122\n      jump\t// in\n    tag_185:\n        /* \"#utility.yul\":1445:1475   */\n      swap1\n      pop\n        /* \"#utility.yul\":1484:1517   */\n      tag_186\n        /* \"#utility.yul\":1512:1516   */\n      dup3\n        /* \"#utility.yul\":1504:1510   */\n      dup3\n        /* \"#utility.yul\":1484:1517   */\n      tag_130\n      jump\t// in\n    tag_186:\n        /* \"#utility.yul\":1394:1523   */\n      swap2\n      swap1\n      pop\n      jump\t// out\n        /* \"#utility.yul\":1529:1840   */\n    tag_132:\n        /* \"#utility.yul\":1606:1610   */\n      0x00\n        /* \"#utility.yul\":1696:1714   */\n      0xffffffffffffffff\n        /* \"#utility.yul\":1688:1694   */\n      dup3\n        /* \"#utility.yul\":1685:1715   */\n      gt\n        /* \"#utility.yul\":1682:1738   */\n      iszero\n      tag_188\n      jumpi\n        /* \"#utility.yul\":1718:1736   */\n      tag_189\n      tag_84\n      jump\t// in\n    tag_189:\n        /* \"#utility.yul\":1682:1738   */\n    tag_188:\n        /* \"#utility.yul\":1768:1772   */\n      0x20\n        /* \"#utility.yul\":1760:1766   */\n      dup3\n        /* \"#utility.yul\":1756:1773   */\n      mul\n        /* \"#utility.yul\":1748:1773   */\n      swap1\n      pop\n        /* \"#utility.yul\":1828:1832   */\n      0x20\n        /* \"#utility.yul\":1822:1826   */\n      dup2\n        /* \"#utility.yul\":1818:1833   */\n      add\n        /* \"#utility.yul\":1810:1833   */\n      swap1\n      pop\n        /* \"#utility.yul\":1529:1840   */\n      swap2\n      swap1\n      pop\n      jump\t// out\n        /* \"#utility.yul\":1846:1963   */\n    tag_133:\n        /* \"#utility.yul\":1955:1956   */\n      0x00\n        /* \"#utility.yul\":1952:1953   */\n      dup1\n        /* \"#utility.yul\":1945:1957   */\n      revert\n        /* \"#utility.yul\":1986:2696   */\n    tag_134:\n        /* \"#utility.yul\":2082:2087   */\n      0x00\n        /* \"#utility.yul\":2107:2188   */\n      tag_192\n        /* \"#utility.yul\":2123:2187   */\n      tag_193\n        /* \"#utility.yul\":2180:2186   */\n      dup5\n        /* \"#utility.yul\":2123:2187   */\n      tag_132\n      jump\t// in\n    tag_193:\n        /* \"#utility.yul\":2107:2188   */\n      tag_131\n      jump\t// in\n    tag_192:\n        /* \"#utility.yul\":2098:2188   */\n      swap1\n      pop\n        /* \"#utility.yul\":2208:2213   */\n      dup1\n        /* \"#utility.yul\":2237:2243   */\n      dup4\n        /* \"#utility.yul\":2230:2235   */\n      dup3\n        /* \"#utility.yul\":2223:2244   */\n      mstore\n        /* \"#utility.yul\":2271:2275   */\n      0x20\n        /* \"#utility.yul\":2264:2269   */\n      dup3\n        /* \"#utility.yul\":2260:2276   */\n      add\n        /* \"#utility.yul\":2253:2276   */\n      swap1\n      pop\n        /* \"#utility.yul\":2324:2328   */\n      0x20\n        /* \"#utility.yul\":2316:2322   */\n      dup5\n        /* \"#utility.yul\":2312:2329   */\n      mul\n        /* \"#utility.yul\":2304:2310   */\n      dup4\n        /* \"#utility.yul\":2300:2330   */\n      add\n        /* \"#utility.yul\":2353:2356   */\n      dup6\n        /* \"#utility.yul\":2345:2351   */\n      dup2\n        /* \"#utility.yul\":2342:2357   */\n      gt\n        /* \"#utility.yul\":2339:2461   */\n      iszero\n      tag_194\n      jumpi\n        /* \"#utility.yul\":2372:2451   */\n      tag_195\n      tag_133\n      jump\t// in\n    tag_195:\n        /* \"#utility.yul\":2339:2461   */\n    tag_194:\n        /* \"#utility.yul\":2487:2493   */\n      dup4\n        /* \"#utility.yul\":2470:2690   */\n    tag_196:\n        /* \"#utility.yul\":2504:2510   */\n      dup2\n        /* \"#utility.yul\":2499:2502   */\n      dup2\n        /* \"#utility.yul\":2496:2511   */\n      lt\n        /* \"#utility.yul\":2470:2690   */\n      iszero\n      tag_198\n      jumpi\n        /* \"#utility.yul\":2579:2582   */\n      dup1\n        /* \"#utility.yul\":2608:2645   */\n      tag_199\n        /* \"#utility.yul\":2641:2644   */\n      dup9\n        /* \"#utility.yul\":2629:2639   */\n      dup3\n        /* \"#utility.yul\":2608:2645   */\n      tag_127\n      jump\t// in\n    tag_199:\n        /* \"#utility.yul\":2603:2606   */\n      dup5\n        /* \"#utility.yul\":2596:2646   */\n      mstore\n        /* \"#utility.yul\":2675:2679   */\n      0x20\n        /* \"#utility.yul\":2670:2673   */\n      dup5\n        /* \"#utility.yul\":2666:2680   */\n      add\n        /* \"#utility.yul\":2659:2680   */\n      swap4\n      pop\n        /* \"#utility.yul\":2546:2690   */\n      pop\n        /* \"#utility.yul\":2530:2534   */\n      0x20\n        /* \"#utility.yul\":2525:2528   */\n      dup2\n        /* \"#utility.yul\":2521:2535   */\n      add\n        /* \"#utility.yul\":2514:2535   */\n      swap1\n      pop\n        /* \"#utility.yul\":2470:2690   */\n      jump(tag_196)\n    tag_198:\n        /* \"#utility.yul\":2474:2495   */\n      pop\n        /* \"#utility.yul\":2088:2696   */\n      pop\n      pop\n        /* \"#utility.yul\":1986:2696   */\n      swap4\n      swap3\n      pop\n      pop\n      pop\n      jump\t// out\n        /* \"#utility.yul\":2719:3089   */\n    tag_135:\n        /* \"#utility.yul\":2790:2795   */\n      0x00\n        /* \"#utility.yul\":2839:2842   */\n      dup3\n        /* \"#utility.yul\":2832:2836   */\n      0x1f\n        /* \"#utility.yul\":2824:2830   */\n      dup4\n        /* \"#utility.yul\":2820:2837   */\n      add\n        /* \"#utility.yul\":2816:2843   */\n      slt\n        /* \"#utility.yul\":2806:2928   */\n      tag_201\n      jumpi\n        /* \"#utility.yul\":2847:2926   */\n      tag_202\n      tag_128\n      jump\t// in\n    tag_202:\n        /* \"#utility.yul\":2806:2928   */\n    tag_201:\n        /* \"#utility.yul\":2964:2970   */\n      dup2\n        /* \"#utility.yul\":2951:2971   */\n      calldataload\n        /* \"#utility.yul\":2989:3083   */\n      tag_203\n        /* \"#utility.yul\":3079:3082   */\n      dup5\n        /* \"#utility.yul\":3071:3077   */\n      dup3\n        /* \"#utility.yul\":3064:3068   */\n      0x20\n        /* \"#utility.yul\":3056:3062   */\n      dup7\n        /* \"#utility.yul\":3052:3069   */\n      add\n        /* \"#utility.yul\":2989:3083   */\n      tag_134\n      jump\t// in\n    tag_203:\n        /* \"#utility.yul\":2980:3083   */\n      swap2\n      pop\n        /* \"#utility.yul\":2796:3089   */\n      pop\n        /* \"#utility.yul\":2719:3089   */\n      swap3\n      swap2\n      pop\n      pop\n      jump\t// out\n        /* \"#utility.yul\":3095:3779   */\n    tag_14:\n        /* \"#utility.yul\":3188:3194   */\n      0x00\n        /* \"#utility.yul\":3196:3202   */\n      dup1\n        /* \"#utility.yul\":3245:3247   */\n      0x40\n        /* \"#utility.yul\":3233:3242   */\n      dup4\n        /* \"#utility.yul\":3224:3231   */\n      dup6\n        /* \"#utility.yul\":3220:3243   */\n      sub\n        /* \"#utility.yul\":3216:3248   */\n      slt\n        /* \"#utility.yul\":3213:3332   */\n      iszero\n      tag_205\n      jumpi\n        /* \"#utility.yul\":3251:3330   */\n      tag_206\n      tag_123\n      jump\t// in\n    tag_206:\n        /* \"#utility.yul\":3213:3332   */\n    tag_205:\n        /* \"#utility.yul\":3371:3372   */\n      0x00\n        /* \"#utility.yul\":3396:3449   */\n      tag_207\n        /* \"#utility.yul\":3441:3448   */\n      dup6\n        /* \"#utility.yul\":3432:3438   */\n      dup3\n        /* \"#utility.yul\":3421:3430   */\n      dup7\n        /* \"#utility.yul\":3417:3439   */\n      add\n        /* \"#utility.yul\":3396:3449   */\n      tag_127\n      jump\t// in\n    tag_207:\n        /* \"#utility.yul\":3386:3449   */\n      swap3\n      pop\n        /* \"#utility.yul\":3342:3459   */\n      pop\n        /* \"#utility.yul\":3526:3528   */\n      0x20\n        /* \"#utility.yul\":3515:3524   */\n      dup4\n        /* \"#utility.yul\":3511:3529   */\n      add\n        /* \"#utility.yul\":3498:3530   */\n      calldataload\n        /* \"#utility.yul\":3557:3575   */\n      0xffffffffffffffff\n        /* \"#utility.yul\":3549:3555   */\n      dup2\n        /* \"#utility.yul\":3546:3576   */\n      gt\n        /* \"#utility.yul\":3543:3660   */\n      iszero\n      tag_208\n      jumpi\n        /* \"#utility.yul\":3579:3658   */\n      tag_209\n      tag_124\n      jump\t// in\n    tag_209:\n        /* \"#utility.yul\":3543:3660   */\n    tag_208:\n        /* \"#utility.yul\":3684:3762   */\n      tag_210\n        /* \"#utility.yul\":3754:3761   */\n      dup6\n        /* \"#utility.yul\":3745:3751   */\n      dup3\n        /* \"#utility.yul\":3734:3743   */\n      dup7\n        /* \"#utility.yul\":3730:3752   */\n      add\n        /* \"#utility.yul\":3684:3762   */\n      tag_135\n      jump\t// in\n    tag_210:\n        /* \"#utility.yul\":3674:3762   */\n      swap2\n      pop\n        /* \"#utility.yul\":3469:3772   */\n      pop\n        /* \"#utility.yul\":3095:3779   */\n      swap3\n      pop\n      swap3\n      swap1\n      pop\n      jump\t// out\n        /* \"#utility.yul\":3785:4114   */\n    tag_18:\n        /* \"#utility.yul\":3844:3850   */\n      0x00\n        /* \"#utility.yul\":3893:3895   */\n      0x20\n        /* \"#utility.yul\":3881:3890   */\n      dup3\n        /* \"#utility.yul\":3872:3879   */\n      dup5\n        /* \"#utility.yul\":3868:3891   */\n      sub\n        /* \"#utility.yul\":3864:3896   */\n      slt\n        /* \"#utility.yul\":3861:3980   */\n      iszero\n      tag_212\n      jumpi\n        /* \"#utility.yul\":3899:3978   */\n      tag_213\n      tag_123\n      jump\t// in\n    tag_213:\n        /* \"#utility.yul\":3861:3980   */\n    tag_212:\n        /* \"#utility.yul\":4019:4020   */\n      0x00\n        /* \"#utility.yul\":4044:4097   */\n      tag_214\n        /* \"#utility.yul\":4089:4096   */\n      dup5\n        /* \"#utility.yul\":4080:4086   */\n      dup3\n        /* \"#utility.yul\":4069:4078   */\n      dup6\n        /* \"#utility.yul\":4065:4087   */\n      add\n        /* \"#utility.yul\":4044:4097   */\n      tag_127\n      jump\t// in\n    tag_214:\n        /* \"#utility.yul\":4034:4097   */\n      swap2\n      pop\n        /* \"#utility.yul\":3990:4107   */\n      pop\n        /* \"#utility.yul\":3785:4114   */\n      swap3\n      swap2\n      pop\n      pop\n      jump\t// out\n        /* \"#utility.yul\":4120:4238   */\n    tag_136:\n        /* \"#utility.yul\":4207:4231   */\n      tag_216\n        /* \"#utility.yul\":4225:4230   */\n      dup2\n        /* \"#utility.yul\":4207:4231   */\n      tag_125\n      jump\t// in\n    tag_216:\n        /* \"#utility.yul\":4202:4205   */\n      dup3\n        /* \"#utility.yul\":4195:4232   */\n      mstore\n        /* \"#utility.yul\":4120:4238   */\n      pop\n      pop\n      jump\t// out\n        /* \"#utility.yul\":4244:4466   */\n    tag_21:\n        /* \"#utility.yul\":4337:4341   */\n      0x00\n        /* \"#utility.yul\":4375:4377   */\n      0x20\n        /* \"#utility.yul\":4364:4373   */\n      dup3\n        /* \"#utility.yul\":4360:4378   */\n      add\n        /* \"#utility.yul\":4352:4378   */\n      swap1\n      pop\n        /* \"#utility.yul\":4388:4459   */\n      tag_218\n        /* \"#utility.yul\":4456:4457   */\n      0x00\n        /* \"#utility.yul\":4445:4454   */\n      dup4\n        /* \"#utility.yul\":4441:4458   */\n      add\n        /* \"#utility.yul\":4432:4438   */\n      dup5\n        /* \"#utility.yul\":4388:4459   */\n      tag_136\n      jump\t// in\n    tag_218:\n        /* \"#utility.yul\":4244:4466   */\n      swap3\n      swap2\n      pop\n      pop\n      jump\t// out\n        /* \"#utility.yul\":4472:4562   */\n    tag_137:\n        /* \"#utility.yul\":4506:4513   */\n      0x00\n        /* \"#utility.yul\":4549:4554   */\n      dup2\n        /* \"#utility.yul\":4542:4555   */\n      iszero\n        /* \"#utility.yul\":4535:4556   */\n      iszero\n        /* \"#utility.yul\":4524:4556   */\n      swap1\n      pop\n        /* \"#utility.yul\":4472:4562   */\n      swap2\n      swap1\n      pop\n      jump\t// out\n        /* \"#utility.yul\":4568:4677   */\n    tag_138:\n        /* \"#utility.yul\":4649:4670   */\n      tag_221\n        /* \"#utility.yul\":4664:4669   */\n      dup2\n        /* \"#utility.yul\":4649:4670   */\n      tag_137\n      jump\t// in\n    tag_221:\n        /* \"#utility.yul\":4644:4647   */\n      dup3\n        /* \"#utility.yul\":4637:4671   */\n      mstore\n        /* \"#utility.yul\":4568:4677   */\n      pop\n      pop\n      jump\t// out\n        /* \"#utility.yul\":4683:5003   */\n    tag_32:\n        /* \"#utility.yul\":4798:4802   */\n      0x00\n        /* \"#utility.yul\":4836:4838   */\n      0x40\n        /* \"#utility.yul\":4825:4834   */\n      dup3\n        /* \"#utility.yul\":4821:4839   */\n      add\n        /* \"#utility.yul\":4813:4839   */\n      swap1\n      pop\n        /* \"#utility.yul\":4849:4920   */\n      tag_223\n        /* \"#utility.yul\":4917:4918   */\n      0x00\n        /* \"#utility.yul\":4906:4915   */\n      dup4\n        /* \"#utility.yul\":4902:4919   */\n      add\n        /* \"#utility.yul\":4893:4899   */\n      dup6\n        /* \"#utility.yul\":4849:4920   */\n      tag_136\n      jump\t// in\n    tag_223:\n        /* \"#utility.yul\":4930:4996   */\n      tag_224\n        /* \"#utility.yul\":4992:4994   */\n      0x20\n        /* \"#utility.yul\":4981:4990   */\n      dup4\n        /* \"#utility.yul\":4977:4995   */\n      add\n        /* \"#utility.yul\":4968:4974   */\n      dup5\n        /* \"#utility.yul\":4930:4996   */\n      tag_138\n      jump\t// in\n    tag_224:\n        /* \"#utility.yul\":4683:5003   */\n      swap4\n      swap3\n      pop\n      pop\n      pop\n      jump\t// out\n        /* \"#utility.yul\":5009:5123   */\n    tag_139:\n        /* \"#utility.yul\":5076:5082   */\n      0x00\n        /* \"#utility.yul\":5110:5115   */\n      dup2\n        /* \"#utility.yul\":5104:5116   */\n      mload\n        /* \"#utility.yul\":5094:5116   */\n      swap1\n      pop\n        /* \"#utility.yul\":5009:5123   */\n      swap2\n      swap1\n      pop\n      jump\t// out\n        /* \"#utility.yul\":5129:5313   */\n    tag_140:\n        /* \"#utility.yul\":5228:5239   */\n      0x00\n        /* \"#utility.yul\":5262:5268   */\n      dup3\n        /* \"#utility.yul\":5257:5260   */\n      dup3\n        /* \"#utility.yul\":5250:5269   */\n      mstore\n        /* \"#utility.yul\":5302:5306   */\n      0x20\n        /* \"#utility.yul\":5297:5300   */\n      dup3\n        /* \"#utility.yul\":5293:5307   */\n      add\n        /* \"#utility.yul\":5278:5307   */\n      swap1\n      pop\n        /* \"#utility.yul\":5129:5313   */\n      swap3\n      swap2\n      pop\n      pop\n      jump\t// out\n        /* \"#utility.yul\":5319:5451   */\n    tag_141:\n        /* \"#utility.yul\":5386:5390   */\n      0x00\n        /* \"#utility.yul\":5409:5412   */\n      dup2\n        /* \"#utility.yul\":5401:5412   */\n      swap1\n      pop\n        /* \"#utility.yul\":5439:5443   */\n      0x20\n        /* \"#utility.yul\":5434:5437   */\n      dup3\n        /* \"#utility.yul\":5430:5444   */\n      add\n        /* \"#utility.yul\":5422:5444   */\n      swap1\n      pop\n        /* \"#utility.yul\":5319:5451   */\n      swap2\n      swap1\n      pop\n      jump\t// out\n        /* \"#utility.yul\":5457:5565   */\n    tag_142:\n        /* \"#utility.yul\":5534:5558   */\n      tag_229\n        /* \"#utility.yul\":5552:5557   */\n      dup2\n        /* \"#utility.yul\":5534:5558   */\n      tag_125\n      jump\t// in\n    tag_229:\n        /* \"#utility.yul\":5529:5532   */\n      dup3\n        /* \"#utility.yul\":5522:5559   */\n      mstore\n        /* \"#utility.yul\":5457:5565   */\n      pop\n      pop\n      jump\t// out\n        /* \"#utility.yul\":5571:5750   */\n    tag_143:\n        /* \"#utility.yul\":5640:5650   */\n      0x00\n        /* \"#utility.yul\":5661:5707   */\n      tag_231\n        /* \"#utility.yul\":5703:5706   */\n      dup4\n        /* \"#utility.yul\":5695:5701   */\n      dup4\n        /* \"#utility.yul\":5661:5707   */\n      tag_142\n      jump\t// in\n    tag_231:\n        /* \"#utility.yul\":5739:5743   */\n      0x20\n        /* \"#utility.yul\":5734:5737   */\n      dup4\n        /* \"#utility.yul\":5730:5744   */\n      add\n        /* \"#utility.yul\":5716:5744   */\n      swap1\n      pop\n        /* \"#utility.yul\":5571:5750   */\n      swap3\n      swap2\n      pop\n      pop\n      jump\t// out\n        /* \"#utility.yul\":5756:5869   */\n    tag_144:\n        /* \"#utility.yul\":5826:5830   */\n      0x00\n        /* \"#utility.yul\":5858:5862   */\n      0x20\n        /* \"#utility.yul\":5853:5856   */\n      dup3\n        /* \"#utility.yul\":5849:5863   */\n      add\n        /* \"#utility.yul\":5841:5863   */\n      swap1\n      pop\n        /* \"#utility.yul\":5756:5869   */\n      swap2\n      swap1\n      pop\n      jump\t// out\n        /* \"#utility.yul\":5905:6637   */\n    tag_145:\n        /* \"#utility.yul\":6024:6027   */\n      0x00\n        /* \"#utility.yul\":6053:6107   */\n      tag_234\n        /* \"#utility.yul\":6101:6106   */\n      dup3\n        /* \"#utility.yul\":6053:6107   */\n      tag_139\n      jump\t// in\n    tag_234:\n        /* \"#utility.yul\":6123:6209   */\n      tag_235\n        /* \"#utility.yul\":6202:6208   */\n      dup2\n        /* \"#utility.yul\":6197:6200   */\n      dup6\n        /* \"#utility.yul\":6123:6209   */\n      tag_140\n      jump\t// in\n    tag_235:\n        /* \"#utility.yul\":6116:6209   */\n      swap4\n      pop\n        /* \"#utility.yul\":6233:6289   */\n      tag_236\n        /* \"#utility.yul\":6283:6288   */\n      dup4\n        /* \"#utility.yul\":6233:6289   */\n      tag_141\n      jump\t// in\n    tag_236:\n        /* \"#utility.yul\":6312:6319   */\n      dup1\n        /* \"#utility.yul\":6343:6344   */\n      0x00\n        /* \"#utility.yul\":6328:6612   */\n    tag_237:\n        /* \"#utility.yul\":6353:6359   */\n      dup4\n        /* \"#utility.yul\":6350:6351   */\n      dup2\n        /* \"#utility.yul\":6347:6360   */\n      lt\n        /* \"#utility.yul\":6328:6612   */\n      iszero\n      tag_239\n      jumpi\n        /* \"#utility.yul\":6429:6435   */\n      dup2\n        /* \"#utility.yul\":6423:6436   */\n      mload\n        /* \"#utility.yul\":6456:6519   */\n      tag_240\n        /* \"#utility.yul\":6515:6518   */\n      dup9\n        /* \"#utility.yul\":6500:6513   */\n      dup3\n        /* \"#utility.yul\":6456:6519   */\n      tag_143\n      jump\t// in\n    tag_240:\n        /* \"#utility.yul\":6449:6519   */\n      swap8\n      pop\n        /* \"#utility.yul\":6542:6602   */\n      tag_241\n        /* \"#utility.yul\":6595:6601   */\n      dup4\n        /* \"#utility.yul\":6542:6602   */\n      tag_144\n      jump\t// in\n    tag_241:\n        /* \"#utility.yul\":6532:6602   */\n      swap3\n      pop\n        /* \"#utility.yul\":6388:6612   */\n      pop\n        /* \"#utility.yul\":6375:6376   */\n      0x01\n        /* \"#utility.yul\":6372:6373   */\n      dup2\n        /* \"#utility.yul\":6368:6377   */\n      add\n        /* \"#utility.yul\":6363:6377   */\n      swap1\n      pop\n        /* \"#utility.yul\":6328:6612   */\n      jump(tag_237)\n    tag_239:\n        /* \"#utility.yul\":6332:6346   */\n      pop\n        /* \"#utility.yul\":6628:6631   */\n      dup6\n        /* \"#utility.yul\":6621:6631   */\n      swap4\n      pop\n        /* \"#utility.yul\":6029:6637   */\n      pop\n      pop\n      pop\n        /* \"#utility.yul\":5905:6637   */\n      swap3\n      swap2\n      pop\n      pop\n      jump\t// out\n        /* \"#utility.yul\":6643:7224   */\n    tag_37:\n        /* \"#utility.yul\":6836:6840   */\n      0x00\n        /* \"#utility.yul\":6874:6876   */\n      0x60\n        /* \"#utility.yul\":6863:6872   */\n      dup3\n        /* \"#utility.yul\":6859:6877   */\n      add\n        /* \"#utility.yul\":6851:6877   */\n      swap1\n      pop\n        /* \"#utility.yul\":6887:6958   */\n      tag_243\n        /* \"#utility.yul\":6955:6956   */\n      0x00\n        /* \"#utility.yul\":6944:6953   */\n      dup4\n        /* \"#utility.yul\":6940:6957   */\n      add\n        /* \"#utility.yul\":6931:6937   */\n      dup7\n        /* \"#utility.yul\":6887:6958   */\n      tag_136\n      jump\t// in\n    tag_243:\n        /* \"#utility.yul\":6968:7034   */\n      tag_244\n        /* \"#utility.yul\":7030:7032   */\n      0x20\n        /* \"#utility.yul\":7019:7028   */\n      dup4\n        /* \"#utility.yul\":7015:7033   */\n      add\n        /* \"#utility.yul\":7006:7012   */\n      dup6\n        /* \"#utility.yul\":6968:7034   */\n      tag_138\n      jump\t// in\n    tag_244:\n        /* \"#utility.yul\":7081:7090   */\n      dup2\n        /* \"#utility.yul\":7075:7079   */\n      dup2\n        /* \"#utility.yul\":7071:7091   */\n      sub\n        /* \"#utility.yul\":7066:7068   */\n      0x40\n        /* \"#utility.yul\":7055:7064   */\n      dup4\n        /* \"#utility.yul\":7051:7069   */\n      add\n        /* \"#utility.yul\":7044:7092   */\n      mstore\n        /* \"#utility.yul\":7109:7217   */\n      tag_245\n        /* \"#utility.yul\":7212:7216   */\n      dup2\n        /* \"#utility.yul\":7203:7209   */\n      dup5\n        /* \"#utility.yul\":7109:7217   */\n      tag_145\n      jump\t// in\n    tag_245:\n        /* \"#utility.yul\":7101:7217   */\n      swap1\n      pop\n        /* \"#utility.yul\":6643:7224   */\n      swap5\n      swap4\n      pop\n      pop\n      pop\n      pop\n      jump\t// out\n        /* \"#utility.yul\":7230:7399   */\n    tag_146:\n        /* \"#utility.yul\":7314:7325   */\n      0x00\n        /* \"#utility.yul\":7348:7354   */\n      dup3\n        /* \"#utility.yul\":7343:7346   */\n      dup3\n        /* \"#utility.yul\":7336:7355   */\n      mstore\n        /* \"#utility.yul\":7388:7392   */\n      0x20\n        /* \"#utility.yul\":7383:7386   */\n      dup3\n        /* \"#utility.yul\":7379:7393   */\n      add\n        /* \"#utility.yul\":7364:7393   */\n      swap1\n      pop\n        /* \"#utility.yul\":7230:7399   */\n      swap3\n      swap2\n      pop\n      pop\n      jump\t// out\n        /* \"#utility.yul\":7405:7586   */\n    tag_147:\n        /* \"#utility.yul\":7545:7578   */\n      0x6f6e6c792056524620563220777261707065722063616e2066756c66696c6c00\n        /* \"#utility.yul\":7541:7542   */\n      0x00\n        /* \"#utility.yul\":7533:7539   */\n      dup3\n        /* \"#utility.yul\":7529:7543   */\n      add\n        /* \"#utility.yul\":7522:7579   */\n      mstore\n        /* \"#utility.yul\":7405:7586   */\n      pop\n      jump\t// out\n        /* \"#utility.yul\":7592:7958   */\n    tag_148:\n        /* \"#utility.yul\":7734:7737   */\n      0x00\n        /* \"#utility.yul\":7755:7822   */\n      tag_249\n        /* \"#utility.yul\":7819:7821   */\n      0x1f\n        /* \"#utility.yul\":7814:7817   */\n      dup4\n        /* \"#utility.yul\":7755:7822   */\n      tag_146\n      jump\t// in\n    tag_249:\n        /* \"#utility.yul\":7748:7822   */\n      swap2\n      pop\n        /* \"#utility.yul\":7831:7924   */\n      tag_250\n        /* \"#utility.yul\":7920:7923   */\n      dup3\n        /* \"#utility.yul\":7831:7924   */\n      tag_147\n      jump\t// in\n    tag_250:\n        /* \"#utility.yul\":7949:7951   */\n      0x20\n        /* \"#utility.yul\":7944:7947   */\n      dup3\n        /* \"#utility.yul\":7940:7952   */\n      add\n        /* \"#utility.yul\":7933:7952   */\n      swap1\n      pop\n        /* \"#utility.yul\":7592:7958   */\n      swap2\n      swap1\n      pop\n      jump\t// out\n        /* \"#utility.yul\":7964:8383   */\n    tag_47:\n        /* \"#utility.yul\":8130:8134   */\n      0x00\n        /* \"#utility.yul\":8168:8170   */\n      0x20\n        /* \"#utility.yul\":8157:8166   */\n      dup3\n        /* \"#utility.yul\":8153:8171   */\n      add\n        /* \"#utility.yul\":8145:8171   */\n      swap1\n      pop\n        /* \"#utility.yul\":8217:8226   */\n      dup2\n        /* \"#utility.yul\":8211:8215   */\n      dup2\n        /* \"#utility.yul\":8207:8227   */\n      sub\n        /* \"#utility.yul\":8203:8204   */\n      0x00\n        /* \"#utility.yul\":8192:8201   */\n      dup4\n        /* \"#utility.yul\":8188:8205   */\n      add\n        /* \"#utility.yul\":8181:8228   */\n      mstore\n        /* \"#utility.yul\":8245:8376   */\n      tag_252\n        /* \"#utility.yul\":8371:8375   */\n      dup2\n        /* \"#utility.yul\":8245:8376   */\n      tag_148\n      jump\t// in\n    tag_252:\n        /* \"#utility.yul\":8237:8376   */\n      swap1\n      pop\n        /* \"#utility.yul\":7964:8383   */\n      swap2\n      swap1\n      pop\n      jump\t// out\n        /* \"#utility.yul\":8389:8515   */\n    tag_149:\n        /* \"#utility.yul\":8426:8433   */\n      0x00\n        /* \"#utility.yul\":8466:8508   */\n      0xffffffffffffffffffffffffffffffffffffffff\n        /* \"#utility.yul\":8459:8464   */\n      dup3\n        /* \"#utility.yul\":8455:8509   */\n      and\n        /* \"#utility.yul\":8444:8509   */\n      swap1\n      pop\n        /* \"#utility.yul\":8389:8515   */\n      swap2\n      swap1\n      pop\n      jump\t// out\n        /* \"#utility.yul\":8521:8617   */\n    tag_150:\n        /* \"#utility.yul\":8558:8565   */\n      0x00\n        /* \"#utility.yul\":8587:8611   */\n      tag_255\n        /* \"#utility.yul\":8605:8610   */\n      dup3\n        /* \"#utility.yul\":8587:8611   */\n      tag_149\n      jump\t// in\n    tag_255:\n        /* \"#utility.yul\":8576:8611   */\n      swap1\n      pop\n        /* \"#utility.yul\":8521:8617   */\n      swap2\n      swap1\n      pop\n      jump\t// out\n        /* \"#utility.yul\":8623:8741   */\n    tag_151:\n        /* \"#utility.yul\":8710:8734   */\n      tag_257\n        /* \"#utility.yul\":8728:8733   */\n      dup2\n        /* \"#utility.yul\":8710:8734   */\n      tag_150\n      jump\t// in\n    tag_257:\n        /* \"#utility.yul\":8705:8708   */\n      dup3\n        /* \"#utility.yul\":8698:8735   */\n      mstore\n        /* \"#utility.yul\":8623:8741   */\n      pop\n      pop\n      jump\t// out\n        /* \"#utility.yul\":8747:8969   */\n    tag_54:\n        /* \"#utility.yul\":8840:8844   */\n      0x00\n        /* \"#utility.yul\":8878:8880   */\n      0x20\n        /* \"#utility.yul\":8867:8876   */\n      dup3\n        /* \"#utility.yul\":8863:8881   */\n      add\n        /* \"#utility.yul\":8855:8881   */\n      swap1\n      pop\n        /* \"#utility.yul\":8891:8962   */\n      tag_259\n        /* \"#utility.yul\":8959:8960   */\n      0x00\n        /* \"#utility.yul\":8948:8957   */\n      dup4\n        /* \"#utility.yul\":8944:8961   */\n      add\n        /* \"#utility.yul\":8935:8941   */\n      dup5\n        /* \"#utility.yul\":8891:8962   */\n      tag_151\n      jump\t// in\n    tag_259:\n        /* \"#utility.yul\":8747:8969   */\n      swap3\n      swap2\n      pop\n      pop\n      jump\t// out\n        /* \"#utility.yul\":8975:9118   */\n    tag_152:\n        /* \"#utility.yul\":9032:9037   */\n      0x00\n        /* \"#utility.yul\":9063:9069   */\n      dup2\n        /* \"#utility.yul\":9057:9070   */\n      mload\n        /* \"#utility.yul\":9048:9070   */\n      swap1\n      pop\n        /* \"#utility.yul\":9079:9112   */\n      tag_261\n        /* \"#utility.yul\":9106:9111   */\n      dup2\n        /* \"#utility.yul\":9079:9112   */\n      tag_126\n      jump\t// in\n    tag_261:\n        /* \"#utility.yul\":8975:9118   */\n      swap3\n      swap2\n      pop\n      pop\n      jump\t// out\n        /* \"#utility.yul\":9124:9475   */\n    tag_58:\n        /* \"#utility.yul\":9194:9200   */\n      0x00\n        /* \"#utility.yul\":9243:9245   */\n      0x20\n        /* \"#utility.yul\":9231:9240   */\n      dup3\n        /* \"#utility.yul\":9222:9229   */\n      dup5\n        /* \"#utility.yul\":9218:9241   */\n      sub\n        /* \"#utility.yul\":9214:9246   */\n      slt\n        /* \"#utility.yul\":9211:9330   */\n      iszero\n      tag_263\n      jumpi\n        /* \"#utility.yul\":9249:9328   */\n      tag_264\n      tag_123\n      jump\t// in\n    tag_264:\n        /* \"#utility.yul\":9211:9330   */\n    tag_263:\n        /* \"#utility.yul\":9369:9370   */\n      0x00\n        /* \"#utility.yul\":9394:9458   */\n      tag_265\n        /* \"#utility.yul\":9450:9457   */\n      dup5\n        /* \"#utility.yul\":9441:9447   */\n      dup3\n        /* \"#utility.yul\":9430:9439   */\n      dup6\n        /* \"#utility.yul\":9426:9448   */\n      add\n        /* \"#utility.yul\":9394:9458   */\n      tag_152\n      jump\t// in\n    tag_265:\n        /* \"#utility.yul\":9384:9458   */\n      swap2\n      pop\n        /* \"#utility.yul\":9340:9468   */\n      pop\n        /* \"#utility.yul\":9124:9475   */\n      swap3\n      swap2\n      pop\n      pop\n      jump\t// out\n        /* \"#utility.yul\":9481:9813   */\n    tag_60:\n        /* \"#utility.yul\":9602:9606   */\n      0x00\n        /* \"#utility.yul\":9640:9642   */\n      0x40\n        /* \"#utility.yul\":9629:9638   */\n      dup3\n        /* \"#utility.yul\":9625:9643   */\n      add\n        /* \"#utility.yul\":9617:9643   */\n      swap1\n      pop\n        /* \"#utility.yul\":9653:9724   */\n      tag_267\n        /* \"#utility.yul\":9721:9722   */\n      0x00\n        /* \"#utility.yul\":9710:9719   */\n      dup4\n        /* \"#utility.yul\":9706:9723   */\n      add\n        /* \"#utility.yul\":9697:9703   */\n      dup6\n        /* \"#utility.yul\":9653:9724   */\n      tag_151\n      jump\t// in\n    tag_267:\n        /* \"#utility.yul\":9734:9806   */\n      tag_268\n        /* \"#utility.yul\":9802:9804   */\n      0x20\n        /* \"#utility.yul\":9791:9800   */\n      dup4\n        /* \"#utility.yul\":9787:9805   */\n      add\n        /* \"#utility.yul\":9778:9784   */\n      dup5\n        /* \"#utility.yul\":9734:9806   */\n      tag_136\n      jump\t// in\n    tag_268:\n        /* \"#utility.yul\":9481:9813   */\n      swap4\n      swap3\n      pop\n      pop\n      pop\n      jump\t// out\n        /* \"#utility.yul\":9819:9935   */\n    tag_153:\n        /* \"#utility.yul\":9889:9910   */\n      tag_270\n        /* \"#utility.yul\":9904:9909   */\n      dup2\n        /* \"#utility.yul\":9889:9910   */\n      tag_137\n      jump\t// in\n    tag_270:\n        /* \"#utility.yul\":9882:9887   */\n      dup2\n        /* \"#utility.yul\":9879:9911   */\n      eq\n        /* \"#utility.yul\":9869:9929   */\n      tag_271\n      jumpi\n        /* \"#utility.yul\":9925:9926   */\n      0x00\n        /* \"#utility.yul\":9922:9923   */\n      dup1\n        /* \"#utility.yul\":9915:9927   */\n      revert\n        /* \"#utility.yul\":9869:9929   */\n    tag_271:\n        /* \"#utility.yul\":9819:9935   */\n      pop\n      jump\t// out\n        /* \"#utility.yul\":9941:10078   */\n    tag_154:\n        /* \"#utility.yul\":9995:10000   */\n      0x00\n        /* \"#utility.yul\":10026:10032   */\n      dup2\n        /* \"#utility.yul\":10020:10033   */\n      mload\n        /* \"#utility.yul\":10011:10033   */\n      swap1\n      pop\n        /* \"#utility.yul\":10042:10072   */\n      tag_273\n        /* \"#utility.yul\":10066:10071   */\n      dup2\n        /* \"#utility.yul\":10042:10072   */\n      tag_153\n      jump\t// in\n    tag_273:\n        /* \"#utility.yul\":9941:10078   */\n      swap3\n      swap2\n      pop\n      pop\n      jump\t// out\n        /* \"#utility.yul\":10084:10429   */\n    tag_64:\n        /* \"#utility.yul\":10151:10157   */\n      0x00\n        /* \"#utility.yul\":10200:10202   */\n      0x20\n        /* \"#utility.yul\":10188:10197   */\n      dup3\n        /* \"#utility.yul\":10179:10186   */\n      dup5\n        /* \"#utility.yul\":10175:10198   */\n      sub\n        /* \"#utility.yul\":10171:10203   */\n      slt\n        /* \"#utility.yul\":10168:10287   */\n      iszero\n      tag_275\n      jumpi\n        /* \"#utility.yul\":10206:10285   */\n      tag_276\n      tag_123\n      jump\t// in\n    tag_276:\n        /* \"#utility.yul\":10168:10287   */\n    tag_275:\n        /* \"#utility.yul\":10326:10327   */\n      0x00\n        /* \"#utility.yul\":10351:10412   */\n      tag_277\n        /* \"#utility.yul\":10404:10411   */\n      dup5\n        /* \"#utility.yul\":10395:10401   */\n      dup3\n        /* \"#utility.yul\":10384:10393   */\n      dup6\n        /* \"#utility.yul\":10380:10402   */\n      add\n        /* \"#utility.yul\":10351:10412   */\n      tag_154\n      jump\t// in\n    tag_277:\n        /* \"#utility.yul\":10341:10412   */\n      swap2\n      pop\n        /* \"#utility.yul\":10297:10422   */\n      pop\n        /* \"#utility.yul\":10084:10429   */\n      swap3\n      swap2\n      pop\n      pop\n      jump\t// out\n        /* \"#utility.yul\":10435:10603   */\n    tag_155:\n        /* \"#utility.yul\":10575:10595   */\n      0x556e61626c6520746f207472616e736665720000000000000000000000000000\n        /* \"#utility.yul\":10571:10572   */\n      0x00\n        /* \"#utility.yul\":10563:10569   */\n      dup3\n        /* \"#utility.yul\":10559:10573   */\n      add\n        /* \"#utility.yul\":10552:10596   */\n      mstore\n        /* \"#utility.yul\":10435:10603   */\n      pop\n      jump\t// out\n        /* \"#utility.yul\":10609:10975   */\n    tag_156:\n        /* \"#utility.yul\":10751:10754   */\n      0x00\n        /* \"#utility.yul\":10772:10839   */\n      tag_280\n        /* \"#utility.yul\":10836:10838   */\n      0x12\n        /* \"#utility.yul\":10831:10834   */\n      dup4\n        /* \"#utility.yul\":10772:10839   */\n      tag_146\n      jump\t// in\n    tag_280:\n        /* \"#utility.yul\":10765:10839   */\n      swap2\n      pop\n        /* \"#utility.yul\":10848:10941   */\n      tag_281\n        /* \"#utility.yul\":10937:10940   */\n      dup3\n        /* \"#utility.yul\":10848:10941   */\n      tag_155\n      jump\t// in\n    tag_281:\n        /* \"#utility.yul\":10966:10968   */\n      0x20\n        /* \"#utility.yul\":10961:10964   */\n      dup3\n        /* \"#utility.yul\":10957:10969   */\n      add\n        /* \"#utility.yul\":10950:10969   */\n      swap1\n      pop\n        /* \"#utility.yul\":10609:10975   */\n      swap2\n      swap1\n      pop\n      jump\t// out\n        /* \"#utility.yul\":10981:11400   */\n    tag_67:\n        /* \"#utility.yul\":11147:11151   */\n      0x00\n        /* \"#utility.yul\":11185:11187   */\n      0x20\n        /* \"#utility.yul\":11174:11183   */\n      dup3\n        /* \"#utility.yul\":11170:11188   */\n      add\n        /* \"#utility.yul\":11162:11188   */\n      swap1\n      pop\n        /* \"#utility.yul\":11234:11243   */\n      dup2\n        /* \"#utility.yul\":11228:11232   */\n      dup2\n        /* \"#utility.yul\":11224:11244   */\n      sub\n        /* \"#utility.yul\":11220:11221   */\n      0x00\n        /* \"#utility.yul\":11209:11218   */\n      dup4\n        /* \"#utility.yul\":11205:11222   */\n      add\n        /* \"#utility.yul\":11198:11245   */\n      mstore\n        /* \"#utility.yul\":11262:11393   */\n      tag_283\n        /* \"#utility.yul\":11388:11392   */\n      dup2\n        /* \"#utility.yul\":11262:11393   */\n      tag_156\n      jump\t// in\n    tag_283:\n        /* \"#utility.yul\":11254:11393   */\n      swap1\n      pop\n        /* \"#utility.yul\":10981:11400   */\n      swap2\n      swap1\n      pop\n      jump\t// out\n        /* \"#utility.yul\":11406:11573   */\n    tag_157:\n        /* \"#utility.yul\":11546:11565   */\n      0x72657175657374206e6f7420666f756e64000000000000000000000000000000\n        /* \"#utility.yul\":11542:11543   */\n      0x00\n        /* \"#utility.yul\":11534:11540   */\n      dup3\n        /* \"#utility.yul\":11530:11544   */\n      add\n        /* \"#utility.yul\":11523:11566   */\n      mstore\n        /* \"#utility.yul\":11406:11573   */\n      pop\n      jump\t// out\n        /* \"#utility.yul\":11579:11945   */\n    tag_158:\n        /* \"#utility.yul\":11721:11724   */\n      0x00\n        /* \"#utility.yul\":11742:11809   */\n      tag_286\n        /* \"#utility.yul\":11806:11808   */\n      0x11\n        /* \"#utility.yul\":11801:11804   */\n      dup4\n        /* \"#utility.yul\":11742:11809   */\n      tag_146\n      jump\t// in\n    tag_286:\n        /* \"#utility.yul\":11735:11809   */\n      swap2\n      pop\n        /* \"#utility.yul\":11818:11911   */\n      tag_287\n        /* \"#utility.yul\":11907:11910   */\n      dup3\n        /* \"#utility.yul\":11818:11911   */\n      tag_157\n      jump\t// in\n    tag_287:\n        /* \"#utility.yul\":11936:11938   */\n      0x20\n        /* \"#utility.yul\":11931:11934   */\n      dup3\n        /* \"#utility.yul\":11927:11939   */\n      add\n        /* \"#utility.yul\":11920:11939   */\n      swap1\n      pop\n        /* \"#utility.yul\":11579:11945   */\n      swap2\n      swap1\n      pop\n      jump\t// out\n        /* \"#utility.yul\":11951:12370   */\n    tag_71:\n        /* \"#utility.yul\":12117:12121   */\n      0x00\n        /* \"#utility.yul\":12155:12157   */\n      0x20\n        /* \"#utility.yul\":12144:12153   */\n      dup3\n        /* \"#utility.yul\":12140:12158   */\n      add\n        /* \"#utility.yul\":12132:12158   */\n      swap1\n      pop\n        /* \"#utility.yul\":12204:12213   */\n      dup2\n        /* \"#utility.yul\":12198:12202   */\n      dup2\n        /* \"#utility.yul\":12194:12214   */\n      sub\n        /* \"#utility.yul\":12190:12191   */\n      0x00\n        /* \"#utility.yul\":12179:12188   */\n      dup4\n        /* \"#utility.yul\":12175:12192   */\n      add\n        /* \"#utility.yul\":12168:12215   */\n      mstore\n        /* \"#utility.yul\":12232:12363   */\n      tag_289\n        /* \"#utility.yul\":12358:12362   */\n      dup2\n        /* \"#utility.yul\":12232:12363   */\n      tag_158\n      jump\t// in\n    tag_289:\n        /* \"#utility.yul\":12224:12363   */\n      swap1\n      pop\n        /* \"#utility.yul\":11951:12370   */\n      swap2\n      swap1\n      pop\n      jump\t// out\n        /* \"#utility.yul\":12376:12469   */\n    tag_159:\n        /* \"#utility.yul\":12412:12419   */\n      0x00\n        /* \"#utility.yul\":12452:12462   */\n      0xffffffff\n        /* \"#utility.yul\":12445:12450   */\n      dup3\n        /* \"#utility.yul\":12441:12463   */\n      and\n        /* \"#utility.yul\":12430:12463   */\n      swap1\n      pop\n        /* \"#utility.yul\":12376:12469   */\n      swap2\n      swap1\n      pop\n      jump\t// out\n        /* \"#utility.yul\":12475:12590   */\n    tag_160:\n        /* \"#utility.yul\":12560:12583   */\n      tag_292\n        /* \"#utility.yul\":12577:12582   */\n      dup2\n        /* \"#utility.yul\":12560:12583   */\n      tag_159\n      jump\t// in\n    tag_292:\n        /* \"#utility.yul\":12555:12558   */\n      dup3\n        /* \"#utility.yul\":12548:12584   */\n      mstore\n        /* \"#utility.yul\":12475:12590   */\n      pop\n      pop\n      jump\t// out\n        /* \"#utility.yul\":12596:12814   */\n    tag_78:\n        /* \"#utility.yul\":12687:12691   */\n      0x00\n        /* \"#utility.yul\":12725:12727   */\n      0x20\n        /* \"#utility.yul\":12714:12723   */\n      dup3\n        /* \"#utility.yul\":12710:12728   */\n      add\n        /* \"#utility.yul\":12702:12728   */\n      swap1\n      pop\n        /* \"#utility.yul\":12738:12807   */\n      tag_294\n        /* \"#utility.yul\":12804:12805   */\n      0x00\n        /* \"#utility.yul\":12793:12802   */\n      dup4\n        /* \"#utility.yul\":12789:12806   */\n      add\n        /* \"#utility.yul\":12780:12786   */\n      dup5\n        /* \"#utility.yul\":12738:12807   */\n      tag_160\n      jump\t// in\n    tag_294:\n        /* \"#utility.yul\":12596:12814   */\n      swap3\n      swap2\n      pop\n      pop\n      jump\t// out\n        /* \"#utility.yul\":12820:13148   */\n    tag_90:\n        /* \"#utility.yul\":12939:12943   */\n      0x00\n        /* \"#utility.yul\":12977:12979   */\n      0x40\n        /* \"#utility.yul\":12966:12975   */\n      dup3\n        /* \"#utility.yul\":12962:12980   */\n      add\n        /* \"#utility.yul\":12954:12980   */\n      swap1\n      pop\n        /* \"#utility.yul\":12990:13061   */\n      tag_296\n        /* \"#utility.yul\":13058:13059   */\n      0x00\n        /* \"#utility.yul\":13047:13056   */\n      dup4\n        /* \"#utility.yul\":13043:13060   */\n      add\n        /* \"#utility.yul\":13034:13040   */\n      dup6\n        /* \"#utility.yul\":12990:13061   */\n      tag_136\n      jump\t// in\n    tag_296:\n        /* \"#utility.yul\":13071:13141   */\n      tag_297\n        /* \"#utility.yul\":13137:13139   */\n      0x20\n        /* \"#utility.yul\":13126:13135   */\n      dup4\n        /* \"#utility.yul\":13122:13140   */\n      add\n        /* \"#utility.yul\":13113:13119   */\n      dup5\n        /* \"#utility.yul\":13071:13141   */\n      tag_160\n      jump\t// in\n    tag_297:\n        /* \"#utility.yul\":12820:13148   */\n      swap4\n      swap3\n      pop\n      pop\n      pop\n      jump\t// out\n        /* \"#utility.yul\":13154:13334   */\n    tag_97:\n        /* \"#utility.yul\":13202:13279   */\n      0x4e487b7100000000000000000000000000000000000000000000000000000000\n        /* \"#utility.yul\":13199:13200   */\n      0x00\n        /* \"#utility.yul\":13192:13280   */\n      mstore\n        /* \"#utility.yul\":13299:13303   */\n      0x32\n        /* \"#utility.yul\":13296:13297   */\n      0x04\n        /* \"#utility.yul\":13289:13304   */\n      mstore\n        /* \"#utility.yul\":13323:13327   */\n      0x24\n        /* \"#utility.yul\":13320:13321   */\n      0x00\n        /* \"#utility.yul\":13313:13328   */\n      revert\n        /* \"#utility.yul\":13340:13933   */\n    tag_99:\n        /* \"#utility.yul\":13539:13543   */\n      0x00\n        /* \"#utility.yul\":13577:13579   */\n      0x60\n        /* \"#utility.yul\":13566:13575   */\n      dup3\n        /* \"#utility.yul\":13562:13580   */\n      add\n        /* \"#utility.yul\":13554:13580   */\n      swap1\n      pop\n        /* \"#utility.yul\":13590:13661   */\n      tag_300\n        /* \"#utility.yul\":13658:13659   */\n      0x00\n        /* \"#utility.yul\":13647:13656   */\n      dup4\n        /* \"#utility.yul\":13643:13660   */\n      add\n        /* \"#utility.yul\":13634:13640   */\n      dup7\n        /* \"#utility.yul\":13590:13661   */\n      tag_136\n      jump\t// in\n    tag_300:\n        /* \"#utility.yul\":13708:13717   */\n      dup2\n        /* \"#utility.yul\":13702:13706   */\n      dup2\n        /* \"#utility.yul\":13698:13718   */\n      sub\n        /* \"#utility.yul\":13693:13695   */\n      0x20\n        /* \"#utility.yul\":13682:13691   */\n      dup4\n        /* \"#utility.yul\":13678:13696   */\n      add\n        /* \"#utility.yul\":13671:13719   */\n      mstore\n        /* \"#utility.yul\":13736:13844   */\n      tag_301\n        /* \"#utility.yul\":13839:13843   */\n      dup2\n        /* \"#utility.yul\":13830:13836   */\n      dup6\n        /* \"#utility.yul\":13736:13844   */\n      tag_145\n      jump\t// in\n    tag_301:\n        /* \"#utility.yul\":13728:13844   */\n      swap1\n      pop\n        /* \"#utility.yul\":13854:13926   */\n      tag_302\n        /* \"#utility.yul\":13922:13924   */\n      0x40\n        /* \"#utility.yul\":13911:13920   */\n      dup4\n        /* \"#utility.yul\":13907:13925   */\n      add\n        /* \"#utility.yul\":13898:13904   */\n      dup5\n        /* \"#utility.yul\":13854:13926   */\n      tag_136\n      jump\t// in\n    tag_302:\n        /* \"#utility.yul\":13340:13933   */\n      swap5\n      swap4\n      pop\n      pop\n      pop\n      pop\n      jump\t// out\n        /* \"#utility.yul\":13939:14028   */\n    tag_161:\n        /* \"#utility.yul\":13975:13982   */\n      0x00\n        /* \"#utility.yul\":14015:14021   */\n      0xffff\n        /* \"#utility.yul\":14008:14013   */\n      dup3\n        /* \"#utility.yul\":14004:14022   */\n      and\n        /* \"#utility.yul\":13993:14022   */\n      swap1\n      pop\n        /* \"#utility.yul\":13939:14028   */\n      swap2\n      swap1\n      pop\n      jump\t// out\n        /* \"#utility.yul\":14034:14149   */\n    tag_162:\n        /* \"#utility.yul\":14119:14142   */\n      tag_305\n        /* \"#utility.yul\":14136:14141   */\n      dup2\n        /* \"#utility.yul\":14119:14142   */\n      tag_161\n      jump\t// in\n    tag_305:\n        /* \"#utility.yul\":14114:14117   */\n      dup3\n        /* \"#utility.yul\":14107:14143   */\n      mstore\n        /* \"#utility.yul\":14034:14149   */\n      pop\n      pop\n      jump\t// out\n        /* \"#utility.yul\":14155:14585   */\n    tag_106:\n        /* \"#utility.yul\":14298:14302   */\n      0x00\n        /* \"#utility.yul\":14336:14338   */\n      0x60\n        /* \"#utility.yul\":14325:14334   */\n      dup3\n        /* \"#utility.yul\":14321:14339   */\n      add\n        /* \"#utility.yul\":14313:14339   */\n      swap1\n      pop\n        /* \"#utility.yul\":14349:14418   */\n      tag_307\n        /* \"#utility.yul\":14415:14416   */\n      0x00\n        /* \"#utility.yul\":14404:14413   */\n      dup4\n        /* \"#utility.yul\":14400:14417   */\n      add\n        /* \"#utility.yul\":14391:14397   */\n      dup7\n        /* \"#utility.yul\":14349:14418   */\n      tag_160\n      jump\t// in\n    tag_307:\n        /* \"#utility.yul\":14428:14498   */\n      tag_308\n        /* \"#utility.yul\":14494:14496   */\n      0x20\n        /* \"#utility.yul\":14483:14492   */\n      dup4\n        /* \"#utility.yul\":14479:14497   */\n      add\n        /* \"#utility.yul\":14470:14476   */\n      dup6\n        /* \"#utility.yul\":14428:14498   */\n      tag_162\n      jump\t// in\n    tag_308:\n        /* \"#utility.yul\":14508:14578   */\n      tag_309\n        /* \"#utility.yul\":14574:14576   */\n      0x40\n        /* \"#utility.yul\":14563:14572   */\n      dup4\n        /* \"#utility.yul\":14559:14577   */\n      add\n        /* \"#utility.yul\":14550:14556   */\n      dup5\n        /* \"#utility.yul\":14508:14578   */\n      tag_160\n      jump\t// in\n    tag_309:\n        /* \"#utility.yul\":14155:14585   */\n      swap5\n      swap4\n      pop\n      pop\n      pop\n      pop\n      jump\t// out\n        /* \"#utility.yul\":14591:14689   */\n    tag_163:\n        /* \"#utility.yul\":14642:14648   */\n      0x00\n        /* \"#utility.yul\":14676:14681   */\n      dup2\n        /* \"#utility.yul\":14670:14682   */\n      mload\n        /* \"#utility.yul\":14660:14682   */\n      swap1\n      pop\n        /* \"#utility.yul\":14591:14689   */\n      swap2\n      swap1\n      pop\n      jump\t// out\n        /* \"#utility.yul\":14695:14863   */\n    tag_164:\n        /* \"#utility.yul\":14778:14789   */\n      0x00\n        /* \"#utility.yul\":14812:14818   */\n      dup3\n        /* \"#utility.yul\":14807:14810   */\n      dup3\n        /* \"#utility.yul\":14800:14819   */\n      mstore\n        /* \"#utility.yul\":14852:14856   */\n      0x20\n        /* \"#utility.yul\":14847:14850   */\n      dup3\n        /* \"#utility.yul\":14843:14857   */\n      add\n        /* \"#utility.yul\":14828:14857   */\n      swap1\n      pop\n        /* \"#utility.yul\":14695:14863   */\n      swap3\n      swap2\n      pop\n      pop\n      jump\t// out\n        /* \"#utility.yul\":14869:15115   */\n    tag_165:\n        /* \"#utility.yul\":14950:14951   */\n      0x00\n        /* \"#utility.yul\":14960:15073   */\n    tag_313:\n        /* \"#utility.yul\":14974:14980   */\n      dup4\n        /* \"#utility.yul\":14971:14972   */\n      dup2\n        /* \"#utility.yul\":14968:14981   */\n      lt\n        /* \"#utility.yul\":14960:15073   */\n      iszero\n      tag_315\n      jumpi\n        /* \"#utility.yul\":15059:15060   */\n      dup1\n        /* \"#utility.yul\":15054:15057   */\n      dup3\n        /* \"#utility.yul\":15050:15061   */\n      add\n        /* \"#utility.yul\":15044:15062   */\n      mload\n        /* \"#utility.yul\":15040:15041   */\n      dup2\n        /* \"#utility.yul\":15035:15038   */\n      dup5\n        /* \"#utility.yul\":15031:15042   */\n      add\n        /* \"#utility.yul\":15024:15063   */\n      mstore\n        /* \"#utility.yul\":14996:14998   */\n      0x20\n        /* \"#utility.yul\":14993:14994   */\n      dup2\n        /* \"#utility.yul\":14989:14999   */\n      add\n        /* \"#utility.yul\":14984:14999   */\n      swap1\n      pop\n        /* \"#utility.yul\":14960:15073   */\n      jump(tag_313)\n    tag_315:\n        /* \"#utility.yul\":15107:15108   */\n      0x00\n        /* \"#utility.yul\":15098:15104   */\n      dup5\n        /* \"#utility.yul\":15093:15096   */\n      dup5\n        /* \"#utility.yul\":15089:15105   */\n      add\n        /* \"#utility.yul\":15082:15109   */\n      mstore\n        /* \"#utility.yul\":14931:15115   */\n      pop\n        /* \"#utility.yul\":14869:15115   */\n      pop\n      pop\n      pop\n      jump\t// out\n        /* \"#utility.yul\":15121:15494   */\n    tag_166:\n        /* \"#utility.yul\":15207:15210   */\n      0x00\n        /* \"#utility.yul\":15235:15273   */\n      tag_317\n        /* \"#utility.yul\":15267:15272   */\n      dup3\n        /* \"#utility.yul\":15235:15273   */\n      tag_163\n      jump\t// in\n    tag_317:\n        /* \"#utility.yul\":15289:15359   */\n      tag_318\n        /* \"#utility.yul\":15352:15358   */\n      dup2\n        /* \"#utility.yul\":15347:15350   */\n      dup6\n        /* \"#utility.yul\":15289:15359   */\n      tag_164\n      jump\t// in\n    tag_318:\n        /* \"#utility.yul\":15282:15359   */\n      swap4\n      pop\n        /* \"#utility.yul\":15368:15433   */\n      tag_319\n        /* \"#utility.yul\":15426:15432   */\n      dup2\n        /* \"#utility.yul\":15421:15424   */\n      dup6\n        /* \"#utility.yul\":15414:15418   */\n      0x20\n        /* \"#utility.yul\":15407:15412   */\n      dup7\n        /* \"#utility.yul\":15403:15419   */\n      add\n        /* \"#utility.yul\":15368:15433   */\n      tag_165\n      jump\t// in\n    tag_319:\n        /* \"#utility.yul\":15458:15487   */\n      tag_320\n        /* \"#utility.yul\":15480:15486   */\n      dup2\n        /* \"#utility.yul\":15458:15487   */\n      tag_129\n      jump\t// in\n    tag_320:\n        /* \"#utility.yul\":15453:15456   */\n      dup5\n        /* \"#utility.yul\":15449:15488   */\n      add\n        /* \"#utility.yul\":15442:15488   */\n      swap2\n      pop\n        /* \"#utility.yul\":15211:15494   */\n      pop\n        /* \"#utility.yul\":15121:15494   */\n      swap3\n      swap2\n      pop\n      pop\n      jump\t// out\n        /* \"#utility.yul\":15500:16029   */\n    tag_108:\n        /* \"#utility.yul\":15667:15671   */\n      0x00\n        /* \"#utility.yul\":15705:15707   */\n      0x60\n        /* \"#utility.yul\":15694:15703   */\n      dup3\n        /* \"#utility.yul\":15690:15708   */\n      add\n        /* \"#utility.yul\":15682:15708   */\n      swap1\n      pop\n        /* \"#utility.yul\":15718:15789   */\n      tag_322\n        /* \"#utility.yul\":15786:15787   */\n      0x00\n        /* \"#utility.yul\":15775:15784   */\n      dup4\n        /* \"#utility.yul\":15771:15788   */\n      add\n        /* \"#utility.yul\":15762:15768   */\n      dup7\n        /* \"#utility.yul\":15718:15789   */\n      tag_151\n      jump\t// in\n    tag_322:\n        /* \"#utility.yul\":15799:15871   */\n      tag_323\n        /* \"#utility.yul\":15867:15869   */\n      0x20\n        /* \"#utility.yul\":15856:15865   */\n      dup4\n        /* \"#utility.yul\":15852:15870   */\n      add\n        /* \"#utility.yul\":15843:15849   */\n      dup6\n        /* \"#utility.yul\":15799:15871   */\n      tag_136\n      jump\t// in\n    tag_323:\n        /* \"#utility.yul\":15918:15927   */\n      dup2\n        /* \"#utility.yul\":15912:15916   */\n      dup2\n        /* \"#utility.yul\":15908:15928   */\n      sub\n        /* \"#utility.yul\":15903:15905   */\n      0x40\n        /* \"#utility.yul\":15892:15901   */\n      dup4\n        /* \"#utility.yul\":15888:15906   */\n      add\n        /* \"#utility.yul\":15881:15929   */\n      mstore\n        /* \"#utility.yul\":15946:16022   */\n      tag_324\n        /* \"#utility.yul\":16017:16021   */\n      dup2\n        /* \"#utility.yul\":16008:16014   */\n      dup5\n        /* \"#utility.yul\":15946:16022   */\n      tag_166\n      jump\t// in\n    tag_324:\n        /* \"#utility.yul\":15938:16022   */\n      swap1\n      pop\n        /* \"#utility.yul\":15500:16029   */\n      swap5\n      swap4\n      pop\n      pop\n      pop\n      pop\n      jump\t// out\n\n    auxdata: 0xa264697066735822122089b5b3e2abe2a57ff056a57ac48b82cc80aca25fa6cee7999184ed835368c65264736f6c63430008130033\n}\n",
				"bytecode": {
					"linkReferences": {},
					"object": "60c0604052620186a0600460006101000a81548163ffffffff021916908363ffffffff16021790555060016004806101000a81548161ffff021916908361ffff1602179055506001600460066101000a81548163ffffffff021916908363ffffffff160217905550730b9d5d9136855f6fec3c0993fee6e9ce8a2978466004600a6101000a81548173ffffffffffffffffffffffffffffffffffffffff021916908373ffffffffffffffffffffffffffffffffffffffff160217905550739345ac54da4d0b5cda8cb749d8ef37e5f02bbb21600560006101000a81548173ffffffffffffffffffffffffffffffffffffffff021916908373ffffffffffffffffffffffffffffffffffffffff16021790555034801561011d57600080fd5b506004600a9054906101000a900473ffffffffffffffffffffffffffffffffffffffff16600560009054906101000a900473ffffffffffffffffffffffffffffffffffffffff168173ffffffffffffffffffffffffffffffffffffffff1660808173ffffffffffffffffffffffffffffffffffffffff16815250508073ffffffffffffffffffffffffffffffffffffffff1660a08173ffffffffffffffffffffffffffffffffffffffff1681525050505060805160a05161134061020f600039600081816101b401528181610581015281816108dd015281816108fe0152610a1e015260006108a101526113406000f3fe608060405234801561001057600080fd5b50600436106100885760003560e01c8063a168fa891161005b578063a168fa8914610113578063d8a4676f14610144578063e0c8628914610176578063fc2a88c31461019457610088565b80631fe543e31461008d57806343a77ff6146100a95780638796ba8c146100d95780638dc654a214610109575b600080fd5b6100a760048036038101906100a29190610cc1565b6101b2565b005b6100c360048036038101906100be9190610d1d565b61024e565b6040516100d09190610d59565b60405180910390f35b6100f360048036038101906100ee9190610d1d565b610266565b6040516101009190610d59565b60405180910390f35b61011161028a565b005b61012d60048036038101906101289190610d1d565b6103ea565b60405161013b929190610d8f565b60405180910390f35b61015e60048036038101906101599190610d1d565b61041b565b60405161016d93929190610e76565b60405180910390f35b61017e610533565b60405161018b9190610d59565b60405180910390f35b61019c610760565b6040516101a99190610d59565b60405180910390f35b7f000000000000000000000000000000000000000000000000000000000000000073ffffffffffffffffffffffffffffffffffffffff163373ffffffffffffffffffffffffffffffffffffffff1614610240576040517f08c379a000000000000000000000000000000000000000000000000000000000815260040161023790610f11565b60405180910390fd5b61024a8282610766565b5050565b60016020528060005260406000206000915090505481565b6002818154811061027657600080fd5b906000526020600020016000915090505481565b60006004600a9054906101000a900473ffffffffffffffffffffffffffffffffffffffff1690508073ffffffffffffffffffffffffffffffffffffffff1663a9059cbb338373ffffffffffffffffffffffffffffffffffffffff166370a08231306040518263ffffffff1660e01b81526004016103079190610f72565b602060405180830381865afa158015610324573d6000803e3d6000fd5b505050506040513d601f19601f820116820180604052508101906103489190610fa2565b6040518363ffffffff1660e01b8152600401610365929190610fcf565b6020604051808303816000875af1158015610384573d6000803e3d6000fd5b505050506040513d601f19601f820116820180604052508101906103a89190611024565b6103e7576040517f08c379a00000000000000000000000000000000000000000000000000000000081526004016103de9061109d565b60405180910390fd5b50565b60006020528060005260406000206000915090508060000154908060010160009054906101000a900460ff16905082565b600080606060008060008681526020019081526020016000206000015411610478576040517f08c379a000000000000000000000000000000000000000000000000000000000815260040161046f90611109565b60405180910390fd5b6000806000868152602001908152602001600020604051806060016040529081600082015481526020016001820160009054906101000a900460ff161515151581526020016002820180548060200260200160405190810160405280929190818152602001828054801561050b57602002820191906000526020600020905b8154815260200190600101908083116104f7575b5050505050815250509050806000015181602001518260400151935093509350509193909250565b6000610572600460009054906101000a900463ffffffff1660048054906101000a900461ffff16600460069054906101000a900463ffffffff1661089d565b905060405180606001604052807f000000000000000000000000000000000000000000000000000000000000000073ffffffffffffffffffffffffffffffffffffffff16634306d354600460009054906101000a900463ffffffff166040518263ffffffff1660e01b81526004016105ea9190611148565b602060405180830381865afa158015610607573d6000803e3d6000fd5b505050506040513d601f19601f8201168201806040525081019061062b9190610fa2565b8152602001600015158152602001600067ffffffffffffffff81111561065457610653610b7e565b5b6040519080825280602002602001820160405280156106825781602001602082028036833780820191505090505b508152506000808381526020019081526020016000206000820151816000015560208201518160010160006101000a81548160ff02191690831515021790555060408201518160020190805190602001906106de929190610ab4565b509050506002819080600181540180825580915050600190039060005260206000200160009091909190915055806003819055507fcc58b13ad3eab50626c6a6300b1d139cd6ebb1688a7cced9461c2f7e762665ee81600460069054906101000a900463ffffffff16604051610755929190611163565b60405180910390a190565b60035481565b600080600084815260200190815260200160002060000154116107be576040517f08c379a00000000000000000000000000000000000000000000000000000000081526004016107b590611109565b60405180910390fd5b600160008084815260200190815260200160002060010160006101000a81548160ff021916908315150217905550806000808481526020019081526020016000206002019080519060200190610815929190610ab4565b508060008151811061082a5761082961118c565b5b602002602001015160016000848152602001908152602001600020819055507f147eb1ff0c82f87f2b03e2c43f5a36488ff63ec6b730195fde4605f612f8db51828260008086815260200190815260200160002060000154604051610891939291906111bb565b60405180910390a15050565b60007f000000000000000000000000000000000000000000000000000000000000000073ffffffffffffffffffffffffffffffffffffffff16634000aea07f00000000000000000000000000000000000000000000000000000000000000007f000000000000000000000000000000000000000000000000000000000000000073ffffffffffffffffffffffffffffffffffffffff16634306d354886040518263ffffffff1660e01b81526004016109559190611148565b602060405180830381865afa158015610972573d6000803e3d6000fd5b505050506040513d601f19601f820116820180604052508101906109969190610fa2565b8787876040516020016109ab93929190611216565b6040516020818303038152906040526040518463ffffffff1660e01b81526004016109d8939291906112cc565b6020604051808303816000875af11580156109f7573d6000803e3d6000fd5b505050506040513d601f19601f82011682018060405250810190610a1b9190611024565b507f000000000000000000000000000000000000000000000000000000000000000073ffffffffffffffffffffffffffffffffffffffff1663fc2a88c36040518163ffffffff1660e01b8152600401602060405180830381865afa158015610a87573d6000803e3d6000fd5b505050506040513d601f19601f82011682018060405250810190610aab9190610fa2565b90509392505050565b828054828255906000526020600020908101928215610af0579160200282015b82811115610aef578251825591602001919060010190610ad4565b5b509050610afd9190610b01565b5090565b5b80821115610b1a576000816000905550600101610b02565b5090565b6000604051905090565b600080fd5b600080fd5b6000819050919050565b610b4581610b32565b8114610b5057600080fd5b50565b600081359050610b6281610b3c565b92915050565b600080fd5b6000601f19601f8301169050919050565b7f4e487b7100000000000000000000000000000000000000000000000000000000600052604160045260246000fd5b610bb682610b6d565b810181811067ffffffffffffffff82111715610bd557610bd4610b7e565b5b80604052505050565b6000610be8610b1e565b9050610bf48282610bad565b919050565b600067ffffffffffffffff821115610c1457610c13610b7e565b5b602082029050602081019050919050565b600080fd5b6000610c3d610c3884610bf9565b610bde565b90508083825260208201905060208402830185811115610c6057610c5f610c25565b5b835b81811015610c895780610c758882610b53565b845260208401935050602081019050610c62565b5050509392505050565b600082601f830112610ca857610ca7610b68565b5b8135610cb8848260208601610c2a565b91505092915050565b60008060408385031215610cd857610cd7610b28565b5b6000610ce685828601610b53565b925050602083013567ffffffffffffffff811115610d0757610d06610b2d565b5b610d1385828601610c93565b9150509250929050565b600060208284031215610d3357610d32610b28565b5b6000610d4184828501610b53565b91505092915050565b610d5381610b32565b82525050565b6000602082019050610d6e6000830184610d4a565b92915050565b60008115159050919050565b610d8981610d74565b82525050565b6000604082019050610da46000830185610d4a565b610db16020830184610d80565b9392505050565b600081519050919050565b600082825260208201905092915050565b6000819050602082019050919050565b610ded81610b32565b82525050565b6000610dff8383610de4565b60208301905092915050565b6000602082019050919050565b6000610e2382610db8565b610e2d8185610dc3565b9350610e3883610dd4565b8060005b83811015610e69578151610e508882610df3565b9750610e5b83610e0b565b925050600181019050610e3c565b5085935050505092915050565b6000606082019050610e8b6000830186610d4a565b610e986020830185610d80565b8181036040830152610eaa8184610e18565b9050949350505050565b600082825260208201905092915050565b7f6f6e6c792056524620563220777261707065722063616e2066756c66696c6c00600082015250565b6000610efb601f83610eb4565b9150610f0682610ec5565b602082019050919050565b60006020820190508181036000830152610f2a81610eee565b9050919050565b600073ffffffffffffffffffffffffffffffffffffffff82169050919050565b6000610f5c82610f31565b9050919050565b610f6c81610f51565b82525050565b6000602082019050610f876000830184610f63565b92915050565b600081519050610f9c81610b3c565b92915050565b600060208284031215610fb857610fb7610b28565b5b6000610fc684828501610f8d565b91505092915050565b6000604082019050610fe46000830185610f63565b610ff16020830184610d4a565b9392505050565b61100181610d74565b811461100c57600080fd5b50565b60008151905061101e81610ff8565b92915050565b60006020828403121561103a57611039610b28565b5b60006110488482850161100f565b91505092915050565b7f556e61626c6520746f207472616e736665720000000000000000000000000000600082015250565b6000611087601283610eb4565b915061109282611051565b602082019050919050565b600060208201905081810360008301526110b68161107a565b9050919050565b7f72657175657374206e6f7420666f756e64000000000000000000000000000000600082015250565b60006110f3601183610eb4565b91506110fe826110bd565b602082019050919050565b60006020820190508181036000830152611122816110e6565b9050919050565b600063ffffffff82169050919050565b61114281611129565b82525050565b600060208201905061115d6000830184611139565b92915050565b60006040820190506111786000830185610d4a565b6111856020830184611139565b9392505050565b7f4e487b7100000000000000000000000000000000000000000000000000000000600052603260045260246000fd5b60006060820190506111d06000830186610d4a565b81810360208301526111e28185610e18565b90506111f16040830184610d4a565b949350505050565b600061ffff82169050919050565b611210816111f9565b82525050565b600060608201905061122b6000830186611139565b6112386020830185611207565b6112456040830184611139565b949350505050565b600081519050919050565b600082825260208201905092915050565b60005b8381101561128757808201518184015260208101905061126c565b60008484015250505050565b600061129e8261124d565b6112a88185611258565b93506112b8818560208601611269565b6112c181610b6d565b840191505092915050565b60006060820190506112e16000830186610f63565b6112ee6020830185610d4a565b81810360408301526113008184611293565b905094935050505056fea264697066735822122089b5b3e2abe2a57ff056a57ac48b82cc80aca25fa6cee7999184ed835368c65264736f6c63430008130033",
					"opcodes": "PUSH1 0xC0 PUSH1 0x40 MSTORE PUSH3 0x186A0 PUSH1 0x4 PUSH1 0x0 PUSH2 0x100 EXP DUP2 SLOAD DUP2 PUSH4 0xFFFFFFFF MUL NOT AND SWAP1 DUP4 PUSH4 0xFFFFFFFF AND MUL OR SWAP1 SSTORE POP PUSH1 0x1 PUSH1 0x4 DUP1 PUSH2 0x100 EXP DUP2 SLOAD DUP2 PUSH2 0xFFFF MUL NOT AND SWAP1 DUP4 PUSH2 0xFFFF AND MUL OR SWAP1 SSTORE POP PUSH1 0x1 PUSH1 0x4 PUSH1 0x6 PUSH2 0x100 EXP DUP2 SLOAD DUP2 PUSH4 0xFFFFFFFF MUL NOT AND SWAP1 DUP4 PUSH4 0xFFFFFFFF AND MUL OR SWAP1 SSTORE POP PUSH20 0xB9D5D9136855F6FEC3C0993FEE6E9CE8A297846 PUSH1 0x4 PUSH1 0xA PUSH2 0x100 EXP DUP2 SLOAD DUP2 PUSH20 0xFFFFFFFFFFFFFFFFFFFFFFFFFFFFFFFFFFFFFFFF MUL NOT AND SWAP1 DUP4 PUSH20 0xFFFFFFFFFFFFFFFFFFFFFFFFFFFFFFFFFFFFFFFF AND MUL OR SWAP1 SSTORE POP PUSH20 0x9345AC54DA4D0B5CDA8CB749D8EF37E5F02BBB21 PUSH1 0x5 PUSH1 0x0 PUSH2 0x100 EXP DUP2 SLOAD DUP2 PUSH20 0xFFFFFFFFFFFFFFFFFFFFFFFFFFFFFFFFFFFFFFFF MUL NOT AND SWAP1 DUP4 PUSH20 0xFFFFFFFFFFFFFFFFFFFFFFFFFFFFFFFFFFFFFFFF AND MUL OR SWAP1 SSTORE POP CALLVALUE DUP1 ISZERO PUSH2 0x11D JUMPI PUSH1 0x0 DUP1 REVERT JUMPDEST POP PUSH1 0x4 PUSH1 0xA SWAP1 SLOAD SWAP1 PUSH2 0x100 EXP SWAP1 DIV PUSH20 0xFFFFFFFFFFFFFFFFFFFFFFFFFFFFFFFFFFFFFFFF AND PUSH1 0x5 PUSH1 0x0 SWAP1 SLOAD SWAP1 PUSH2 0x100 EXP SWAP1 DIV PUSH20 0xFFFFFFFFFFFFFFFFFFFFFFFFFFFFFFFFFFFFFFFF AND DUP2 PUSH20 0xFFFFFFFFFFFFFFFFFFFFFFFFFFFFFFFFFFFFFFFF AND PUSH1 0x80 DUP2 PUSH20 0xFFFFFFFFFFFFFFFFFFFFFFFFFFFFFFFFFFFFFFFF AND DUP2 MSTORE POP POP DUP1 PUSH20 0xFFFFFFFFFFFFFFFFFFFFFFFFFFFFFFFFFFFFFFFF AND PUSH1 0xA0 DUP2 PUSH20 0xFFFFFFFFFFFFFFFFFFFFFFFFFFFFFFFFFFFFFFFF AND DUP2 MSTORE POP POP POP POP PUSH1 0x80 MLOAD PUSH1 0xA0 MLOAD PUSH2 0x1340 PUSH2 0x20F PUSH1 0x0 CODECOPY PUSH1 0x0 DUP2 DUP2 PUSH2 0x1B4 ADD MSTORE DUP2 DUP2 PUSH2 0x581 ADD MSTORE DUP2 DUP2 PUSH2 0x8DD ADD MSTORE DUP2 DUP2 PUSH2 0x8FE ADD MSTORE PUSH2 0xA1E ADD MSTORE PUSH1 0x0 PUSH2 0x8A1 ADD MSTORE PUSH2 0x1340 PUSH1 0x0 RETURN INVALID PUSH1 0x80 PUSH1 0x40 MSTORE CALLVALUE DUP1 ISZERO PUSH2 0x10 JUMPI PUSH1 0x0 DUP1 REVERT JUMPDEST POP PUSH1 0x4 CALLDATASIZE LT PUSH2 0x88 JUMPI PUSH1 0x0 CALLDATALOAD PUSH1 0xE0 SHR DUP1 PUSH4 0xA168FA89 GT PUSH2 0x5B JUMPI DUP1 PUSH4 0xA168FA89 EQ PUSH2 0x113 JUMPI DUP1 PUSH4 0xD8A4676F EQ PUSH2 0x144 JUMPI DUP1 PUSH4 0xE0C86289 EQ PUSH2 0x176 JUMPI DUP1 PUSH4 0xFC2A88C3 EQ PUSH2 0x194 JUMPI PUSH2 0x88 JUMP JUMPDEST DUP1 PUSH4 0x1FE543E3 EQ PUSH2 0x8D JUMPI DUP1 PUSH4 0x43A77FF6 EQ PUSH2 0xA9 JUMPI DUP1 PUSH4 0x8796BA8C EQ PUSH2 0xD9 JUMPI DUP1 PUSH4 0x8DC654A2 EQ PUSH2 0x109 JUMPI JUMPDEST PUSH1 0x0 DUP1 REVERT JUMPDEST PUSH2 0xA7 PUSH1 0x4 DUP1 CALLDATASIZE SUB DUP2 ADD SWAP1 PUSH2 0xA2 SWAP2 SWAP1 PUSH2 0xCC1 JUMP JUMPDEST PUSH2 0x1B2 JUMP JUMPDEST STOP JUMPDEST PUSH2 0xC3 PUSH1 0x4 DUP1 CALLDATASIZE SUB DUP2 ADD SWAP1 PUSH2 0xBE SWAP2 SWAP1 PUSH2 0xD1D JUMP JUMPDEST PUSH2 0x24E JUMP JUMPDEST PUSH1 0x40 MLOAD PUSH2 0xD0 SWAP2 SWAP1 PUSH2 0xD59 JUMP JUMPDEST PUSH1 0x40 MLOAD DUP1 SWAP2 SUB SWAP1 RETURN JUMPDEST PUSH2 0xF3 PUSH1 0x4 DUP1 CALLDATASIZE SUB DUP2 ADD SWAP1 PUSH2 0xEE SWAP2 SWAP1 PUSH2 0xD1D JUMP JUMPDEST PUSH2 0x266 JUMP JUMPDEST PUSH1 0x40 MLOAD PUSH2 0x100 SWAP2 SWAP1 PUSH2 0xD59 JUMP JUMPDEST PUSH1 0x40 MLOAD DUP1 SWAP2 SUB SWAP1 RETURN JUMPDEST PUSH2 0x111 PUSH2 0x28A JUMP JUMPDEST STOP JUMPDEST PUSH2 0x12D PUSH1 0x4 DUP1 CALLDATASIZE SUB DUP2 ADD SWAP1 PUSH2 0x128 SWAP2 SWAP1 PUSH2 0xD1D JUMP JUMPDEST PUSH2 0x3EA JUMP JUMPDEST PUSH1 0x40 MLOAD PUSH2 0x13B SWAP3 SWAP2 SWAP1 PUSH2 0xD8F JUMP JUMPDEST PUSH1 0x40 MLOAD DUP1 SWAP2 SUB SWAP1 RETURN JUMPDEST PUSH2 0x15E PUSH1 0x4 DUP1 CALLDATASIZE SUB DUP2 ADD SWAP1 PUSH2 0x159 SWAP2 SWAP1 PUSH2 0xD1D JUMP JUMPDEST PUSH2 0x41B JUMP JUMPDEST PUSH1 0x40 MLOAD PUSH2 0x16D SWAP4 SWAP3 SWAP2 SWAP1 PUSH2 0xE76 JUMP JUMPDEST PUSH1 0x40 MLOAD DUP1 SWAP2 SUB SWAP1 RETURN JUMPDEST PUSH2 0x17E PUSH2 0x533 JUMP JUMPDEST PUSH1 0x40 MLOAD PUSH2 0x18B SWAP2 SWAP1 PUSH2 0xD59 JUMP JUMPDEST PUSH1 0x40 MLOAD DUP1 SWAP2 SUB SWAP1 RETURN JUMPDEST PUSH2 0x19C PUSH2 0x760 JUMP JUMPDEST PUSH1 0x40 MLOAD PUSH2 0x1A9 SWAP2 SWAP1 PUSH2 0xD59 JUMP JUMPDEST PUSH1 0x40 MLOAD DUP1 SWAP2 SUB SWAP1 RETURN JUMPDEST PUSH32 0x0 PUSH20 0xFFFFFFFFFFFFFFFFFFFFFFFFFFFFFFFFFFFFFFFF AND CALLER PUSH20 0xFFFFFFFFFFFFFFFFFFFFFFFFFFFFFFFFFFFFFFFF AND EQ PUSH2 0x240 JUMPI PUSH1 0x40 MLOAD PUSH32 0x8C379A000000000000000000000000000000000000000000000000000000000 DUP2 MSTORE PUSH1 0x4 ADD PUSH2 0x237 SWAP1 PUSH2 0xF11 JUMP JUMPDEST PUSH1 0x40 MLOAD DUP1 SWAP2 SUB SWAP1 REVERT JUMPDEST PUSH2 0x24A DUP3 DUP3 PUSH2 0x766 JUMP JUMPDEST POP POP JUMP JUMPDEST PUSH1 0x1 PUSH1 0x20 MSTORE DUP1 PUSH1 0x0 MSTORE PUSH1 0x40 PUSH1 0x0 KECCAK256 PUSH1 0x0 SWAP2 POP SWAP1 POP SLOAD DUP2 JUMP JUMPDEST PUSH1 0x2 DUP2 DUP2 SLOAD DUP2 LT PUSH2 0x276 JUMPI PUSH1 0x0 DUP1 REVERT JUMPDEST SWAP1 PUSH1 0x0 MSTORE PUSH1 0x20 PUSH1 0x0 KECCAK256 ADD PUSH1 0x0 SWAP2 POP SWAP1 POP SLOAD DUP2 JUMP JUMPDEST PUSH1 0x0 PUSH1 0x4 PUSH1 0xA SWAP1 SLOAD SWAP1 PUSH2 0x100 EXP SWAP1 DIV PUSH20 0xFFFFFFFFFFFFFFFFFFFFFFFFFFFFFFFFFFFFFFFF AND SWAP1 POP DUP1 PUSH20 0xFFFFFFFFFFFFFFFFFFFFFFFFFFFFFFFFFFFFFFFF AND PUSH4 0xA9059CBB CALLER DUP4 PUSH20 0xFFFFFFFFFFFFFFFFFFFFFFFFFFFFFFFFFFFFFFFF AND PUSH4 0x70A08231 ADDRESS PUSH1 0x40 MLOAD DUP3 PUSH4 0xFFFFFFFF AND PUSH1 0xE0 SHL DUP2 MSTORE PUSH1 0x4 ADD PUSH2 0x307 SWAP2 SWAP1 PUSH2 0xF72 JUMP JUMPDEST PUSH1 0x20 PUSH1 0x40 MLOAD DUP1 DUP4 SUB DUP2 DUP7 GAS STATICCALL ISZERO DUP1 ISZERO PUSH2 0x324 JUMPI RETURNDATASIZE PUSH1 0x0 DUP1 RETURNDATACOPY RETURNDATASIZE PUSH1 0x0 REVERT JUMPDEST POP POP POP POP PUSH1 0x40 MLOAD RETURNDATASIZE PUSH1 0x1F NOT PUSH1 0x1F DUP3 ADD AND DUP3 ADD DUP1 PUSH1 0x40 MSTORE POP DUP2 ADD SWAP1 PUSH2 0x348 SWAP2 SWAP1 PUSH2 0xFA2 JUMP JUMPDEST PUSH1 0x40 MLOAD DUP4 PUSH4 0xFFFFFFFF AND PUSH1 0xE0 SHL DUP2 MSTORE PUSH1 0x4 ADD PUSH2 0x365 SWAP3 SWAP2 SWAP1 PUSH2 0xFCF JUMP JUMPDEST PUSH1 0x20 PUSH1 0x40 MLOAD DUP1 DUP4 SUB DUP2 PUSH1 0x0 DUP8 GAS CALL ISZERO DUP1 ISZERO PUSH2 0x384 JUMPI RETURNDATASIZE PUSH1 0x0 DUP1 RETURNDATACOPY RETURNDATASIZE PUSH1 0x0 REVERT JUMPDEST POP POP POP POP PUSH1 0x40 MLOAD RETURNDATASIZE PUSH1 0x1F NOT PUSH1 0x1F DUP3 ADD AND DUP3 ADD DUP1 PUSH1 0x40 MSTORE POP DUP2 ADD SWAP1 PUSH2 0x3A8 SWAP2 SWAP1 PUSH2 0x1024 JUMP JUMPDEST PUSH2 0x3E7 JUMPI PUSH1 0x40 MLOAD PUSH32 0x8C379A000000000000000000000000000000000000000000000000000000000 DUP2 MSTORE PUSH1 0x4 ADD PUSH2 0x3DE SWAP1 PUSH2 0x109D JUMP JUMPDEST PUSH1 0x40 MLOAD DUP1 SWAP2 SUB SWAP1 REVERT JUMPDEST POP JUMP JUMPDEST PUSH1 0x0 PUSH1 0x20 MSTORE DUP1 PUSH1 0x0 MSTORE PUSH1 0x40 PUSH1 0x0 KECCAK256 PUSH1 0x0 SWAP2 POP SWAP1 POP DUP1 PUSH1 0x0 ADD SLOAD SWAP1 DUP1 PUSH1 0x1 ADD PUSH1 0x0 SWAP1 SLOAD SWAP1 PUSH2 0x100 EXP SWAP1 DIV PUSH1 0xFF AND SWAP1 POP DUP3 JUMP JUMPDEST PUSH1 0x0 DUP1 PUSH1 0x60 PUSH1 0x0 DUP1 PUSH1 0x0 DUP7 DUP2 MSTORE PUSH1 0x20 ADD SWAP1 DUP2 MSTORE PUSH1 0x20 ADD PUSH1 0x0 KECCAK256 PUSH1 0x0 ADD SLOAD GT PUSH2 0x478 JUMPI PUSH1 0x40 MLOAD PUSH32 0x8C379A000000000000000000000000000000000000000000000000000000000 DUP2 MSTORE PUSH1 0x4 ADD PUSH2 0x46F SWAP1 PUSH2 0x1109 JUMP JUMPDEST PUSH1 0x40 MLOAD DUP1 SWAP2 SUB SWAP1 REVERT JUMPDEST PUSH1 0x0 DUP1 PUSH1 0x0 DUP7 DUP2 MSTORE PUSH1 0x20 ADD SWAP1 DUP2 MSTORE PUSH1 0x20 ADD PUSH1 0x0 KECCAK256 PUSH1 0x40 MLOAD DUP1 PUSH1 0x60 ADD PUSH1 0x40 MSTORE SWAP1 DUP2 PUSH1 0x0 DUP3 ADD SLOAD DUP2 MSTORE PUSH1 0x20 ADD PUSH1 0x1 DUP3 ADD PUSH1 0x0 SWAP1 SLOAD SWAP1 PUSH2 0x100 EXP SWAP1 DIV PUSH1 0xFF AND ISZERO ISZERO ISZERO ISZERO DUP2 MSTORE PUSH1 0x20 ADD PUSH1 0x2 DUP3 ADD DUP1 SLOAD DUP1 PUSH1 0x20 MUL PUSH1 0x20 ADD PUSH1 0x40 MLOAD SWAP1 DUP2 ADD PUSH1 0x40 MSTORE DUP1 SWAP3 SWAP2 SWAP1 DUP2 DUP2 MSTORE PUSH1 0x20 ADD DUP3 DUP1 SLOAD DUP1 ISZERO PUSH2 0x50B JUMPI PUSH1 0x20 MUL DUP3 ADD SWAP2 SWAP1 PUSH1 0x0 MSTORE PUSH1 0x20 PUSH1 0x0 KECCAK256 SWAP1 JUMPDEST DUP2 SLOAD DUP2 MSTORE PUSH1 0x20 ADD SWAP1 PUSH1 0x1 ADD SWAP1 DUP1 DUP4 GT PUSH2 0x4F7 JUMPI JUMPDEST POP POP POP POP POP DUP2 MSTORE POP POP SWAP1 POP DUP1 PUSH1 0x0 ADD MLOAD DUP2 PUSH1 0x20 ADD MLOAD DUP3 PUSH1 0x40 ADD MLOAD SWAP4 POP SWAP4 POP SWAP4 POP POP SWAP2 SWAP4 SWAP1 SWAP3 POP JUMP JUMPDEST PUSH1 0x0 PUSH2 0x572 PUSH1 0x4 PUSH1 0x0 SWAP1 SLOAD SWAP1 PUSH2 0x100 EXP SWAP1 DIV PUSH4 0xFFFFFFFF AND PUSH1 0x4 DUP1 SLOAD SWAP1 PUSH2 0x100 EXP SWAP1 DIV PUSH2 0xFFFF AND PUSH1 0x4 PUSH1 0x6 SWAP1 SLOAD SWAP1 PUSH2 0x100 EXP SWAP1 DIV PUSH4 0xFFFFFFFF AND PUSH2 0x89D JUMP JUMPDEST SWAP1 POP PUSH1 0x40 MLOAD DUP1 PUSH1 0x60 ADD PUSH1 0x40 MSTORE DUP1 PUSH32 0x0 PUSH20 0xFFFFFFFFFFFFFFFFFFFFFFFFFFFFFFFFFFFFFFFF AND PUSH4 0x4306D354 PUSH1 0x4 PUSH1 0x0 SWAP1 SLOAD SWAP1 PUSH2 0x100 EXP SWAP1 DIV PUSH4 0xFFFFFFFF AND PUSH1 0x40 MLOAD DUP3 PUSH4 0xFFFFFFFF AND PUSH1 0xE0 SHL DUP2 MSTORE PUSH1 0x4 ADD PUSH2 0x5EA SWAP2 SWAP1 PUSH2 0x1148 JUMP JUMPDEST PUSH1 0x20 PUSH1 0x40 MLOAD DUP1 DUP4 SUB DUP2 DUP7 GAS STATICCALL ISZERO DUP1 ISZERO PUSH2 0x607 JUMPI RETURNDATASIZE PUSH1 0x0 DUP1 RETURNDATACOPY RETURNDATASIZE PUSH1 0x0 REVERT JUMPDEST POP POP POP POP PUSH1 0x40 MLOAD RETURNDATASIZE PUSH1 0x1F NOT PUSH1 0x1F DUP3 ADD AND DUP3 ADD DUP1 PUSH1 0x40 MSTORE POP DUP2 ADD SWAP1 PUSH2 0x62B SWAP2 SWAP1 PUSH2 0xFA2 JUMP JUMPDEST DUP2 MSTORE PUSH1 0x20 ADD PUSH1 0x0 ISZERO ISZERO DUP2 MSTORE PUSH1 0x20 ADD PUSH1 0x0 PUSH8 0xFFFFFFFFFFFFFFFF DUP2 GT ISZERO PUSH2 0x654 JUMPI PUSH2 0x653 PUSH2 0xB7E JUMP JUMPDEST JUMPDEST PUSH1 0x40 MLOAD SWAP1 DUP1 DUP3 MSTORE DUP1 PUSH1 0x20 MUL PUSH1 0x20 ADD DUP3 ADD PUSH1 0x40 MSTORE DUP1 ISZERO PUSH2 0x682 JUMPI DUP2 PUSH1 0x20 ADD PUSH1 0x20 DUP3 MUL DUP1 CALLDATASIZE DUP4 CALLDATACOPY DUP1 DUP3 ADD SWAP2 POP POP SWAP1 POP JUMPDEST POP DUP2 MSTORE POP PUSH1 0x0 DUP1 DUP4 DUP2 MSTORE PUSH1 0x20 ADD SWAP1 DUP2 MSTORE PUSH1 0x20 ADD PUSH1 0x0 KECCAK256 PUSH1 0x0 DUP3 ADD MLOAD DUP2 PUSH1 0x0 ADD SSTORE PUSH1 0x20 DUP3 ADD MLOAD DUP2 PUSH1 0x1 ADD PUSH1 0x0 PUSH2 0x100 EXP DUP2 SLOAD DUP2 PUSH1 0xFF MUL NOT AND SWAP1 DUP4 ISZERO ISZERO MUL OR SWAP1 SSTORE POP PUSH1 0x40 DUP3 ADD MLOAD DUP2 PUSH1 0x2 ADD SWAP1 DUP1 MLOAD SWAP1 PUSH1 0x20 ADD SWAP1 PUSH2 0x6DE SWAP3 SWAP2 SWAP1 PUSH2 0xAB4 JUMP JUMPDEST POP SWAP1 POP POP PUSH1 0x2 DUP2 SWAP1 DUP1 PUSH1 0x1 DUP2 SLOAD ADD DUP1 DUP3 SSTORE DUP1 SWAP2 POP POP PUSH1 0x1 SWAP1 SUB SWAP1 PUSH1 0x0 MSTORE PUSH1 0x20 PUSH1 0x0 KECCAK256 ADD PUSH1 0x0 SWAP1 SWAP2 SWAP1 SWAP2 SWAP1 SWAP2 POP SSTORE DUP1 PUSH1 0x3 DUP2 SWAP1 SSTORE POP PUSH32 0xCC58B13AD3EAB50626C6A6300B1D139CD6EBB1688A7CCED9461C2F7E762665EE DUP2 PUSH1 0x4 PUSH1 0x6 SWAP1 SLOAD SWAP1 PUSH2 0x100 EXP SWAP1 DIV PUSH4 0xFFFFFFFF AND PUSH1 0x40 MLOAD PUSH2 0x755 SWAP3 SWAP2 SWAP1 PUSH2 0x1163 JUMP JUMPDEST PUSH1 0x40 MLOAD DUP1 SWAP2 SUB SWAP1 LOG1 SWAP1 JUMP JUMPDEST PUSH1 0x3 SLOAD DUP2 JUMP JUMPDEST PUSH1 0x0 DUP1 PUSH1 0x0 DUP5 DUP2 MSTORE PUSH1 0x20 ADD SWAP1 DUP2 MSTORE PUSH1 0x20 ADD PUSH1 0x0 KECCAK256 PUSH1 0x0 ADD SLOAD GT PUSH2 0x7BE JUMPI PUSH1 0x40 MLOAD PUSH32 0x8C379A000000000000000000000000000000000000000000000000000000000 DUP2 MSTORE PUSH1 0x4 ADD PUSH2 0x7B5 SWAP1 PUSH2 0x1109 JUMP JUMPDEST PUSH1 0x40 MLOAD DUP1 SWAP2 SUB SWAP1 REVERT JUMPDEST PUSH1 0x1 PUSH1 0x0 DUP1 DUP5 DUP2 MSTORE PUSH1 0x20 ADD SWAP1 DUP2 MSTORE PUSH1 0x20 ADD PUSH1 0x0 KECCAK256 PUSH1 0x1 ADD PUSH1 0x0 PUSH2 0x100 EXP DUP2 SLOAD DUP2 PUSH1 0xFF MUL NOT AND SWAP1 DUP4 ISZERO ISZERO MUL OR SWAP1 SSTORE POP DUP1 PUSH1 0x0 DUP1 DUP5 DUP2 MSTORE PUSH1 0x20 ADD SWAP1 DUP2 MSTORE PUSH1 0x20 ADD PUSH1 0x0 KECCAK256 PUSH1 0x2 ADD SWAP1 DUP1 MLOAD SWAP1 PUSH1 0x20 ADD SWAP1 PUSH2 0x815 SWAP3 SWAP2 SWAP1 PUSH2 0xAB4 JUMP JUMPDEST POP DUP1 PUSH1 0x0 DUP2 MLOAD DUP2 LT PUSH2 0x82A JUMPI PUSH2 0x829 PUSH2 0x118C JUMP JUMPDEST JUMPDEST PUSH1 0x20 MUL PUSH1 0x20 ADD ADD MLOAD PUSH1 0x1 PUSH1 0x0 DUP5 DUP2 MSTORE PUSH1 0x20 ADD SWAP1 DUP2 MSTORE PUSH1 0x20 ADD PUSH1 0x0 KECCAK256 DUP2 SWAP1 SSTORE POP PUSH32 0x147EB1FF0C82F87F2B03E2C43F5A36488FF63EC6B730195FDE4605F612F8DB51 DUP3 DUP3 PUSH1 0x0 DUP1 DUP7 DUP2 MSTORE PUSH1 0x20 ADD SWAP1 DUP2 MSTORE PUSH1 0x20 ADD PUSH1 0x0 KECCAK256 PUSH1 0x0 ADD SLOAD PUSH1 0x40 MLOAD PUSH2 0x891 SWAP4 SWAP3 SWAP2 SWAP1 PUSH2 0x11BB JUMP JUMPDEST PUSH1 0x40 MLOAD DUP1 SWAP2 SUB SWAP1 LOG1 POP POP JUMP JUMPDEST PUSH1 0x0 PUSH32 0x0 PUSH20 0xFFFFFFFFFFFFFFFFFFFFFFFFFFFFFFFFFFFFFFFF AND PUSH4 0x4000AEA0 PUSH32 0x0 PUSH32 0x0 PUSH20 0xFFFFFFFFFFFFFFFFFFFFFFFFFFFFFFFFFFFFFFFF AND PUSH4 0x4306D354 DUP9 PUSH1 0x40 MLOAD DUP3 PUSH4 0xFFFFFFFF AND PUSH1 0xE0 SHL DUP2 MSTORE PUSH1 0x4 ADD PUSH2 0x955 SWAP2 SWAP1 PUSH2 0x1148 JUMP JUMPDEST PUSH1 0x20 PUSH1 0x40 MLOAD DUP1 DUP4 SUB DUP2 DUP7 GAS STATICCALL ISZERO DUP1 ISZERO PUSH2 0x972 JUMPI RETURNDATASIZE PUSH1 0x0 DUP1 RETURNDATACOPY RETURNDATASIZE PUSH1 0x0 REVERT JUMPDEST POP POP POP POP PUSH1 0x40 MLOAD RETURNDATASIZE PUSH1 0x1F NOT PUSH1 0x1F DUP3 ADD AND DUP3 ADD DUP1 PUSH1 0x40 MSTORE POP DUP2 ADD SWAP1 PUSH2 0x996 SWAP2 SWAP1 PUSH2 0xFA2 JUMP JUMPDEST DUP8 DUP8 DUP8 PUSH1 0x40 MLOAD PUSH1 0x20 ADD PUSH2 0x9AB SWAP4 SWAP3 SWAP2 SWAP1 PUSH2 0x1216 JUMP JUMPDEST PUSH1 0x40 MLOAD PUSH1 0x20 DUP2 DUP4 SUB SUB DUP2 MSTORE SWAP1 PUSH1 0x40 MSTORE PUSH1 0x40 MLOAD DUP5 PUSH4 0xFFFFFFFF AND PUSH1 0xE0 SHL DUP2 MSTORE PUSH1 0x4 ADD PUSH2 0x9D8 SWAP4 SWAP3 SWAP2 SWAP1 PUSH2 0x12CC JUMP JUMPDEST PUSH1 0x20 PUSH1 0x40 MLOAD DUP1 DUP4 SUB DUP2 PUSH1 0x0 DUP8 GAS CALL ISZERO DUP1 ISZERO PUSH2 0x9F7 JUMPI RETURNDATASIZE PUSH1 0x0 DUP1 RETURNDATACOPY RETURNDATASIZE PUSH1 0x0 REVERT JUMPDEST POP POP POP POP PUSH1 0x40 MLOAD RETURNDATASIZE PUSH1 0x1F NOT PUSH1 0x1F DUP3 ADD AND DUP3 ADD DUP1 PUSH1 0x40 MSTORE POP DUP2 ADD SWAP1 PUSH2 0xA1B SWAP2 SWAP1 PUSH2 0x1024 JUMP JUMPDEST POP PUSH32 0x0 PUSH20 0xFFFFFFFFFFFFFFFFFFFFFFFFFFFFFFFFFFFFFFFF AND PUSH4 0xFC2A88C3 PUSH1 0x40 MLOAD DUP2 PUSH4 0xFFFFFFFF AND PUSH1 0xE0 SHL DUP2 MSTORE PUSH1 0x4 ADD PUSH1 0x20 PUSH1 0x40 MLOAD DUP1 DUP4 SUB DUP2 DUP7 GAS STATICCALL ISZERO DUP1 ISZERO PUSH2 0xA87 JUMPI RETURNDATASIZE PUSH1 0x0 DUP1 RETURNDATACOPY RETURNDATASIZE PUSH1 0x0 REVERT JUMPDEST POP POP POP POP PUSH1 0x40 MLOAD RETURNDATASIZE PUSH1 0x1F NOT PUSH1 0x1F DUP3 ADD AND DUP3 ADD DUP1 PUSH1 0x40 MSTORE POP DUP2 ADD SWAP1 PUSH2 0xAAB SWAP2 SWAP1 PUSH2 0xFA2 JUMP JUMPDEST SWAP1 POP SWAP4 SWAP3 POP POP POP JUMP JUMPDEST DUP3 DUP1 SLOAD DUP3 DUP3 SSTORE SWAP1 PUSH1 0x0 MSTORE PUSH1 0x20 PUSH1 0x0 KECCAK256 SWAP1 DUP2 ADD SWAP3 DUP3 ISZERO PUSH2 0xAF0 JUMPI SWAP2 PUSH1 0x20 MUL DUP3 ADD JUMPDEST DUP3 DUP2 GT ISZERO PUSH2 0xAEF JUMPI DUP3 MLOAD DUP3 SSTORE SWAP2 PUSH1 0x20 ADD SWAP2 SWAP1 PUSH1 0x1 ADD SWAP1 PUSH2 0xAD4 JUMP JUMPDEST JUMPDEST POP SWAP1 POP PUSH2 0xAFD SWAP2 SWAP1 PUSH2 0xB01 JUMP JUMPDEST POP SWAP1 JUMP JUMPDEST JUMPDEST DUP1 DUP3 GT ISZERO PUSH2 0xB1A JUMPI PUSH1 0x0 DUP2 PUSH1 0x0 SWAP1 SSTORE POP PUSH1 0x1 ADD PUSH2 0xB02 JUMP JUMPDEST POP SWAP1 JUMP JUMPDEST PUSH1 0x0 PUSH1 0x40 MLOAD SWAP1 POP SWAP1 JUMP JUMPDEST PUSH1 0x0 DUP1 REVERT JUMPDEST PUSH1 0x0 DUP1 REVERT JUMPDEST PUSH1 0x0 DUP2 SWAP1 POP SWAP2 SWAP1 POP JUMP JUMPDEST PUSH2 0xB45 DUP2 PUSH2 0xB32 JUMP JUMPDEST DUP2 EQ PUSH2 0xB50 JUMPI PUSH1 0x0 DUP1 REVERT JUMPDEST POP JUMP JUMPDEST PUSH1 0x0 DUP2 CALLDATALOAD SWAP1 POP PUSH2 0xB62 DUP2 PUSH2 0xB3C JUMP JUMPDEST SWAP3 SWAP2 POP POP JUMP JUMPDEST PUSH1 0x0 DUP1 REVERT JUMPDEST PUSH1 0x0 PUSH1 0x1F NOT PUSH1 0x1F DUP4 ADD AND SWAP1 POP SWAP2 SWAP1 POP JUMP JUMPDEST PUSH32 0x4E487B7100000000000000000000000000000000000000000000000000000000 PUSH1 0x0 MSTORE PUSH1 0x41 PUSH1 0x4 MSTORE PUSH1 0x24 PUSH1 0x0 REVERT JUMPDEST PUSH2 0xBB6 DUP3 PUSH2 0xB6D JUMP JUMPDEST DUP2 ADD DUP2 DUP2 LT PUSH8 0xFFFFFFFFFFFFFFFF DUP3 GT OR ISZERO PUSH2 0xBD5 JUMPI PUSH2 0xBD4 PUSH2 0xB7E JUMP JUMPDEST JUMPDEST DUP1 PUSH1 0x40 MSTORE POP POP POP JUMP JUMPDEST PUSH1 0x0 PUSH2 0xBE8 PUSH2 0xB1E JUMP JUMPDEST SWAP1 POP PUSH2 0xBF4 DUP3 DUP3 PUSH2 0xBAD JUMP JUMPDEST SWAP2 SWAP1 POP JUMP JUMPDEST PUSH1 0x0 PUSH8 0xFFFFFFFFFFFFFFFF DUP3 GT ISZERO PUSH2 0xC14 JUMPI PUSH2 0xC13 PUSH2 0xB7E JUMP JUMPDEST JUMPDEST PUSH1 0x20 DUP3 MUL SWAP1 POP PUSH1 0x20 DUP2 ADD SWAP1 POP SWAP2 SWAP1 POP JUMP JUMPDEST PUSH1 0x0 DUP1 REVERT JUMPDEST PUSH1 0x0 PUSH2 0xC3D PUSH2 0xC38 DUP5 PUSH2 0xBF9 JUMP JUMPDEST PUSH2 0xBDE JUMP JUMPDEST SWAP1 POP DUP1 DUP4 DUP3 MSTORE PUSH1 0x20 DUP3 ADD SWAP1 POP PUSH1 0x20 DUP5 MUL DUP4 ADD DUP6 DUP2 GT ISZERO PUSH2 0xC60 JUMPI PUSH2 0xC5F PUSH2 0xC25 JUMP JUMPDEST JUMPDEST DUP4 JUMPDEST DUP2 DUP2 LT ISZERO PUSH2 0xC89 JUMPI DUP1 PUSH2 0xC75 DUP9 DUP3 PUSH2 0xB53 JUMP JUMPDEST DUP5 MSTORE PUSH1 0x20 DUP5 ADD SWAP4 POP POP PUSH1 0x20 DUP2 ADD SWAP1 POP PUSH2 0xC62 JUMP JUMPDEST POP POP POP SWAP4 SWAP3 POP POP POP JUMP JUMPDEST PUSH1 0x0 DUP3 PUSH1 0x1F DUP4 ADD SLT PUSH2 0xCA8 JUMPI PUSH2 0xCA7 PUSH2 0xB68 JUMP JUMPDEST JUMPDEST DUP2 CALLDATALOAD PUSH2 0xCB8 DUP5 DUP3 PUSH1 0x20 DUP7 ADD PUSH2 0xC2A JUMP JUMPDEST SWAP2 POP POP SWAP3 SWAP2 POP POP JUMP JUMPDEST PUSH1 0x0 DUP1 PUSH1 0x40 DUP4 DUP6 SUB SLT ISZERO PUSH2 0xCD8 JUMPI PUSH2 0xCD7 PUSH2 0xB28 JUMP JUMPDEST JUMPDEST PUSH1 0x0 PUSH2 0xCE6 DUP6 DUP3 DUP7 ADD PUSH2 0xB53 JUMP JUMPDEST SWAP3 POP POP PUSH1 0x20 DUP4 ADD CALLDATALOAD PUSH8 0xFFFFFFFFFFFFFFFF DUP2 GT ISZERO PUSH2 0xD07 JUMPI PUSH2 0xD06 PUSH2 0xB2D JUMP JUMPDEST JUMPDEST PUSH2 0xD13 DUP6 DUP3 DUP7 ADD PUSH2 0xC93 JUMP JUMPDEST SWAP2 POP POP SWAP3 POP SWAP3 SWAP1 POP JUMP JUMPDEST PUSH1 0x0 PUSH1 0x20 DUP3 DUP5 SUB SLT ISZERO PUSH2 0xD33 JUMPI PUSH2 0xD32 PUSH2 0xB28 JUMP JUMPDEST JUMPDEST PUSH1 0x0 PUSH2 0xD41 DUP5 DUP3 DUP6 ADD PUSH2 0xB53 JUMP JUMPDEST SWAP2 POP POP SWAP3 SWAP2 POP POP JUMP JUMPDEST PUSH2 0xD53 DUP2 PUSH2 0xB32 JUMP JUMPDEST DUP3 MSTORE POP POP JUMP JUMPDEST PUSH1 0x0 PUSH1 0x20 DUP3 ADD SWAP1 POP PUSH2 0xD6E PUSH1 0x0 DUP4 ADD DUP5 PUSH2 0xD4A JUMP JUMPDEST SWAP3 SWAP2 POP POP JUMP JUMPDEST PUSH1 0x0 DUP2 ISZERO ISZERO SWAP1 POP SWAP2 SWAP1 POP JUMP JUMPDEST PUSH2 0xD89 DUP2 PUSH2 0xD74 JUMP JUMPDEST DUP3 MSTORE POP POP JUMP JUMPDEST PUSH1 0x0 PUSH1 0x40 DUP3 ADD SWAP1 POP PUSH2 0xDA4 PUSH1 0x0 DUP4 ADD DUP6 PUSH2 0xD4A JUMP JUMPDEST PUSH2 0xDB1 PUSH1 0x20 DUP4 ADD DUP5 PUSH2 0xD80 JUMP JUMPDEST SWAP4 SWAP3 POP POP POP JUMP JUMPDEST PUSH1 0x0 DUP2 MLOAD SWAP1 POP SWAP2 SWAP1 POP JUMP JUMPDEST PUSH1 0x0 DUP3 DUP3 MSTORE PUSH1 0x20 DUP3 ADD SWAP1 POP SWAP3 SWAP2 POP POP JUMP JUMPDEST PUSH1 0x0 DUP2 SWAP1 POP PUSH1 0x20 DUP3 ADD SWAP1 POP SWAP2 SWAP1 POP JUMP JUMPDEST PUSH2 0xDED DUP2 PUSH2 0xB32 JUMP JUMPDEST DUP3 MSTORE POP POP JUMP JUMPDEST PUSH1 0x0 PUSH2 0xDFF DUP4 DUP4 PUSH2 0xDE4 JUMP JUMPDEST PUSH1 0x20 DUP4 ADD SWAP1 POP SWAP3 SWAP2 POP POP JUMP JUMPDEST PUSH1 0x0 PUSH1 0x20 DUP3 ADD SWAP1 POP SWAP2 SWAP1 POP JUMP JUMPDEST PUSH1 0x0 PUSH2 0xE23 DUP3 PUSH2 0xDB8 JUMP JUMPDEST PUSH2 0xE2D DUP2 DUP6 PUSH2 0xDC3 JUMP JUMPDEST SWAP4 POP PUSH2 0xE38 DUP4 PUSH2 0xDD4 JUMP JUMPDEST DUP1 PUSH1 0x0 JUMPDEST DUP4 DUP2 LT ISZERO PUSH2 0xE69 JUMPI DUP2 MLOAD PUSH2 0xE50 DUP9 DUP3 PUSH2 0xDF3 JUMP JUMPDEST SWAP8 POP PUSH2 0xE5B DUP4 PUSH2 0xE0B JUMP JUMPDEST SWAP3 POP POP PUSH1 0x1 DUP2 ADD SWAP1 POP PUSH2 0xE3C JUMP JUMPDEST POP DUP6 SWAP4 POP POP POP POP SWAP3 SWAP2 POP POP JUMP JUMPDEST PUSH1 0x0 PUSH1 0x60 DUP3 ADD SWAP1 POP PUSH2 0xE8B PUSH1 0x0 DUP4 ADD DUP7 PUSH2 0xD4A JUMP JUMPDEST PUSH2 0xE98 PUSH1 0x20 DUP4 ADD DUP6 PUSH2 0xD80 JUMP JUMPDEST DUP2 DUP2 SUB PUSH1 0x40 DUP4 ADD MSTORE PUSH2 0xEAA DUP2 DUP5 PUSH2 0xE18 JUMP JUMPDEST SWAP1 POP SWAP5 SWAP4 POP POP POP POP JUMP JUMPDEST PUSH1 0x0 DUP3 DUP3 MSTORE PUSH1 0x20 DUP3 ADD SWAP1 POP SWAP3 SWAP2 POP POP JUMP JUMPDEST PUSH32 0x6F6E6C792056524620563220777261707065722063616E2066756C66696C6C00 PUSH1 0x0 DUP3 ADD MSTORE POP JUMP JUMPDEST PUSH1 0x0 PUSH2 0xEFB PUSH1 0x1F DUP4 PUSH2 0xEB4 JUMP JUMPDEST SWAP2 POP PUSH2 0xF06 DUP3 PUSH2 0xEC5 JUMP JUMPDEST PUSH1 0x20 DUP3 ADD SWAP1 POP SWAP2 SWAP1 POP JUMP JUMPDEST PUSH1 0x0 PUSH1 0x20 DUP3 ADD SWAP1 POP DUP2 DUP2 SUB PUSH1 0x0 DUP4 ADD MSTORE PUSH2 0xF2A DUP2 PUSH2 0xEEE JUMP JUMPDEST SWAP1 POP SWAP2 SWAP1 POP JUMP JUMPDEST PUSH1 0x0 PUSH20 0xFFFFFFFFFFFFFFFFFFFFFFFFFFFFFFFFFFFFFFFF DUP3 AND SWAP1 POP SWAP2 SWAP1 POP JUMP JUMPDEST PUSH1 0x0 PUSH2 0xF5C DUP3 PUSH2 0xF31 JUMP JUMPDEST SWAP1 POP SWAP2 SWAP1 POP JUMP JUMPDEST PUSH2 0xF6C DUP2 PUSH2 0xF51 JUMP JUMPDEST DUP3 MSTORE POP POP JUMP JUMPDEST PUSH1 0x0 PUSH1 0x20 DUP3 ADD SWAP1 POP PUSH2 0xF87 PUSH1 0x0 DUP4 ADD DUP5 PUSH2 0xF63 JUMP JUMPDEST SWAP3 SWAP2 POP POP JUMP JUMPDEST PUSH1 0x0 DUP2 MLOAD SWAP1 POP PUSH2 0xF9C DUP2 PUSH2 0xB3C JUMP JUMPDEST SWAP3 SWAP2 POP POP JUMP JUMPDEST PUSH1 0x0 PUSH1 0x20 DUP3 DUP5 SUB SLT ISZERO PUSH2 0xFB8 JUMPI PUSH2 0xFB7 PUSH2 0xB28 JUMP JUMPDEST JUMPDEST PUSH1 0x0 PUSH2 0xFC6 DUP5 DUP3 DUP6 ADD PUSH2 0xF8D JUMP JUMPDEST SWAP2 POP POP SWAP3 SWAP2 POP POP JUMP JUMPDEST PUSH1 0x0 PUSH1 0x40 DUP3 ADD SWAP1 POP PUSH2 0xFE4 PUSH1 0x0 DUP4 ADD DUP6 PUSH2 0xF63 JUMP JUMPDEST PUSH2 0xFF1 PUSH1 0x20 DUP4 ADD DUP5 PUSH2 0xD4A JUMP JUMPDEST SWAP4 SWAP3 POP POP POP JUMP JUMPDEST PUSH2 0x1001 DUP2 PUSH2 0xD74 JUMP JUMPDEST DUP2 EQ PUSH2 0x100C JUMPI PUSH1 0x0 DUP1 REVERT JUMPDEST POP JUMP JUMPDEST PUSH1 0x0 DUP2 MLOAD SWAP1 POP PUSH2 0x101E DUP2 PUSH2 0xFF8 JUMP JUMPDEST SWAP3 SWAP2 POP POP JUMP JUMPDEST PUSH1 0x0 PUSH1 0x20 DUP3 DUP5 SUB SLT ISZERO PUSH2 0x103A JUMPI PUSH2 0x1039 PUSH2 0xB28 JUMP JUMPDEST JUMPDEST PUSH1 0x0 PUSH2 0x1048 DUP5 DUP3 DUP6 ADD PUSH2 0x100F JUMP JUMPDEST SWAP2 POP POP SWAP3 SWAP2 POP POP JUMP JUMPDEST PUSH32 0x556E61626C6520746F207472616E736665720000000000000000000000000000 PUSH1 0x0 DUP3 ADD MSTORE POP JUMP JUMPDEST PUSH1 0x0 PUSH2 0x1087 PUSH1 0x12 DUP4 PUSH2 0xEB4 JUMP JUMPDEST SWAP2 POP PUSH2 0x1092 DUP3 PUSH2 0x1051 JUMP JUMPDEST PUSH1 0x20 DUP3 ADD SWAP1 POP SWAP2 SWAP1 POP JUMP JUMPDEST PUSH1 0x0 PUSH1 0x20 DUP3 ADD SWAP1 POP DUP2 DUP2 SUB PUSH1 0x0 DUP4 ADD MSTORE PUSH2 0x10B6 DUP2 PUSH2 0x107A JUMP JUMPDEST SWAP1 POP SWAP2 SWAP1 POP JUMP JUMPDEST PUSH32 0x72657175657374206E6F7420666F756E64000000000000000000000000000000 PUSH1 0x0 DUP3 ADD MSTORE POP JUMP JUMPDEST PUSH1 0x0 PUSH2 0x10F3 PUSH1 0x11 DUP4 PUSH2 0xEB4 JUMP JUMPDEST SWAP2 POP PUSH2 0x10FE DUP3 PUSH2 0x10BD JUMP JUMPDEST PUSH1 0x20 DUP3 ADD SWAP1 POP SWAP2 SWAP1 POP JUMP JUMPDEST PUSH1 0x0 PUSH1 0x20 DUP3 ADD SWAP1 POP DUP2 DUP2 SUB PUSH1 0x0 DUP4 ADD MSTORE PUSH2 0x1122 DUP2 PUSH2 0x10E6 JUMP JUMPDEST SWAP1 POP SWAP2 SWAP1 POP JUMP JUMPDEST PUSH1 0x0 PUSH4 0xFFFFFFFF DUP3 AND SWAP1 POP SWAP2 SWAP1 POP JUMP JUMPDEST PUSH2 0x1142 DUP2 PUSH2 0x1129 JUMP JUMPDEST DUP3 MSTORE POP POP JUMP JUMPDEST PUSH1 0x0 PUSH1 0x20 DUP3 ADD SWAP1 POP PUSH2 0x115D PUSH1 0x0 DUP4 ADD DUP5 PUSH2 0x1139 JUMP JUMPDEST SWAP3 SWAP2 POP POP JUMP JUMPDEST PUSH1 0x0 PUSH1 0x40 DUP3 ADD SWAP1 POP PUSH2 0x1178 PUSH1 0x0 DUP4 ADD DUP6 PUSH2 0xD4A JUMP JUMPDEST PUSH2 0x1185 PUSH1 0x20 DUP4 ADD DUP5 PUSH2 0x1139 JUMP JUMPDEST SWAP4 SWAP3 POP POP POP JUMP JUMPDEST PUSH32 0x4E487B7100000000000000000000000000000000000000000000000000000000 PUSH1 0x0 MSTORE PUSH1 0x32 PUSH1 0x4 MSTORE PUSH1 0x24 PUSH1 0x0 REVERT JUMPDEST PUSH1 0x0 PUSH1 0x60 DUP3 ADD SWAP1 POP PUSH2 0x11D0 PUSH1 0x0 DUP4 ADD DUP7 PUSH2 0xD4A JUMP JUMPDEST DUP2 DUP2 SUB PUSH1 0x20 DUP4 ADD MSTORE PUSH2 0x11E2 DUP2 DUP6 PUSH2 0xE18 JUMP JUMPDEST SWAP1 POP PUSH2 0x11F1 PUSH1 0x40 DUP4 ADD DUP5 PUSH2 0xD4A JUMP JUMPDEST SWAP5 SWAP4 POP POP POP POP JUMP JUMPDEST PUSH1 0x0 PUSH2 0xFFFF DUP3 AND SWAP1 POP SWAP2 SWAP1 POP JUMP JUMPDEST PUSH2 0x1210 DUP2 PUSH2 0x11F9 JUMP JUMPDEST DUP3 MSTORE POP POP JUMP JUMPDEST PUSH1 0x0 PUSH1 0x60 DUP3 ADD SWAP1 POP PUSH2 0x122B PUSH1 0x0 DUP4 ADD DUP7 PUSH2 0x1139 JUMP JUMPDEST PUSH2 0x1238 PUSH1 0x20 DUP4 ADD DUP6 PUSH2 0x1207 JUMP JUMPDEST PUSH2 0x1245 PUSH1 0x40 DUP4 ADD DUP5 PUSH2 0x1139 JUMP JUMPDEST SWAP5 SWAP4 POP POP POP POP JUMP JUMPDEST PUSH1 0x0 DUP2 MLOAD SWAP1 POP SWAP2 SWAP1 POP JUMP JUMPDEST PUSH1 0x0 DUP3 DUP3 MSTORE PUSH1 0x20 DUP3 ADD SWAP1 POP SWAP3 SWAP2 POP POP JUMP JUMPDEST PUSH1 0x0 JUMPDEST DUP4 DUP2 LT ISZERO PUSH2 0x1287 JUMPI DUP1 DUP3 ADD MLOAD DUP2 DUP5 ADD MSTORE PUSH1 0x20 DUP2 ADD SWAP1 POP PUSH2 0x126C JUMP JUMPDEST PUSH1 0x0 DUP5 DUP5 ADD MSTORE POP POP POP POP JUMP JUMPDEST PUSH1 0x0 PUSH2 0x129E DUP3 PUSH2 0x124D JUMP JUMPDEST PUSH2 0x12A8 DUP2 DUP6 PUSH2 0x1258 JUMP JUMPDEST SWAP4 POP PUSH2 0x12B8 DUP2 DUP6 PUSH1 0x20 DUP7 ADD PUSH2 0x1269 JUMP JUMPDEST PUSH2 0x12C1 DUP2 PUSH2 0xB6D JUMP JUMPDEST DUP5 ADD SWAP2 POP POP SWAP3 SWAP2 POP POP JUMP JUMPDEST PUSH1 0x0 PUSH1 0x60 DUP3 ADD SWAP1 POP PUSH2 0x12E1 PUSH1 0x0 DUP4 ADD DUP7 PUSH2 0xF63 JUMP JUMPDEST PUSH2 0x12EE PUSH1 0x20 DUP4 ADD DUP6 PUSH2 0xD4A JUMP JUMPDEST DUP2 DUP2 SUB PUSH1 0x40 DUP4 ADD MSTORE PUSH2 0x1300 DUP2 DUP5 PUSH2 0x1293 JUMP JUMPDEST SWAP1 POP SWAP5 SWAP4 POP POP POP POP JUMP INVALID LOG2 PUSH5 0x6970667358 0x22 SLT KECCAK256 DUP10 0xB5 0xB3 0xE2 0xAB 0xE2 0xA5 PUSH32 0xF056A57AC48B82CC80ACA25FA6CEE7999184ED835368C65264736F6C63430008 SGT STOP CALLER "
				},
				"gasEstimates": {
					"creation": {
						"codeDepositCost": "985600",
						"executionCost": "infinite",
						"totalCost": "infinite"
					},
					"external": {
						"allRandomWords(uint256)": "infinite",
						"getRequestStatus(uint256)": "infinite",
						"lastRequestId()": "2495",
						"rawFulfillRandomWords(uint256,uint256[])": "infinite",
						"requestIds(uint256)": "infinite",
						"requestRandomWords()": "infinite",
						"s_requests(uint256)": "infinite",
						"withdrawLink()": "infinite"
					},
					"internal": {
						"fulfillRandomWords(uint256,uint256[] memory)": "infinite"
					}
				},
				"methodIdentifiers": {
					"allRandomWords(uint256)": "43a77ff6",
					"getRequestStatus(uint256)": "d8a4676f",
					"lastRequestId()": "fc2a88c3",
					"rawFulfillRandomWords(uint256,uint256[])": "1fe543e3",
					"requestIds(uint256)": "8796ba8c",
					"requestRandomWords()": "e0c86289",
					"s_requests(uint256)": "a168fa89",
					"withdrawLink()": "8dc654a2"
				}
			},
			"storageLayout": {
				"storage": [
					{
						"astId": 263,
						"contract": "StekcitBMVRF.sol:StekcitBMVRF",
						"label": "s_requests",
						"offset": 0,
						"slot": "0",
						"type": "t_mapping(t_uint256,t_struct(RequestStatus)258_storage)"
					},
					{
						"astId": 267,
						"contract": "StekcitBMVRF.sol:StekcitBMVRF",
						"label": "allRandomWords",
						"offset": 0,
						"slot": "1",
						"type": "t_mapping(t_uint256,t_uint256)"
					},
					{
						"astId": 270,
						"contract": "StekcitBMVRF.sol:StekcitBMVRF",
						"label": "requestIds",
						"offset": 0,
						"slot": "2",
						"type": "t_array(t_uint256)dyn_storage"
					},
					{
						"astId": 272,
						"contract": "StekcitBMVRF.sol:StekcitBMVRF",
						"label": "lastRequestId",
						"offset": 0,
						"slot": "3",
						"type": "t_uint256"
					},
					{
						"astId": 275,
						"contract": "StekcitBMVRF.sol:StekcitBMVRF",
						"label": "callbackGasLimit",
						"offset": 0,
						"slot": "4",
						"type": "t_uint32"
					},
					{
						"astId": 278,
						"contract": "StekcitBMVRF.sol:StekcitBMVRF",
						"label": "requestConfirmations",
						"offset": 4,
						"slot": "4",
						"type": "t_uint16"
					},
					{
						"astId": 281,
						"contract": "StekcitBMVRF.sol:StekcitBMVRF",
						"label": "numWords",
						"offset": 6,
						"slot": "4",
						"type": "t_uint32"
					},
					{
						"astId": 284,
						"contract": "StekcitBMVRF.sol:StekcitBMVRF",
						"label": "linkAddress",
						"offset": 10,
						"slot": "4",
						"type": "t_address"
					},
					{
						"astId": 287,
						"contract": "StekcitBMVRF.sol:StekcitBMVRF",
						"label": "wrapperAddress",
						"offset": 0,
						"slot": "5",
						"type": "t_address"
					}
				],
				"types": {
					"t_address": {
						"encoding": "inplace",
						"label": "address",
						"numberOfBytes": "20"
					},
					"t_array(t_uint256)dyn_storage": {
						"base": "t_uint256",
						"encoding": "dynamic_array",
						"label": "uint256[]",
						"numberOfBytes": "32"
					},
					"t_bool": {
						"encoding": "inplace",
						"label": "bool",
						"numberOfBytes": "1"
					},
					"t_mapping(t_uint256,t_struct(RequestStatus)258_storage)": {
						"encoding": "mapping",
						"key": "t_uint256",
						"label": "mapping(uint256 => struct StekcitBMVRF.RequestStatus)",
						"numberOfBytes": "32",
						"value": "t_struct(RequestStatus)258_storage"
					},
					"t_mapping(t_uint256,t_uint256)": {
						"encoding": "mapping",
						"key": "t_uint256",
						"label": "mapping(uint256 => uint256)",
						"numberOfBytes": "32",
						"value": "t_uint256"
					},
					"t_struct(RequestStatus)258_storage": {
						"encoding": "inplace",
						"label": "struct StekcitBMVRF.RequestStatus",
						"members": [
							{
								"astId": 252,
								"contract": "StekcitBMVRF.sol:StekcitBMVRF",
								"label": "paid",
								"offset": 0,
								"slot": "0",
								"type": "t_uint256"
							},
							{
								"astId": 254,
								"contract": "StekcitBMVRF.sol:StekcitBMVRF",
								"label": "fulfilled",
								"offset": 0,
								"slot": "1",
								"type": "t_bool"
							},
							{
								"astId": 257,
								"contract": "StekcitBMVRF.sol:StekcitBMVRF",
								"label": "randomWords",
								"offset": 0,
								"slot": "2",
								"type": "t_array(t_uint256)dyn_storage"
							}
						],
						"numberOfBytes": "96"
					},
					"t_uint16": {
						"encoding": "inplace",
						"label": "uint16",
						"numberOfBytes": "2"
					},
					"t_uint256": {
						"encoding": "inplace",
						"label": "uint256",
						"numberOfBytes": "32"
					},
					"t_uint32": {
						"encoding": "inplace",
						"label": "uint32",
						"numberOfBytes": "4"
					}
				}
			},
			"userdoc": {
				"kind": "user",
				"methods": {
					"withdrawLink()": {
						"notice": "Allow withdraw of Link tokens from the contract"
					}
				},
				"notice": "THIS IS AN EXAMPLE CONTRACT THAT USES HARDCODED VALUES FOR CLARITY. THIS IS AN EXAMPLE CONTRACT THAT USES UN-AUDITED CODE. DO NOT USE THIS CODE IN PRODUCTION.",
				"version": 1
			}
		}
	}
}