{
	"StekcitBMFunctions.sol": {
		"StekcitBMFunctions": {
			"abi": [
				{
					"inputs": [
						{
							"internalType": "address",
							"name": "router",
							"type": "address"
						}
					],
					"stateMutability": "nonpayable",
					"type": "constructor"
				},
				{
					"inputs": [],
					"name": "EmptyArgs",
					"type": "error"
				},
				{
					"inputs": [],
					"name": "EmptySecrets",
					"type": "error"
				},
				{
					"inputs": [],
					"name": "EmptySource",
					"type": "error"
				},
				{
					"inputs": [],
					"name": "NoInlineSecrets",
					"type": "error"
				},
				{
					"inputs": [],
					"name": "OnlyRouterCanFulfill",
					"type": "error"
				},
				{
					"inputs": [
						{
							"internalType": "bytes32",
							"name": "requestId",
							"type": "bytes32"
						}
					],
					"name": "UnexpectedRequestID",
					"type": "error"
				},
				{
					"anonymous": false,
					"inputs": [
						{
							"indexed": true,
							"internalType": "bytes32",
							"name": "id",
							"type": "bytes32"
						}
					],
					"name": "RequestFulfilled",
					"type": "event"
				},
				{
					"anonymous": false,
					"inputs": [
						{
							"indexed": true,
							"internalType": "bytes32",
							"name": "id",
							"type": "bytes32"
						}
					],
					"name": "RequestSent",
					"type": "event"
				},
				{
					"anonymous": false,
					"inputs": [
						{
							"indexed": true,
							"internalType": "bytes32",
							"name": "requestId",
							"type": "bytes32"
						},
						{
							"indexed": false,
							"internalType": "bytes",
							"name": "response",
							"type": "bytes"
						},
						{
							"indexed": false,
							"internalType": "bytes",
							"name": "err",
							"type": "bytes"
						}
					],
					"name": "Response",
					"type": "event"
				},
				{
					"inputs": [
						{
							"internalType": "bytes32",
							"name": "requestId",
							"type": "bytes32"
						},
						{
							"internalType": "bytes",
							"name": "response",
							"type": "bytes"
						},
						{
							"internalType": "bytes",
							"name": "err",
							"type": "bytes"
						}
					],
					"name": "handleOracleFulfillment",
					"outputs": [],
					"stateMutability": "nonpayable",
					"type": "function"
				},
				{
					"inputs": [],
					"name": "s_lastError",
					"outputs": [
						{
							"internalType": "bytes",
							"name": "",
							"type": "bytes"
						}
					],
					"stateMutability": "view",
					"type": "function"
				},
				{
					"inputs": [],
					"name": "s_lastRequestId",
					"outputs": [
						{
							"internalType": "bytes32",
							"name": "",
							"type": "bytes32"
						}
					],
					"stateMutability": "view",
					"type": "function"
				},
				{
					"inputs": [],
					"name": "s_lastResponse",
					"outputs": [
						{
							"internalType": "bytes",
							"name": "",
							"type": "bytes"
						}
					],
					"stateMutability": "view",
					"type": "function"
				},
				{
					"inputs": [
						{
							"internalType": "string",
							"name": "source",
							"type": "string"
						},
						{
							"internalType": "bytes",
							"name": "encryptedSecretsUrls",
							"type": "bytes"
						},
						{
							"internalType": "uint8",
							"name": "donHostedSecretsSlotID",
							"type": "uint8"
						},
						{
							"internalType": "uint64",
							"name": "donHostedSecretsVersion",
							"type": "uint64"
						},
						{
							"internalType": "string[]",
							"name": "args",
							"type": "string[]"
						},
						{
							"internalType": "bytes[]",
							"name": "bytesArgs",
							"type": "bytes[]"
						},
						{
							"internalType": "uint64",
							"name": "subscriptionId",
							"type": "uint64"
						},
						{
							"internalType": "uint32",
							"name": "gasLimit",
							"type": "uint32"
						},
						{
							"internalType": "bytes32",
							"name": "donID",
							"type": "bytes32"
						}
					],
					"name": "sendRequest",
					"outputs": [
						{
							"internalType": "bytes32",
							"name": "requestId",
							"type": "bytes32"
						}
					],
					"stateMutability": "nonpayable",
					"type": "function"
				},
				{
					"inputs": [
						{
							"internalType": "bytes",
							"name": "request",
							"type": "bytes"
						},
						{
							"internalType": "uint64",
							"name": "subscriptionId",
							"type": "uint64"
						},
						{
							"internalType": "uint32",
							"name": "gasLimit",
							"type": "uint32"
						},
						{
							"internalType": "bytes32",
							"name": "donID",
							"type": "bytes32"
						}
					],
					"name": "sendRequestCBOR",
					"outputs": [
						{
							"internalType": "bytes32",
							"name": "requestId",
							"type": "bytes32"
						}
					],
					"stateMutability": "nonpayable",
					"type": "function"
				}
			],
			"devdoc": {
				"kind": "dev",
				"methods": {
					"handleOracleFulfillment(bytes32,bytes,bytes)": {
						"details": "Either response or error parameter will be set, but never both.",
						"params": {
							"err": "Aggregated error either from the request's source code or from the execution pipeline.",
							"requestId": "The requestId returned by FunctionsClient.sendRequest().",
							"response": "Aggregated response from the request's source code."
						}
					},
					"sendRequest(string,bytes,uint8,uint64,string[],bytes[],uint64,uint32,bytes32)": {
						"params": {
							"args": "List of arguments buildRequestCBOR from within the source code",
							"bytesArgs": "Array of bytes arguments, represented as hex strings",
							"donHostedSecretsSlotID": "Don hosted secrets slotId",
							"donHostedSecretsVersion": "Don hosted secrets version",
							"encryptedSecretsUrls": "Encrypted URLs where to fetch user secrets",
							"source": "JavaScript source code",
							"subscriptionId": "Billing ID"
						}
					},
					"sendRequestCBOR(bytes,uint64,uint32,bytes32)": {
						"params": {
							"donID": "ID of the job to be invoked",
							"gasLimit": "The maximum amount of gas the request can consume",
							"request": "CBOR-encoded request data",
							"subscriptionId": "Billing ID"
						},
						"returns": {
							"requestId": "The ID of the sent request"
						}
					}
				},
				"version": 1
			},
			"evm": {
				"assembly": "    /* \"StekcitBMFunctions.sol\":458:3828  contract StekcitBMFunctions is FunctionsClient {... */\n  mstore(0x40, 0xa0)\n    /* \"StekcitBMFunctions.sol\":795:863  constructor(... */\n  callvalue\n  dup1\n  iszero\n  tag_1\n  jumpi\n  0x00\n  dup1\n  revert\ntag_1:\n  pop\n  mload(0x40)\n  sub(codesize, bytecodeSize)\n  dup1\n  bytecodeSize\n  dup4\n  codecopy\n  dup2\n  dup2\n  add\n  0x40\n  mstore\n  dup2\n  add\n  swap1\n  tag_2\n  swap2\n  swap1\n  tag_3\n  jump\t// in\ntag_2:\n    /* \"StekcitBMFunctions.sol\":853:859  router */\n  dup1\n    /* \"@chainlink/contracts@1.1.0/src/v0.8/functions/v1_0_0/FunctionsClient.sol\":764:770  router */\n  dup1\n    /* \"@chainlink/contracts@1.1.0/src/v0.8/functions/v1_0_0/FunctionsClient.sol\":736:771  i_router = IFunctionsRouter(router) */\n  0xffffffffffffffffffffffffffffffffffffffff\n  and\n  0x80\n  dup2\n  0xffffffffffffffffffffffffffffffffffffffff\n  and\n  dup2\n  mstore\n  pop\n  pop\n    /* \"@chainlink/contracts@1.1.0/src/v0.8/functions/v1_0_0/FunctionsClient.sol\":702:776  constructor(address router) {... */\n  pop\n    /* \"StekcitBMFunctions.sol\":795:863  constructor(... */\n  pop\n    /* \"StekcitBMFunctions.sol\":458:3828  contract StekcitBMFunctions is FunctionsClient {... */\n  jump(tag_8)\n    /* \"#utility.yul\":88:205   */\ntag_10:\n    /* \"#utility.yul\":197:198   */\n  0x00\n    /* \"#utility.yul\":194:195   */\n  dup1\n    /* \"#utility.yul\":187:199   */\n  revert\n    /* \"#utility.yul\":334:460   */\ntag_12:\n    /* \"#utility.yul\":371:378   */\n  0x00\n    /* \"#utility.yul\":411:453   */\n  0xffffffffffffffffffffffffffffffffffffffff\n    /* \"#utility.yul\":404:409   */\n  dup3\n    /* \"#utility.yul\":400:454   */\n  and\n    /* \"#utility.yul\":389:454   */\n  swap1\n  pop\n    /* \"#utility.yul\":334:460   */\n  swap2\n  swap1\n  pop\n  jump\t// out\n    /* \"#utility.yul\":466:562   */\ntag_13:\n    /* \"#utility.yul\":503:510   */\n  0x00\n    /* \"#utility.yul\":532:556   */\n  tag_22\n    /* \"#utility.yul\":550:555   */\n  dup3\n    /* \"#utility.yul\":532:556   */\n  tag_12\n  jump\t// in\ntag_22:\n    /* \"#utility.yul\":521:556   */\n  swap1\n  pop\n    /* \"#utility.yul\":466:562   */\n  swap2\n  swap1\n  pop\n  jump\t// out\n    /* \"#utility.yul\":568:690   */\ntag_14:\n    /* \"#utility.yul\":641:665   */\n  tag_24\n    /* \"#utility.yul\":659:664   */\n  dup2\n    /* \"#utility.yul\":641:665   */\n  tag_13\n  jump\t// in\ntag_24:\n    /* \"#utility.yul\":634:639   */\n  dup2\n    /* \"#utility.yul\":631:666   */\n  eq\n    /* \"#utility.yul\":621:684   */\n  tag_25\n  jumpi\n    /* \"#utility.yul\":680:681   */\n  0x00\n    /* \"#utility.yul\":677:678   */\n  dup1\n    /* \"#utility.yul\":670:682   */\n  revert\n    /* \"#utility.yul\":621:684   */\ntag_25:\n    /* \"#utility.yul\":568:690   */\n  pop\n  jump\t// out\n    /* \"#utility.yul\":696:839   */\ntag_15:\n    /* \"#utility.yul\":753:758   */\n  0x00\n    /* \"#utility.yul\":784:790   */\n  dup2\n    /* \"#utility.yul\":778:791   */\n  mload\n    /* \"#utility.yul\":769:791   */\n  swap1\n  pop\n    /* \"#utility.yul\":800:833   */\n  tag_27\n    /* \"#utility.yul\":827:832   */\n  dup2\n    /* \"#utility.yul\":800:833   */\n  tag_14\n  jump\t// in\ntag_27:\n    /* \"#utility.yul\":696:839   */\n  swap3\n  swap2\n  pop\n  pop\n  jump\t// out\n    /* \"#utility.yul\":845:1196   */\ntag_3:\n    /* \"#utility.yul\":915:921   */\n  0x00\n    /* \"#utility.yul\":964:966   */\n  0x20\n    /* \"#utility.yul\":952:961   */\n  dup3\n    /* \"#utility.yul\":943:950   */\n  dup5\n    /* \"#utility.yul\":939:962   */\n  sub\n    /* \"#utility.yul\":935:967   */\n  slt\n    /* \"#utility.yul\":932:1051   */\n  iszero\n  tag_29\n  jumpi\n    /* \"#utility.yul\":970:1049   */\n  tag_30\n  tag_10\n  jump\t// in\ntag_30:\n    /* \"#utility.yul\":932:1051   */\ntag_29:\n    /* \"#utility.yul\":1090:1091   */\n  0x00\n    /* \"#utility.yul\":1115:1179   */\n  tag_31\n    /* \"#utility.yul\":1171:1178   */\n  dup5\n    /* \"#utility.yul\":1162:1168   */\n  dup3\n    /* \"#utility.yul\":1151:1160   */\n  dup6\n    /* \"#utility.yul\":1147:1169   */\n  add\n    /* \"#utility.yul\":1115:1179   */\n  tag_15\n  jump\t// in\ntag_31:\n    /* \"#utility.yul\":1105:1179   */\n  swap2\n  pop\n    /* \"#utility.yul\":1061:1189   */\n  pop\n    /* \"#utility.yul\":845:1196   */\n  swap3\n  swap2\n  pop\n  pop\n  jump\t// out\n    /* \"StekcitBMFunctions.sol\":458:3828  contract StekcitBMFunctions is FunctionsClient {... */\ntag_8:\n  mload(0x80)\n  codecopy(0x00, dataOffset(sub_0), dataSize(sub_0))\n  0x00\n  assignImmutable(\"0x8e8fab5f003314da8d1873ea7720e8d9f47650136d916064d1edb8a11d682624\")\n  return(0x00, dataSize(sub_0))\nstop\n\nsub_0: assembly {\n        /* \"StekcitBMFunctions.sol\":458:3828  contract StekcitBMFunctions is FunctionsClient {... */\n      mstore(0x40, 0x80)\n      callvalue\n      dup1\n      iszero\n      tag_1\n      jumpi\n      0x00\n      dup1\n      revert\n    tag_1:\n      pop\n      jumpi(tag_2, lt(calldatasize, 0x04))\n      shr(0xe0, calldataload(0x00))\n      dup1\n      0x0ca76175\n      eq\n      tag_3\n      jumpi\n      dup1\n      0x3944ea3a\n      eq\n      tag_4\n      jumpi\n      dup1\n      0x4b0795a8\n      eq\n      tag_5\n      jumpi\n      dup1\n      0x52a81eeb\n      eq\n      tag_6\n      jumpi\n      dup1\n      0x9681096f\n      eq\n      tag_7\n      jumpi\n      dup1\n      0xb1e21749\n      eq\n      tag_8\n      jumpi\n    tag_2:\n      0x00\n      dup1\n      revert\n        /* \"@chainlink/contracts@1.1.0/src/v0.8/functions/v1_0_0/FunctionsClient.sol\":2078:2364  function handleOracleFulfillment(bytes32 requestId, bytes memory response, bytes memory err) external override {... */\n    tag_3:\n      tag_9\n      0x04\n      dup1\n      calldatasize\n      sub\n      dup2\n      add\n      swap1\n      tag_10\n      swap2\n      swap1\n      tag_11\n      jump\t// in\n    tag_10:\n      tag_12\n      jump\t// in\n    tag_9:\n      stop\n        /* \"StekcitBMFunctions.sol\":605:632  bytes public s_lastResponse */\n    tag_4:\n      tag_13\n      tag_14\n      jump\t// in\n    tag_13:\n      mload(0x40)\n      tag_15\n      swap2\n      swap1\n      tag_16\n      jump\t// in\n    tag_15:\n      mload(0x40)\n      dup1\n      swap2\n      sub\n      swap1\n      return\n        /* \"StekcitBMFunctions.sol\":638:662  bytes public s_lastError */\n    tag_5:\n      tag_17\n      tag_18\n      jump\t// in\n    tag_17:\n      mload(0x40)\n      tag_19\n      swap2\n      swap1\n      tag_16\n      jump\t// in\n    tag_19:\n      mload(0x40)\n      dup1\n      swap2\n      sub\n      swap1\n      return\n        /* \"StekcitBMFunctions.sol\":1371:2425  function sendRequest(... */\n    tag_6:\n      tag_20\n      0x04\n      dup1\n      calldatasize\n      sub\n      dup2\n      add\n      swap1\n      tag_21\n      swap2\n      swap1\n      tag_22\n      jump\t// in\n    tag_21:\n      tag_23\n      jump\t// in\n    tag_20:\n      mload(0x40)\n      tag_24\n      swap2\n      swap1\n      tag_25\n      jump\t// in\n    tag_24:\n      mload(0x40)\n      dup1\n      swap2\n      sub\n      swap1\n      return\n        /* \"StekcitBMFunctions.sol\":2755:3111  function sendRequestCBOR(... */\n    tag_7:\n      tag_26\n      0x04\n      dup1\n      calldatasize\n      sub\n      dup2\n      add\n      swap1\n      tag_27\n      swap2\n      swap1\n      tag_28\n      jump\t// in\n    tag_27:\n      tag_29\n      jump\t// in\n    tag_26:\n      mload(0x40)\n      tag_30\n      swap2\n      swap1\n      tag_25\n      jump\t// in\n    tag_30:\n      mload(0x40)\n      dup1\n      swap2\n      sub\n      swap1\n      return\n        /* \"StekcitBMFunctions.sol\":569:599  bytes32 public s_lastRequestId */\n    tag_8:\n      tag_31\n      tag_32\n      jump\t// in\n    tag_31:\n      mload(0x40)\n      tag_33\n      swap2\n      swap1\n      tag_25\n      jump\t// in\n    tag_33:\n      mload(0x40)\n      dup1\n      swap2\n      sub\n      swap1\n      return\n        /* \"@chainlink/contracts@1.1.0/src/v0.8/functions/v1_0_0/FunctionsClient.sol\":2078:2364  function handleOracleFulfillment(bytes32 requestId, bytes memory response, bytes memory err) external override {... */\n    tag_12:\n        /* \"@chainlink/contracts@1.1.0/src/v0.8/functions/v1_0_0/FunctionsClient.sol\":2221:2229  i_router */\n      immutable(\"0x8e8fab5f003314da8d1873ea7720e8d9f47650136d916064d1edb8a11d682624\")\n        /* \"@chainlink/contracts@1.1.0/src/v0.8/functions/v1_0_0/FunctionsClient.sol\":2199:2230  msg.sender != address(i_router) */\n      0xffffffffffffffffffffffffffffffffffffffff\n      and\n        /* \"@chainlink/contracts@1.1.0/src/v0.8/functions/v1_0_0/FunctionsClient.sol\":2199:2209  msg.sender */\n      caller\n        /* \"@chainlink/contracts@1.1.0/src/v0.8/functions/v1_0_0/FunctionsClient.sol\":2199:2230  msg.sender != address(i_router) */\n      0xffffffffffffffffffffffffffffffffffffffff\n      and\n      eq\n        /* \"@chainlink/contracts@1.1.0/src/v0.8/functions/v1_0_0/FunctionsClient.sol\":2195:2276  if (msg.sender != address(i_router)) {... */\n      tag_35\n      jumpi\n        /* \"@chainlink/contracts@1.1.0/src/v0.8/functions/v1_0_0/FunctionsClient.sol\":2247:2269  OnlyRouterCanFulfill() */\n      mload(0x40)\n      0xc6829f8300000000000000000000000000000000000000000000000000000000\n      dup2\n      mstore\n      0x04\n      add\n      mload(0x40)\n      dup1\n      swap2\n      sub\n      swap1\n      revert\n        /* \"@chainlink/contracts@1.1.0/src/v0.8/functions/v1_0_0/FunctionsClient.sol\":2195:2276  if (msg.sender != address(i_router)) {... */\n    tag_35:\n        /* \"@chainlink/contracts@1.1.0/src/v0.8/functions/v1_0_0/FunctionsClient.sol\":2281:2321  fulfillRequest(requestId, response, err) */\n      tag_36\n        /* \"@chainlink/contracts@1.1.0/src/v0.8/functions/v1_0_0/FunctionsClient.sol\":2296:2305  requestId */\n      dup4\n        /* \"@chainlink/contracts@1.1.0/src/v0.8/functions/v1_0_0/FunctionsClient.sol\":2307:2315  response */\n      dup4\n        /* \"@chainlink/contracts@1.1.0/src/v0.8/functions/v1_0_0/FunctionsClient.sol\":2317:2320  err */\n      dup4\n        /* \"@chainlink/contracts@1.1.0/src/v0.8/functions/v1_0_0/FunctionsClient.sol\":2281:2295  fulfillRequest */\n      tag_37\n        /* \"@chainlink/contracts@1.1.0/src/v0.8/functions/v1_0_0/FunctionsClient.sol\":2281:2321  fulfillRequest(requestId, response, err) */\n      jump\t// in\n    tag_36:\n        /* \"@chainlink/contracts@1.1.0/src/v0.8/functions/v1_0_0/FunctionsClient.sol\":2349:2358  requestId */\n      dup3\n        /* \"@chainlink/contracts@1.1.0/src/v0.8/functions/v1_0_0/FunctionsClient.sol\":2332:2359  RequestFulfilled(requestId) */\n      0x85e1543bf2f84fe80c6badbce3648c8539ad1df4d2b3d822938ca0538be727e6\n      mload(0x40)\n      mload(0x40)\n      dup1\n      swap2\n      sub\n      swap1\n      log2\n        /* \"@chainlink/contracts@1.1.0/src/v0.8/functions/v1_0_0/FunctionsClient.sol\":2078:2364  function handleOracleFulfillment(bytes32 requestId, bytes memory response, bytes memory err) external override {... */\n      pop\n      pop\n      pop\n      jump\t// out\n        /* \"StekcitBMFunctions.sol\":605:632  bytes public s_lastResponse */\n    tag_14:\n      0x01\n      dup1\n      sload\n      tag_38\n      swap1\n      tag_39\n      jump\t// in\n    tag_38:\n      dup1\n      0x1f\n      add\n      0x20\n      dup1\n      swap2\n      div\n      mul\n      0x20\n      add\n      mload(0x40)\n      swap1\n      dup2\n      add\n      0x40\n      mstore\n      dup1\n      swap3\n      swap2\n      swap1\n      dup2\n      dup2\n      mstore\n      0x20\n      add\n      dup3\n      dup1\n      sload\n      tag_40\n      swap1\n      tag_39\n      jump\t// in\n    tag_40:\n      dup1\n      iszero\n      tag_41\n      jumpi\n      dup1\n      0x1f\n      lt\n      tag_42\n      jumpi\n      0x0100\n      dup1\n      dup4\n      sload\n      div\n      mul\n      dup4\n      mstore\n      swap2\n      0x20\n      add\n      swap2\n      jump(tag_41)\n    tag_42:\n      dup3\n      add\n      swap2\n      swap1\n      0x00\n      mstore\n      keccak256(0x00, 0x20)\n      swap1\n    tag_43:\n      dup2\n      sload\n      dup2\n      mstore\n      swap1\n      0x01\n      add\n      swap1\n      0x20\n      add\n      dup1\n      dup4\n      gt\n      tag_43\n      jumpi\n      dup3\n      swap1\n      sub\n      0x1f\n      and\n      dup3\n      add\n      swap2\n    tag_41:\n      pop\n      pop\n      pop\n      pop\n      pop\n      dup2\n      jump\t// out\n        /* \"StekcitBMFunctions.sol\":638:662  bytes public s_lastError */\n    tag_18:\n      0x02\n      dup1\n      sload\n      tag_44\n      swap1\n      tag_39\n      jump\t// in\n    tag_44:\n      dup1\n      0x1f\n      add\n      0x20\n      dup1\n      swap2\n      div\n      mul\n      0x20\n      add\n      mload(0x40)\n      swap1\n      dup2\n      add\n      0x40\n      mstore\n      dup1\n      swap3\n      swap2\n      swap1\n      dup2\n      dup2\n      mstore\n      0x20\n      add\n      dup3\n      dup1\n      sload\n      tag_45\n      swap1\n      tag_39\n      jump\t// in\n    tag_45:\n      dup1\n      iszero\n      tag_46\n      jumpi\n      dup1\n      0x1f\n      lt\n      tag_47\n      jumpi\n      0x0100\n      dup1\n      dup4\n      sload\n      div\n      mul\n      dup4\n      mstore\n      swap2\n      0x20\n      add\n      swap2\n      jump(tag_46)\n    tag_47:\n      dup3\n      add\n      swap2\n      swap1\n      0x00\n      mstore\n      keccak256(0x00, 0x20)\n      swap1\n    tag_48:\n      dup2\n      sload\n      dup2\n      mstore\n      swap1\n      0x01\n      add\n      swap1\n      0x20\n      add\n      dup1\n      dup4\n      gt\n      tag_48\n      jumpi\n      dup3\n      swap1\n      sub\n      0x1f\n      and\n      dup3\n      add\n      swap2\n    tag_46:\n      pop\n      pop\n      pop\n      pop\n      pop\n      dup2\n      jump\t// out\n        /* \"StekcitBMFunctions.sol\":1371:2425  function sendRequest(... */\n    tag_23:\n        /* \"StekcitBMFunctions.sol\":1710:1727  bytes32 requestId */\n      0x00\n        /* \"StekcitBMFunctions.sol\":1739:1774  FunctionsRequest.Request memory req */\n      tag_50\n      tag_51\n      jump\t// in\n    tag_50:\n        /* \"StekcitBMFunctions.sol\":1784:1832  req.initializeRequestForInlineJavaScript(source) */\n      tag_52\n        /* \"StekcitBMFunctions.sol\":1825:1831  source */\n      dup12\n        /* \"StekcitBMFunctions.sol\":1784:1787  req */\n      dup3\n        /* \"StekcitBMFunctions.sol\":1784:1824  req.initializeRequestForInlineJavaScript */\n      tag_53\n      swap1\n        /* \"StekcitBMFunctions.sol\":1784:1832  req.initializeRequestForInlineJavaScript(source) */\n      swap2\n      swap1\n      0xffffffff\n      and\n      jump\t// in\n    tag_52:\n        /* \"StekcitBMFunctions.sol\":1876:1877  0 */\n      0x00\n        /* \"StekcitBMFunctions.sol\":1846:1866  encryptedSecretsUrls */\n      dup11\n        /* \"StekcitBMFunctions.sol\":1846:1873  encryptedSecretsUrls.length */\n      mload\n        /* \"StekcitBMFunctions.sol\":1846:1877  encryptedSecretsUrls.length > 0 */\n      gt\n        /* \"StekcitBMFunctions.sol\":1842:2127  if (encryptedSecretsUrls.length > 0)... */\n      iszero\n      tag_54\n      jumpi\n        /* \"StekcitBMFunctions.sol\":1891:1936  req.addSecretsReference(encryptedSecretsUrls) */\n      tag_55\n        /* \"StekcitBMFunctions.sol\":1915:1935  encryptedSecretsUrls */\n      dup11\n        /* \"StekcitBMFunctions.sol\":1891:1894  req */\n      dup3\n        /* \"StekcitBMFunctions.sol\":1891:1914  req.addSecretsReference */\n      tag_56\n      swap1\n        /* \"StekcitBMFunctions.sol\":1891:1936  req.addSecretsReference(encryptedSecretsUrls) */\n      swap2\n      swap1\n      0xffffffff\n      and\n      jump\t// in\n    tag_55:\n        /* \"StekcitBMFunctions.sol\":1842:2127  if (encryptedSecretsUrls.length > 0)... */\n      jump(tag_57)\n    tag_54:\n        /* \"StekcitBMFunctions.sol\":1981:1982  0 */\n      0x00\n        /* \"StekcitBMFunctions.sol\":1955:1978  donHostedSecretsVersion */\n      dup9\n        /* \"StekcitBMFunctions.sol\":1955:1982  donHostedSecretsVersion > 0 */\n      0xffffffffffffffff\n      and\n      gt\n        /* \"StekcitBMFunctions.sol\":1951:2127  if (donHostedSecretsVersion > 0) {... */\n      iszero\n      tag_58\n      jumpi\n        /* \"StekcitBMFunctions.sol\":1998:2116  req.addDONHostedSecrets(... */\n      tag_59\n        /* \"StekcitBMFunctions.sol\":2039:2061  donHostedSecretsSlotID */\n      dup10\n        /* \"StekcitBMFunctions.sol\":2079:2102  donHostedSecretsVersion */\n      dup10\n        /* \"StekcitBMFunctions.sol\":1998:2001  req */\n      dup4\n        /* \"StekcitBMFunctions.sol\":1998:2021  req.addDONHostedSecrets */\n      tag_60\n      swap1\n        /* \"StekcitBMFunctions.sol\":1998:2116  req.addDONHostedSecrets(... */\n      swap3\n      swap2\n      swap1\n      0xffffffff\n      and\n      jump\t// in\n    tag_59:\n        /* \"StekcitBMFunctions.sol\":1951:2127  if (donHostedSecretsVersion > 0) {... */\n    tag_58:\n        /* \"StekcitBMFunctions.sol\":1842:2127  if (encryptedSecretsUrls.length > 0)... */\n    tag_57:\n        /* \"StekcitBMFunctions.sol\":2154:2155  0 */\n      0x00\n        /* \"StekcitBMFunctions.sol\":2140:2144  args */\n      dup8\n        /* \"StekcitBMFunctions.sol\":2140:2151  args.length */\n      mload\n        /* \"StekcitBMFunctions.sol\":2140:2155  args.length > 0 */\n      gt\n        /* \"StekcitBMFunctions.sol\":2136:2174  if (args.length > 0) req.setArgs(args) */\n      iszero\n      tag_61\n      jumpi\n        /* \"StekcitBMFunctions.sol\":2157:2174  req.setArgs(args) */\n      tag_62\n        /* \"StekcitBMFunctions.sol\":2169:2173  args */\n      dup8\n        /* \"StekcitBMFunctions.sol\":2157:2160  req */\n      dup3\n        /* \"StekcitBMFunctions.sol\":2157:2168  req.setArgs */\n      tag_63\n      swap1\n        /* \"StekcitBMFunctions.sol\":2157:2174  req.setArgs(args) */\n      swap2\n      swap1\n      0xffffffff\n      and\n      jump\t// in\n    tag_62:\n        /* \"StekcitBMFunctions.sol\":2136:2174  if (args.length > 0) req.setArgs(args) */\n    tag_61:\n        /* \"StekcitBMFunctions.sol\":2207:2208  0 */\n      0x00\n        /* \"StekcitBMFunctions.sol\":2188:2197  bytesArgs */\n      dup7\n        /* \"StekcitBMFunctions.sol\":2188:2204  bytesArgs.length */\n      mload\n        /* \"StekcitBMFunctions.sol\":2188:2208  bytesArgs.length > 0 */\n      gt\n        /* \"StekcitBMFunctions.sol\":2184:2237  if (bytesArgs.length > 0) req.setBytesArgs(bytesArgs) */\n      iszero\n      tag_64\n      jumpi\n        /* \"StekcitBMFunctions.sol\":2210:2237  req.setBytesArgs(bytesArgs) */\n      tag_65\n        /* \"StekcitBMFunctions.sol\":2227:2236  bytesArgs */\n      dup7\n        /* \"StekcitBMFunctions.sol\":2210:2213  req */\n      dup3\n        /* \"StekcitBMFunctions.sol\":2210:2226  req.setBytesArgs */\n      tag_66\n      swap1\n        /* \"StekcitBMFunctions.sol\":2210:2237  req.setBytesArgs(bytesArgs) */\n      swap2\n      swap1\n      0xffffffff\n      and\n      jump\t// in\n    tag_65:\n        /* \"StekcitBMFunctions.sol\":2184:2237  if (bytesArgs.length > 0) req.setBytesArgs(bytesArgs) */\n    tag_64:\n        /* \"StekcitBMFunctions.sol\":2265:2386  _sendRequest(... */\n      tag_67\n        /* \"StekcitBMFunctions.sol\":2291:2307  req.encodeCBOR() */\n      tag_68\n        /* \"StekcitBMFunctions.sol\":2291:2294  req */\n      dup3\n        /* \"StekcitBMFunctions.sol\":2291:2305  req.encodeCBOR */\n      tag_69\n        /* \"StekcitBMFunctions.sol\":2291:2307  req.encodeCBOR() */\n      jump\t// in\n    tag_68:\n        /* \"StekcitBMFunctions.sol\":2321:2335  subscriptionId */\n      dup7\n        /* \"StekcitBMFunctions.sol\":2349:2357  gasLimit */\n      dup7\n        /* \"StekcitBMFunctions.sol\":2371:2376  donID */\n      dup7\n        /* \"StekcitBMFunctions.sol\":2265:2277  _sendRequest */\n      tag_70\n        /* \"StekcitBMFunctions.sol\":2265:2386  _sendRequest(... */\n      jump\t// in\n    tag_67:\n        /* \"StekcitBMFunctions.sol\":2247:2262  s_lastRequestId */\n      0x00\n        /* \"StekcitBMFunctions.sol\":2247:2386  s_lastRequestId = _sendRequest(... */\n      dup2\n      swap1\n      sstore\n      pop\n        /* \"StekcitBMFunctions.sol\":2403:2418  s_lastRequestId */\n      sload(0x00)\n        /* \"StekcitBMFunctions.sol\":2396:2418  return s_lastRequestId */\n      swap2\n      pop\n      pop\n        /* \"StekcitBMFunctions.sol\":1371:2425  function sendRequest(... */\n      swap10\n      swap9\n      pop\n      pop\n      pop\n      pop\n      pop\n      pop\n      pop\n      pop\n      pop\n      jump\t// out\n        /* \"StekcitBMFunctions.sol\":2755:3111  function sendRequestCBOR(... */\n    tag_29:\n        /* \"StekcitBMFunctions.sol\":2913:2930  bytes32 requestId */\n      0x00\n        /* \"StekcitBMFunctions.sol\":2960:3072  _sendRequest(... */\n      tag_72\n        /* \"StekcitBMFunctions.sol\":2986:2993  request */\n      dup6\n        /* \"StekcitBMFunctions.sol\":3007:3021  subscriptionId */\n      dup6\n        /* \"StekcitBMFunctions.sol\":3035:3043  gasLimit */\n      dup6\n        /* \"StekcitBMFunctions.sol\":3057:3062  donID */\n      dup6\n        /* \"StekcitBMFunctions.sol\":2960:2972  _sendRequest */\n      tag_70\n        /* \"StekcitBMFunctions.sol\":2960:3072  _sendRequest(... */\n      jump\t// in\n    tag_72:\n        /* \"StekcitBMFunctions.sol\":2942:2957  s_lastRequestId */\n      0x00\n        /* \"StekcitBMFunctions.sol\":2942:3072  s_lastRequestId = _sendRequest(... */\n      dup2\n      swap1\n      sstore\n      pop\n        /* \"StekcitBMFunctions.sol\":3089:3104  s_lastRequestId */\n      sload(0x00)\n        /* \"StekcitBMFunctions.sol\":3082:3104  return s_lastRequestId */\n      swap1\n      pop\n        /* \"StekcitBMFunctions.sol\":2755:3111  function sendRequestCBOR(... */\n      swap5\n      swap4\n      pop\n      pop\n      pop\n      pop\n      jump\t// out\n        /* \"StekcitBMFunctions.sol\":569:599  bytes32 public s_lastRequestId */\n    tag_32:\n      sload(0x00)\n      dup2\n      jump\t// out\n        /* \"StekcitBMFunctions.sol\":3457:3826  function fulfillRequest(... */\n    tag_37:\n        /* \"StekcitBMFunctions.sol\":3622:3631  requestId */\n      dup3\n        /* \"StekcitBMFunctions.sol\":3603:3618  s_lastRequestId */\n      sload(0x00)\n        /* \"StekcitBMFunctions.sol\":3603:3631  s_lastRequestId != requestId */\n      eq\n        /* \"StekcitBMFunctions.sol\":3599:3695  if (s_lastRequestId != requestId) {... */\n      tag_74\n      jumpi\n        /* \"StekcitBMFunctions.sol\":3674:3683  requestId */\n      dup3\n        /* \"StekcitBMFunctions.sol\":3654:3684  UnexpectedRequestID(requestId) */\n      mload(0x40)\n      0xd068bf5b00000000000000000000000000000000000000000000000000000000\n      dup2\n      mstore\n      0x04\n      add\n      tag_75\n      swap2\n      swap1\n      tag_25\n      jump\t// in\n    tag_75:\n      mload(0x40)\n      dup1\n      swap2\n      sub\n      swap1\n      revert\n        /* \"StekcitBMFunctions.sol\":3599:3695  if (s_lastRequestId != requestId) {... */\n    tag_74:\n        /* \"StekcitBMFunctions.sol\":3721:3729  response */\n      dup2\n        /* \"StekcitBMFunctions.sol\":3704:3718  s_lastResponse */\n      0x01\n        /* \"StekcitBMFunctions.sol\":3704:3729  s_lastResponse = response */\n      swap1\n      dup2\n      tag_76\n      swap2\n      swap1\n      tag_77\n      jump\t// in\n    tag_76:\n      pop\n        /* \"StekcitBMFunctions.sol\":3753:3756  err */\n      dup1\n        /* \"StekcitBMFunctions.sol\":3739:3750  s_lastError */\n      0x02\n        /* \"StekcitBMFunctions.sol\":3739:3756  s_lastError = err */\n      swap1\n      dup2\n      tag_78\n      swap2\n      swap1\n      tag_77\n      jump\t// in\n    tag_78:\n      pop\n        /* \"StekcitBMFunctions.sol\":3780:3789  requestId */\n      dup3\n        /* \"StekcitBMFunctions.sol\":3771:3819  Response(requestId, s_lastResponse, s_lastError) */\n      0x7873807bf6ddc50401cd3d29bbe0decee23fd4d68d273f4b5eb83cded4d2f172\n        /* \"StekcitBMFunctions.sol\":3791:3805  s_lastResponse */\n      0x01\n        /* \"StekcitBMFunctions.sol\":3807:3818  s_lastError */\n      0x02\n        /* \"StekcitBMFunctions.sol\":3771:3819  Response(requestId, s_lastResponse, s_lastError) */\n      mload(0x40)\n      tag_79\n      swap3\n      swap2\n      swap1\n      tag_80\n      jump\t// in\n    tag_79:\n      mload(0x40)\n      dup1\n      swap2\n      sub\n      swap1\n      log2\n        /* \"StekcitBMFunctions.sol\":3457:3826  function fulfillRequest(... */\n      pop\n      pop\n      pop\n      jump\t// out\n        /* \"@chainlink/contracts@1.1.0/src/v0.8/functions/v1_0_0/libraries/FunctionsRequest.sol\":4323:4530  function initializeRequestForInlineJavaScript(Request memory self, string memory javaScriptSource) internal pure {... */\n    tag_53:\n        /* \"@chainlink/contracts@1.1.0/src/v0.8/functions/v1_0_0/libraries/FunctionsRequest.sol\":4442:4525  initializeRequest(self, Location.Inline, CodeLanguage.JavaScript, javaScriptSource) */\n      tag_82\n        /* \"@chainlink/contracts@1.1.0/src/v0.8/functions/v1_0_0/libraries/FunctionsRequest.sol\":4460:4464  self */\n      dup3\n        /* \"@chainlink/contracts@1.1.0/src/v0.8/functions/v1_0_0/libraries/FunctionsRequest.sol\":4466:4481  Location.Inline */\n      0x00\n        /* \"@chainlink/contracts@1.1.0/src/v0.8/functions/v1_0_0/libraries/FunctionsRequest.sol\":4483:4506  CodeLanguage.JavaScript */\n      dup1\n        /* \"@chainlink/contracts@1.1.0/src/v0.8/functions/v1_0_0/libraries/FunctionsRequest.sol\":4508:4524  javaScriptSource */\n      dup5\n        /* \"@chainlink/contracts@1.1.0/src/v0.8/functions/v1_0_0/libraries/FunctionsRequest.sol\":4442:4459  initializeRequest */\n      tag_83\n        /* \"@chainlink/contracts@1.1.0/src/v0.8/functions/v1_0_0/libraries/FunctionsRequest.sol\":4442:4525  initializeRequest(self, Location.Inline, CodeLanguage.JavaScript, javaScriptSource) */\n      jump\t// in\n    tag_82:\n        /* \"@chainlink/contracts@1.1.0/src/v0.8/functions/v1_0_0/libraries/FunctionsRequest.sol\":4323:4530  function initializeRequestForInlineJavaScript(Request memory self, string memory javaScriptSource) internal pure {... */\n      pop\n      pop\n      jump\t// out\n        /* \"@chainlink/contracts@1.1.0/src/v0.8/functions/v1_0_0/libraries/FunctionsRequest.sol\":4748:5036  function addSecretsReference(Request memory self, bytes memory encryptedSecretsReference) internal pure {... */\n    tag_56:\n        /* \"@chainlink/contracts@1.1.0/src/v0.8/functions/v1_0_0/libraries/FunctionsRequest.sol\":4898:4899  0 */\n      0x00\n        /* \"@chainlink/contracts@1.1.0/src/v0.8/functions/v1_0_0/libraries/FunctionsRequest.sol\":4862:4887  encryptedSecretsReference */\n      dup2\n        /* \"@chainlink/contracts@1.1.0/src/v0.8/functions/v1_0_0/libraries/FunctionsRequest.sol\":4862:4894  encryptedSecretsReference.length */\n      mload\n        /* \"@chainlink/contracts@1.1.0/src/v0.8/functions/v1_0_0/libraries/FunctionsRequest.sol\":4862:4899  encryptedSecretsReference.length == 0 */\n      sub\n        /* \"@chainlink/contracts@1.1.0/src/v0.8/functions/v1_0_0/libraries/FunctionsRequest.sol\":4858:4922  if (encryptedSecretsReference.length == 0) revert EmptySecrets() */\n      tag_85\n      jumpi\n        /* \"@chainlink/contracts@1.1.0/src/v0.8/functions/v1_0_0/libraries/FunctionsRequest.sol\":4908:4922  EmptySecrets() */\n      mload(0x40)\n      0xe889636f00000000000000000000000000000000000000000000000000000000\n      dup2\n      mstore\n      0x04\n      add\n      mload(0x40)\n      dup1\n      swap2\n      sub\n      swap1\n      revert\n        /* \"@chainlink/contracts@1.1.0/src/v0.8/functions/v1_0_0/libraries/FunctionsRequest.sol\":4858:4922  if (encryptedSecretsReference.length == 0) revert EmptySecrets() */\n    tag_85:\n        /* \"@chainlink/contracts@1.1.0/src/v0.8/functions/v1_0_0/libraries/FunctionsRequest.sol\":4952:4967  Location.Remote */\n      0x01\n        /* \"@chainlink/contracts@1.1.0/src/v0.8/functions/v1_0_0/libraries/FunctionsRequest.sol\":4929:4933  self */\n      dup3\n        /* \"@chainlink/contracts@1.1.0/src/v0.8/functions/v1_0_0/libraries/FunctionsRequest.sol\":4929:4949  self.secretsLocation */\n      0x20\n      add\n        /* \"@chainlink/contracts@1.1.0/src/v0.8/functions/v1_0_0/libraries/FunctionsRequest.sol\":4929:4967  self.secretsLocation = Location.Remote */\n      swap1\n      0x02\n      dup2\n      gt\n      iszero\n      tag_86\n      jumpi\n      tag_87\n      tag_88\n      jump\t// in\n    tag_87:\n    tag_86:\n      swap1\n      dup2\n      0x02\n      dup2\n      gt\n      iszero\n      tag_89\n      jumpi\n      tag_90\n      tag_88\n      jump\t// in\n    tag_90:\n    tag_89:\n      dup2\n      mstore\n      pop\n      pop\n        /* \"@chainlink/contracts@1.1.0/src/v0.8/functions/v1_0_0/libraries/FunctionsRequest.sol\":5006:5031  encryptedSecretsReference */\n      dup1\n        /* \"@chainlink/contracts@1.1.0/src/v0.8/functions/v1_0_0/libraries/FunctionsRequest.sol\":4973:4977  self */\n      dup3\n        /* \"@chainlink/contracts@1.1.0/src/v0.8/functions/v1_0_0/libraries/FunctionsRequest.sol\":4973:5003  self.encryptedSecretsReference */\n      0x80\n      add\n        /* \"@chainlink/contracts@1.1.0/src/v0.8/functions/v1_0_0/libraries/FunctionsRequest.sol\":4973:5031  self.encryptedSecretsReference = encryptedSecretsReference */\n      dup2\n      swap1\n      mstore\n      pop\n        /* \"@chainlink/contracts@1.1.0/src/v0.8/functions/v1_0_0/libraries/FunctionsRequest.sol\":4748:5036  function addSecretsReference(Request memory self, bytes memory encryptedSecretsReference) internal pure {... */\n      pop\n      pop\n      jump\t// out\n        /* \"@chainlink/contracts@1.1.0/src/v0.8/functions/v1_0_0/libraries/FunctionsRequest.sol\":5263:5668  function addDONHostedSecrets(Request memory self, uint8 slotID, uint64 version) internal pure {... */\n    tag_60:\n        /* \"@chainlink/contracts@1.1.0/src/v0.8/functions/v1_0_0/libraries/FunctionsRequest.sol\":5363:5392  CBOR.CBORBuffer memory buffer */\n      0x00\n        /* \"@chainlink/contracts@1.1.0/src/v0.8/functions/v1_0_0/libraries/FunctionsRequest.sol\":5395:5427  CBOR.create(DEFAULT_BUFFER_SIZE) */\n      tag_92\n        /* \"@chainlink/contracts@1.1.0/src/v0.8/functions/v1_0_0/libraries/FunctionsRequest.sol\":375:378  256 */\n      0x0100\n        /* \"@chainlink/contracts@1.1.0/src/v0.8/functions/v1_0_0/libraries/FunctionsRequest.sol\":5395:5406  CBOR.create */\n      tag_93\n        /* \"@chainlink/contracts@1.1.0/src/v0.8/functions/v1_0_0/libraries/FunctionsRequest.sol\":5395:5427  CBOR.create(DEFAULT_BUFFER_SIZE) */\n      jump\t// in\n    tag_92:\n        /* \"@chainlink/contracts@1.1.0/src/v0.8/functions/v1_0_0/libraries/FunctionsRequest.sol\":5363:5427  CBOR.CBORBuffer memory buffer = CBOR.create(DEFAULT_BUFFER_SIZE) */\n      swap1\n      pop\n        /* \"@chainlink/contracts@1.1.0/src/v0.8/functions/v1_0_0/libraries/FunctionsRequest.sol\":5434:5462  buffer.writeString(\"slotID\") */\n      tag_94\n      mload(0x40)\n      dup1\n      0x40\n      add\n      0x40\n      mstore\n      dup1\n      0x06\n      dup2\n      mstore\n      0x20\n      add\n      0x736c6f7449440000000000000000000000000000000000000000000000000000\n      dup2\n      mstore\n      pop\n        /* \"@chainlink/contracts@1.1.0/src/v0.8/functions/v1_0_0/libraries/FunctionsRequest.sol\":5434:5440  buffer */\n      dup3\n        /* \"@chainlink/contracts@1.1.0/src/v0.8/functions/v1_0_0/libraries/FunctionsRequest.sol\":5434:5452  buffer.writeString */\n      tag_95\n      swap1\n        /* \"@chainlink/contracts@1.1.0/src/v0.8/functions/v1_0_0/libraries/FunctionsRequest.sol\":5434:5462  buffer.writeString(\"slotID\") */\n      swap2\n      swap1\n      0xffffffff\n      and\n      jump\t// in\n    tag_94:\n        /* \"@chainlink/contracts@1.1.0/src/v0.8/functions/v1_0_0/libraries/FunctionsRequest.sol\":5468:5494  buffer.writeUInt64(slotID) */\n      tag_96\n        /* \"@chainlink/contracts@1.1.0/src/v0.8/functions/v1_0_0/libraries/FunctionsRequest.sol\":5487:5493  slotID */\n      dup4\n        /* \"@chainlink/contracts@1.1.0/src/v0.8/functions/v1_0_0/libraries/FunctionsRequest.sol\":5468:5494  buffer.writeUInt64(slotID) */\n      0xff\n      and\n        /* \"@chainlink/contracts@1.1.0/src/v0.8/functions/v1_0_0/libraries/FunctionsRequest.sol\":5468:5474  buffer */\n      dup3\n        /* \"@chainlink/contracts@1.1.0/src/v0.8/functions/v1_0_0/libraries/FunctionsRequest.sol\":5468:5486  buffer.writeUInt64 */\n      tag_97\n      swap1\n        /* \"@chainlink/contracts@1.1.0/src/v0.8/functions/v1_0_0/libraries/FunctionsRequest.sol\":5468:5494  buffer.writeUInt64(slotID) */\n      swap2\n      swap1\n      0xffffffff\n      and\n      jump\t// in\n    tag_96:\n        /* \"@chainlink/contracts@1.1.0/src/v0.8/functions/v1_0_0/libraries/FunctionsRequest.sol\":5500:5529  buffer.writeString(\"version\") */\n      tag_98\n      mload(0x40)\n      dup1\n      0x40\n      add\n      0x40\n      mstore\n      dup1\n      0x07\n      dup2\n      mstore\n      0x20\n      add\n      0x76657273696f6e00000000000000000000000000000000000000000000000000\n      dup2\n      mstore\n      pop\n        /* \"@chainlink/contracts@1.1.0/src/v0.8/functions/v1_0_0/libraries/FunctionsRequest.sol\":5500:5506  buffer */\n      dup3\n        /* \"@chainlink/contracts@1.1.0/src/v0.8/functions/v1_0_0/libraries/FunctionsRequest.sol\":5500:5518  buffer.writeString */\n      tag_95\n      swap1\n        /* \"@chainlink/contracts@1.1.0/src/v0.8/functions/v1_0_0/libraries/FunctionsRequest.sol\":5500:5529  buffer.writeString(\"version\") */\n      swap2\n      swap1\n      0xffffffff\n      and\n      jump\t// in\n    tag_98:\n        /* \"@chainlink/contracts@1.1.0/src/v0.8/functions/v1_0_0/libraries/FunctionsRequest.sol\":5535:5562  buffer.writeUInt64(version) */\n      tag_99\n        /* \"@chainlink/contracts@1.1.0/src/v0.8/functions/v1_0_0/libraries/FunctionsRequest.sol\":5554:5561  version */\n      dup3\n        /* \"@chainlink/contracts@1.1.0/src/v0.8/functions/v1_0_0/libraries/FunctionsRequest.sol\":5535:5541  buffer */\n      dup3\n        /* \"@chainlink/contracts@1.1.0/src/v0.8/functions/v1_0_0/libraries/FunctionsRequest.sol\":5535:5553  buffer.writeUInt64 */\n      tag_97\n      swap1\n        /* \"@chainlink/contracts@1.1.0/src/v0.8/functions/v1_0_0/libraries/FunctionsRequest.sol\":5535:5562  buffer.writeUInt64(version) */\n      swap2\n      swap1\n      0xffffffff\n      and\n      jump\t// in\n    tag_99:\n        /* \"@chainlink/contracts@1.1.0/src/v0.8/functions/v1_0_0/libraries/FunctionsRequest.sol\":5592:5610  Location.DONHosted */\n      0x02\n        /* \"@chainlink/contracts@1.1.0/src/v0.8/functions/v1_0_0/libraries/FunctionsRequest.sol\":5569:5573  self */\n      dup5\n        /* \"@chainlink/contracts@1.1.0/src/v0.8/functions/v1_0_0/libraries/FunctionsRequest.sol\":5569:5589  self.secretsLocation */\n      0x20\n      add\n        /* \"@chainlink/contracts@1.1.0/src/v0.8/functions/v1_0_0/libraries/FunctionsRequest.sol\":5569:5610  self.secretsLocation = Location.DONHosted */\n      swap1\n      0x02\n      dup2\n      gt\n      iszero\n      tag_100\n      jumpi\n      tag_101\n      tag_88\n      jump\t// in\n    tag_101:\n    tag_100:\n      swap1\n      dup2\n      0x02\n      dup2\n      gt\n      iszero\n      tag_102\n      jumpi\n      tag_103\n      tag_88\n      jump\t// in\n    tag_103:\n    tag_102:\n      dup2\n      mstore\n      pop\n      pop\n        /* \"@chainlink/contracts@1.1.0/src/v0.8/functions/v1_0_0/libraries/FunctionsRequest.sol\":5649:5655  buffer */\n      dup1\n        /* \"@chainlink/contracts@1.1.0/src/v0.8/functions/v1_0_0/libraries/FunctionsRequest.sol\":5649:5659  buffer.buf */\n      0x00\n      add\n      mload\n        /* \"@chainlink/contracts@1.1.0/src/v0.8/functions/v1_0_0/libraries/FunctionsRequest.sol\":5649:5663  buffer.buf.buf */\n      0x00\n      add\n      mload\n        /* \"@chainlink/contracts@1.1.0/src/v0.8/functions/v1_0_0/libraries/FunctionsRequest.sol\":5616:5620  self */\n      dup5\n        /* \"@chainlink/contracts@1.1.0/src/v0.8/functions/v1_0_0/libraries/FunctionsRequest.sol\":5616:5646  self.encryptedSecretsReference */\n      0x80\n      add\n        /* \"@chainlink/contracts@1.1.0/src/v0.8/functions/v1_0_0/libraries/FunctionsRequest.sol\":5616:5663  self.encryptedSecretsReference = buffer.buf.buf */\n      dup2\n      swap1\n      mstore\n      pop\n        /* \"@chainlink/contracts@1.1.0/src/v0.8/functions/v1_0_0/libraries/FunctionsRequest.sol\":5357:5668  {... */\n      pop\n        /* \"@chainlink/contracts@1.1.0/src/v0.8/functions/v1_0_0/libraries/FunctionsRequest.sol\":5263:5668  function addDONHostedSecrets(Request memory self, uint8 slotID, uint64 version) internal pure {... */\n      pop\n      pop\n      pop\n      jump\t// out\n        /* \"@chainlink/contracts@1.1.0/src/v0.8/functions/v1_0_0/libraries/FunctionsRequest.sol\":5827:5975  function setArgs(Request memory self, string[] memory args) internal pure {... */\n    tag_63:\n        /* \"@chainlink/contracts@1.1.0/src/v0.8/functions/v1_0_0/libraries/FunctionsRequest.sol\":5926:5927  0 */\n      0x00\n        /* \"@chainlink/contracts@1.1.0/src/v0.8/functions/v1_0_0/libraries/FunctionsRequest.sol\":5911:5915  args */\n      dup2\n        /* \"@chainlink/contracts@1.1.0/src/v0.8/functions/v1_0_0/libraries/FunctionsRequest.sol\":5911:5922  args.length */\n      mload\n        /* \"@chainlink/contracts@1.1.0/src/v0.8/functions/v1_0_0/libraries/FunctionsRequest.sol\":5911:5927  args.length == 0 */\n      sub\n        /* \"@chainlink/contracts@1.1.0/src/v0.8/functions/v1_0_0/libraries/FunctionsRequest.sol\":5907:5947  if (args.length == 0) revert EmptyArgs() */\n      tag_105\n      jumpi\n        /* \"@chainlink/contracts@1.1.0/src/v0.8/functions/v1_0_0/libraries/FunctionsRequest.sol\":5936:5947  EmptyArgs() */\n      mload(0x40)\n      0xfe936cb700000000000000000000000000000000000000000000000000000000\n      dup2\n      mstore\n      0x04\n      add\n      mload(0x40)\n      dup1\n      swap2\n      sub\n      swap1\n      revert\n        /* \"@chainlink/contracts@1.1.0/src/v0.8/functions/v1_0_0/libraries/FunctionsRequest.sol\":5907:5947  if (args.length == 0) revert EmptyArgs() */\n    tag_105:\n        /* \"@chainlink/contracts@1.1.0/src/v0.8/functions/v1_0_0/libraries/FunctionsRequest.sol\":5966:5970  args */\n      dup1\n        /* \"@chainlink/contracts@1.1.0/src/v0.8/functions/v1_0_0/libraries/FunctionsRequest.sol\":5954:5958  self */\n      dup3\n        /* \"@chainlink/contracts@1.1.0/src/v0.8/functions/v1_0_0/libraries/FunctionsRequest.sol\":5954:5963  self.args */\n      0xa0\n      add\n        /* \"@chainlink/contracts@1.1.0/src/v0.8/functions/v1_0_0/libraries/FunctionsRequest.sol\":5954:5970  self.args = args */\n      dup2\n      swap1\n      mstore\n      pop\n        /* \"@chainlink/contracts@1.1.0/src/v0.8/functions/v1_0_0/libraries/FunctionsRequest.sol\":5827:5975  function setArgs(Request memory self, string[] memory args) internal pure {... */\n      pop\n      pop\n      jump\t// out\n        /* \"@chainlink/contracts@1.1.0/src/v0.8/functions/v1_0_0/libraries/FunctionsRequest.sol\":6139:6296  function setBytesArgs(Request memory self, bytes[] memory args) internal pure {... */\n    tag_66:\n        /* \"@chainlink/contracts@1.1.0/src/v0.8/functions/v1_0_0/libraries/FunctionsRequest.sol\":6242:6243  0 */\n      0x00\n        /* \"@chainlink/contracts@1.1.0/src/v0.8/functions/v1_0_0/libraries/FunctionsRequest.sol\":6227:6231  args */\n      dup2\n        /* \"@chainlink/contracts@1.1.0/src/v0.8/functions/v1_0_0/libraries/FunctionsRequest.sol\":6227:6238  args.length */\n      mload\n        /* \"@chainlink/contracts@1.1.0/src/v0.8/functions/v1_0_0/libraries/FunctionsRequest.sol\":6227:6243  args.length == 0 */\n      sub\n        /* \"@chainlink/contracts@1.1.0/src/v0.8/functions/v1_0_0/libraries/FunctionsRequest.sol\":6223:6263  if (args.length == 0) revert EmptyArgs() */\n      tag_107\n      jumpi\n        /* \"@chainlink/contracts@1.1.0/src/v0.8/functions/v1_0_0/libraries/FunctionsRequest.sol\":6252:6263  EmptyArgs() */\n      mload(0x40)\n      0xfe936cb700000000000000000000000000000000000000000000000000000000\n      dup2\n      mstore\n      0x04\n      add\n      mload(0x40)\n      dup1\n      swap2\n      sub\n      swap1\n      revert\n        /* \"@chainlink/contracts@1.1.0/src/v0.8/functions/v1_0_0/libraries/FunctionsRequest.sol\":6223:6263  if (args.length == 0) revert EmptyArgs() */\n    tag_107:\n        /* \"@chainlink/contracts@1.1.0/src/v0.8/functions/v1_0_0/libraries/FunctionsRequest.sol\":6287:6291  args */\n      dup1\n        /* \"@chainlink/contracts@1.1.0/src/v0.8/functions/v1_0_0/libraries/FunctionsRequest.sol\":6270:6274  self */\n      dup3\n        /* \"@chainlink/contracts@1.1.0/src/v0.8/functions/v1_0_0/libraries/FunctionsRequest.sol\":6270:6284  self.bytesArgs */\n      0xc0\n      add\n        /* \"@chainlink/contracts@1.1.0/src/v0.8/functions/v1_0_0/libraries/FunctionsRequest.sol\":6270:6291  self.bytesArgs = args */\n      dup2\n      swap1\n      mstore\n      pop\n        /* \"@chainlink/contracts@1.1.0/src/v0.8/functions/v1_0_0/libraries/FunctionsRequest.sol\":6139:6296  function setBytesArgs(Request memory self, bytes[] memory args) internal pure {... */\n      pop\n      pop\n      jump\t// out\n        /* \"@chainlink/contracts@1.1.0/src/v0.8/functions/v1_0_0/libraries/FunctionsRequest.sol\":2158:3428  function encodeCBOR(Request memory self) internal pure returns (bytes memory) {... */\n    tag_69:\n        /* \"@chainlink/contracts@1.1.0/src/v0.8/functions/v1_0_0/libraries/FunctionsRequest.sol\":2222:2234  bytes memory */\n      0x60\n        /* \"@chainlink/contracts@1.1.0/src/v0.8/functions/v1_0_0/libraries/FunctionsRequest.sol\":2242:2271  CBOR.CBORBuffer memory buffer */\n      0x00\n        /* \"@chainlink/contracts@1.1.0/src/v0.8/functions/v1_0_0/libraries/FunctionsRequest.sol\":2274:2306  CBOR.create(DEFAULT_BUFFER_SIZE) */\n      tag_109\n        /* \"@chainlink/contracts@1.1.0/src/v0.8/functions/v1_0_0/libraries/FunctionsRequest.sol\":375:378  256 */\n      0x0100\n        /* \"@chainlink/contracts@1.1.0/src/v0.8/functions/v1_0_0/libraries/FunctionsRequest.sol\":2274:2285  CBOR.create */\n      tag_93\n        /* \"@chainlink/contracts@1.1.0/src/v0.8/functions/v1_0_0/libraries/FunctionsRequest.sol\":2274:2306  CBOR.create(DEFAULT_BUFFER_SIZE) */\n      jump\t// in\n    tag_109:\n        /* \"@chainlink/contracts@1.1.0/src/v0.8/functions/v1_0_0/libraries/FunctionsRequest.sol\":2242:2306  CBOR.CBORBuffer memory buffer = CBOR.create(DEFAULT_BUFFER_SIZE) */\n      swap1\n      pop\n        /* \"@chainlink/contracts@1.1.0/src/v0.8/functions/v1_0_0/libraries/FunctionsRequest.sol\":2313:2347  buffer.writeString(\"codeLocation\") */\n      tag_110\n      mload(0x40)\n      dup1\n      0x40\n      add\n      0x40\n      mstore\n      dup1\n      0x0c\n      dup2\n      mstore\n      0x20\n      add\n      0x636f64654c6f636174696f6e0000000000000000000000000000000000000000\n      dup2\n      mstore\n      pop\n        /* \"@chainlink/contracts@1.1.0/src/v0.8/functions/v1_0_0/libraries/FunctionsRequest.sol\":2313:2319  buffer */\n      dup3\n        /* \"@chainlink/contracts@1.1.0/src/v0.8/functions/v1_0_0/libraries/FunctionsRequest.sol\":2313:2331  buffer.writeString */\n      tag_95\n      swap1\n        /* \"@chainlink/contracts@1.1.0/src/v0.8/functions/v1_0_0/libraries/FunctionsRequest.sol\":2313:2347  buffer.writeString(\"codeLocation\") */\n      swap2\n      swap1\n      0xffffffff\n      and\n      jump\t// in\n    tag_110:\n        /* \"@chainlink/contracts@1.1.0/src/v0.8/functions/v1_0_0/libraries/FunctionsRequest.sol\":2353:2400  buffer.writeUInt256(uint256(self.codeLocation)) */\n      tag_111\n        /* \"@chainlink/contracts@1.1.0/src/v0.8/functions/v1_0_0/libraries/FunctionsRequest.sol\":2381:2385  self */\n      dup4\n        /* \"@chainlink/contracts@1.1.0/src/v0.8/functions/v1_0_0/libraries/FunctionsRequest.sol\":2381:2398  self.codeLocation */\n      0x00\n      add\n      mload\n        /* \"@chainlink/contracts@1.1.0/src/v0.8/functions/v1_0_0/libraries/FunctionsRequest.sol\":2373:2399  uint256(self.codeLocation) */\n      0x02\n      dup2\n      gt\n      iszero\n      tag_112\n      jumpi\n      tag_113\n      tag_88\n      jump\t// in\n    tag_113:\n    tag_112:\n        /* \"@chainlink/contracts@1.1.0/src/v0.8/functions/v1_0_0/libraries/FunctionsRequest.sol\":2353:2359  buffer */\n      dup3\n        /* \"@chainlink/contracts@1.1.0/src/v0.8/functions/v1_0_0/libraries/FunctionsRequest.sol\":2353:2372  buffer.writeUInt256 */\n      tag_114\n      swap1\n        /* \"@chainlink/contracts@1.1.0/src/v0.8/functions/v1_0_0/libraries/FunctionsRequest.sol\":2353:2400  buffer.writeUInt256(uint256(self.codeLocation)) */\n      swap2\n      swap1\n      0xffffffff\n      and\n      jump\t// in\n    tag_111:\n        /* \"@chainlink/contracts@1.1.0/src/v0.8/functions/v1_0_0/libraries/FunctionsRequest.sol\":2407:2437  buffer.writeString(\"language\") */\n      tag_115\n      mload(0x40)\n      dup1\n      0x40\n      add\n      0x40\n      mstore\n      dup1\n      0x08\n      dup2\n      mstore\n      0x20\n      add\n      0x6c616e6775616765000000000000000000000000000000000000000000000000\n      dup2\n      mstore\n      pop\n        /* \"@chainlink/contracts@1.1.0/src/v0.8/functions/v1_0_0/libraries/FunctionsRequest.sol\":2407:2413  buffer */\n      dup3\n        /* \"@chainlink/contracts@1.1.0/src/v0.8/functions/v1_0_0/libraries/FunctionsRequest.sol\":2407:2425  buffer.writeString */\n      tag_95\n      swap1\n        /* \"@chainlink/contracts@1.1.0/src/v0.8/functions/v1_0_0/libraries/FunctionsRequest.sol\":2407:2437  buffer.writeString(\"language\") */\n      swap2\n      swap1\n      0xffffffff\n      and\n      jump\t// in\n    tag_115:\n        /* \"@chainlink/contracts@1.1.0/src/v0.8/functions/v1_0_0/libraries/FunctionsRequest.sol\":2443:2486  buffer.writeUInt256(uint256(self.language)) */\n      tag_116\n        /* \"@chainlink/contracts@1.1.0/src/v0.8/functions/v1_0_0/libraries/FunctionsRequest.sol\":2471:2475  self */\n      dup4\n        /* \"@chainlink/contracts@1.1.0/src/v0.8/functions/v1_0_0/libraries/FunctionsRequest.sol\":2471:2484  self.language */\n      0x40\n      add\n      mload\n        /* \"@chainlink/contracts@1.1.0/src/v0.8/functions/v1_0_0/libraries/FunctionsRequest.sol\":2463:2485  uint256(self.language) */\n      0x00\n      dup2\n      gt\n      iszero\n      tag_117\n      jumpi\n      tag_118\n      tag_88\n      jump\t// in\n    tag_118:\n    tag_117:\n        /* \"@chainlink/contracts@1.1.0/src/v0.8/functions/v1_0_0/libraries/FunctionsRequest.sol\":2443:2449  buffer */\n      dup3\n        /* \"@chainlink/contracts@1.1.0/src/v0.8/functions/v1_0_0/libraries/FunctionsRequest.sol\":2443:2462  buffer.writeUInt256 */\n      tag_114\n      swap1\n        /* \"@chainlink/contracts@1.1.0/src/v0.8/functions/v1_0_0/libraries/FunctionsRequest.sol\":2443:2486  buffer.writeUInt256(uint256(self.language)) */\n      swap2\n      swap1\n      0xffffffff\n      and\n      jump\t// in\n    tag_116:\n        /* \"@chainlink/contracts@1.1.0/src/v0.8/functions/v1_0_0/libraries/FunctionsRequest.sol\":2493:2521  buffer.writeString(\"source\") */\n      tag_119\n      mload(0x40)\n      dup1\n      0x40\n      add\n      0x40\n      mstore\n      dup1\n      0x06\n      dup2\n      mstore\n      0x20\n      add\n      0x736f757263650000000000000000000000000000000000000000000000000000\n      dup2\n      mstore\n      pop\n        /* \"@chainlink/contracts@1.1.0/src/v0.8/functions/v1_0_0/libraries/FunctionsRequest.sol\":2493:2499  buffer */\n      dup3\n        /* \"@chainlink/contracts@1.1.0/src/v0.8/functions/v1_0_0/libraries/FunctionsRequest.sol\":2493:2511  buffer.writeString */\n      tag_95\n      swap1\n        /* \"@chainlink/contracts@1.1.0/src/v0.8/functions/v1_0_0/libraries/FunctionsRequest.sol\":2493:2521  buffer.writeString(\"source\") */\n      swap2\n      swap1\n      0xffffffff\n      and\n      jump\t// in\n    tag_119:\n        /* \"@chainlink/contracts@1.1.0/src/v0.8/functions/v1_0_0/libraries/FunctionsRequest.sol\":2527:2558  buffer.writeString(self.source) */\n      tag_120\n        /* \"@chainlink/contracts@1.1.0/src/v0.8/functions/v1_0_0/libraries/FunctionsRequest.sol\":2546:2550  self */\n      dup4\n        /* \"@chainlink/contracts@1.1.0/src/v0.8/functions/v1_0_0/libraries/FunctionsRequest.sol\":2546:2557  self.source */\n      0x60\n      add\n      mload\n        /* \"@chainlink/contracts@1.1.0/src/v0.8/functions/v1_0_0/libraries/FunctionsRequest.sol\":2527:2533  buffer */\n      dup3\n        /* \"@chainlink/contracts@1.1.0/src/v0.8/functions/v1_0_0/libraries/FunctionsRequest.sol\":2527:2545  buffer.writeString */\n      tag_95\n      swap1\n        /* \"@chainlink/contracts@1.1.0/src/v0.8/functions/v1_0_0/libraries/FunctionsRequest.sol\":2527:2558  buffer.writeString(self.source) */\n      swap2\n      swap1\n      0xffffffff\n      and\n      jump\t// in\n    tag_120:\n        /* \"@chainlink/contracts@1.1.0/src/v0.8/functions/v1_0_0/libraries/FunctionsRequest.sol\":2588:2589  0 */\n      0x00\n        /* \"@chainlink/contracts@1.1.0/src/v0.8/functions/v1_0_0/libraries/FunctionsRequest.sol\":2569:2573  self */\n      dup4\n        /* \"@chainlink/contracts@1.1.0/src/v0.8/functions/v1_0_0/libraries/FunctionsRequest.sol\":2569:2578  self.args */\n      0xa0\n      add\n      mload\n        /* \"@chainlink/contracts@1.1.0/src/v0.8/functions/v1_0_0/libraries/FunctionsRequest.sol\":2569:2585  self.args.length */\n      mload\n        /* \"@chainlink/contracts@1.1.0/src/v0.8/functions/v1_0_0/libraries/FunctionsRequest.sol\":2569:2589  self.args.length > 0 */\n      gt\n        /* \"@chainlink/contracts@1.1.0/src/v0.8/functions/v1_0_0/libraries/FunctionsRequest.sol\":2565:2792  if (self.args.length > 0) {... */\n      iszero\n      tag_121\n      jumpi\n        /* \"@chainlink/contracts@1.1.0/src/v0.8/functions/v1_0_0/libraries/FunctionsRequest.sol\":2599:2625  buffer.writeString(\"args\") */\n      tag_122\n      mload(0x40)\n      dup1\n      0x40\n      add\n      0x40\n      mstore\n      dup1\n      0x04\n      dup2\n      mstore\n      0x20\n      add\n      0x6172677300000000000000000000000000000000000000000000000000000000\n      dup2\n      mstore\n      pop\n        /* \"@chainlink/contracts@1.1.0/src/v0.8/functions/v1_0_0/libraries/FunctionsRequest.sol\":2599:2605  buffer */\n      dup3\n        /* \"@chainlink/contracts@1.1.0/src/v0.8/functions/v1_0_0/libraries/FunctionsRequest.sol\":2599:2617  buffer.writeString */\n      tag_95\n      swap1\n        /* \"@chainlink/contracts@1.1.0/src/v0.8/functions/v1_0_0/libraries/FunctionsRequest.sol\":2599:2625  buffer.writeString(\"args\") */\n      swap2\n      swap1\n      0xffffffff\n      and\n      jump\t// in\n    tag_122:\n        /* \"@chainlink/contracts@1.1.0/src/v0.8/functions/v1_0_0/libraries/FunctionsRequest.sol\":2633:2652  buffer.startArray() */\n      tag_123\n        /* \"@chainlink/contracts@1.1.0/src/v0.8/functions/v1_0_0/libraries/FunctionsRequest.sol\":2633:2639  buffer */\n      dup2\n        /* \"@chainlink/contracts@1.1.0/src/v0.8/functions/v1_0_0/libraries/FunctionsRequest.sol\":2633:2650  buffer.startArray */\n      tag_124\n        /* \"@chainlink/contracts@1.1.0/src/v0.8/functions/v1_0_0/libraries/FunctionsRequest.sol\":2633:2652  buffer.startArray() */\n      jump\t// in\n    tag_123:\n        /* \"@chainlink/contracts@1.1.0/src/v0.8/functions/v1_0_0/libraries/FunctionsRequest.sol\":2665:2674  uint256 i */\n      0x00\n        /* \"@chainlink/contracts@1.1.0/src/v0.8/functions/v1_0_0/libraries/FunctionsRequest.sol\":2660:2758  for (uint256 i = 0; i < self.args.length; ++i) {... */\n    tag_125:\n        /* \"@chainlink/contracts@1.1.0/src/v0.8/functions/v1_0_0/libraries/FunctionsRequest.sol\":2684:2688  self */\n      dup4\n        /* \"@chainlink/contracts@1.1.0/src/v0.8/functions/v1_0_0/libraries/FunctionsRequest.sol\":2684:2693  self.args */\n      0xa0\n      add\n      mload\n        /* \"@chainlink/contracts@1.1.0/src/v0.8/functions/v1_0_0/libraries/FunctionsRequest.sol\":2684:2700  self.args.length */\n      mload\n        /* \"@chainlink/contracts@1.1.0/src/v0.8/functions/v1_0_0/libraries/FunctionsRequest.sol\":2680:2681  i */\n      dup2\n        /* \"@chainlink/contracts@1.1.0/src/v0.8/functions/v1_0_0/libraries/FunctionsRequest.sol\":2680:2700  i < self.args.length */\n      lt\n        /* \"@chainlink/contracts@1.1.0/src/v0.8/functions/v1_0_0/libraries/FunctionsRequest.sol\":2660:2758  for (uint256 i = 0; i < self.args.length; ++i) {... */\n      iszero\n      tag_126\n      jumpi\n        /* \"@chainlink/contracts@1.1.0/src/v0.8/functions/v1_0_0/libraries/FunctionsRequest.sol\":2717:2749  buffer.writeString(self.args[i]) */\n      tag_128\n        /* \"@chainlink/contracts@1.1.0/src/v0.8/functions/v1_0_0/libraries/FunctionsRequest.sol\":2736:2740  self */\n      dup5\n        /* \"@chainlink/contracts@1.1.0/src/v0.8/functions/v1_0_0/libraries/FunctionsRequest.sol\":2736:2745  self.args */\n      0xa0\n      add\n      mload\n        /* \"@chainlink/contracts@1.1.0/src/v0.8/functions/v1_0_0/libraries/FunctionsRequest.sol\":2746:2747  i */\n      dup3\n        /* \"@chainlink/contracts@1.1.0/src/v0.8/functions/v1_0_0/libraries/FunctionsRequest.sol\":2736:2748  self.args[i] */\n      dup2\n      mload\n      dup2\n      lt\n      tag_129\n      jumpi\n      tag_130\n      tag_131\n      jump\t// in\n    tag_130:\n    tag_129:\n      0x20\n      mul\n      0x20\n      add\n      add\n      mload\n        /* \"@chainlink/contracts@1.1.0/src/v0.8/functions/v1_0_0/libraries/FunctionsRequest.sol\":2717:2723  buffer */\n      dup4\n        /* \"@chainlink/contracts@1.1.0/src/v0.8/functions/v1_0_0/libraries/FunctionsRequest.sol\":2717:2735  buffer.writeString */\n      tag_95\n      swap1\n        /* \"@chainlink/contracts@1.1.0/src/v0.8/functions/v1_0_0/libraries/FunctionsRequest.sol\":2717:2749  buffer.writeString(self.args[i]) */\n      swap2\n      swap1\n      0xffffffff\n      and\n      jump\t// in\n    tag_128:\n        /* \"@chainlink/contracts@1.1.0/src/v0.8/functions/v1_0_0/libraries/FunctionsRequest.sol\":2702:2705  ++i */\n      dup1\n      tag_132\n      swap1\n      tag_133\n      jump\t// in\n    tag_132:\n      swap1\n      pop\n        /* \"@chainlink/contracts@1.1.0/src/v0.8/functions/v1_0_0/libraries/FunctionsRequest.sol\":2660:2758  for (uint256 i = 0; i < self.args.length; ++i) {... */\n      jump(tag_125)\n    tag_126:\n      pop\n        /* \"@chainlink/contracts@1.1.0/src/v0.8/functions/v1_0_0/libraries/FunctionsRequest.sol\":2765:2785  buffer.endSequence() */\n      tag_134\n        /* \"@chainlink/contracts@1.1.0/src/v0.8/functions/v1_0_0/libraries/FunctionsRequest.sol\":2765:2771  buffer */\n      dup2\n        /* \"@chainlink/contracts@1.1.0/src/v0.8/functions/v1_0_0/libraries/FunctionsRequest.sol\":2765:2783  buffer.endSequence */\n      tag_135\n        /* \"@chainlink/contracts@1.1.0/src/v0.8/functions/v1_0_0/libraries/FunctionsRequest.sol\":2765:2785  buffer.endSequence() */\n      jump\t// in\n    tag_134:\n        /* \"@chainlink/contracts@1.1.0/src/v0.8/functions/v1_0_0/libraries/FunctionsRequest.sol\":2565:2792  if (self.args.length > 0) {... */\n    tag_121:\n        /* \"@chainlink/contracts@1.1.0/src/v0.8/functions/v1_0_0/libraries/FunctionsRequest.sol\":2842:2843  0 */\n      0x00\n        /* \"@chainlink/contracts@1.1.0/src/v0.8/functions/v1_0_0/libraries/FunctionsRequest.sol\":2802:2806  self */\n      dup4\n        /* \"@chainlink/contracts@1.1.0/src/v0.8/functions/v1_0_0/libraries/FunctionsRequest.sol\":2802:2832  self.encryptedSecretsReference */\n      0x80\n      add\n      mload\n        /* \"@chainlink/contracts@1.1.0/src/v0.8/functions/v1_0_0/libraries/FunctionsRequest.sol\":2802:2839  self.encryptedSecretsReference.length */\n      mload\n        /* \"@chainlink/contracts@1.1.0/src/v0.8/functions/v1_0_0/libraries/FunctionsRequest.sol\":2802:2843  self.encryptedSecretsReference.length > 0 */\n      gt\n        /* \"@chainlink/contracts@1.1.0/src/v0.8/functions/v1_0_0/libraries/FunctionsRequest.sol\":2798:3144  if (self.encryptedSecretsReference.length > 0) {... */\n      iszero\n      tag_136\n      jumpi\n        /* \"@chainlink/contracts@1.1.0/src/v0.8/functions/v1_0_0/libraries/FunctionsRequest.sol\":2881:2896  Location.Inline */\n      0x00\n        /* \"@chainlink/contracts@1.1.0/src/v0.8/functions/v1_0_0/libraries/FunctionsRequest.sol\":2857:2896  self.secretsLocation == Location.Inline */\n      0x02\n      dup2\n      gt\n      iszero\n      tag_137\n      jumpi\n      tag_138\n      tag_88\n      jump\t// in\n    tag_138:\n    tag_137:\n        /* \"@chainlink/contracts@1.1.0/src/v0.8/functions/v1_0_0/libraries/FunctionsRequest.sol\":2857:2861  self */\n      dup4\n        /* \"@chainlink/contracts@1.1.0/src/v0.8/functions/v1_0_0/libraries/FunctionsRequest.sol\":2857:2877  self.secretsLocation */\n      0x20\n      add\n      mload\n        /* \"@chainlink/contracts@1.1.0/src/v0.8/functions/v1_0_0/libraries/FunctionsRequest.sol\":2857:2896  self.secretsLocation == Location.Inline */\n      0x02\n      dup2\n      gt\n      iszero\n      tag_139\n      jumpi\n      tag_140\n      tag_88\n      jump\t// in\n    tag_140:\n    tag_139:\n      sub\n        /* \"@chainlink/contracts@1.1.0/src/v0.8/functions/v1_0_0/libraries/FunctionsRequest.sol\":2853:2941  if (self.secretsLocation == Location.Inline) {... */\n      tag_141\n      jumpi\n        /* \"@chainlink/contracts@1.1.0/src/v0.8/functions/v1_0_0/libraries/FunctionsRequest.sol\":2915:2932  NoInlineSecrets() */\n      mload(0x40)\n      0xa80d31f700000000000000000000000000000000000000000000000000000000\n      dup2\n      mstore\n      0x04\n      add\n      mload(0x40)\n      dup1\n      swap2\n      sub\n      swap1\n      revert\n        /* \"@chainlink/contracts@1.1.0/src/v0.8/functions/v1_0_0/libraries/FunctionsRequest.sol\":2853:2941  if (self.secretsLocation == Location.Inline) {... */\n    tag_141:\n        /* \"@chainlink/contracts@1.1.0/src/v0.8/functions/v1_0_0/libraries/FunctionsRequest.sol\":2948:2985  buffer.writeString(\"secretsLocation\") */\n      tag_142\n      mload(0x40)\n      dup1\n      0x40\n      add\n      0x40\n      mstore\n      dup1\n      0x0f\n      dup2\n      mstore\n      0x20\n      add\n      0x736563726574734c6f636174696f6e0000000000000000000000000000000000\n      dup2\n      mstore\n      pop\n        /* \"@chainlink/contracts@1.1.0/src/v0.8/functions/v1_0_0/libraries/FunctionsRequest.sol\":2948:2954  buffer */\n      dup3\n        /* \"@chainlink/contracts@1.1.0/src/v0.8/functions/v1_0_0/libraries/FunctionsRequest.sol\":2948:2966  buffer.writeString */\n      tag_95\n      swap1\n        /* \"@chainlink/contracts@1.1.0/src/v0.8/functions/v1_0_0/libraries/FunctionsRequest.sol\":2948:2985  buffer.writeString(\"secretsLocation\") */\n      swap2\n      swap1\n      0xffffffff\n      and\n      jump\t// in\n    tag_142:\n        /* \"@chainlink/contracts@1.1.0/src/v0.8/functions/v1_0_0/libraries/FunctionsRequest.sol\":2993:3043  buffer.writeUInt256(uint256(self.secretsLocation)) */\n      tag_143\n        /* \"@chainlink/contracts@1.1.0/src/v0.8/functions/v1_0_0/libraries/FunctionsRequest.sol\":3021:3025  self */\n      dup4\n        /* \"@chainlink/contracts@1.1.0/src/v0.8/functions/v1_0_0/libraries/FunctionsRequest.sol\":3021:3041  self.secretsLocation */\n      0x20\n      add\n      mload\n        /* \"@chainlink/contracts@1.1.0/src/v0.8/functions/v1_0_0/libraries/FunctionsRequest.sol\":3013:3042  uint256(self.secretsLocation) */\n      0x02\n      dup2\n      gt\n      iszero\n      tag_144\n      jumpi\n      tag_145\n      tag_88\n      jump\t// in\n    tag_145:\n    tag_144:\n        /* \"@chainlink/contracts@1.1.0/src/v0.8/functions/v1_0_0/libraries/FunctionsRequest.sol\":2993:2999  buffer */\n      dup3\n        /* \"@chainlink/contracts@1.1.0/src/v0.8/functions/v1_0_0/libraries/FunctionsRequest.sol\":2993:3012  buffer.writeUInt256 */\n      tag_114\n      swap1\n        /* \"@chainlink/contracts@1.1.0/src/v0.8/functions/v1_0_0/libraries/FunctionsRequest.sol\":2993:3043  buffer.writeUInt256(uint256(self.secretsLocation)) */\n      swap2\n      swap1\n      0xffffffff\n      and\n      jump\t// in\n    tag_143:\n        /* \"@chainlink/contracts@1.1.0/src/v0.8/functions/v1_0_0/libraries/FunctionsRequest.sol\":3051:3080  buffer.writeString(\"secrets\") */\n      tag_146\n      mload(0x40)\n      dup1\n      0x40\n      add\n      0x40\n      mstore\n      dup1\n      0x07\n      dup2\n      mstore\n      0x20\n      add\n      0x7365637265747300000000000000000000000000000000000000000000000000\n      dup2\n      mstore\n      pop\n        /* \"@chainlink/contracts@1.1.0/src/v0.8/functions/v1_0_0/libraries/FunctionsRequest.sol\":3051:3057  buffer */\n      dup3\n        /* \"@chainlink/contracts@1.1.0/src/v0.8/functions/v1_0_0/libraries/FunctionsRequest.sol\":3051:3069  buffer.writeString */\n      tag_95\n      swap1\n        /* \"@chainlink/contracts@1.1.0/src/v0.8/functions/v1_0_0/libraries/FunctionsRequest.sol\":3051:3080  buffer.writeString(\"secrets\") */\n      swap2\n      swap1\n      0xffffffff\n      and\n      jump\t// in\n    tag_146:\n        /* \"@chainlink/contracts@1.1.0/src/v0.8/functions/v1_0_0/libraries/FunctionsRequest.sol\":3088:3137  buffer.writeBytes(self.encryptedSecretsReference) */\n      tag_147\n        /* \"@chainlink/contracts@1.1.0/src/v0.8/functions/v1_0_0/libraries/FunctionsRequest.sol\":3106:3110  self */\n      dup4\n        /* \"@chainlink/contracts@1.1.0/src/v0.8/functions/v1_0_0/libraries/FunctionsRequest.sol\":3106:3136  self.encryptedSecretsReference */\n      0x80\n      add\n      mload\n        /* \"@chainlink/contracts@1.1.0/src/v0.8/functions/v1_0_0/libraries/FunctionsRequest.sol\":3088:3094  buffer */\n      dup3\n        /* \"@chainlink/contracts@1.1.0/src/v0.8/functions/v1_0_0/libraries/FunctionsRequest.sol\":3088:3105  buffer.writeBytes */\n      tag_148\n      swap1\n        /* \"@chainlink/contracts@1.1.0/src/v0.8/functions/v1_0_0/libraries/FunctionsRequest.sol\":3088:3137  buffer.writeBytes(self.encryptedSecretsReference) */\n      swap2\n      swap1\n      0xffffffff\n      and\n      jump\t// in\n    tag_147:\n        /* \"@chainlink/contracts@1.1.0/src/v0.8/functions/v1_0_0/libraries/FunctionsRequest.sol\":2798:3144  if (self.encryptedSecretsReference.length > 0) {... */\n    tag_136:\n        /* \"@chainlink/contracts@1.1.0/src/v0.8/functions/v1_0_0/libraries/FunctionsRequest.sol\":3178:3179  0 */\n      0x00\n        /* \"@chainlink/contracts@1.1.0/src/v0.8/functions/v1_0_0/libraries/FunctionsRequest.sol\":3154:3158  self */\n      dup4\n        /* \"@chainlink/contracts@1.1.0/src/v0.8/functions/v1_0_0/libraries/FunctionsRequest.sol\":3154:3168  self.bytesArgs */\n      0xc0\n      add\n      mload\n        /* \"@chainlink/contracts@1.1.0/src/v0.8/functions/v1_0_0/libraries/FunctionsRequest.sol\":3154:3175  self.bytesArgs.length */\n      mload\n        /* \"@chainlink/contracts@1.1.0/src/v0.8/functions/v1_0_0/libraries/FunctionsRequest.sol\":3154:3179  self.bytesArgs.length > 0 */\n      gt\n        /* \"@chainlink/contracts@1.1.0/src/v0.8/functions/v1_0_0/libraries/FunctionsRequest.sol\":3150:3396  if (self.bytesArgs.length > 0) {... */\n      iszero\n      tag_149\n      jumpi\n        /* \"@chainlink/contracts@1.1.0/src/v0.8/functions/v1_0_0/libraries/FunctionsRequest.sol\":3189:3220  buffer.writeString(\"bytesArgs\") */\n      tag_150\n      mload(0x40)\n      dup1\n      0x40\n      add\n      0x40\n      mstore\n      dup1\n      0x09\n      dup2\n      mstore\n      0x20\n      add\n      0x6279746573417267730000000000000000000000000000000000000000000000\n      dup2\n      mstore\n      pop\n        /* \"@chainlink/contracts@1.1.0/src/v0.8/functions/v1_0_0/libraries/FunctionsRequest.sol\":3189:3195  buffer */\n      dup3\n        /* \"@chainlink/contracts@1.1.0/src/v0.8/functions/v1_0_0/libraries/FunctionsRequest.sol\":3189:3207  buffer.writeString */\n      tag_95\n      swap1\n        /* \"@chainlink/contracts@1.1.0/src/v0.8/functions/v1_0_0/libraries/FunctionsRequest.sol\":3189:3220  buffer.writeString(\"bytesArgs\") */\n      swap2\n      swap1\n      0xffffffff\n      and\n      jump\t// in\n    tag_150:\n        /* \"@chainlink/contracts@1.1.0/src/v0.8/functions/v1_0_0/libraries/FunctionsRequest.sol\":3228:3247  buffer.startArray() */\n      tag_151\n        /* \"@chainlink/contracts@1.1.0/src/v0.8/functions/v1_0_0/libraries/FunctionsRequest.sol\":3228:3234  buffer */\n      dup2\n        /* \"@chainlink/contracts@1.1.0/src/v0.8/functions/v1_0_0/libraries/FunctionsRequest.sol\":3228:3245  buffer.startArray */\n      tag_124\n        /* \"@chainlink/contracts@1.1.0/src/v0.8/functions/v1_0_0/libraries/FunctionsRequest.sol\":3228:3247  buffer.startArray() */\n      jump\t// in\n    tag_151:\n        /* \"@chainlink/contracts@1.1.0/src/v0.8/functions/v1_0_0/libraries/FunctionsRequest.sol\":3260:3269  uint256 i */\n      0x00\n        /* \"@chainlink/contracts@1.1.0/src/v0.8/functions/v1_0_0/libraries/FunctionsRequest.sol\":3255:3362  for (uint256 i = 0; i < self.bytesArgs.length; ++i) {... */\n    tag_152:\n        /* \"@chainlink/contracts@1.1.0/src/v0.8/functions/v1_0_0/libraries/FunctionsRequest.sol\":3279:3283  self */\n      dup4\n        /* \"@chainlink/contracts@1.1.0/src/v0.8/functions/v1_0_0/libraries/FunctionsRequest.sol\":3279:3293  self.bytesArgs */\n      0xc0\n      add\n      mload\n        /* \"@chainlink/contracts@1.1.0/src/v0.8/functions/v1_0_0/libraries/FunctionsRequest.sol\":3279:3300  self.bytesArgs.length */\n      mload\n        /* \"@chainlink/contracts@1.1.0/src/v0.8/functions/v1_0_0/libraries/FunctionsRequest.sol\":3275:3276  i */\n      dup2\n        /* \"@chainlink/contracts@1.1.0/src/v0.8/functions/v1_0_0/libraries/FunctionsRequest.sol\":3275:3300  i < self.bytesArgs.length */\n      lt\n        /* \"@chainlink/contracts@1.1.0/src/v0.8/functions/v1_0_0/libraries/FunctionsRequest.sol\":3255:3362  for (uint256 i = 0; i < self.bytesArgs.length; ++i) {... */\n      iszero\n      tag_153\n      jumpi\n        /* \"@chainlink/contracts@1.1.0/src/v0.8/functions/v1_0_0/libraries/FunctionsRequest.sol\":3317:3353  buffer.writeBytes(self.bytesArgs[i]) */\n      tag_155\n        /* \"@chainlink/contracts@1.1.0/src/v0.8/functions/v1_0_0/libraries/FunctionsRequest.sol\":3335:3339  self */\n      dup5\n        /* \"@chainlink/contracts@1.1.0/src/v0.8/functions/v1_0_0/libraries/FunctionsRequest.sol\":3335:3349  self.bytesArgs */\n      0xc0\n      add\n      mload\n        /* \"@chainlink/contracts@1.1.0/src/v0.8/functions/v1_0_0/libraries/FunctionsRequest.sol\":3350:3351  i */\n      dup3\n        /* \"@chainlink/contracts@1.1.0/src/v0.8/functions/v1_0_0/libraries/FunctionsRequest.sol\":3335:3352  self.bytesArgs[i] */\n      dup2\n      mload\n      dup2\n      lt\n      tag_156\n      jumpi\n      tag_157\n      tag_131\n      jump\t// in\n    tag_157:\n    tag_156:\n      0x20\n      mul\n      0x20\n      add\n      add\n      mload\n        /* \"@chainlink/contracts@1.1.0/src/v0.8/functions/v1_0_0/libraries/FunctionsRequest.sol\":3317:3323  buffer */\n      dup4\n        /* \"@chainlink/contracts@1.1.0/src/v0.8/functions/v1_0_0/libraries/FunctionsRequest.sol\":3317:3334  buffer.writeBytes */\n      tag_148\n      swap1\n        /* \"@chainlink/contracts@1.1.0/src/v0.8/functions/v1_0_0/libraries/FunctionsRequest.sol\":3317:3353  buffer.writeBytes(self.bytesArgs[i]) */\n      swap2\n      swap1\n      0xffffffff\n      and\n      jump\t// in\n    tag_155:\n        /* \"@chainlink/contracts@1.1.0/src/v0.8/functions/v1_0_0/libraries/FunctionsRequest.sol\":3302:3305  ++i */\n      dup1\n      tag_158\n      swap1\n      tag_133\n      jump\t// in\n    tag_158:\n      swap1\n      pop\n        /* \"@chainlink/contracts@1.1.0/src/v0.8/functions/v1_0_0/libraries/FunctionsRequest.sol\":3255:3362  for (uint256 i = 0; i < self.bytesArgs.length; ++i) {... */\n      jump(tag_152)\n    tag_153:\n      pop\n        /* \"@chainlink/contracts@1.1.0/src/v0.8/functions/v1_0_0/libraries/FunctionsRequest.sol\":3369:3389  buffer.endSequence() */\n      tag_159\n        /* \"@chainlink/contracts@1.1.0/src/v0.8/functions/v1_0_0/libraries/FunctionsRequest.sol\":3369:3375  buffer */\n      dup2\n        /* \"@chainlink/contracts@1.1.0/src/v0.8/functions/v1_0_0/libraries/FunctionsRequest.sol\":3369:3387  buffer.endSequence */\n      tag_135\n        /* \"@chainlink/contracts@1.1.0/src/v0.8/functions/v1_0_0/libraries/FunctionsRequest.sol\":3369:3389  buffer.endSequence() */\n      jump\t// in\n    tag_159:\n        /* \"@chainlink/contracts@1.1.0/src/v0.8/functions/v1_0_0/libraries/FunctionsRequest.sol\":3150:3396  if (self.bytesArgs.length > 0) {... */\n    tag_149:\n        /* \"@chainlink/contracts@1.1.0/src/v0.8/functions/v1_0_0/libraries/FunctionsRequest.sol\":3409:3415  buffer */\n      dup1\n        /* \"@chainlink/contracts@1.1.0/src/v0.8/functions/v1_0_0/libraries/FunctionsRequest.sol\":3409:3419  buffer.buf */\n      0x00\n      add\n      mload\n        /* \"@chainlink/contracts@1.1.0/src/v0.8/functions/v1_0_0/libraries/FunctionsRequest.sol\":3409:3423  buffer.buf.buf */\n      0x00\n      add\n      mload\n        /* \"@chainlink/contracts@1.1.0/src/v0.8/functions/v1_0_0/libraries/FunctionsRequest.sol\":3402:3423  return buffer.buf.buf */\n      swap2\n      pop\n      pop\n        /* \"@chainlink/contracts@1.1.0/src/v0.8/functions/v1_0_0/libraries/FunctionsRequest.sol\":2158:3428  function encodeCBOR(Request memory self) internal pure returns (bytes memory) {... */\n      swap2\n      swap1\n      pop\n      jump\t// out\n        /* \"@chainlink/contracts@1.1.0/src/v0.8/functions/v1_0_0/FunctionsClient.sol\":1158:1537  function _sendRequest(... */\n    tag_70:\n        /* \"@chainlink/contracts@1.1.0/src/v0.8/functions/v1_0_0/FunctionsClient.sol\":1300:1307  bytes32 */\n      0x00\n        /* \"@chainlink/contracts@1.1.0/src/v0.8/functions/v1_0_0/FunctionsClient.sol\":1315:1332  bytes32 requestId */\n      dup1\n        /* \"@chainlink/contracts@1.1.0/src/v0.8/functions/v1_0_0/FunctionsClient.sol\":1335:1343  i_router */\n      immutable(\"0x8e8fab5f003314da8d1873ea7720e8d9f47650136d916064d1edb8a11d682624\")\n        /* \"@chainlink/contracts@1.1.0/src/v0.8/functions/v1_0_0/FunctionsClient.sol\":1335:1355  i_router.sendRequest */\n      0xffffffffffffffffffffffffffffffffffffffff\n      and\n      0x461d2762\n        /* \"@chainlink/contracts@1.1.0/src/v0.8/functions/v1_0_0/FunctionsClient.sol\":1363:1377  subscriptionId */\n      dup7\n        /* \"@chainlink/contracts@1.1.0/src/v0.8/functions/v1_0_0/FunctionsClient.sol\":1385:1389  data */\n      dup9\n        /* \"@chainlink/contracts@1.1.0/src/v0.8/functions/v1_0_0/libraries/FunctionsRequest.sol\":322:323  1 */\n      0x01\n        /* \"@chainlink/contracts@1.1.0/src/v0.8/functions/v1_0_0/FunctionsClient.sol\":1442:1458  callbackGasLimit */\n      dup9\n        /* \"@chainlink/contracts@1.1.0/src/v0.8/functions/v1_0_0/FunctionsClient.sol\":1466:1471  donId */\n      dup9\n        /* \"@chainlink/contracts@1.1.0/src/v0.8/functions/v1_0_0/FunctionsClient.sol\":1335:1477  i_router.sendRequest(... */\n      mload(0x40)\n      dup7\n      0xffffffff\n      and\n      0xe0\n      shl\n      dup2\n      mstore\n      0x04\n      add\n      tag_161\n      swap6\n      swap5\n      swap4\n      swap3\n      swap2\n      swap1\n      tag_162\n      jump\t// in\n    tag_161:\n      0x20\n      mload(0x40)\n      dup1\n      dup4\n      sub\n      dup2\n      0x00\n      dup8\n      gas\n      call\n      iszero\n      dup1\n      iszero\n      tag_164\n      jumpi\n      returndatasize\n      0x00\n      dup1\n      returndatacopy\n      revert(0x00, returndatasize)\n    tag_164:\n      pop\n      pop\n      pop\n      pop\n      mload(0x40)\n      returndatasize\n      not(0x1f)\n      0x1f\n      dup3\n      add\n      and\n      dup3\n      add\n      dup1\n      0x40\n      mstore\n      pop\n      dup2\n      add\n      swap1\n      tag_165\n      swap2\n      swap1\n      tag_166\n      jump\t// in\n    tag_165:\n        /* \"@chainlink/contracts@1.1.0/src/v0.8/functions/v1_0_0/FunctionsClient.sol\":1315:1477  bytes32 requestId = i_router.sendRequest(... */\n      swap1\n      pop\n        /* \"@chainlink/contracts@1.1.0/src/v0.8/functions/v1_0_0/FunctionsClient.sol\":1500:1509  requestId */\n      dup1\n        /* \"@chainlink/contracts@1.1.0/src/v0.8/functions/v1_0_0/FunctionsClient.sol\":1488:1510  RequestSent(requestId) */\n      0x1131472297a800fee664d1d89cfa8f7676ff07189ecc53f80bbb5f4969099db8\n      mload(0x40)\n      mload(0x40)\n      dup1\n      swap2\n      sub\n      swap1\n      log2\n        /* \"@chainlink/contracts@1.1.0/src/v0.8/functions/v1_0_0/FunctionsClient.sol\":1523:1532  requestId */\n      dup1\n        /* \"@chainlink/contracts@1.1.0/src/v0.8/functions/v1_0_0/FunctionsClient.sol\":1516:1532  return requestId */\n      swap2\n      pop\n      pop\n        /* \"@chainlink/contracts@1.1.0/src/v0.8/functions/v1_0_0/FunctionsClient.sol\":1158:1537  function _sendRequest(... */\n      swap5\n      swap4\n      pop\n      pop\n      pop\n      pop\n      jump\t// out\n        /* \"@chainlink/contracts@1.1.0/src/v0.8/functions/v1_0_0/libraries/FunctionsRequest.sol\":3777:4084  function initializeRequest(... */\n    tag_83:\n        /* \"@chainlink/contracts@1.1.0/src/v0.8/functions/v1_0_0/libraries/FunctionsRequest.sol\":3961:3962  0 */\n      0x00\n        /* \"@chainlink/contracts@1.1.0/src/v0.8/functions/v1_0_0/libraries/FunctionsRequest.sol\":3943:3949  source */\n      dup2\n        /* \"@chainlink/contracts@1.1.0/src/v0.8/functions/v1_0_0/libraries/FunctionsRequest.sol\":3937:3957  bytes(source).length */\n      mload\n        /* \"@chainlink/contracts@1.1.0/src/v0.8/functions/v1_0_0/libraries/FunctionsRequest.sol\":3937:3962  bytes(source).length == 0 */\n      sub\n        /* \"@chainlink/contracts@1.1.0/src/v0.8/functions/v1_0_0/libraries/FunctionsRequest.sol\":3933:3984  if (bytes(source).length == 0) revert EmptySource() */\n      tag_168\n      jumpi\n        /* \"@chainlink/contracts@1.1.0/src/v0.8/functions/v1_0_0/libraries/FunctionsRequest.sol\":3971:3984  EmptySource() */\n      mload(0x40)\n      0x22ce3edd00000000000000000000000000000000000000000000000000000000\n      dup2\n      mstore\n      0x04\n      add\n      mload(0x40)\n      dup1\n      swap2\n      sub\n      swap1\n      revert\n        /* \"@chainlink/contracts@1.1.0/src/v0.8/functions/v1_0_0/libraries/FunctionsRequest.sol\":3933:3984  if (bytes(source).length == 0) revert EmptySource() */\n    tag_168:\n        /* \"@chainlink/contracts@1.1.0/src/v0.8/functions/v1_0_0/libraries/FunctionsRequest.sol\":4011:4023  codeLocation */\n      dup3\n        /* \"@chainlink/contracts@1.1.0/src/v0.8/functions/v1_0_0/libraries/FunctionsRequest.sol\":3991:3995  self */\n      dup5\n        /* \"@chainlink/contracts@1.1.0/src/v0.8/functions/v1_0_0/libraries/FunctionsRequest.sol\":3991:4008  self.codeLocation */\n      0x00\n      add\n        /* \"@chainlink/contracts@1.1.0/src/v0.8/functions/v1_0_0/libraries/FunctionsRequest.sol\":3991:4023  self.codeLocation = codeLocation */\n      swap1\n      0x02\n      dup2\n      gt\n      iszero\n      tag_169\n      jumpi\n      tag_170\n      tag_88\n      jump\t// in\n    tag_170:\n    tag_169:\n      swap1\n      dup2\n      0x02\n      dup2\n      gt\n      iszero\n      tag_171\n      jumpi\n      tag_172\n      tag_88\n      jump\t// in\n    tag_172:\n    tag_171:\n      dup2\n      mstore\n      pop\n      pop\n        /* \"@chainlink/contracts@1.1.0/src/v0.8/functions/v1_0_0/libraries/FunctionsRequest.sol\":4045:4053  language */\n      dup2\n        /* \"@chainlink/contracts@1.1.0/src/v0.8/functions/v1_0_0/libraries/FunctionsRequest.sol\":4029:4033  self */\n      dup5\n        /* \"@chainlink/contracts@1.1.0/src/v0.8/functions/v1_0_0/libraries/FunctionsRequest.sol\":4029:4042  self.language */\n      0x40\n      add\n        /* \"@chainlink/contracts@1.1.0/src/v0.8/functions/v1_0_0/libraries/FunctionsRequest.sol\":4029:4053  self.language = language */\n      swap1\n      0x00\n      dup2\n      gt\n      iszero\n      tag_173\n      jumpi\n      tag_174\n      tag_88\n      jump\t// in\n    tag_174:\n    tag_173:\n      swap1\n      dup2\n      0x00\n      dup2\n      gt\n      iszero\n      tag_175\n      jumpi\n      tag_176\n      tag_88\n      jump\t// in\n    tag_176:\n    tag_175:\n      dup2\n      mstore\n      pop\n      pop\n        /* \"@chainlink/contracts@1.1.0/src/v0.8/functions/v1_0_0/libraries/FunctionsRequest.sol\":4073:4079  source */\n      dup1\n        /* \"@chainlink/contracts@1.1.0/src/v0.8/functions/v1_0_0/libraries/FunctionsRequest.sol\":4059:4063  self */\n      dup5\n        /* \"@chainlink/contracts@1.1.0/src/v0.8/functions/v1_0_0/libraries/FunctionsRequest.sol\":4059:4070  self.source */\n      0x60\n      add\n        /* \"@chainlink/contracts@1.1.0/src/v0.8/functions/v1_0_0/libraries/FunctionsRequest.sol\":4059:4079  self.source = source */\n      dup2\n      swap1\n      mstore\n      pop\n        /* \"@chainlink/contracts@1.1.0/src/v0.8/functions/v1_0_0/libraries/FunctionsRequest.sol\":3777:4084  function initializeRequest(... */\n      pop\n      pop\n      pop\n      pop\n      jump\t// out\n        /* \"@chainlink/contracts@1.1.0/src/v0.8/vendor/solidity-cborutils/v2.0.0/CBOR.sol\":1490:1663  function create(uint256 capacity) internal pure returns(CBORBuffer memory cbor) {... */\n    tag_93:\n        /* \"@chainlink/contracts@1.1.0/src/v0.8/vendor/solidity-cborutils/v2.0.0/CBOR.sol\":1546:1568  CBORBuffer memory cbor */\n      tag_177\n      tag_178\n      jump\t// in\n    tag_177:\n        /* \"@chainlink/contracts@1.1.0/src/v0.8/vendor/solidity-cborutils/v2.0.0/CBOR.sol\":1580:1611  Buffer.init(cbor.buf, capacity) */\n      tag_180\n        /* \"@chainlink/contracts@1.1.0/src/v0.8/vendor/solidity-cborutils/v2.0.0/CBOR.sol\":1592:1596  cbor */\n      dup2\n        /* \"@chainlink/contracts@1.1.0/src/v0.8/vendor/solidity-cborutils/v2.0.0/CBOR.sol\":1592:1600  cbor.buf */\n      0x00\n      add\n      mload\n        /* \"@chainlink/contracts@1.1.0/src/v0.8/vendor/solidity-cborutils/v2.0.0/CBOR.sol\":1602:1610  capacity */\n      dup4\n        /* \"@chainlink/contracts@1.1.0/src/v0.8/vendor/solidity-cborutils/v2.0.0/CBOR.sol\":1580:1591  Buffer.init */\n      tag_181\n        /* \"@chainlink/contracts@1.1.0/src/v0.8/vendor/solidity-cborutils/v2.0.0/CBOR.sol\":1580:1611  Buffer.init(cbor.buf, capacity) */\n      jump\t// in\n    tag_180:\n      pop\n        /* \"@chainlink/contracts@1.1.0/src/v0.8/vendor/solidity-cborutils/v2.0.0/CBOR.sol\":1634:1635  0 */\n      0x00\n        /* \"@chainlink/contracts@1.1.0/src/v0.8/vendor/solidity-cborutils/v2.0.0/CBOR.sol\":1621:1625  cbor */\n      dup2\n        /* \"@chainlink/contracts@1.1.0/src/v0.8/vendor/solidity-cborutils/v2.0.0/CBOR.sol\":1621:1631  cbor.depth */\n      0x20\n      add\n        /* \"@chainlink/contracts@1.1.0/src/v0.8/vendor/solidity-cborutils/v2.0.0/CBOR.sol\":1621:1635  cbor.depth = 0 */\n      dup2\n      dup2\n      mstore\n      pop\n      pop\n        /* \"@chainlink/contracts@1.1.0/src/v0.8/vendor/solidity-cborutils/v2.0.0/CBOR.sol\":1490:1663  function create(uint256 capacity) internal pure returns(CBORBuffer memory cbor) {... */\n      swap2\n      swap1\n      pop\n      jump\t// out\n        /* \"@chainlink/contracts@1.1.0/src/v0.8/vendor/solidity-cborutils/v2.0.0/CBOR.sol\":3021:3225  function writeString(CBORBuffer memory buf, string memory value) internal pure {... */\n    tag_95:\n        /* \"@chainlink/contracts@1.1.0/src/v0.8/vendor/solidity-cborutils/v2.0.0/CBOR.sol\":3110:3180  writeFixedNumeric(buf, MAJOR_TYPE_STRING, uint64(bytes(value).length)) */\n      tag_183\n        /* \"@chainlink/contracts@1.1.0/src/v0.8/vendor/solidity-cborutils/v2.0.0/CBOR.sol\":3128:3131  buf */\n      dup3\n        /* \"@chainlink/contracts@1.1.0/src/v0.8/vendor/solidity-cborutils/v2.0.0/CBOR.sol\":998:999  3 */\n      0x03\n        /* \"@chainlink/contracts@1.1.0/src/v0.8/vendor/solidity-cborutils/v2.0.0/CBOR.sol\":3165:3170  value */\n      dup4\n        /* \"@chainlink/contracts@1.1.0/src/v0.8/vendor/solidity-cborutils/v2.0.0/CBOR.sol\":3159:3178  bytes(value).length */\n      mload\n        /* \"@chainlink/contracts@1.1.0/src/v0.8/vendor/solidity-cborutils/v2.0.0/CBOR.sol\":3110:3127  writeFixedNumeric */\n      tag_184\n        /* \"@chainlink/contracts@1.1.0/src/v0.8/vendor/solidity-cborutils/v2.0.0/CBOR.sol\":3110:3180  writeFixedNumeric(buf, MAJOR_TYPE_STRING, uint64(bytes(value).length)) */\n      jump\t// in\n    tag_183:\n        /* \"@chainlink/contracts@1.1.0/src/v0.8/vendor/solidity-cborutils/v2.0.0/CBOR.sol\":3190:3218  buf.buf.append(bytes(value)) */\n      tag_185\n        /* \"@chainlink/contracts@1.1.0/src/v0.8/vendor/solidity-cborutils/v2.0.0/CBOR.sol\":3211:3216  value */\n      dup2\n        /* \"@chainlink/contracts@1.1.0/src/v0.8/vendor/solidity-cborutils/v2.0.0/CBOR.sol\":3190:3193  buf */\n      dup4\n        /* \"@chainlink/contracts@1.1.0/src/v0.8/vendor/solidity-cborutils/v2.0.0/CBOR.sol\":3190:3197  buf.buf */\n      0x00\n      add\n      mload\n        /* \"@chainlink/contracts@1.1.0/src/v0.8/vendor/solidity-cborutils/v2.0.0/CBOR.sol\":3190:3204  buf.buf.append */\n      tag_186\n      swap1\n        /* \"@chainlink/contracts@1.1.0/src/v0.8/vendor/solidity-cborutils/v2.0.0/CBOR.sol\":3190:3218  buf.buf.append(bytes(value)) */\n      swap2\n      swap1\n      0xffffffff\n      and\n      jump\t// in\n    tag_185:\n      pop\n        /* \"@chainlink/contracts@1.1.0/src/v0.8/vendor/solidity-cborutils/v2.0.0/CBOR.sol\":3021:3225  function writeString(CBORBuffer memory buf, string memory value) internal pure {... */\n      pop\n      pop\n      jump\t// out\n        /* \"@chainlink/contracts@1.1.0/src/v0.8/vendor/solidity-cborutils/v2.0.0/CBOR.sol\":2406:2540  function writeUInt64(CBORBuffer memory buf, uint64 value) internal pure {... */\n    tag_97:\n        /* \"@chainlink/contracts@1.1.0/src/v0.8/vendor/solidity-cborutils/v2.0.0/CBOR.sol\":2488:2533  writeFixedNumeric(buf, MAJOR_TYPE_INT, value) */\n      tag_188\n        /* \"@chainlink/contracts@1.1.0/src/v0.8/vendor/solidity-cborutils/v2.0.0/CBOR.sol\":2506:2509  buf */\n      dup3\n        /* \"@chainlink/contracts@1.1.0/src/v0.8/vendor/solidity-cborutils/v2.0.0/CBOR.sol\":843:844  0 */\n      0x00\n        /* \"@chainlink/contracts@1.1.0/src/v0.8/vendor/solidity-cborutils/v2.0.0/CBOR.sol\":2527:2532  value */\n      dup4\n        /* \"@chainlink/contracts@1.1.0/src/v0.8/vendor/solidity-cborutils/v2.0.0/CBOR.sol\":2488:2505  writeFixedNumeric */\n      tag_184\n        /* \"@chainlink/contracts@1.1.0/src/v0.8/vendor/solidity-cborutils/v2.0.0/CBOR.sol\":2488:2533  writeFixedNumeric(buf, MAJOR_TYPE_INT, value) */\n      jump\t// in\n    tag_188:\n        /* \"@chainlink/contracts@1.1.0/src/v0.8/vendor/solidity-cborutils/v2.0.0/CBOR.sol\":2406:2540  function writeUInt64(CBORBuffer memory buf, uint64 value) internal pure {... */\n      pop\n      pop\n      jump\t// out\n        /* \"@chainlink/contracts@1.1.0/src/v0.8/vendor/solidity-cborutils/v2.0.0/CBOR.sol\":1832:2034  function writeUInt256(CBORBuffer memory buf, uint256 value) internal pure {... */\n    tag_114:\n        /* \"@chainlink/contracts@1.1.0/src/v0.8/vendor/solidity-cborutils/v2.0.0/CBOR.sol\":1916:1983  buf.buf.appendUint8(uint8((MAJOR_TYPE_TAG << 5) | TAG_TYPE_BIGNUM)) */\n      tag_190\n        /* \"@chainlink/contracts@1.1.0/src/v0.8/vendor/solidity-cborutils/v2.0.0/CBOR.sol\":1246:1247  2 */\n      0x02\n        /* \"@chainlink/contracts@1.1.0/src/v0.8/vendor/solidity-cborutils/v2.0.0/CBOR.sol\":1961:1962  5 */\n      0x05\n        /* \"@chainlink/contracts@1.1.0/src/v0.8/vendor/solidity-cborutils/v2.0.0/CBOR.sol\":1141:1142  6 */\n      0x06\n        /* \"@chainlink/contracts@1.1.0/src/v0.8/vendor/solidity-cborutils/v2.0.0/CBOR.sol\":1943:1962  MAJOR_TYPE_TAG << 5 */\n      0xff\n      and\n      swap1\n      shl\n        /* \"@chainlink/contracts@1.1.0/src/v0.8/vendor/solidity-cborutils/v2.0.0/CBOR.sol\":1942:1981  (MAJOR_TYPE_TAG << 5) | TAG_TYPE_BIGNUM */\n      or\n        /* \"@chainlink/contracts@1.1.0/src/v0.8/vendor/solidity-cborutils/v2.0.0/CBOR.sol\":1916:1919  buf */\n      dup4\n        /* \"@chainlink/contracts@1.1.0/src/v0.8/vendor/solidity-cborutils/v2.0.0/CBOR.sol\":1916:1923  buf.buf */\n      0x00\n      add\n      mload\n        /* \"@chainlink/contracts@1.1.0/src/v0.8/vendor/solidity-cborutils/v2.0.0/CBOR.sol\":1916:1935  buf.buf.appendUint8 */\n      tag_191\n      swap1\n        /* \"@chainlink/contracts@1.1.0/src/v0.8/vendor/solidity-cborutils/v2.0.0/CBOR.sol\":1916:1983  buf.buf.appendUint8(uint8((MAJOR_TYPE_TAG << 5) | TAG_TYPE_BIGNUM)) */\n      swap2\n      swap1\n      0xffffffff\n      and\n      jump\t// in\n    tag_190:\n      pop\n        /* \"@chainlink/contracts@1.1.0/src/v0.8/vendor/solidity-cborutils/v2.0.0/CBOR.sol\":1993:2027  writeBytes(buf, abi.encode(value)) */\n      tag_192\n        /* \"@chainlink/contracts@1.1.0/src/v0.8/vendor/solidity-cborutils/v2.0.0/CBOR.sol\":2004:2007  buf */\n      dup3\n        /* \"@chainlink/contracts@1.1.0/src/v0.8/vendor/solidity-cborutils/v2.0.0/CBOR.sol\":2020:2025  value */\n      dup3\n        /* \"@chainlink/contracts@1.1.0/src/v0.8/vendor/solidity-cborutils/v2.0.0/CBOR.sol\":2009:2026  abi.encode(value) */\n      add(0x20, mload(0x40))\n      tag_193\n      swap2\n      swap1\n      tag_194\n      jump\t// in\n    tag_193:\n      mload(0x40)\n      0x20\n      dup2\n      dup4\n      sub\n      sub\n      dup2\n      mstore\n      swap1\n      0x40\n      mstore\n        /* \"@chainlink/contracts@1.1.0/src/v0.8/vendor/solidity-cborutils/v2.0.0/CBOR.sol\":1993:2003  writeBytes */\n      tag_148\n        /* \"@chainlink/contracts@1.1.0/src/v0.8/vendor/solidity-cborutils/v2.0.0/CBOR.sol\":1993:2027  writeBytes(buf, abi.encode(value)) */\n      jump\t// in\n    tag_192:\n        /* \"@chainlink/contracts@1.1.0/src/v0.8/vendor/solidity-cborutils/v2.0.0/CBOR.sol\":1832:2034  function writeUInt256(CBORBuffer memory buf, uint256 value) internal pure {... */\n      pop\n      pop\n      jump\t// out\n        /* \"@chainlink/contracts@1.1.0/src/v0.8/vendor/solidity-cborutils/v2.0.0/CBOR.sol\":3607:3753  function startArray(CBORBuffer memory buf) internal pure {... */\n    tag_124:\n        /* \"@chainlink/contracts@1.1.0/src/v0.8/vendor/solidity-cborutils/v2.0.0/CBOR.sol\":3674:3722  writeIndefiniteLengthType(buf, MAJOR_TYPE_ARRAY) */\n      tag_196\n        /* \"@chainlink/contracts@1.1.0/src/v0.8/vendor/solidity-cborutils/v2.0.0/CBOR.sol\":3700:3703  buf */\n      dup2\n        /* \"@chainlink/contracts@1.1.0/src/v0.8/vendor/solidity-cborutils/v2.0.0/CBOR.sol\":1047:1048  4 */\n      0x04\n        /* \"@chainlink/contracts@1.1.0/src/v0.8/vendor/solidity-cborutils/v2.0.0/CBOR.sol\":3674:3699  writeIndefiniteLengthType */\n      tag_197\n        /* \"@chainlink/contracts@1.1.0/src/v0.8/vendor/solidity-cborutils/v2.0.0/CBOR.sol\":3674:3722  writeIndefiniteLengthType(buf, MAJOR_TYPE_ARRAY) */\n      jump\t// in\n    tag_196:\n        /* \"@chainlink/contracts@1.1.0/src/v0.8/vendor/solidity-cborutils/v2.0.0/CBOR.sol\":3745:3746  1 */\n      0x01\n        /* \"@chainlink/contracts@1.1.0/src/v0.8/vendor/solidity-cborutils/v2.0.0/CBOR.sol\":3732:3735  buf */\n      dup2\n        /* \"@chainlink/contracts@1.1.0/src/v0.8/vendor/solidity-cborutils/v2.0.0/CBOR.sol\":3732:3741  buf.depth */\n      0x20\n      add\n        /* \"@chainlink/contracts@1.1.0/src/v0.8/vendor/solidity-cborutils/v2.0.0/CBOR.sol\":3732:3746  buf.depth += 1 */\n      dup2\n      dup2\n      mload\n      tag_198\n      swap2\n      swap1\n      tag_199\n      jump\t// in\n    tag_198:\n      swap2\n      pop\n      dup2\n      dup2\n      mstore\n      pop\n      pop\n        /* \"@chainlink/contracts@1.1.0/src/v0.8/vendor/solidity-cborutils/v2.0.0/CBOR.sol\":3607:3753  function startArray(CBORBuffer memory buf) internal pure {... */\n      pop\n      jump\t// out\n        /* \"@chainlink/contracts@1.1.0/src/v0.8/vendor/solidity-cborutils/v2.0.0/CBOR.sol\":4211:4365  function endSequence(CBORBuffer memory buf) internal pure {... */\n    tag_135:\n        /* \"@chainlink/contracts@1.1.0/src/v0.8/vendor/solidity-cborutils/v2.0.0/CBOR.sol\":4279:4334  writeIndefiniteLengthType(buf, MAJOR_TYPE_CONTENT_FREE) */\n      tag_201\n        /* \"@chainlink/contracts@1.1.0/src/v0.8/vendor/solidity-cborutils/v2.0.0/CBOR.sol\":4305:4308  buf */\n      dup2\n        /* \"@chainlink/contracts@1.1.0/src/v0.8/vendor/solidity-cborutils/v2.0.0/CBOR.sol\":1197:1198  7 */\n      0x07\n        /* \"@chainlink/contracts@1.1.0/src/v0.8/vendor/solidity-cborutils/v2.0.0/CBOR.sol\":4279:4304  writeIndefiniteLengthType */\n      tag_197\n        /* \"@chainlink/contracts@1.1.0/src/v0.8/vendor/solidity-cborutils/v2.0.0/CBOR.sol\":4279:4334  writeIndefiniteLengthType(buf, MAJOR_TYPE_CONTENT_FREE) */\n      jump\t// in\n    tag_201:\n        /* \"@chainlink/contracts@1.1.0/src/v0.8/vendor/solidity-cborutils/v2.0.0/CBOR.sol\":4357:4358  1 */\n      0x01\n        /* \"@chainlink/contracts@1.1.0/src/v0.8/vendor/solidity-cborutils/v2.0.0/CBOR.sol\":4344:4347  buf */\n      dup2\n        /* \"@chainlink/contracts@1.1.0/src/v0.8/vendor/solidity-cborutils/v2.0.0/CBOR.sol\":4344:4353  buf.depth */\n      0x20\n      add\n        /* \"@chainlink/contracts@1.1.0/src/v0.8/vendor/solidity-cborutils/v2.0.0/CBOR.sol\":4344:4358  buf.depth -= 1 */\n      dup2\n      dup2\n      mload\n      tag_202\n      swap2\n      swap1\n      tag_203\n      jump\t// in\n    tag_202:\n      swap2\n      pop\n      dup2\n      dup2\n      mstore\n      pop\n      pop\n        /* \"@chainlink/contracts@1.1.0/src/v0.8/vendor/solidity-cborutils/v2.0.0/CBOR.sol\":4211:4365  function endSequence(CBORBuffer memory buf) internal pure {... */\n      pop\n      jump\t// out\n        /* \"@chainlink/contracts@1.1.0/src/v0.8/vendor/solidity-cborutils/v2.0.0/CBOR.sol\":2828:3015  function writeBytes(CBORBuffer memory buf, bytes memory value) internal pure {... */\n    tag_148:\n        /* \"@chainlink/contracts@1.1.0/src/v0.8/vendor/solidity-cborutils/v2.0.0/CBOR.sol\":2915:2977  writeFixedNumeric(buf, MAJOR_TYPE_BYTES, uint64(value.length)) */\n      tag_205\n        /* \"@chainlink/contracts@1.1.0/src/v0.8/vendor/solidity-cborutils/v2.0.0/CBOR.sol\":2933:2936  buf */\n      dup3\n        /* \"@chainlink/contracts@1.1.0/src/v0.8/vendor/solidity-cborutils/v2.0.0/CBOR.sol\":948:949  2 */\n      0x02\n        /* \"@chainlink/contracts@1.1.0/src/v0.8/vendor/solidity-cborutils/v2.0.0/CBOR.sol\":2963:2968  value */\n      dup4\n        /* \"@chainlink/contracts@1.1.0/src/v0.8/vendor/solidity-cborutils/v2.0.0/CBOR.sol\":2963:2975  value.length */\n      mload\n        /* \"@chainlink/contracts@1.1.0/src/v0.8/vendor/solidity-cborutils/v2.0.0/CBOR.sol\":2915:2932  writeFixedNumeric */\n      tag_184\n        /* \"@chainlink/contracts@1.1.0/src/v0.8/vendor/solidity-cborutils/v2.0.0/CBOR.sol\":2915:2977  writeFixedNumeric(buf, MAJOR_TYPE_BYTES, uint64(value.length)) */\n      jump\t// in\n    tag_205:\n        /* \"@chainlink/contracts@1.1.0/src/v0.8/vendor/solidity-cborutils/v2.0.0/CBOR.sol\":2987:3008  buf.buf.append(value) */\n      tag_206\n        /* \"@chainlink/contracts@1.1.0/src/v0.8/vendor/solidity-cborutils/v2.0.0/CBOR.sol\":3002:3007  value */\n      dup2\n        /* \"@chainlink/contracts@1.1.0/src/v0.8/vendor/solidity-cborutils/v2.0.0/CBOR.sol\":2987:2990  buf */\n      dup4\n        /* \"@chainlink/contracts@1.1.0/src/v0.8/vendor/solidity-cborutils/v2.0.0/CBOR.sol\":2987:2994  buf.buf */\n      0x00\n      add\n      mload\n        /* \"@chainlink/contracts@1.1.0/src/v0.8/vendor/solidity-cborutils/v2.0.0/CBOR.sol\":2987:3001  buf.buf.append */\n      tag_186\n      swap1\n        /* \"@chainlink/contracts@1.1.0/src/v0.8/vendor/solidity-cborutils/v2.0.0/CBOR.sol\":2987:3008  buf.buf.append(value) */\n      swap2\n      swap1\n      0xffffffff\n      and\n      jump\t// in\n    tag_206:\n      pop\n        /* \"@chainlink/contracts@1.1.0/src/v0.8/vendor/solidity-cborutils/v2.0.0/CBOR.sol\":2828:3015  function writeBytes(CBORBuffer memory buf, bytes memory value) internal pure {... */\n      pop\n      pop\n      jump\t// out\n        /* \"@chainlink/contracts@1.1.0/src/v0.8/vendor/@ensdomains/buffer/v0.1.0/Buffer.sol\":1020:1575  function init(buffer memory buf, uint capacity) internal pure returns(buffer memory) {... */\n    tag_181:\n        /* \"@chainlink/contracts@1.1.0/src/v0.8/vendor/@ensdomains/buffer/v0.1.0/Buffer.sol\":1090:1103  buffer memory */\n      tag_207\n      tag_208\n      jump\t// in\n    tag_207:\n        /* \"@chainlink/contracts@1.1.0/src/v0.8/vendor/@ensdomains/buffer/v0.1.0/Buffer.sol\":1136:1137  0 */\n      0x00\n        /* \"@chainlink/contracts@1.1.0/src/v0.8/vendor/@ensdomains/buffer/v0.1.0/Buffer.sol\":1130:1132  32 */\n      0x20\n        /* \"@chainlink/contracts@1.1.0/src/v0.8/vendor/@ensdomains/buffer/v0.1.0/Buffer.sol\":1119:1127  capacity */\n      dup4\n        /* \"@chainlink/contracts@1.1.0/src/v0.8/vendor/@ensdomains/buffer/v0.1.0/Buffer.sol\":1119:1132  capacity % 32 */\n      tag_210\n      swap2\n      swap1\n      tag_211\n      jump\t// in\n    tag_210:\n        /* \"@chainlink/contracts@1.1.0/src/v0.8/vendor/@ensdomains/buffer/v0.1.0/Buffer.sol\":1119:1137  capacity % 32 != 0 */\n      eq\n        /* \"@chainlink/contracts@1.1.0/src/v0.8/vendor/@ensdomains/buffer/v0.1.0/Buffer.sol\":1115:1196  if (capacity % 32 != 0) {... */\n      tag_212\n      jumpi\n        /* \"@chainlink/contracts@1.1.0/src/v0.8/vendor/@ensdomains/buffer/v0.1.0/Buffer.sol\":1182:1184  32 */\n      0x20\n        /* \"@chainlink/contracts@1.1.0/src/v0.8/vendor/@ensdomains/buffer/v0.1.0/Buffer.sol\":1171:1179  capacity */\n      dup3\n        /* \"@chainlink/contracts@1.1.0/src/v0.8/vendor/@ensdomains/buffer/v0.1.0/Buffer.sol\":1171:1184  capacity % 32 */\n      tag_213\n      swap2\n      swap1\n      tag_211\n      jump\t// in\n    tag_213:\n        /* \"@chainlink/contracts@1.1.0/src/v0.8/vendor/@ensdomains/buffer/v0.1.0/Buffer.sol\":1165:1167  32 */\n      0x20\n        /* \"@chainlink/contracts@1.1.0/src/v0.8/vendor/@ensdomains/buffer/v0.1.0/Buffer.sol\":1165:1185  32 - (capacity % 32) */\n      tag_214\n      swap2\n      swap1\n      tag_203\n      jump\t// in\n    tag_214:\n        /* \"@chainlink/contracts@1.1.0/src/v0.8/vendor/@ensdomains/buffer/v0.1.0/Buffer.sol\":1153:1185  capacity += 32 - (capacity % 32) */\n      dup3\n      tag_215\n      swap2\n      swap1\n      tag_199\n      jump\t// in\n    tag_215:\n      swap2\n      pop\n        /* \"@chainlink/contracts@1.1.0/src/v0.8/vendor/@ensdomains/buffer/v0.1.0/Buffer.sol\":1115:1196  if (capacity % 32 != 0) {... */\n    tag_212:\n        /* \"@chainlink/contracts@1.1.0/src/v0.8/vendor/@ensdomains/buffer/v0.1.0/Buffer.sol\":1266:1274  capacity */\n      dup2\n        /* \"@chainlink/contracts@1.1.0/src/v0.8/vendor/@ensdomains/buffer/v0.1.0/Buffer.sol\":1251:1254  buf */\n      dup4\n        /* \"@chainlink/contracts@1.1.0/src/v0.8/vendor/@ensdomains/buffer/v0.1.0/Buffer.sol\":1251:1263  buf.capacity */\n      0x20\n      add\n        /* \"@chainlink/contracts@1.1.0/src/v0.8/vendor/@ensdomains/buffer/v0.1.0/Buffer.sol\":1251:1274  buf.capacity = capacity */\n      dup2\n      dup2\n      mstore\n      pop\n      pop\n        /* \"@chainlink/contracts@1.1.0/src/v0.8/vendor/@ensdomains/buffer/v0.1.0/Buffer.sol\":1324:1328  0x40 */\n      0x40\n        /* \"@chainlink/contracts@1.1.0/src/v0.8/vendor/@ensdomains/buffer/v0.1.0/Buffer.sol\":1318:1329  mload(0x40) */\n      mload\n        /* \"@chainlink/contracts@1.1.0/src/v0.8/vendor/@ensdomains/buffer/v0.1.0/Buffer.sol\":1354:1357  ptr */\n      dup1\n        /* \"@chainlink/contracts@1.1.0/src/v0.8/vendor/@ensdomains/buffer/v0.1.0/Buffer.sol\":1349:1352  buf */\n      dup5\n        /* \"@chainlink/contracts@1.1.0/src/v0.8/vendor/@ensdomains/buffer/v0.1.0/Buffer.sol\":1342:1358  mstore(buf, ptr) */\n      mstore\n        /* \"@chainlink/contracts@1.1.0/src/v0.8/vendor/@ensdomains/buffer/v0.1.0/Buffer.sol\":1383:1384  0 */\n      0x00\n        /* \"@chainlink/contracts@1.1.0/src/v0.8/vendor/@ensdomains/buffer/v0.1.0/Buffer.sol\":1378:1381  ptr */\n      dup2\n        /* \"@chainlink/contracts@1.1.0/src/v0.8/vendor/@ensdomains/buffer/v0.1.0/Buffer.sol\":1371:1385  mstore(ptr, 0) */\n      mstore\n        /* \"@chainlink/contracts@1.1.0/src/v0.8/vendor/@ensdomains/buffer/v0.1.0/Buffer.sol\":1426:1434  capacity */\n      dup3\n        /* \"@chainlink/contracts@1.1.0/src/v0.8/vendor/@ensdomains/buffer/v0.1.0/Buffer.sol\":1421:1424  ptr */\n      dup2\n        /* \"@chainlink/contracts@1.1.0/src/v0.8/vendor/@ensdomains/buffer/v0.1.0/Buffer.sol\":1417:1435  add(ptr, capacity) */\n      add\n        /* \"@chainlink/contracts@1.1.0/src/v0.8/vendor/@ensdomains/buffer/v0.1.0/Buffer.sol\":1413:1415  32 */\n      0x20\n        /* \"@chainlink/contracts@1.1.0/src/v0.8/vendor/@ensdomains/buffer/v0.1.0/Buffer.sol\":1409:1436  add(32, add(ptr, capacity)) */\n      add\n        /* \"@chainlink/contracts@1.1.0/src/v0.8/vendor/@ensdomains/buffer/v0.1.0/Buffer.sol\":1460:1463  ptr */\n      dup2\n        /* \"@chainlink/contracts@1.1.0/src/v0.8/vendor/@ensdomains/buffer/v0.1.0/Buffer.sol\":1455:1458  fpm */\n      dup2\n        /* \"@chainlink/contracts@1.1.0/src/v0.8/vendor/@ensdomains/buffer/v0.1.0/Buffer.sol\":1452:1464  lt(fpm, ptr) */\n      lt\n        /* \"@chainlink/contracts@1.1.0/src/v0.8/vendor/@ensdomains/buffer/v0.1.0/Buffer.sol\":1449:1509  if lt(fpm, ptr) {... */\n      iszero\n      tag_216\n      jumpi\n        /* \"@chainlink/contracts@1.1.0/src/v0.8/vendor/@ensdomains/buffer/v0.1.0/Buffer.sol\":1493:1494  0 */\n      0x00\n        /* \"@chainlink/contracts@1.1.0/src/v0.8/vendor/@ensdomains/buffer/v0.1.0/Buffer.sol\":1490:1491  0 */\n      dup1\n        /* \"@chainlink/contracts@1.1.0/src/v0.8/vendor/@ensdomains/buffer/v0.1.0/Buffer.sol\":1483:1495  revert(0, 0) */\n      revert\n        /* \"@chainlink/contracts@1.1.0/src/v0.8/vendor/@ensdomains/buffer/v0.1.0/Buffer.sol\":1449:1509  if lt(fpm, ptr) {... */\n    tag_216:\n        /* \"@chainlink/contracts@1.1.0/src/v0.8/vendor/@ensdomains/buffer/v0.1.0/Buffer.sol\":1535:1538  fpm */\n      dup1\n        /* \"@chainlink/contracts@1.1.0/src/v0.8/vendor/@ensdomains/buffer/v0.1.0/Buffer.sol\":1529:1533  0x40 */\n      0x40\n        /* \"@chainlink/contracts@1.1.0/src/v0.8/vendor/@ensdomains/buffer/v0.1.0/Buffer.sol\":1522:1539  mstore(0x40, fpm) */\n      mstore\n        /* \"@chainlink/contracts@1.1.0/src/v0.8/vendor/@ensdomains/buffer/v0.1.0/Buffer.sol\":1293:1549  {... */\n      pop\n      pop\n        /* \"@chainlink/contracts@1.1.0/src/v0.8/vendor/@ensdomains/buffer/v0.1.0/Buffer.sol\":1565:1568  buf */\n      dup3\n        /* \"@chainlink/contracts@1.1.0/src/v0.8/vendor/@ensdomains/buffer/v0.1.0/Buffer.sol\":1558:1568  return buf */\n      swap1\n      pop\n        /* \"@chainlink/contracts@1.1.0/src/v0.8/vendor/@ensdomains/buffer/v0.1.0/Buffer.sol\":1020:1575  function init(buffer memory buf, uint capacity) internal pure returns(buffer memory) {... */\n      swap3\n      swap2\n      pop\n      pop\n      jump\t// out\n        /* \"@chainlink/contracts@1.1.0/src/v0.8/vendor/solidity-cborutils/v2.0.0/CBOR.sol\":6156:6915  function writeFixedNumeric(... */\n    tag_184:\n        /* \"@chainlink/contracts@1.1.0/src/v0.8/vendor/solidity-cborutils/v2.0.0/CBOR.sol\":6299:6301  23 */\n      0x17\n        /* \"@chainlink/contracts@1.1.0/src/v0.8/vendor/solidity-cborutils/v2.0.0/CBOR.sol\":6290:6295  value */\n      dup2\n        /* \"@chainlink/contracts@1.1.0/src/v0.8/vendor/solidity-cborutils/v2.0.0/CBOR.sol\":6290:6301  value <= 23 */\n      0xffffffffffffffff\n      and\n      gt\n        /* \"@chainlink/contracts@1.1.0/src/v0.8/vendor/solidity-cborutils/v2.0.0/CBOR.sol\":6286:6909  if (value <= 23) {... */\n      tag_218\n      jumpi\n        /* \"@chainlink/contracts@1.1.0/src/v0.8/vendor/solidity-cborutils/v2.0.0/CBOR.sol\":6317:6365  buf.buf.appendUint8(uint8((major << 5) | value)) */\n      tag_219\n        /* \"@chainlink/contracts@1.1.0/src/v0.8/vendor/solidity-cborutils/v2.0.0/CBOR.sol\":6358:6363  value */\n      dup2\n        /* \"@chainlink/contracts@1.1.0/src/v0.8/vendor/solidity-cborutils/v2.0.0/CBOR.sol\":6353:6354  5 */\n      0x05\n        /* \"@chainlink/contracts@1.1.0/src/v0.8/vendor/solidity-cborutils/v2.0.0/CBOR.sol\":6344:6349  major */\n      dup5\n        /* \"@chainlink/contracts@1.1.0/src/v0.8/vendor/solidity-cborutils/v2.0.0/CBOR.sol\":6344:6354  major << 5 */\n      0xff\n      and\n      swap1\n      shl\n        /* \"@chainlink/contracts@1.1.0/src/v0.8/vendor/solidity-cborutils/v2.0.0/CBOR.sol\":6343:6363  (major << 5) | value */\n      0xff\n      and\n      or\n        /* \"@chainlink/contracts@1.1.0/src/v0.8/vendor/solidity-cborutils/v2.0.0/CBOR.sol\":6317:6320  buf */\n      dup5\n        /* \"@chainlink/contracts@1.1.0/src/v0.8/vendor/solidity-cborutils/v2.0.0/CBOR.sol\":6317:6324  buf.buf */\n      0x00\n      add\n      mload\n        /* \"@chainlink/contracts@1.1.0/src/v0.8/vendor/solidity-cborutils/v2.0.0/CBOR.sol\":6317:6336  buf.buf.appendUint8 */\n      tag_191\n      swap1\n        /* \"@chainlink/contracts@1.1.0/src/v0.8/vendor/solidity-cborutils/v2.0.0/CBOR.sol\":6317:6365  buf.buf.appendUint8(uint8((major << 5) | value)) */\n      swap2\n      swap1\n      0xffffffff\n      and\n      jump\t// in\n    tag_219:\n      pop\n        /* \"@chainlink/contracts@1.1.0/src/v0.8/vendor/solidity-cborutils/v2.0.0/CBOR.sol\":6286:6909  if (value <= 23) {... */\n      jump(tag_220)\n    tag_218:\n        /* \"@chainlink/contracts@1.1.0/src/v0.8/vendor/solidity-cborutils/v2.0.0/CBOR.sol\":6395:6399  0xFF */\n      0xff\n        /* \"@chainlink/contracts@1.1.0/src/v0.8/vendor/solidity-cborutils/v2.0.0/CBOR.sol\":6386:6391  value */\n      dup2\n        /* \"@chainlink/contracts@1.1.0/src/v0.8/vendor/solidity-cborutils/v2.0.0/CBOR.sol\":6386:6399  value <= 0xFF */\n      0xffffffffffffffff\n      and\n      gt\n        /* \"@chainlink/contracts@1.1.0/src/v0.8/vendor/solidity-cborutils/v2.0.0/CBOR.sol\":6382:6909  if (value <= 0xFF) {... */\n      tag_221\n      jumpi\n        /* \"@chainlink/contracts@1.1.0/src/v0.8/vendor/solidity-cborutils/v2.0.0/CBOR.sol\":6415:6460  buf.buf.appendUint8(uint8((major << 5) | 24)) */\n      tag_222\n        /* \"@chainlink/contracts@1.1.0/src/v0.8/vendor/solidity-cborutils/v2.0.0/CBOR.sol\":6456:6458  24 */\n      0x18\n        /* \"@chainlink/contracts@1.1.0/src/v0.8/vendor/solidity-cborutils/v2.0.0/CBOR.sol\":6451:6452  5 */\n      0x05\n        /* \"@chainlink/contracts@1.1.0/src/v0.8/vendor/solidity-cborutils/v2.0.0/CBOR.sol\":6442:6447  major */\n      dup5\n        /* \"@chainlink/contracts@1.1.0/src/v0.8/vendor/solidity-cborutils/v2.0.0/CBOR.sol\":6442:6452  major << 5 */\n      0xff\n      and\n      swap1\n      shl\n        /* \"@chainlink/contracts@1.1.0/src/v0.8/vendor/solidity-cborutils/v2.0.0/CBOR.sol\":6441:6458  (major << 5) | 24 */\n      or\n        /* \"@chainlink/contracts@1.1.0/src/v0.8/vendor/solidity-cborutils/v2.0.0/CBOR.sol\":6415:6418  buf */\n      dup5\n        /* \"@chainlink/contracts@1.1.0/src/v0.8/vendor/solidity-cborutils/v2.0.0/CBOR.sol\":6415:6422  buf.buf */\n      0x00\n      add\n      mload\n        /* \"@chainlink/contracts@1.1.0/src/v0.8/vendor/solidity-cborutils/v2.0.0/CBOR.sol\":6415:6434  buf.buf.appendUint8 */\n      tag_191\n      swap1\n        /* \"@chainlink/contracts@1.1.0/src/v0.8/vendor/solidity-cborutils/v2.0.0/CBOR.sol\":6415:6460  buf.buf.appendUint8(uint8((major << 5) | 24)) */\n      swap2\n      swap1\n      0xffffffff\n      and\n      jump\t// in\n    tag_222:\n      pop\n        /* \"@chainlink/contracts@1.1.0/src/v0.8/vendor/solidity-cborutils/v2.0.0/CBOR.sol\":6474:6501  buf.buf.appendInt(value, 1) */\n      tag_223\n        /* \"@chainlink/contracts@1.1.0/src/v0.8/vendor/solidity-cborutils/v2.0.0/CBOR.sol\":6492:6497  value */\n      dup2\n        /* \"@chainlink/contracts@1.1.0/src/v0.8/vendor/solidity-cborutils/v2.0.0/CBOR.sol\":6474:6501  buf.buf.appendInt(value, 1) */\n      0xffffffffffffffff\n      and\n        /* \"@chainlink/contracts@1.1.0/src/v0.8/vendor/solidity-cborutils/v2.0.0/CBOR.sol\":6499:6500  1 */\n      0x01\n        /* \"@chainlink/contracts@1.1.0/src/v0.8/vendor/solidity-cborutils/v2.0.0/CBOR.sol\":6474:6477  buf */\n      dup6\n        /* \"@chainlink/contracts@1.1.0/src/v0.8/vendor/solidity-cborutils/v2.0.0/CBOR.sol\":6474:6481  buf.buf */\n      0x00\n      add\n      mload\n        /* \"@chainlink/contracts@1.1.0/src/v0.8/vendor/solidity-cborutils/v2.0.0/CBOR.sol\":6474:6491  buf.buf.appendInt */\n      tag_224\n      swap1\n        /* \"@chainlink/contracts@1.1.0/src/v0.8/vendor/solidity-cborutils/v2.0.0/CBOR.sol\":6474:6501  buf.buf.appendInt(value, 1) */\n      swap3\n      swap2\n      swap1\n      0xffffffff\n      and\n      jump\t// in\n    tag_223:\n      pop\n        /* \"@chainlink/contracts@1.1.0/src/v0.8/vendor/solidity-cborutils/v2.0.0/CBOR.sol\":6382:6909  if (value <= 0xFF) {... */\n      jump(tag_225)\n    tag_221:\n        /* \"@chainlink/contracts@1.1.0/src/v0.8/vendor/solidity-cborutils/v2.0.0/CBOR.sol\":6531:6537  0xFFFF */\n      0xffff\n        /* \"@chainlink/contracts@1.1.0/src/v0.8/vendor/solidity-cborutils/v2.0.0/CBOR.sol\":6522:6527  value */\n      dup2\n        /* \"@chainlink/contracts@1.1.0/src/v0.8/vendor/solidity-cborutils/v2.0.0/CBOR.sol\":6522:6537  value <= 0xFFFF */\n      0xffffffffffffffff\n      and\n      gt\n        /* \"@chainlink/contracts@1.1.0/src/v0.8/vendor/solidity-cborutils/v2.0.0/CBOR.sol\":6518:6909  if (value <= 0xFFFF) {... */\n      tag_226\n      jumpi\n        /* \"@chainlink/contracts@1.1.0/src/v0.8/vendor/solidity-cborutils/v2.0.0/CBOR.sol\":6553:6598  buf.buf.appendUint8(uint8((major << 5) | 25)) */\n      tag_227\n        /* \"@chainlink/contracts@1.1.0/src/v0.8/vendor/solidity-cborutils/v2.0.0/CBOR.sol\":6594:6596  25 */\n      0x19\n        /* \"@chainlink/contracts@1.1.0/src/v0.8/vendor/solidity-cborutils/v2.0.0/CBOR.sol\":6589:6590  5 */\n      0x05\n        /* \"@chainlink/contracts@1.1.0/src/v0.8/vendor/solidity-cborutils/v2.0.0/CBOR.sol\":6580:6585  major */\n      dup5\n        /* \"@chainlink/contracts@1.1.0/src/v0.8/vendor/solidity-cborutils/v2.0.0/CBOR.sol\":6580:6590  major << 5 */\n      0xff\n      and\n      swap1\n      shl\n        /* \"@chainlink/contracts@1.1.0/src/v0.8/vendor/solidity-cborutils/v2.0.0/CBOR.sol\":6579:6596  (major << 5) | 25 */\n      or\n        /* \"@chainlink/contracts@1.1.0/src/v0.8/vendor/solidity-cborutils/v2.0.0/CBOR.sol\":6553:6556  buf */\n      dup5\n        /* \"@chainlink/contracts@1.1.0/src/v0.8/vendor/solidity-cborutils/v2.0.0/CBOR.sol\":6553:6560  buf.buf */\n      0x00\n      add\n      mload\n        /* \"@chainlink/contracts@1.1.0/src/v0.8/vendor/solidity-cborutils/v2.0.0/CBOR.sol\":6553:6572  buf.buf.appendUint8 */\n      tag_191\n      swap1\n        /* \"@chainlink/contracts@1.1.0/src/v0.8/vendor/solidity-cborutils/v2.0.0/CBOR.sol\":6553:6598  buf.buf.appendUint8(uint8((major << 5) | 25)) */\n      swap2\n      swap1\n      0xffffffff\n      and\n      jump\t// in\n    tag_227:\n      pop\n        /* \"@chainlink/contracts@1.1.0/src/v0.8/vendor/solidity-cborutils/v2.0.0/CBOR.sol\":6612:6639  buf.buf.appendInt(value, 2) */\n      tag_228\n        /* \"@chainlink/contracts@1.1.0/src/v0.8/vendor/solidity-cborutils/v2.0.0/CBOR.sol\":6630:6635  value */\n      dup2\n        /* \"@chainlink/contracts@1.1.0/src/v0.8/vendor/solidity-cborutils/v2.0.0/CBOR.sol\":6612:6639  buf.buf.appendInt(value, 2) */\n      0xffffffffffffffff\n      and\n        /* \"@chainlink/contracts@1.1.0/src/v0.8/vendor/solidity-cborutils/v2.0.0/CBOR.sol\":6637:6638  2 */\n      0x02\n        /* \"@chainlink/contracts@1.1.0/src/v0.8/vendor/solidity-cborutils/v2.0.0/CBOR.sol\":6612:6615  buf */\n      dup6\n        /* \"@chainlink/contracts@1.1.0/src/v0.8/vendor/solidity-cborutils/v2.0.0/CBOR.sol\":6612:6619  buf.buf */\n      0x00\n      add\n      mload\n        /* \"@chainlink/contracts@1.1.0/src/v0.8/vendor/solidity-cborutils/v2.0.0/CBOR.sol\":6612:6629  buf.buf.appendInt */\n      tag_224\n      swap1\n        /* \"@chainlink/contracts@1.1.0/src/v0.8/vendor/solidity-cborutils/v2.0.0/CBOR.sol\":6612:6639  buf.buf.appendInt(value, 2) */\n      swap3\n      swap2\n      swap1\n      0xffffffff\n      and\n      jump\t// in\n    tag_228:\n      pop\n        /* \"@chainlink/contracts@1.1.0/src/v0.8/vendor/solidity-cborutils/v2.0.0/CBOR.sol\":6518:6909  if (value <= 0xFFFF) {... */\n      jump(tag_229)\n    tag_226:\n        /* \"@chainlink/contracts@1.1.0/src/v0.8/vendor/solidity-cborutils/v2.0.0/CBOR.sol\":6669:6679  0xFFFFFFFF */\n      0xffffffff\n        /* \"@chainlink/contracts@1.1.0/src/v0.8/vendor/solidity-cborutils/v2.0.0/CBOR.sol\":6660:6665  value */\n      dup2\n        /* \"@chainlink/contracts@1.1.0/src/v0.8/vendor/solidity-cborutils/v2.0.0/CBOR.sol\":6660:6679  value <= 0xFFFFFFFF */\n      0xffffffffffffffff\n      and\n      gt\n        /* \"@chainlink/contracts@1.1.0/src/v0.8/vendor/solidity-cborutils/v2.0.0/CBOR.sol\":6656:6909  if (value <= 0xFFFFFFFF) {... */\n      tag_230\n      jumpi\n        /* \"@chainlink/contracts@1.1.0/src/v0.8/vendor/solidity-cborutils/v2.0.0/CBOR.sol\":6695:6740  buf.buf.appendUint8(uint8((major << 5) | 26)) */\n      tag_231\n        /* \"@chainlink/contracts@1.1.0/src/v0.8/vendor/solidity-cborutils/v2.0.0/CBOR.sol\":6736:6738  26 */\n      0x1a\n        /* \"@chainlink/contracts@1.1.0/src/v0.8/vendor/solidity-cborutils/v2.0.0/CBOR.sol\":6731:6732  5 */\n      0x05\n        /* \"@chainlink/contracts@1.1.0/src/v0.8/vendor/solidity-cborutils/v2.0.0/CBOR.sol\":6722:6727  major */\n      dup5\n        /* \"@chainlink/contracts@1.1.0/src/v0.8/vendor/solidity-cborutils/v2.0.0/CBOR.sol\":6722:6732  major << 5 */\n      0xff\n      and\n      swap1\n      shl\n        /* \"@chainlink/contracts@1.1.0/src/v0.8/vendor/solidity-cborutils/v2.0.0/CBOR.sol\":6721:6738  (major << 5) | 26 */\n      or\n        /* \"@chainlink/contracts@1.1.0/src/v0.8/vendor/solidity-cborutils/v2.0.0/CBOR.sol\":6695:6698  buf */\n      dup5\n        /* \"@chainlink/contracts@1.1.0/src/v0.8/vendor/solidity-cborutils/v2.0.0/CBOR.sol\":6695:6702  buf.buf */\n      0x00\n      add\n      mload\n        /* \"@chainlink/contracts@1.1.0/src/v0.8/vendor/solidity-cborutils/v2.0.0/CBOR.sol\":6695:6714  buf.buf.appendUint8 */\n      tag_191\n      swap1\n        /* \"@chainlink/contracts@1.1.0/src/v0.8/vendor/solidity-cborutils/v2.0.0/CBOR.sol\":6695:6740  buf.buf.appendUint8(uint8((major << 5) | 26)) */\n      swap2\n      swap1\n      0xffffffff\n      and\n      jump\t// in\n    tag_231:\n      pop\n        /* \"@chainlink/contracts@1.1.0/src/v0.8/vendor/solidity-cborutils/v2.0.0/CBOR.sol\":6754:6781  buf.buf.appendInt(value, 4) */\n      tag_232\n        /* \"@chainlink/contracts@1.1.0/src/v0.8/vendor/solidity-cborutils/v2.0.0/CBOR.sol\":6772:6777  value */\n      dup2\n        /* \"@chainlink/contracts@1.1.0/src/v0.8/vendor/solidity-cborutils/v2.0.0/CBOR.sol\":6754:6781  buf.buf.appendInt(value, 4) */\n      0xffffffffffffffff\n      and\n        /* \"@chainlink/contracts@1.1.0/src/v0.8/vendor/solidity-cborutils/v2.0.0/CBOR.sol\":6779:6780  4 */\n      0x04\n        /* \"@chainlink/contracts@1.1.0/src/v0.8/vendor/solidity-cborutils/v2.0.0/CBOR.sol\":6754:6757  buf */\n      dup6\n        /* \"@chainlink/contracts@1.1.0/src/v0.8/vendor/solidity-cborutils/v2.0.0/CBOR.sol\":6754:6761  buf.buf */\n      0x00\n      add\n      mload\n        /* \"@chainlink/contracts@1.1.0/src/v0.8/vendor/solidity-cborutils/v2.0.0/CBOR.sol\":6754:6771  buf.buf.appendInt */\n      tag_224\n      swap1\n        /* \"@chainlink/contracts@1.1.0/src/v0.8/vendor/solidity-cborutils/v2.0.0/CBOR.sol\":6754:6781  buf.buf.appendInt(value, 4) */\n      swap3\n      swap2\n      swap1\n      0xffffffff\n      and\n      jump\t// in\n    tag_232:\n      pop\n        /* \"@chainlink/contracts@1.1.0/src/v0.8/vendor/solidity-cborutils/v2.0.0/CBOR.sol\":6656:6909  if (value <= 0xFFFFFFFF) {... */\n      jump(tag_233)\n    tag_230:\n        /* \"@chainlink/contracts@1.1.0/src/v0.8/vendor/solidity-cborutils/v2.0.0/CBOR.sol\":6812:6857  buf.buf.appendUint8(uint8((major << 5) | 27)) */\n      tag_234\n        /* \"@chainlink/contracts@1.1.0/src/v0.8/vendor/solidity-cborutils/v2.0.0/CBOR.sol\":6853:6855  27 */\n      0x1b\n        /* \"@chainlink/contracts@1.1.0/src/v0.8/vendor/solidity-cborutils/v2.0.0/CBOR.sol\":6848:6849  5 */\n      0x05\n        /* \"@chainlink/contracts@1.1.0/src/v0.8/vendor/solidity-cborutils/v2.0.0/CBOR.sol\":6839:6844  major */\n      dup5\n        /* \"@chainlink/contracts@1.1.0/src/v0.8/vendor/solidity-cborutils/v2.0.0/CBOR.sol\":6839:6849  major << 5 */\n      0xff\n      and\n      swap1\n      shl\n        /* \"@chainlink/contracts@1.1.0/src/v0.8/vendor/solidity-cborutils/v2.0.0/CBOR.sol\":6838:6855  (major << 5) | 27 */\n      or\n        /* \"@chainlink/contracts@1.1.0/src/v0.8/vendor/solidity-cborutils/v2.0.0/CBOR.sol\":6812:6815  buf */\n      dup5\n        /* \"@chainlink/contracts@1.1.0/src/v0.8/vendor/solidity-cborutils/v2.0.0/CBOR.sol\":6812:6819  buf.buf */\n      0x00\n      add\n      mload\n        /* \"@chainlink/contracts@1.1.0/src/v0.8/vendor/solidity-cborutils/v2.0.0/CBOR.sol\":6812:6831  buf.buf.appendUint8 */\n      tag_191\n      swap1\n        /* \"@chainlink/contracts@1.1.0/src/v0.8/vendor/solidity-cborutils/v2.0.0/CBOR.sol\":6812:6857  buf.buf.appendUint8(uint8((major << 5) | 27)) */\n      swap2\n      swap1\n      0xffffffff\n      and\n      jump\t// in\n    tag_234:\n      pop\n        /* \"@chainlink/contracts@1.1.0/src/v0.8/vendor/solidity-cborutils/v2.0.0/CBOR.sol\":6871:6898  buf.buf.appendInt(value, 8) */\n      tag_235\n        /* \"@chainlink/contracts@1.1.0/src/v0.8/vendor/solidity-cborutils/v2.0.0/CBOR.sol\":6889:6894  value */\n      dup2\n        /* \"@chainlink/contracts@1.1.0/src/v0.8/vendor/solidity-cborutils/v2.0.0/CBOR.sol\":6871:6898  buf.buf.appendInt(value, 8) */\n      0xffffffffffffffff\n      and\n        /* \"@chainlink/contracts@1.1.0/src/v0.8/vendor/solidity-cborutils/v2.0.0/CBOR.sol\":6896:6897  8 */\n      0x08\n        /* \"@chainlink/contracts@1.1.0/src/v0.8/vendor/solidity-cborutils/v2.0.0/CBOR.sol\":6871:6874  buf */\n      dup6\n        /* \"@chainlink/contracts@1.1.0/src/v0.8/vendor/solidity-cborutils/v2.0.0/CBOR.sol\":6871:6878  buf.buf */\n      0x00\n      add\n      mload\n        /* \"@chainlink/contracts@1.1.0/src/v0.8/vendor/solidity-cborutils/v2.0.0/CBOR.sol\":6871:6888  buf.buf.appendInt */\n      tag_224\n      swap1\n        /* \"@chainlink/contracts@1.1.0/src/v0.8/vendor/solidity-cborutils/v2.0.0/CBOR.sol\":6871:6898  buf.buf.appendInt(value, 8) */\n      swap3\n      swap2\n      swap1\n      0xffffffff\n      and\n      jump\t// in\n    tag_235:\n      pop\n        /* \"@chainlink/contracts@1.1.0/src/v0.8/vendor/solidity-cborutils/v2.0.0/CBOR.sol\":6656:6909  if (value <= 0xFFFFFFFF) {... */\n    tag_233:\n        /* \"@chainlink/contracts@1.1.0/src/v0.8/vendor/solidity-cborutils/v2.0.0/CBOR.sol\":6518:6909  if (value <= 0xFFFF) {... */\n    tag_229:\n        /* \"@chainlink/contracts@1.1.0/src/v0.8/vendor/solidity-cborutils/v2.0.0/CBOR.sol\":6382:6909  if (value <= 0xFF) {... */\n    tag_225:\n        /* \"@chainlink/contracts@1.1.0/src/v0.8/vendor/solidity-cborutils/v2.0.0/CBOR.sol\":6286:6909  if (value <= 23) {... */\n    tag_220:\n        /* \"@chainlink/contracts@1.1.0/src/v0.8/vendor/solidity-cborutils/v2.0.0/CBOR.sol\":6156:6915  function writeFixedNumeric(... */\n      pop\n      pop\n      pop\n      jump\t// out\n        /* \"@chainlink/contracts@1.1.0/src/v0.8/vendor/@ensdomains/buffer/v0.1.0/Buffer.sol\":4539:4685  function append(buffer memory buf, bytes memory data) internal pure returns (buffer memory) {... */\n    tag_186:\n        /* \"@chainlink/contracts@1.1.0/src/v0.8/vendor/@ensdomains/buffer/v0.1.0/Buffer.sol\":4616:4629  buffer memory */\n      tag_236\n      tag_208\n      jump\t// in\n    tag_236:\n        /* \"@chainlink/contracts@1.1.0/src/v0.8/vendor/@ensdomains/buffer/v0.1.0/Buffer.sol\":4648:4678  append(buf, data, data.length) */\n      tag_238\n        /* \"@chainlink/contracts@1.1.0/src/v0.8/vendor/@ensdomains/buffer/v0.1.0/Buffer.sol\":4655:4658  buf */\n      dup4\n        /* \"@chainlink/contracts@1.1.0/src/v0.8/vendor/@ensdomains/buffer/v0.1.0/Buffer.sol\":4660:4664  data */\n      dup4\n        /* \"@chainlink/contracts@1.1.0/src/v0.8/vendor/@ensdomains/buffer/v0.1.0/Buffer.sol\":4666:4670  data */\n      dup5\n        /* \"@chainlink/contracts@1.1.0/src/v0.8/vendor/@ensdomains/buffer/v0.1.0/Buffer.sol\":4666:4677  data.length */\n      mload\n        /* \"@chainlink/contracts@1.1.0/src/v0.8/vendor/@ensdomains/buffer/v0.1.0/Buffer.sol\":4648:4654  append */\n      tag_239\n        /* \"@chainlink/contracts@1.1.0/src/v0.8/vendor/@ensdomains/buffer/v0.1.0/Buffer.sol\":4648:4678  append(buf, data, data.length) */\n      jump\t// in\n    tag_238:\n        /* \"@chainlink/contracts@1.1.0/src/v0.8/vendor/@ensdomains/buffer/v0.1.0/Buffer.sol\":4641:4678  return append(buf, data, data.length) */\n      swap1\n      pop\n        /* \"@chainlink/contracts@1.1.0/src/v0.8/vendor/@ensdomains/buffer/v0.1.0/Buffer.sol\":4539:4685  function append(buffer memory buf, bytes memory data) internal pure returns (buffer memory) {... */\n      swap3\n      swap2\n      pop\n      pop\n      jump\t// out\n        /* \"@chainlink/contracts@1.1.0/src/v0.8/vendor/@ensdomains/buffer/v0.1.0/Buffer.sol\":4948:5647  function appendUint8(buffer memory buf, uint8 data) internal pure returns(buffer memory) {... */\n    tag_191:\n        /* \"@chainlink/contracts@1.1.0/src/v0.8/vendor/@ensdomains/buffer/v0.1.0/Buffer.sol\":5022:5035  buffer memory */\n      tag_240\n      tag_208\n      jump\t// in\n    tag_240:\n        /* \"@chainlink/contracts@1.1.0/src/v0.8/vendor/@ensdomains/buffer/v0.1.0/Buffer.sol\":5047:5055  uint off */\n      0x00\n        /* \"@chainlink/contracts@1.1.0/src/v0.8/vendor/@ensdomains/buffer/v0.1.0/Buffer.sol\":5058:5061  buf */\n      dup4\n        /* \"@chainlink/contracts@1.1.0/src/v0.8/vendor/@ensdomains/buffer/v0.1.0/Buffer.sol\":5058:5065  buf.buf */\n      0x00\n      add\n      mload\n        /* \"@chainlink/contracts@1.1.0/src/v0.8/vendor/@ensdomains/buffer/v0.1.0/Buffer.sol\":5058:5072  buf.buf.length */\n      mload\n        /* \"@chainlink/contracts@1.1.0/src/v0.8/vendor/@ensdomains/buffer/v0.1.0/Buffer.sol\":5047:5072  uint off = buf.buf.length */\n      swap1\n      pop\n        /* \"@chainlink/contracts@1.1.0/src/v0.8/vendor/@ensdomains/buffer/v0.1.0/Buffer.sol\":5082:5097  uint offPlusOne */\n      0x00\n        /* \"@chainlink/contracts@1.1.0/src/v0.8/vendor/@ensdomains/buffer/v0.1.0/Buffer.sol\":5106:5107  1 */\n      0x01\n        /* \"@chainlink/contracts@1.1.0/src/v0.8/vendor/@ensdomains/buffer/v0.1.0/Buffer.sol\":5100:5103  off */\n      dup3\n        /* \"@chainlink/contracts@1.1.0/src/v0.8/vendor/@ensdomains/buffer/v0.1.0/Buffer.sol\":5100:5107  off + 1 */\n      tag_242\n      swap2\n      swap1\n      tag_199\n      jump\t// in\n    tag_242:\n        /* \"@chainlink/contracts@1.1.0/src/v0.8/vendor/@ensdomains/buffer/v0.1.0/Buffer.sol\":5082:5107  uint offPlusOne = off + 1 */\n      swap1\n      pop\n        /* \"@chainlink/contracts@1.1.0/src/v0.8/vendor/@ensdomains/buffer/v0.1.0/Buffer.sol\":5128:5131  buf */\n      dup5\n        /* \"@chainlink/contracts@1.1.0/src/v0.8/vendor/@ensdomains/buffer/v0.1.0/Buffer.sol\":5128:5140  buf.capacity */\n      0x20\n      add\n      mload\n        /* \"@chainlink/contracts@1.1.0/src/v0.8/vendor/@ensdomains/buffer/v0.1.0/Buffer.sol\":5121:5124  off */\n      dup3\n        /* \"@chainlink/contracts@1.1.0/src/v0.8/vendor/@ensdomains/buffer/v0.1.0/Buffer.sol\":5121:5140  off >= buf.capacity */\n      lt\n        /* \"@chainlink/contracts@1.1.0/src/v0.8/vendor/@ensdomains/buffer/v0.1.0/Buffer.sol\":5117:5194  if (off >= buf.capacity) {... */\n      tag_243\n      jumpi\n        /* \"@chainlink/contracts@1.1.0/src/v0.8/vendor/@ensdomains/buffer/v0.1.0/Buffer.sol\":5156:5183  resize(buf, offPlusOne * 2) */\n      tag_244\n        /* \"@chainlink/contracts@1.1.0/src/v0.8/vendor/@ensdomains/buffer/v0.1.0/Buffer.sol\":5163:5166  buf */\n      dup6\n        /* \"@chainlink/contracts@1.1.0/src/v0.8/vendor/@ensdomains/buffer/v0.1.0/Buffer.sol\":5181:5182  2 */\n      0x02\n        /* \"@chainlink/contracts@1.1.0/src/v0.8/vendor/@ensdomains/buffer/v0.1.0/Buffer.sol\":5168:5178  offPlusOne */\n      dup4\n        /* \"@chainlink/contracts@1.1.0/src/v0.8/vendor/@ensdomains/buffer/v0.1.0/Buffer.sol\":5168:5182  offPlusOne * 2 */\n      tag_245\n      swap2\n      swap1\n      tag_246\n      jump\t// in\n    tag_245:\n        /* \"@chainlink/contracts@1.1.0/src/v0.8/vendor/@ensdomains/buffer/v0.1.0/Buffer.sol\":5156:5162  resize */\n      tag_247\n        /* \"@chainlink/contracts@1.1.0/src/v0.8/vendor/@ensdomains/buffer/v0.1.0/Buffer.sol\":5156:5183  resize(buf, offPlusOne * 2) */\n      jump\t// in\n    tag_244:\n        /* \"@chainlink/contracts@1.1.0/src/v0.8/vendor/@ensdomains/buffer/v0.1.0/Buffer.sol\":5117:5194  if (off >= buf.capacity) {... */\n    tag_243:\n        /* \"@chainlink/contracts@1.1.0/src/v0.8/vendor/@ensdomains/buffer/v0.1.0/Buffer.sol\":5296:5299  buf */\n      dup5\n        /* \"@chainlink/contracts@1.1.0/src/v0.8/vendor/@ensdomains/buffer/v0.1.0/Buffer.sol\":5290:5300  mload(buf) */\n      mload\n        /* \"@chainlink/contracts@1.1.0/src/v0.8/vendor/@ensdomains/buffer/v0.1.0/Buffer.sol\":5417:5419  32 */\n      0x20\n        /* \"@chainlink/contracts@1.1.0/src/v0.8/vendor/@ensdomains/buffer/v0.1.0/Buffer.sol\":5411:5414  off */\n      dup4\n        /* \"@chainlink/contracts@1.1.0/src/v0.8/vendor/@ensdomains/buffer/v0.1.0/Buffer.sol\":5403:5409  bufptr */\n      dup3\n        /* \"@chainlink/contracts@1.1.0/src/v0.8/vendor/@ensdomains/buffer/v0.1.0/Buffer.sol\":5399:5415  add(bufptr, off) */\n      add\n        /* \"@chainlink/contracts@1.1.0/src/v0.8/vendor/@ensdomains/buffer/v0.1.0/Buffer.sol\":5395:5420  add(add(bufptr, off), 32) */\n      add\n        /* \"@chainlink/contracts@1.1.0/src/v0.8/vendor/@ensdomains/buffer/v0.1.0/Buffer.sol\":5447:5451  data */\n      dup6\n        /* \"@chainlink/contracts@1.1.0/src/v0.8/vendor/@ensdomains/buffer/v0.1.0/Buffer.sol\":5441:5445  dest */\n      dup2\n        /* \"@chainlink/contracts@1.1.0/src/v0.8/vendor/@ensdomains/buffer/v0.1.0/Buffer.sol\":5433:5452  mstore8(dest, data) */\n      mstore8\n        /* \"@chainlink/contracts@1.1.0/src/v0.8/vendor/@ensdomains/buffer/v0.1.0/Buffer.sol\":5543:5549  bufptr */\n      dup2\n        /* \"@chainlink/contracts@1.1.0/src/v0.8/vendor/@ensdomains/buffer/v0.1.0/Buffer.sol\":5537:5550  mload(bufptr) */\n      mload\n        /* \"@chainlink/contracts@1.1.0/src/v0.8/vendor/@ensdomains/buffer/v0.1.0/Buffer.sol\":5525:5535  offPlusOne */\n      dup4\n        /* \"@chainlink/contracts@1.1.0/src/v0.8/vendor/@ensdomains/buffer/v0.1.0/Buffer.sol\":5522:5551  gt(offPlusOne, mload(bufptr)) */\n      gt\n        /* \"@chainlink/contracts@1.1.0/src/v0.8/vendor/@ensdomains/buffer/v0.1.0/Buffer.sol\":5519:5610  if gt(offPlusOne, mload(bufptr)) {... */\n      iszero\n      tag_248\n      jumpi\n        /* \"@chainlink/contracts@1.1.0/src/v0.8/vendor/@ensdomains/buffer/v0.1.0/Buffer.sol\":5585:5595  offPlusOne */\n      dup3\n        /* \"@chainlink/contracts@1.1.0/src/v0.8/vendor/@ensdomains/buffer/v0.1.0/Buffer.sol\":5577:5583  bufptr */\n      dup3\n        /* \"@chainlink/contracts@1.1.0/src/v0.8/vendor/@ensdomains/buffer/v0.1.0/Buffer.sol\":5570:5596  mstore(bufptr, offPlusOne) */\n      mstore\n        /* \"@chainlink/contracts@1.1.0/src/v0.8/vendor/@ensdomains/buffer/v0.1.0/Buffer.sol\":5519:5610  if gt(offPlusOne, mload(bufptr)) {... */\n    tag_248:\n        /* \"@chainlink/contracts@1.1.0/src/v0.8/vendor/@ensdomains/buffer/v0.1.0/Buffer.sol\":5213:5620  {... */\n      pop\n      pop\n        /* \"@chainlink/contracts@1.1.0/src/v0.8/vendor/@ensdomains/buffer/v0.1.0/Buffer.sol\":5637:5640  buf */\n      dup5\n        /* \"@chainlink/contracts@1.1.0/src/v0.8/vendor/@ensdomains/buffer/v0.1.0/Buffer.sol\":5630:5640  return buf */\n      swap3\n      pop\n      pop\n      pop\n        /* \"@chainlink/contracts@1.1.0/src/v0.8/vendor/@ensdomains/buffer/v0.1.0/Buffer.sol\":4948:5647  function appendUint8(buffer memory buf, uint8 data) internal pure returns(buffer memory) {... */\n      swap3\n      swap2\n      pop\n      pop\n      jump\t// out\n        /* \"@chainlink/contracts@1.1.0/src/v0.8/vendor/solidity-cborutils/v2.0.0/CBOR.sol\":6921:7087  function writeIndefiniteLengthType(CBORBuffer memory buf, uint8 major)... */\n    tag_197:\n        /* \"@chainlink/contracts@1.1.0/src/v0.8/vendor/solidity-cborutils/v2.0.0/CBOR.sol\":7035:7080  buf.buf.appendUint8(uint8((major << 5) | 31)) */\n      tag_250\n        /* \"@chainlink/contracts@1.1.0/src/v0.8/vendor/solidity-cborutils/v2.0.0/CBOR.sol\":7076:7078  31 */\n      0x1f\n        /* \"@chainlink/contracts@1.1.0/src/v0.8/vendor/solidity-cborutils/v2.0.0/CBOR.sol\":7071:7072  5 */\n      0x05\n        /* \"@chainlink/contracts@1.1.0/src/v0.8/vendor/solidity-cborutils/v2.0.0/CBOR.sol\":7062:7067  major */\n      dup4\n        /* \"@chainlink/contracts@1.1.0/src/v0.8/vendor/solidity-cborutils/v2.0.0/CBOR.sol\":7062:7072  major << 5 */\n      0xff\n      and\n      swap1\n      shl\n        /* \"@chainlink/contracts@1.1.0/src/v0.8/vendor/solidity-cborutils/v2.0.0/CBOR.sol\":7061:7078  (major << 5) | 31 */\n      or\n        /* \"@chainlink/contracts@1.1.0/src/v0.8/vendor/solidity-cborutils/v2.0.0/CBOR.sol\":7035:7038  buf */\n      dup4\n        /* \"@chainlink/contracts@1.1.0/src/v0.8/vendor/solidity-cborutils/v2.0.0/CBOR.sol\":7035:7042  buf.buf */\n      0x00\n      add\n      mload\n        /* \"@chainlink/contracts@1.1.0/src/v0.8/vendor/solidity-cborutils/v2.0.0/CBOR.sol\":7035:7054  buf.buf.appendUint8 */\n      tag_191\n      swap1\n        /* \"@chainlink/contracts@1.1.0/src/v0.8/vendor/solidity-cborutils/v2.0.0/CBOR.sol\":7035:7080  buf.buf.appendUint8(uint8((major << 5) | 31)) */\n      swap2\n      swap1\n      0xffffffff\n      and\n      jump\t// in\n    tag_250:\n      pop\n        /* \"@chainlink/contracts@1.1.0/src/v0.8/vendor/solidity-cborutils/v2.0.0/CBOR.sol\":6921:7087  function writeIndefiniteLengthType(CBORBuffer memory buf, uint8 major)... */\n      pop\n      pop\n      jump\t// out\n        /* \"@chainlink/contracts@1.1.0/src/v0.8/vendor/@ensdomains/buffer/v0.1.0/Buffer.sol\":8083:8878  function appendInt(buffer memory buf, uint data, uint len) internal pure returns(buffer memory) {... */\n    tag_224:\n        /* \"@chainlink/contracts@1.1.0/src/v0.8/vendor/@ensdomains/buffer/v0.1.0/Buffer.sol\":8164:8177  buffer memory */\n      tag_251\n      tag_208\n      jump\t// in\n    tag_251:\n        /* \"@chainlink/contracts@1.1.0/src/v0.8/vendor/@ensdomains/buffer/v0.1.0/Buffer.sol\":8189:8197  uint off */\n      0x00\n        /* \"@chainlink/contracts@1.1.0/src/v0.8/vendor/@ensdomains/buffer/v0.1.0/Buffer.sol\":8200:8203  buf */\n      dup5\n        /* \"@chainlink/contracts@1.1.0/src/v0.8/vendor/@ensdomains/buffer/v0.1.0/Buffer.sol\":8200:8207  buf.buf */\n      0x00\n      add\n      mload\n        /* \"@chainlink/contracts@1.1.0/src/v0.8/vendor/@ensdomains/buffer/v0.1.0/Buffer.sol\":8200:8214  buf.buf.length */\n      mload\n        /* \"@chainlink/contracts@1.1.0/src/v0.8/vendor/@ensdomains/buffer/v0.1.0/Buffer.sol\":8189:8214  uint off = buf.buf.length */\n      swap1\n      pop\n        /* \"@chainlink/contracts@1.1.0/src/v0.8/vendor/@ensdomains/buffer/v0.1.0/Buffer.sol\":8224:8240  uint newCapacity */\n      0x00\n        /* \"@chainlink/contracts@1.1.0/src/v0.8/vendor/@ensdomains/buffer/v0.1.0/Buffer.sol\":8249:8252  off */\n      dup2\n        /* \"@chainlink/contracts@1.1.0/src/v0.8/vendor/@ensdomains/buffer/v0.1.0/Buffer.sol\":8243:8246  len */\n      dup5\n        /* \"@chainlink/contracts@1.1.0/src/v0.8/vendor/@ensdomains/buffer/v0.1.0/Buffer.sol\":8243:8252  len + off */\n      tag_253\n      swap2\n      swap1\n      tag_199\n      jump\t// in\n    tag_253:\n        /* \"@chainlink/contracts@1.1.0/src/v0.8/vendor/@ensdomains/buffer/v0.1.0/Buffer.sol\":8224:8252  uint newCapacity = len + off */\n      swap1\n      pop\n        /* \"@chainlink/contracts@1.1.0/src/v0.8/vendor/@ensdomains/buffer/v0.1.0/Buffer.sol\":8280:8283  buf */\n      dup6\n        /* \"@chainlink/contracts@1.1.0/src/v0.8/vendor/@ensdomains/buffer/v0.1.0/Buffer.sol\":8280:8292  buf.capacity */\n      0x20\n      add\n      mload\n        /* \"@chainlink/contracts@1.1.0/src/v0.8/vendor/@ensdomains/buffer/v0.1.0/Buffer.sol\":8266:8277  newCapacity */\n      dup2\n        /* \"@chainlink/contracts@1.1.0/src/v0.8/vendor/@ensdomains/buffer/v0.1.0/Buffer.sol\":8266:8292  newCapacity > buf.capacity */\n      gt\n        /* \"@chainlink/contracts@1.1.0/src/v0.8/vendor/@ensdomains/buffer/v0.1.0/Buffer.sol\":8262:8347  if (newCapacity > buf.capacity) {... */\n      iszero\n      tag_254\n      jumpi\n        /* \"@chainlink/contracts@1.1.0/src/v0.8/vendor/@ensdomains/buffer/v0.1.0/Buffer.sol\":8308:8336  resize(buf, newCapacity * 2) */\n      tag_255\n        /* \"@chainlink/contracts@1.1.0/src/v0.8/vendor/@ensdomains/buffer/v0.1.0/Buffer.sol\":8315:8318  buf */\n      dup7\n        /* \"@chainlink/contracts@1.1.0/src/v0.8/vendor/@ensdomains/buffer/v0.1.0/Buffer.sol\":8334:8335  2 */\n      0x02\n        /* \"@chainlink/contracts@1.1.0/src/v0.8/vendor/@ensdomains/buffer/v0.1.0/Buffer.sol\":8320:8331  newCapacity */\n      dup4\n        /* \"@chainlink/contracts@1.1.0/src/v0.8/vendor/@ensdomains/buffer/v0.1.0/Buffer.sol\":8320:8335  newCapacity * 2 */\n      tag_256\n      swap2\n      swap1\n      tag_246\n      jump\t// in\n    tag_256:\n        /* \"@chainlink/contracts@1.1.0/src/v0.8/vendor/@ensdomains/buffer/v0.1.0/Buffer.sol\":8308:8314  resize */\n      tag_247\n        /* \"@chainlink/contracts@1.1.0/src/v0.8/vendor/@ensdomains/buffer/v0.1.0/Buffer.sol\":8308:8336  resize(buf, newCapacity * 2) */\n      jump\t// in\n    tag_255:\n        /* \"@chainlink/contracts@1.1.0/src/v0.8/vendor/@ensdomains/buffer/v0.1.0/Buffer.sol\":8262:8347  if (newCapacity > buf.capacity) {... */\n    tag_254:\n        /* \"@chainlink/contracts@1.1.0/src/v0.8/vendor/@ensdomains/buffer/v0.1.0/Buffer.sol\":8357:8366  uint mask */\n      0x00\n        /* \"@chainlink/contracts@1.1.0/src/v0.8/vendor/@ensdomains/buffer/v0.1.0/Buffer.sol\":8384:8385  1 */\n      0x01\n        /* \"@chainlink/contracts@1.1.0/src/v0.8/vendor/@ensdomains/buffer/v0.1.0/Buffer.sol\":8377:8380  len */\n      dup6\n        /* \"@chainlink/contracts@1.1.0/src/v0.8/vendor/@ensdomains/buffer/v0.1.0/Buffer.sol\":8370:8373  256 */\n      0x0100\n        /* \"@chainlink/contracts@1.1.0/src/v0.8/vendor/@ensdomains/buffer/v0.1.0/Buffer.sol\":8370:8380  256 ** len */\n      tag_257\n      swap2\n      swap1\n      tag_258\n      jump\t// in\n    tag_257:\n        /* \"@chainlink/contracts@1.1.0/src/v0.8/vendor/@ensdomains/buffer/v0.1.0/Buffer.sol\":8369:8385  (256 ** len) - 1 */\n      tag_259\n      swap2\n      swap1\n      tag_203\n      jump\t// in\n    tag_259:\n        /* \"@chainlink/contracts@1.1.0/src/v0.8/vendor/@ensdomains/buffer/v0.1.0/Buffer.sol\":8357:8385  uint mask = (256 ** len) - 1 */\n      swap1\n      pop\n        /* \"@chainlink/contracts@1.1.0/src/v0.8/vendor/@ensdomains/buffer/v0.1.0/Buffer.sol\":8487:8490  buf */\n      dup7\n        /* \"@chainlink/contracts@1.1.0/src/v0.8/vendor/@ensdomains/buffer/v0.1.0/Buffer.sol\":8481:8491  mload(buf) */\n      mload\n        /* \"@chainlink/contracts@1.1.0/src/v0.8/vendor/@ensdomains/buffer/v0.1.0/Buffer.sol\":8606:8617  newCapacity */\n      dup3\n        /* \"@chainlink/contracts@1.1.0/src/v0.8/vendor/@ensdomains/buffer/v0.1.0/Buffer.sol\":8598:8604  bufptr */\n      dup2\n        /* \"@chainlink/contracts@1.1.0/src/v0.8/vendor/@ensdomains/buffer/v0.1.0/Buffer.sol\":8594:8618  add(bufptr, newCapacity) */\n      add\n        /* \"@chainlink/contracts@1.1.0/src/v0.8/vendor/@ensdomains/buffer/v0.1.0/Buffer.sol\":8676:8680  data */\n      dup8\n        /* \"@chainlink/contracts@1.1.0/src/v0.8/vendor/@ensdomains/buffer/v0.1.0/Buffer.sol\":8668:8672  mask */\n      dup4\n        /* \"@chainlink/contracts@1.1.0/src/v0.8/vendor/@ensdomains/buffer/v0.1.0/Buffer.sol\":8664:8673  not(mask) */\n      not\n        /* \"@chainlink/contracts@1.1.0/src/v0.8/vendor/@ensdomains/buffer/v0.1.0/Buffer.sol\":8657:8661  dest */\n      dup3\n        /* \"@chainlink/contracts@1.1.0/src/v0.8/vendor/@ensdomains/buffer/v0.1.0/Buffer.sol\":8651:8662  mload(dest) */\n      mload\n        /* \"@chainlink/contracts@1.1.0/src/v0.8/vendor/@ensdomains/buffer/v0.1.0/Buffer.sol\":8647:8674  and(mload(dest), not(mask)) */\n      and\n        /* \"@chainlink/contracts@1.1.0/src/v0.8/vendor/@ensdomains/buffer/v0.1.0/Buffer.sol\":8644:8681  or(and(mload(dest), not(mask)), data) */\n      or\n        /* \"@chainlink/contracts@1.1.0/src/v0.8/vendor/@ensdomains/buffer/v0.1.0/Buffer.sol\":8638:8642  dest */\n      dup2\n        /* \"@chainlink/contracts@1.1.0/src/v0.8/vendor/@ensdomains/buffer/v0.1.0/Buffer.sol\":8631:8682  mstore(dest, or(and(mload(dest), not(mask)), data)) */\n      mstore\n        /* \"@chainlink/contracts@1.1.0/src/v0.8/vendor/@ensdomains/buffer/v0.1.0/Buffer.sol\":8774:8780  bufptr */\n      dup2\n        /* \"@chainlink/contracts@1.1.0/src/v0.8/vendor/@ensdomains/buffer/v0.1.0/Buffer.sol\":8768:8781  mload(bufptr) */\n      mload\n        /* \"@chainlink/contracts@1.1.0/src/v0.8/vendor/@ensdomains/buffer/v0.1.0/Buffer.sol\":8755:8766  newCapacity */\n      dup5\n        /* \"@chainlink/contracts@1.1.0/src/v0.8/vendor/@ensdomains/buffer/v0.1.0/Buffer.sol\":8752:8782  gt(newCapacity, mload(bufptr)) */\n      gt\n        /* \"@chainlink/contracts@1.1.0/src/v0.8/vendor/@ensdomains/buffer/v0.1.0/Buffer.sol\":8749:8842  if gt(newCapacity, mload(bufptr)) {... */\n      iszero\n      tag_260\n      jumpi\n        /* \"@chainlink/contracts@1.1.0/src/v0.8/vendor/@ensdomains/buffer/v0.1.0/Buffer.sol\":8816:8827  newCapacity */\n      dup4\n        /* \"@chainlink/contracts@1.1.0/src/v0.8/vendor/@ensdomains/buffer/v0.1.0/Buffer.sol\":8808:8814  bufptr */\n      dup3\n        /* \"@chainlink/contracts@1.1.0/src/v0.8/vendor/@ensdomains/buffer/v0.1.0/Buffer.sol\":8801:8828  mstore(bufptr, newCapacity) */\n      mstore\n        /* \"@chainlink/contracts@1.1.0/src/v0.8/vendor/@ensdomains/buffer/v0.1.0/Buffer.sol\":8749:8842  if gt(newCapacity, mload(bufptr)) {... */\n    tag_260:\n        /* \"@chainlink/contracts@1.1.0/src/v0.8/vendor/@ensdomains/buffer/v0.1.0/Buffer.sol\":8404:8852  {... */\n      pop\n      pop\n        /* \"@chainlink/contracts@1.1.0/src/v0.8/vendor/@ensdomains/buffer/v0.1.0/Buffer.sol\":8868:8871  buf */\n      dup7\n        /* \"@chainlink/contracts@1.1.0/src/v0.8/vendor/@ensdomains/buffer/v0.1.0/Buffer.sol\":8861:8871  return buf */\n      swap4\n      pop\n      pop\n      pop\n      pop\n        /* \"@chainlink/contracts@1.1.0/src/v0.8/vendor/@ensdomains/buffer/v0.1.0/Buffer.sol\":8083:8878  function appendInt(buffer memory buf, uint data, uint len) internal pure returns(buffer memory) {... */\n      swap4\n      swap3\n      pop\n      pop\n      pop\n      jump\t// out\n        /* \"@chainlink/contracts@1.1.0/src/v0.8/vendor/@ensdomains/buffer/v0.1.0/Buffer.sol\":2844:4271  function append(buffer memory buf, bytes memory data, uint len) internal pure returns(buffer memory) {... */\n    tag_239:\n        /* \"@chainlink/contracts@1.1.0/src/v0.8/vendor/@ensdomains/buffer/v0.1.0/Buffer.sol\":2930:2943  buffer memory */\n      tag_261\n      tag_208\n      jump\t// in\n    tag_261:\n        /* \"@chainlink/contracts@1.1.0/src/v0.8/vendor/@ensdomains/buffer/v0.1.0/Buffer.sol\":2970:2974  data */\n      dup3\n        /* \"@chainlink/contracts@1.1.0/src/v0.8/vendor/@ensdomains/buffer/v0.1.0/Buffer.sol\":2970:2981  data.length */\n      mload\n        /* \"@chainlink/contracts@1.1.0/src/v0.8/vendor/@ensdomains/buffer/v0.1.0/Buffer.sol\":2963:2966  len */\n      dup3\n        /* \"@chainlink/contracts@1.1.0/src/v0.8/vendor/@ensdomains/buffer/v0.1.0/Buffer.sol\":2963:2981  len <= data.length */\n      gt\n      iszero\n        /* \"@chainlink/contracts@1.1.0/src/v0.8/vendor/@ensdomains/buffer/v0.1.0/Buffer.sol\":2955:2982  require(len <= data.length) */\n      tag_263\n      jumpi\n      0x00\n      dup1\n      revert\n    tag_263:\n        /* \"@chainlink/contracts@1.1.0/src/v0.8/vendor/@ensdomains/buffer/v0.1.0/Buffer.sol\":2993:3001  uint off */\n      0x00\n        /* \"@chainlink/contracts@1.1.0/src/v0.8/vendor/@ensdomains/buffer/v0.1.0/Buffer.sol\":3004:3007  buf */\n      dup5\n        /* \"@chainlink/contracts@1.1.0/src/v0.8/vendor/@ensdomains/buffer/v0.1.0/Buffer.sol\":3004:3011  buf.buf */\n      0x00\n      add\n      mload\n        /* \"@chainlink/contracts@1.1.0/src/v0.8/vendor/@ensdomains/buffer/v0.1.0/Buffer.sol\":3004:3018  buf.buf.length */\n      mload\n        /* \"@chainlink/contracts@1.1.0/src/v0.8/vendor/@ensdomains/buffer/v0.1.0/Buffer.sol\":2993:3018  uint off = buf.buf.length */\n      swap1\n      pop\n        /* \"@chainlink/contracts@1.1.0/src/v0.8/vendor/@ensdomains/buffer/v0.1.0/Buffer.sol\":3028:3044  uint newCapacity */\n      0x00\n        /* \"@chainlink/contracts@1.1.0/src/v0.8/vendor/@ensdomains/buffer/v0.1.0/Buffer.sol\":3053:3056  len */\n      dup4\n        /* \"@chainlink/contracts@1.1.0/src/v0.8/vendor/@ensdomains/buffer/v0.1.0/Buffer.sol\":3047:3050  off */\n      dup3\n        /* \"@chainlink/contracts@1.1.0/src/v0.8/vendor/@ensdomains/buffer/v0.1.0/Buffer.sol\":3047:3056  off + len */\n      tag_264\n      swap2\n      swap1\n      tag_199\n      jump\t// in\n    tag_264:\n        /* \"@chainlink/contracts@1.1.0/src/v0.8/vendor/@ensdomains/buffer/v0.1.0/Buffer.sol\":3028:3056  uint newCapacity = off + len */\n      swap1\n      pop\n        /* \"@chainlink/contracts@1.1.0/src/v0.8/vendor/@ensdomains/buffer/v0.1.0/Buffer.sol\":3084:3087  buf */\n      dup6\n        /* \"@chainlink/contracts@1.1.0/src/v0.8/vendor/@ensdomains/buffer/v0.1.0/Buffer.sol\":3084:3096  buf.capacity */\n      0x20\n      add\n      mload\n        /* \"@chainlink/contracts@1.1.0/src/v0.8/vendor/@ensdomains/buffer/v0.1.0/Buffer.sol\":3070:3081  newCapacity */\n      dup2\n        /* \"@chainlink/contracts@1.1.0/src/v0.8/vendor/@ensdomains/buffer/v0.1.0/Buffer.sol\":3070:3096  newCapacity > buf.capacity */\n      gt\n        /* \"@chainlink/contracts@1.1.0/src/v0.8/vendor/@ensdomains/buffer/v0.1.0/Buffer.sol\":3066:3151  if (newCapacity > buf.capacity) {... */\n      iszero\n      tag_265\n      jumpi\n        /* \"@chainlink/contracts@1.1.0/src/v0.8/vendor/@ensdomains/buffer/v0.1.0/Buffer.sol\":3112:3140  resize(buf, newCapacity * 2) */\n      tag_266\n        /* \"@chainlink/contracts@1.1.0/src/v0.8/vendor/@ensdomains/buffer/v0.1.0/Buffer.sol\":3119:3122  buf */\n      dup7\n        /* \"@chainlink/contracts@1.1.0/src/v0.8/vendor/@ensdomains/buffer/v0.1.0/Buffer.sol\":3138:3139  2 */\n      0x02\n        /* \"@chainlink/contracts@1.1.0/src/v0.8/vendor/@ensdomains/buffer/v0.1.0/Buffer.sol\":3124:3135  newCapacity */\n      dup4\n        /* \"@chainlink/contracts@1.1.0/src/v0.8/vendor/@ensdomains/buffer/v0.1.0/Buffer.sol\":3124:3139  newCapacity * 2 */\n      tag_267\n      swap2\n      swap1\n      tag_246\n      jump\t// in\n    tag_267:\n        /* \"@chainlink/contracts@1.1.0/src/v0.8/vendor/@ensdomains/buffer/v0.1.0/Buffer.sol\":3112:3118  resize */\n      tag_247\n        /* \"@chainlink/contracts@1.1.0/src/v0.8/vendor/@ensdomains/buffer/v0.1.0/Buffer.sol\":3112:3140  resize(buf, newCapacity * 2) */\n      jump\t// in\n    tag_266:\n        /* \"@chainlink/contracts@1.1.0/src/v0.8/vendor/@ensdomains/buffer/v0.1.0/Buffer.sol\":3066:3151  if (newCapacity > buf.capacity) {... */\n    tag_265:\n        /* \"@chainlink/contracts@1.1.0/src/v0.8/vendor/@ensdomains/buffer/v0.1.0/Buffer.sol\":3161:3170  uint dest */\n      0x00\n        /* \"@chainlink/contracts@1.1.0/src/v0.8/vendor/@ensdomains/buffer/v0.1.0/Buffer.sol\":3180:3188  uint src */\n      dup1\n        /* \"@chainlink/contracts@1.1.0/src/v0.8/vendor/@ensdomains/buffer/v0.1.0/Buffer.sol\":3290:3293  buf */\n      dup8\n        /* \"@chainlink/contracts@1.1.0/src/v0.8/vendor/@ensdomains/buffer/v0.1.0/Buffer.sol\":3284:3294  mload(buf) */\n      mload\n        /* \"@chainlink/contracts@1.1.0/src/v0.8/vendor/@ensdomains/buffer/v0.1.0/Buffer.sol\":3373:3379  bufptr */\n      dup1\n        /* \"@chainlink/contracts@1.1.0/src/v0.8/vendor/@ensdomains/buffer/v0.1.0/Buffer.sol\":3367:3380  mload(bufptr) */\n      mload\n        /* \"@chainlink/contracts@1.1.0/src/v0.8/vendor/@ensdomains/buffer/v0.1.0/Buffer.sol\":3501:3504  off */\n      dup6\n        /* \"@chainlink/contracts@1.1.0/src/v0.8/vendor/@ensdomains/buffer/v0.1.0/Buffer.sol\":3496:3498  32 */\n      0x20\n        /* \"@chainlink/contracts@1.1.0/src/v0.8/vendor/@ensdomains/buffer/v0.1.0/Buffer.sol\":3488:3494  bufptr */\n      dup4\n        /* \"@chainlink/contracts@1.1.0/src/v0.8/vendor/@ensdomains/buffer/v0.1.0/Buffer.sol\":3484:3499  add(bufptr, 32) */\n      add\n        /* \"@chainlink/contracts@1.1.0/src/v0.8/vendor/@ensdomains/buffer/v0.1.0/Buffer.sol\":3480:3505  add(add(bufptr, 32), off) */\n      add\n        /* \"@chainlink/contracts@1.1.0/src/v0.8/vendor/@ensdomains/buffer/v0.1.0/Buffer.sol\":3472:3505  dest := add(add(bufptr, 32), off) */\n      swap4\n      pop\n        /* \"@chainlink/contracts@1.1.0/src/v0.8/vendor/@ensdomains/buffer/v0.1.0/Buffer.sol\":3595:3601  buflen */\n      dup1\n        /* \"@chainlink/contracts@1.1.0/src/v0.8/vendor/@ensdomains/buffer/v0.1.0/Buffer.sol\":3582:3593  newCapacity */\n      dup6\n        /* \"@chainlink/contracts@1.1.0/src/v0.8/vendor/@ensdomains/buffer/v0.1.0/Buffer.sol\":3579:3602  gt(newCapacity, buflen) */\n      gt\n        /* \"@chainlink/contracts@1.1.0/src/v0.8/vendor/@ensdomains/buffer/v0.1.0/Buffer.sol\":3576:3662  if gt(newCapacity, buflen) {... */\n      iszero\n      tag_268\n      jumpi\n        /* \"@chainlink/contracts@1.1.0/src/v0.8/vendor/@ensdomains/buffer/v0.1.0/Buffer.sol\":3636:3647  newCapacity */\n      dup5\n        /* \"@chainlink/contracts@1.1.0/src/v0.8/vendor/@ensdomains/buffer/v0.1.0/Buffer.sol\":3628:3634  bufptr */\n      dup3\n        /* \"@chainlink/contracts@1.1.0/src/v0.8/vendor/@ensdomains/buffer/v0.1.0/Buffer.sol\":3621:3648  mstore(bufptr, newCapacity) */\n      mstore\n        /* \"@chainlink/contracts@1.1.0/src/v0.8/vendor/@ensdomains/buffer/v0.1.0/Buffer.sol\":3576:3662  if gt(newCapacity, buflen) {... */\n    tag_268:\n        /* \"@chainlink/contracts@1.1.0/src/v0.8/vendor/@ensdomains/buffer/v0.1.0/Buffer.sol\":3692:3694  32 */\n      0x20\n        /* \"@chainlink/contracts@1.1.0/src/v0.8/vendor/@ensdomains/buffer/v0.1.0/Buffer.sol\":3686:3690  data */\n      dup10\n        /* \"@chainlink/contracts@1.1.0/src/v0.8/vendor/@ensdomains/buffer/v0.1.0/Buffer.sol\":3682:3695  add(data, 32) */\n      add\n        /* \"@chainlink/contracts@1.1.0/src/v0.8/vendor/@ensdomains/buffer/v0.1.0/Buffer.sol\":3675:3695  src := add(data, 32) */\n      swap3\n      pop\n        /* \"@chainlink/contracts@1.1.0/src/v0.8/vendor/@ensdomains/buffer/v0.1.0/Buffer.sol\":3207:3705  {... */\n      pop\n      pop\n        /* \"@chainlink/contracts@1.1.0/src/v0.8/vendor/@ensdomains/buffer/v0.1.0/Buffer.sol\":3765:3930  for (; len >= 32; len -= 32) {... */\n    tag_269:\n        /* \"@chainlink/contracts@1.1.0/src/v0.8/vendor/@ensdomains/buffer/v0.1.0/Buffer.sol\":3779:3781  32 */\n      0x20\n        /* \"@chainlink/contracts@1.1.0/src/v0.8/vendor/@ensdomains/buffer/v0.1.0/Buffer.sol\":3772:3775  len */\n      dup7\n        /* \"@chainlink/contracts@1.1.0/src/v0.8/vendor/@ensdomains/buffer/v0.1.0/Buffer.sol\":3772:3781  len >= 32 */\n      lt\n        /* \"@chainlink/contracts@1.1.0/src/v0.8/vendor/@ensdomains/buffer/v0.1.0/Buffer.sol\":3765:3930  for (; len >= 32; len -= 32) {... */\n      tag_270\n      jumpi\n        /* \"@chainlink/contracts@1.1.0/src/v0.8/vendor/@ensdomains/buffer/v0.1.0/Buffer.sol\":3854:3857  src */\n      dup1\n        /* \"@chainlink/contracts@1.1.0/src/v0.8/vendor/@ensdomains/buffer/v0.1.0/Buffer.sol\":3848:3858  mload(src) */\n      mload\n        /* \"@chainlink/contracts@1.1.0/src/v0.8/vendor/@ensdomains/buffer/v0.1.0/Buffer.sol\":3842:3846  dest */\n      dup3\n        /* \"@chainlink/contracts@1.1.0/src/v0.8/vendor/@ensdomains/buffer/v0.1.0/Buffer.sol\":3835:3859  mstore(dest, mload(src)) */\n      mstore\n        /* \"@chainlink/contracts@1.1.0/src/v0.8/vendor/@ensdomains/buffer/v0.1.0/Buffer.sol\":3894:3896  32 */\n      0x20\n        /* \"@chainlink/contracts@1.1.0/src/v0.8/vendor/@ensdomains/buffer/v0.1.0/Buffer.sol\":3886:3896  dest += 32 */\n      dup3\n      tag_272\n      swap2\n      swap1\n      tag_199\n      jump\t// in\n    tag_272:\n      swap2\n      pop\n        /* \"@chainlink/contracts@1.1.0/src/v0.8/vendor/@ensdomains/buffer/v0.1.0/Buffer.sol\":3917:3919  32 */\n      0x20\n        /* \"@chainlink/contracts@1.1.0/src/v0.8/vendor/@ensdomains/buffer/v0.1.0/Buffer.sol\":3910:3919  src += 32 */\n      dup2\n      tag_273\n      swap2\n      swap1\n      tag_199\n      jump\t// in\n    tag_273:\n      swap1\n      pop\n        /* \"@chainlink/contracts@1.1.0/src/v0.8/vendor/@ensdomains/buffer/v0.1.0/Buffer.sol\":3790:3792  32 */\n      0x20\n        /* \"@chainlink/contracts@1.1.0/src/v0.8/vendor/@ensdomains/buffer/v0.1.0/Buffer.sol\":3783:3792  len -= 32 */\n      dup7\n      tag_274\n      swap2\n      swap1\n      tag_203\n      jump\t// in\n    tag_274:\n      swap6\n      pop\n        /* \"@chainlink/contracts@1.1.0/src/v0.8/vendor/@ensdomains/buffer/v0.1.0/Buffer.sol\":3765:3930  for (; len >= 32; len -= 32) {... */\n      jump(tag_269)\n    tag_270:\n        /* \"@chainlink/contracts@1.1.0/src/v0.8/vendor/@ensdomains/buffer/v0.1.0/Buffer.sol\":3996:4005  uint mask */\n      0x00\n        /* \"@chainlink/contracts@1.1.0/src/v0.8/vendor/@ensdomains/buffer/v0.1.0/Buffer.sol\":4030:4031  1 */\n      0x01\n        /* \"@chainlink/contracts@1.1.0/src/v0.8/vendor/@ensdomains/buffer/v0.1.0/Buffer.sol\":4022:4025  len */\n      dup8\n        /* \"@chainlink/contracts@1.1.0/src/v0.8/vendor/@ensdomains/buffer/v0.1.0/Buffer.sol\":4017:4019  32 */\n      0x20\n        /* \"@chainlink/contracts@1.1.0/src/v0.8/vendor/@ensdomains/buffer/v0.1.0/Buffer.sol\":4017:4025  32 - len */\n      sub\n        /* \"@chainlink/contracts@1.1.0/src/v0.8/vendor/@ensdomains/buffer/v0.1.0/Buffer.sol\":4009:4012  256 */\n      0x0100\n        /* \"@chainlink/contracts@1.1.0/src/v0.8/vendor/@ensdomains/buffer/v0.1.0/Buffer.sol\":4009:4026  256 ** (32 - len) */\n      exp\n        /* \"@chainlink/contracts@1.1.0/src/v0.8/vendor/@ensdomains/buffer/v0.1.0/Buffer.sol\":4008:4031  (256 ** (32 - len)) - 1 */\n      sub\n        /* \"@chainlink/contracts@1.1.0/src/v0.8/vendor/@ensdomains/buffer/v0.1.0/Buffer.sol\":3996:4031  uint mask = (256 ** (32 - len)) - 1 */\n      swap1\n      pop\n        /* \"@chainlink/contracts@1.1.0/src/v0.8/vendor/@ensdomains/buffer/v0.1.0/Buffer.sol\":4107:4111  mask */\n      dup1\n        /* \"@chainlink/contracts@1.1.0/src/v0.8/vendor/@ensdomains/buffer/v0.1.0/Buffer.sol\":4103:4112  not(mask) */\n      not\n        /* \"@chainlink/contracts@1.1.0/src/v0.8/vendor/@ensdomains/buffer/v0.1.0/Buffer.sol\":4097:4100  src */\n      dup3\n        /* \"@chainlink/contracts@1.1.0/src/v0.8/vendor/@ensdomains/buffer/v0.1.0/Buffer.sol\":4091:4101  mload(src) */\n      mload\n        /* \"@chainlink/contracts@1.1.0/src/v0.8/vendor/@ensdomains/buffer/v0.1.0/Buffer.sol\":4087:4113  and(mload(src), not(mask)) */\n      and\n        /* \"@chainlink/contracts@1.1.0/src/v0.8/vendor/@ensdomains/buffer/v0.1.0/Buffer.sol\":4163:4167  mask */\n      dup2\n        /* \"@chainlink/contracts@1.1.0/src/v0.8/vendor/@ensdomains/buffer/v0.1.0/Buffer.sol\":4156:4160  dest */\n      dup5\n        /* \"@chainlink/contracts@1.1.0/src/v0.8/vendor/@ensdomains/buffer/v0.1.0/Buffer.sol\":4150:4161  mload(dest) */\n      mload\n        /* \"@chainlink/contracts@1.1.0/src/v0.8/vendor/@ensdomains/buffer/v0.1.0/Buffer.sol\":4146:4168  and(mload(dest), mask) */\n      and\n        /* \"@chainlink/contracts@1.1.0/src/v0.8/vendor/@ensdomains/buffer/v0.1.0/Buffer.sol\":4211:4218  srcpart */\n      dup2\n        /* \"@chainlink/contracts@1.1.0/src/v0.8/vendor/@ensdomains/buffer/v0.1.0/Buffer.sol\":4201:4209  destpart */\n      dup2\n        /* \"@chainlink/contracts@1.1.0/src/v0.8/vendor/@ensdomains/buffer/v0.1.0/Buffer.sol\":4198:4219  or(destpart, srcpart) */\n      or\n        /* \"@chainlink/contracts@1.1.0/src/v0.8/vendor/@ensdomains/buffer/v0.1.0/Buffer.sol\":4192:4196  dest */\n      dup6\n        /* \"@chainlink/contracts@1.1.0/src/v0.8/vendor/@ensdomains/buffer/v0.1.0/Buffer.sol\":4185:4220  mstore(dest, or(destpart, srcpart)) */\n      mstore\n        /* \"@chainlink/contracts@1.1.0/src/v0.8/vendor/@ensdomains/buffer/v0.1.0/Buffer.sol\":4054:4234  {... */\n      pop\n      pop\n      pop\n        /* \"@chainlink/contracts@1.1.0/src/v0.8/vendor/@ensdomains/buffer/v0.1.0/Buffer.sol\":4261:4264  buf */\n      dup8\n        /* \"@chainlink/contracts@1.1.0/src/v0.8/vendor/@ensdomains/buffer/v0.1.0/Buffer.sol\":4254:4264  return buf */\n      swap5\n      pop\n      pop\n      pop\n      pop\n      pop\n        /* \"@chainlink/contracts@1.1.0/src/v0.8/vendor/@ensdomains/buffer/v0.1.0/Buffer.sol\":2844:4271  function append(buffer memory buf, bytes memory data, uint len) internal pure returns(buffer memory) {... */\n      swap4\n      swap3\n      pop\n      pop\n      pop\n      jump\t// out\n        /* \"@chainlink/contracts@1.1.0/src/v0.8/vendor/@ensdomains/buffer/v0.1.0/Buffer.sol\":2004:2171  function resize(buffer memory buf, uint capacity) private pure {... */\n    tag_247:\n        /* \"@chainlink/contracts@1.1.0/src/v0.8/vendor/@ensdomains/buffer/v0.1.0/Buffer.sol\":2077:2096  bytes memory oldbuf */\n      0x00\n        /* \"@chainlink/contracts@1.1.0/src/v0.8/vendor/@ensdomains/buffer/v0.1.0/Buffer.sol\":2099:2102  buf */\n      dup3\n        /* \"@chainlink/contracts@1.1.0/src/v0.8/vendor/@ensdomains/buffer/v0.1.0/Buffer.sol\":2099:2106  buf.buf */\n      0x00\n      add\n      mload\n        /* \"@chainlink/contracts@1.1.0/src/v0.8/vendor/@ensdomains/buffer/v0.1.0/Buffer.sol\":2077:2106  bytes memory oldbuf = buf.buf */\n      swap1\n      pop\n        /* \"@chainlink/contracts@1.1.0/src/v0.8/vendor/@ensdomains/buffer/v0.1.0/Buffer.sol\":2116:2135  init(buf, capacity) */\n      tag_276\n        /* \"@chainlink/contracts@1.1.0/src/v0.8/vendor/@ensdomains/buffer/v0.1.0/Buffer.sol\":2121:2124  buf */\n      dup4\n        /* \"@chainlink/contracts@1.1.0/src/v0.8/vendor/@ensdomains/buffer/v0.1.0/Buffer.sol\":2126:2134  capacity */\n      dup4\n        /* \"@chainlink/contracts@1.1.0/src/v0.8/vendor/@ensdomains/buffer/v0.1.0/Buffer.sol\":2116:2120  init */\n      tag_181\n        /* \"@chainlink/contracts@1.1.0/src/v0.8/vendor/@ensdomains/buffer/v0.1.0/Buffer.sol\":2116:2135  init(buf, capacity) */\n      jump\t// in\n    tag_276:\n      pop\n        /* \"@chainlink/contracts@1.1.0/src/v0.8/vendor/@ensdomains/buffer/v0.1.0/Buffer.sol\":2145:2164  append(buf, oldbuf) */\n      tag_277\n        /* \"@chainlink/contracts@1.1.0/src/v0.8/vendor/@ensdomains/buffer/v0.1.0/Buffer.sol\":2152:2155  buf */\n      dup4\n        /* \"@chainlink/contracts@1.1.0/src/v0.8/vendor/@ensdomains/buffer/v0.1.0/Buffer.sol\":2157:2163  oldbuf */\n      dup3\n        /* \"@chainlink/contracts@1.1.0/src/v0.8/vendor/@ensdomains/buffer/v0.1.0/Buffer.sol\":2145:2151  append */\n      tag_186\n        /* \"@chainlink/contracts@1.1.0/src/v0.8/vendor/@ensdomains/buffer/v0.1.0/Buffer.sol\":2145:2164  append(buf, oldbuf) */\n      jump\t// in\n    tag_277:\n      pop\n        /* \"@chainlink/contracts@1.1.0/src/v0.8/vendor/@ensdomains/buffer/v0.1.0/Buffer.sol\":2067:2171  {... */\n      pop\n        /* \"@chainlink/contracts@1.1.0/src/v0.8/vendor/@ensdomains/buffer/v0.1.0/Buffer.sol\":2004:2171  function resize(buffer memory buf, uint capacity) private pure {... */\n      pop\n      pop\n      jump\t// out\n    tag_51:\n      mload(0x40)\n      dup1\n      0xe0\n      add\n      0x40\n      mstore\n      dup1\n      0x00\n      0x02\n      dup2\n      gt\n      iszero\n      tag_278\n      jumpi\n      tag_279\n      tag_88\n      jump\t// in\n    tag_279:\n    tag_278:\n      dup2\n      mstore\n      0x20\n      add\n      0x00\n      0x02\n      dup2\n      gt\n      iszero\n      tag_280\n      jumpi\n      tag_281\n      tag_88\n      jump\t// in\n    tag_281:\n    tag_280:\n      dup2\n      mstore\n      0x20\n      add\n      0x00\n      dup1\n      dup2\n      gt\n      iszero\n      tag_282\n      jumpi\n      tag_283\n      tag_88\n      jump\t// in\n    tag_283:\n    tag_282:\n      dup2\n      mstore\n      0x20\n      add\n      0x60\n      dup2\n      mstore\n      0x20\n      add\n      0x60\n      dup2\n      mstore\n      0x20\n      add\n      0x60\n      dup2\n      mstore\n      0x20\n      add\n      0x60\n      dup2\n      mstore\n      pop\n      swap1\n      jump\t// out\n    tag_178:\n      mload(0x40)\n      dup1\n      0x40\n      add\n      0x40\n      mstore\n      dup1\n      tag_284\n      tag_208\n      jump\t// in\n    tag_284:\n      dup2\n      mstore\n      0x20\n      add\n      0x00\n      dup2\n      mstore\n      pop\n      swap1\n      jump\t// out\n    tag_208:\n      mload(0x40)\n      dup1\n      0x40\n      add\n      0x40\n      mstore\n      dup1\n      0x60\n      dup2\n      mstore\n      0x20\n      add\n      0x00\n      dup2\n      mstore\n      pop\n      swap1\n      jump\t// out\n        /* \"#utility.yul\":7:82   */\n    tag_285:\n        /* \"#utility.yul\":40:46   */\n      0x00\n        /* \"#utility.yul\":73:75   */\n      0x40\n        /* \"#utility.yul\":67:76   */\n      mload\n        /* \"#utility.yul\":57:76   */\n      swap1\n      pop\n        /* \"#utility.yul\":7:82   */\n      swap1\n      jump\t// out\n        /* \"#utility.yul\":88:205   */\n    tag_286:\n        /* \"#utility.yul\":197:198   */\n      0x00\n        /* \"#utility.yul\":194:195   */\n      dup1\n        /* \"#utility.yul\":187:199   */\n      revert\n        /* \"#utility.yul\":211:328   */\n    tag_287:\n        /* \"#utility.yul\":320:321   */\n      0x00\n        /* \"#utility.yul\":317:318   */\n      dup1\n        /* \"#utility.yul\":310:322   */\n      revert\n        /* \"#utility.yul\":334:411   */\n    tag_288:\n        /* \"#utility.yul\":371:378   */\n      0x00\n        /* \"#utility.yul\":400:405   */\n      dup2\n        /* \"#utility.yul\":389:405   */\n      swap1\n      pop\n        /* \"#utility.yul\":334:411   */\n      swap2\n      swap1\n      pop\n      jump\t// out\n        /* \"#utility.yul\":417:539   */\n    tag_289:\n        /* \"#utility.yul\":490:514   */\n      tag_360\n        /* \"#utility.yul\":508:513   */\n      dup2\n        /* \"#utility.yul\":490:514   */\n      tag_288\n      jump\t// in\n    tag_360:\n        /* \"#utility.yul\":483:488   */\n      dup2\n        /* \"#utility.yul\":480:515   */\n      eq\n        /* \"#utility.yul\":470:533   */\n      tag_361\n      jumpi\n        /* \"#utility.yul\":529:530   */\n      0x00\n        /* \"#utility.yul\":526:527   */\n      dup1\n        /* \"#utility.yul\":519:531   */\n      revert\n        /* \"#utility.yul\":470:533   */\n    tag_361:\n        /* \"#utility.yul\":417:539   */\n      pop\n      jump\t// out\n        /* \"#utility.yul\":545:684   */\n    tag_290:\n        /* \"#utility.yul\":591:596   */\n      0x00\n        /* \"#utility.yul\":629:635   */\n      dup2\n        /* \"#utility.yul\":616:636   */\n      calldataload\n        /* \"#utility.yul\":607:636   */\n      swap1\n      pop\n        /* \"#utility.yul\":645:678   */\n      tag_363\n        /* \"#utility.yul\":672:677   */\n      dup2\n        /* \"#utility.yul\":645:678   */\n      tag_289\n      jump\t// in\n    tag_363:\n        /* \"#utility.yul\":545:684   */\n      swap3\n      swap2\n      pop\n      pop\n      jump\t// out\n        /* \"#utility.yul\":690:807   */\n    tag_291:\n        /* \"#utility.yul\":799:800   */\n      0x00\n        /* \"#utility.yul\":796:797   */\n      dup1\n        /* \"#utility.yul\":789:801   */\n      revert\n        /* \"#utility.yul\":813:930   */\n    tag_292:\n        /* \"#utility.yul\":922:923   */\n      0x00\n        /* \"#utility.yul\":919:920   */\n      dup1\n        /* \"#utility.yul\":912:924   */\n      revert\n        /* \"#utility.yul\":936:1038   */\n    tag_293:\n        /* \"#utility.yul\":977:983   */\n      0x00\n        /* \"#utility.yul\":1028:1030   */\n      0x1f\n        /* \"#utility.yul\":1024:1031   */\n      not\n        /* \"#utility.yul\":1019:1021   */\n      0x1f\n        /* \"#utility.yul\":1012:1017   */\n      dup4\n        /* \"#utility.yul\":1008:1022   */\n      add\n        /* \"#utility.yul\":1004:1032   */\n      and\n        /* \"#utility.yul\":994:1032   */\n      swap1\n      pop\n        /* \"#utility.yul\":936:1038   */\n      swap2\n      swap1\n      pop\n      jump\t// out\n        /* \"#utility.yul\":1044:1224   */\n    tag_294:\n        /* \"#utility.yul\":1092:1169   */\n      0x4e487b7100000000000000000000000000000000000000000000000000000000\n        /* \"#utility.yul\":1089:1090   */\n      0x00\n        /* \"#utility.yul\":1082:1170   */\n      mstore\n        /* \"#utility.yul\":1189:1193   */\n      0x41\n        /* \"#utility.yul\":1186:1187   */\n      0x04\n        /* \"#utility.yul\":1179:1194   */\n      mstore\n        /* \"#utility.yul\":1213:1217   */\n      0x24\n        /* \"#utility.yul\":1210:1211   */\n      0x00\n        /* \"#utility.yul\":1203:1218   */\n      revert\n        /* \"#utility.yul\":1230:1511   */\n    tag_295:\n        /* \"#utility.yul\":1313:1340   */\n      tag_369\n        /* \"#utility.yul\":1335:1339   */\n      dup3\n        /* \"#utility.yul\":1313:1340   */\n      tag_293\n      jump\t// in\n    tag_369:\n        /* \"#utility.yul\":1305:1311   */\n      dup2\n        /* \"#utility.yul\":1301:1341   */\n      add\n        /* \"#utility.yul\":1443:1449   */\n      dup2\n        /* \"#utility.yul\":1431:1441   */\n      dup2\n        /* \"#utility.yul\":1428:1450   */\n      lt\n        /* \"#utility.yul\":1407:1425   */\n      0xffffffffffffffff\n        /* \"#utility.yul\":1395:1405   */\n      dup3\n        /* \"#utility.yul\":1392:1426   */\n      gt\n        /* \"#utility.yul\":1389:1451   */\n      or\n        /* \"#utility.yul\":1386:1474   */\n      iszero\n      tag_370\n      jumpi\n        /* \"#utility.yul\":1454:1472   */\n      tag_371\n      tag_294\n      jump\t// in\n    tag_371:\n        /* \"#utility.yul\":1386:1474   */\n    tag_370:\n        /* \"#utility.yul\":1494:1504   */\n      dup1\n        /* \"#utility.yul\":1490:1492   */\n      0x40\n        /* \"#utility.yul\":1483:1505   */\n      mstore\n        /* \"#utility.yul\":1273:1511   */\n      pop\n        /* \"#utility.yul\":1230:1511   */\n      pop\n      pop\n      jump\t// out\n        /* \"#utility.yul\":1517:1646   */\n    tag_296:\n        /* \"#utility.yul\":1551:1557   */\n      0x00\n        /* \"#utility.yul\":1578:1598   */\n      tag_373\n      tag_285\n      jump\t// in\n    tag_373:\n        /* \"#utility.yul\":1568:1598   */\n      swap1\n      pop\n        /* \"#utility.yul\":1607:1640   */\n      tag_374\n        /* \"#utility.yul\":1635:1639   */\n      dup3\n        /* \"#utility.yul\":1627:1633   */\n      dup3\n        /* \"#utility.yul\":1607:1640   */\n      tag_295\n      jump\t// in\n    tag_374:\n        /* \"#utility.yul\":1517:1646   */\n      swap2\n      swap1\n      pop\n      jump\t// out\n        /* \"#utility.yul\":1652:1959   */\n    tag_297:\n        /* \"#utility.yul\":1713:1717   */\n      0x00\n        /* \"#utility.yul\":1803:1821   */\n      0xffffffffffffffff\n        /* \"#utility.yul\":1795:1801   */\n      dup3\n        /* \"#utility.yul\":1792:1822   */\n      gt\n        /* \"#utility.yul\":1789:1845   */\n      iszero\n      tag_376\n      jumpi\n        /* \"#utility.yul\":1825:1843   */\n      tag_377\n      tag_294\n      jump\t// in\n    tag_377:\n        /* \"#utility.yul\":1789:1845   */\n    tag_376:\n        /* \"#utility.yul\":1863:1892   */\n      tag_378\n        /* \"#utility.yul\":1885:1891   */\n      dup3\n        /* \"#utility.yul\":1863:1892   */\n      tag_293\n      jump\t// in\n    tag_378:\n        /* \"#utility.yul\":1855:1892   */\n      swap1\n      pop\n        /* \"#utility.yul\":1947:1951   */\n      0x20\n        /* \"#utility.yul\":1941:1945   */\n      dup2\n        /* \"#utility.yul\":1937:1952   */\n      add\n        /* \"#utility.yul\":1929:1952   */\n      swap1\n      pop\n        /* \"#utility.yul\":1652:1959   */\n      swap2\n      swap1\n      pop\n      jump\t// out\n        /* \"#utility.yul\":1965:2111   */\n    tag_298:\n        /* \"#utility.yul\":2062:2068   */\n      dup3\n        /* \"#utility.yul\":2057:2060   */\n      dup2\n        /* \"#utility.yul\":2052:2055   */\n      dup4\n        /* \"#utility.yul\":2039:2069   */\n      calldatacopy\n        /* \"#utility.yul\":2103:2104   */\n      0x00\n        /* \"#utility.yul\":2094:2100   */\n      dup4\n        /* \"#utility.yul\":2089:2092   */\n      dup4\n        /* \"#utility.yul\":2085:2101   */\n      add\n        /* \"#utility.yul\":2078:2105   */\n      mstore\n        /* \"#utility.yul\":1965:2111   */\n      pop\n      pop\n      pop\n      jump\t// out\n        /* \"#utility.yul\":2117:2540   */\n    tag_299:\n        /* \"#utility.yul\":2194:2199   */\n      0x00\n        /* \"#utility.yul\":2219:2284   */\n      tag_381\n        /* \"#utility.yul\":2235:2283   */\n      tag_382\n        /* \"#utility.yul\":2276:2282   */\n      dup5\n        /* \"#utility.yul\":2235:2283   */\n      tag_297\n      jump\t// in\n    tag_382:\n        /* \"#utility.yul\":2219:2284   */\n      tag_296\n      jump\t// in\n    tag_381:\n        /* \"#utility.yul\":2210:2284   */\n      swap1\n      pop\n        /* \"#utility.yul\":2307:2313   */\n      dup3\n        /* \"#utility.yul\":2300:2305   */\n      dup2\n        /* \"#utility.yul\":2293:2314   */\n      mstore\n        /* \"#utility.yul\":2345:2349   */\n      0x20\n        /* \"#utility.yul\":2338:2343   */\n      dup2\n        /* \"#utility.yul\":2334:2350   */\n      add\n        /* \"#utility.yul\":2383:2386   */\n      dup5\n        /* \"#utility.yul\":2374:2380   */\n      dup5\n        /* \"#utility.yul\":2369:2372   */\n      dup5\n        /* \"#utility.yul\":2365:2381   */\n      add\n        /* \"#utility.yul\":2362:2387   */\n      gt\n        /* \"#utility.yul\":2359:2471   */\n      iszero\n      tag_383\n      jumpi\n        /* \"#utility.yul\":2390:2469   */\n      tag_384\n      tag_292\n      jump\t// in\n    tag_384:\n        /* \"#utility.yul\":2359:2471   */\n    tag_383:\n        /* \"#utility.yul\":2480:2534   */\n      tag_385\n        /* \"#utility.yul\":2527:2533   */\n      dup5\n        /* \"#utility.yul\":2522:2525   */\n      dup3\n        /* \"#utility.yul\":2517:2520   */\n      dup6\n        /* \"#utility.yul\":2480:2534   */\n      tag_298\n      jump\t// in\n    tag_385:\n        /* \"#utility.yul\":2200:2540   */\n      pop\n        /* \"#utility.yul\":2117:2540   */\n      swap4\n      swap3\n      pop\n      pop\n      pop\n      jump\t// out\n        /* \"#utility.yul\":2559:2897   */\n    tag_300:\n        /* \"#utility.yul\":2614:2619   */\n      0x00\n        /* \"#utility.yul\":2663:2666   */\n      dup3\n        /* \"#utility.yul\":2656:2660   */\n      0x1f\n        /* \"#utility.yul\":2648:2654   */\n      dup4\n        /* \"#utility.yul\":2644:2661   */\n      add\n        /* \"#utility.yul\":2640:2667   */\n      slt\n        /* \"#utility.yul\":2630:2752   */\n      tag_387\n      jumpi\n        /* \"#utility.yul\":2671:2750   */\n      tag_388\n      tag_291\n      jump\t// in\n    tag_388:\n        /* \"#utility.yul\":2630:2752   */\n    tag_387:\n        /* \"#utility.yul\":2788:2794   */\n      dup2\n        /* \"#utility.yul\":2775:2795   */\n      calldataload\n        /* \"#utility.yul\":2813:2891   */\n      tag_389\n        /* \"#utility.yul\":2887:2890   */\n      dup5\n        /* \"#utility.yul\":2879:2885   */\n      dup3\n        /* \"#utility.yul\":2872:2876   */\n      0x20\n        /* \"#utility.yul\":2864:2870   */\n      dup7\n        /* \"#utility.yul\":2860:2877   */\n      add\n        /* \"#utility.yul\":2813:2891   */\n      tag_299\n      jump\t// in\n    tag_389:\n        /* \"#utility.yul\":2804:2891   */\n      swap2\n      pop\n        /* \"#utility.yul\":2620:2897   */\n      pop\n        /* \"#utility.yul\":2559:2897   */\n      swap3\n      swap2\n      pop\n      pop\n      jump\t// out\n        /* \"#utility.yul\":2903:3878   */\n    tag_11:\n        /* \"#utility.yul\":2998:3004   */\n      0x00\n        /* \"#utility.yul\":3006:3012   */\n      dup1\n        /* \"#utility.yul\":3014:3020   */\n      0x00\n        /* \"#utility.yul\":3063:3065   */\n      0x60\n        /* \"#utility.yul\":3051:3060   */\n      dup5\n        /* \"#utility.yul\":3042:3049   */\n      dup7\n        /* \"#utility.yul\":3038:3061   */\n      sub\n        /* \"#utility.yul\":3034:3066   */\n      slt\n        /* \"#utility.yul\":3031:3150   */\n      iszero\n      tag_391\n      jumpi\n        /* \"#utility.yul\":3069:3148   */\n      tag_392\n      tag_286\n      jump\t// in\n    tag_392:\n        /* \"#utility.yul\":3031:3150   */\n    tag_391:\n        /* \"#utility.yul\":3189:3190   */\n      0x00\n        /* \"#utility.yul\":3214:3267   */\n      tag_393\n        /* \"#utility.yul\":3259:3266   */\n      dup7\n        /* \"#utility.yul\":3250:3256   */\n      dup3\n        /* \"#utility.yul\":3239:3248   */\n      dup8\n        /* \"#utility.yul\":3235:3257   */\n      add\n        /* \"#utility.yul\":3214:3267   */\n      tag_290\n      jump\t// in\n    tag_393:\n        /* \"#utility.yul\":3204:3267   */\n      swap4\n      pop\n        /* \"#utility.yul\":3160:3277   */\n      pop\n        /* \"#utility.yul\":3344:3346   */\n      0x20\n        /* \"#utility.yul\":3333:3342   */\n      dup5\n        /* \"#utility.yul\":3329:3347   */\n      add\n        /* \"#utility.yul\":3316:3348   */\n      calldataload\n        /* \"#utility.yul\":3375:3393   */\n      0xffffffffffffffff\n        /* \"#utility.yul\":3367:3373   */\n      dup2\n        /* \"#utility.yul\":3364:3394   */\n      gt\n        /* \"#utility.yul\":3361:3478   */\n      iszero\n      tag_394\n      jumpi\n        /* \"#utility.yul\":3397:3476   */\n      tag_395\n      tag_287\n      jump\t// in\n    tag_395:\n        /* \"#utility.yul\":3361:3478   */\n    tag_394:\n        /* \"#utility.yul\":3502:3564   */\n      tag_396\n        /* \"#utility.yul\":3556:3563   */\n      dup7\n        /* \"#utility.yul\":3547:3553   */\n      dup3\n        /* \"#utility.yul\":3536:3545   */\n      dup8\n        /* \"#utility.yul\":3532:3554   */\n      add\n        /* \"#utility.yul\":3502:3564   */\n      tag_300\n      jump\t// in\n    tag_396:\n        /* \"#utility.yul\":3492:3564   */\n      swap3\n      pop\n        /* \"#utility.yul\":3287:3574   */\n      pop\n        /* \"#utility.yul\":3641:3643   */\n      0x40\n        /* \"#utility.yul\":3630:3639   */\n      dup5\n        /* \"#utility.yul\":3626:3644   */\n      add\n        /* \"#utility.yul\":3613:3645   */\n      calldataload\n        /* \"#utility.yul\":3672:3690   */\n      0xffffffffffffffff\n        /* \"#utility.yul\":3664:3670   */\n      dup2\n        /* \"#utility.yul\":3661:3691   */\n      gt\n        /* \"#utility.yul\":3658:3775   */\n      iszero\n      tag_397\n      jumpi\n        /* \"#utility.yul\":3694:3773   */\n      tag_398\n      tag_287\n      jump\t// in\n    tag_398:\n        /* \"#utility.yul\":3658:3775   */\n    tag_397:\n        /* \"#utility.yul\":3799:3861   */\n      tag_399\n        /* \"#utility.yul\":3853:3860   */\n      dup7\n        /* \"#utility.yul\":3844:3850   */\n      dup3\n        /* \"#utility.yul\":3833:3842   */\n      dup8\n        /* \"#utility.yul\":3829:3851   */\n      add\n        /* \"#utility.yul\":3799:3861   */\n      tag_300\n      jump\t// in\n    tag_399:\n        /* \"#utility.yul\":3789:3861   */\n      swap2\n      pop\n        /* \"#utility.yul\":3584:3871   */\n      pop\n        /* \"#utility.yul\":2903:3878   */\n      swap3\n      pop\n      swap3\n      pop\n      swap3\n      jump\t// out\n        /* \"#utility.yul\":3884:3982   */\n    tag_301:\n        /* \"#utility.yul\":3935:3941   */\n      0x00\n        /* \"#utility.yul\":3969:3974   */\n      dup2\n        /* \"#utility.yul\":3963:3975   */\n      mload\n        /* \"#utility.yul\":3953:3975   */\n      swap1\n      pop\n        /* \"#utility.yul\":3884:3982   */\n      swap2\n      swap1\n      pop\n      jump\t// out\n        /* \"#utility.yul\":3988:4156   */\n    tag_302:\n        /* \"#utility.yul\":4071:4082   */\n      0x00\n        /* \"#utility.yul\":4105:4111   */\n      dup3\n        /* \"#utility.yul\":4100:4103   */\n      dup3\n        /* \"#utility.yul\":4093:4112   */\n      mstore\n        /* \"#utility.yul\":4145:4149   */\n      0x20\n        /* \"#utility.yul\":4140:4143   */\n      dup3\n        /* \"#utility.yul\":4136:4150   */\n      add\n        /* \"#utility.yul\":4121:4150   */\n      swap1\n      pop\n        /* \"#utility.yul\":3988:4156   */\n      swap3\n      swap2\n      pop\n      pop\n      jump\t// out\n        /* \"#utility.yul\":4162:4408   */\n    tag_303:\n        /* \"#utility.yul\":4243:4244   */\n      0x00\n        /* \"#utility.yul\":4253:4366   */\n    tag_403:\n        /* \"#utility.yul\":4267:4273   */\n      dup4\n        /* \"#utility.yul\":4264:4265   */\n      dup2\n        /* \"#utility.yul\":4261:4274   */\n      lt\n        /* \"#utility.yul\":4253:4366   */\n      iszero\n      tag_405\n      jumpi\n        /* \"#utility.yul\":4352:4353   */\n      dup1\n        /* \"#utility.yul\":4347:4350   */\n      dup3\n        /* \"#utility.yul\":4343:4354   */\n      add\n        /* \"#utility.yul\":4337:4355   */\n      mload\n        /* \"#utility.yul\":4333:4334   */\n      dup2\n        /* \"#utility.yul\":4328:4331   */\n      dup5\n        /* \"#utility.yul\":4324:4335   */\n      add\n        /* \"#utility.yul\":4317:4356   */\n      mstore\n        /* \"#utility.yul\":4289:4291   */\n      0x20\n        /* \"#utility.yul\":4286:4287   */\n      dup2\n        /* \"#utility.yul\":4282:4292   */\n      add\n        /* \"#utility.yul\":4277:4292   */\n      swap1\n      pop\n        /* \"#utility.yul\":4253:4366   */\n      jump(tag_403)\n    tag_405:\n        /* \"#utility.yul\":4400:4401   */\n      0x00\n        /* \"#utility.yul\":4391:4397   */\n      dup5\n        /* \"#utility.yul\":4386:4389   */\n      dup5\n        /* \"#utility.yul\":4382:4398   */\n      add\n        /* \"#utility.yul\":4375:4402   */\n      mstore\n        /* \"#utility.yul\":4224:4408   */\n      pop\n        /* \"#utility.yul\":4162:4408   */\n      pop\n      pop\n      pop\n      jump\t// out\n        /* \"#utility.yul\":4414:4787   */\n    tag_304:\n        /* \"#utility.yul\":4500:4503   */\n      0x00\n        /* \"#utility.yul\":4528:4566   */\n      tag_407\n        /* \"#utility.yul\":4560:4565   */\n      dup3\n        /* \"#utility.yul\":4528:4566   */\n      tag_301\n      jump\t// in\n    tag_407:\n        /* \"#utility.yul\":4582:4652   */\n      tag_408\n        /* \"#utility.yul\":4645:4651   */\n      dup2\n        /* \"#utility.yul\":4640:4643   */\n      dup6\n        /* \"#utility.yul\":4582:4652   */\n      tag_302\n      jump\t// in\n    tag_408:\n        /* \"#utility.yul\":4575:4652   */\n      swap4\n      pop\n        /* \"#utility.yul\":4661:4726   */\n      tag_409\n        /* \"#utility.yul\":4719:4725   */\n      dup2\n        /* \"#utility.yul\":4714:4717   */\n      dup6\n        /* \"#utility.yul\":4707:4711   */\n      0x20\n        /* \"#utility.yul\":4700:4705   */\n      dup7\n        /* \"#utility.yul\":4696:4712   */\n      add\n        /* \"#utility.yul\":4661:4726   */\n      tag_303\n      jump\t// in\n    tag_409:\n        /* \"#utility.yul\":4751:4780   */\n      tag_410\n        /* \"#utility.yul\":4773:4779   */\n      dup2\n        /* \"#utility.yul\":4751:4780   */\n      tag_293\n      jump\t// in\n    tag_410:\n        /* \"#utility.yul\":4746:4749   */\n      dup5\n        /* \"#utility.yul\":4742:4781   */\n      add\n        /* \"#utility.yul\":4735:4781   */\n      swap2\n      pop\n        /* \"#utility.yul\":4504:4787   */\n      pop\n        /* \"#utility.yul\":4414:4787   */\n      swap3\n      swap2\n      pop\n      pop\n      jump\t// out\n        /* \"#utility.yul\":4793:5102   */\n    tag_16:\n        /* \"#utility.yul\":4904:4908   */\n      0x00\n        /* \"#utility.yul\":4942:4944   */\n      0x20\n        /* \"#utility.yul\":4931:4940   */\n      dup3\n        /* \"#utility.yul\":4927:4945   */\n      add\n        /* \"#utility.yul\":4919:4945   */\n      swap1\n      pop\n        /* \"#utility.yul\":4991:5000   */\n      dup2\n        /* \"#utility.yul\":4985:4989   */\n      dup2\n        /* \"#utility.yul\":4981:5001   */\n      sub\n        /* \"#utility.yul\":4977:4978   */\n      0x00\n        /* \"#utility.yul\":4966:4975   */\n      dup4\n        /* \"#utility.yul\":4962:4979   */\n      add\n        /* \"#utility.yul\":4955:5002   */\n      mstore\n        /* \"#utility.yul\":5019:5095   */\n      tag_412\n        /* \"#utility.yul\":5090:5094   */\n      dup2\n        /* \"#utility.yul\":5081:5087   */\n      dup5\n        /* \"#utility.yul\":5019:5095   */\n      tag_304\n      jump\t// in\n    tag_412:\n        /* \"#utility.yul\":5011:5095   */\n      swap1\n      pop\n        /* \"#utility.yul\":4793:5102   */\n      swap3\n      swap2\n      pop\n      pop\n      jump\t// out\n        /* \"#utility.yul\":5108:5416   */\n    tag_305:\n        /* \"#utility.yul\":5170:5174   */\n      0x00\n        /* \"#utility.yul\":5260:5278   */\n      0xffffffffffffffff\n        /* \"#utility.yul\":5252:5258   */\n      dup3\n        /* \"#utility.yul\":5249:5279   */\n      gt\n        /* \"#utility.yul\":5246:5302   */\n      iszero\n      tag_414\n      jumpi\n        /* \"#utility.yul\":5282:5300   */\n      tag_415\n      tag_294\n      jump\t// in\n    tag_415:\n        /* \"#utility.yul\":5246:5302   */\n    tag_414:\n        /* \"#utility.yul\":5320:5349   */\n      tag_416\n        /* \"#utility.yul\":5342:5348   */\n      dup3\n        /* \"#utility.yul\":5320:5349   */\n      tag_293\n      jump\t// in\n    tag_416:\n        /* \"#utility.yul\":5312:5349   */\n      swap1\n      pop\n        /* \"#utility.yul\":5404:5408   */\n      0x20\n        /* \"#utility.yul\":5398:5402   */\n      dup2\n        /* \"#utility.yul\":5394:5409   */\n      add\n        /* \"#utility.yul\":5386:5409   */\n      swap1\n      pop\n        /* \"#utility.yul\":5108:5416   */\n      swap2\n      swap1\n      pop\n      jump\t// out\n        /* \"#utility.yul\":5422:5847   */\n    tag_306:\n        /* \"#utility.yul\":5500:5505   */\n      0x00\n        /* \"#utility.yul\":5525:5591   */\n      tag_418\n        /* \"#utility.yul\":5541:5590   */\n      tag_419\n        /* \"#utility.yul\":5583:5589   */\n      dup5\n        /* \"#utility.yul\":5541:5590   */\n      tag_305\n      jump\t// in\n    tag_419:\n        /* \"#utility.yul\":5525:5591   */\n      tag_296\n      jump\t// in\n    tag_418:\n        /* \"#utility.yul\":5516:5591   */\n      swap1\n      pop\n        /* \"#utility.yul\":5614:5620   */\n      dup3\n        /* \"#utility.yul\":5607:5612   */\n      dup2\n        /* \"#utility.yul\":5600:5621   */\n      mstore\n        /* \"#utility.yul\":5652:5656   */\n      0x20\n        /* \"#utility.yul\":5645:5650   */\n      dup2\n        /* \"#utility.yul\":5641:5657   */\n      add\n        /* \"#utility.yul\":5690:5693   */\n      dup5\n        /* \"#utility.yul\":5681:5687   */\n      dup5\n        /* \"#utility.yul\":5676:5679   */\n      dup5\n        /* \"#utility.yul\":5672:5688   */\n      add\n        /* \"#utility.yul\":5669:5694   */\n      gt\n        /* \"#utility.yul\":5666:5778   */\n      iszero\n      tag_420\n      jumpi\n        /* \"#utility.yul\":5697:5776   */\n      tag_421\n      tag_292\n      jump\t// in\n    tag_421:\n        /* \"#utility.yul\":5666:5778   */\n    tag_420:\n        /* \"#utility.yul\":5787:5841   */\n      tag_422\n        /* \"#utility.yul\":5834:5840   */\n      dup5\n        /* \"#utility.yul\":5829:5832   */\n      dup3\n        /* \"#utility.yul\":5824:5827   */\n      dup6\n        /* \"#utility.yul\":5787:5841   */\n      tag_298\n      jump\t// in\n    tag_422:\n        /* \"#utility.yul\":5506:5847   */\n      pop\n        /* \"#utility.yul\":5422:5847   */\n      swap4\n      swap3\n      pop\n      pop\n      pop\n      jump\t// out\n        /* \"#utility.yul\":5867:6207   */\n    tag_307:\n        /* \"#utility.yul\":5923:5928   */\n      0x00\n        /* \"#utility.yul\":5972:5975   */\n      dup3\n        /* \"#utility.yul\":5965:5969   */\n      0x1f\n        /* \"#utility.yul\":5957:5963   */\n      dup4\n        /* \"#utility.yul\":5953:5970   */\n      add\n        /* \"#utility.yul\":5949:5976   */\n      slt\n        /* \"#utility.yul\":5939:6061   */\n      tag_424\n      jumpi\n        /* \"#utility.yul\":5980:6059   */\n      tag_425\n      tag_291\n      jump\t// in\n    tag_425:\n        /* \"#utility.yul\":5939:6061   */\n    tag_424:\n        /* \"#utility.yul\":6097:6103   */\n      dup2\n        /* \"#utility.yul\":6084:6104   */\n      calldataload\n        /* \"#utility.yul\":6122:6201   */\n      tag_426\n        /* \"#utility.yul\":6197:6200   */\n      dup5\n        /* \"#utility.yul\":6189:6195   */\n      dup3\n        /* \"#utility.yul\":6182:6186   */\n      0x20\n        /* \"#utility.yul\":6174:6180   */\n      dup7\n        /* \"#utility.yul\":6170:6187   */\n      add\n        /* \"#utility.yul\":6122:6201   */\n      tag_306\n      jump\t// in\n    tag_426:\n        /* \"#utility.yul\":6113:6201   */\n      swap2\n      pop\n        /* \"#utility.yul\":5929:6207   */\n      pop\n        /* \"#utility.yul\":5867:6207   */\n      swap3\n      swap2\n      pop\n      pop\n      jump\t// out\n        /* \"#utility.yul\":6213:6299   */\n    tag_308:\n        /* \"#utility.yul\":6248:6255   */\n      0x00\n        /* \"#utility.yul\":6288:6292   */\n      0xff\n        /* \"#utility.yul\":6281:6286   */\n      dup3\n        /* \"#utility.yul\":6277:6293   */\n      and\n        /* \"#utility.yul\":6266:6293   */\n      swap1\n      pop\n        /* \"#utility.yul\":6213:6299   */\n      swap2\n      swap1\n      pop\n      jump\t// out\n        /* \"#utility.yul\":6305:6423   */\n    tag_309:\n        /* \"#utility.yul\":6376:6398   */\n      tag_429\n        /* \"#utility.yul\":6392:6397   */\n      dup2\n        /* \"#utility.yul\":6376:6398   */\n      tag_308\n      jump\t// in\n    tag_429:\n        /* \"#utility.yul\":6369:6374   */\n      dup2\n        /* \"#utility.yul\":6366:6399   */\n      eq\n        /* \"#utility.yul\":6356:6417   */\n      tag_430\n      jumpi\n        /* \"#utility.yul\":6413:6414   */\n      0x00\n        /* \"#utility.yul\":6410:6411   */\n      dup1\n        /* \"#utility.yul\":6403:6415   */\n      revert\n        /* \"#utility.yul\":6356:6417   */\n    tag_430:\n        /* \"#utility.yul\":6305:6423   */\n      pop\n      jump\t// out\n        /* \"#utility.yul\":6429:6564   */\n    tag_310:\n        /* \"#utility.yul\":6473:6478   */\n      0x00\n        /* \"#utility.yul\":6511:6517   */\n      dup2\n        /* \"#utility.yul\":6498:6518   */\n      calldataload\n        /* \"#utility.yul\":6489:6518   */\n      swap1\n      pop\n        /* \"#utility.yul\":6527:6558   */\n      tag_432\n        /* \"#utility.yul\":6552:6557   */\n      dup2\n        /* \"#utility.yul\":6527:6558   */\n      tag_309\n      jump\t// in\n    tag_432:\n        /* \"#utility.yul\":6429:6564   */\n      swap3\n      swap2\n      pop\n      pop\n      jump\t// out\n        /* \"#utility.yul\":6570:6671   */\n    tag_311:\n        /* \"#utility.yul\":6606:6613   */\n      0x00\n        /* \"#utility.yul\":6646:6664   */\n      0xffffffffffffffff\n        /* \"#utility.yul\":6639:6644   */\n      dup3\n        /* \"#utility.yul\":6635:6665   */\n      and\n        /* \"#utility.yul\":6624:6665   */\n      swap1\n      pop\n        /* \"#utility.yul\":6570:6671   */\n      swap2\n      swap1\n      pop\n      jump\t// out\n        /* \"#utility.yul\":6677:6797   */\n    tag_312:\n        /* \"#utility.yul\":6749:6772   */\n      tag_435\n        /* \"#utility.yul\":6766:6771   */\n      dup2\n        /* \"#utility.yul\":6749:6772   */\n      tag_311\n      jump\t// in\n    tag_435:\n        /* \"#utility.yul\":6742:6747   */\n      dup2\n        /* \"#utility.yul\":6739:6773   */\n      eq\n        /* \"#utility.yul\":6729:6791   */\n      tag_436\n      jumpi\n        /* \"#utility.yul\":6787:6788   */\n      0x00\n        /* \"#utility.yul\":6784:6785   */\n      dup1\n        /* \"#utility.yul\":6777:6789   */\n      revert\n        /* \"#utility.yul\":6729:6791   */\n    tag_436:\n        /* \"#utility.yul\":6677:6797   */\n      pop\n      jump\t// out\n        /* \"#utility.yul\":6803:6940   */\n    tag_313:\n        /* \"#utility.yul\":6848:6853   */\n      0x00\n        /* \"#utility.yul\":6886:6892   */\n      dup2\n        /* \"#utility.yul\":6873:6893   */\n      calldataload\n        /* \"#utility.yul\":6864:6893   */\n      swap1\n      pop\n        /* \"#utility.yul\":6902:6934   */\n      tag_438\n        /* \"#utility.yul\":6928:6933   */\n      dup2\n        /* \"#utility.yul\":6902:6934   */\n      tag_312\n      jump\t// in\n    tag_438:\n        /* \"#utility.yul\":6803:6940   */\n      swap3\n      swap2\n      pop\n      pop\n      jump\t// out\n        /* \"#utility.yul\":6946:7267   */\n    tag_314:\n        /* \"#utility.yul\":7033:7037   */\n      0x00\n        /* \"#utility.yul\":7123:7141   */\n      0xffffffffffffffff\n        /* \"#utility.yul\":7115:7121   */\n      dup3\n        /* \"#utility.yul\":7112:7142   */\n      gt\n        /* \"#utility.yul\":7109:7165   */\n      iszero\n      tag_440\n      jumpi\n        /* \"#utility.yul\":7145:7163   */\n      tag_441\n      tag_294\n      jump\t// in\n    tag_441:\n        /* \"#utility.yul\":7109:7165   */\n    tag_440:\n        /* \"#utility.yul\":7195:7199   */\n      0x20\n        /* \"#utility.yul\":7187:7193   */\n      dup3\n        /* \"#utility.yul\":7183:7200   */\n      mul\n        /* \"#utility.yul\":7175:7200   */\n      swap1\n      pop\n        /* \"#utility.yul\":7255:7259   */\n      0x20\n        /* \"#utility.yul\":7249:7253   */\n      dup2\n        /* \"#utility.yul\":7245:7260   */\n      add\n        /* \"#utility.yul\":7237:7260   */\n      swap1\n      pop\n        /* \"#utility.yul\":6946:7267   */\n      swap2\n      swap1\n      pop\n      jump\t// out\n        /* \"#utility.yul\":7273:7390   */\n    tag_315:\n        /* \"#utility.yul\":7382:7383   */\n      0x00\n        /* \"#utility.yul\":7379:7380   */\n      dup1\n        /* \"#utility.yul\":7372:7384   */\n      revert\n        /* \"#utility.yul\":7412:8357   */\n    tag_316:\n        /* \"#utility.yul\":7518:7523   */\n      0x00\n        /* \"#utility.yul\":7543:7634   */\n      tag_444\n        /* \"#utility.yul\":7559:7633   */\n      tag_445\n        /* \"#utility.yul\":7626:7632   */\n      dup5\n        /* \"#utility.yul\":7559:7633   */\n      tag_314\n      jump\t// in\n    tag_445:\n        /* \"#utility.yul\":7543:7634   */\n      tag_296\n      jump\t// in\n    tag_444:\n        /* \"#utility.yul\":7534:7634   */\n      swap1\n      pop\n        /* \"#utility.yul\":7654:7659   */\n      dup1\n        /* \"#utility.yul\":7683:7689   */\n      dup4\n        /* \"#utility.yul\":7676:7681   */\n      dup3\n        /* \"#utility.yul\":7669:7690   */\n      mstore\n        /* \"#utility.yul\":7717:7721   */\n      0x20\n        /* \"#utility.yul\":7710:7715   */\n      dup3\n        /* \"#utility.yul\":7706:7722   */\n      add\n        /* \"#utility.yul\":7699:7722   */\n      swap1\n      pop\n        /* \"#utility.yul\":7770:7774   */\n      0x20\n        /* \"#utility.yul\":7762:7768   */\n      dup5\n        /* \"#utility.yul\":7758:7775   */\n      mul\n        /* \"#utility.yul\":7750:7756   */\n      dup4\n        /* \"#utility.yul\":7746:7776   */\n      add\n        /* \"#utility.yul\":7799:7802   */\n      dup6\n        /* \"#utility.yul\":7791:7797   */\n      dup2\n        /* \"#utility.yul\":7788:7803   */\n      gt\n        /* \"#utility.yul\":7785:7907   */\n      iszero\n      tag_446\n      jumpi\n        /* \"#utility.yul\":7818:7897   */\n      tag_447\n      tag_315\n      jump\t// in\n    tag_447:\n        /* \"#utility.yul\":7785:7907   */\n    tag_446:\n        /* \"#utility.yul\":7933:7939   */\n      dup4\n        /* \"#utility.yul\":7916:8351   */\n    tag_448:\n        /* \"#utility.yul\":7950:7956   */\n      dup2\n        /* \"#utility.yul\":7945:7948   */\n      dup2\n        /* \"#utility.yul\":7942:7957   */\n      lt\n        /* \"#utility.yul\":7916:8351   */\n      iszero\n      tag_450\n      jumpi\n        /* \"#utility.yul\":8039:8042   */\n      dup1\n        /* \"#utility.yul\":8026:8043   */\n      calldataload\n        /* \"#utility.yul\":8075:8093   */\n      0xffffffffffffffff\n        /* \"#utility.yul\":8062:8073   */\n      dup2\n        /* \"#utility.yul\":8059:8094   */\n      gt\n        /* \"#utility.yul\":8056:8178   */\n      iszero\n      tag_451\n      jumpi\n        /* \"#utility.yul\":8097:8176   */\n      tag_452\n      tag_291\n      jump\t// in\n    tag_452:\n        /* \"#utility.yul\":8056:8178   */\n    tag_451:\n        /* \"#utility.yul\":8221:8232   */\n      dup1\n        /* \"#utility.yul\":8213:8219   */\n      dup7\n        /* \"#utility.yul\":8209:8233   */\n      add\n        /* \"#utility.yul\":8259:8306   */\n      tag_453\n        /* \"#utility.yul\":8302:8305   */\n      dup10\n        /* \"#utility.yul\":8290:8300   */\n      dup3\n        /* \"#utility.yul\":8259:8306   */\n      tag_307\n      jump\t// in\n    tag_453:\n        /* \"#utility.yul\":8254:8257   */\n      dup6\n        /* \"#utility.yul\":8247:8307   */\n      mstore\n        /* \"#utility.yul\":8336:8340   */\n      0x20\n        /* \"#utility.yul\":8331:8334   */\n      dup6\n        /* \"#utility.yul\":8327:8341   */\n      add\n        /* \"#utility.yul\":8320:8341   */\n      swap5\n      pop\n        /* \"#utility.yul\":7992:8351   */\n      pop\n      pop\n        /* \"#utility.yul\":7976:7980   */\n      0x20\n        /* \"#utility.yul\":7971:7974   */\n      dup2\n        /* \"#utility.yul\":7967:7981   */\n      add\n        /* \"#utility.yul\":7960:7981   */\n      swap1\n      pop\n        /* \"#utility.yul\":7916:8351   */\n      jump(tag_448)\n    tag_450:\n        /* \"#utility.yul\":7920:7941   */\n      pop\n        /* \"#utility.yul\":7524:8357   */\n      pop\n      pop\n        /* \"#utility.yul\":7412:8357   */\n      swap4\n      swap3\n      pop\n      pop\n      pop\n      jump\t// out\n        /* \"#utility.yul\":8379:8769   */\n    tag_317:\n        /* \"#utility.yul\":8460:8465   */\n      0x00\n        /* \"#utility.yul\":8509:8512   */\n      dup3\n        /* \"#utility.yul\":8502:8506   */\n      0x1f\n        /* \"#utility.yul\":8494:8500   */\n      dup4\n        /* \"#utility.yul\":8490:8507   */\n      add\n        /* \"#utility.yul\":8486:8513   */\n      slt\n        /* \"#utility.yul\":8476:8598   */\n      tag_455\n      jumpi\n        /* \"#utility.yul\":8517:8596   */\n      tag_456\n      tag_291\n      jump\t// in\n    tag_456:\n        /* \"#utility.yul\":8476:8598   */\n    tag_455:\n        /* \"#utility.yul\":8634:8640   */\n      dup2\n        /* \"#utility.yul\":8621:8641   */\n      calldataload\n        /* \"#utility.yul\":8659:8763   */\n      tag_457\n        /* \"#utility.yul\":8759:8762   */\n      dup5\n        /* \"#utility.yul\":8751:8757   */\n      dup3\n        /* \"#utility.yul\":8744:8748   */\n      0x20\n        /* \"#utility.yul\":8736:8742   */\n      dup7\n        /* \"#utility.yul\":8732:8749   */\n      add\n        /* \"#utility.yul\":8659:8763   */\n      tag_316\n      jump\t// in\n    tag_457:\n        /* \"#utility.yul\":8650:8763   */\n      swap2\n      pop\n        /* \"#utility.yul\":8466:8769   */\n      pop\n        /* \"#utility.yul\":8379:8769   */\n      swap3\n      swap2\n      pop\n      pop\n      jump\t// out\n        /* \"#utility.yul\":8775:9095   */\n    tag_318:\n        /* \"#utility.yul\":8861:8865   */\n      0x00\n        /* \"#utility.yul\":8951:8969   */\n      0xffffffffffffffff\n        /* \"#utility.yul\":8943:8949   */\n      dup3\n        /* \"#utility.yul\":8940:8970   */\n      gt\n        /* \"#utility.yul\":8937:8993   */\n      iszero\n      tag_459\n      jumpi\n        /* \"#utility.yul\":8973:8991   */\n      tag_460\n      tag_294\n      jump\t// in\n    tag_460:\n        /* \"#utility.yul\":8937:8993   */\n    tag_459:\n        /* \"#utility.yul\":9023:9027   */\n      0x20\n        /* \"#utility.yul\":9015:9021   */\n      dup3\n        /* \"#utility.yul\":9011:9028   */\n      mul\n        /* \"#utility.yul\":9003:9028   */\n      swap1\n      pop\n        /* \"#utility.yul\":9083:9087   */\n      0x20\n        /* \"#utility.yul\":9077:9081   */\n      dup2\n        /* \"#utility.yul\":9073:9088   */\n      add\n        /* \"#utility.yul\":9065:9088   */\n      swap1\n      pop\n        /* \"#utility.yul\":8775:9095   */\n      swap2\n      swap1\n      pop\n      jump\t// out\n        /* \"#utility.yul\":9116:10058   */\n    tag_319:\n        /* \"#utility.yul\":9221:9226   */\n      0x00\n        /* \"#utility.yul\":9246:9336   */\n      tag_462\n        /* \"#utility.yul\":9262:9335   */\n      tag_463\n        /* \"#utility.yul\":9328:9334   */\n      dup5\n        /* \"#utility.yul\":9262:9335   */\n      tag_318\n      jump\t// in\n    tag_463:\n        /* \"#utility.yul\":9246:9336   */\n      tag_296\n      jump\t// in\n    tag_462:\n        /* \"#utility.yul\":9237:9336   */\n      swap1\n      pop\n        /* \"#utility.yul\":9356:9361   */\n      dup1\n        /* \"#utility.yul\":9385:9391   */\n      dup4\n        /* \"#utility.yul\":9378:9383   */\n      dup3\n        /* \"#utility.yul\":9371:9392   */\n      mstore\n        /* \"#utility.yul\":9419:9423   */\n      0x20\n        /* \"#utility.yul\":9412:9417   */\n      dup3\n        /* \"#utility.yul\":9408:9424   */\n      add\n        /* \"#utility.yul\":9401:9424   */\n      swap1\n      pop\n        /* \"#utility.yul\":9472:9476   */\n      0x20\n        /* \"#utility.yul\":9464:9470   */\n      dup5\n        /* \"#utility.yul\":9460:9477   */\n      mul\n        /* \"#utility.yul\":9452:9458   */\n      dup4\n        /* \"#utility.yul\":9448:9478   */\n      add\n        /* \"#utility.yul\":9501:9504   */\n      dup6\n        /* \"#utility.yul\":9493:9499   */\n      dup2\n        /* \"#utility.yul\":9490:9505   */\n      gt\n        /* \"#utility.yul\":9487:9609   */\n      iszero\n      tag_464\n      jumpi\n        /* \"#utility.yul\":9520:9599   */\n      tag_465\n      tag_315\n      jump\t// in\n    tag_465:\n        /* \"#utility.yul\":9487:9609   */\n    tag_464:\n        /* \"#utility.yul\":9635:9641   */\n      dup4\n        /* \"#utility.yul\":9618:10052   */\n    tag_466:\n        /* \"#utility.yul\":9652:9658   */\n      dup2\n        /* \"#utility.yul\":9647:9650   */\n      dup2\n        /* \"#utility.yul\":9644:9659   */\n      lt\n        /* \"#utility.yul\":9618:10052   */\n      iszero\n      tag_468\n      jumpi\n        /* \"#utility.yul\":9741:9744   */\n      dup1\n        /* \"#utility.yul\":9728:9745   */\n      calldataload\n        /* \"#utility.yul\":9777:9795   */\n      0xffffffffffffffff\n        /* \"#utility.yul\":9764:9775   */\n      dup2\n        /* \"#utility.yul\":9761:9796   */\n      gt\n        /* \"#utility.yul\":9758:9880   */\n      iszero\n      tag_469\n      jumpi\n        /* \"#utility.yul\":9799:9878   */\n      tag_470\n      tag_291\n      jump\t// in\n    tag_470:\n        /* \"#utility.yul\":9758:9880   */\n    tag_469:\n        /* \"#utility.yul\":9923:9934   */\n      dup1\n        /* \"#utility.yul\":9915:9921   */\n      dup7\n        /* \"#utility.yul\":9911:9935   */\n      add\n        /* \"#utility.yul\":9961:10007   */\n      tag_471\n        /* \"#utility.yul\":10003:10006   */\n      dup10\n        /* \"#utility.yul\":9991:10001   */\n      dup3\n        /* \"#utility.yul\":9961:10007   */\n      tag_300\n      jump\t// in\n    tag_471:\n        /* \"#utility.yul\":9956:9959   */\n      dup6\n        /* \"#utility.yul\":9949:10008   */\n      mstore\n        /* \"#utility.yul\":10037:10041   */\n      0x20\n        /* \"#utility.yul\":10032:10035   */\n      dup6\n        /* \"#utility.yul\":10028:10042   */\n      add\n        /* \"#utility.yul\":10021:10042   */\n      swap5\n      pop\n        /* \"#utility.yul\":9694:10052   */\n      pop\n      pop\n        /* \"#utility.yul\":9678:9682   */\n      0x20\n        /* \"#utility.yul\":9673:9676   */\n      dup2\n        /* \"#utility.yul\":9669:9683   */\n      add\n        /* \"#utility.yul\":9662:9683   */\n      swap1\n      pop\n        /* \"#utility.yul\":9618:10052   */\n      jump(tag_466)\n    tag_468:\n        /* \"#utility.yul\":9622:9643   */\n      pop\n        /* \"#utility.yul\":9227:10058   */\n      pop\n      pop\n        /* \"#utility.yul\":9116:10058   */\n      swap4\n      swap3\n      pop\n      pop\n      pop\n      jump\t// out\n        /* \"#utility.yul\":10079:10467   */\n    tag_320:\n        /* \"#utility.yul\":10159:10164   */\n      0x00\n        /* \"#utility.yul\":10208:10211   */\n      dup3\n        /* \"#utility.yul\":10201:10205   */\n      0x1f\n        /* \"#utility.yul\":10193:10199   */\n      dup4\n        /* \"#utility.yul\":10189:10206   */\n      add\n        /* \"#utility.yul\":10185:10212   */\n      slt\n        /* \"#utility.yul\":10175:10297   */\n      tag_473\n      jumpi\n        /* \"#utility.yul\":10216:10295   */\n      tag_474\n      tag_291\n      jump\t// in\n    tag_474:\n        /* \"#utility.yul\":10175:10297   */\n    tag_473:\n        /* \"#utility.yul\":10333:10339   */\n      dup2\n        /* \"#utility.yul\":10320:10340   */\n      calldataload\n        /* \"#utility.yul\":10358:10461   */\n      tag_475\n        /* \"#utility.yul\":10457:10460   */\n      dup5\n        /* \"#utility.yul\":10449:10455   */\n      dup3\n        /* \"#utility.yul\":10442:10446   */\n      0x20\n        /* \"#utility.yul\":10434:10440   */\n      dup7\n        /* \"#utility.yul\":10430:10447   */\n      add\n        /* \"#utility.yul\":10358:10461   */\n      tag_319\n      jump\t// in\n    tag_475:\n        /* \"#utility.yul\":10349:10461   */\n      swap2\n      pop\n        /* \"#utility.yul\":10165:10467   */\n      pop\n        /* \"#utility.yul\":10079:10467   */\n      swap3\n      swap2\n      pop\n      pop\n      jump\t// out\n        /* \"#utility.yul\":10473:10566   */\n    tag_321:\n        /* \"#utility.yul\":10509:10516   */\n      0x00\n        /* \"#utility.yul\":10549:10559   */\n      0xffffffff\n        /* \"#utility.yul\":10542:10547   */\n      dup3\n        /* \"#utility.yul\":10538:10560   */\n      and\n        /* \"#utility.yul\":10527:10560   */\n      swap1\n      pop\n        /* \"#utility.yul\":10473:10566   */\n      swap2\n      swap1\n      pop\n      jump\t// out\n        /* \"#utility.yul\":10572:10692   */\n    tag_322:\n        /* \"#utility.yul\":10644:10667   */\n      tag_478\n        /* \"#utility.yul\":10661:10666   */\n      dup2\n        /* \"#utility.yul\":10644:10667   */\n      tag_321\n      jump\t// in\n    tag_478:\n        /* \"#utility.yul\":10637:10642   */\n      dup2\n        /* \"#utility.yul\":10634:10668   */\n      eq\n        /* \"#utility.yul\":10624:10686   */\n      tag_479\n      jumpi\n        /* \"#utility.yul\":10682:10683   */\n      0x00\n        /* \"#utility.yul\":10679:10680   */\n      dup1\n        /* \"#utility.yul\":10672:10684   */\n      revert\n        /* \"#utility.yul\":10624:10686   */\n    tag_479:\n        /* \"#utility.yul\":10572:10692   */\n      pop\n      jump\t// out\n        /* \"#utility.yul\":10698:10835   */\n    tag_323:\n        /* \"#utility.yul\":10743:10748   */\n      0x00\n        /* \"#utility.yul\":10781:10787   */\n      dup2\n        /* \"#utility.yul\":10768:10788   */\n      calldataload\n        /* \"#utility.yul\":10759:10788   */\n      swap1\n      pop\n        /* \"#utility.yul\":10797:10829   */\n      tag_481\n        /* \"#utility.yul\":10823:10828   */\n      dup2\n        /* \"#utility.yul\":10797:10829   */\n      tag_322\n      jump\t// in\n    tag_481:\n        /* \"#utility.yul\":10698:10835   */\n      swap3\n      swap2\n      pop\n      pop\n      jump\t// out\n        /* \"#utility.yul\":10841:13142   */\n    tag_22:\n        /* \"#utility.yul\":11055:11061   */\n      0x00\n        /* \"#utility.yul\":11063:11069   */\n      dup1\n        /* \"#utility.yul\":11071:11077   */\n      0x00\n        /* \"#utility.yul\":11079:11085   */\n      dup1\n        /* \"#utility.yul\":11087:11093   */\n      0x00\n        /* \"#utility.yul\":11095:11101   */\n      dup1\n        /* \"#utility.yul\":11103:11109   */\n      0x00\n        /* \"#utility.yul\":11111:11117   */\n      dup1\n        /* \"#utility.yul\":11119:11125   */\n      0x00\n        /* \"#utility.yul\":11168:11171   */\n      0x0120\n        /* \"#utility.yul\":11156:11165   */\n      dup11\n        /* \"#utility.yul\":11147:11154   */\n      dup13\n        /* \"#utility.yul\":11143:11166   */\n      sub\n        /* \"#utility.yul\":11139:11172   */\n      slt\n        /* \"#utility.yul\":11136:11256   */\n      iszero\n      tag_483\n      jumpi\n        /* \"#utility.yul\":11175:11254   */\n      tag_484\n      tag_286\n      jump\t// in\n    tag_484:\n        /* \"#utility.yul\":11136:11256   */\n    tag_483:\n        /* \"#utility.yul\":11323:11324   */\n      0x00\n        /* \"#utility.yul\":11312:11321   */\n      dup11\n        /* \"#utility.yul\":11308:11325   */\n      add\n        /* \"#utility.yul\":11295:11326   */\n      calldataload\n        /* \"#utility.yul\":11353:11371   */\n      0xffffffffffffffff\n        /* \"#utility.yul\":11345:11351   */\n      dup2\n        /* \"#utility.yul\":11342:11372   */\n      gt\n        /* \"#utility.yul\":11339:11456   */\n      iszero\n      tag_485\n      jumpi\n        /* \"#utility.yul\":11375:11454   */\n      tag_486\n      tag_287\n      jump\t// in\n    tag_486:\n        /* \"#utility.yul\":11339:11456   */\n    tag_485:\n        /* \"#utility.yul\":11480:11543   */\n      tag_487\n        /* \"#utility.yul\":11535:11542   */\n      dup13\n        /* \"#utility.yul\":11526:11532   */\n      dup3\n        /* \"#utility.yul\":11515:11524   */\n      dup14\n        /* \"#utility.yul\":11511:11533   */\n      add\n        /* \"#utility.yul\":11480:11543   */\n      tag_307\n      jump\t// in\n    tag_487:\n        /* \"#utility.yul\":11470:11543   */\n      swap10\n      pop\n        /* \"#utility.yul\":11266:11553   */\n      pop\n        /* \"#utility.yul\":11620:11622   */\n      0x20\n        /* \"#utility.yul\":11609:11618   */\n      dup11\n        /* \"#utility.yul\":11605:11623   */\n      add\n        /* \"#utility.yul\":11592:11624   */\n      calldataload\n        /* \"#utility.yul\":11651:11669   */\n      0xffffffffffffffff\n        /* \"#utility.yul\":11643:11649   */\n      dup2\n        /* \"#utility.yul\":11640:11670   */\n      gt\n        /* \"#utility.yul\":11637:11754   */\n      iszero\n      tag_488\n      jumpi\n        /* \"#utility.yul\":11673:11752   */\n      tag_489\n      tag_287\n      jump\t// in\n    tag_489:\n        /* \"#utility.yul\":11637:11754   */\n    tag_488:\n        /* \"#utility.yul\":11778:11840   */\n      tag_490\n        /* \"#utility.yul\":11832:11839   */\n      dup13\n        /* \"#utility.yul\":11823:11829   */\n      dup3\n        /* \"#utility.yul\":11812:11821   */\n      dup14\n        /* \"#utility.yul\":11808:11830   */\n      add\n        /* \"#utility.yul\":11778:11840   */\n      tag_300\n      jump\t// in\n    tag_490:\n        /* \"#utility.yul\":11768:11840   */\n      swap9\n      pop\n        /* \"#utility.yul\":11563:11850   */\n      pop\n        /* \"#utility.yul\":11889:11891   */\n      0x40\n        /* \"#utility.yul\":11915:11966   */\n      tag_491\n        /* \"#utility.yul\":11958:11965   */\n      dup13\n        /* \"#utility.yul\":11949:11955   */\n      dup3\n        /* \"#utility.yul\":11938:11947   */\n      dup14\n        /* \"#utility.yul\":11934:11956   */\n      add\n        /* \"#utility.yul\":11915:11966   */\n      tag_310\n      jump\t// in\n    tag_491:\n        /* \"#utility.yul\":11905:11966   */\n      swap8\n      pop\n        /* \"#utility.yul\":11860:11976   */\n      pop\n        /* \"#utility.yul\":12015:12017   */\n      0x60\n        /* \"#utility.yul\":12041:12093   */\n      tag_492\n        /* \"#utility.yul\":12085:12092   */\n      dup13\n        /* \"#utility.yul\":12076:12082   */\n      dup3\n        /* \"#utility.yul\":12065:12074   */\n      dup14\n        /* \"#utility.yul\":12061:12083   */\n      add\n        /* \"#utility.yul\":12041:12093   */\n      tag_313\n      jump\t// in\n    tag_492:\n        /* \"#utility.yul\":12031:12093   */\n      swap7\n      pop\n        /* \"#utility.yul\":11986:12103   */\n      pop\n        /* \"#utility.yul\":12170:12173   */\n      0x80\n        /* \"#utility.yul\":12159:12168   */\n      dup11\n        /* \"#utility.yul\":12155:12174   */\n      add\n        /* \"#utility.yul\":12142:12175   */\n      calldataload\n        /* \"#utility.yul\":12202:12220   */\n      0xffffffffffffffff\n        /* \"#utility.yul\":12194:12200   */\n      dup2\n        /* \"#utility.yul\":12191:12221   */\n      gt\n        /* \"#utility.yul\":12188:12305   */\n      iszero\n      tag_493\n      jumpi\n        /* \"#utility.yul\":12224:12303   */\n      tag_494\n      tag_287\n      jump\t// in\n    tag_494:\n        /* \"#utility.yul\":12188:12305   */\n    tag_493:\n        /* \"#utility.yul\":12329:12417   */\n      tag_495\n        /* \"#utility.yul\":12409:12416   */\n      dup13\n        /* \"#utility.yul\":12400:12406   */\n      dup3\n        /* \"#utility.yul\":12389:12398   */\n      dup14\n        /* \"#utility.yul\":12385:12407   */\n      add\n        /* \"#utility.yul\":12329:12417   */\n      tag_317\n      jump\t// in\n    tag_495:\n        /* \"#utility.yul\":12319:12417   */\n      swap6\n      pop\n        /* \"#utility.yul\":12113:12427   */\n      pop\n        /* \"#utility.yul\":12494:12497   */\n      0xa0\n        /* \"#utility.yul\":12483:12492   */\n      dup11\n        /* \"#utility.yul\":12479:12498   */\n      add\n        /* \"#utility.yul\":12466:12499   */\n      calldataload\n        /* \"#utility.yul\":12526:12544   */\n      0xffffffffffffffff\n        /* \"#utility.yul\":12518:12524   */\n      dup2\n        /* \"#utility.yul\":12515:12545   */\n      gt\n        /* \"#utility.yul\":12512:12629   */\n      iszero\n      tag_496\n      jumpi\n        /* \"#utility.yul\":12548:12627   */\n      tag_497\n      tag_287\n      jump\t// in\n    tag_497:\n        /* \"#utility.yul\":12512:12629   */\n    tag_496:\n        /* \"#utility.yul\":12653:12740   */\n      tag_498\n        /* \"#utility.yul\":12732:12739   */\n      dup13\n        /* \"#utility.yul\":12723:12729   */\n      dup3\n        /* \"#utility.yul\":12712:12721   */\n      dup14\n        /* \"#utility.yul\":12708:12730   */\n      add\n        /* \"#utility.yul\":12653:12740   */\n      tag_320\n      jump\t// in\n    tag_498:\n        /* \"#utility.yul\":12643:12740   */\n      swap5\n      pop\n        /* \"#utility.yul\":12437:12750   */\n      pop\n        /* \"#utility.yul\":12789:12792   */\n      0xc0\n        /* \"#utility.yul\":12816:12868   */\n      tag_499\n        /* \"#utility.yul\":12860:12867   */\n      dup13\n        /* \"#utility.yul\":12851:12857   */\n      dup3\n        /* \"#utility.yul\":12840:12849   */\n      dup14\n        /* \"#utility.yul\":12836:12858   */\n      add\n        /* \"#utility.yul\":12816:12868   */\n      tag_313\n      jump\t// in\n    tag_499:\n        /* \"#utility.yul\":12806:12868   */\n      swap4\n      pop\n        /* \"#utility.yul\":12760:12878   */\n      pop\n        /* \"#utility.yul\":12917:12920   */\n      0xe0\n        /* \"#utility.yul\":12944:12996   */\n      tag_500\n        /* \"#utility.yul\":12988:12995   */\n      dup13\n        /* \"#utility.yul\":12979:12985   */\n      dup3\n        /* \"#utility.yul\":12968:12977   */\n      dup14\n        /* \"#utility.yul\":12964:12986   */\n      add\n        /* \"#utility.yul\":12944:12996   */\n      tag_323\n      jump\t// in\n    tag_500:\n        /* \"#utility.yul\":12934:12996   */\n      swap3\n      pop\n        /* \"#utility.yul\":12888:13006   */\n      pop\n        /* \"#utility.yul\":13045:13048   */\n      0x0100\n        /* \"#utility.yul\":13072:13125   */\n      tag_501\n        /* \"#utility.yul\":13117:13124   */\n      dup13\n        /* \"#utility.yul\":13108:13114   */\n      dup3\n        /* \"#utility.yul\":13097:13106   */\n      dup14\n        /* \"#utility.yul\":13093:13115   */\n      add\n        /* \"#utility.yul\":13072:13125   */\n      tag_290\n      jump\t// in\n    tag_501:\n        /* \"#utility.yul\":13062:13125   */\n      swap2\n      pop\n        /* \"#utility.yul\":13016:13135   */\n      pop\n        /* \"#utility.yul\":10841:13142   */\n      swap3\n      swap6\n      swap9\n      pop\n      swap3\n      swap6\n      swap9\n      pop\n      swap3\n      swap6\n      swap9\n      jump\t// out\n        /* \"#utility.yul\":13148:13266   */\n    tag_324:\n        /* \"#utility.yul\":13235:13259   */\n      tag_503\n        /* \"#utility.yul\":13253:13258   */\n      dup2\n        /* \"#utility.yul\":13235:13259   */\n      tag_288\n      jump\t// in\n    tag_503:\n        /* \"#utility.yul\":13230:13233   */\n      dup3\n        /* \"#utility.yul\":13223:13260   */\n      mstore\n        /* \"#utility.yul\":13148:13266   */\n      pop\n      pop\n      jump\t// out\n        /* \"#utility.yul\":13272:13494   */\n    tag_25:\n        /* \"#utility.yul\":13365:13369   */\n      0x00\n        /* \"#utility.yul\":13403:13405   */\n      0x20\n        /* \"#utility.yul\":13392:13401   */\n      dup3\n        /* \"#utility.yul\":13388:13406   */\n      add\n        /* \"#utility.yul\":13380:13406   */\n      swap1\n      pop\n        /* \"#utility.yul\":13416:13487   */\n      tag_505\n        /* \"#utility.yul\":13484:13485   */\n      0x00\n        /* \"#utility.yul\":13473:13482   */\n      dup4\n        /* \"#utility.yul\":13469:13486   */\n      add\n        /* \"#utility.yul\":13460:13466   */\n      dup5\n        /* \"#utility.yul\":13416:13487   */\n      tag_324\n      jump\t// in\n    tag_505:\n        /* \"#utility.yul\":13272:13494   */\n      swap3\n      swap2\n      pop\n      pop\n      jump\t// out\n        /* \"#utility.yul\":13500:14439   */\n    tag_28:\n        /* \"#utility.yul\":13593:13599   */\n      0x00\n        /* \"#utility.yul\":13601:13607   */\n      dup1\n        /* \"#utility.yul\":13609:13615   */\n      0x00\n        /* \"#utility.yul\":13617:13623   */\n      dup1\n        /* \"#utility.yul\":13666:13669   */\n      0x80\n        /* \"#utility.yul\":13654:13663   */\n      dup6\n        /* \"#utility.yul\":13645:13652   */\n      dup8\n        /* \"#utility.yul\":13641:13664   */\n      sub\n        /* \"#utility.yul\":13637:13670   */\n      slt\n        /* \"#utility.yul\":13634:13754   */\n      iszero\n      tag_507\n      jumpi\n        /* \"#utility.yul\":13673:13752   */\n      tag_508\n      tag_286\n      jump\t// in\n    tag_508:\n        /* \"#utility.yul\":13634:13754   */\n    tag_507:\n        /* \"#utility.yul\":13821:13822   */\n      0x00\n        /* \"#utility.yul\":13810:13819   */\n      dup6\n        /* \"#utility.yul\":13806:13823   */\n      add\n        /* \"#utility.yul\":13793:13824   */\n      calldataload\n        /* \"#utility.yul\":13851:13869   */\n      0xffffffffffffffff\n        /* \"#utility.yul\":13843:13849   */\n      dup2\n        /* \"#utility.yul\":13840:13870   */\n      gt\n        /* \"#utility.yul\":13837:13954   */\n      iszero\n      tag_509\n      jumpi\n        /* \"#utility.yul\":13873:13952   */\n      tag_510\n      tag_287\n      jump\t// in\n    tag_510:\n        /* \"#utility.yul\":13837:13954   */\n    tag_509:\n        /* \"#utility.yul\":13978:14040   */\n      tag_511\n        /* \"#utility.yul\":14032:14039   */\n      dup8\n        /* \"#utility.yul\":14023:14029   */\n      dup3\n        /* \"#utility.yul\":14012:14021   */\n      dup9\n        /* \"#utility.yul\":14008:14030   */\n      add\n        /* \"#utility.yul\":13978:14040   */\n      tag_300\n      jump\t// in\n    tag_511:\n        /* \"#utility.yul\":13968:14040   */\n      swap5\n      pop\n        /* \"#utility.yul\":13764:14050   */\n      pop\n        /* \"#utility.yul\":14089:14091   */\n      0x20\n        /* \"#utility.yul\":14115:14167   */\n      tag_512\n        /* \"#utility.yul\":14159:14166   */\n      dup8\n        /* \"#utility.yul\":14150:14156   */\n      dup3\n        /* \"#utility.yul\":14139:14148   */\n      dup9\n        /* \"#utility.yul\":14135:14157   */\n      add\n        /* \"#utility.yul\":14115:14167   */\n      tag_313\n      jump\t// in\n    tag_512:\n        /* \"#utility.yul\":14105:14167   */\n      swap4\n      pop\n        /* \"#utility.yul\":14060:14177   */\n      pop\n        /* \"#utility.yul\":14216:14218   */\n      0x40\n        /* \"#utility.yul\":14242:14294   */\n      tag_513\n        /* \"#utility.yul\":14286:14293   */\n      dup8\n        /* \"#utility.yul\":14277:14283   */\n      dup3\n        /* \"#utility.yul\":14266:14275   */\n      dup9\n        /* \"#utility.yul\":14262:14284   */\n      add\n        /* \"#utility.yul\":14242:14294   */\n      tag_323\n      jump\t// in\n    tag_513:\n        /* \"#utility.yul\":14232:14294   */\n      swap3\n      pop\n        /* \"#utility.yul\":14187:14304   */\n      pop\n        /* \"#utility.yul\":14343:14345   */\n      0x60\n        /* \"#utility.yul\":14369:14422   */\n      tag_514\n        /* \"#utility.yul\":14414:14421   */\n      dup8\n        /* \"#utility.yul\":14405:14411   */\n      dup3\n        /* \"#utility.yul\":14394:14403   */\n      dup9\n        /* \"#utility.yul\":14390:14412   */\n      add\n        /* \"#utility.yul\":14369:14422   */\n      tag_290\n      jump\t// in\n    tag_514:\n        /* \"#utility.yul\":14359:14422   */\n      swap2\n      pop\n        /* \"#utility.yul\":14314:14432   */\n      pop\n        /* \"#utility.yul\":13500:14439   */\n      swap3\n      swap6\n      swap2\n      swap5\n      pop\n      swap3\n      pop\n      jump\t// out\n        /* \"#utility.yul\":14445:14625   */\n    tag_325:\n        /* \"#utility.yul\":14493:14570   */\n      0x4e487b7100000000000000000000000000000000000000000000000000000000\n        /* \"#utility.yul\":14490:14491   */\n      0x00\n        /* \"#utility.yul\":14483:14571   */\n      mstore\n        /* \"#utility.yul\":14590:14594   */\n      0x22\n        /* \"#utility.yul\":14587:14588   */\n      0x04\n        /* \"#utility.yul\":14580:14595   */\n      mstore\n        /* \"#utility.yul\":14614:14618   */\n      0x24\n        /* \"#utility.yul\":14611:14612   */\n      0x00\n        /* \"#utility.yul\":14604:14619   */\n      revert\n        /* \"#utility.yul\":14631:14951   */\n    tag_39:\n        /* \"#utility.yul\":14675:14681   */\n      0x00\n        /* \"#utility.yul\":14712:14713   */\n      0x02\n        /* \"#utility.yul\":14706:14710   */\n      dup3\n        /* \"#utility.yul\":14702:14714   */\n      div\n        /* \"#utility.yul\":14692:14714   */\n      swap1\n      pop\n        /* \"#utility.yul\":14759:14760   */\n      0x01\n        /* \"#utility.yul\":14753:14757   */\n      dup3\n        /* \"#utility.yul\":14749:14761   */\n      and\n        /* \"#utility.yul\":14780:14798   */\n      dup1\n        /* \"#utility.yul\":14770:14851   */\n      tag_517\n      jumpi\n        /* \"#utility.yul\":14836:14840   */\n      0x7f\n        /* \"#utility.yul\":14828:14834   */\n      dup3\n        /* \"#utility.yul\":14824:14841   */\n      and\n        /* \"#utility.yul\":14814:14841   */\n      swap2\n      pop\n        /* \"#utility.yul\":14770:14851   */\n    tag_517:\n        /* \"#utility.yul\":14898:14900   */\n      0x20\n        /* \"#utility.yul\":14890:14896   */\n      dup3\n        /* \"#utility.yul\":14887:14901   */\n      lt\n        /* \"#utility.yul\":14867:14885   */\n      dup2\n        /* \"#utility.yul\":14864:14902   */\n      sub\n        /* \"#utility.yul\":14861:14945   */\n      tag_518\n      jumpi\n        /* \"#utility.yul\":14917:14935   */\n      tag_519\n      tag_325\n      jump\t// in\n    tag_519:\n        /* \"#utility.yul\":14861:14945   */\n    tag_518:\n        /* \"#utility.yul\":14682:14951   */\n      pop\n        /* \"#utility.yul\":14631:14951   */\n      swap2\n      swap1\n      pop\n      jump\t// out\n        /* \"#utility.yul\":14957:15097   */\n    tag_326:\n        /* \"#utility.yul\":15005:15009   */\n      0x00\n        /* \"#utility.yul\":15028:15031   */\n      dup2\n        /* \"#utility.yul\":15020:15031   */\n      swap1\n      pop\n        /* \"#utility.yul\":15051:15054   */\n      dup2\n        /* \"#utility.yul\":15048:15049   */\n      0x00\n        /* \"#utility.yul\":15041:15055   */\n      mstore\n        /* \"#utility.yul\":15085:15089   */\n      0x20\n        /* \"#utility.yul\":15082:15083   */\n      0x00\n        /* \"#utility.yul\":15072:15090   */\n      keccak256\n        /* \"#utility.yul\":15064:15090   */\n      swap1\n      pop\n        /* \"#utility.yul\":14957:15097   */\n      swap2\n      swap1\n      pop\n      jump\t// out\n        /* \"#utility.yul\":15103:15196   */\n    tag_327:\n        /* \"#utility.yul\":15140:15146   */\n      0x00\n        /* \"#utility.yul\":15187:15189   */\n      0x20\n        /* \"#utility.yul\":15182:15184   */\n      0x1f\n        /* \"#utility.yul\":15175:15180   */\n      dup4\n        /* \"#utility.yul\":15171:15185   */\n      add\n        /* \"#utility.yul\":15167:15190   */\n      div\n        /* \"#utility.yul\":15157:15190   */\n      swap1\n      pop\n        /* \"#utility.yul\":15103:15196   */\n      swap2\n      swap1\n      pop\n      jump\t// out\n        /* \"#utility.yul\":15202:15309   */\n    tag_328:\n        /* \"#utility.yul\":15246:15254   */\n      0x00\n        /* \"#utility.yul\":15296:15301   */\n      dup3\n        /* \"#utility.yul\":15290:15294   */\n      dup3\n        /* \"#utility.yul\":15286:15302   */\n      shl\n        /* \"#utility.yul\":15265:15302   */\n      swap1\n      pop\n        /* \"#utility.yul\":15202:15309   */\n      swap3\n      swap2\n      pop\n      pop\n      jump\t// out\n        /* \"#utility.yul\":15315:15708   */\n    tag_329:\n        /* \"#utility.yul\":15384:15390   */\n      0x00\n        /* \"#utility.yul\":15434:15435   */\n      0x08\n        /* \"#utility.yul\":15422:15432   */\n      dup4\n        /* \"#utility.yul\":15418:15436   */\n      mul\n        /* \"#utility.yul\":15457:15554   */\n      tag_524\n        /* \"#utility.yul\":15487:15553   */\n      0xffffffffffffffffffffffffffffffffffffffffffffffffffffffffffffffff\n        /* \"#utility.yul\":15476:15485   */\n      dup3\n        /* \"#utility.yul\":15457:15554   */\n      tag_328\n      jump\t// in\n    tag_524:\n        /* \"#utility.yul\":15575:15614   */\n      tag_525\n        /* \"#utility.yul\":15605:15613   */\n      dup7\n        /* \"#utility.yul\":15594:15603   */\n      dup4\n        /* \"#utility.yul\":15575:15614   */\n      tag_328\n      jump\t// in\n    tag_525:\n        /* \"#utility.yul\":15563:15614   */\n      swap6\n      pop\n        /* \"#utility.yul\":15647:15651   */\n      dup1\n        /* \"#utility.yul\":15643:15652   */\n      not\n        /* \"#utility.yul\":15636:15641   */\n      dup5\n        /* \"#utility.yul\":15632:15653   */\n      and\n        /* \"#utility.yul\":15623:15653   */\n      swap4\n      pop\n        /* \"#utility.yul\":15696:15700   */\n      dup1\n        /* \"#utility.yul\":15686:15694   */\n      dup7\n        /* \"#utility.yul\":15682:15701   */\n      and\n        /* \"#utility.yul\":15675:15680   */\n      dup5\n        /* \"#utility.yul\":15672:15702   */\n      or\n        /* \"#utility.yul\":15662:15702   */\n      swap3\n      pop\n        /* \"#utility.yul\":15391:15708   */\n      pop\n      pop\n        /* \"#utility.yul\":15315:15708   */\n      swap4\n      swap3\n      pop\n      pop\n      pop\n      jump\t// out\n        /* \"#utility.yul\":15714:15791   */\n    tag_330:\n        /* \"#utility.yul\":15751:15758   */\n      0x00\n        /* \"#utility.yul\":15780:15785   */\n      dup2\n        /* \"#utility.yul\":15769:15785   */\n      swap1\n      pop\n        /* \"#utility.yul\":15714:15791   */\n      swap2\n      swap1\n      pop\n      jump\t// out\n        /* \"#utility.yul\":15797:15857   */\n    tag_331:\n        /* \"#utility.yul\":15825:15828   */\n      0x00\n        /* \"#utility.yul\":15846:15851   */\n      dup2\n        /* \"#utility.yul\":15839:15851   */\n      swap1\n      pop\n        /* \"#utility.yul\":15797:15857   */\n      swap2\n      swap1\n      pop\n      jump\t// out\n        /* \"#utility.yul\":15863:16005   */\n    tag_332:\n        /* \"#utility.yul\":15913:15922   */\n      0x00\n        /* \"#utility.yul\":15946:15999   */\n      tag_529\n        /* \"#utility.yul\":15964:15998   */\n      tag_530\n        /* \"#utility.yul\":15973:15997   */\n      tag_531\n        /* \"#utility.yul\":15991:15996   */\n      dup5\n        /* \"#utility.yul\":15973:15997   */\n      tag_330\n      jump\t// in\n    tag_531:\n        /* \"#utility.yul\":15964:15998   */\n      tag_331\n      jump\t// in\n    tag_530:\n        /* \"#utility.yul\":15946:15999   */\n      tag_330\n      jump\t// in\n    tag_529:\n        /* \"#utility.yul\":15933:15999   */\n      swap1\n      pop\n        /* \"#utility.yul\":15863:16005   */\n      swap2\n      swap1\n      pop\n      jump\t// out\n        /* \"#utility.yul\":16011:16086   */\n    tag_333:\n        /* \"#utility.yul\":16054:16057   */\n      0x00\n        /* \"#utility.yul\":16075:16080   */\n      dup2\n        /* \"#utility.yul\":16068:16080   */\n      swap1\n      pop\n        /* \"#utility.yul\":16011:16086   */\n      swap2\n      swap1\n      pop\n      jump\t// out\n        /* \"#utility.yul\":16092:16361   */\n    tag_334:\n        /* \"#utility.yul\":16202:16241   */\n      tag_534\n        /* \"#utility.yul\":16233:16240   */\n      dup4\n        /* \"#utility.yul\":16202:16241   */\n      tag_332\n      jump\t// in\n    tag_534:\n        /* \"#utility.yul\":16263:16354   */\n      tag_535\n        /* \"#utility.yul\":16312:16353   */\n      tag_536\n        /* \"#utility.yul\":16336:16352   */\n      dup3\n        /* \"#utility.yul\":16312:16353   */\n      tag_333\n      jump\t// in\n    tag_536:\n        /* \"#utility.yul\":16304:16310   */\n      dup5\n        /* \"#utility.yul\":16297:16301   */\n      dup5\n        /* \"#utility.yul\":16291:16302   */\n      sload\n        /* \"#utility.yul\":16263:16354   */\n      tag_329\n      jump\t// in\n    tag_535:\n        /* \"#utility.yul\":16257:16261   */\n      dup3\n        /* \"#utility.yul\":16250:16355   */\n      sstore\n        /* \"#utility.yul\":16168:16361   */\n      pop\n        /* \"#utility.yul\":16092:16361   */\n      pop\n      pop\n      pop\n      jump\t// out\n        /* \"#utility.yul\":16367:16440   */\n    tag_335:\n        /* \"#utility.yul\":16412:16415   */\n      0x00\n        /* \"#utility.yul\":16367:16440   */\n      swap1\n      jump\t// out\n        /* \"#utility.yul\":16446:16635   */\n    tag_336:\n        /* \"#utility.yul\":16523:16555   */\n      tag_539\n      tag_335\n      jump\t// in\n    tag_539:\n        /* \"#utility.yul\":16564:16629   */\n      tag_540\n        /* \"#utility.yul\":16622:16628   */\n      dup2\n        /* \"#utility.yul\":16614:16620   */\n      dup5\n        /* \"#utility.yul\":16608:16612   */\n      dup5\n        /* \"#utility.yul\":16564:16629   */\n      tag_334\n      jump\t// in\n    tag_540:\n        /* \"#utility.yul\":16499:16635   */\n      pop\n        /* \"#utility.yul\":16446:16635   */\n      pop\n      pop\n      jump\t// out\n        /* \"#utility.yul\":16641:16827   */\n    tag_337:\n        /* \"#utility.yul\":16701:16821   */\n    tag_542:\n        /* \"#utility.yul\":16718:16721   */\n      dup2\n        /* \"#utility.yul\":16711:16716   */\n      dup2\n        /* \"#utility.yul\":16708:16722   */\n      lt\n        /* \"#utility.yul\":16701:16821   */\n      iszero\n      tag_544\n      jumpi\n        /* \"#utility.yul\":16772:16811   */\n      tag_545\n        /* \"#utility.yul\":16809:16810   */\n      0x00\n        /* \"#utility.yul\":16802:16807   */\n      dup3\n        /* \"#utility.yul\":16772:16811   */\n      tag_336\n      jump\t// in\n    tag_545:\n        /* \"#utility.yul\":16745:16746   */\n      0x01\n        /* \"#utility.yul\":16738:16743   */\n      dup2\n        /* \"#utility.yul\":16734:16747   */\n      add\n        /* \"#utility.yul\":16725:16747   */\n      swap1\n      pop\n        /* \"#utility.yul\":16701:16821   */\n      jump(tag_542)\n    tag_544:\n        /* \"#utility.yul\":16641:16827   */\n      pop\n      pop\n      jump\t// out\n        /* \"#utility.yul\":16833:17374   */\n    tag_338:\n        /* \"#utility.yul\":16933:16935   */\n      0x1f\n        /* \"#utility.yul\":16928:16931   */\n      dup3\n        /* \"#utility.yul\":16925:16936   */\n      gt\n        /* \"#utility.yul\":16922:17367   */\n      iszero\n      tag_547\n      jumpi\n        /* \"#utility.yul\":16967:17004   */\n      tag_548\n        /* \"#utility.yul\":16998:17003   */\n      dup2\n        /* \"#utility.yul\":16967:17004   */\n      tag_326\n      jump\t// in\n    tag_548:\n        /* \"#utility.yul\":17050:17079   */\n      tag_549\n        /* \"#utility.yul\":17068:17078   */\n      dup5\n        /* \"#utility.yul\":17050:17079   */\n      tag_327\n      jump\t// in\n    tag_549:\n        /* \"#utility.yul\":17040:17048   */\n      dup2\n        /* \"#utility.yul\":17036:17080   */\n      add\n        /* \"#utility.yul\":17233:17235   */\n      0x20\n        /* \"#utility.yul\":17221:17231   */\n      dup6\n        /* \"#utility.yul\":17218:17236   */\n      lt\n        /* \"#utility.yul\":17215:17264   */\n      iszero\n      tag_550\n      jumpi\n        /* \"#utility.yul\":17254:17262   */\n      dup2\n        /* \"#utility.yul\":17239:17262   */\n      swap1\n      pop\n        /* \"#utility.yul\":17215:17264   */\n    tag_550:\n        /* \"#utility.yul\":17277:17357   */\n      tag_551\n        /* \"#utility.yul\":17333:17355   */\n      tag_552\n        /* \"#utility.yul\":17351:17354   */\n      dup6\n        /* \"#utility.yul\":17333:17355   */\n      tag_327\n      jump\t// in\n    tag_552:\n        /* \"#utility.yul\":17323:17331   */\n      dup4\n        /* \"#utility.yul\":17319:17356   */\n      add\n        /* \"#utility.yul\":17306:17317   */\n      dup3\n        /* \"#utility.yul\":17277:17357   */\n      tag_337\n      jump\t// in\n    tag_551:\n        /* \"#utility.yul\":16937:17367   */\n      pop\n      pop\n        /* \"#utility.yul\":16922:17367   */\n    tag_547:\n        /* \"#utility.yul\":16833:17374   */\n      pop\n      pop\n      pop\n      jump\t// out\n        /* \"#utility.yul\":17380:17497   */\n    tag_339:\n        /* \"#utility.yul\":17434:17442   */\n      0x00\n        /* \"#utility.yul\":17484:17489   */\n      dup3\n        /* \"#utility.yul\":17478:17482   */\n      dup3\n        /* \"#utility.yul\":17474:17490   */\n      shr\n        /* \"#utility.yul\":17453:17490   */\n      swap1\n      pop\n        /* \"#utility.yul\":17380:17497   */\n      swap3\n      swap2\n      pop\n      pop\n      jump\t// out\n        /* \"#utility.yul\":17503:17672   */\n    tag_340:\n        /* \"#utility.yul\":17547:17553   */\n      0x00\n        /* \"#utility.yul\":17580:17631   */\n      tag_555\n        /* \"#utility.yul\":17628:17629   */\n      0x00\n        /* \"#utility.yul\":17624:17630   */\n      not\n        /* \"#utility.yul\":17616:17621   */\n      dup5\n        /* \"#utility.yul\":17613:17614   */\n      0x08\n        /* \"#utility.yul\":17609:17622   */\n      mul\n        /* \"#utility.yul\":17580:17631   */\n      tag_339\n      jump\t// in\n    tag_555:\n        /* \"#utility.yul\":17576:17632   */\n      not\n        /* \"#utility.yul\":17661:17665   */\n      dup1\n        /* \"#utility.yul\":17655:17659   */\n      dup4\n        /* \"#utility.yul\":17651:17666   */\n      and\n        /* \"#utility.yul\":17641:17666   */\n      swap2\n      pop\n        /* \"#utility.yul\":17554:17672   */\n      pop\n        /* \"#utility.yul\":17503:17672   */\n      swap3\n      swap2\n      pop\n      pop\n      jump\t// out\n        /* \"#utility.yul\":17677:17972   */\n    tag_341:\n        /* \"#utility.yul\":17753:17757   */\n      0x00\n        /* \"#utility.yul\":17899:17928   */\n      tag_557\n        /* \"#utility.yul\":17924:17927   */\n      dup4\n        /* \"#utility.yul\":17918:17922   */\n      dup4\n        /* \"#utility.yul\":17899:17928   */\n      tag_340\n      jump\t// in\n    tag_557:\n        /* \"#utility.yul\":17891:17928   */\n      swap2\n      pop\n        /* \"#utility.yul\":17961:17964   */\n      dup3\n        /* \"#utility.yul\":17958:17959   */\n      0x02\n        /* \"#utility.yul\":17954:17965   */\n      mul\n        /* \"#utility.yul\":17948:17952   */\n      dup3\n        /* \"#utility.yul\":17945:17966   */\n      or\n        /* \"#utility.yul\":17937:17966   */\n      swap1\n      pop\n        /* \"#utility.yul\":17677:17972   */\n      swap3\n      swap2\n      pop\n      pop\n      jump\t// out\n        /* \"#utility.yul\":17977:19367   */\n    tag_77:\n        /* \"#utility.yul\":18092:18128   */\n      tag_559\n        /* \"#utility.yul\":18124:18127   */\n      dup3\n        /* \"#utility.yul\":18092:18128   */\n      tag_301\n      jump\t// in\n    tag_559:\n        /* \"#utility.yul\":18193:18211   */\n      0xffffffffffffffff\n        /* \"#utility.yul\":18185:18191   */\n      dup2\n        /* \"#utility.yul\":18182:18212   */\n      gt\n        /* \"#utility.yul\":18179:18235   */\n      iszero\n      tag_560\n      jumpi\n        /* \"#utility.yul\":18215:18233   */\n      tag_561\n      tag_294\n      jump\t// in\n    tag_561:\n        /* \"#utility.yul\":18179:18235   */\n    tag_560:\n        /* \"#utility.yul\":18259:18297   */\n      tag_562\n        /* \"#utility.yul\":18291:18295   */\n      dup3\n        /* \"#utility.yul\":18285:18296   */\n      sload\n        /* \"#utility.yul\":18259:18297   */\n      tag_39\n      jump\t// in\n    tag_562:\n        /* \"#utility.yul\":18344:18410   */\n      tag_563\n        /* \"#utility.yul\":18403:18409   */\n      dup3\n        /* \"#utility.yul\":18395:18401   */\n      dup3\n        /* \"#utility.yul\":18389:18393   */\n      dup6\n        /* \"#utility.yul\":18344:18410   */\n      tag_338\n      jump\t// in\n    tag_563:\n        /* \"#utility.yul\":18437:18438   */\n      0x00\n        /* \"#utility.yul\":18461:18465   */\n      0x20\n        /* \"#utility.yul\":18448:18465   */\n      swap1\n      pop\n        /* \"#utility.yul\":18493:18495   */\n      0x1f\n        /* \"#utility.yul\":18485:18491   */\n      dup4\n        /* \"#utility.yul\":18482:18496   */\n      gt\n        /* \"#utility.yul\":18510:18511   */\n      0x01\n        /* \"#utility.yul\":18505:19122   */\n      dup2\n      eq\n      tag_565\n      jumpi\n        /* \"#utility.yul\":19166:19167   */\n      0x00\n        /* \"#utility.yul\":19183:19189   */\n      dup5\n        /* \"#utility.yul\":19180:19257   */\n      iszero\n      tag_566\n      jumpi\n        /* \"#utility.yul\":19232:19241   */\n      dup3\n        /* \"#utility.yul\":19227:19230   */\n      dup8\n        /* \"#utility.yul\":19223:19242   */\n      add\n        /* \"#utility.yul\":19217:19243   */\n      mload\n        /* \"#utility.yul\":19208:19243   */\n      swap1\n      pop\n        /* \"#utility.yul\":19180:19257   */\n    tag_566:\n        /* \"#utility.yul\":19283:19350   */\n      tag_567\n        /* \"#utility.yul\":19343:19349   */\n      dup6\n        /* \"#utility.yul\":19336:19341   */\n      dup3\n        /* \"#utility.yul\":19283:19350   */\n      tag_341\n      jump\t// in\n    tag_567:\n        /* \"#utility.yul\":19277:19281   */\n      dup7\n        /* \"#utility.yul\":19270:19351   */\n      sstore\n        /* \"#utility.yul\":19139:19361   */\n      pop\n        /* \"#utility.yul\":18475:19361   */\n      jump(tag_564)\n        /* \"#utility.yul\":18505:19122   */\n    tag_565:\n        /* \"#utility.yul\":18557:18561   */\n      0x1f\n        /* \"#utility.yul\":18553:18562   */\n      not\n        /* \"#utility.yul\":18545:18551   */\n      dup5\n        /* \"#utility.yul\":18541:18563   */\n      and\n        /* \"#utility.yul\":18591:18627   */\n      tag_568\n        /* \"#utility.yul\":18622:18626   */\n      dup7\n        /* \"#utility.yul\":18591:18627   */\n      tag_326\n      jump\t// in\n    tag_568:\n        /* \"#utility.yul\":18649:18650   */\n      0x00\n        /* \"#utility.yul\":18663:18871   */\n    tag_569:\n        /* \"#utility.yul\":18677:18684   */\n      dup3\n        /* \"#utility.yul\":18674:18675   */\n      dup2\n        /* \"#utility.yul\":18671:18685   */\n      lt\n        /* \"#utility.yul\":18663:18871   */\n      iszero\n      tag_571\n      jumpi\n        /* \"#utility.yul\":18756:18765   */\n      dup5\n        /* \"#utility.yul\":18751:18754   */\n      dup10\n        /* \"#utility.yul\":18747:18766   */\n      add\n        /* \"#utility.yul\":18741:18767   */\n      mload\n        /* \"#utility.yul\":18733:18739   */\n      dup3\n        /* \"#utility.yul\":18726:18768   */\n      sstore\n        /* \"#utility.yul\":18807:18808   */\n      0x01\n        /* \"#utility.yul\":18799:18805   */\n      dup3\n        /* \"#utility.yul\":18795:18809   */\n      add\n        /* \"#utility.yul\":18785:18809   */\n      swap2\n      pop\n        /* \"#utility.yul\":18854:18856   */\n      0x20\n        /* \"#utility.yul\":18843:18852   */\n      dup6\n        /* \"#utility.yul\":18839:18857   */\n      add\n        /* \"#utility.yul\":18826:18857   */\n      swap5\n      pop\n        /* \"#utility.yul\":18700:18704   */\n      0x20\n        /* \"#utility.yul\":18697:18698   */\n      dup2\n        /* \"#utility.yul\":18693:18705   */\n      add\n        /* \"#utility.yul\":18688:18705   */\n      swap1\n      pop\n        /* \"#utility.yul\":18663:18871   */\n      jump(tag_569)\n    tag_571:\n        /* \"#utility.yul\":18899:18905   */\n      dup7\n        /* \"#utility.yul\":18890:18897   */\n      dup4\n        /* \"#utility.yul\":18887:18906   */\n      lt\n        /* \"#utility.yul\":18884:19063   */\n      iszero\n      tag_572\n      jumpi\n        /* \"#utility.yul\":18957:18966   */\n      dup5\n        /* \"#utility.yul\":18952:18955   */\n      dup10\n        /* \"#utility.yul\":18948:18967   */\n      add\n        /* \"#utility.yul\":18942:18968   */\n      mload\n        /* \"#utility.yul\":19000:19048   */\n      tag_573\n        /* \"#utility.yul\":19042:19046   */\n      0x1f\n        /* \"#utility.yul\":19034:19040   */\n      dup10\n        /* \"#utility.yul\":19030:19047   */\n      and\n        /* \"#utility.yul\":19019:19028   */\n      dup3\n        /* \"#utility.yul\":19000:19048   */\n      tag_340\n      jump\t// in\n    tag_573:\n        /* \"#utility.yul\":18992:18998   */\n      dup4\n        /* \"#utility.yul\":18985:19049   */\n      sstore\n        /* \"#utility.yul\":18907:19063   */\n      pop\n        /* \"#utility.yul\":18884:19063   */\n    tag_572:\n        /* \"#utility.yul\":19109:19110   */\n      0x01\n        /* \"#utility.yul\":19105:19106   */\n      0x02\n        /* \"#utility.yul\":19097:19103   */\n      dup9\n        /* \"#utility.yul\":19093:19107   */\n      mul\n        /* \"#utility.yul\":19089:19111   */\n      add\n        /* \"#utility.yul\":19083:19087   */\n      dup9\n        /* \"#utility.yul\":19076:19112   */\n      sstore\n        /* \"#utility.yul\":18512:19122   */\n      pop\n      pop\n      pop\n        /* \"#utility.yul\":18475:19361   */\n    tag_564:\n      pop\n        /* \"#utility.yul\":18067:19367   */\n      pop\n      pop\n      pop\n        /* \"#utility.yul\":17977:19367   */\n      pop\n      pop\n      jump\t// out\n        /* \"#utility.yul\":19395:20222   */\n    tag_342:\n        /* \"#utility.yul\":19478:19481   */\n      0x00\n        /* \"#utility.yul\":19515:19520   */\n      dup2\n        /* \"#utility.yul\":19509:19521   */\n      sload\n        /* \"#utility.yul\":19544:19580   */\n      tag_575\n        /* \"#utility.yul\":19570:19579   */\n      dup2\n        /* \"#utility.yul\":19544:19580   */\n      tag_39\n      jump\t// in\n    tag_575:\n        /* \"#utility.yul\":19596:19666   */\n      tag_576\n        /* \"#utility.yul\":19659:19665   */\n      dup2\n        /* \"#utility.yul\":19654:19657   */\n      dup7\n        /* \"#utility.yul\":19596:19666   */\n      tag_302\n      jump\t// in\n    tag_576:\n        /* \"#utility.yul\":19589:19666   */\n      swap5\n      pop\n        /* \"#utility.yul\":19697:19698   */\n      0x01\n        /* \"#utility.yul\":19686:19695   */\n      dup3\n        /* \"#utility.yul\":19682:19699   */\n      and\n        /* \"#utility.yul\":19713:19714   */\n      0x00\n        /* \"#utility.yul\":19708:19872   */\n      dup2\n      eq\n      tag_578\n      jumpi\n        /* \"#utility.yul\":19886:19887   */\n      0x01\n        /* \"#utility.yul\":19881:20216   */\n      dup2\n      eq\n      tag_579\n      jumpi\n        /* \"#utility.yul\":19675:20216   */\n      jump(tag_577)\n        /* \"#utility.yul\":19708:19872   */\n    tag_578:\n        /* \"#utility.yul\":19792:19796   */\n      0xff\n        /* \"#utility.yul\":19788:19797   */\n      not\n        /* \"#utility.yul\":19777:19786   */\n      dup4\n        /* \"#utility.yul\":19773:19798   */\n      and\n        /* \"#utility.yul\":19768:19771   */\n      dup7\n        /* \"#utility.yul\":19761:19799   */\n      mstore\n        /* \"#utility.yul\":19852:19858   */\n      dup2\n        /* \"#utility.yul\":19845:19859   */\n      iszero\n        /* \"#utility.yul\":19838:19860   */\n      iszero\n        /* \"#utility.yul\":19832:19836   */\n      0x20\n        /* \"#utility.yul\":19828:19861   */\n      mul\n        /* \"#utility.yul\":19823:19826   */\n      dup7\n        /* \"#utility.yul\":19819:19862   */\n      add\n        /* \"#utility.yul\":19812:19862   */\n      swap4\n      pop\n        /* \"#utility.yul\":19708:19872   */\n      jump(tag_577)\n        /* \"#utility.yul\":19881:20216   */\n    tag_579:\n        /* \"#utility.yul\":19948:19985   */\n      tag_580\n        /* \"#utility.yul\":19979:19984   */\n      dup6\n        /* \"#utility.yul\":19948:19985   */\n      tag_326\n      jump\t// in\n    tag_580:\n        /* \"#utility.yul\":20007:20008   */\n      0x00\n        /* \"#utility.yul\":20021:20175   */\n    tag_581:\n        /* \"#utility.yul\":20035:20041   */\n      dup4\n        /* \"#utility.yul\":20032:20033   */\n      dup2\n        /* \"#utility.yul\":20029:20042   */\n      lt\n        /* \"#utility.yul\":20021:20175   */\n      iszero\n      tag_583\n      jumpi\n        /* \"#utility.yul\":20109:20116   */\n      dup2\n        /* \"#utility.yul\":20103:20117   */\n      sload\n        /* \"#utility.yul\":20099:20100   */\n      dup2\n        /* \"#utility.yul\":20094:20097   */\n      dup10\n        /* \"#utility.yul\":20090:20101   */\n      add\n        /* \"#utility.yul\":20083:20118   */\n      mstore\n        /* \"#utility.yul\":20159:20160   */\n      0x01\n        /* \"#utility.yul\":20150:20157   */\n      dup3\n        /* \"#utility.yul\":20146:20161   */\n      add\n        /* \"#utility.yul\":20135:20161   */\n      swap2\n      pop\n        /* \"#utility.yul\":20057:20061   */\n      0x20\n        /* \"#utility.yul\":20054:20055   */\n      dup2\n        /* \"#utility.yul\":20050:20062   */\n      add\n        /* \"#utility.yul\":20045:20062   */\n      swap1\n      pop\n        /* \"#utility.yul\":20021:20175   */\n      jump(tag_581)\n    tag_583:\n        /* \"#utility.yul\":20204:20205   */\n      dup1\n        /* \"#utility.yul\":20199:20202   */\n      dup9\n        /* \"#utility.yul\":20195:20206   */\n      add\n        /* \"#utility.yul\":20188:20206   */\n      swap6\n      pop\n        /* \"#utility.yul\":19888:20216   */\n      pop\n      pop\n        /* \"#utility.yul\":19675:20216   */\n    tag_577:\n      pop\n        /* \"#utility.yul\":19482:20222   */\n      pop\n      pop\n        /* \"#utility.yul\":19395:20222   */\n      swap3\n      swap2\n      pop\n      pop\n      jump\t// out\n        /* \"#utility.yul\":20228:20722   */\n    tag_80:\n        /* \"#utility.yul\":20379:20383   */\n      0x00\n        /* \"#utility.yul\":20417:20419   */\n      0x40\n        /* \"#utility.yul\":20406:20415   */\n      dup3\n        /* \"#utility.yul\":20402:20420   */\n      add\n        /* \"#utility.yul\":20394:20420   */\n      swap1\n      pop\n        /* \"#utility.yul\":20466:20475   */\n      dup2\n        /* \"#utility.yul\":20460:20464   */\n      dup2\n        /* \"#utility.yul\":20456:20476   */\n      sub\n        /* \"#utility.yul\":20452:20453   */\n      0x00\n        /* \"#utility.yul\":20441:20450   */\n      dup4\n        /* \"#utility.yul\":20437:20454   */\n      add\n        /* \"#utility.yul\":20430:20477   */\n      mstore\n        /* \"#utility.yul\":20494:20567   */\n      tag_585\n        /* \"#utility.yul\":20562:20566   */\n      dup2\n        /* \"#utility.yul\":20553:20559   */\n      dup6\n        /* \"#utility.yul\":20494:20567   */\n      tag_342\n      jump\t// in\n    tag_585:\n        /* \"#utility.yul\":20486:20567   */\n      swap1\n      pop\n        /* \"#utility.yul\":20614:20623   */\n      dup2\n        /* \"#utility.yul\":20608:20612   */\n      dup2\n        /* \"#utility.yul\":20604:20624   */\n      sub\n        /* \"#utility.yul\":20599:20601   */\n      0x20\n        /* \"#utility.yul\":20588:20597   */\n      dup4\n        /* \"#utility.yul\":20584:20602   */\n      add\n        /* \"#utility.yul\":20577:20625   */\n      mstore\n        /* \"#utility.yul\":20642:20715   */\n      tag_586\n        /* \"#utility.yul\":20710:20714   */\n      dup2\n        /* \"#utility.yul\":20701:20707   */\n      dup5\n        /* \"#utility.yul\":20642:20715   */\n      tag_342\n      jump\t// in\n    tag_586:\n        /* \"#utility.yul\":20634:20715   */\n      swap1\n      pop\n        /* \"#utility.yul\":20228:20722   */\n      swap4\n      swap3\n      pop\n      pop\n      pop\n      jump\t// out\n        /* \"#utility.yul\":20728:20908   */\n    tag_88:\n        /* \"#utility.yul\":20776:20853   */\n      0x4e487b7100000000000000000000000000000000000000000000000000000000\n        /* \"#utility.yul\":20773:20774   */\n      0x00\n        /* \"#utility.yul\":20766:20854   */\n      mstore\n        /* \"#utility.yul\":20873:20877   */\n      0x21\n        /* \"#utility.yul\":20870:20871   */\n      0x04\n        /* \"#utility.yul\":20863:20878   */\n      mstore\n        /* \"#utility.yul\":20897:20901   */\n      0x24\n        /* \"#utility.yul\":20894:20895   */\n      0x00\n        /* \"#utility.yul\":20887:20902   */\n      revert\n        /* \"#utility.yul\":20914:21094   */\n    tag_131:\n        /* \"#utility.yul\":20962:21039   */\n      0x4e487b7100000000000000000000000000000000000000000000000000000000\n        /* \"#utility.yul\":20959:20960   */\n      0x00\n        /* \"#utility.yul\":20952:21040   */\n      mstore\n        /* \"#utility.yul\":21059:21063   */\n      0x32\n        /* \"#utility.yul\":21056:21057   */\n      0x04\n        /* \"#utility.yul\":21049:21064   */\n      mstore\n        /* \"#utility.yul\":21083:21087   */\n      0x24\n        /* \"#utility.yul\":21080:21081   */\n      0x00\n        /* \"#utility.yul\":21073:21088   */\n      revert\n        /* \"#utility.yul\":21100:21280   */\n    tag_343:\n        /* \"#utility.yul\":21148:21225   */\n      0x4e487b7100000000000000000000000000000000000000000000000000000000\n        /* \"#utility.yul\":21145:21146   */\n      0x00\n        /* \"#utility.yul\":21138:21226   */\n      mstore\n        /* \"#utility.yul\":21245:21249   */\n      0x11\n        /* \"#utility.yul\":21242:21243   */\n      0x04\n        /* \"#utility.yul\":21235:21250   */\n      mstore\n        /* \"#utility.yul\":21269:21273   */\n      0x24\n        /* \"#utility.yul\":21266:21267   */\n      0x00\n        /* \"#utility.yul\":21259:21274   */\n      revert\n        /* \"#utility.yul\":21286:21519   */\n    tag_133:\n        /* \"#utility.yul\":21325:21328   */\n      0x00\n        /* \"#utility.yul\":21348:21372   */\n      tag_591\n        /* \"#utility.yul\":21366:21371   */\n      dup3\n        /* \"#utility.yul\":21348:21372   */\n      tag_330\n      jump\t// in\n    tag_591:\n        /* \"#utility.yul\":21339:21372   */\n      swap2\n      pop\n        /* \"#utility.yul\":21394:21460   */\n      0xffffffffffffffffffffffffffffffffffffffffffffffffffffffffffffffff\n        /* \"#utility.yul\":21387:21392   */\n      dup3\n        /* \"#utility.yul\":21384:21461   */\n      sub\n        /* \"#utility.yul\":21381:21484   */\n      tag_592\n      jumpi\n        /* \"#utility.yul\":21464:21482   */\n      tag_593\n      tag_343\n      jump\t// in\n    tag_593:\n        /* \"#utility.yul\":21381:21484   */\n    tag_592:\n        /* \"#utility.yul\":21511:21512   */\n      0x01\n        /* \"#utility.yul\":21504:21509   */\n      dup3\n        /* \"#utility.yul\":21500:21513   */\n      add\n        /* \"#utility.yul\":21493:21513   */\n      swap1\n      pop\n        /* \"#utility.yul\":21286:21519   */\n      swap2\n      swap1\n      pop\n      jump\t// out\n        /* \"#utility.yul\":21525:21640   */\n    tag_344:\n        /* \"#utility.yul\":21610:21633   */\n      tag_595\n        /* \"#utility.yul\":21627:21632   */\n      dup2\n        /* \"#utility.yul\":21610:21633   */\n      tag_311\n      jump\t// in\n    tag_595:\n        /* \"#utility.yul\":21605:21608   */\n      dup3\n        /* \"#utility.yul\":21598:21634   */\n      mstore\n        /* \"#utility.yul\":21525:21640   */\n      pop\n      pop\n      jump\t// out\n        /* \"#utility.yul\":21646:21735   */\n    tag_345:\n        /* \"#utility.yul\":21682:21689   */\n      0x00\n        /* \"#utility.yul\":21722:21728   */\n      0xffff\n        /* \"#utility.yul\":21715:21720   */\n      dup3\n        /* \"#utility.yul\":21711:21729   */\n      and\n        /* \"#utility.yul\":21700:21729   */\n      swap1\n      pop\n        /* \"#utility.yul\":21646:21735   */\n      swap2\n      swap1\n      pop\n      jump\t// out\n        /* \"#utility.yul\":21741:21856   */\n    tag_346:\n        /* \"#utility.yul\":21826:21849   */\n      tag_598\n        /* \"#utility.yul\":21843:21848   */\n      dup2\n        /* \"#utility.yul\":21826:21849   */\n      tag_345\n      jump\t// in\n    tag_598:\n        /* \"#utility.yul\":21821:21824   */\n      dup3\n        /* \"#utility.yul\":21814:21850   */\n      mstore\n        /* \"#utility.yul\":21741:21856   */\n      pop\n      pop\n      jump\t// out\n        /* \"#utility.yul\":21862:21977   */\n    tag_347:\n        /* \"#utility.yul\":21947:21970   */\n      tag_600\n        /* \"#utility.yul\":21964:21969   */\n      dup2\n        /* \"#utility.yul\":21947:21970   */\n      tag_321\n      jump\t// in\n    tag_600:\n        /* \"#utility.yul\":21942:21945   */\n      dup3\n        /* \"#utility.yul\":21935:21971   */\n      mstore\n        /* \"#utility.yul\":21862:21977   */\n      pop\n      pop\n      jump\t// out\n        /* \"#utility.yul\":21983:22722   */\n    tag_162:\n        /* \"#utility.yul\":22200:22204   */\n      0x00\n        /* \"#utility.yul\":22238:22241   */\n      0xa0\n        /* \"#utility.yul\":22227:22236   */\n      dup3\n        /* \"#utility.yul\":22223:22242   */\n      add\n        /* \"#utility.yul\":22215:22242   */\n      swap1\n      pop\n        /* \"#utility.yul\":22252:22321   */\n      tag_602\n        /* \"#utility.yul\":22318:22319   */\n      0x00\n        /* \"#utility.yul\":22307:22316   */\n      dup4\n        /* \"#utility.yul\":22303:22320   */\n      add\n        /* \"#utility.yul\":22294:22300   */\n      dup9\n        /* \"#utility.yul\":22252:22321   */\n      tag_344\n      jump\t// in\n    tag_602:\n        /* \"#utility.yul\":22368:22377   */\n      dup2\n        /* \"#utility.yul\":22362:22366   */\n      dup2\n        /* \"#utility.yul\":22358:22378   */\n      sub\n        /* \"#utility.yul\":22353:22355   */\n      0x20\n        /* \"#utility.yul\":22342:22351   */\n      dup4\n        /* \"#utility.yul\":22338:22356   */\n      add\n        /* \"#utility.yul\":22331:22379   */\n      mstore\n        /* \"#utility.yul\":22396:22472   */\n      tag_603\n        /* \"#utility.yul\":22467:22471   */\n      dup2\n        /* \"#utility.yul\":22458:22464   */\n      dup8\n        /* \"#utility.yul\":22396:22472   */\n      tag_304\n      jump\t// in\n    tag_603:\n        /* \"#utility.yul\":22388:22472   */\n      swap1\n      pop\n        /* \"#utility.yul\":22482:22552   */\n      tag_604\n        /* \"#utility.yul\":22548:22550   */\n      0x40\n        /* \"#utility.yul\":22537:22546   */\n      dup4\n        /* \"#utility.yul\":22533:22551   */\n      add\n        /* \"#utility.yul\":22524:22530   */\n      dup7\n        /* \"#utility.yul\":22482:22552   */\n      tag_346\n      jump\t// in\n    tag_604:\n        /* \"#utility.yul\":22562:22632   */\n      tag_605\n        /* \"#utility.yul\":22628:22630   */\n      0x60\n        /* \"#utility.yul\":22617:22626   */\n      dup4\n        /* \"#utility.yul\":22613:22631   */\n      add\n        /* \"#utility.yul\":22604:22610   */\n      dup6\n        /* \"#utility.yul\":22562:22632   */\n      tag_347\n      jump\t// in\n    tag_605:\n        /* \"#utility.yul\":22642:22715   */\n      tag_606\n        /* \"#utility.yul\":22710:22713   */\n      0x80\n        /* \"#utility.yul\":22699:22708   */\n      dup4\n        /* \"#utility.yul\":22695:22714   */\n      add\n        /* \"#utility.yul\":22686:22692   */\n      dup5\n        /* \"#utility.yul\":22642:22715   */\n      tag_324\n      jump\t// in\n    tag_606:\n        /* \"#utility.yul\":21983:22722   */\n      swap7\n      swap6\n      pop\n      pop\n      pop\n      pop\n      pop\n      pop\n      jump\t// out\n        /* \"#utility.yul\":22728:22871   */\n    tag_348:\n        /* \"#utility.yul\":22785:22790   */\n      0x00\n        /* \"#utility.yul\":22816:22822   */\n      dup2\n        /* \"#utility.yul\":22810:22823   */\n      mload\n        /* \"#utility.yul\":22801:22823   */\n      swap1\n      pop\n        /* \"#utility.yul\":22832:22865   */\n      tag_608\n        /* \"#utility.yul\":22859:22864   */\n      dup2\n        /* \"#utility.yul\":22832:22865   */\n      tag_289\n      jump\t// in\n    tag_608:\n        /* \"#utility.yul\":22728:22871   */\n      swap3\n      swap2\n      pop\n      pop\n      jump\t// out\n        /* \"#utility.yul\":22877:23228   */\n    tag_166:\n        /* \"#utility.yul\":22947:22953   */\n      0x00\n        /* \"#utility.yul\":22996:22998   */\n      0x20\n        /* \"#utility.yul\":22984:22993   */\n      dup3\n        /* \"#utility.yul\":22975:22982   */\n      dup5\n        /* \"#utility.yul\":22971:22994   */\n      sub\n        /* \"#utility.yul\":22967:22999   */\n      slt\n        /* \"#utility.yul\":22964:23083   */\n      iszero\n      tag_610\n      jumpi\n        /* \"#utility.yul\":23002:23081   */\n      tag_611\n      tag_286\n      jump\t// in\n    tag_611:\n        /* \"#utility.yul\":22964:23083   */\n    tag_610:\n        /* \"#utility.yul\":23122:23123   */\n      0x00\n        /* \"#utility.yul\":23147:23211   */\n      tag_612\n        /* \"#utility.yul\":23203:23210   */\n      dup5\n        /* \"#utility.yul\":23194:23200   */\n      dup3\n        /* \"#utility.yul\":23183:23192   */\n      dup6\n        /* \"#utility.yul\":23179:23201   */\n      add\n        /* \"#utility.yul\":23147:23211   */\n      tag_348\n      jump\t// in\n    tag_612:\n        /* \"#utility.yul\":23137:23211   */\n      swap2\n      pop\n        /* \"#utility.yul\":23093:23221   */\n      pop\n        /* \"#utility.yul\":22877:23228   */\n      swap3\n      swap2\n      pop\n      pop\n      jump\t// out\n        /* \"#utility.yul\":23234:23352   */\n    tag_349:\n        /* \"#utility.yul\":23321:23345   */\n      tag_614\n        /* \"#utility.yul\":23339:23344   */\n      dup2\n        /* \"#utility.yul\":23321:23345   */\n      tag_330\n      jump\t// in\n    tag_614:\n        /* \"#utility.yul\":23316:23319   */\n      dup3\n        /* \"#utility.yul\":23309:23346   */\n      mstore\n        /* \"#utility.yul\":23234:23352   */\n      pop\n      pop\n      jump\t// out\n        /* \"#utility.yul\":23358:23580   */\n    tag_194:\n        /* \"#utility.yul\":23451:23455   */\n      0x00\n        /* \"#utility.yul\":23489:23491   */\n      0x20\n        /* \"#utility.yul\":23478:23487   */\n      dup3\n        /* \"#utility.yul\":23474:23492   */\n      add\n        /* \"#utility.yul\":23466:23492   */\n      swap1\n      pop\n        /* \"#utility.yul\":23502:23573   */\n      tag_616\n        /* \"#utility.yul\":23570:23571   */\n      0x00\n        /* \"#utility.yul\":23559:23568   */\n      dup4\n        /* \"#utility.yul\":23555:23572   */\n      add\n        /* \"#utility.yul\":23546:23552   */\n      dup5\n        /* \"#utility.yul\":23502:23573   */\n      tag_349\n      jump\t// in\n    tag_616:\n        /* \"#utility.yul\":23358:23580   */\n      swap3\n      swap2\n      pop\n      pop\n      jump\t// out\n        /* \"#utility.yul\":23586:23777   */\n    tag_199:\n        /* \"#utility.yul\":23626:23629   */\n      0x00\n        /* \"#utility.yul\":23645:23665   */\n      tag_618\n        /* \"#utility.yul\":23663:23664   */\n      dup3\n        /* \"#utility.yul\":23645:23665   */\n      tag_330\n      jump\t// in\n    tag_618:\n        /* \"#utility.yul\":23640:23665   */\n      swap2\n      pop\n        /* \"#utility.yul\":23679:23699   */\n      tag_619\n        /* \"#utility.yul\":23697:23698   */\n      dup4\n        /* \"#utility.yul\":23679:23699   */\n      tag_330\n      jump\t// in\n    tag_619:\n        /* \"#utility.yul\":23674:23699   */\n      swap3\n      pop\n        /* \"#utility.yul\":23722:23723   */\n      dup3\n        /* \"#utility.yul\":23719:23720   */\n      dup3\n        /* \"#utility.yul\":23715:23724   */\n      add\n        /* \"#utility.yul\":23708:23724   */\n      swap1\n      pop\n        /* \"#utility.yul\":23743:23746   */\n      dup1\n        /* \"#utility.yul\":23740:23741   */\n      dup3\n        /* \"#utility.yul\":23737:23747   */\n      gt\n        /* \"#utility.yul\":23734:23770   */\n      iszero\n      tag_620\n      jumpi\n        /* \"#utility.yul\":23750:23768   */\n      tag_621\n      tag_343\n      jump\t// in\n    tag_621:\n        /* \"#utility.yul\":23734:23770   */\n    tag_620:\n        /* \"#utility.yul\":23586:23777   */\n      swap3\n      swap2\n      pop\n      pop\n      jump\t// out\n        /* \"#utility.yul\":23783:23977   */\n    tag_203:\n        /* \"#utility.yul\":23823:23827   */\n      0x00\n        /* \"#utility.yul\":23843:23863   */\n      tag_623\n        /* \"#utility.yul\":23861:23862   */\n      dup3\n        /* \"#utility.yul\":23843:23863   */\n      tag_330\n      jump\t// in\n    tag_623:\n        /* \"#utility.yul\":23838:23863   */\n      swap2\n      pop\n        /* \"#utility.yul\":23877:23897   */\n      tag_624\n        /* \"#utility.yul\":23895:23896   */\n      dup4\n        /* \"#utility.yul\":23877:23897   */\n      tag_330\n      jump\t// in\n    tag_624:\n        /* \"#utility.yul\":23872:23897   */\n      swap3\n      pop\n        /* \"#utility.yul\":23921:23922   */\n      dup3\n        /* \"#utility.yul\":23918:23919   */\n      dup3\n        /* \"#utility.yul\":23914:23923   */\n      sub\n        /* \"#utility.yul\":23906:23923   */\n      swap1\n      pop\n        /* \"#utility.yul\":23945:23946   */\n      dup2\n        /* \"#utility.yul\":23939:23943   */\n      dup2\n        /* \"#utility.yul\":23936:23947   */\n      gt\n        /* \"#utility.yul\":23933:23970   */\n      iszero\n      tag_625\n      jumpi\n        /* \"#utility.yul\":23950:23968   */\n      tag_626\n      tag_343\n      jump\t// in\n    tag_626:\n        /* \"#utility.yul\":23933:23970   */\n    tag_625:\n        /* \"#utility.yul\":23783:23977   */\n      swap3\n      swap2\n      pop\n      pop\n      jump\t// out\n        /* \"#utility.yul\":23983:24163   */\n    tag_350:\n        /* \"#utility.yul\":24031:24108   */\n      0x4e487b7100000000000000000000000000000000000000000000000000000000\n        /* \"#utility.yul\":24028:24029   */\n      0x00\n        /* \"#utility.yul\":24021:24109   */\n      mstore\n        /* \"#utility.yul\":24128:24132   */\n      0x12\n        /* \"#utility.yul\":24125:24126   */\n      0x04\n        /* \"#utility.yul\":24118:24133   */\n      mstore\n        /* \"#utility.yul\":24152:24156   */\n      0x24\n        /* \"#utility.yul\":24149:24150   */\n      0x00\n        /* \"#utility.yul\":24142:24157   */\n      revert\n        /* \"#utility.yul\":24169:24345   */\n    tag_211:\n        /* \"#utility.yul\":24201:24202   */\n      0x00\n        /* \"#utility.yul\":24218:24238   */\n      tag_629\n        /* \"#utility.yul\":24236:24237   */\n      dup3\n        /* \"#utility.yul\":24218:24238   */\n      tag_330\n      jump\t// in\n    tag_629:\n        /* \"#utility.yul\":24213:24238   */\n      swap2\n      pop\n        /* \"#utility.yul\":24252:24272   */\n      tag_630\n        /* \"#utility.yul\":24270:24271   */\n      dup4\n        /* \"#utility.yul\":24252:24272   */\n      tag_330\n      jump\t// in\n    tag_630:\n        /* \"#utility.yul\":24247:24272   */\n      swap3\n      pop\n        /* \"#utility.yul\":24291:24292   */\n      dup3\n        /* \"#utility.yul\":24281:24316   */\n      tag_631\n      jumpi\n        /* \"#utility.yul\":24296:24314   */\n      tag_632\n      tag_350\n      jump\t// in\n    tag_632:\n        /* \"#utility.yul\":24281:24316   */\n    tag_631:\n        /* \"#utility.yul\":24337:24338   */\n      dup3\n        /* \"#utility.yul\":24334:24335   */\n      dup3\n        /* \"#utility.yul\":24330:24339   */\n      mod\n        /* \"#utility.yul\":24325:24339   */\n      swap1\n      pop\n        /* \"#utility.yul\":24169:24345   */\n      swap3\n      swap2\n      pop\n      pop\n      jump\t// out\n        /* \"#utility.yul\":24351:24761   */\n    tag_246:\n        /* \"#utility.yul\":24391:24398   */\n      0x00\n        /* \"#utility.yul\":24414:24434   */\n      tag_634\n        /* \"#utility.yul\":24432:24433   */\n      dup3\n        /* \"#utility.yul\":24414:24434   */\n      tag_330\n      jump\t// in\n    tag_634:\n        /* \"#utility.yul\":24409:24434   */\n      swap2\n      pop\n        /* \"#utility.yul\":24448:24468   */\n      tag_635\n        /* \"#utility.yul\":24466:24467   */\n      dup4\n        /* \"#utility.yul\":24448:24468   */\n      tag_330\n      jump\t// in\n    tag_635:\n        /* \"#utility.yul\":24443:24468   */\n      swap3\n      pop\n        /* \"#utility.yul\":24503:24504   */\n      dup3\n        /* \"#utility.yul\":24500:24501   */\n      dup3\n        /* \"#utility.yul\":24496:24505   */\n      mul\n        /* \"#utility.yul\":24525:24555   */\n      tag_636\n        /* \"#utility.yul\":24543:24554   */\n      dup2\n        /* \"#utility.yul\":24525:24555   */\n      tag_330\n      jump\t// in\n    tag_636:\n        /* \"#utility.yul\":24514:24555   */\n      swap2\n      pop\n        /* \"#utility.yul\":24704:24705   */\n      dup3\n        /* \"#utility.yul\":24695:24702   */\n      dup3\n        /* \"#utility.yul\":24691:24706   */\n      div\n        /* \"#utility.yul\":24688:24689   */\n      dup5\n        /* \"#utility.yul\":24685:24707   */\n      eq\n        /* \"#utility.yul\":24665:24666   */\n      dup4\n        /* \"#utility.yul\":24658:24667   */\n      iszero\n        /* \"#utility.yul\":24638:24721   */\n      or\n        /* \"#utility.yul\":24615:24754   */\n      tag_637\n      jumpi\n        /* \"#utility.yul\":24734:24752   */\n      tag_638\n      tag_343\n      jump\t// in\n    tag_638:\n        /* \"#utility.yul\":24615:24754   */\n    tag_637:\n        /* \"#utility.yul\":24399:24761   */\n      pop\n        /* \"#utility.yul\":24351:24761   */\n      swap3\n      swap2\n      pop\n      pop\n      jump\t// out\n        /* \"#utility.yul\":24767:24869   */\n    tag_351:\n        /* \"#utility.yul\":24809:24817   */\n      0x00\n        /* \"#utility.yul\":24856:24861   */\n      dup2\n        /* \"#utility.yul\":24853:24854   */\n      0x01\n        /* \"#utility.yul\":24849:24862   */\n      shr\n        /* \"#utility.yul\":24828:24862   */\n      swap1\n      pop\n        /* \"#utility.yul\":24767:24869   */\n      swap2\n      swap1\n      pop\n      jump\t// out\n        /* \"#utility.yul\":24875:25723   */\n    tag_352:\n        /* \"#utility.yul\":24936:24941   */\n      0x00\n        /* \"#utility.yul\":24943:24947   */\n      dup1\n        /* \"#utility.yul\":24967:24973   */\n      dup3\n        /* \"#utility.yul\":24958:24973   */\n      swap2\n      pop\n        /* \"#utility.yul\":24991:24996   */\n      dup4\n        /* \"#utility.yul\":24982:24996   */\n      swap1\n      pop\n        /* \"#utility.yul\":25005:25717   */\n    tag_641:\n        /* \"#utility.yul\":25026:25027   */\n      0x01\n        /* \"#utility.yul\":25016:25024   */\n      dup6\n        /* \"#utility.yul\":25013:25028   */\n      gt\n        /* \"#utility.yul\":25005:25717   */\n      iszero\n      tag_643\n      jumpi\n        /* \"#utility.yul\":25121:25125   */\n      dup1\n        /* \"#utility.yul\":25116:25119   */\n      dup7\n        /* \"#utility.yul\":25112:25126   */\n      div\n        /* \"#utility.yul\":25106:25110   */\n      dup2\n        /* \"#utility.yul\":25103:25127   */\n      gt\n        /* \"#utility.yul\":25100:25150   */\n      iszero\n      tag_644\n      jumpi\n        /* \"#utility.yul\":25130:25148   */\n      tag_645\n      tag_343\n      jump\t// in\n    tag_645:\n        /* \"#utility.yul\":25100:25150   */\n    tag_644:\n        /* \"#utility.yul\":25180:25181   */\n      0x01\n        /* \"#utility.yul\":25170:25178   */\n      dup6\n        /* \"#utility.yul\":25166:25182   */\n      and\n        /* \"#utility.yul\":25163:25614   */\n      iszero\n      tag_646\n      jumpi\n        /* \"#utility.yul\":25595:25599   */\n      dup1\n        /* \"#utility.yul\":25588:25593   */\n      dup3\n        /* \"#utility.yul\":25584:25600   */\n      mul\n        /* \"#utility.yul\":25575:25600   */\n      swap2\n      pop\n        /* \"#utility.yul\":25163:25614   */\n    tag_646:\n        /* \"#utility.yul\":25645:25649   */\n      dup1\n        /* \"#utility.yul\":25639:25643   */\n      dup2\n        /* \"#utility.yul\":25635:25650   */\n      mul\n        /* \"#utility.yul\":25627:25650   */\n      swap1\n      pop\n        /* \"#utility.yul\":25675:25707   */\n      tag_647\n        /* \"#utility.yul\":25698:25706   */\n      dup6\n        /* \"#utility.yul\":25675:25707   */\n      tag_351\n      jump\t// in\n    tag_647:\n        /* \"#utility.yul\":25663:25707   */\n      swap5\n      pop\n        /* \"#utility.yul\":25005:25717   */\n      jump(tag_641)\n    tag_643:\n        /* \"#utility.yul\":24875:25723   */\n      swap5\n      pop\n      swap5\n      swap3\n      pop\n      pop\n      pop\n      jump\t// out\n        /* \"#utility.yul\":25729:26802   */\n    tag_353:\n        /* \"#utility.yul\":25783:25788   */\n      0x00\n        /* \"#utility.yul\":25974:25982   */\n      dup3\n        /* \"#utility.yul\":25964:26004   */\n      tag_649\n      jumpi\n        /* \"#utility.yul\":25995:25996   */\n      0x01\n        /* \"#utility.yul\":25986:25996   */\n      swap1\n      pop\n        /* \"#utility.yul\":25997:26002   */\n      jump(tag_648)\n        /* \"#utility.yul\":25964:26004   */\n    tag_649:\n        /* \"#utility.yul\":26023:26027   */\n      dup2\n        /* \"#utility.yul\":26013:26049   */\n      tag_650\n      jumpi\n        /* \"#utility.yul\":26040:26041   */\n      0x00\n        /* \"#utility.yul\":26031:26041   */\n      swap1\n      pop\n        /* \"#utility.yul\":26042:26047   */\n      jump(tag_648)\n        /* \"#utility.yul\":26013:26049   */\n    tag_650:\n        /* \"#utility.yul\":26109:26113   */\n      dup2\n        /* \"#utility.yul\":26157:26158   */\n      0x01\n        /* \"#utility.yul\":26152:26179   */\n      dup2\n      eq\n      tag_652\n      jumpi\n        /* \"#utility.yul\":26193:26194   */\n      0x02\n        /* \"#utility.yul\":26188:26379   */\n      dup2\n      eq\n      tag_653\n      jumpi\n        /* \"#utility.yul\":26102:26379   */\n      jump(tag_651)\n        /* \"#utility.yul\":26152:26179   */\n    tag_652:\n        /* \"#utility.yul\":26170:26171   */\n      0x01\n        /* \"#utility.yul\":26161:26171   */\n      swap2\n      pop\n        /* \"#utility.yul\":26172:26177   */\n      pop\n      jump(tag_648)\n        /* \"#utility.yul\":26188:26379   */\n    tag_653:\n        /* \"#utility.yul\":26233:26236   */\n      0xff\n        /* \"#utility.yul\":26223:26231   */\n      dup5\n        /* \"#utility.yul\":26220:26237   */\n      gt\n        /* \"#utility.yul\":26217:26260   */\n      iszero\n      tag_654\n      jumpi\n        /* \"#utility.yul\":26240:26258   */\n      tag_655\n      tag_343\n      jump\t// in\n    tag_655:\n        /* \"#utility.yul\":26217:26260   */\n    tag_654:\n        /* \"#utility.yul\":26289:26297   */\n      dup4\n        /* \"#utility.yul\":26286:26287   */\n      0x02\n        /* \"#utility.yul\":26282:26298   */\n      exp\n        /* \"#utility.yul\":26273:26298   */\n      swap2\n      pop\n        /* \"#utility.yul\":26324:26327   */\n      dup5\n        /* \"#utility.yul\":26317:26322   */\n      dup3\n        /* \"#utility.yul\":26314:26328   */\n      gt\n        /* \"#utility.yul\":26311:26351   */\n      iszero\n      tag_656\n      jumpi\n        /* \"#utility.yul\":26331:26349   */\n      tag_657\n      tag_343\n      jump\t// in\n    tag_657:\n        /* \"#utility.yul\":26311:26351   */\n    tag_656:\n        /* \"#utility.yul\":26364:26369   */\n      pop\n      jump(tag_648)\n        /* \"#utility.yul\":26102:26379   */\n    tag_651:\n      pop\n        /* \"#utility.yul\":26488:26490   */\n      0x20\n        /* \"#utility.yul\":26478:26486   */\n      dup4\n        /* \"#utility.yul\":26475:26491   */\n      lt\n        /* \"#utility.yul\":26469:26472   */\n      0x0133\n        /* \"#utility.yul\":26463:26467   */\n      dup4\n        /* \"#utility.yul\":26460:26473   */\n      lt\n        /* \"#utility.yul\":26456:26492   */\n      and\n        /* \"#utility.yul\":26438:26440   */\n      0x4e\n        /* \"#utility.yul\":26428:26436   */\n      dup5\n        /* \"#utility.yul\":26425:26441   */\n      lt\n        /* \"#utility.yul\":26420:26422   */\n      0x0b\n        /* \"#utility.yul\":26414:26418   */\n      dup5\n        /* \"#utility.yul\":26411:26423   */\n      lt\n        /* \"#utility.yul\":26407:26442   */\n      and\n        /* \"#utility.yul\":26391:26502   */\n      or\n        /* \"#utility.yul\":26388:26634   */\n      iszero\n      tag_658\n      jumpi\n        /* \"#utility.yul\":26544:26552   */\n      dup3\n        /* \"#utility.yul\":26538:26542   */\n      dup3\n        /* \"#utility.yul\":26534:26553   */\n      exp\n        /* \"#utility.yul\":26525:26553   */\n      swap1\n      pop\n        /* \"#utility.yul\":26579:26582   */\n      dup4\n        /* \"#utility.yul\":26572:26577   */\n      dup2\n        /* \"#utility.yul\":26569:26583   */\n      gt\n        /* \"#utility.yul\":26566:26606   */\n      iszero\n      tag_659\n      jumpi\n        /* \"#utility.yul\":26586:26604   */\n      tag_660\n      tag_343\n      jump\t// in\n    tag_660:\n        /* \"#utility.yul\":26566:26606   */\n    tag_659:\n        /* \"#utility.yul\":26619:26624   */\n      jump(tag_648)\n        /* \"#utility.yul\":26388:26634   */\n    tag_658:\n        /* \"#utility.yul\":26659:26701   */\n      tag_661\n        /* \"#utility.yul\":26697:26700   */\n      dup5\n        /* \"#utility.yul\":26687:26695   */\n      dup5\n        /* \"#utility.yul\":26681:26685   */\n      dup5\n        /* \"#utility.yul\":26678:26679   */\n      0x01\n        /* \"#utility.yul\":26659:26701   */\n      tag_352\n      jump\t// in\n    tag_661:\n        /* \"#utility.yul\":26644:26701   */\n      swap3\n      pop\n      swap1\n      pop\n        /* \"#utility.yul\":26733:26737   */\n      dup2\n        /* \"#utility.yul\":26728:26731   */\n      dup5\n        /* \"#utility.yul\":26724:26738   */\n      div\n        /* \"#utility.yul\":26717:26722   */\n      dup2\n        /* \"#utility.yul\":26714:26739   */\n      gt\n        /* \"#utility.yul\":26711:26762   */\n      iszero\n      tag_662\n      jumpi\n        /* \"#utility.yul\":26742:26760   */\n      tag_663\n      tag_343\n      jump\t// in\n    tag_663:\n        /* \"#utility.yul\":26711:26762   */\n    tag_662:\n        /* \"#utility.yul\":26791:26795   */\n      dup2\n        /* \"#utility.yul\":26784:26789   */\n      dup2\n        /* \"#utility.yul\":26780:26796   */\n      mul\n        /* \"#utility.yul\":26771:26796   */\n      swap1\n      pop\n        /* \"#utility.yul\":25729:26802   */\n    tag_648:\n      swap4\n      swap3\n      pop\n      pop\n      pop\n      jump\t// out\n        /* \"#utility.yul\":26808:27093   */\n    tag_258:\n        /* \"#utility.yul\":26868:26873   */\n      0x00\n        /* \"#utility.yul\":26892:26915   */\n      tag_665\n        /* \"#utility.yul\":26910:26914   */\n      dup3\n        /* \"#utility.yul\":26892:26915   */\n      tag_330\n      jump\t// in\n    tag_665:\n        /* \"#utility.yul\":26884:26915   */\n      swap2\n      pop\n        /* \"#utility.yul\":26936:26963   */\n      tag_666\n        /* \"#utility.yul\":26954:26962   */\n      dup4\n        /* \"#utility.yul\":26936:26963   */\n      tag_330\n      jump\t// in\n    tag_666:\n        /* \"#utility.yul\":26924:26963   */\n      swap3\n      pop\n        /* \"#utility.yul\":26982:27086   */\n      tag_667\n        /* \"#utility.yul\":27019:27085   */\n      0xffffffffffffffffffffffffffffffffffffffffffffffffffffffffffffffff\n        /* \"#utility.yul\":27009:27017   */\n      dup5\n        /* \"#utility.yul\":27003:27007   */\n      dup5\n        /* \"#utility.yul\":26982:27086   */\n      tag_353\n      jump\t// in\n    tag_667:\n        /* \"#utility.yul\":26973:27086   */\n      swap1\n      pop\n        /* \"#utility.yul\":26808:27093   */\n      swap3\n      swap2\n      pop\n      pop\n      jump\t// out\n\n    auxdata: 0xa26469706673582212201b04b5fda2e3b9a23c95268ec31df16a0fa7850d06efdcaaf1ea054a6bbd3cfe64736f6c63430008130033\n}\n",
				"bytecode": {
					"linkReferences": {},
					"object": "60a06040523480156200001157600080fd5b50604051620023ef380380620023ef8339818101604052810190620000379190620000de565b808073ffffffffffffffffffffffffffffffffffffffff1660808173ffffffffffffffffffffffffffffffffffffffff1681525050505062000110565b600080fd5b600073ffffffffffffffffffffffffffffffffffffffff82169050919050565b6000620000a68262000079565b9050919050565b620000b88162000099565b8114620000c457600080fd5b50565b600081519050620000d881620000ad565b92915050565b600060208284031215620000f757620000f662000074565b5b60006200010784828501620000c7565b91505092915050565b6080516122bc620001336000396000818161013f0152610b0601526122bc6000f3fe608060405234801561001057600080fd5b50600436106100625760003560e01c80630ca76175146100675780633944ea3a146100835780634b0795a8146100a157806352a81eeb146100bf5780639681096f146100ef578063b1e217491461011f575b600080fd5b610081600480360381019061007c9190611455565b61013d565b005b61008b6101ff565b604051610098919061155f565b60405180910390f35b6100a961028d565b6040516100b6919061155f565b60405180910390f35b6100d960048036038101906100d4919061189e565b61031b565b6040516100e691906119e7565b60405180910390f35b61010960048036038101906101049190611a02565b6103ed565b60405161011691906119e7565b60405180910390f35b61012761040e565b60405161013491906119e7565b60405180910390f35b7f000000000000000000000000000000000000000000000000000000000000000073ffffffffffffffffffffffffffffffffffffffff163373ffffffffffffffffffffffffffffffffffffffff16146101c2576040517fc6829f8300000000000000000000000000000000000000000000000000000000815260040160405180910390fd5b6101cd838383610414565b827f85e1543bf2f84fe80c6badbce3648c8539ad1df4d2b3d822938ca0538be727e660405160405180910390a2505050565b6001805461020c90611ab4565b80601f016020809104026020016040519081016040528092919081815260200182805461023890611ab4565b80156102855780601f1061025a57610100808354040283529160200191610285565b820191906000526020600020905b81548152906001019060200180831161026857829003601f168201915b505050505081565b6002805461029a90611ab4565b80601f01602080910402602001604051908101604052809291908181526020018280546102c690611ab4565b80156103135780601f106102e857610100808354040283529160200191610313565b820191906000526020600020905b8154815290600101906020018083116102f657829003601f168201915b505050505081565b6000610325611219565b6103388b826104bb90919063ffffffff16565b60008a51111561035a576103558a826104cc90919063ffffffff16565b610384565b60008867ffffffffffffffff161115610383576103828989836105459092919063ffffffff16565b5b5b6000875111156103a2576103a1878261065590919063ffffffff16565b5b6000865111156103c0576103bf868261069d90919063ffffffff16565b5b6103d46103cc826106e5565b868686610b01565b6000819055506000549150509998505050505050505050565b60006103fb85858585610b01565b6000819055506000549050949350505050565b60005481565b826000541461045a57826040517fd068bf5b00000000000000000000000000000000000000000000000000000000815260040161045191906119e7565b60405180910390fd5b81600190816104699190611c9b565b5080600290816104799190611c9b565b50827f7873807bf6ddc50401cd3d29bbe0decee23fd4d68d273f4b5eb83cded4d2f172600160026040516104ae929190611df1565b60405180910390a2505050565b6104c88260008084610be4565b5050565b6000815103610507576040517fe889636f00000000000000000000000000000000000000000000000000000000815260040160405180910390fd5b6001826020019060028111156105205761051f611e28565b5b9081600281111561053457610533611e28565b5b815250508082608001819052505050565b6000610552610100610c8e565b905061059c6040518060400160405280600681526020017f736c6f744944000000000000000000000000000000000000000000000000000081525082610cb590919063ffffffff16565b6105b28360ff1682610cde90919063ffffffff16565b6105fa6040518060400160405280600781526020017f76657273696f6e0000000000000000000000000000000000000000000000000081525082610cb590919063ffffffff16565b61060d8282610cde90919063ffffffff16565b60028460200190600281111561062657610625611e28565b5b9081600281111561063a57610639611e28565b5b81525050806000015160000151846080018190525050505050565b6000815103610690576040517ffe936cb700000000000000000000000000000000000000000000000000000000815260040160405180910390fd5b808260a001819052505050565b60008151036106d8576040517ffe936cb700000000000000000000000000000000000000000000000000000000815260040160405180910390fd5b808260c001819052505050565b606060006106f4610100610c8e565b905061073e6040518060400160405280600c81526020017f636f64654c6f636174696f6e000000000000000000000000000000000000000081525082610cb590919063ffffffff16565b6107678360000151600281111561075857610757611e28565b5b82610cee90919063ffffffff16565b6107af6040518060400160405280600881526020017f6c616e677561676500000000000000000000000000000000000000000000000081525082610cb590919063ffffffff16565b6107d8836040015160008111156107c9576107c8611e28565b5b82610cee90919063ffffffff16565b6108206040518060400160405280600681526020017f736f75726365000000000000000000000000000000000000000000000000000081525082610cb590919063ffffffff16565b610837836060015182610cb590919063ffffffff16565b60008360a001515111156108f35761088d6040518060400160405280600481526020017f617267730000000000000000000000000000000000000000000000000000000081525082610cb590919063ffffffff16565b61089681610d3e565b60005b8360a00151518110156108e8576108d78460a0015182815181106108c0576108bf611e57565b5b602002602001015183610cb590919063ffffffff16565b806108e190611eb5565b9050610899565b506108f281610d66565b5b60008360800151511115610a34576000600281111561091557610914611e28565b5b8360200151600281111561092c5761092b611e28565b5b03610963576040517fa80d31f700000000000000000000000000000000000000000000000000000000815260040160405180910390fd5b6109ab6040518060400160405280600f81526020017f736563726574734c6f636174696f6e000000000000000000000000000000000081525082610cb590919063ffffffff16565b6109d4836020015160028111156109c5576109c4611e28565b5b82610cee90919063ffffffff16565b610a1c6040518060400160405280600781526020017f736563726574730000000000000000000000000000000000000000000000000081525082610cb590919063ffffffff16565b610a33836080015182610d8e90919063ffffffff16565b5b60008360c00151511115610af057610a8a6040518060400160405280600981526020017f627974657341726773000000000000000000000000000000000000000000000081525082610cb590919063ffffffff16565b610a9381610d3e565b60005b8360c0015151811015610ae557610ad48460c001518281518110610abd57610abc611e57565b5b602002602001015183610d8e90919063ffffffff16565b80610ade90611eb5565b9050610a96565b50610aef81610d66565b5b806000015160000151915050919050565b6000807f000000000000000000000000000000000000000000000000000000000000000073ffffffffffffffffffffffffffffffffffffffff1663461d27628688600188886040518663ffffffff1660e01b8152600401610b66959493929190611f38565b6020604051808303816000875af1158015610b85573d6000803e3d6000fd5b505050506040513d601f19601f82011682018060405250810190610ba99190611fa7565b9050807f1131472297a800fee664d1d89cfa8f7676ff07189ecc53f80bbb5f4969099db860405160405180910390a280915050949350505050565b6000815103610c1f576040517f22ce3edd00000000000000000000000000000000000000000000000000000000815260040160405180910390fd5b8284600001906002811115610c3757610c36611e28565b5b90816002811115610c4b57610c4a611e28565b5b815250508184604001906000811115610c6757610c66611e28565b5b90816000811115610c7b57610c7a611e28565b5b8152505080846060018190525050505050565b610c9661128b565b610ca4816000015183610db7565b506000816020018181525050919050565b610cc28260038351610e30565b610cd9818360000151610fd990919063ffffffff16565b505050565b610cea82600083610e30565b5050565b610d1060026005600660ff16901b178360000151610ff590919063ffffffff16565b50610d3a8282604051602001610d269190611fe3565b604051602081830303815290604052610d8e565b5050565b610d4981600461105f565b600181602001818151610d5c9190611ffe565b9150818152505050565b610d7181600761105f565b600181602001818151610d849190612032565b9150818152505050565b610d9b8260028351610e30565b610db2818360000151610fd990919063ffffffff16565b505050565b610dbf6112ab565b6000602083610dce9190612095565b14610dfa57602082610de09190612095565b6020610dec9190612032565b82610df79190611ffe565b91505b818360200181815250506040518084526000815282810160200181811015610e2157600080fd5b80604052505082905092915050565b60178167ffffffffffffffff1611610e6b57610e658160058460ff16901b60ff16178460000151610ff590919063ffffffff16565b50610fd4565b60ff8167ffffffffffffffff1611610ec957610e9e601860058460ff16901b178460000151610ff590919063ffffffff16565b50610ec38167ffffffffffffffff16600185600001516110859092919063ffffffff16565b50610fd3565b61ffff8167ffffffffffffffff1611610f2857610efd601960058460ff16901b178460000151610ff590919063ffffffff16565b50610f228167ffffffffffffffff16600285600001516110859092919063ffffffff16565b50610fd2565b63ffffffff8167ffffffffffffffff1611610f8957610f5e601a60058460ff16901b178460000151610ff590919063ffffffff16565b50610f838167ffffffffffffffff16600485600001516110859092919063ffffffff16565b50610fd1565b610faa601b60058460ff16901b178460000151610ff590919063ffffffff16565b50610fcf8167ffffffffffffffff16600885600001516110859092919063ffffffff16565b505b5b5b5b505050565b610fe16112ab565b610fed83838451611112565b905092915050565b610ffd6112ab565b6000836000015151905060006001826110169190611ffe565b90508460200151821061103a576110398560028361103491906120c6565b6111f5565b5b84516020838201018581538151831115611052578282525b5050849250505092915050565b611080601f60058360ff16901b178360000151610ff590919063ffffffff16565b505050565b61108d6112ab565b60008460000151519050600081846110a59190611ffe565b905085602001518111156110ca576110c9866002836110c491906120c6565b6111f5565b5b60006001856101006110dc919061223b565b6110e69190612032565b905086518281018783198251161781528151841115611103578382525b50508693505050509392505050565b61111a6112ab565b825182111561112857600080fd5b60008460000151519050600083826111409190611ffe565b90508560200151811115611165576111648660028361115f91906120c6565b6111f5565b5b60008087518051856020830101935080851115611180578482525b60208901925050505b602086106111c757805182526020826111a29190611ffe565b91506020816111b19190611ffe565b90506020866111c09190612032565b9550611189565b60006001876020036101000a0390508019825116818451168181178552505050879450505050509392505050565b6000826000015190506112088383610db7565b506112138382610fd9565b50505050565b6040518060e001604052806000600281111561123857611237611e28565b5b81526020016000600281111561125157611250611e28565b5b815260200160008081111561126957611268611e28565b5b8152602001606081526020016060815260200160608152602001606081525090565b604051806040016040528061129e6112ab565b8152602001600081525090565b604051806040016040528060608152602001600081525090565b6000604051905090565b600080fd5b600080fd5b6000819050919050565b6112ec816112d9565b81146112f757600080fd5b50565b600081359050611309816112e3565b92915050565b600080fd5b600080fd5b6000601f19601f8301169050919050565b7f4e487b7100000000000000000000000000000000000000000000000000000000600052604160045260246000fd5b61136282611319565b810181811067ffffffffffffffff821117156113815761138061132a565b5b80604052505050565b60006113946112c5565b90506113a08282611359565b919050565b600067ffffffffffffffff8211156113c0576113bf61132a565b5b6113c982611319565b9050602081019050919050565b82818337600083830152505050565b60006113f86113f3846113a5565b61138a565b90508281526020810184848401111561141457611413611314565b5b61141f8482856113d6565b509392505050565b600082601f83011261143c5761143b61130f565b5b813561144c8482602086016113e5565b91505092915050565b60008060006060848603121561146e5761146d6112cf565b5b600061147c868287016112fa565b935050602084013567ffffffffffffffff81111561149d5761149c6112d4565b5b6114a986828701611427565b925050604084013567ffffffffffffffff8111156114ca576114c96112d4565b5b6114d686828701611427565b9150509250925092565b600081519050919050565b600082825260208201905092915050565b60005b8381101561151a5780820151818401526020810190506114ff565b60008484015250505050565b6000611531826114e0565b61153b81856114eb565b935061154b8185602086016114fc565b61155481611319565b840191505092915050565b600060208201905081810360008301526115798184611526565b905092915050565b600067ffffffffffffffff82111561159c5761159b61132a565b5b6115a582611319565b9050602081019050919050565b60006115c56115c084611581565b61138a565b9050828152602081018484840111156115e1576115e0611314565b5b6115ec8482856113d6565b509392505050565b600082601f8301126116095761160861130f565b5b81356116198482602086016115b2565b91505092915050565b600060ff82169050919050565b61163881611622565b811461164357600080fd5b50565b6000813590506116558161162f565b92915050565b600067ffffffffffffffff82169050919050565b6116788161165b565b811461168357600080fd5b50565b6000813590506116958161166f565b92915050565b600067ffffffffffffffff8211156116b6576116b561132a565b5b602082029050602081019050919050565b600080fd5b60006116df6116da8461169b565b61138a565b90508083825260208201905060208402830185811115611702576117016116c7565b5b835b8181101561174957803567ffffffffffffffff8111156117275761172661130f565b5b80860161173489826115f4565b85526020850194505050602081019050611704565b5050509392505050565b600082601f8301126117685761176761130f565b5b81356117788482602086016116cc565b91505092915050565b600067ffffffffffffffff82111561179c5761179b61132a565b5b602082029050602081019050919050565b60006117c06117bb84611781565b61138a565b905080838252602082019050602084028301858111156117e3576117e26116c7565b5b835b8181101561182a57803567ffffffffffffffff8111156118085761180761130f565b5b8086016118158982611427565b855260208501945050506020810190506117e5565b5050509392505050565b600082601f8301126118495761184861130f565b5b81356118598482602086016117ad565b91505092915050565b600063ffffffff82169050919050565b61187b81611862565b811461188657600080fd5b50565b60008135905061189881611872565b92915050565b60008060008060008060008060006101208a8c0312156118c1576118c06112cf565b5b60008a013567ffffffffffffffff8111156118df576118de6112d4565b5b6118eb8c828d016115f4565b99505060208a013567ffffffffffffffff81111561190c5761190b6112d4565b5b6119188c828d01611427565b98505060406119298c828d01611646565b975050606061193a8c828d01611686565b96505060808a013567ffffffffffffffff81111561195b5761195a6112d4565b5b6119678c828d01611753565b95505060a08a013567ffffffffffffffff811115611988576119876112d4565b5b6119948c828d01611834565b94505060c06119a58c828d01611686565b93505060e06119b68c828d01611889565b9250506101006119c88c828d016112fa565b9150509295985092959850929598565b6119e1816112d9565b82525050565b60006020820190506119fc60008301846119d8565b92915050565b60008060008060808587031215611a1c57611a1b6112cf565b5b600085013567ffffffffffffffff811115611a3a57611a396112d4565b5b611a4687828801611427565b9450506020611a5787828801611686565b9350506040611a6887828801611889565b9250506060611a79878288016112fa565b91505092959194509250565b7f4e487b7100000000000000000000000000000000000000000000000000000000600052602260045260246000fd5b60006002820490506001821680611acc57607f821691505b602082108103611adf57611ade611a85565b5b50919050565b60008190508160005260206000209050919050565b60006020601f8301049050919050565b600082821b905092915050565b600060088302611b477fffffffffffffffffffffffffffffffffffffffffffffffffffffffffffffffff82611b0a565b611b518683611b0a565b95508019841693508086168417925050509392505050565b6000819050919050565b6000819050919050565b6000611b98611b93611b8e84611b69565b611b73565b611b69565b9050919050565b6000819050919050565b611bb283611b7d565b611bc6611bbe82611b9f565b848454611b17565b825550505050565b600090565b611bdb611bce565b611be6818484611ba9565b505050565b5b81811015611c0a57611bff600082611bd3565b600181019050611bec565b5050565b601f821115611c4f57611c2081611ae5565b611c2984611afa565b81016020851015611c38578190505b611c4c611c4485611afa565b830182611beb565b50505b505050565b600082821c905092915050565b6000611c7260001984600802611c54565b1980831691505092915050565b6000611c8b8383611c61565b9150826002028217905092915050565b611ca4826114e0565b67ffffffffffffffff811115611cbd57611cbc61132a565b5b611cc78254611ab4565b611cd2828285611c0e565b600060209050601f831160018114611d055760008415611cf3578287015190505b611cfd8582611c7f565b865550611d65565b601f198416611d1386611ae5565b60005b82811015611d3b57848901518255600182019150602085019450602081019050611d16565b86831015611d585784890151611d54601f891682611c61565b8355505b6001600288020188555050505b505050505050565b60008154611d7a81611ab4565b611d8481866114eb565b94506001821660008114611d9f5760018114611db557611de8565b60ff198316865281151560200286019350611de8565b611dbe85611ae5565b60005b83811015611de057815481890152600182019150602081019050611dc1565b808801955050505b50505092915050565b60006040820190508181036000830152611e0b8185611d6d565b90508181036020830152611e1f8184611d6d565b90509392505050565b7f4e487b7100000000000000000000000000000000000000000000000000000000600052602160045260246000fd5b7f4e487b7100000000000000000000000000000000000000000000000000000000600052603260045260246000fd5b7f4e487b7100000000000000000000000000000000000000000000000000000000600052601160045260246000fd5b6000611ec082611b69565b91507fffffffffffffffffffffffffffffffffffffffffffffffffffffffffffffffff8203611ef257611ef1611e86565b5b600182019050919050565b611f068161165b565b82525050565b600061ffff82169050919050565b611f2381611f0c565b82525050565b611f3281611862565b82525050565b600060a082019050611f4d6000830188611efd565b8181036020830152611f5f8187611526565b9050611f6e6040830186611f1a565b611f7b6060830185611f29565b611f8860808301846119d8565b9695505050505050565b600081519050611fa1816112e3565b92915050565b600060208284031215611fbd57611fbc6112cf565b5b6000611fcb84828501611f92565b91505092915050565b611fdd81611b69565b82525050565b6000602082019050611ff86000830184611fd4565b92915050565b600061200982611b69565b915061201483611b69565b925082820190508082111561202c5761202b611e86565b5b92915050565b600061203d82611b69565b915061204883611b69565b92508282039050818111156120605761205f611e86565b5b92915050565b7f4e487b7100000000000000000000000000000000000000000000000000000000600052601260045260246000fd5b60006120a082611b69565b91506120ab83611b69565b9250826120bb576120ba612066565b5b828206905092915050565b60006120d182611b69565b91506120dc83611b69565b92508282026120ea81611b69565b9150828204841483151761210157612100611e86565b5b5092915050565b60008160011c9050919050565b6000808291508390505b600185111561215f5780860481111561213b5761213a611e86565b5b600185161561214a5780820291505b808102905061215885612108565b945061211f565b94509492505050565b6000826121785760019050612234565b816121865760009050612234565b816001811461219c57600281146121a6576121d5565b6001915050612234565b60ff8411156121b8576121b7611e86565b5b8360020a9150848211156121cf576121ce611e86565b5b50612234565b5060208310610133831016604e8410600b841016171561220a5782820a90508381111561220557612204611e86565b5b612234565b6122178484846001612115565b9250905081840481111561222e5761222d611e86565b5b81810290505b9392505050565b600061224682611b69565b915061225183611b69565b925061227e7fffffffffffffffffffffffffffffffffffffffffffffffffffffffffffffffff8484612168565b90509291505056fea26469706673582212201b04b5fda2e3b9a23c95268ec31df16a0fa7850d06efdcaaf1ea054a6bbd3cfe64736f6c63430008130033",
					"opcodes": "PUSH1 0xA0 PUSH1 0x40 MSTORE CALLVALUE DUP1 ISZERO PUSH3 0x11 JUMPI PUSH1 0x0 DUP1 REVERT JUMPDEST POP PUSH1 0x40 MLOAD PUSH3 0x23EF CODESIZE SUB DUP1 PUSH3 0x23EF DUP4 CODECOPY DUP2 DUP2 ADD PUSH1 0x40 MSTORE DUP2 ADD SWAP1 PUSH3 0x37 SWAP2 SWAP1 PUSH3 0xDE JUMP JUMPDEST DUP1 DUP1 PUSH20 0xFFFFFFFFFFFFFFFFFFFFFFFFFFFFFFFFFFFFFFFF AND PUSH1 0x80 DUP2 PUSH20 0xFFFFFFFFFFFFFFFFFFFFFFFFFFFFFFFFFFFFFFFF AND DUP2 MSTORE POP POP POP POP PUSH3 0x110 JUMP JUMPDEST PUSH1 0x0 DUP1 REVERT JUMPDEST PUSH1 0x0 PUSH20 0xFFFFFFFFFFFFFFFFFFFFFFFFFFFFFFFFFFFFFFFF DUP3 AND SWAP1 POP SWAP2 SWAP1 POP JUMP JUMPDEST PUSH1 0x0 PUSH3 0xA6 DUP3 PUSH3 0x79 JUMP JUMPDEST SWAP1 POP SWAP2 SWAP1 POP JUMP JUMPDEST PUSH3 0xB8 DUP2 PUSH3 0x99 JUMP JUMPDEST DUP2 EQ PUSH3 0xC4 JUMPI PUSH1 0x0 DUP1 REVERT JUMPDEST POP JUMP JUMPDEST PUSH1 0x0 DUP2 MLOAD SWAP1 POP PUSH3 0xD8 DUP2 PUSH3 0xAD JUMP JUMPDEST SWAP3 SWAP2 POP POP JUMP JUMPDEST PUSH1 0x0 PUSH1 0x20 DUP3 DUP5 SUB SLT ISZERO PUSH3 0xF7 JUMPI PUSH3 0xF6 PUSH3 0x74 JUMP JUMPDEST JUMPDEST PUSH1 0x0 PUSH3 0x107 DUP5 DUP3 DUP6 ADD PUSH3 0xC7 JUMP JUMPDEST SWAP2 POP POP SWAP3 SWAP2 POP POP JUMP JUMPDEST PUSH1 0x80 MLOAD PUSH2 0x22BC PUSH3 0x133 PUSH1 0x0 CODECOPY PUSH1 0x0 DUP2 DUP2 PUSH2 0x13F ADD MSTORE PUSH2 0xB06 ADD MSTORE PUSH2 0x22BC PUSH1 0x0 RETURN INVALID PUSH1 0x80 PUSH1 0x40 MSTORE CALLVALUE DUP1 ISZERO PUSH2 0x10 JUMPI PUSH1 0x0 DUP1 REVERT JUMPDEST POP PUSH1 0x4 CALLDATASIZE LT PUSH2 0x62 JUMPI PUSH1 0x0 CALLDATALOAD PUSH1 0xE0 SHR DUP1 PUSH4 0xCA76175 EQ PUSH2 0x67 JUMPI DUP1 PUSH4 0x3944EA3A EQ PUSH2 0x83 JUMPI DUP1 PUSH4 0x4B0795A8 EQ PUSH2 0xA1 JUMPI DUP1 PUSH4 0x52A81EEB EQ PUSH2 0xBF JUMPI DUP1 PUSH4 0x9681096F EQ PUSH2 0xEF JUMPI DUP1 PUSH4 0xB1E21749 EQ PUSH2 0x11F JUMPI JUMPDEST PUSH1 0x0 DUP1 REVERT JUMPDEST PUSH2 0x81 PUSH1 0x4 DUP1 CALLDATASIZE SUB DUP2 ADD SWAP1 PUSH2 0x7C SWAP2 SWAP1 PUSH2 0x1455 JUMP JUMPDEST PUSH2 0x13D JUMP JUMPDEST STOP JUMPDEST PUSH2 0x8B PUSH2 0x1FF JUMP JUMPDEST PUSH1 0x40 MLOAD PUSH2 0x98 SWAP2 SWAP1 PUSH2 0x155F JUMP JUMPDEST PUSH1 0x40 MLOAD DUP1 SWAP2 SUB SWAP1 RETURN JUMPDEST PUSH2 0xA9 PUSH2 0x28D JUMP JUMPDEST PUSH1 0x40 MLOAD PUSH2 0xB6 SWAP2 SWAP1 PUSH2 0x155F JUMP JUMPDEST PUSH1 0x40 MLOAD DUP1 SWAP2 SUB SWAP1 RETURN JUMPDEST PUSH2 0xD9 PUSH1 0x4 DUP1 CALLDATASIZE SUB DUP2 ADD SWAP1 PUSH2 0xD4 SWAP2 SWAP1 PUSH2 0x189E JUMP JUMPDEST PUSH2 0x31B JUMP JUMPDEST PUSH1 0x40 MLOAD PUSH2 0xE6 SWAP2 SWAP1 PUSH2 0x19E7 JUMP JUMPDEST PUSH1 0x40 MLOAD DUP1 SWAP2 SUB SWAP1 RETURN JUMPDEST PUSH2 0x109 PUSH1 0x4 DUP1 CALLDATASIZE SUB DUP2 ADD SWAP1 PUSH2 0x104 SWAP2 SWAP1 PUSH2 0x1A02 JUMP JUMPDEST PUSH2 0x3ED JUMP JUMPDEST PUSH1 0x40 MLOAD PUSH2 0x116 SWAP2 SWAP1 PUSH2 0x19E7 JUMP JUMPDEST PUSH1 0x40 MLOAD DUP1 SWAP2 SUB SWAP1 RETURN JUMPDEST PUSH2 0x127 PUSH2 0x40E JUMP JUMPDEST PUSH1 0x40 MLOAD PUSH2 0x134 SWAP2 SWAP1 PUSH2 0x19E7 JUMP JUMPDEST PUSH1 0x40 MLOAD DUP1 SWAP2 SUB SWAP1 RETURN JUMPDEST PUSH32 0x0 PUSH20 0xFFFFFFFFFFFFFFFFFFFFFFFFFFFFFFFFFFFFFFFF AND CALLER PUSH20 0xFFFFFFFFFFFFFFFFFFFFFFFFFFFFFFFFFFFFFFFF AND EQ PUSH2 0x1C2 JUMPI PUSH1 0x40 MLOAD PUSH32 0xC6829F8300000000000000000000000000000000000000000000000000000000 DUP2 MSTORE PUSH1 0x4 ADD PUSH1 0x40 MLOAD DUP1 SWAP2 SUB SWAP1 REVERT JUMPDEST PUSH2 0x1CD DUP4 DUP4 DUP4 PUSH2 0x414 JUMP JUMPDEST DUP3 PUSH32 0x85E1543BF2F84FE80C6BADBCE3648C8539AD1DF4D2B3D822938CA0538BE727E6 PUSH1 0x40 MLOAD PUSH1 0x40 MLOAD DUP1 SWAP2 SUB SWAP1 LOG2 POP POP POP JUMP JUMPDEST PUSH1 0x1 DUP1 SLOAD PUSH2 0x20C SWAP1 PUSH2 0x1AB4 JUMP JUMPDEST DUP1 PUSH1 0x1F ADD PUSH1 0x20 DUP1 SWAP2 DIV MUL PUSH1 0x20 ADD PUSH1 0x40 MLOAD SWAP1 DUP2 ADD PUSH1 0x40 MSTORE DUP1 SWAP3 SWAP2 SWAP1 DUP2 DUP2 MSTORE PUSH1 0x20 ADD DUP3 DUP1 SLOAD PUSH2 0x238 SWAP1 PUSH2 0x1AB4 JUMP JUMPDEST DUP1 ISZERO PUSH2 0x285 JUMPI DUP1 PUSH1 0x1F LT PUSH2 0x25A JUMPI PUSH2 0x100 DUP1 DUP4 SLOAD DIV MUL DUP4 MSTORE SWAP2 PUSH1 0x20 ADD SWAP2 PUSH2 0x285 JUMP JUMPDEST DUP3 ADD SWAP2 SWAP1 PUSH1 0x0 MSTORE PUSH1 0x20 PUSH1 0x0 KECCAK256 SWAP1 JUMPDEST DUP2 SLOAD DUP2 MSTORE SWAP1 PUSH1 0x1 ADD SWAP1 PUSH1 0x20 ADD DUP1 DUP4 GT PUSH2 0x268 JUMPI DUP3 SWAP1 SUB PUSH1 0x1F AND DUP3 ADD SWAP2 JUMPDEST POP POP POP POP POP DUP2 JUMP JUMPDEST PUSH1 0x2 DUP1 SLOAD PUSH2 0x29A SWAP1 PUSH2 0x1AB4 JUMP JUMPDEST DUP1 PUSH1 0x1F ADD PUSH1 0x20 DUP1 SWAP2 DIV MUL PUSH1 0x20 ADD PUSH1 0x40 MLOAD SWAP1 DUP2 ADD PUSH1 0x40 MSTORE DUP1 SWAP3 SWAP2 SWAP1 DUP2 DUP2 MSTORE PUSH1 0x20 ADD DUP3 DUP1 SLOAD PUSH2 0x2C6 SWAP1 PUSH2 0x1AB4 JUMP JUMPDEST DUP1 ISZERO PUSH2 0x313 JUMPI DUP1 PUSH1 0x1F LT PUSH2 0x2E8 JUMPI PUSH2 0x100 DUP1 DUP4 SLOAD DIV MUL DUP4 MSTORE SWAP2 PUSH1 0x20 ADD SWAP2 PUSH2 0x313 JUMP JUMPDEST DUP3 ADD SWAP2 SWAP1 PUSH1 0x0 MSTORE PUSH1 0x20 PUSH1 0x0 KECCAK256 SWAP1 JUMPDEST DUP2 SLOAD DUP2 MSTORE SWAP1 PUSH1 0x1 ADD SWAP1 PUSH1 0x20 ADD DUP1 DUP4 GT PUSH2 0x2F6 JUMPI DUP3 SWAP1 SUB PUSH1 0x1F AND DUP3 ADD SWAP2 JUMPDEST POP POP POP POP POP DUP2 JUMP JUMPDEST PUSH1 0x0 PUSH2 0x325 PUSH2 0x1219 JUMP JUMPDEST PUSH2 0x338 DUP12 DUP3 PUSH2 0x4BB SWAP1 SWAP2 SWAP1 PUSH4 0xFFFFFFFF AND JUMP JUMPDEST PUSH1 0x0 DUP11 MLOAD GT ISZERO PUSH2 0x35A JUMPI PUSH2 0x355 DUP11 DUP3 PUSH2 0x4CC SWAP1 SWAP2 SWAP1 PUSH4 0xFFFFFFFF AND JUMP JUMPDEST PUSH2 0x384 JUMP JUMPDEST PUSH1 0x0 DUP9 PUSH8 0xFFFFFFFFFFFFFFFF AND GT ISZERO PUSH2 0x383 JUMPI PUSH2 0x382 DUP10 DUP10 DUP4 PUSH2 0x545 SWAP1 SWAP3 SWAP2 SWAP1 PUSH4 0xFFFFFFFF AND JUMP JUMPDEST JUMPDEST JUMPDEST PUSH1 0x0 DUP8 MLOAD GT ISZERO PUSH2 0x3A2 JUMPI PUSH2 0x3A1 DUP8 DUP3 PUSH2 0x655 SWAP1 SWAP2 SWAP1 PUSH4 0xFFFFFFFF AND JUMP JUMPDEST JUMPDEST PUSH1 0x0 DUP7 MLOAD GT ISZERO PUSH2 0x3C0 JUMPI PUSH2 0x3BF DUP7 DUP3 PUSH2 0x69D SWAP1 SWAP2 SWAP1 PUSH4 0xFFFFFFFF AND JUMP JUMPDEST JUMPDEST PUSH2 0x3D4 PUSH2 0x3CC DUP3 PUSH2 0x6E5 JUMP JUMPDEST DUP7 DUP7 DUP7 PUSH2 0xB01 JUMP JUMPDEST PUSH1 0x0 DUP2 SWAP1 SSTORE POP PUSH1 0x0 SLOAD SWAP2 POP POP SWAP10 SWAP9 POP POP POP POP POP POP POP POP POP JUMP JUMPDEST PUSH1 0x0 PUSH2 0x3FB DUP6 DUP6 DUP6 DUP6 PUSH2 0xB01 JUMP JUMPDEST PUSH1 0x0 DUP2 SWAP1 SSTORE POP PUSH1 0x0 SLOAD SWAP1 POP SWAP5 SWAP4 POP POP POP POP JUMP JUMPDEST PUSH1 0x0 SLOAD DUP2 JUMP JUMPDEST DUP3 PUSH1 0x0 SLOAD EQ PUSH2 0x45A JUMPI DUP3 PUSH1 0x40 MLOAD PUSH32 0xD068BF5B00000000000000000000000000000000000000000000000000000000 DUP2 MSTORE PUSH1 0x4 ADD PUSH2 0x451 SWAP2 SWAP1 PUSH2 0x19E7 JUMP JUMPDEST PUSH1 0x40 MLOAD DUP1 SWAP2 SUB SWAP1 REVERT JUMPDEST DUP2 PUSH1 0x1 SWAP1 DUP2 PUSH2 0x469 SWAP2 SWAP1 PUSH2 0x1C9B JUMP JUMPDEST POP DUP1 PUSH1 0x2 SWAP1 DUP2 PUSH2 0x479 SWAP2 SWAP1 PUSH2 0x1C9B JUMP JUMPDEST POP DUP3 PUSH32 0x7873807BF6DDC50401CD3D29BBE0DECEE23FD4D68D273F4B5EB83CDED4D2F172 PUSH1 0x1 PUSH1 0x2 PUSH1 0x40 MLOAD PUSH2 0x4AE SWAP3 SWAP2 SWAP1 PUSH2 0x1DF1 JUMP JUMPDEST PUSH1 0x40 MLOAD DUP1 SWAP2 SUB SWAP1 LOG2 POP POP POP JUMP JUMPDEST PUSH2 0x4C8 DUP3 PUSH1 0x0 DUP1 DUP5 PUSH2 0xBE4 JUMP JUMPDEST POP POP JUMP JUMPDEST PUSH1 0x0 DUP2 MLOAD SUB PUSH2 0x507 JUMPI PUSH1 0x40 MLOAD PUSH32 0xE889636F00000000000000000000000000000000000000000000000000000000 DUP2 MSTORE PUSH1 0x4 ADD PUSH1 0x40 MLOAD DUP1 SWAP2 SUB SWAP1 REVERT JUMPDEST PUSH1 0x1 DUP3 PUSH1 0x20 ADD SWAP1 PUSH1 0x2 DUP2 GT ISZERO PUSH2 0x520 JUMPI PUSH2 0x51F PUSH2 0x1E28 JUMP JUMPDEST JUMPDEST SWAP1 DUP2 PUSH1 0x2 DUP2 GT ISZERO PUSH2 0x534 JUMPI PUSH2 0x533 PUSH2 0x1E28 JUMP JUMPDEST JUMPDEST DUP2 MSTORE POP POP DUP1 DUP3 PUSH1 0x80 ADD DUP2 SWAP1 MSTORE POP POP POP JUMP JUMPDEST PUSH1 0x0 PUSH2 0x552 PUSH2 0x100 PUSH2 0xC8E JUMP JUMPDEST SWAP1 POP PUSH2 0x59C PUSH1 0x40 MLOAD DUP1 PUSH1 0x40 ADD PUSH1 0x40 MSTORE DUP1 PUSH1 0x6 DUP2 MSTORE PUSH1 0x20 ADD PUSH32 0x736C6F7449440000000000000000000000000000000000000000000000000000 DUP2 MSTORE POP DUP3 PUSH2 0xCB5 SWAP1 SWAP2 SWAP1 PUSH4 0xFFFFFFFF AND JUMP JUMPDEST PUSH2 0x5B2 DUP4 PUSH1 0xFF AND DUP3 PUSH2 0xCDE SWAP1 SWAP2 SWAP1 PUSH4 0xFFFFFFFF AND JUMP JUMPDEST PUSH2 0x5FA PUSH1 0x40 MLOAD DUP1 PUSH1 0x40 ADD PUSH1 0x40 MSTORE DUP1 PUSH1 0x7 DUP2 MSTORE PUSH1 0x20 ADD PUSH32 0x76657273696F6E00000000000000000000000000000000000000000000000000 DUP2 MSTORE POP DUP3 PUSH2 0xCB5 SWAP1 SWAP2 SWAP1 PUSH4 0xFFFFFFFF AND JUMP JUMPDEST PUSH2 0x60D DUP3 DUP3 PUSH2 0xCDE SWAP1 SWAP2 SWAP1 PUSH4 0xFFFFFFFF AND JUMP JUMPDEST PUSH1 0x2 DUP5 PUSH1 0x20 ADD SWAP1 PUSH1 0x2 DUP2 GT ISZERO PUSH2 0x626 JUMPI PUSH2 0x625 PUSH2 0x1E28 JUMP JUMPDEST JUMPDEST SWAP1 DUP2 PUSH1 0x2 DUP2 GT ISZERO PUSH2 0x63A JUMPI PUSH2 0x639 PUSH2 0x1E28 JUMP JUMPDEST JUMPDEST DUP2 MSTORE POP POP DUP1 PUSH1 0x0 ADD MLOAD PUSH1 0x0 ADD MLOAD DUP5 PUSH1 0x80 ADD DUP2 SWAP1 MSTORE POP POP POP POP POP JUMP JUMPDEST PUSH1 0x0 DUP2 MLOAD SUB PUSH2 0x690 JUMPI PUSH1 0x40 MLOAD PUSH32 0xFE936CB700000000000000000000000000000000000000000000000000000000 DUP2 MSTORE PUSH1 0x4 ADD PUSH1 0x40 MLOAD DUP1 SWAP2 SUB SWAP1 REVERT JUMPDEST DUP1 DUP3 PUSH1 0xA0 ADD DUP2 SWAP1 MSTORE POP POP POP JUMP JUMPDEST PUSH1 0x0 DUP2 MLOAD SUB PUSH2 0x6D8 JUMPI PUSH1 0x40 MLOAD PUSH32 0xFE936CB700000000000000000000000000000000000000000000000000000000 DUP2 MSTORE PUSH1 0x4 ADD PUSH1 0x40 MLOAD DUP1 SWAP2 SUB SWAP1 REVERT JUMPDEST DUP1 DUP3 PUSH1 0xC0 ADD DUP2 SWAP1 MSTORE POP POP POP JUMP JUMPDEST PUSH1 0x60 PUSH1 0x0 PUSH2 0x6F4 PUSH2 0x100 PUSH2 0xC8E JUMP JUMPDEST SWAP1 POP PUSH2 0x73E PUSH1 0x40 MLOAD DUP1 PUSH1 0x40 ADD PUSH1 0x40 MSTORE DUP1 PUSH1 0xC DUP2 MSTORE PUSH1 0x20 ADD PUSH32 0x636F64654C6F636174696F6E0000000000000000000000000000000000000000 DUP2 MSTORE POP DUP3 PUSH2 0xCB5 SWAP1 SWAP2 SWAP1 PUSH4 0xFFFFFFFF AND JUMP JUMPDEST PUSH2 0x767 DUP4 PUSH1 0x0 ADD MLOAD PUSH1 0x2 DUP2 GT ISZERO PUSH2 0x758 JUMPI PUSH2 0x757 PUSH2 0x1E28 JUMP JUMPDEST JUMPDEST DUP3 PUSH2 0xCEE SWAP1 SWAP2 SWAP1 PUSH4 0xFFFFFFFF AND JUMP JUMPDEST PUSH2 0x7AF PUSH1 0x40 MLOAD DUP1 PUSH1 0x40 ADD PUSH1 0x40 MSTORE DUP1 PUSH1 0x8 DUP2 MSTORE PUSH1 0x20 ADD PUSH32 0x6C616E6775616765000000000000000000000000000000000000000000000000 DUP2 MSTORE POP DUP3 PUSH2 0xCB5 SWAP1 SWAP2 SWAP1 PUSH4 0xFFFFFFFF AND JUMP JUMPDEST PUSH2 0x7D8 DUP4 PUSH1 0x40 ADD MLOAD PUSH1 0x0 DUP2 GT ISZERO PUSH2 0x7C9 JUMPI PUSH2 0x7C8 PUSH2 0x1E28 JUMP JUMPDEST JUMPDEST DUP3 PUSH2 0xCEE SWAP1 SWAP2 SWAP1 PUSH4 0xFFFFFFFF AND JUMP JUMPDEST PUSH2 0x820 PUSH1 0x40 MLOAD DUP1 PUSH1 0x40 ADD PUSH1 0x40 MSTORE DUP1 PUSH1 0x6 DUP2 MSTORE PUSH1 0x20 ADD PUSH32 0x736F757263650000000000000000000000000000000000000000000000000000 DUP2 MSTORE POP DUP3 PUSH2 0xCB5 SWAP1 SWAP2 SWAP1 PUSH4 0xFFFFFFFF AND JUMP JUMPDEST PUSH2 0x837 DUP4 PUSH1 0x60 ADD MLOAD DUP3 PUSH2 0xCB5 SWAP1 SWAP2 SWAP1 PUSH4 0xFFFFFFFF AND JUMP JUMPDEST PUSH1 0x0 DUP4 PUSH1 0xA0 ADD MLOAD MLOAD GT ISZERO PUSH2 0x8F3 JUMPI PUSH2 0x88D PUSH1 0x40 MLOAD DUP1 PUSH1 0x40 ADD PUSH1 0x40 MSTORE DUP1 PUSH1 0x4 DUP2 MSTORE PUSH1 0x20 ADD PUSH32 0x6172677300000000000000000000000000000000000000000000000000000000 DUP2 MSTORE POP DUP3 PUSH2 0xCB5 SWAP1 SWAP2 SWAP1 PUSH4 0xFFFFFFFF AND JUMP JUMPDEST PUSH2 0x896 DUP2 PUSH2 0xD3E JUMP JUMPDEST PUSH1 0x0 JUMPDEST DUP4 PUSH1 0xA0 ADD MLOAD MLOAD DUP2 LT ISZERO PUSH2 0x8E8 JUMPI PUSH2 0x8D7 DUP5 PUSH1 0xA0 ADD MLOAD DUP3 DUP2 MLOAD DUP2 LT PUSH2 0x8C0 JUMPI PUSH2 0x8BF PUSH2 0x1E57 JUMP JUMPDEST JUMPDEST PUSH1 0x20 MUL PUSH1 0x20 ADD ADD MLOAD DUP4 PUSH2 0xCB5 SWAP1 SWAP2 SWAP1 PUSH4 0xFFFFFFFF AND JUMP JUMPDEST DUP1 PUSH2 0x8E1 SWAP1 PUSH2 0x1EB5 JUMP JUMPDEST SWAP1 POP PUSH2 0x899 JUMP JUMPDEST POP PUSH2 0x8F2 DUP2 PUSH2 0xD66 JUMP JUMPDEST JUMPDEST PUSH1 0x0 DUP4 PUSH1 0x80 ADD MLOAD MLOAD GT ISZERO PUSH2 0xA34 JUMPI PUSH1 0x0 PUSH1 0x2 DUP2 GT ISZERO PUSH2 0x915 JUMPI PUSH2 0x914 PUSH2 0x1E28 JUMP JUMPDEST JUMPDEST DUP4 PUSH1 0x20 ADD MLOAD PUSH1 0x2 DUP2 GT ISZERO PUSH2 0x92C JUMPI PUSH2 0x92B PUSH2 0x1E28 JUMP JUMPDEST JUMPDEST SUB PUSH2 0x963 JUMPI PUSH1 0x40 MLOAD PUSH32 0xA80D31F700000000000000000000000000000000000000000000000000000000 DUP2 MSTORE PUSH1 0x4 ADD PUSH1 0x40 MLOAD DUP1 SWAP2 SUB SWAP1 REVERT JUMPDEST PUSH2 0x9AB PUSH1 0x40 MLOAD DUP1 PUSH1 0x40 ADD PUSH1 0x40 MSTORE DUP1 PUSH1 0xF DUP2 MSTORE PUSH1 0x20 ADD PUSH32 0x736563726574734C6F636174696F6E0000000000000000000000000000000000 DUP2 MSTORE POP DUP3 PUSH2 0xCB5 SWAP1 SWAP2 SWAP1 PUSH4 0xFFFFFFFF AND JUMP JUMPDEST PUSH2 0x9D4 DUP4 PUSH1 0x20 ADD MLOAD PUSH1 0x2 DUP2 GT ISZERO PUSH2 0x9C5 JUMPI PUSH2 0x9C4 PUSH2 0x1E28 JUMP JUMPDEST JUMPDEST DUP3 PUSH2 0xCEE SWAP1 SWAP2 SWAP1 PUSH4 0xFFFFFFFF AND JUMP JUMPDEST PUSH2 0xA1C PUSH1 0x40 MLOAD DUP1 PUSH1 0x40 ADD PUSH1 0x40 MSTORE DUP1 PUSH1 0x7 DUP2 MSTORE PUSH1 0x20 ADD PUSH32 0x7365637265747300000000000000000000000000000000000000000000000000 DUP2 MSTORE POP DUP3 PUSH2 0xCB5 SWAP1 SWAP2 SWAP1 PUSH4 0xFFFFFFFF AND JUMP JUMPDEST PUSH2 0xA33 DUP4 PUSH1 0x80 ADD MLOAD DUP3 PUSH2 0xD8E SWAP1 SWAP2 SWAP1 PUSH4 0xFFFFFFFF AND JUMP JUMPDEST JUMPDEST PUSH1 0x0 DUP4 PUSH1 0xC0 ADD MLOAD MLOAD GT ISZERO PUSH2 0xAF0 JUMPI PUSH2 0xA8A PUSH1 0x40 MLOAD DUP1 PUSH1 0x40 ADD PUSH1 0x40 MSTORE DUP1 PUSH1 0x9 DUP2 MSTORE PUSH1 0x20 ADD PUSH32 0x6279746573417267730000000000000000000000000000000000000000000000 DUP2 MSTORE POP DUP3 PUSH2 0xCB5 SWAP1 SWAP2 SWAP1 PUSH4 0xFFFFFFFF AND JUMP JUMPDEST PUSH2 0xA93 DUP2 PUSH2 0xD3E JUMP JUMPDEST PUSH1 0x0 JUMPDEST DUP4 PUSH1 0xC0 ADD MLOAD MLOAD DUP2 LT ISZERO PUSH2 0xAE5 JUMPI PUSH2 0xAD4 DUP5 PUSH1 0xC0 ADD MLOAD DUP3 DUP2 MLOAD DUP2 LT PUSH2 0xABD JUMPI PUSH2 0xABC PUSH2 0x1E57 JUMP JUMPDEST JUMPDEST PUSH1 0x20 MUL PUSH1 0x20 ADD ADD MLOAD DUP4 PUSH2 0xD8E SWAP1 SWAP2 SWAP1 PUSH4 0xFFFFFFFF AND JUMP JUMPDEST DUP1 PUSH2 0xADE SWAP1 PUSH2 0x1EB5 JUMP JUMPDEST SWAP1 POP PUSH2 0xA96 JUMP JUMPDEST POP PUSH2 0xAEF DUP2 PUSH2 0xD66 JUMP JUMPDEST JUMPDEST DUP1 PUSH1 0x0 ADD MLOAD PUSH1 0x0 ADD MLOAD SWAP2 POP POP SWAP2 SWAP1 POP JUMP JUMPDEST PUSH1 0x0 DUP1 PUSH32 0x0 PUSH20 0xFFFFFFFFFFFFFFFFFFFFFFFFFFFFFFFFFFFFFFFF AND PUSH4 0x461D2762 DUP7 DUP9 PUSH1 0x1 DUP9 DUP9 PUSH1 0x40 MLOAD DUP7 PUSH4 0xFFFFFFFF AND PUSH1 0xE0 SHL DUP2 MSTORE PUSH1 0x4 ADD PUSH2 0xB66 SWAP6 SWAP5 SWAP4 SWAP3 SWAP2 SWAP1 PUSH2 0x1F38 JUMP JUMPDEST PUSH1 0x20 PUSH1 0x40 MLOAD DUP1 DUP4 SUB DUP2 PUSH1 0x0 DUP8 GAS CALL ISZERO DUP1 ISZERO PUSH2 0xB85 JUMPI RETURNDATASIZE PUSH1 0x0 DUP1 RETURNDATACOPY RETURNDATASIZE PUSH1 0x0 REVERT JUMPDEST POP POP POP POP PUSH1 0x40 MLOAD RETURNDATASIZE PUSH1 0x1F NOT PUSH1 0x1F DUP3 ADD AND DUP3 ADD DUP1 PUSH1 0x40 MSTORE POP DUP2 ADD SWAP1 PUSH2 0xBA9 SWAP2 SWAP1 PUSH2 0x1FA7 JUMP JUMPDEST SWAP1 POP DUP1 PUSH32 0x1131472297A800FEE664D1D89CFA8F7676FF07189ECC53F80BBB5F4969099DB8 PUSH1 0x40 MLOAD PUSH1 0x40 MLOAD DUP1 SWAP2 SUB SWAP1 LOG2 DUP1 SWAP2 POP POP SWAP5 SWAP4 POP POP POP POP JUMP JUMPDEST PUSH1 0x0 DUP2 MLOAD SUB PUSH2 0xC1F JUMPI PUSH1 0x40 MLOAD PUSH32 0x22CE3EDD00000000000000000000000000000000000000000000000000000000 DUP2 MSTORE PUSH1 0x4 ADD PUSH1 0x40 MLOAD DUP1 SWAP2 SUB SWAP1 REVERT JUMPDEST DUP3 DUP5 PUSH1 0x0 ADD SWAP1 PUSH1 0x2 DUP2 GT ISZERO PUSH2 0xC37 JUMPI PUSH2 0xC36 PUSH2 0x1E28 JUMP JUMPDEST JUMPDEST SWAP1 DUP2 PUSH1 0x2 DUP2 GT ISZERO PUSH2 0xC4B JUMPI PUSH2 0xC4A PUSH2 0x1E28 JUMP JUMPDEST JUMPDEST DUP2 MSTORE POP POP DUP2 DUP5 PUSH1 0x40 ADD SWAP1 PUSH1 0x0 DUP2 GT ISZERO PUSH2 0xC67 JUMPI PUSH2 0xC66 PUSH2 0x1E28 JUMP JUMPDEST JUMPDEST SWAP1 DUP2 PUSH1 0x0 DUP2 GT ISZERO PUSH2 0xC7B JUMPI PUSH2 0xC7A PUSH2 0x1E28 JUMP JUMPDEST JUMPDEST DUP2 MSTORE POP POP DUP1 DUP5 PUSH1 0x60 ADD DUP2 SWAP1 MSTORE POP POP POP POP POP JUMP JUMPDEST PUSH2 0xC96 PUSH2 0x128B JUMP JUMPDEST PUSH2 0xCA4 DUP2 PUSH1 0x0 ADD MLOAD DUP4 PUSH2 0xDB7 JUMP JUMPDEST POP PUSH1 0x0 DUP2 PUSH1 0x20 ADD DUP2 DUP2 MSTORE POP POP SWAP2 SWAP1 POP JUMP JUMPDEST PUSH2 0xCC2 DUP3 PUSH1 0x3 DUP4 MLOAD PUSH2 0xE30 JUMP JUMPDEST PUSH2 0xCD9 DUP2 DUP4 PUSH1 0x0 ADD MLOAD PUSH2 0xFD9 SWAP1 SWAP2 SWAP1 PUSH4 0xFFFFFFFF AND JUMP JUMPDEST POP POP POP JUMP JUMPDEST PUSH2 0xCEA DUP3 PUSH1 0x0 DUP4 PUSH2 0xE30 JUMP JUMPDEST POP POP JUMP JUMPDEST PUSH2 0xD10 PUSH1 0x2 PUSH1 0x5 PUSH1 0x6 PUSH1 0xFF AND SWAP1 SHL OR DUP4 PUSH1 0x0 ADD MLOAD PUSH2 0xFF5 SWAP1 SWAP2 SWAP1 PUSH4 0xFFFFFFFF AND JUMP JUMPDEST POP PUSH2 0xD3A DUP3 DUP3 PUSH1 0x40 MLOAD PUSH1 0x20 ADD PUSH2 0xD26 SWAP2 SWAP1 PUSH2 0x1FE3 JUMP JUMPDEST PUSH1 0x40 MLOAD PUSH1 0x20 DUP2 DUP4 SUB SUB DUP2 MSTORE SWAP1 PUSH1 0x40 MSTORE PUSH2 0xD8E JUMP JUMPDEST POP POP JUMP JUMPDEST PUSH2 0xD49 DUP2 PUSH1 0x4 PUSH2 0x105F JUMP JUMPDEST PUSH1 0x1 DUP2 PUSH1 0x20 ADD DUP2 DUP2 MLOAD PUSH2 0xD5C SWAP2 SWAP1 PUSH2 0x1FFE JUMP JUMPDEST SWAP2 POP DUP2 DUP2 MSTORE POP POP POP JUMP JUMPDEST PUSH2 0xD71 DUP2 PUSH1 0x7 PUSH2 0x105F JUMP JUMPDEST PUSH1 0x1 DUP2 PUSH1 0x20 ADD DUP2 DUP2 MLOAD PUSH2 0xD84 SWAP2 SWAP1 PUSH2 0x2032 JUMP JUMPDEST SWAP2 POP DUP2 DUP2 MSTORE POP POP POP JUMP JUMPDEST PUSH2 0xD9B DUP3 PUSH1 0x2 DUP4 MLOAD PUSH2 0xE30 JUMP JUMPDEST PUSH2 0xDB2 DUP2 DUP4 PUSH1 0x0 ADD MLOAD PUSH2 0xFD9 SWAP1 SWAP2 SWAP1 PUSH4 0xFFFFFFFF AND JUMP JUMPDEST POP POP POP JUMP JUMPDEST PUSH2 0xDBF PUSH2 0x12AB JUMP JUMPDEST PUSH1 0x0 PUSH1 0x20 DUP4 PUSH2 0xDCE SWAP2 SWAP1 PUSH2 0x2095 JUMP JUMPDEST EQ PUSH2 0xDFA JUMPI PUSH1 0x20 DUP3 PUSH2 0xDE0 SWAP2 SWAP1 PUSH2 0x2095 JUMP JUMPDEST PUSH1 0x20 PUSH2 0xDEC SWAP2 SWAP1 PUSH2 0x2032 JUMP JUMPDEST DUP3 PUSH2 0xDF7 SWAP2 SWAP1 PUSH2 0x1FFE JUMP JUMPDEST SWAP2 POP JUMPDEST DUP2 DUP4 PUSH1 0x20 ADD DUP2 DUP2 MSTORE POP POP PUSH1 0x40 MLOAD DUP1 DUP5 MSTORE PUSH1 0x0 DUP2 MSTORE DUP3 DUP2 ADD PUSH1 0x20 ADD DUP2 DUP2 LT ISZERO PUSH2 0xE21 JUMPI PUSH1 0x0 DUP1 REVERT JUMPDEST DUP1 PUSH1 0x40 MSTORE POP POP DUP3 SWAP1 POP SWAP3 SWAP2 POP POP JUMP JUMPDEST PUSH1 0x17 DUP2 PUSH8 0xFFFFFFFFFFFFFFFF AND GT PUSH2 0xE6B JUMPI PUSH2 0xE65 DUP2 PUSH1 0x5 DUP5 PUSH1 0xFF AND SWAP1 SHL PUSH1 0xFF AND OR DUP5 PUSH1 0x0 ADD MLOAD PUSH2 0xFF5 SWAP1 SWAP2 SWAP1 PUSH4 0xFFFFFFFF AND JUMP JUMPDEST POP PUSH2 0xFD4 JUMP JUMPDEST PUSH1 0xFF DUP2 PUSH8 0xFFFFFFFFFFFFFFFF AND GT PUSH2 0xEC9 JUMPI PUSH2 0xE9E PUSH1 0x18 PUSH1 0x5 DUP5 PUSH1 0xFF AND SWAP1 SHL OR DUP5 PUSH1 0x0 ADD MLOAD PUSH2 0xFF5 SWAP1 SWAP2 SWAP1 PUSH4 0xFFFFFFFF AND JUMP JUMPDEST POP PUSH2 0xEC3 DUP2 PUSH8 0xFFFFFFFFFFFFFFFF AND PUSH1 0x1 DUP6 PUSH1 0x0 ADD MLOAD PUSH2 0x1085 SWAP1 SWAP3 SWAP2 SWAP1 PUSH4 0xFFFFFFFF AND JUMP JUMPDEST POP PUSH2 0xFD3 JUMP JUMPDEST PUSH2 0xFFFF DUP2 PUSH8 0xFFFFFFFFFFFFFFFF AND GT PUSH2 0xF28 JUMPI PUSH2 0xEFD PUSH1 0x19 PUSH1 0x5 DUP5 PUSH1 0xFF AND SWAP1 SHL OR DUP5 PUSH1 0x0 ADD MLOAD PUSH2 0xFF5 SWAP1 SWAP2 SWAP1 PUSH4 0xFFFFFFFF AND JUMP JUMPDEST POP PUSH2 0xF22 DUP2 PUSH8 0xFFFFFFFFFFFFFFFF AND PUSH1 0x2 DUP6 PUSH1 0x0 ADD MLOAD PUSH2 0x1085 SWAP1 SWAP3 SWAP2 SWAP1 PUSH4 0xFFFFFFFF AND JUMP JUMPDEST POP PUSH2 0xFD2 JUMP JUMPDEST PUSH4 0xFFFFFFFF DUP2 PUSH8 0xFFFFFFFFFFFFFFFF AND GT PUSH2 0xF89 JUMPI PUSH2 0xF5E PUSH1 0x1A PUSH1 0x5 DUP5 PUSH1 0xFF AND SWAP1 SHL OR DUP5 PUSH1 0x0 ADD MLOAD PUSH2 0xFF5 SWAP1 SWAP2 SWAP1 PUSH4 0xFFFFFFFF AND JUMP JUMPDEST POP PUSH2 0xF83 DUP2 PUSH8 0xFFFFFFFFFFFFFFFF AND PUSH1 0x4 DUP6 PUSH1 0x0 ADD MLOAD PUSH2 0x1085 SWAP1 SWAP3 SWAP2 SWAP1 PUSH4 0xFFFFFFFF AND JUMP JUMPDEST POP PUSH2 0xFD1 JUMP JUMPDEST PUSH2 0xFAA PUSH1 0x1B PUSH1 0x5 DUP5 PUSH1 0xFF AND SWAP1 SHL OR DUP5 PUSH1 0x0 ADD MLOAD PUSH2 0xFF5 SWAP1 SWAP2 SWAP1 PUSH4 0xFFFFFFFF AND JUMP JUMPDEST POP PUSH2 0xFCF DUP2 PUSH8 0xFFFFFFFFFFFFFFFF AND PUSH1 0x8 DUP6 PUSH1 0x0 ADD MLOAD PUSH2 0x1085 SWAP1 SWAP3 SWAP2 SWAP1 PUSH4 0xFFFFFFFF AND JUMP JUMPDEST POP JUMPDEST JUMPDEST JUMPDEST JUMPDEST POP POP POP JUMP JUMPDEST PUSH2 0xFE1 PUSH2 0x12AB JUMP JUMPDEST PUSH2 0xFED DUP4 DUP4 DUP5 MLOAD PUSH2 0x1112 JUMP JUMPDEST SWAP1 POP SWAP3 SWAP2 POP POP JUMP JUMPDEST PUSH2 0xFFD PUSH2 0x12AB JUMP JUMPDEST PUSH1 0x0 DUP4 PUSH1 0x0 ADD MLOAD MLOAD SWAP1 POP PUSH1 0x0 PUSH1 0x1 DUP3 PUSH2 0x1016 SWAP2 SWAP1 PUSH2 0x1FFE JUMP JUMPDEST SWAP1 POP DUP5 PUSH1 0x20 ADD MLOAD DUP3 LT PUSH2 0x103A JUMPI PUSH2 0x1039 DUP6 PUSH1 0x2 DUP4 PUSH2 0x1034 SWAP2 SWAP1 PUSH2 0x20C6 JUMP JUMPDEST PUSH2 0x11F5 JUMP JUMPDEST JUMPDEST DUP5 MLOAD PUSH1 0x20 DUP4 DUP3 ADD ADD DUP6 DUP2 MSTORE8 DUP2 MLOAD DUP4 GT ISZERO PUSH2 0x1052 JUMPI DUP3 DUP3 MSTORE JUMPDEST POP POP DUP5 SWAP3 POP POP POP SWAP3 SWAP2 POP POP JUMP JUMPDEST PUSH2 0x1080 PUSH1 0x1F PUSH1 0x5 DUP4 PUSH1 0xFF AND SWAP1 SHL OR DUP4 PUSH1 0x0 ADD MLOAD PUSH2 0xFF5 SWAP1 SWAP2 SWAP1 PUSH4 0xFFFFFFFF AND JUMP JUMPDEST POP POP POP JUMP JUMPDEST PUSH2 0x108D PUSH2 0x12AB JUMP JUMPDEST PUSH1 0x0 DUP5 PUSH1 0x0 ADD MLOAD MLOAD SWAP1 POP PUSH1 0x0 DUP2 DUP5 PUSH2 0x10A5 SWAP2 SWAP1 PUSH2 0x1FFE JUMP JUMPDEST SWAP1 POP DUP6 PUSH1 0x20 ADD MLOAD DUP2 GT ISZERO PUSH2 0x10CA JUMPI PUSH2 0x10C9 DUP7 PUSH1 0x2 DUP4 PUSH2 0x10C4 SWAP2 SWAP1 PUSH2 0x20C6 JUMP JUMPDEST PUSH2 0x11F5 JUMP JUMPDEST JUMPDEST PUSH1 0x0 PUSH1 0x1 DUP6 PUSH2 0x100 PUSH2 0x10DC SWAP2 SWAP1 PUSH2 0x223B JUMP JUMPDEST PUSH2 0x10E6 SWAP2 SWAP1 PUSH2 0x2032 JUMP JUMPDEST SWAP1 POP DUP7 MLOAD DUP3 DUP2 ADD DUP8 DUP4 NOT DUP3 MLOAD AND OR DUP2 MSTORE DUP2 MLOAD DUP5 GT ISZERO PUSH2 0x1103 JUMPI DUP4 DUP3 MSTORE JUMPDEST POP POP DUP7 SWAP4 POP POP POP POP SWAP4 SWAP3 POP POP POP JUMP JUMPDEST PUSH2 0x111A PUSH2 0x12AB JUMP JUMPDEST DUP3 MLOAD DUP3 GT ISZERO PUSH2 0x1128 JUMPI PUSH1 0x0 DUP1 REVERT JUMPDEST PUSH1 0x0 DUP5 PUSH1 0x0 ADD MLOAD MLOAD SWAP1 POP PUSH1 0x0 DUP4 DUP3 PUSH2 0x1140 SWAP2 SWAP1 PUSH2 0x1FFE JUMP JUMPDEST SWAP1 POP DUP6 PUSH1 0x20 ADD MLOAD DUP2 GT ISZERO PUSH2 0x1165 JUMPI PUSH2 0x1164 DUP7 PUSH1 0x2 DUP4 PUSH2 0x115F SWAP2 SWAP1 PUSH2 0x20C6 JUMP JUMPDEST PUSH2 0x11F5 JUMP JUMPDEST JUMPDEST PUSH1 0x0 DUP1 DUP8 MLOAD DUP1 MLOAD DUP6 PUSH1 0x20 DUP4 ADD ADD SWAP4 POP DUP1 DUP6 GT ISZERO PUSH2 0x1180 JUMPI DUP5 DUP3 MSTORE JUMPDEST PUSH1 0x20 DUP10 ADD SWAP3 POP POP POP JUMPDEST PUSH1 0x20 DUP7 LT PUSH2 0x11C7 JUMPI DUP1 MLOAD DUP3 MSTORE PUSH1 0x20 DUP3 PUSH2 0x11A2 SWAP2 SWAP1 PUSH2 0x1FFE JUMP JUMPDEST SWAP2 POP PUSH1 0x20 DUP2 PUSH2 0x11B1 SWAP2 SWAP1 PUSH2 0x1FFE JUMP JUMPDEST SWAP1 POP PUSH1 0x20 DUP7 PUSH2 0x11C0 SWAP2 SWAP1 PUSH2 0x2032 JUMP JUMPDEST SWAP6 POP PUSH2 0x1189 JUMP JUMPDEST PUSH1 0x0 PUSH1 0x1 DUP8 PUSH1 0x20 SUB PUSH2 0x100 EXP SUB SWAP1 POP DUP1 NOT DUP3 MLOAD AND DUP2 DUP5 MLOAD AND DUP2 DUP2 OR DUP6 MSTORE POP POP POP DUP8 SWAP5 POP POP POP POP POP SWAP4 SWAP3 POP POP POP JUMP JUMPDEST PUSH1 0x0 DUP3 PUSH1 0x0 ADD MLOAD SWAP1 POP PUSH2 0x1208 DUP4 DUP4 PUSH2 0xDB7 JUMP JUMPDEST POP PUSH2 0x1213 DUP4 DUP3 PUSH2 0xFD9 JUMP JUMPDEST POP POP POP POP JUMP JUMPDEST PUSH1 0x40 MLOAD DUP1 PUSH1 0xE0 ADD PUSH1 0x40 MSTORE DUP1 PUSH1 0x0 PUSH1 0x2 DUP2 GT ISZERO PUSH2 0x1238 JUMPI PUSH2 0x1237 PUSH2 0x1E28 JUMP JUMPDEST JUMPDEST DUP2 MSTORE PUSH1 0x20 ADD PUSH1 0x0 PUSH1 0x2 DUP2 GT ISZERO PUSH2 0x1251 JUMPI PUSH2 0x1250 PUSH2 0x1E28 JUMP JUMPDEST JUMPDEST DUP2 MSTORE PUSH1 0x20 ADD PUSH1 0x0 DUP1 DUP2 GT ISZERO PUSH2 0x1269 JUMPI PUSH2 0x1268 PUSH2 0x1E28 JUMP JUMPDEST JUMPDEST DUP2 MSTORE PUSH1 0x20 ADD PUSH1 0x60 DUP2 MSTORE PUSH1 0x20 ADD PUSH1 0x60 DUP2 MSTORE PUSH1 0x20 ADD PUSH1 0x60 DUP2 MSTORE PUSH1 0x20 ADD PUSH1 0x60 DUP2 MSTORE POP SWAP1 JUMP JUMPDEST PUSH1 0x40 MLOAD DUP1 PUSH1 0x40 ADD PUSH1 0x40 MSTORE DUP1 PUSH2 0x129E PUSH2 0x12AB JUMP JUMPDEST DUP2 MSTORE PUSH1 0x20 ADD PUSH1 0x0 DUP2 MSTORE POP SWAP1 JUMP JUMPDEST PUSH1 0x40 MLOAD DUP1 PUSH1 0x40 ADD PUSH1 0x40 MSTORE DUP1 PUSH1 0x60 DUP2 MSTORE PUSH1 0x20 ADD PUSH1 0x0 DUP2 MSTORE POP SWAP1 JUMP JUMPDEST PUSH1 0x0 PUSH1 0x40 MLOAD SWAP1 POP SWAP1 JUMP JUMPDEST PUSH1 0x0 DUP1 REVERT JUMPDEST PUSH1 0x0 DUP1 REVERT JUMPDEST PUSH1 0x0 DUP2 SWAP1 POP SWAP2 SWAP1 POP JUMP JUMPDEST PUSH2 0x12EC DUP2 PUSH2 0x12D9 JUMP JUMPDEST DUP2 EQ PUSH2 0x12F7 JUMPI PUSH1 0x0 DUP1 REVERT JUMPDEST POP JUMP JUMPDEST PUSH1 0x0 DUP2 CALLDATALOAD SWAP1 POP PUSH2 0x1309 DUP2 PUSH2 0x12E3 JUMP JUMPDEST SWAP3 SWAP2 POP POP JUMP JUMPDEST PUSH1 0x0 DUP1 REVERT JUMPDEST PUSH1 0x0 DUP1 REVERT JUMPDEST PUSH1 0x0 PUSH1 0x1F NOT PUSH1 0x1F DUP4 ADD AND SWAP1 POP SWAP2 SWAP1 POP JUMP JUMPDEST PUSH32 0x4E487B7100000000000000000000000000000000000000000000000000000000 PUSH1 0x0 MSTORE PUSH1 0x41 PUSH1 0x4 MSTORE PUSH1 0x24 PUSH1 0x0 REVERT JUMPDEST PUSH2 0x1362 DUP3 PUSH2 0x1319 JUMP JUMPDEST DUP2 ADD DUP2 DUP2 LT PUSH8 0xFFFFFFFFFFFFFFFF DUP3 GT OR ISZERO PUSH2 0x1381 JUMPI PUSH2 0x1380 PUSH2 0x132A JUMP JUMPDEST JUMPDEST DUP1 PUSH1 0x40 MSTORE POP POP POP JUMP JUMPDEST PUSH1 0x0 PUSH2 0x1394 PUSH2 0x12C5 JUMP JUMPDEST SWAP1 POP PUSH2 0x13A0 DUP3 DUP3 PUSH2 0x1359 JUMP JUMPDEST SWAP2 SWAP1 POP JUMP JUMPDEST PUSH1 0x0 PUSH8 0xFFFFFFFFFFFFFFFF DUP3 GT ISZERO PUSH2 0x13C0 JUMPI PUSH2 0x13BF PUSH2 0x132A JUMP JUMPDEST JUMPDEST PUSH2 0x13C9 DUP3 PUSH2 0x1319 JUMP JUMPDEST SWAP1 POP PUSH1 0x20 DUP2 ADD SWAP1 POP SWAP2 SWAP1 POP JUMP JUMPDEST DUP3 DUP2 DUP4 CALLDATACOPY PUSH1 0x0 DUP4 DUP4 ADD MSTORE POP POP POP JUMP JUMPDEST PUSH1 0x0 PUSH2 0x13F8 PUSH2 0x13F3 DUP5 PUSH2 0x13A5 JUMP JUMPDEST PUSH2 0x138A JUMP JUMPDEST SWAP1 POP DUP3 DUP2 MSTORE PUSH1 0x20 DUP2 ADD DUP5 DUP5 DUP5 ADD GT ISZERO PUSH2 0x1414 JUMPI PUSH2 0x1413 PUSH2 0x1314 JUMP JUMPDEST JUMPDEST PUSH2 0x141F DUP5 DUP3 DUP6 PUSH2 0x13D6 JUMP JUMPDEST POP SWAP4 SWAP3 POP POP POP JUMP JUMPDEST PUSH1 0x0 DUP3 PUSH1 0x1F DUP4 ADD SLT PUSH2 0x143C JUMPI PUSH2 0x143B PUSH2 0x130F JUMP JUMPDEST JUMPDEST DUP2 CALLDATALOAD PUSH2 0x144C DUP5 DUP3 PUSH1 0x20 DUP7 ADD PUSH2 0x13E5 JUMP JUMPDEST SWAP2 POP POP SWAP3 SWAP2 POP POP JUMP JUMPDEST PUSH1 0x0 DUP1 PUSH1 0x0 PUSH1 0x60 DUP5 DUP7 SUB SLT ISZERO PUSH2 0x146E JUMPI PUSH2 0x146D PUSH2 0x12CF JUMP JUMPDEST JUMPDEST PUSH1 0x0 PUSH2 0x147C DUP7 DUP3 DUP8 ADD PUSH2 0x12FA JUMP JUMPDEST SWAP4 POP POP PUSH1 0x20 DUP5 ADD CALLDATALOAD PUSH8 0xFFFFFFFFFFFFFFFF DUP2 GT ISZERO PUSH2 0x149D JUMPI PUSH2 0x149C PUSH2 0x12D4 JUMP JUMPDEST JUMPDEST PUSH2 0x14A9 DUP7 DUP3 DUP8 ADD PUSH2 0x1427 JUMP JUMPDEST SWAP3 POP POP PUSH1 0x40 DUP5 ADD CALLDATALOAD PUSH8 0xFFFFFFFFFFFFFFFF DUP2 GT ISZERO PUSH2 0x14CA JUMPI PUSH2 0x14C9 PUSH2 0x12D4 JUMP JUMPDEST JUMPDEST PUSH2 0x14D6 DUP7 DUP3 DUP8 ADD PUSH2 0x1427 JUMP JUMPDEST SWAP2 POP POP SWAP3 POP SWAP3 POP SWAP3 JUMP JUMPDEST PUSH1 0x0 DUP2 MLOAD SWAP1 POP SWAP2 SWAP1 POP JUMP JUMPDEST PUSH1 0x0 DUP3 DUP3 MSTORE PUSH1 0x20 DUP3 ADD SWAP1 POP SWAP3 SWAP2 POP POP JUMP JUMPDEST PUSH1 0x0 JUMPDEST DUP4 DUP2 LT ISZERO PUSH2 0x151A JUMPI DUP1 DUP3 ADD MLOAD DUP2 DUP5 ADD MSTORE PUSH1 0x20 DUP2 ADD SWAP1 POP PUSH2 0x14FF JUMP JUMPDEST PUSH1 0x0 DUP5 DUP5 ADD MSTORE POP POP POP POP JUMP JUMPDEST PUSH1 0x0 PUSH2 0x1531 DUP3 PUSH2 0x14E0 JUMP JUMPDEST PUSH2 0x153B DUP2 DUP6 PUSH2 0x14EB JUMP JUMPDEST SWAP4 POP PUSH2 0x154B DUP2 DUP6 PUSH1 0x20 DUP7 ADD PUSH2 0x14FC JUMP JUMPDEST PUSH2 0x1554 DUP2 PUSH2 0x1319 JUMP JUMPDEST DUP5 ADD SWAP2 POP POP SWAP3 SWAP2 POP POP JUMP JUMPDEST PUSH1 0x0 PUSH1 0x20 DUP3 ADD SWAP1 POP DUP2 DUP2 SUB PUSH1 0x0 DUP4 ADD MSTORE PUSH2 0x1579 DUP2 DUP5 PUSH2 0x1526 JUMP JUMPDEST SWAP1 POP SWAP3 SWAP2 POP POP JUMP JUMPDEST PUSH1 0x0 PUSH8 0xFFFFFFFFFFFFFFFF DUP3 GT ISZERO PUSH2 0x159C JUMPI PUSH2 0x159B PUSH2 0x132A JUMP JUMPDEST JUMPDEST PUSH2 0x15A5 DUP3 PUSH2 0x1319 JUMP JUMPDEST SWAP1 POP PUSH1 0x20 DUP2 ADD SWAP1 POP SWAP2 SWAP1 POP JUMP JUMPDEST PUSH1 0x0 PUSH2 0x15C5 PUSH2 0x15C0 DUP5 PUSH2 0x1581 JUMP JUMPDEST PUSH2 0x138A JUMP JUMPDEST SWAP1 POP DUP3 DUP2 MSTORE PUSH1 0x20 DUP2 ADD DUP5 DUP5 DUP5 ADD GT ISZERO PUSH2 0x15E1 JUMPI PUSH2 0x15E0 PUSH2 0x1314 JUMP JUMPDEST JUMPDEST PUSH2 0x15EC DUP5 DUP3 DUP6 PUSH2 0x13D6 JUMP JUMPDEST POP SWAP4 SWAP3 POP POP POP JUMP JUMPDEST PUSH1 0x0 DUP3 PUSH1 0x1F DUP4 ADD SLT PUSH2 0x1609 JUMPI PUSH2 0x1608 PUSH2 0x130F JUMP JUMPDEST JUMPDEST DUP2 CALLDATALOAD PUSH2 0x1619 DUP5 DUP3 PUSH1 0x20 DUP7 ADD PUSH2 0x15B2 JUMP JUMPDEST SWAP2 POP POP SWAP3 SWAP2 POP POP JUMP JUMPDEST PUSH1 0x0 PUSH1 0xFF DUP3 AND SWAP1 POP SWAP2 SWAP1 POP JUMP JUMPDEST PUSH2 0x1638 DUP2 PUSH2 0x1622 JUMP JUMPDEST DUP2 EQ PUSH2 0x1643 JUMPI PUSH1 0x0 DUP1 REVERT JUMPDEST POP JUMP JUMPDEST PUSH1 0x0 DUP2 CALLDATALOAD SWAP1 POP PUSH2 0x1655 DUP2 PUSH2 0x162F JUMP JUMPDEST SWAP3 SWAP2 POP POP JUMP JUMPDEST PUSH1 0x0 PUSH8 0xFFFFFFFFFFFFFFFF DUP3 AND SWAP1 POP SWAP2 SWAP1 POP JUMP JUMPDEST PUSH2 0x1678 DUP2 PUSH2 0x165B JUMP JUMPDEST DUP2 EQ PUSH2 0x1683 JUMPI PUSH1 0x0 DUP1 REVERT JUMPDEST POP JUMP JUMPDEST PUSH1 0x0 DUP2 CALLDATALOAD SWAP1 POP PUSH2 0x1695 DUP2 PUSH2 0x166F JUMP JUMPDEST SWAP3 SWAP2 POP POP JUMP JUMPDEST PUSH1 0x0 PUSH8 0xFFFFFFFFFFFFFFFF DUP3 GT ISZERO PUSH2 0x16B6 JUMPI PUSH2 0x16B5 PUSH2 0x132A JUMP JUMPDEST JUMPDEST PUSH1 0x20 DUP3 MUL SWAP1 POP PUSH1 0x20 DUP2 ADD SWAP1 POP SWAP2 SWAP1 POP JUMP JUMPDEST PUSH1 0x0 DUP1 REVERT JUMPDEST PUSH1 0x0 PUSH2 0x16DF PUSH2 0x16DA DUP5 PUSH2 0x169B JUMP JUMPDEST PUSH2 0x138A JUMP JUMPDEST SWAP1 POP DUP1 DUP4 DUP3 MSTORE PUSH1 0x20 DUP3 ADD SWAP1 POP PUSH1 0x20 DUP5 MUL DUP4 ADD DUP6 DUP2 GT ISZERO PUSH2 0x1702 JUMPI PUSH2 0x1701 PUSH2 0x16C7 JUMP JUMPDEST JUMPDEST DUP4 JUMPDEST DUP2 DUP2 LT ISZERO PUSH2 0x1749 JUMPI DUP1 CALLDATALOAD PUSH8 0xFFFFFFFFFFFFFFFF DUP2 GT ISZERO PUSH2 0x1727 JUMPI PUSH2 0x1726 PUSH2 0x130F JUMP JUMPDEST JUMPDEST DUP1 DUP7 ADD PUSH2 0x1734 DUP10 DUP3 PUSH2 0x15F4 JUMP JUMPDEST DUP6 MSTORE PUSH1 0x20 DUP6 ADD SWAP5 POP POP POP PUSH1 0x20 DUP2 ADD SWAP1 POP PUSH2 0x1704 JUMP JUMPDEST POP POP POP SWAP4 SWAP3 POP POP POP JUMP JUMPDEST PUSH1 0x0 DUP3 PUSH1 0x1F DUP4 ADD SLT PUSH2 0x1768 JUMPI PUSH2 0x1767 PUSH2 0x130F JUMP JUMPDEST JUMPDEST DUP2 CALLDATALOAD PUSH2 0x1778 DUP5 DUP3 PUSH1 0x20 DUP7 ADD PUSH2 0x16CC JUMP JUMPDEST SWAP2 POP POP SWAP3 SWAP2 POP POP JUMP JUMPDEST PUSH1 0x0 PUSH8 0xFFFFFFFFFFFFFFFF DUP3 GT ISZERO PUSH2 0x179C JUMPI PUSH2 0x179B PUSH2 0x132A JUMP JUMPDEST JUMPDEST PUSH1 0x20 DUP3 MUL SWAP1 POP PUSH1 0x20 DUP2 ADD SWAP1 POP SWAP2 SWAP1 POP JUMP JUMPDEST PUSH1 0x0 PUSH2 0x17C0 PUSH2 0x17BB DUP5 PUSH2 0x1781 JUMP JUMPDEST PUSH2 0x138A JUMP JUMPDEST SWAP1 POP DUP1 DUP4 DUP3 MSTORE PUSH1 0x20 DUP3 ADD SWAP1 POP PUSH1 0x20 DUP5 MUL DUP4 ADD DUP6 DUP2 GT ISZERO PUSH2 0x17E3 JUMPI PUSH2 0x17E2 PUSH2 0x16C7 JUMP JUMPDEST JUMPDEST DUP4 JUMPDEST DUP2 DUP2 LT ISZERO PUSH2 0x182A JUMPI DUP1 CALLDATALOAD PUSH8 0xFFFFFFFFFFFFFFFF DUP2 GT ISZERO PUSH2 0x1808 JUMPI PUSH2 0x1807 PUSH2 0x130F JUMP JUMPDEST JUMPDEST DUP1 DUP7 ADD PUSH2 0x1815 DUP10 DUP3 PUSH2 0x1427 JUMP JUMPDEST DUP6 MSTORE PUSH1 0x20 DUP6 ADD SWAP5 POP POP POP PUSH1 0x20 DUP2 ADD SWAP1 POP PUSH2 0x17E5 JUMP JUMPDEST POP POP POP SWAP4 SWAP3 POP POP POP JUMP JUMPDEST PUSH1 0x0 DUP3 PUSH1 0x1F DUP4 ADD SLT PUSH2 0x1849 JUMPI PUSH2 0x1848 PUSH2 0x130F JUMP JUMPDEST JUMPDEST DUP2 CALLDATALOAD PUSH2 0x1859 DUP5 DUP3 PUSH1 0x20 DUP7 ADD PUSH2 0x17AD JUMP JUMPDEST SWAP2 POP POP SWAP3 SWAP2 POP POP JUMP JUMPDEST PUSH1 0x0 PUSH4 0xFFFFFFFF DUP3 AND SWAP1 POP SWAP2 SWAP1 POP JUMP JUMPDEST PUSH2 0x187B DUP2 PUSH2 0x1862 JUMP JUMPDEST DUP2 EQ PUSH2 0x1886 JUMPI PUSH1 0x0 DUP1 REVERT JUMPDEST POP JUMP JUMPDEST PUSH1 0x0 DUP2 CALLDATALOAD SWAP1 POP PUSH2 0x1898 DUP2 PUSH2 0x1872 JUMP JUMPDEST SWAP3 SWAP2 POP POP JUMP JUMPDEST PUSH1 0x0 DUP1 PUSH1 0x0 DUP1 PUSH1 0x0 DUP1 PUSH1 0x0 DUP1 PUSH1 0x0 PUSH2 0x120 DUP11 DUP13 SUB SLT ISZERO PUSH2 0x18C1 JUMPI PUSH2 0x18C0 PUSH2 0x12CF JUMP JUMPDEST JUMPDEST PUSH1 0x0 DUP11 ADD CALLDATALOAD PUSH8 0xFFFFFFFFFFFFFFFF DUP2 GT ISZERO PUSH2 0x18DF JUMPI PUSH2 0x18DE PUSH2 0x12D4 JUMP JUMPDEST JUMPDEST PUSH2 0x18EB DUP13 DUP3 DUP14 ADD PUSH2 0x15F4 JUMP JUMPDEST SWAP10 POP POP PUSH1 0x20 DUP11 ADD CALLDATALOAD PUSH8 0xFFFFFFFFFFFFFFFF DUP2 GT ISZERO PUSH2 0x190C JUMPI PUSH2 0x190B PUSH2 0x12D4 JUMP JUMPDEST JUMPDEST PUSH2 0x1918 DUP13 DUP3 DUP14 ADD PUSH2 0x1427 JUMP JUMPDEST SWAP9 POP POP PUSH1 0x40 PUSH2 0x1929 DUP13 DUP3 DUP14 ADD PUSH2 0x1646 JUMP JUMPDEST SWAP8 POP POP PUSH1 0x60 PUSH2 0x193A DUP13 DUP3 DUP14 ADD PUSH2 0x1686 JUMP JUMPDEST SWAP7 POP POP PUSH1 0x80 DUP11 ADD CALLDATALOAD PUSH8 0xFFFFFFFFFFFFFFFF DUP2 GT ISZERO PUSH2 0x195B JUMPI PUSH2 0x195A PUSH2 0x12D4 JUMP JUMPDEST JUMPDEST PUSH2 0x1967 DUP13 DUP3 DUP14 ADD PUSH2 0x1753 JUMP JUMPDEST SWAP6 POP POP PUSH1 0xA0 DUP11 ADD CALLDATALOAD PUSH8 0xFFFFFFFFFFFFFFFF DUP2 GT ISZERO PUSH2 0x1988 JUMPI PUSH2 0x1987 PUSH2 0x12D4 JUMP JUMPDEST JUMPDEST PUSH2 0x1994 DUP13 DUP3 DUP14 ADD PUSH2 0x1834 JUMP JUMPDEST SWAP5 POP POP PUSH1 0xC0 PUSH2 0x19A5 DUP13 DUP3 DUP14 ADD PUSH2 0x1686 JUMP JUMPDEST SWAP4 POP POP PUSH1 0xE0 PUSH2 0x19B6 DUP13 DUP3 DUP14 ADD PUSH2 0x1889 JUMP JUMPDEST SWAP3 POP POP PUSH2 0x100 PUSH2 0x19C8 DUP13 DUP3 DUP14 ADD PUSH2 0x12FA JUMP JUMPDEST SWAP2 POP POP SWAP3 SWAP6 SWAP9 POP SWAP3 SWAP6 SWAP9 POP SWAP3 SWAP6 SWAP9 JUMP JUMPDEST PUSH2 0x19E1 DUP2 PUSH2 0x12D9 JUMP JUMPDEST DUP3 MSTORE POP POP JUMP JUMPDEST PUSH1 0x0 PUSH1 0x20 DUP3 ADD SWAP1 POP PUSH2 0x19FC PUSH1 0x0 DUP4 ADD DUP5 PUSH2 0x19D8 JUMP JUMPDEST SWAP3 SWAP2 POP POP JUMP JUMPDEST PUSH1 0x0 DUP1 PUSH1 0x0 DUP1 PUSH1 0x80 DUP6 DUP8 SUB SLT ISZERO PUSH2 0x1A1C JUMPI PUSH2 0x1A1B PUSH2 0x12CF JUMP JUMPDEST JUMPDEST PUSH1 0x0 DUP6 ADD CALLDATALOAD PUSH8 0xFFFFFFFFFFFFFFFF DUP2 GT ISZERO PUSH2 0x1A3A JUMPI PUSH2 0x1A39 PUSH2 0x12D4 JUMP JUMPDEST JUMPDEST PUSH2 0x1A46 DUP8 DUP3 DUP9 ADD PUSH2 0x1427 JUMP JUMPDEST SWAP5 POP POP PUSH1 0x20 PUSH2 0x1A57 DUP8 DUP3 DUP9 ADD PUSH2 0x1686 JUMP JUMPDEST SWAP4 POP POP PUSH1 0x40 PUSH2 0x1A68 DUP8 DUP3 DUP9 ADD PUSH2 0x1889 JUMP JUMPDEST SWAP3 POP POP PUSH1 0x60 PUSH2 0x1A79 DUP8 DUP3 DUP9 ADD PUSH2 0x12FA JUMP JUMPDEST SWAP2 POP POP SWAP3 SWAP6 SWAP2 SWAP5 POP SWAP3 POP JUMP JUMPDEST PUSH32 0x4E487B7100000000000000000000000000000000000000000000000000000000 PUSH1 0x0 MSTORE PUSH1 0x22 PUSH1 0x4 MSTORE PUSH1 0x24 PUSH1 0x0 REVERT JUMPDEST PUSH1 0x0 PUSH1 0x2 DUP3 DIV SWAP1 POP PUSH1 0x1 DUP3 AND DUP1 PUSH2 0x1ACC JUMPI PUSH1 0x7F DUP3 AND SWAP2 POP JUMPDEST PUSH1 0x20 DUP3 LT DUP2 SUB PUSH2 0x1ADF JUMPI PUSH2 0x1ADE PUSH2 0x1A85 JUMP JUMPDEST JUMPDEST POP SWAP2 SWAP1 POP JUMP JUMPDEST PUSH1 0x0 DUP2 SWAP1 POP DUP2 PUSH1 0x0 MSTORE PUSH1 0x20 PUSH1 0x0 KECCAK256 SWAP1 POP SWAP2 SWAP1 POP JUMP JUMPDEST PUSH1 0x0 PUSH1 0x20 PUSH1 0x1F DUP4 ADD DIV SWAP1 POP SWAP2 SWAP1 POP JUMP JUMPDEST PUSH1 0x0 DUP3 DUP3 SHL SWAP1 POP SWAP3 SWAP2 POP POP JUMP JUMPDEST PUSH1 0x0 PUSH1 0x8 DUP4 MUL PUSH2 0x1B47 PUSH32 0xFFFFFFFFFFFFFFFFFFFFFFFFFFFFFFFFFFFFFFFFFFFFFFFFFFFFFFFFFFFFFFFF DUP3 PUSH2 0x1B0A JUMP JUMPDEST PUSH2 0x1B51 DUP7 DUP4 PUSH2 0x1B0A JUMP JUMPDEST SWAP6 POP DUP1 NOT DUP5 AND SWAP4 POP DUP1 DUP7 AND DUP5 OR SWAP3 POP POP POP SWAP4 SWAP3 POP POP POP JUMP JUMPDEST PUSH1 0x0 DUP2 SWAP1 POP SWAP2 SWAP1 POP JUMP JUMPDEST PUSH1 0x0 DUP2 SWAP1 POP SWAP2 SWAP1 POP JUMP JUMPDEST PUSH1 0x0 PUSH2 0x1B98 PUSH2 0x1B93 PUSH2 0x1B8E DUP5 PUSH2 0x1B69 JUMP JUMPDEST PUSH2 0x1B73 JUMP JUMPDEST PUSH2 0x1B69 JUMP JUMPDEST SWAP1 POP SWAP2 SWAP1 POP JUMP JUMPDEST PUSH1 0x0 DUP2 SWAP1 POP SWAP2 SWAP1 POP JUMP JUMPDEST PUSH2 0x1BB2 DUP4 PUSH2 0x1B7D JUMP JUMPDEST PUSH2 0x1BC6 PUSH2 0x1BBE DUP3 PUSH2 0x1B9F JUMP JUMPDEST DUP5 DUP5 SLOAD PUSH2 0x1B17 JUMP JUMPDEST DUP3 SSTORE POP POP POP POP JUMP JUMPDEST PUSH1 0x0 SWAP1 JUMP JUMPDEST PUSH2 0x1BDB PUSH2 0x1BCE JUMP JUMPDEST PUSH2 0x1BE6 DUP2 DUP5 DUP5 PUSH2 0x1BA9 JUMP JUMPDEST POP POP POP JUMP JUMPDEST JUMPDEST DUP2 DUP2 LT ISZERO PUSH2 0x1C0A JUMPI PUSH2 0x1BFF PUSH1 0x0 DUP3 PUSH2 0x1BD3 JUMP JUMPDEST PUSH1 0x1 DUP2 ADD SWAP1 POP PUSH2 0x1BEC JUMP JUMPDEST POP POP JUMP JUMPDEST PUSH1 0x1F DUP3 GT ISZERO PUSH2 0x1C4F JUMPI PUSH2 0x1C20 DUP2 PUSH2 0x1AE5 JUMP JUMPDEST PUSH2 0x1C29 DUP5 PUSH2 0x1AFA JUMP JUMPDEST DUP2 ADD PUSH1 0x20 DUP6 LT ISZERO PUSH2 0x1C38 JUMPI DUP2 SWAP1 POP JUMPDEST PUSH2 0x1C4C PUSH2 0x1C44 DUP6 PUSH2 0x1AFA JUMP JUMPDEST DUP4 ADD DUP3 PUSH2 0x1BEB JUMP JUMPDEST POP POP JUMPDEST POP POP POP JUMP JUMPDEST PUSH1 0x0 DUP3 DUP3 SHR SWAP1 POP SWAP3 SWAP2 POP POP JUMP JUMPDEST PUSH1 0x0 PUSH2 0x1C72 PUSH1 0x0 NOT DUP5 PUSH1 0x8 MUL PUSH2 0x1C54 JUMP JUMPDEST NOT DUP1 DUP4 AND SWAP2 POP POP SWAP3 SWAP2 POP POP JUMP JUMPDEST PUSH1 0x0 PUSH2 0x1C8B DUP4 DUP4 PUSH2 0x1C61 JUMP JUMPDEST SWAP2 POP DUP3 PUSH1 0x2 MUL DUP3 OR SWAP1 POP SWAP3 SWAP2 POP POP JUMP JUMPDEST PUSH2 0x1CA4 DUP3 PUSH2 0x14E0 JUMP JUMPDEST PUSH8 0xFFFFFFFFFFFFFFFF DUP2 GT ISZERO PUSH2 0x1CBD JUMPI PUSH2 0x1CBC PUSH2 0x132A JUMP JUMPDEST JUMPDEST PUSH2 0x1CC7 DUP3 SLOAD PUSH2 0x1AB4 JUMP JUMPDEST PUSH2 0x1CD2 DUP3 DUP3 DUP6 PUSH2 0x1C0E JUMP JUMPDEST PUSH1 0x0 PUSH1 0x20 SWAP1 POP PUSH1 0x1F DUP4 GT PUSH1 0x1 DUP2 EQ PUSH2 0x1D05 JUMPI PUSH1 0x0 DUP5 ISZERO PUSH2 0x1CF3 JUMPI DUP3 DUP8 ADD MLOAD SWAP1 POP JUMPDEST PUSH2 0x1CFD DUP6 DUP3 PUSH2 0x1C7F JUMP JUMPDEST DUP7 SSTORE POP PUSH2 0x1D65 JUMP JUMPDEST PUSH1 0x1F NOT DUP5 AND PUSH2 0x1D13 DUP7 PUSH2 0x1AE5 JUMP JUMPDEST PUSH1 0x0 JUMPDEST DUP3 DUP2 LT ISZERO PUSH2 0x1D3B JUMPI DUP5 DUP10 ADD MLOAD DUP3 SSTORE PUSH1 0x1 DUP3 ADD SWAP2 POP PUSH1 0x20 DUP6 ADD SWAP5 POP PUSH1 0x20 DUP2 ADD SWAP1 POP PUSH2 0x1D16 JUMP JUMPDEST DUP7 DUP4 LT ISZERO PUSH2 0x1D58 JUMPI DUP5 DUP10 ADD MLOAD PUSH2 0x1D54 PUSH1 0x1F DUP10 AND DUP3 PUSH2 0x1C61 JUMP JUMPDEST DUP4 SSTORE POP JUMPDEST PUSH1 0x1 PUSH1 0x2 DUP9 MUL ADD DUP9 SSTORE POP POP POP JUMPDEST POP POP POP POP POP POP JUMP JUMPDEST PUSH1 0x0 DUP2 SLOAD PUSH2 0x1D7A DUP2 PUSH2 0x1AB4 JUMP JUMPDEST PUSH2 0x1D84 DUP2 DUP7 PUSH2 0x14EB JUMP JUMPDEST SWAP5 POP PUSH1 0x1 DUP3 AND PUSH1 0x0 DUP2 EQ PUSH2 0x1D9F JUMPI PUSH1 0x1 DUP2 EQ PUSH2 0x1DB5 JUMPI PUSH2 0x1DE8 JUMP JUMPDEST PUSH1 0xFF NOT DUP4 AND DUP7 MSTORE DUP2 ISZERO ISZERO PUSH1 0x20 MUL DUP7 ADD SWAP4 POP PUSH2 0x1DE8 JUMP JUMPDEST PUSH2 0x1DBE DUP6 PUSH2 0x1AE5 JUMP JUMPDEST PUSH1 0x0 JUMPDEST DUP4 DUP2 LT ISZERO PUSH2 0x1DE0 JUMPI DUP2 SLOAD DUP2 DUP10 ADD MSTORE PUSH1 0x1 DUP3 ADD SWAP2 POP PUSH1 0x20 DUP2 ADD SWAP1 POP PUSH2 0x1DC1 JUMP JUMPDEST DUP1 DUP9 ADD SWAP6 POP POP POP JUMPDEST POP POP POP SWAP3 SWAP2 POP POP JUMP JUMPDEST PUSH1 0x0 PUSH1 0x40 DUP3 ADD SWAP1 POP DUP2 DUP2 SUB PUSH1 0x0 DUP4 ADD MSTORE PUSH2 0x1E0B DUP2 DUP6 PUSH2 0x1D6D JUMP JUMPDEST SWAP1 POP DUP2 DUP2 SUB PUSH1 0x20 DUP4 ADD MSTORE PUSH2 0x1E1F DUP2 DUP5 PUSH2 0x1D6D JUMP JUMPDEST SWAP1 POP SWAP4 SWAP3 POP POP POP JUMP JUMPDEST PUSH32 0x4E487B7100000000000000000000000000000000000000000000000000000000 PUSH1 0x0 MSTORE PUSH1 0x21 PUSH1 0x4 MSTORE PUSH1 0x24 PUSH1 0x0 REVERT JUMPDEST PUSH32 0x4E487B7100000000000000000000000000000000000000000000000000000000 PUSH1 0x0 MSTORE PUSH1 0x32 PUSH1 0x4 MSTORE PUSH1 0x24 PUSH1 0x0 REVERT JUMPDEST PUSH32 0x4E487B7100000000000000000000000000000000000000000000000000000000 PUSH1 0x0 MSTORE PUSH1 0x11 PUSH1 0x4 MSTORE PUSH1 0x24 PUSH1 0x0 REVERT JUMPDEST PUSH1 0x0 PUSH2 0x1EC0 DUP3 PUSH2 0x1B69 JUMP JUMPDEST SWAP2 POP PUSH32 0xFFFFFFFFFFFFFFFFFFFFFFFFFFFFFFFFFFFFFFFFFFFFFFFFFFFFFFFFFFFFFFFF DUP3 SUB PUSH2 0x1EF2 JUMPI PUSH2 0x1EF1 PUSH2 0x1E86 JUMP JUMPDEST JUMPDEST PUSH1 0x1 DUP3 ADD SWAP1 POP SWAP2 SWAP1 POP JUMP JUMPDEST PUSH2 0x1F06 DUP2 PUSH2 0x165B JUMP JUMPDEST DUP3 MSTORE POP POP JUMP JUMPDEST PUSH1 0x0 PUSH2 0xFFFF DUP3 AND SWAP1 POP SWAP2 SWAP1 POP JUMP JUMPDEST PUSH2 0x1F23 DUP2 PUSH2 0x1F0C JUMP JUMPDEST DUP3 MSTORE POP POP JUMP JUMPDEST PUSH2 0x1F32 DUP2 PUSH2 0x1862 JUMP JUMPDEST DUP3 MSTORE POP POP JUMP JUMPDEST PUSH1 0x0 PUSH1 0xA0 DUP3 ADD SWAP1 POP PUSH2 0x1F4D PUSH1 0x0 DUP4 ADD DUP9 PUSH2 0x1EFD JUMP JUMPDEST DUP2 DUP2 SUB PUSH1 0x20 DUP4 ADD MSTORE PUSH2 0x1F5F DUP2 DUP8 PUSH2 0x1526 JUMP JUMPDEST SWAP1 POP PUSH2 0x1F6E PUSH1 0x40 DUP4 ADD DUP7 PUSH2 0x1F1A JUMP JUMPDEST PUSH2 0x1F7B PUSH1 0x60 DUP4 ADD DUP6 PUSH2 0x1F29 JUMP JUMPDEST PUSH2 0x1F88 PUSH1 0x80 DUP4 ADD DUP5 PUSH2 0x19D8 JUMP JUMPDEST SWAP7 SWAP6 POP POP POP POP POP POP JUMP JUMPDEST PUSH1 0x0 DUP2 MLOAD SWAP1 POP PUSH2 0x1FA1 DUP2 PUSH2 0x12E3 JUMP JUMPDEST SWAP3 SWAP2 POP POP JUMP JUMPDEST PUSH1 0x0 PUSH1 0x20 DUP3 DUP5 SUB SLT ISZERO PUSH2 0x1FBD JUMPI PUSH2 0x1FBC PUSH2 0x12CF JUMP JUMPDEST JUMPDEST PUSH1 0x0 PUSH2 0x1FCB DUP5 DUP3 DUP6 ADD PUSH2 0x1F92 JUMP JUMPDEST SWAP2 POP POP SWAP3 SWAP2 POP POP JUMP JUMPDEST PUSH2 0x1FDD DUP2 PUSH2 0x1B69 JUMP JUMPDEST DUP3 MSTORE POP POP JUMP JUMPDEST PUSH1 0x0 PUSH1 0x20 DUP3 ADD SWAP1 POP PUSH2 0x1FF8 PUSH1 0x0 DUP4 ADD DUP5 PUSH2 0x1FD4 JUMP JUMPDEST SWAP3 SWAP2 POP POP JUMP JUMPDEST PUSH1 0x0 PUSH2 0x2009 DUP3 PUSH2 0x1B69 JUMP JUMPDEST SWAP2 POP PUSH2 0x2014 DUP4 PUSH2 0x1B69 JUMP JUMPDEST SWAP3 POP DUP3 DUP3 ADD SWAP1 POP DUP1 DUP3 GT ISZERO PUSH2 0x202C JUMPI PUSH2 0x202B PUSH2 0x1E86 JUMP JUMPDEST JUMPDEST SWAP3 SWAP2 POP POP JUMP JUMPDEST PUSH1 0x0 PUSH2 0x203D DUP3 PUSH2 0x1B69 JUMP JUMPDEST SWAP2 POP PUSH2 0x2048 DUP4 PUSH2 0x1B69 JUMP JUMPDEST SWAP3 POP DUP3 DUP3 SUB SWAP1 POP DUP2 DUP2 GT ISZERO PUSH2 0x2060 JUMPI PUSH2 0x205F PUSH2 0x1E86 JUMP JUMPDEST JUMPDEST SWAP3 SWAP2 POP POP JUMP JUMPDEST PUSH32 0x4E487B7100000000000000000000000000000000000000000000000000000000 PUSH1 0x0 MSTORE PUSH1 0x12 PUSH1 0x4 MSTORE PUSH1 0x24 PUSH1 0x0 REVERT JUMPDEST PUSH1 0x0 PUSH2 0x20A0 DUP3 PUSH2 0x1B69 JUMP JUMPDEST SWAP2 POP PUSH2 0x20AB DUP4 PUSH2 0x1B69 JUMP JUMPDEST SWAP3 POP DUP3 PUSH2 0x20BB JUMPI PUSH2 0x20BA PUSH2 0x2066 JUMP JUMPDEST JUMPDEST DUP3 DUP3 MOD SWAP1 POP SWAP3 SWAP2 POP POP JUMP JUMPDEST PUSH1 0x0 PUSH2 0x20D1 DUP3 PUSH2 0x1B69 JUMP JUMPDEST SWAP2 POP PUSH2 0x20DC DUP4 PUSH2 0x1B69 JUMP JUMPDEST SWAP3 POP DUP3 DUP3 MUL PUSH2 0x20EA DUP2 PUSH2 0x1B69 JUMP JUMPDEST SWAP2 POP DUP3 DUP3 DIV DUP5 EQ DUP4 ISZERO OR PUSH2 0x2101 JUMPI PUSH2 0x2100 PUSH2 0x1E86 JUMP JUMPDEST JUMPDEST POP SWAP3 SWAP2 POP POP JUMP JUMPDEST PUSH1 0x0 DUP2 PUSH1 0x1 SHR SWAP1 POP SWAP2 SWAP1 POP JUMP JUMPDEST PUSH1 0x0 DUP1 DUP3 SWAP2 POP DUP4 SWAP1 POP JUMPDEST PUSH1 0x1 DUP6 GT ISZERO PUSH2 0x215F JUMPI DUP1 DUP7 DIV DUP2 GT ISZERO PUSH2 0x213B JUMPI PUSH2 0x213A PUSH2 0x1E86 JUMP JUMPDEST JUMPDEST PUSH1 0x1 DUP6 AND ISZERO PUSH2 0x214A JUMPI DUP1 DUP3 MUL SWAP2 POP JUMPDEST DUP1 DUP2 MUL SWAP1 POP PUSH2 0x2158 DUP6 PUSH2 0x2108 JUMP JUMPDEST SWAP5 POP PUSH2 0x211F JUMP JUMPDEST SWAP5 POP SWAP5 SWAP3 POP POP POP JUMP JUMPDEST PUSH1 0x0 DUP3 PUSH2 0x2178 JUMPI PUSH1 0x1 SWAP1 POP PUSH2 0x2234 JUMP JUMPDEST DUP2 PUSH2 0x2186 JUMPI PUSH1 0x0 SWAP1 POP PUSH2 0x2234 JUMP JUMPDEST DUP2 PUSH1 0x1 DUP2 EQ PUSH2 0x219C JUMPI PUSH1 0x2 DUP2 EQ PUSH2 0x21A6 JUMPI PUSH2 0x21D5 JUMP JUMPDEST PUSH1 0x1 SWAP2 POP POP PUSH2 0x2234 JUMP JUMPDEST PUSH1 0xFF DUP5 GT ISZERO PUSH2 0x21B8 JUMPI PUSH2 0x21B7 PUSH2 0x1E86 JUMP JUMPDEST JUMPDEST DUP4 PUSH1 0x2 EXP SWAP2 POP DUP5 DUP3 GT ISZERO PUSH2 0x21CF JUMPI PUSH2 0x21CE PUSH2 0x1E86 JUMP JUMPDEST JUMPDEST POP PUSH2 0x2234 JUMP JUMPDEST POP PUSH1 0x20 DUP4 LT PUSH2 0x133 DUP4 LT AND PUSH1 0x4E DUP5 LT PUSH1 0xB DUP5 LT AND OR ISZERO PUSH2 0x220A JUMPI DUP3 DUP3 EXP SWAP1 POP DUP4 DUP2 GT ISZERO PUSH2 0x2205 JUMPI PUSH2 0x2204 PUSH2 0x1E86 JUMP JUMPDEST JUMPDEST PUSH2 0x2234 JUMP JUMPDEST PUSH2 0x2217 DUP5 DUP5 DUP5 PUSH1 0x1 PUSH2 0x2115 JUMP JUMPDEST SWAP3 POP SWAP1 POP DUP2 DUP5 DIV DUP2 GT ISZERO PUSH2 0x222E JUMPI PUSH2 0x222D PUSH2 0x1E86 JUMP JUMPDEST JUMPDEST DUP2 DUP2 MUL SWAP1 POP JUMPDEST SWAP4 SWAP3 POP POP POP JUMP JUMPDEST PUSH1 0x0 PUSH2 0x2246 DUP3 PUSH2 0x1B69 JUMP JUMPDEST SWAP2 POP PUSH2 0x2251 DUP4 PUSH2 0x1B69 JUMP JUMPDEST SWAP3 POP PUSH2 0x227E PUSH32 0xFFFFFFFFFFFFFFFFFFFFFFFFFFFFFFFFFFFFFFFFFFFFFFFFFFFFFFFFFFFFFFFF DUP5 DUP5 PUSH2 0x2168 JUMP JUMPDEST SWAP1 POP SWAP3 SWAP2 POP POP JUMP INVALID LOG2 PUSH5 0x6970667358 0x22 SLT KECCAK256 SHL DIV 0xB5 REVERT LOG2 0xE3 0xB9 LOG2 EXTCODECOPY SWAP6 0x26 DUP15 0xC3 SAR CALL PUSH11 0xFA7850D06EFDCAAF1EA05 0x4A PUSH12 0xBD3CFE64736F6C6343000813 STOP CALLER "
				},
				"gasEstimates": {
					"creation": {
						"codeDepositCost": "1778400",
						"executionCost": "infinite",
						"totalCost": "infinite"
					},
					"external": {
						"handleOracleFulfillment(bytes32,bytes,bytes)": "infinite",
						"s_lastError()": "infinite",
						"s_lastRequestId()": "2517",
						"s_lastResponse()": "infinite",
						"sendRequest(string,bytes,uint8,uint64,string[],bytes[],uint64,uint32,bytes32)": "infinite",
						"sendRequestCBOR(bytes,uint64,uint32,bytes32)": "infinite"
					},
					"internal": {
						"fulfillRequest(bytes32,bytes memory,bytes memory)": "infinite"
					}
				},
				"methodIdentifiers": {
					"handleOracleFulfillment(bytes32,bytes,bytes)": "0ca76175",
					"s_lastError()": "4b0795a8",
					"s_lastRequestId()": "b1e21749",
					"s_lastResponse()": "3944ea3a",
					"sendRequest(string,bytes,uint8,uint64,string[],bytes[],uint64,uint32,bytes32)": "52a81eeb",
					"sendRequestCBOR(bytes,uint64,uint32,bytes32)": "9681096f"
				}
			},
			"storageLayout": {
				"storage": [
					{
						"astId": 2081,
						"contract": "StekcitBMFunctions.sol:StekcitBMFunctions",
						"label": "s_lastRequestId",
						"offset": 0,
						"slot": "0",
						"type": "t_bytes32"
					},
					{
						"astId": 2083,
						"contract": "StekcitBMFunctions.sol:StekcitBMFunctions",
						"label": "s_lastResponse",
						"offset": 0,
						"slot": "1",
						"type": "t_bytes_storage"
					},
					{
						"astId": 2085,
						"contract": "StekcitBMFunctions.sol:StekcitBMFunctions",
						"label": "s_lastError",
						"offset": 0,
						"slot": "2",
						"type": "t_bytes_storage"
					}
				],
				"types": {
					"t_bytes32": {
						"encoding": "inplace",
						"label": "bytes32",
						"numberOfBytes": "32"
					},
					"t_bytes_storage": {
						"encoding": "bytes",
						"label": "bytes",
						"numberOfBytes": "32"
					}
				}
			},
			"userdoc": {
				"kind": "user",
				"methods": {
					"handleOracleFulfillment(bytes32,bytes,bytes)": {
						"notice": "Chainlink Functions response handler called by the Functions Router during fullilment from the designated transmitter node in an OCR round."
					},
					"sendRequest(string,bytes,uint8,uint64,string[],bytes[],uint64,uint32,bytes32)": {
						"notice": "Send a simple request"
					},
					"sendRequestCBOR(bytes,uint64,uint32,bytes32)": {
						"notice": "Send a pre-encoded CBOR request"
					}
				},
				"notice": "THIS IS AN EXAMPLE CONTRACT THAT USES HARDCODED VALUES FOR CLARITY. THIS IS AN EXAMPLE CONTRACT THAT USES UN-AUDITED CODE. DO NOT USE THIS CODE IN PRODUCTION.",
				"version": 1
			}
		}
	}
}