{
	"StekcitBMAutomatedFunctions.sol": {
		"StekcitBMAutomatedFunctions": {
			"abi": [
				{
					"inputs": [
						{
							"internalType": "address",
							"name": "router",
							"type": "address"
						}
					],
					"stateMutability": "nonpayable",
					"type": "constructor"
				},
				{
					"inputs": [],
					"name": "OnlyRouterCanFulfill",
					"type": "error"
				},
				{
					"inputs": [
						{
							"internalType": "bytes32",
							"name": "requestId",
							"type": "bytes32"
						}
					],
					"name": "UnexpectedRequestID",
					"type": "error"
				},
				{
					"anonymous": false,
					"inputs": [
						{
							"indexed": true,
							"internalType": "bytes32",
							"name": "id",
							"type": "bytes32"
						}
					],
					"name": "RequestFulfilled",
					"type": "event"
				},
				{
					"anonymous": false,
					"inputs": [
						{
							"indexed": false,
							"internalType": "string",
							"name": "reason",
							"type": "string"
						}
					],
					"name": "RequestRevertedWithErrorMsg",
					"type": "event"
				},
				{
					"anonymous": false,
					"inputs": [
						{
							"indexed": false,
							"internalType": "bytes",
							"name": "data",
							"type": "bytes"
						}
					],
					"name": "RequestRevertedWithoutErrorMsg",
					"type": "event"
				},
				{
					"anonymous": false,
					"inputs": [
						{
							"indexed": true,
							"internalType": "bytes32",
							"name": "id",
							"type": "bytes32"
						}
					],
					"name": "RequestSent",
					"type": "event"
				},
				{
					"anonymous": false,
					"inputs": [
						{
							"indexed": true,
							"internalType": "bytes32",
							"name": "requestId",
							"type": "bytes32"
						},
						{
							"indexed": false,
							"internalType": "bytes",
							"name": "response",
							"type": "bytes"
						},
						{
							"indexed": false,
							"internalType": "bytes",
							"name": "err",
							"type": "bytes"
						}
					],
					"name": "Response",
					"type": "event"
				},
				{
					"inputs": [
						{
							"internalType": "bytes",
							"name": "",
							"type": "bytes"
						}
					],
					"name": "checkUpkeep",
					"outputs": [
						{
							"internalType": "bool",
							"name": "upkeepNeeded",
							"type": "bool"
						},
						{
							"internalType": "bytes",
							"name": "performData",
							"type": "bytes"
						}
					],
					"stateMutability": "view",
					"type": "function"
				},
				{
					"inputs": [],
					"name": "donID",
					"outputs": [
						{
							"internalType": "bytes32",
							"name": "",
							"type": "bytes32"
						}
					],
					"stateMutability": "view",
					"type": "function"
				},
				{
					"inputs": [],
					"name": "gasLimit",
					"outputs": [
						{
							"internalType": "uint32",
							"name": "",
							"type": "uint32"
						}
					],
					"stateMutability": "view",
					"type": "function"
				},
				{
					"inputs": [
						{
							"internalType": "bytes32",
							"name": "requestId",
							"type": "bytes32"
						},
						{
							"internalType": "bytes",
							"name": "response",
							"type": "bytes"
						},
						{
							"internalType": "bytes",
							"name": "err",
							"type": "bytes"
						}
					],
					"name": "handleOracleFulfillment",
					"outputs": [],
					"stateMutability": "nonpayable",
					"type": "function"
				},
				{
					"inputs": [],
					"name": "lastBlockNumber",
					"outputs": [
						{
							"internalType": "uint256",
							"name": "",
							"type": "uint256"
						}
					],
					"stateMutability": "view",
					"type": "function"
				},
				{
					"inputs": [
						{
							"internalType": "bytes",
							"name": "",
							"type": "bytes"
						}
					],
					"name": "performUpkeep",
					"outputs": [],
					"stateMutability": "nonpayable",
					"type": "function"
				},
				{
					"inputs": [],
					"name": "request",
					"outputs": [
						{
							"internalType": "bytes",
							"name": "",
							"type": "bytes"
						}
					],
					"stateMutability": "view",
					"type": "function"
				},
				{
					"inputs": [],
					"name": "s_lastError",
					"outputs": [
						{
							"internalType": "bytes",
							"name": "",
							"type": "bytes"
						}
					],
					"stateMutability": "view",
					"type": "function"
				},
				{
					"inputs": [],
					"name": "s_lastRequestId",
					"outputs": [
						{
							"internalType": "bytes32",
							"name": "",
							"type": "bytes32"
						}
					],
					"stateMutability": "view",
					"type": "function"
				},
				{
					"inputs": [],
					"name": "s_lastResponse",
					"outputs": [
						{
							"internalType": "bytes",
							"name": "",
							"type": "bytes"
						}
					],
					"stateMutability": "view",
					"type": "function"
				},
				{
					"inputs": [],
					"name": "s_requestCounter",
					"outputs": [
						{
							"internalType": "uint256",
							"name": "",
							"type": "uint256"
						}
					],
					"stateMutability": "view",
					"type": "function"
				},
				{
					"inputs": [],
					"name": "s_responseCounter",
					"outputs": [
						{
							"internalType": "uint256",
							"name": "",
							"type": "uint256"
						}
					],
					"stateMutability": "view",
					"type": "function"
				},
				{
					"inputs": [],
					"name": "s_upkeepCounter",
					"outputs": [
						{
							"internalType": "uint256",
							"name": "",
							"type": "uint256"
						}
					],
					"stateMutability": "view",
					"type": "function"
				},
				{
					"inputs": [],
					"name": "subscriptionId",
					"outputs": [
						{
							"internalType": "uint64",
							"name": "",
							"type": "uint64"
						}
					],
					"stateMutability": "view",
					"type": "function"
				},
				{
					"inputs": [
						{
							"internalType": "bytes",
							"name": "_request",
							"type": "bytes"
						},
						{
							"internalType": "uint64",
							"name": "_subscriptionId",
							"type": "uint64"
						},
						{
							"internalType": "uint32",
							"name": "_gasLimit",
							"type": "uint32"
						},
						{
							"internalType": "bytes32",
							"name": "_donID",
							"type": "bytes32"
						}
					],
					"name": "updateRequest",
					"outputs": [],
					"stateMutability": "nonpayable",
					"type": "function"
				}
			],
			"devdoc": {
				"kind": "dev",
				"methods": {
					"checkUpkeep(bytes)": {
						"details": "This function checks if the current block number has incremented since the last recorded block number and returns a boolean indicating if upkeep is needed.",
						"returns": {
							"performData": "An empty bytes value since no additional data is needed for the upkeep in this implementation.",
							"upkeepNeeded": "A boolean indicating if upkeep is needed (true if the current block number has incremented since the last recorded block number)."
						}
					},
					"handleOracleFulfillment(bytes32,bytes,bytes)": {
						"details": "Either response or error parameter will be set, but never both.",
						"params": {
							"err": "Aggregated error either from the request's source code or from the execution pipeline.",
							"requestId": "The requestId returned by FunctionsClient.sendRequest().",
							"response": "Aggregated response from the request's source code."
						}
					},
					"updateRequest(bytes,uint64,uint32,bytes32)": {
						"details": "Only callable by the owner of the contract",
						"params": {
							"_donID": "The new job ID to be set",
							"_gasLimit": "The new gas limit to be set",
							"_request": "The new encoded CBOR request to be set. The request is encoded offchain",
							"_subscriptionId": "The new subscription ID to be set"
						}
					}
				},
				"title": "Functions contract used for Automation.",
				"version": 1
			},
			"evm": {
				"assembly": "    /* \"StekcitBMAutomatedFunctions.sol\":572:5064  contract StekcitBMAutomatedFunctions is... */\n  mstore(0x40, 0xa0)\n    /* \"StekcitBMAutomatedFunctions.sol\":1268:1337  constructor(... */\n  callvalue\n  dup1\n  iszero\n  tag_1\n  jumpi\n  0x00\n  dup1\n  revert\ntag_1:\n  pop\n  mload(0x40)\n  sub(codesize, bytecodeSize)\n  dup1\n  bytecodeSize\n  dup4\n  codecopy\n  dup2\n  dup2\n  add\n  0x40\n  mstore\n  dup2\n  add\n  swap1\n  tag_2\n  swap2\n  swap1\n  tag_3\n  jump\t// in\ntag_2:\n    /* \"StekcitBMAutomatedFunctions.sol\":1326:1332  router */\n  dup1\n    /* \"@chainlink/contracts@1.1.0/src/v0.8/functions/v1_0_0/FunctionsClient.sol\":764:770  router */\n  dup1\n    /* \"@chainlink/contracts@1.1.0/src/v0.8/functions/v1_0_0/FunctionsClient.sol\":736:771  i_router = IFunctionsRouter(router) */\n  0xffffffffffffffffffffffffffffffffffffffff\n  and\n  0x80\n  dup2\n  0xffffffffffffffffffffffffffffffffffffffff\n  and\n  dup2\n  mstore\n  pop\n  pop\n    /* \"@chainlink/contracts@1.1.0/src/v0.8/functions/v1_0_0/FunctionsClient.sol\":702:776  constructor(address router) {... */\n  pop\n    /* \"StekcitBMAutomatedFunctions.sol\":1268:1337  constructor(... */\n  pop\n    /* \"StekcitBMAutomatedFunctions.sol\":572:5064  contract StekcitBMAutomatedFunctions is... */\n  jump(tag_8)\n    /* \"#utility.yul\":88:205   */\ntag_10:\n    /* \"#utility.yul\":197:198   */\n  0x00\n    /* \"#utility.yul\":194:195   */\n  dup1\n    /* \"#utility.yul\":187:199   */\n  revert\n    /* \"#utility.yul\":334:460   */\ntag_12:\n    /* \"#utility.yul\":371:378   */\n  0x00\n    /* \"#utility.yul\":411:453   */\n  0xffffffffffffffffffffffffffffffffffffffff\n    /* \"#utility.yul\":404:409   */\n  dup3\n    /* \"#utility.yul\":400:454   */\n  and\n    /* \"#utility.yul\":389:454   */\n  swap1\n  pop\n    /* \"#utility.yul\":334:460   */\n  swap2\n  swap1\n  pop\n  jump\t// out\n    /* \"#utility.yul\":466:562   */\ntag_13:\n    /* \"#utility.yul\":503:510   */\n  0x00\n    /* \"#utility.yul\":532:556   */\n  tag_22\n    /* \"#utility.yul\":550:555   */\n  dup3\n    /* \"#utility.yul\":532:556   */\n  tag_12\n  jump\t// in\ntag_22:\n    /* \"#utility.yul\":521:556   */\n  swap1\n  pop\n    /* \"#utility.yul\":466:562   */\n  swap2\n  swap1\n  pop\n  jump\t// out\n    /* \"#utility.yul\":568:690   */\ntag_14:\n    /* \"#utility.yul\":641:665   */\n  tag_24\n    /* \"#utility.yul\":659:664   */\n  dup2\n    /* \"#utility.yul\":641:665   */\n  tag_13\n  jump\t// in\ntag_24:\n    /* \"#utility.yul\":634:639   */\n  dup2\n    /* \"#utility.yul\":631:666   */\n  eq\n    /* \"#utility.yul\":621:684   */\n  tag_25\n  jumpi\n    /* \"#utility.yul\":680:681   */\n  0x00\n    /* \"#utility.yul\":677:678   */\n  dup1\n    /* \"#utility.yul\":670:682   */\n  revert\n    /* \"#utility.yul\":621:684   */\ntag_25:\n    /* \"#utility.yul\":568:690   */\n  pop\n  jump\t// out\n    /* \"#utility.yul\":696:839   */\ntag_15:\n    /* \"#utility.yul\":753:758   */\n  0x00\n    /* \"#utility.yul\":784:790   */\n  dup2\n    /* \"#utility.yul\":778:791   */\n  mload\n    /* \"#utility.yul\":769:791   */\n  swap1\n  pop\n    /* \"#utility.yul\":800:833   */\n  tag_27\n    /* \"#utility.yul\":827:832   */\n  dup2\n    /* \"#utility.yul\":800:833   */\n  tag_14\n  jump\t// in\ntag_27:\n    /* \"#utility.yul\":696:839   */\n  swap3\n  swap2\n  pop\n  pop\n  jump\t// out\n    /* \"#utility.yul\":845:1196   */\ntag_3:\n    /* \"#utility.yul\":915:921   */\n  0x00\n    /* \"#utility.yul\":964:966   */\n  0x20\n    /* \"#utility.yul\":952:961   */\n  dup3\n    /* \"#utility.yul\":943:950   */\n  dup5\n    /* \"#utility.yul\":939:962   */\n  sub\n    /* \"#utility.yul\":935:967   */\n  slt\n    /* \"#utility.yul\":932:1051   */\n  iszero\n  tag_29\n  jumpi\n    /* \"#utility.yul\":970:1049   */\n  tag_30\n  tag_10\n  jump\t// in\ntag_30:\n    /* \"#utility.yul\":932:1051   */\ntag_29:\n    /* \"#utility.yul\":1090:1091   */\n  0x00\n    /* \"#utility.yul\":1115:1179   */\n  tag_31\n    /* \"#utility.yul\":1171:1178   */\n  dup5\n    /* \"#utility.yul\":1162:1168   */\n  dup3\n    /* \"#utility.yul\":1151:1160   */\n  dup6\n    /* \"#utility.yul\":1147:1169   */\n  add\n    /* \"#utility.yul\":1115:1179   */\n  tag_15\n  jump\t// in\ntag_31:\n    /* \"#utility.yul\":1105:1179   */\n  swap2\n  pop\n    /* \"#utility.yul\":1061:1189   */\n  pop\n    /* \"#utility.yul\":845:1196   */\n  swap3\n  swap2\n  pop\n  pop\n  jump\t// out\n    /* \"StekcitBMAutomatedFunctions.sol\":572:5064  contract StekcitBMAutomatedFunctions is... */\ntag_8:\n  mload(0x80)\n  codecopy(0x00, dataOffset(sub_0), dataSize(sub_0))\n  0x00\n  assignImmutable(\"0x17157e479612de6088d957c64aca858964825e74089b3c7dacc26409e6d53000\")\n  return(0x00, dataSize(sub_0))\nstop\n\nsub_0: assembly {\n        /* \"StekcitBMAutomatedFunctions.sol\":572:5064  contract StekcitBMAutomatedFunctions is... */\n      mstore(0x40, 0x80)\n      callvalue\n      dup1\n      iszero\n      tag_1\n      jumpi\n      0x00\n      dup1\n      revert\n    tag_1:\n      pop\n      jumpi(tag_2, lt(calldatasize, 0x04))\n      shr(0xe0, calldataload(0x00))\n      dup1\n      0x48802b92\n      gt\n      tag_18\n      jumpi\n      dup1\n      0xb1e21749\n      gt\n      tag_19\n      jumpi\n      dup1\n      0xb1e21749\n      eq\n      tag_14\n      jumpi\n      dup1\n      0xc41c7dce\n      eq\n      tag_15\n      jumpi\n      dup1\n      0xf5c1279b\n      eq\n      tag_16\n      jumpi\n      dup1\n      0xf68016b7\n      eq\n      tag_17\n      jumpi\n      jump(tag_2)\n    tag_19:\n      dup1\n      0x48802b92\n      eq\n      tag_10\n      jumpi\n      dup1\n      0x4b0795a8\n      eq\n      tag_11\n      jumpi\n      dup1\n      0x6e04ff0d\n      eq\n      tag_12\n      jumpi\n      dup1\n      0x6e74336b\n      eq\n      tag_13\n      jumpi\n      jump(tag_2)\n    tag_18:\n      dup1\n      0x338cdca1\n      gt\n      tag_20\n      jumpi\n      dup1\n      0x338cdca1\n      eq\n      tag_6\n      jumpi\n      dup1\n      0x3944ea3a\n      eq\n      tag_7\n      jumpi\n      dup1\n      0x43cd3d86\n      eq\n      tag_8\n      jumpi\n      dup1\n      0x4585e33b\n      eq\n      tag_9\n      jumpi\n      jump(tag_2)\n    tag_20:\n      dup1\n      0x09c1ba2e\n      eq\n      tag_3\n      jumpi\n      dup1\n      0x0ca76175\n      eq\n      tag_4\n      jumpi\n      dup1\n      0x2552317c\n      eq\n      tag_5\n      jumpi\n    tag_2:\n      0x00\n      dup1\n      revert\n        /* \"StekcitBMAutomatedFunctions.sol\":735:763  uint64 public subscriptionId */\n    tag_3:\n      tag_21\n      tag_22\n      jump\t// in\n    tag_21:\n      mload(0x40)\n      tag_23\n      swap2\n      swap1\n      tag_24\n      jump\t// in\n    tag_23:\n      mload(0x40)\n      dup1\n      swap2\n      sub\n      swap1\n      return\n        /* \"@chainlink/contracts@1.1.0/src/v0.8/functions/v1_0_0/FunctionsClient.sol\":2078:2364  function handleOracleFulfillment(bytes32 requestId, bytes memory response, bytes memory err) external override {... */\n    tag_4:\n      tag_25\n      0x04\n      dup1\n      calldatasize\n      sub\n      dup2\n      add\n      swap1\n      tag_26\n      swap2\n      swap1\n      tag_27\n      jump\t// in\n    tag_26:\n      tag_28\n      jump\t// in\n    tag_25:\n      stop\n        /* \"StekcitBMAutomatedFunctions.sol\":673:703  uint256 public lastBlockNumber */\n    tag_5:\n      tag_29\n      tag_30\n      jump\t// in\n    tag_29:\n      mload(0x40)\n      tag_31\n      swap2\n      swap1\n      tag_32\n      jump\t// in\n    tag_31:\n      mload(0x40)\n      dup1\n      swap2\n      sub\n      swap1\n      return\n        /* \"StekcitBMAutomatedFunctions.sol\":709:729  bytes public request */\n    tag_6:\n      tag_33\n      tag_34\n      jump\t// in\n    tag_33:\n      mload(0x40)\n      tag_35\n      swap2\n      swap1\n      tag_36\n      jump\t// in\n    tag_35:\n      mload(0x40)\n      dup1\n      swap2\n      sub\n      swap1\n      return\n        /* \"StekcitBMAutomatedFunctions.sol\":859:886  bytes public s_lastResponse */\n    tag_7:\n      tag_37\n      tag_38\n      jump\t// in\n    tag_37:\n      mload(0x40)\n      tag_39\n      swap2\n      swap1\n      tag_36\n      jump\t// in\n    tag_39:\n      mload(0x40)\n      dup1\n      swap2\n      sub\n      swap1\n      return\n        /* \"StekcitBMAutomatedFunctions.sol\":995:1027  uint256 public s_responseCounter */\n    tag_8:\n      tag_40\n      tag_41\n      jump\t// in\n    tag_40:\n      mload(0x40)\n      tag_42\n      swap2\n      swap1\n      tag_32\n      jump\t// in\n    tag_42:\n      mload(0x40)\n      dup1\n      swap2\n      sub\n      swap1\n      return\n        /* \"StekcitBMAutomatedFunctions.sol\":2601:3647  function performUpkeep(bytes calldata /* performData */) external override {... */\n    tag_9:\n      tag_43\n      0x04\n      dup1\n      calldatasize\n      sub\n      dup2\n      add\n      swap1\n      tag_44\n      swap2\n      swap1\n      tag_45\n      jump\t// in\n    tag_44:\n      tag_46\n      jump\t// in\n    tag_43:\n      stop\n        /* \"StekcitBMAutomatedFunctions.sol\":958:989  uint256 public s_requestCounter */\n    tag_10:\n      tag_47\n      tag_48\n      jump\t// in\n    tag_47:\n      mload(0x40)\n      tag_49\n      swap2\n      swap1\n      tag_32\n      jump\t// in\n    tag_49:\n      mload(0x40)\n      dup1\n      swap2\n      sub\n      swap1\n      return\n        /* \"StekcitBMAutomatedFunctions.sol\":892:916  bytes public s_lastError */\n    tag_11:\n      tag_50\n      tag_51\n      jump\t// in\n    tag_50:\n      mload(0x40)\n      tag_52\n      swap2\n      swap1\n      tag_36\n      jump\t// in\n    tag_52:\n      mload(0x40)\n      dup1\n      swap2\n      sub\n      swap1\n      return\n        /* \"StekcitBMAutomatedFunctions.sol\":1920:2450  function checkUpkeep(... */\n    tag_12:\n      tag_53\n      0x04\n      dup1\n      calldatasize\n      sub\n      dup2\n      add\n      swap1\n      tag_54\n      swap2\n      swap1\n      tag_45\n      jump\t// in\n    tag_54:\n      tag_55\n      jump\t// in\n    tag_53:\n      mload(0x40)\n      tag_56\n      swap3\n      swap2\n      swap1\n      tag_57\n      jump\t// in\n    tag_56:\n      mload(0x40)\n      dup1\n      swap2\n      sub\n      swap1\n      return\n        /* \"StekcitBMAutomatedFunctions.sol\":797:817  bytes32 public donID */\n    tag_13:\n      tag_58\n      tag_59\n      jump\t// in\n    tag_58:\n      mload(0x40)\n      tag_60\n      swap2\n      swap1\n      tag_61\n      jump\t// in\n    tag_60:\n      mload(0x40)\n      dup1\n      swap2\n      sub\n      swap1\n      return\n        /* \"StekcitBMAutomatedFunctions.sol\":823:853  bytes32 public s_lastRequestId */\n    tag_14:\n      tag_62\n      tag_63\n      jump\t// in\n    tag_62:\n      mload(0x40)\n      tag_64\n      swap2\n      swap1\n      tag_61\n      jump\t// in\n    tag_64:\n      mload(0x40)\n      dup1\n      swap2\n      sub\n      swap1\n      return\n        /* \"StekcitBMAutomatedFunctions.sol\":4014:4296  function updateRequest(... */\n    tag_15:\n      tag_65\n      0x04\n      dup1\n      calldatasize\n      sub\n      dup2\n      add\n      swap1\n      tag_66\n      swap2\n      swap1\n      tag_67\n      jump\t// in\n    tag_66:\n      tag_68\n      jump\t// in\n    tag_65:\n      stop\n        /* \"StekcitBMAutomatedFunctions.sol\":922:952  uint256 public s_upkeepCounter */\n    tag_16:\n      tag_69\n      tag_70\n      jump\t// in\n    tag_69:\n      mload(0x40)\n      tag_71\n      swap2\n      swap1\n      tag_32\n      jump\t// in\n    tag_71:\n      mload(0x40)\n      dup1\n      swap2\n      sub\n      swap1\n      return\n        /* \"StekcitBMAutomatedFunctions.sol\":769:791  uint32 public gasLimit */\n    tag_17:\n      tag_72\n      tag_73\n      jump\t// in\n    tag_72:\n      mload(0x40)\n      tag_74\n      swap2\n      swap1\n      tag_75\n      jump\t// in\n    tag_74:\n      mload(0x40)\n      dup1\n      swap2\n      sub\n      swap1\n      return\n        /* \"StekcitBMAutomatedFunctions.sol\":735:763  uint64 public subscriptionId */\n    tag_22:\n      0x02\n      0x00\n      swap1\n      sload\n      swap1\n      0x0100\n      exp\n      swap1\n      div\n      0xffffffffffffffff\n      and\n      dup2\n      jump\t// out\n        /* \"@chainlink/contracts@1.1.0/src/v0.8/functions/v1_0_0/FunctionsClient.sol\":2078:2364  function handleOracleFulfillment(bytes32 requestId, bytes memory response, bytes memory err) external override {... */\n    tag_28:\n        /* \"@chainlink/contracts@1.1.0/src/v0.8/functions/v1_0_0/FunctionsClient.sol\":2221:2229  i_router */\n      immutable(\"0x17157e479612de6088d957c64aca858964825e74089b3c7dacc26409e6d53000\")\n        /* \"@chainlink/contracts@1.1.0/src/v0.8/functions/v1_0_0/FunctionsClient.sol\":2199:2230  msg.sender != address(i_router) */\n      0xffffffffffffffffffffffffffffffffffffffff\n      and\n        /* \"@chainlink/contracts@1.1.0/src/v0.8/functions/v1_0_0/FunctionsClient.sol\":2199:2209  msg.sender */\n      caller\n        /* \"@chainlink/contracts@1.1.0/src/v0.8/functions/v1_0_0/FunctionsClient.sol\":2199:2230  msg.sender != address(i_router) */\n      0xffffffffffffffffffffffffffffffffffffffff\n      and\n      eq\n        /* \"@chainlink/contracts@1.1.0/src/v0.8/functions/v1_0_0/FunctionsClient.sol\":2195:2276  if (msg.sender != address(i_router)) {... */\n      tag_77\n      jumpi\n        /* \"@chainlink/contracts@1.1.0/src/v0.8/functions/v1_0_0/FunctionsClient.sol\":2247:2269  OnlyRouterCanFulfill() */\n      mload(0x40)\n      0xc6829f8300000000000000000000000000000000000000000000000000000000\n      dup2\n      mstore\n      0x04\n      add\n      mload(0x40)\n      dup1\n      swap2\n      sub\n      swap1\n      revert\n        /* \"@chainlink/contracts@1.1.0/src/v0.8/functions/v1_0_0/FunctionsClient.sol\":2195:2276  if (msg.sender != address(i_router)) {... */\n    tag_77:\n        /* \"@chainlink/contracts@1.1.0/src/v0.8/functions/v1_0_0/FunctionsClient.sol\":2281:2321  fulfillRequest(requestId, response, err) */\n      tag_78\n        /* \"@chainlink/contracts@1.1.0/src/v0.8/functions/v1_0_0/FunctionsClient.sol\":2296:2305  requestId */\n      dup4\n        /* \"@chainlink/contracts@1.1.0/src/v0.8/functions/v1_0_0/FunctionsClient.sol\":2307:2315  response */\n      dup4\n        /* \"@chainlink/contracts@1.1.0/src/v0.8/functions/v1_0_0/FunctionsClient.sol\":2317:2320  err */\n      dup4\n        /* \"@chainlink/contracts@1.1.0/src/v0.8/functions/v1_0_0/FunctionsClient.sol\":2281:2295  fulfillRequest */\n      tag_79\n        /* \"@chainlink/contracts@1.1.0/src/v0.8/functions/v1_0_0/FunctionsClient.sol\":2281:2321  fulfillRequest(requestId, response, err) */\n      jump\t// in\n    tag_78:\n        /* \"@chainlink/contracts@1.1.0/src/v0.8/functions/v1_0_0/FunctionsClient.sol\":2349:2358  requestId */\n      dup3\n        /* \"@chainlink/contracts@1.1.0/src/v0.8/functions/v1_0_0/FunctionsClient.sol\":2332:2359  RequestFulfilled(requestId) */\n      0x85e1543bf2f84fe80c6badbce3648c8539ad1df4d2b3d822938ca0538be727e6\n      mload(0x40)\n      mload(0x40)\n      dup1\n      swap2\n      sub\n      swap1\n      log2\n        /* \"@chainlink/contracts@1.1.0/src/v0.8/functions/v1_0_0/FunctionsClient.sol\":2078:2364  function handleOracleFulfillment(bytes32 requestId, bytes memory response, bytes memory err) external override {... */\n      pop\n      pop\n      pop\n      jump\t// out\n        /* \"StekcitBMAutomatedFunctions.sol\":673:703  uint256 public lastBlockNumber */\n    tag_30:\n      sload(0x00)\n      dup2\n      jump\t// out\n        /* \"StekcitBMAutomatedFunctions.sol\":709:729  bytes public request */\n    tag_34:\n      0x01\n      dup1\n      sload\n      tag_80\n      swap1\n      tag_81\n      jump\t// in\n    tag_80:\n      dup1\n      0x1f\n      add\n      0x20\n      dup1\n      swap2\n      div\n      mul\n      0x20\n      add\n      mload(0x40)\n      swap1\n      dup2\n      add\n      0x40\n      mstore\n      dup1\n      swap3\n      swap2\n      swap1\n      dup2\n      dup2\n      mstore\n      0x20\n      add\n      dup3\n      dup1\n      sload\n      tag_82\n      swap1\n      tag_81\n      jump\t// in\n    tag_82:\n      dup1\n      iszero\n      tag_83\n      jumpi\n      dup1\n      0x1f\n      lt\n      tag_84\n      jumpi\n      0x0100\n      dup1\n      dup4\n      sload\n      div\n      mul\n      dup4\n      mstore\n      swap2\n      0x20\n      add\n      swap2\n      jump(tag_83)\n    tag_84:\n      dup3\n      add\n      swap2\n      swap1\n      0x00\n      mstore\n      keccak256(0x00, 0x20)\n      swap1\n    tag_85:\n      dup2\n      sload\n      dup2\n      mstore\n      swap1\n      0x01\n      add\n      swap1\n      0x20\n      add\n      dup1\n      dup4\n      gt\n      tag_85\n      jumpi\n      dup3\n      swap1\n      sub\n      0x1f\n      and\n      dup3\n      add\n      swap2\n    tag_83:\n      pop\n      pop\n      pop\n      pop\n      pop\n      dup2\n      jump\t// out\n        /* \"StekcitBMAutomatedFunctions.sol\":859:886  bytes public s_lastResponse */\n    tag_38:\n      0x05\n      dup1\n      sload\n      tag_86\n      swap1\n      tag_81\n      jump\t// in\n    tag_86:\n      dup1\n      0x1f\n      add\n      0x20\n      dup1\n      swap2\n      div\n      mul\n      0x20\n      add\n      mload(0x40)\n      swap1\n      dup2\n      add\n      0x40\n      mstore\n      dup1\n      swap3\n      swap2\n      swap1\n      dup2\n      dup2\n      mstore\n      0x20\n      add\n      dup3\n      dup1\n      sload\n      tag_87\n      swap1\n      tag_81\n      jump\t// in\n    tag_87:\n      dup1\n      iszero\n      tag_88\n      jumpi\n      dup1\n      0x1f\n      lt\n      tag_89\n      jumpi\n      0x0100\n      dup1\n      dup4\n      sload\n      div\n      mul\n      dup4\n      mstore\n      swap2\n      0x20\n      add\n      swap2\n      jump(tag_88)\n    tag_89:\n      dup3\n      add\n      swap2\n      swap1\n      0x00\n      mstore\n      keccak256(0x00, 0x20)\n      swap1\n    tag_90:\n      dup2\n      sload\n      dup2\n      mstore\n      swap1\n      0x01\n      add\n      swap1\n      0x20\n      add\n      dup1\n      dup4\n      gt\n      tag_90\n      jumpi\n      dup3\n      swap1\n      sub\n      0x1f\n      and\n      dup3\n      add\n      swap2\n    tag_88:\n      pop\n      pop\n      pop\n      pop\n      pop\n      dup2\n      jump\t// out\n        /* \"StekcitBMAutomatedFunctions.sol\":995:1027  uint256 public s_responseCounter */\n    tag_41:\n      sload(0x09)\n      dup2\n      jump\t// out\n        /* \"StekcitBMAutomatedFunctions.sol\":2601:3647  function performUpkeep(bytes calldata /* performData */) external override {... */\n    tag_46:\n        /* \"StekcitBMAutomatedFunctions.sol\":2723:2724  0 */\n      0x00\n        /* \"StekcitBMAutomatedFunctions.sol\":2705:2720  lastBlockNumber */\n      dup1\n      sload\n        /* \"StekcitBMAutomatedFunctions.sol\":2690:2702  block.number */\n      number\n        /* \"StekcitBMAutomatedFunctions.sol\":2690:2720  block.number - lastBlockNumber */\n      tag_92\n      swap2\n      swap1\n      tag_93\n      jump\t// in\n    tag_92:\n        /* \"StekcitBMAutomatedFunctions.sol\":2690:2724  block.number - lastBlockNumber > 0 */\n      gt\n        /* \"StekcitBMAutomatedFunctions.sol\":2686:3496  if (block.number - lastBlockNumber > 0) {... */\n      iszero\n      tag_94\n      jumpi\n        /* \"StekcitBMAutomatedFunctions.sol\":2758:2770  block.number */\n      number\n        /* \"StekcitBMAutomatedFunctions.sol\":2740:2755  lastBlockNumber */\n      0x00\n        /* \"StekcitBMAutomatedFunctions.sol\":2740:2770  lastBlockNumber = block.number */\n      dup2\n      swap1\n      sstore\n      pop\n        /* \"StekcitBMAutomatedFunctions.sol\":2820:2821  1 */\n      0x01\n        /* \"StekcitBMAutomatedFunctions.sol\":2802:2817  s_upkeepCounter */\n      sload(0x07)\n        /* \"StekcitBMAutomatedFunctions.sol\":2802:2821  s_upkeepCounter + 1 */\n      tag_95\n      swap2\n      swap1\n      tag_96\n      jump\t// in\n    tag_95:\n        /* \"StekcitBMAutomatedFunctions.sol\":2784:2799  s_upkeepCounter */\n      0x07\n        /* \"StekcitBMAutomatedFunctions.sol\":2784:2821  s_upkeepCounter = s_upkeepCounter + 1 */\n      dup2\n      swap1\n      sstore\n      pop\n        /* \"StekcitBMAutomatedFunctions.sol\":2855:2863  i_router */\n      immutable(\"0x17157e479612de6088d957c64aca858964825e74089b3c7dacc26409e6d53000\")\n        /* \"StekcitBMAutomatedFunctions.sol\":2855:2875  i_router.sendRequest */\n      0xffffffffffffffffffffffffffffffffffffffff\n      and\n      0x461d2762\n        /* \"StekcitBMAutomatedFunctions.sol\":2897:2911  subscriptionId */\n      0x02\n      0x00\n      swap1\n      sload\n      swap1\n      0x0100\n      exp\n      swap1\n      div\n      0xffffffffffffffff\n      and\n        /* \"StekcitBMAutomatedFunctions.sol\":2933:2940  request */\n      0x01\n        /* \"@chainlink/contracts@1.1.0/src/v0.8/functions/v1_0_0/libraries/FunctionsRequest.sol\":322:323  1 */\n      dup1\n        /* \"StekcitBMAutomatedFunctions.sol\":3021:3029  gasLimit */\n      0x02\n      0x08\n      swap1\n      sload\n      swap1\n      0x0100\n      exp\n      swap1\n      div\n      0xffffffff\n      and\n        /* \"StekcitBMAutomatedFunctions.sol\":3051:3056  donID */\n      sload(0x03)\n        /* \"StekcitBMAutomatedFunctions.sol\":2855:3074  i_router.sendRequest(... */\n      mload(0x40)\n      dup7\n      0xffffffff\n      and\n      0xe0\n      shl\n      dup2\n      mstore\n      0x04\n      add\n      tag_97\n      swap6\n      swap5\n      swap4\n      swap3\n      swap2\n      swap1\n      tag_98\n      jump\t// in\n    tag_97:\n      0x20\n      mload(0x40)\n      dup1\n      dup4\n      sub\n      dup2\n      0x00\n      dup8\n      gas\n      call\n      swap3\n      pop\n      pop\n      pop\n      dup1\n      iszero\n      tag_99\n      jumpi\n      pop\n      mload(0x40)\n      returndatasize\n      not(0x1f)\n      0x1f\n      dup3\n      add\n      and\n      dup3\n      add\n      dup1\n      0x40\n      mstore\n      pop\n      dup2\n      add\n      swap1\n      tag_100\n      swap2\n      swap1\n      tag_101\n      jump\t// in\n    tag_100:\n      0x01\n    tag_99:\n        /* \"StekcitBMAutomatedFunctions.sol\":2835:3486  try... */\n      tag_102\n      jumpi\n      tag_106\n      tag_107\n      jump\t// in\n    tag_106:\n      dup1\n      0x08c379a0\n      sub\n      tag_105\n      jumpi\n      pop\n      tag_108\n      tag_109\n      jump\t// in\n    tag_108:\n      dup1\n      tag_110\n      jumpi\n      pop\n      jump(tag_104)\n    tag_110:\n        /* \"StekcitBMAutomatedFunctions.sol\":3335:3370  RequestRevertedWithErrorMsg(reason) */\n      0x2ba61e3733e7ac99181c22307780f651ec8fd92fe661a84dfbe711710b2dc36c\n        /* \"StekcitBMAutomatedFunctions.sol\":3363:3369  reason */\n      dup2\n        /* \"StekcitBMAutomatedFunctions.sol\":3335:3370  RequestRevertedWithErrorMsg(reason) */\n      mload(0x40)\n      tag_111\n      swap2\n      swap1\n      tag_112\n      jump\t// in\n    tag_111:\n      mload(0x40)\n      dup1\n      swap2\n      sub\n      swap1\n      log1\n        /* \"StekcitBMAutomatedFunctions.sol\":3278:3385  catch Error(string memory reason) {... */\n      pop\n        /* \"StekcitBMAutomatedFunctions.sol\":2835:3486  try... */\n      jump(tag_103)\n    tag_105:\n      pop\n    tag_104:\n      returndatasize\n      dup1\n      0x00\n      dup2\n      eq\n      tag_114\n      jumpi\n      mload(0x40)\n      swap2\n      pop\n      and(add(returndatasize, 0x3f), not(0x1f))\n      dup3\n      add\n      0x40\n      mstore\n      returndatasize\n      dup3\n      mstore\n      returndatasize\n      0x00\n      0x20\n      dup5\n      add\n      returndatacopy\n      jump(tag_113)\n    tag_114:\n      0x60\n      swap2\n      pop\n    tag_113:\n      pop\n        /* \"StekcitBMAutomatedFunctions.sol\":3435:3471  RequestRevertedWithoutErrorMsg(data) */\n      0x9c4bfa18304482256875c29fabb1a44a5ecd325f214ea17bab8f31e869faf4c8\n        /* \"StekcitBMAutomatedFunctions.sol\":3466:3470  data */\n      dup2\n        /* \"StekcitBMAutomatedFunctions.sol\":3435:3471  RequestRevertedWithoutErrorMsg(data) */\n      mload(0x40)\n      tag_115\n      swap2\n      swap1\n      tag_36\n      jump\t// in\n    tag_115:\n      mload(0x40)\n      dup1\n      swap2\n      sub\n      swap1\n      log1\n        /* \"StekcitBMAutomatedFunctions.sol\":3386:3486  catch (bytes memory data) {... */\n      pop\n        /* \"StekcitBMAutomatedFunctions.sol\":2835:3486  try... */\n    tag_103:\n      jump(tag_116)\n    tag_102:\n        /* \"StekcitBMAutomatedFunctions.sol\":3151:3160  requestId */\n      dup1\n        /* \"StekcitBMAutomatedFunctions.sol\":3133:3148  s_lastRequestId */\n      0x04\n        /* \"StekcitBMAutomatedFunctions.sol\":3133:3160  s_lastRequestId = requestId */\n      dup2\n      swap1\n      sstore\n      pop\n        /* \"StekcitBMAutomatedFunctions.sol\":3216:3217  1 */\n      0x01\n        /* \"StekcitBMAutomatedFunctions.sol\":3197:3213  s_requestCounter */\n      sload(0x08)\n        /* \"StekcitBMAutomatedFunctions.sol\":3197:3217  s_requestCounter + 1 */\n      tag_117\n      swap2\n      swap1\n      tag_96\n      jump\t// in\n    tag_117:\n        /* \"StekcitBMAutomatedFunctions.sol\":3178:3194  s_requestCounter */\n      0x08\n        /* \"StekcitBMAutomatedFunctions.sol\":3178:3217  s_requestCounter = s_requestCounter + 1 */\n      dup2\n      swap1\n      sstore\n      pop\n        /* \"StekcitBMAutomatedFunctions.sol\":3252:3261  requestId */\n      dup1\n        /* \"StekcitBMAutomatedFunctions.sol\":3240:3262  RequestSent(requestId) */\n      0x1131472297a800fee664d1d89cfa8f7676ff07189ecc53f80bbb5f4969099db8\n      mload(0x40)\n      mload(0x40)\n      dup1\n      swap2\n      sub\n      swap1\n      log2\n        /* \"StekcitBMAutomatedFunctions.sol\":3087:3277  returns (bytes32 requestId) {... */\n      pop\n        /* \"StekcitBMAutomatedFunctions.sol\":2835:3486  try... */\n    tag_116:\n        /* \"StekcitBMAutomatedFunctions.sol\":2686:3496  if (block.number - lastBlockNumber > 0) {... */\n    tag_94:\n        /* \"StekcitBMAutomatedFunctions.sol\":2601:3647  function performUpkeep(bytes calldata /* performData */) external override {... */\n      pop\n      pop\n      jump\t// out\n        /* \"StekcitBMAutomatedFunctions.sol\":958:989  uint256 public s_requestCounter */\n    tag_48:\n      sload(0x08)\n      dup2\n      jump\t// out\n        /* \"StekcitBMAutomatedFunctions.sol\":892:916  bytes public s_lastError */\n    tag_51:\n      0x06\n      dup1\n      sload\n      tag_118\n      swap1\n      tag_81\n      jump\t// in\n    tag_118:\n      dup1\n      0x1f\n      add\n      0x20\n      dup1\n      swap2\n      div\n      mul\n      0x20\n      add\n      mload(0x40)\n      swap1\n      dup2\n      add\n      0x40\n      mstore\n      dup1\n      swap3\n      swap2\n      swap1\n      dup2\n      dup2\n      mstore\n      0x20\n      add\n      dup3\n      dup1\n      sload\n      tag_119\n      swap1\n      tag_81\n      jump\t// in\n    tag_119:\n      dup1\n      iszero\n      tag_120\n      jumpi\n      dup1\n      0x1f\n      lt\n      tag_121\n      jumpi\n      0x0100\n      dup1\n      dup4\n      sload\n      div\n      mul\n      dup4\n      mstore\n      swap2\n      0x20\n      add\n      swap2\n      jump(tag_120)\n    tag_121:\n      dup3\n      add\n      swap2\n      swap1\n      0x00\n      mstore\n      keccak256(0x00, 0x20)\n      swap1\n    tag_122:\n      dup2\n      sload\n      dup2\n      mstore\n      swap1\n      0x01\n      add\n      swap1\n      0x20\n      add\n      dup1\n      dup4\n      gt\n      tag_122\n      jumpi\n      dup3\n      swap1\n      sub\n      0x1f\n      and\n      dup3\n      add\n      swap2\n    tag_120:\n      pop\n      pop\n      pop\n      pop\n      pop\n      dup2\n      jump\t// out\n        /* \"StekcitBMAutomatedFunctions.sol\":1920:2450  function checkUpkeep(... */\n    tag_55:\n        /* \"StekcitBMAutomatedFunctions.sol\":2051:2068  bool upkeepNeeded */\n      0x00\n        /* \"StekcitBMAutomatedFunctions.sol\":2070:2094  bytes memory performData */\n      0x60\n        /* \"StekcitBMAutomatedFunctions.sol\":2158:2159  0 */\n      0x00\n        /* \"StekcitBMAutomatedFunctions.sol\":2140:2155  lastBlockNumber */\n      dup1\n      sload\n        /* \"StekcitBMAutomatedFunctions.sol\":2125:2137  block.number */\n      number\n        /* \"StekcitBMAutomatedFunctions.sol\":2125:2155  block.number - lastBlockNumber */\n      tag_124\n      swap2\n      swap1\n      tag_93\n      jump\t// in\n    tag_124:\n        /* \"StekcitBMAutomatedFunctions.sol\":2125:2159  block.number - lastBlockNumber > 0 */\n      gt\n        /* \"StekcitBMAutomatedFunctions.sol\":2110:2159  upkeepNeeded = block.number - lastBlockNumber > 0 */\n      swap2\n      pop\n        /* \"StekcitBMAutomatedFunctions.sol\":2379:2391  upkeepNeeded */\n      dup2\n        /* \"StekcitBMAutomatedFunctions.sol\":2371:2396  return (upkeepNeeded, \"\") */\n      mload(0x40)\n      dup1\n      0x20\n      add\n      0x40\n      mstore\n      dup1\n      0x00\n      dup2\n      mstore\n      pop\n      swap2\n      pop\n      swap2\n      pop\n        /* \"StekcitBMAutomatedFunctions.sol\":1920:2450  function checkUpkeep(... */\n      swap3\n      pop\n      swap3\n      swap1\n      pop\n      jump\t// out\n        /* \"StekcitBMAutomatedFunctions.sol\":797:817  bytes32 public donID */\n    tag_59:\n      sload(0x03)\n      dup2\n      jump\t// out\n        /* \"StekcitBMAutomatedFunctions.sol\":823:853  bytes32 public s_lastRequestId */\n    tag_63:\n      sload(0x04)\n      dup2\n      jump\t// out\n        /* \"StekcitBMAutomatedFunctions.sol\":4014:4296  function updateRequest(... */\n    tag_68:\n        /* \"StekcitBMAutomatedFunctions.sol\":4185:4193  _request */\n      dup4\n        /* \"StekcitBMAutomatedFunctions.sol\":4175:4182  request */\n      0x01\n        /* \"StekcitBMAutomatedFunctions.sol\":4175:4193  request = _request */\n      swap1\n      dup2\n      tag_126\n      swap2\n      swap1\n      tag_127\n      jump\t// in\n    tag_126:\n      pop\n        /* \"StekcitBMAutomatedFunctions.sol\":4220:4235  _subscriptionId */\n      dup3\n        /* \"StekcitBMAutomatedFunctions.sol\":4203:4217  subscriptionId */\n      0x02\n      0x00\n        /* \"StekcitBMAutomatedFunctions.sol\":4203:4235  subscriptionId = _subscriptionId */\n      0x0100\n      exp\n      dup2\n      sload\n      dup2\n      0xffffffffffffffff\n      mul\n      not\n      and\n      swap1\n      dup4\n      0xffffffffffffffff\n      and\n      mul\n      or\n      swap1\n      sstore\n      pop\n        /* \"StekcitBMAutomatedFunctions.sol\":4256:4265  _gasLimit */\n      dup2\n        /* \"StekcitBMAutomatedFunctions.sol\":4245:4253  gasLimit */\n      0x02\n      0x08\n        /* \"StekcitBMAutomatedFunctions.sol\":4245:4265  gasLimit = _gasLimit */\n      0x0100\n      exp\n      dup2\n      sload\n      dup2\n      0xffffffff\n      mul\n      not\n      and\n      swap1\n      dup4\n      0xffffffff\n      and\n      mul\n      or\n      swap1\n      sstore\n      pop\n        /* \"StekcitBMAutomatedFunctions.sol\":4283:4289  _donID */\n      dup1\n        /* \"StekcitBMAutomatedFunctions.sol\":4275:4280  donID */\n      0x03\n        /* \"StekcitBMAutomatedFunctions.sol\":4275:4289  donID = _donID */\n      dup2\n      swap1\n      sstore\n      pop\n        /* \"StekcitBMAutomatedFunctions.sol\":4014:4296  function updateRequest(... */\n      pop\n      pop\n      pop\n      pop\n      jump\t// out\n        /* \"StekcitBMAutomatedFunctions.sol\":922:952  uint256 public s_upkeepCounter */\n    tag_70:\n      sload(0x07)\n      dup2\n      jump\t// out\n        /* \"StekcitBMAutomatedFunctions.sol\":769:791  uint32 public gasLimit */\n    tag_73:\n      0x02\n      0x08\n      swap1\n      sload\n      swap1\n      0x0100\n      exp\n      swap1\n      div\n      0xffffffff\n      and\n      dup2\n      jump\t// out\n        /* \"StekcitBMAutomatedFunctions.sol\":4642:5062  function fulfillRequest(... */\n    tag_79:\n        /* \"StekcitBMAutomatedFunctions.sol\":4807:4816  requestId */\n      dup3\n        /* \"StekcitBMAutomatedFunctions.sol\":4788:4803  s_lastRequestId */\n      sload(0x04)\n        /* \"StekcitBMAutomatedFunctions.sol\":4788:4816  s_lastRequestId != requestId */\n      eq\n        /* \"StekcitBMAutomatedFunctions.sol\":4784:4880  if (s_lastRequestId != requestId) {... */\n      tag_129\n      jumpi\n        /* \"StekcitBMAutomatedFunctions.sol\":4859:4868  requestId */\n      dup3\n        /* \"StekcitBMAutomatedFunctions.sol\":4839:4869  UnexpectedRequestID(requestId) */\n      mload(0x40)\n      0xd068bf5b00000000000000000000000000000000000000000000000000000000\n      dup2\n      mstore\n      0x04\n      add\n      tag_130\n      swap2\n      swap1\n      tag_61\n      jump\t// in\n    tag_130:\n      mload(0x40)\n      dup1\n      swap2\n      sub\n      swap1\n      revert\n        /* \"StekcitBMAutomatedFunctions.sol\":4784:4880  if (s_lastRequestId != requestId) {... */\n    tag_129:\n        /* \"StekcitBMAutomatedFunctions.sol\":4906:4914  response */\n      dup2\n        /* \"StekcitBMAutomatedFunctions.sol\":4889:4903  s_lastResponse */\n      0x05\n        /* \"StekcitBMAutomatedFunctions.sol\":4889:4914  s_lastResponse = response */\n      swap1\n      dup2\n      tag_131\n      swap2\n      swap1\n      tag_127\n      jump\t// in\n    tag_131:\n      pop\n        /* \"StekcitBMAutomatedFunctions.sol\":4938:4941  err */\n      dup1\n        /* \"StekcitBMAutomatedFunctions.sol\":4924:4935  s_lastError */\n      0x06\n        /* \"StekcitBMAutomatedFunctions.sol\":4924:4941  s_lastError = err */\n      swap1\n      dup2\n      tag_132\n      swap2\n      swap1\n      tag_127\n      jump\t// in\n    tag_132:\n      pop\n        /* \"StekcitBMAutomatedFunctions.sol\":4991:4992  1 */\n      0x01\n        /* \"StekcitBMAutomatedFunctions.sol\":4971:4988  s_responseCounter */\n      sload(0x09)\n        /* \"StekcitBMAutomatedFunctions.sol\":4971:4992  s_responseCounter + 1 */\n      tag_133\n      swap2\n      swap1\n      tag_96\n      jump\t// in\n    tag_133:\n        /* \"StekcitBMAutomatedFunctions.sol\":4951:4968  s_responseCounter */\n      0x09\n        /* \"StekcitBMAutomatedFunctions.sol\":4951:4992  s_responseCounter = s_responseCounter + 1 */\n      dup2\n      swap1\n      sstore\n      pop\n        /* \"StekcitBMAutomatedFunctions.sol\":5016:5025  requestId */\n      dup3\n        /* \"StekcitBMAutomatedFunctions.sol\":5007:5055  Response(requestId, s_lastResponse, s_lastError) */\n      0x7873807bf6ddc50401cd3d29bbe0decee23fd4d68d273f4b5eb83cded4d2f172\n        /* \"StekcitBMAutomatedFunctions.sol\":5027:5041  s_lastResponse */\n      0x05\n        /* \"StekcitBMAutomatedFunctions.sol\":5043:5054  s_lastError */\n      0x06\n        /* \"StekcitBMAutomatedFunctions.sol\":5007:5055  Response(requestId, s_lastResponse, s_lastError) */\n      mload(0x40)\n      tag_134\n      swap3\n      swap2\n      swap1\n      tag_135\n      jump\t// in\n    tag_134:\n      mload(0x40)\n      dup1\n      swap2\n      sub\n      swap1\n      log2\n        /* \"StekcitBMAutomatedFunctions.sol\":4642:5062  function fulfillRequest(... */\n      pop\n      pop\n      pop\n      jump\t// out\n        /* \"#utility.yul\":7:108   */\n    tag_136:\n        /* \"#utility.yul\":43:50   */\n      0x00\n        /* \"#utility.yul\":83:101   */\n      0xffffffffffffffff\n        /* \"#utility.yul\":76:81   */\n      dup3\n        /* \"#utility.yul\":72:102   */\n      and\n        /* \"#utility.yul\":61:102   */\n      swap1\n      pop\n        /* \"#utility.yul\":7:108   */\n      swap2\n      swap1\n      pop\n      jump\t// out\n        /* \"#utility.yul\":114:229   */\n    tag_137:\n        /* \"#utility.yul\":199:222   */\n      tag_200\n        /* \"#utility.yul\":216:221   */\n      dup2\n        /* \"#utility.yul\":199:222   */\n      tag_136\n      jump\t// in\n    tag_200:\n        /* \"#utility.yul\":194:197   */\n      dup3\n        /* \"#utility.yul\":187:223   */\n      mstore\n        /* \"#utility.yul\":114:229   */\n      pop\n      pop\n      jump\t// out\n        /* \"#utility.yul\":235:453   */\n    tag_24:\n        /* \"#utility.yul\":326:330   */\n      0x00\n        /* \"#utility.yul\":364:366   */\n      0x20\n        /* \"#utility.yul\":353:362   */\n      dup3\n        /* \"#utility.yul\":349:367   */\n      add\n        /* \"#utility.yul\":341:367   */\n      swap1\n      pop\n        /* \"#utility.yul\":377:446   */\n      tag_202\n        /* \"#utility.yul\":443:444   */\n      0x00\n        /* \"#utility.yul\":432:441   */\n      dup4\n        /* \"#utility.yul\":428:445   */\n      add\n        /* \"#utility.yul\":419:425   */\n      dup5\n        /* \"#utility.yul\":377:446   */\n      tag_137\n      jump\t// in\n    tag_202:\n        /* \"#utility.yul\":235:453   */\n      swap3\n      swap2\n      pop\n      pop\n      jump\t// out\n        /* \"#utility.yul\":459:534   */\n    tag_138:\n        /* \"#utility.yul\":492:498   */\n      0x00\n        /* \"#utility.yul\":525:527   */\n      0x40\n        /* \"#utility.yul\":519:528   */\n      mload\n        /* \"#utility.yul\":509:528   */\n      swap1\n      pop\n        /* \"#utility.yul\":459:534   */\n      swap1\n      jump\t// out\n        /* \"#utility.yul\":540:657   */\n    tag_139:\n        /* \"#utility.yul\":649:650   */\n      0x00\n        /* \"#utility.yul\":646:647   */\n      dup1\n        /* \"#utility.yul\":639:651   */\n      revert\n        /* \"#utility.yul\":663:780   */\n    tag_140:\n        /* \"#utility.yul\":772:773   */\n      0x00\n        /* \"#utility.yul\":769:770   */\n      dup1\n        /* \"#utility.yul\":762:774   */\n      revert\n        /* \"#utility.yul\":786:863   */\n    tag_141:\n        /* \"#utility.yul\":823:830   */\n      0x00\n        /* \"#utility.yul\":852:857   */\n      dup2\n        /* \"#utility.yul\":841:857   */\n      swap1\n      pop\n        /* \"#utility.yul\":786:863   */\n      swap2\n      swap1\n      pop\n      jump\t// out\n        /* \"#utility.yul\":869:991   */\n    tag_142:\n        /* \"#utility.yul\":942:966   */\n      tag_208\n        /* \"#utility.yul\":960:965   */\n      dup2\n        /* \"#utility.yul\":942:966   */\n      tag_141\n      jump\t// in\n    tag_208:\n        /* \"#utility.yul\":935:940   */\n      dup2\n        /* \"#utility.yul\":932:967   */\n      eq\n        /* \"#utility.yul\":922:985   */\n      tag_209\n      jumpi\n        /* \"#utility.yul\":981:982   */\n      0x00\n        /* \"#utility.yul\":978:979   */\n      dup1\n        /* \"#utility.yul\":971:983   */\n      revert\n        /* \"#utility.yul\":922:985   */\n    tag_209:\n        /* \"#utility.yul\":869:991   */\n      pop\n      jump\t// out\n        /* \"#utility.yul\":997:1136   */\n    tag_143:\n        /* \"#utility.yul\":1043:1048   */\n      0x00\n        /* \"#utility.yul\":1081:1087   */\n      dup2\n        /* \"#utility.yul\":1068:1088   */\n      calldataload\n        /* \"#utility.yul\":1059:1088   */\n      swap1\n      pop\n        /* \"#utility.yul\":1097:1130   */\n      tag_211\n        /* \"#utility.yul\":1124:1129   */\n      dup2\n        /* \"#utility.yul\":1097:1130   */\n      tag_142\n      jump\t// in\n    tag_211:\n        /* \"#utility.yul\":997:1136   */\n      swap3\n      swap2\n      pop\n      pop\n      jump\t// out\n        /* \"#utility.yul\":1142:1259   */\n    tag_144:\n        /* \"#utility.yul\":1251:1252   */\n      0x00\n        /* \"#utility.yul\":1248:1249   */\n      dup1\n        /* \"#utility.yul\":1241:1253   */\n      revert\n        /* \"#utility.yul\":1265:1382   */\n    tag_145:\n        /* \"#utility.yul\":1374:1375   */\n      0x00\n        /* \"#utility.yul\":1371:1372   */\n      dup1\n        /* \"#utility.yul\":1364:1376   */\n      revert\n        /* \"#utility.yul\":1388:1490   */\n    tag_146:\n        /* \"#utility.yul\":1429:1435   */\n      0x00\n        /* \"#utility.yul\":1480:1482   */\n      0x1f\n        /* \"#utility.yul\":1476:1483   */\n      not\n        /* \"#utility.yul\":1471:1473   */\n      0x1f\n        /* \"#utility.yul\":1464:1469   */\n      dup4\n        /* \"#utility.yul\":1460:1474   */\n      add\n        /* \"#utility.yul\":1456:1484   */\n      and\n        /* \"#utility.yul\":1446:1484   */\n      swap1\n      pop\n        /* \"#utility.yul\":1388:1490   */\n      swap2\n      swap1\n      pop\n      jump\t// out\n        /* \"#utility.yul\":1496:1676   */\n    tag_147:\n        /* \"#utility.yul\":1544:1621   */\n      0x4e487b7100000000000000000000000000000000000000000000000000000000\n        /* \"#utility.yul\":1541:1542   */\n      0x00\n        /* \"#utility.yul\":1534:1622   */\n      mstore\n        /* \"#utility.yul\":1641:1645   */\n      0x41\n        /* \"#utility.yul\":1638:1639   */\n      0x04\n        /* \"#utility.yul\":1631:1646   */\n      mstore\n        /* \"#utility.yul\":1665:1669   */\n      0x24\n        /* \"#utility.yul\":1662:1663   */\n      0x00\n        /* \"#utility.yul\":1655:1670   */\n      revert\n        /* \"#utility.yul\":1682:1963   */\n    tag_148:\n        /* \"#utility.yul\":1765:1792   */\n      tag_217\n        /* \"#utility.yul\":1787:1791   */\n      dup3\n        /* \"#utility.yul\":1765:1792   */\n      tag_146\n      jump\t// in\n    tag_217:\n        /* \"#utility.yul\":1757:1763   */\n      dup2\n        /* \"#utility.yul\":1753:1793   */\n      add\n        /* \"#utility.yul\":1895:1901   */\n      dup2\n        /* \"#utility.yul\":1883:1893   */\n      dup2\n        /* \"#utility.yul\":1880:1902   */\n      lt\n        /* \"#utility.yul\":1859:1877   */\n      0xffffffffffffffff\n        /* \"#utility.yul\":1847:1857   */\n      dup3\n        /* \"#utility.yul\":1844:1878   */\n      gt\n        /* \"#utility.yul\":1841:1903   */\n      or\n        /* \"#utility.yul\":1838:1926   */\n      iszero\n      tag_218\n      jumpi\n        /* \"#utility.yul\":1906:1924   */\n      tag_219\n      tag_147\n      jump\t// in\n    tag_219:\n        /* \"#utility.yul\":1838:1926   */\n    tag_218:\n        /* \"#utility.yul\":1946:1956   */\n      dup1\n        /* \"#utility.yul\":1942:1944   */\n      0x40\n        /* \"#utility.yul\":1935:1957   */\n      mstore\n        /* \"#utility.yul\":1725:1963   */\n      pop\n        /* \"#utility.yul\":1682:1963   */\n      pop\n      pop\n      jump\t// out\n        /* \"#utility.yul\":1969:2098   */\n    tag_149:\n        /* \"#utility.yul\":2003:2009   */\n      0x00\n        /* \"#utility.yul\":2030:2050   */\n      tag_221\n      tag_138\n      jump\t// in\n    tag_221:\n        /* \"#utility.yul\":2020:2050   */\n      swap1\n      pop\n        /* \"#utility.yul\":2059:2092   */\n      tag_222\n        /* \"#utility.yul\":2087:2091   */\n      dup3\n        /* \"#utility.yul\":2079:2085   */\n      dup3\n        /* \"#utility.yul\":2059:2092   */\n      tag_148\n      jump\t// in\n    tag_222:\n        /* \"#utility.yul\":1969:2098   */\n      swap2\n      swap1\n      pop\n      jump\t// out\n        /* \"#utility.yul\":2104:2411   */\n    tag_150:\n        /* \"#utility.yul\":2165:2169   */\n      0x00\n        /* \"#utility.yul\":2255:2273   */\n      0xffffffffffffffff\n        /* \"#utility.yul\":2247:2253   */\n      dup3\n        /* \"#utility.yul\":2244:2274   */\n      gt\n        /* \"#utility.yul\":2241:2297   */\n      iszero\n      tag_224\n      jumpi\n        /* \"#utility.yul\":2277:2295   */\n      tag_225\n      tag_147\n      jump\t// in\n    tag_225:\n        /* \"#utility.yul\":2241:2297   */\n    tag_224:\n        /* \"#utility.yul\":2315:2344   */\n      tag_226\n        /* \"#utility.yul\":2337:2343   */\n      dup3\n        /* \"#utility.yul\":2315:2344   */\n      tag_146\n      jump\t// in\n    tag_226:\n        /* \"#utility.yul\":2307:2344   */\n      swap1\n      pop\n        /* \"#utility.yul\":2399:2403   */\n      0x20\n        /* \"#utility.yul\":2393:2397   */\n      dup2\n        /* \"#utility.yul\":2389:2404   */\n      add\n        /* \"#utility.yul\":2381:2404   */\n      swap1\n      pop\n        /* \"#utility.yul\":2104:2411   */\n      swap2\n      swap1\n      pop\n      jump\t// out\n        /* \"#utility.yul\":2417:2563   */\n    tag_151:\n        /* \"#utility.yul\":2514:2520   */\n      dup3\n        /* \"#utility.yul\":2509:2512   */\n      dup2\n        /* \"#utility.yul\":2504:2507   */\n      dup4\n        /* \"#utility.yul\":2491:2521   */\n      calldatacopy\n        /* \"#utility.yul\":2555:2556   */\n      0x00\n        /* \"#utility.yul\":2546:2552   */\n      dup4\n        /* \"#utility.yul\":2541:2544   */\n      dup4\n        /* \"#utility.yul\":2537:2553   */\n      add\n        /* \"#utility.yul\":2530:2557   */\n      mstore\n        /* \"#utility.yul\":2417:2563   */\n      pop\n      pop\n      pop\n      jump\t// out\n        /* \"#utility.yul\":2569:2992   */\n    tag_152:\n        /* \"#utility.yul\":2646:2651   */\n      0x00\n        /* \"#utility.yul\":2671:2736   */\n      tag_229\n        /* \"#utility.yul\":2687:2735   */\n      tag_230\n        /* \"#utility.yul\":2728:2734   */\n      dup5\n        /* \"#utility.yul\":2687:2735   */\n      tag_150\n      jump\t// in\n    tag_230:\n        /* \"#utility.yul\":2671:2736   */\n      tag_149\n      jump\t// in\n    tag_229:\n        /* \"#utility.yul\":2662:2736   */\n      swap1\n      pop\n        /* \"#utility.yul\":2759:2765   */\n      dup3\n        /* \"#utility.yul\":2752:2757   */\n      dup2\n        /* \"#utility.yul\":2745:2766   */\n      mstore\n        /* \"#utility.yul\":2797:2801   */\n      0x20\n        /* \"#utility.yul\":2790:2795   */\n      dup2\n        /* \"#utility.yul\":2786:2802   */\n      add\n        /* \"#utility.yul\":2835:2838   */\n      dup5\n        /* \"#utility.yul\":2826:2832   */\n      dup5\n        /* \"#utility.yul\":2821:2824   */\n      dup5\n        /* \"#utility.yul\":2817:2833   */\n      add\n        /* \"#utility.yul\":2814:2839   */\n      gt\n        /* \"#utility.yul\":2811:2923   */\n      iszero\n      tag_231\n      jumpi\n        /* \"#utility.yul\":2842:2921   */\n      tag_232\n      tag_145\n      jump\t// in\n    tag_232:\n        /* \"#utility.yul\":2811:2923   */\n    tag_231:\n        /* \"#utility.yul\":2932:2986   */\n      tag_233\n        /* \"#utility.yul\":2979:2985   */\n      dup5\n        /* \"#utility.yul\":2974:2977   */\n      dup3\n        /* \"#utility.yul\":2969:2972   */\n      dup6\n        /* \"#utility.yul\":2932:2986   */\n      tag_151\n      jump\t// in\n    tag_233:\n        /* \"#utility.yul\":2652:2992   */\n      pop\n        /* \"#utility.yul\":2569:2992   */\n      swap4\n      swap3\n      pop\n      pop\n      pop\n      jump\t// out\n        /* \"#utility.yul\":3011:3349   */\n    tag_153:\n        /* \"#utility.yul\":3066:3071   */\n      0x00\n        /* \"#utility.yul\":3115:3118   */\n      dup3\n        /* \"#utility.yul\":3108:3112   */\n      0x1f\n        /* \"#utility.yul\":3100:3106   */\n      dup4\n        /* \"#utility.yul\":3096:3113   */\n      add\n        /* \"#utility.yul\":3092:3119   */\n      slt\n        /* \"#utility.yul\":3082:3204   */\n      tag_235\n      jumpi\n        /* \"#utility.yul\":3123:3202   */\n      tag_236\n      tag_144\n      jump\t// in\n    tag_236:\n        /* \"#utility.yul\":3082:3204   */\n    tag_235:\n        /* \"#utility.yul\":3240:3246   */\n      dup2\n        /* \"#utility.yul\":3227:3247   */\n      calldataload\n        /* \"#utility.yul\":3265:3343   */\n      tag_237\n        /* \"#utility.yul\":3339:3342   */\n      dup5\n        /* \"#utility.yul\":3331:3337   */\n      dup3\n        /* \"#utility.yul\":3324:3328   */\n      0x20\n        /* \"#utility.yul\":3316:3322   */\n      dup7\n        /* \"#utility.yul\":3312:3329   */\n      add\n        /* \"#utility.yul\":3265:3343   */\n      tag_152\n      jump\t// in\n    tag_237:\n        /* \"#utility.yul\":3256:3343   */\n      swap2\n      pop\n        /* \"#utility.yul\":3072:3349   */\n      pop\n        /* \"#utility.yul\":3011:3349   */\n      swap3\n      swap2\n      pop\n      pop\n      jump\t// out\n        /* \"#utility.yul\":3355:4330   */\n    tag_27:\n        /* \"#utility.yul\":3450:3456   */\n      0x00\n        /* \"#utility.yul\":3458:3464   */\n      dup1\n        /* \"#utility.yul\":3466:3472   */\n      0x00\n        /* \"#utility.yul\":3515:3517   */\n      0x60\n        /* \"#utility.yul\":3503:3512   */\n      dup5\n        /* \"#utility.yul\":3494:3501   */\n      dup7\n        /* \"#utility.yul\":3490:3513   */\n      sub\n        /* \"#utility.yul\":3486:3518   */\n      slt\n        /* \"#utility.yul\":3483:3602   */\n      iszero\n      tag_239\n      jumpi\n        /* \"#utility.yul\":3521:3600   */\n      tag_240\n      tag_139\n      jump\t// in\n    tag_240:\n        /* \"#utility.yul\":3483:3602   */\n    tag_239:\n        /* \"#utility.yul\":3641:3642   */\n      0x00\n        /* \"#utility.yul\":3666:3719   */\n      tag_241\n        /* \"#utility.yul\":3711:3718   */\n      dup7\n        /* \"#utility.yul\":3702:3708   */\n      dup3\n        /* \"#utility.yul\":3691:3700   */\n      dup8\n        /* \"#utility.yul\":3687:3709   */\n      add\n        /* \"#utility.yul\":3666:3719   */\n      tag_143\n      jump\t// in\n    tag_241:\n        /* \"#utility.yul\":3656:3719   */\n      swap4\n      pop\n        /* \"#utility.yul\":3612:3729   */\n      pop\n        /* \"#utility.yul\":3796:3798   */\n      0x20\n        /* \"#utility.yul\":3785:3794   */\n      dup5\n        /* \"#utility.yul\":3781:3799   */\n      add\n        /* \"#utility.yul\":3768:3800   */\n      calldataload\n        /* \"#utility.yul\":3827:3845   */\n      0xffffffffffffffff\n        /* \"#utility.yul\":3819:3825   */\n      dup2\n        /* \"#utility.yul\":3816:3846   */\n      gt\n        /* \"#utility.yul\":3813:3930   */\n      iszero\n      tag_242\n      jumpi\n        /* \"#utility.yul\":3849:3928   */\n      tag_243\n      tag_140\n      jump\t// in\n    tag_243:\n        /* \"#utility.yul\":3813:3930   */\n    tag_242:\n        /* \"#utility.yul\":3954:4016   */\n      tag_244\n        /* \"#utility.yul\":4008:4015   */\n      dup7\n        /* \"#utility.yul\":3999:4005   */\n      dup3\n        /* \"#utility.yul\":3988:3997   */\n      dup8\n        /* \"#utility.yul\":3984:4006   */\n      add\n        /* \"#utility.yul\":3954:4016   */\n      tag_153\n      jump\t// in\n    tag_244:\n        /* \"#utility.yul\":3944:4016   */\n      swap3\n      pop\n        /* \"#utility.yul\":3739:4026   */\n      pop\n        /* \"#utility.yul\":4093:4095   */\n      0x40\n        /* \"#utility.yul\":4082:4091   */\n      dup5\n        /* \"#utility.yul\":4078:4096   */\n      add\n        /* \"#utility.yul\":4065:4097   */\n      calldataload\n        /* \"#utility.yul\":4124:4142   */\n      0xffffffffffffffff\n        /* \"#utility.yul\":4116:4122   */\n      dup2\n        /* \"#utility.yul\":4113:4143   */\n      gt\n        /* \"#utility.yul\":4110:4227   */\n      iszero\n      tag_245\n      jumpi\n        /* \"#utility.yul\":4146:4225   */\n      tag_246\n      tag_140\n      jump\t// in\n    tag_246:\n        /* \"#utility.yul\":4110:4227   */\n    tag_245:\n        /* \"#utility.yul\":4251:4313   */\n      tag_247\n        /* \"#utility.yul\":4305:4312   */\n      dup7\n        /* \"#utility.yul\":4296:4302   */\n      dup3\n        /* \"#utility.yul\":4285:4294   */\n      dup8\n        /* \"#utility.yul\":4281:4303   */\n      add\n        /* \"#utility.yul\":4251:4313   */\n      tag_153\n      jump\t// in\n    tag_247:\n        /* \"#utility.yul\":4241:4313   */\n      swap2\n      pop\n        /* \"#utility.yul\":4036:4323   */\n      pop\n        /* \"#utility.yul\":3355:4330   */\n      swap3\n      pop\n      swap3\n      pop\n      swap3\n      jump\t// out\n        /* \"#utility.yul\":4336:4413   */\n    tag_154:\n        /* \"#utility.yul\":4373:4380   */\n      0x00\n        /* \"#utility.yul\":4402:4407   */\n      dup2\n        /* \"#utility.yul\":4391:4407   */\n      swap1\n      pop\n        /* \"#utility.yul\":4336:4413   */\n      swap2\n      swap1\n      pop\n      jump\t// out\n        /* \"#utility.yul\":4419:4537   */\n    tag_155:\n        /* \"#utility.yul\":4506:4530   */\n      tag_250\n        /* \"#utility.yul\":4524:4529   */\n      dup2\n        /* \"#utility.yul\":4506:4530   */\n      tag_154\n      jump\t// in\n    tag_250:\n        /* \"#utility.yul\":4501:4504   */\n      dup3\n        /* \"#utility.yul\":4494:4531   */\n      mstore\n        /* \"#utility.yul\":4419:4537   */\n      pop\n      pop\n      jump\t// out\n        /* \"#utility.yul\":4543:4765   */\n    tag_32:\n        /* \"#utility.yul\":4636:4640   */\n      0x00\n        /* \"#utility.yul\":4674:4676   */\n      0x20\n        /* \"#utility.yul\":4663:4672   */\n      dup3\n        /* \"#utility.yul\":4659:4677   */\n      add\n        /* \"#utility.yul\":4651:4677   */\n      swap1\n      pop\n        /* \"#utility.yul\":4687:4758   */\n      tag_252\n        /* \"#utility.yul\":4755:4756   */\n      0x00\n        /* \"#utility.yul\":4744:4753   */\n      dup4\n        /* \"#utility.yul\":4740:4757   */\n      add\n        /* \"#utility.yul\":4731:4737   */\n      dup5\n        /* \"#utility.yul\":4687:4758   */\n      tag_155\n      jump\t// in\n    tag_252:\n        /* \"#utility.yul\":4543:4765   */\n      swap3\n      swap2\n      pop\n      pop\n      jump\t// out\n        /* \"#utility.yul\":4771:4869   */\n    tag_156:\n        /* \"#utility.yul\":4822:4828   */\n      0x00\n        /* \"#utility.yul\":4856:4861   */\n      dup2\n        /* \"#utility.yul\":4850:4862   */\n      mload\n        /* \"#utility.yul\":4840:4862   */\n      swap1\n      pop\n        /* \"#utility.yul\":4771:4869   */\n      swap2\n      swap1\n      pop\n      jump\t// out\n        /* \"#utility.yul\":4875:5043   */\n    tag_157:\n        /* \"#utility.yul\":4958:4969   */\n      0x00\n        /* \"#utility.yul\":4992:4998   */\n      dup3\n        /* \"#utility.yul\":4987:4990   */\n      dup3\n        /* \"#utility.yul\":4980:4999   */\n      mstore\n        /* \"#utility.yul\":5032:5036   */\n      0x20\n        /* \"#utility.yul\":5027:5030   */\n      dup3\n        /* \"#utility.yul\":5023:5037   */\n      add\n        /* \"#utility.yul\":5008:5037   */\n      swap1\n      pop\n        /* \"#utility.yul\":4875:5043   */\n      swap3\n      swap2\n      pop\n      pop\n      jump\t// out\n        /* \"#utility.yul\":5049:5295   */\n    tag_158:\n        /* \"#utility.yul\":5130:5131   */\n      0x00\n        /* \"#utility.yul\":5140:5253   */\n    tag_256:\n        /* \"#utility.yul\":5154:5160   */\n      dup4\n        /* \"#utility.yul\":5151:5152   */\n      dup2\n        /* \"#utility.yul\":5148:5161   */\n      lt\n        /* \"#utility.yul\":5140:5253   */\n      iszero\n      tag_258\n      jumpi\n        /* \"#utility.yul\":5239:5240   */\n      dup1\n        /* \"#utility.yul\":5234:5237   */\n      dup3\n        /* \"#utility.yul\":5230:5241   */\n      add\n        /* \"#utility.yul\":5224:5242   */\n      mload\n        /* \"#utility.yul\":5220:5221   */\n      dup2\n        /* \"#utility.yul\":5215:5218   */\n      dup5\n        /* \"#utility.yul\":5211:5222   */\n      add\n        /* \"#utility.yul\":5204:5243   */\n      mstore\n        /* \"#utility.yul\":5176:5178   */\n      0x20\n        /* \"#utility.yul\":5173:5174   */\n      dup2\n        /* \"#utility.yul\":5169:5179   */\n      add\n        /* \"#utility.yul\":5164:5179   */\n      swap1\n      pop\n        /* \"#utility.yul\":5140:5253   */\n      jump(tag_256)\n    tag_258:\n        /* \"#utility.yul\":5287:5288   */\n      0x00\n        /* \"#utility.yul\":5278:5284   */\n      dup5\n        /* \"#utility.yul\":5273:5276   */\n      dup5\n        /* \"#utility.yul\":5269:5285   */\n      add\n        /* \"#utility.yul\":5262:5289   */\n      mstore\n        /* \"#utility.yul\":5111:5295   */\n      pop\n        /* \"#utility.yul\":5049:5295   */\n      pop\n      pop\n      pop\n      jump\t// out\n        /* \"#utility.yul\":5301:5674   */\n    tag_159:\n        /* \"#utility.yul\":5387:5390   */\n      0x00\n        /* \"#utility.yul\":5415:5453   */\n      tag_260\n        /* \"#utility.yul\":5447:5452   */\n      dup3\n        /* \"#utility.yul\":5415:5453   */\n      tag_156\n      jump\t// in\n    tag_260:\n        /* \"#utility.yul\":5469:5539   */\n      tag_261\n        /* \"#utility.yul\":5532:5538   */\n      dup2\n        /* \"#utility.yul\":5527:5530   */\n      dup6\n        /* \"#utility.yul\":5469:5539   */\n      tag_157\n      jump\t// in\n    tag_261:\n        /* \"#utility.yul\":5462:5539   */\n      swap4\n      pop\n        /* \"#utility.yul\":5548:5613   */\n      tag_262\n        /* \"#utility.yul\":5606:5612   */\n      dup2\n        /* \"#utility.yul\":5601:5604   */\n      dup6\n        /* \"#utility.yul\":5594:5598   */\n      0x20\n        /* \"#utility.yul\":5587:5592   */\n      dup7\n        /* \"#utility.yul\":5583:5599   */\n      add\n        /* \"#utility.yul\":5548:5613   */\n      tag_158\n      jump\t// in\n    tag_262:\n        /* \"#utility.yul\":5638:5667   */\n      tag_263\n        /* \"#utility.yul\":5660:5666   */\n      dup2\n        /* \"#utility.yul\":5638:5667   */\n      tag_146\n      jump\t// in\n    tag_263:\n        /* \"#utility.yul\":5633:5636   */\n      dup5\n        /* \"#utility.yul\":5629:5668   */\n      add\n        /* \"#utility.yul\":5622:5668   */\n      swap2\n      pop\n        /* \"#utility.yul\":5391:5674   */\n      pop\n        /* \"#utility.yul\":5301:5674   */\n      swap3\n      swap2\n      pop\n      pop\n      jump\t// out\n        /* \"#utility.yul\":5680:5989   */\n    tag_36:\n        /* \"#utility.yul\":5791:5795   */\n      0x00\n        /* \"#utility.yul\":5829:5831   */\n      0x20\n        /* \"#utility.yul\":5818:5827   */\n      dup3\n        /* \"#utility.yul\":5814:5832   */\n      add\n        /* \"#utility.yul\":5806:5832   */\n      swap1\n      pop\n        /* \"#utility.yul\":5878:5887   */\n      dup2\n        /* \"#utility.yul\":5872:5876   */\n      dup2\n        /* \"#utility.yul\":5868:5888   */\n      sub\n        /* \"#utility.yul\":5864:5865   */\n      0x00\n        /* \"#utility.yul\":5853:5862   */\n      dup4\n        /* \"#utility.yul\":5849:5866   */\n      add\n        /* \"#utility.yul\":5842:5889   */\n      mstore\n        /* \"#utility.yul\":5906:5982   */\n      tag_265\n        /* \"#utility.yul\":5977:5981   */\n      dup2\n        /* \"#utility.yul\":5968:5974   */\n      dup5\n        /* \"#utility.yul\":5906:5982   */\n      tag_159\n      jump\t// in\n    tag_265:\n        /* \"#utility.yul\":5898:5982   */\n      swap1\n      pop\n        /* \"#utility.yul\":5680:5989   */\n      swap3\n      swap2\n      pop\n      pop\n      jump\t// out\n        /* \"#utility.yul\":5995:6112   */\n    tag_160:\n        /* \"#utility.yul\":6104:6105   */\n      0x00\n        /* \"#utility.yul\":6101:6102   */\n      dup1\n        /* \"#utility.yul\":6094:6106   */\n      revert\n        /* \"#utility.yul\":6118:6235   */\n    tag_161:\n        /* \"#utility.yul\":6227:6228   */\n      0x00\n        /* \"#utility.yul\":6224:6225   */\n      dup1\n        /* \"#utility.yul\":6217:6229   */\n      revert\n        /* \"#utility.yul\":6254:6806   */\n    tag_162:\n        /* \"#utility.yul\":6311:6319   */\n      0x00\n        /* \"#utility.yul\":6321:6327   */\n      dup1\n        /* \"#utility.yul\":6371:6374   */\n      dup4\n        /* \"#utility.yul\":6364:6368   */\n      0x1f\n        /* \"#utility.yul\":6356:6362   */\n      dup5\n        /* \"#utility.yul\":6352:6369   */\n      add\n        /* \"#utility.yul\":6348:6375   */\n      slt\n        /* \"#utility.yul\":6338:6460   */\n      tag_269\n      jumpi\n        /* \"#utility.yul\":6379:6458   */\n      tag_270\n      tag_144\n      jump\t// in\n    tag_270:\n        /* \"#utility.yul\":6338:6460   */\n    tag_269:\n        /* \"#utility.yul\":6492:6498   */\n      dup3\n        /* \"#utility.yul\":6479:6499   */\n      calldataload\n        /* \"#utility.yul\":6469:6499   */\n      swap1\n      pop\n        /* \"#utility.yul\":6522:6540   */\n      0xffffffffffffffff\n        /* \"#utility.yul\":6514:6520   */\n      dup2\n        /* \"#utility.yul\":6511:6541   */\n      gt\n        /* \"#utility.yul\":6508:6625   */\n      iszero\n      tag_271\n      jumpi\n        /* \"#utility.yul\":6544:6623   */\n      tag_272\n      tag_160\n      jump\t// in\n    tag_272:\n        /* \"#utility.yul\":6508:6625   */\n    tag_271:\n        /* \"#utility.yul\":6658:6662   */\n      0x20\n        /* \"#utility.yul\":6650:6656   */\n      dup4\n        /* \"#utility.yul\":6646:6663   */\n      add\n        /* \"#utility.yul\":6634:6663   */\n      swap2\n      pop\n        /* \"#utility.yul\":6712:6715   */\n      dup4\n        /* \"#utility.yul\":6704:6708   */\n      0x01\n        /* \"#utility.yul\":6696:6702   */\n      dup3\n        /* \"#utility.yul\":6692:6709   */\n      mul\n        /* \"#utility.yul\":6682:6690   */\n      dup4\n        /* \"#utility.yul\":6678:6710   */\n      add\n        /* \"#utility.yul\":6675:6716   */\n      gt\n        /* \"#utility.yul\":6672:6800   */\n      iszero\n      tag_273\n      jumpi\n        /* \"#utility.yul\":6719:6798   */\n      tag_274\n      tag_161\n      jump\t// in\n    tag_274:\n        /* \"#utility.yul\":6672:6800   */\n    tag_273:\n        /* \"#utility.yul\":6254:6806   */\n      swap3\n      pop\n      swap3\n      swap1\n      pop\n      jump\t// out\n        /* \"#utility.yul\":6812:7339   */\n    tag_45:\n        /* \"#utility.yul\":6882:6888   */\n      0x00\n        /* \"#utility.yul\":6890:6896   */\n      dup1\n        /* \"#utility.yul\":6939:6941   */\n      0x20\n        /* \"#utility.yul\":6927:6936   */\n      dup4\n        /* \"#utility.yul\":6918:6925   */\n      dup6\n        /* \"#utility.yul\":6914:6937   */\n      sub\n        /* \"#utility.yul\":6910:6942   */\n      slt\n        /* \"#utility.yul\":6907:7026   */\n      iszero\n      tag_276\n      jumpi\n        /* \"#utility.yul\":6945:7024   */\n      tag_277\n      tag_139\n      jump\t// in\n    tag_277:\n        /* \"#utility.yul\":6907:7026   */\n    tag_276:\n        /* \"#utility.yul\":7093:7094   */\n      0x00\n        /* \"#utility.yul\":7082:7091   */\n      dup4\n        /* \"#utility.yul\":7078:7095   */\n      add\n        /* \"#utility.yul\":7065:7096   */\n      calldataload\n        /* \"#utility.yul\":7123:7141   */\n      0xffffffffffffffff\n        /* \"#utility.yul\":7115:7121   */\n      dup2\n        /* \"#utility.yul\":7112:7142   */\n      gt\n        /* \"#utility.yul\":7109:7226   */\n      iszero\n      tag_278\n      jumpi\n        /* \"#utility.yul\":7145:7224   */\n      tag_279\n      tag_140\n      jump\t// in\n    tag_279:\n        /* \"#utility.yul\":7109:7226   */\n    tag_278:\n        /* \"#utility.yul\":7258:7322   */\n      tag_280\n        /* \"#utility.yul\":7314:7321   */\n      dup6\n        /* \"#utility.yul\":7305:7311   */\n      dup3\n        /* \"#utility.yul\":7294:7303   */\n      dup7\n        /* \"#utility.yul\":7290:7312   */\n      add\n        /* \"#utility.yul\":7258:7322   */\n      tag_162\n      jump\t// in\n    tag_280:\n        /* \"#utility.yul\":7240:7322   */\n      swap3\n      pop\n      swap3\n      pop\n        /* \"#utility.yul\":7036:7332   */\n      pop\n        /* \"#utility.yul\":6812:7339   */\n      swap3\n      pop\n      swap3\n      swap1\n      pop\n      jump\t// out\n        /* \"#utility.yul\":7345:7435   */\n    tag_163:\n        /* \"#utility.yul\":7379:7386   */\n      0x00\n        /* \"#utility.yul\":7422:7427   */\n      dup2\n        /* \"#utility.yul\":7415:7428   */\n      iszero\n        /* \"#utility.yul\":7408:7429   */\n      iszero\n        /* \"#utility.yul\":7397:7429   */\n      swap1\n      pop\n        /* \"#utility.yul\":7345:7435   */\n      swap2\n      swap1\n      pop\n      jump\t// out\n        /* \"#utility.yul\":7441:7550   */\n    tag_164:\n        /* \"#utility.yul\":7522:7543   */\n      tag_283\n        /* \"#utility.yul\":7537:7542   */\n      dup2\n        /* \"#utility.yul\":7522:7543   */\n      tag_163\n      jump\t// in\n    tag_283:\n        /* \"#utility.yul\":7517:7520   */\n      dup3\n        /* \"#utility.yul\":7510:7544   */\n      mstore\n        /* \"#utility.yul\":7441:7550   */\n      pop\n      pop\n      jump\t// out\n        /* \"#utility.yul\":7556:7963   */\n    tag_57:\n        /* \"#utility.yul\":7689:7693   */\n      0x00\n        /* \"#utility.yul\":7727:7729   */\n      0x40\n        /* \"#utility.yul\":7716:7725   */\n      dup3\n        /* \"#utility.yul\":7712:7730   */\n      add\n        /* \"#utility.yul\":7704:7730   */\n      swap1\n      pop\n        /* \"#utility.yul\":7740:7805   */\n      tag_285\n        /* \"#utility.yul\":7802:7803   */\n      0x00\n        /* \"#utility.yul\":7791:7800   */\n      dup4\n        /* \"#utility.yul\":7787:7804   */\n      add\n        /* \"#utility.yul\":7778:7784   */\n      dup6\n        /* \"#utility.yul\":7740:7805   */\n      tag_164\n      jump\t// in\n    tag_285:\n        /* \"#utility.yul\":7852:7861   */\n      dup2\n        /* \"#utility.yul\":7846:7850   */\n      dup2\n        /* \"#utility.yul\":7842:7862   */\n      sub\n        /* \"#utility.yul\":7837:7839   */\n      0x20\n        /* \"#utility.yul\":7826:7835   */\n      dup4\n        /* \"#utility.yul\":7822:7840   */\n      add\n        /* \"#utility.yul\":7815:7863   */\n      mstore\n        /* \"#utility.yul\":7880:7956   */\n      tag_286\n        /* \"#utility.yul\":7951:7955   */\n      dup2\n        /* \"#utility.yul\":7942:7948   */\n      dup5\n        /* \"#utility.yul\":7880:7956   */\n      tag_159\n      jump\t// in\n    tag_286:\n        /* \"#utility.yul\":7872:7956   */\n      swap1\n      pop\n        /* \"#utility.yul\":7556:7963   */\n      swap4\n      swap3\n      pop\n      pop\n      pop\n      jump\t// out\n        /* \"#utility.yul\":7969:8087   */\n    tag_165:\n        /* \"#utility.yul\":8056:8080   */\n      tag_288\n        /* \"#utility.yul\":8074:8079   */\n      dup2\n        /* \"#utility.yul\":8056:8080   */\n      tag_141\n      jump\t// in\n    tag_288:\n        /* \"#utility.yul\":8051:8054   */\n      dup3\n        /* \"#utility.yul\":8044:8081   */\n      mstore\n        /* \"#utility.yul\":7969:8087   */\n      pop\n      pop\n      jump\t// out\n        /* \"#utility.yul\":8093:8315   */\n    tag_61:\n        /* \"#utility.yul\":8186:8190   */\n      0x00\n        /* \"#utility.yul\":8224:8226   */\n      0x20\n        /* \"#utility.yul\":8213:8222   */\n      dup3\n        /* \"#utility.yul\":8209:8227   */\n      add\n        /* \"#utility.yul\":8201:8227   */\n      swap1\n      pop\n        /* \"#utility.yul\":8237:8308   */\n      tag_290\n        /* \"#utility.yul\":8305:8306   */\n      0x00\n        /* \"#utility.yul\":8294:8303   */\n      dup4\n        /* \"#utility.yul\":8290:8307   */\n      add\n        /* \"#utility.yul\":8281:8287   */\n      dup5\n        /* \"#utility.yul\":8237:8308   */\n      tag_165\n      jump\t// in\n    tag_290:\n        /* \"#utility.yul\":8093:8315   */\n      swap3\n      swap2\n      pop\n      pop\n      jump\t// out\n        /* \"#utility.yul\":8321:8441   */\n    tag_166:\n        /* \"#utility.yul\":8393:8416   */\n      tag_292\n        /* \"#utility.yul\":8410:8415   */\n      dup2\n        /* \"#utility.yul\":8393:8416   */\n      tag_136\n      jump\t// in\n    tag_292:\n        /* \"#utility.yul\":8386:8391   */\n      dup2\n        /* \"#utility.yul\":8383:8417   */\n      eq\n        /* \"#utility.yul\":8373:8435   */\n      tag_293\n      jumpi\n        /* \"#utility.yul\":8431:8432   */\n      0x00\n        /* \"#utility.yul\":8428:8429   */\n      dup1\n        /* \"#utility.yul\":8421:8433   */\n      revert\n        /* \"#utility.yul\":8373:8435   */\n    tag_293:\n        /* \"#utility.yul\":8321:8441   */\n      pop\n      jump\t// out\n        /* \"#utility.yul\":8447:8584   */\n    tag_167:\n        /* \"#utility.yul\":8492:8497   */\n      0x00\n        /* \"#utility.yul\":8530:8536   */\n      dup2\n        /* \"#utility.yul\":8517:8537   */\n      calldataload\n        /* \"#utility.yul\":8508:8537   */\n      swap1\n      pop\n        /* \"#utility.yul\":8546:8578   */\n      tag_295\n        /* \"#utility.yul\":8572:8577   */\n      dup2\n        /* \"#utility.yul\":8546:8578   */\n      tag_166\n      jump\t// in\n    tag_295:\n        /* \"#utility.yul\":8447:8584   */\n      swap3\n      swap2\n      pop\n      pop\n      jump\t// out\n        /* \"#utility.yul\":8590:8683   */\n    tag_168:\n        /* \"#utility.yul\":8626:8633   */\n      0x00\n        /* \"#utility.yul\":8666:8676   */\n      0xffffffff\n        /* \"#utility.yul\":8659:8664   */\n      dup3\n        /* \"#utility.yul\":8655:8677   */\n      and\n        /* \"#utility.yul\":8644:8677   */\n      swap1\n      pop\n        /* \"#utility.yul\":8590:8683   */\n      swap2\n      swap1\n      pop\n      jump\t// out\n        /* \"#utility.yul\":8689:8809   */\n    tag_169:\n        /* \"#utility.yul\":8761:8784   */\n      tag_298\n        /* \"#utility.yul\":8778:8783   */\n      dup2\n        /* \"#utility.yul\":8761:8784   */\n      tag_168\n      jump\t// in\n    tag_298:\n        /* \"#utility.yul\":8754:8759   */\n      dup2\n        /* \"#utility.yul\":8751:8785   */\n      eq\n        /* \"#utility.yul\":8741:8803   */\n      tag_299\n      jumpi\n        /* \"#utility.yul\":8799:8800   */\n      0x00\n        /* \"#utility.yul\":8796:8797   */\n      dup1\n        /* \"#utility.yul\":8789:8801   */\n      revert\n        /* \"#utility.yul\":8741:8803   */\n    tag_299:\n        /* \"#utility.yul\":8689:8809   */\n      pop\n      jump\t// out\n        /* \"#utility.yul\":8815:8952   */\n    tag_170:\n        /* \"#utility.yul\":8860:8865   */\n      0x00\n        /* \"#utility.yul\":8898:8904   */\n      dup2\n        /* \"#utility.yul\":8885:8905   */\n      calldataload\n        /* \"#utility.yul\":8876:8905   */\n      swap1\n      pop\n        /* \"#utility.yul\":8914:8946   */\n      tag_301\n        /* \"#utility.yul\":8940:8945   */\n      dup2\n        /* \"#utility.yul\":8914:8946   */\n      tag_169\n      jump\t// in\n    tag_301:\n        /* \"#utility.yul\":8815:8952   */\n      swap3\n      swap2\n      pop\n      pop\n      jump\t// out\n        /* \"#utility.yul\":8958:9897   */\n    tag_67:\n        /* \"#utility.yul\":9051:9057   */\n      0x00\n        /* \"#utility.yul\":9059:9065   */\n      dup1\n        /* \"#utility.yul\":9067:9073   */\n      0x00\n        /* \"#utility.yul\":9075:9081   */\n      dup1\n        /* \"#utility.yul\":9124:9127   */\n      0x80\n        /* \"#utility.yul\":9112:9121   */\n      dup6\n        /* \"#utility.yul\":9103:9110   */\n      dup8\n        /* \"#utility.yul\":9099:9122   */\n      sub\n        /* \"#utility.yul\":9095:9128   */\n      slt\n        /* \"#utility.yul\":9092:9212   */\n      iszero\n      tag_303\n      jumpi\n        /* \"#utility.yul\":9131:9210   */\n      tag_304\n      tag_139\n      jump\t// in\n    tag_304:\n        /* \"#utility.yul\":9092:9212   */\n    tag_303:\n        /* \"#utility.yul\":9279:9280   */\n      0x00\n        /* \"#utility.yul\":9268:9277   */\n      dup6\n        /* \"#utility.yul\":9264:9281   */\n      add\n        /* \"#utility.yul\":9251:9282   */\n      calldataload\n        /* \"#utility.yul\":9309:9327   */\n      0xffffffffffffffff\n        /* \"#utility.yul\":9301:9307   */\n      dup2\n        /* \"#utility.yul\":9298:9328   */\n      gt\n        /* \"#utility.yul\":9295:9412   */\n      iszero\n      tag_305\n      jumpi\n        /* \"#utility.yul\":9331:9410   */\n      tag_306\n      tag_140\n      jump\t// in\n    tag_306:\n        /* \"#utility.yul\":9295:9412   */\n    tag_305:\n        /* \"#utility.yul\":9436:9498   */\n      tag_307\n        /* \"#utility.yul\":9490:9497   */\n      dup8\n        /* \"#utility.yul\":9481:9487   */\n      dup3\n        /* \"#utility.yul\":9470:9479   */\n      dup9\n        /* \"#utility.yul\":9466:9488   */\n      add\n        /* \"#utility.yul\":9436:9498   */\n      tag_153\n      jump\t// in\n    tag_307:\n        /* \"#utility.yul\":9426:9498   */\n      swap5\n      pop\n        /* \"#utility.yul\":9222:9508   */\n      pop\n        /* \"#utility.yul\":9547:9549   */\n      0x20\n        /* \"#utility.yul\":9573:9625   */\n      tag_308\n        /* \"#utility.yul\":9617:9624   */\n      dup8\n        /* \"#utility.yul\":9608:9614   */\n      dup3\n        /* \"#utility.yul\":9597:9606   */\n      dup9\n        /* \"#utility.yul\":9593:9615   */\n      add\n        /* \"#utility.yul\":9573:9625   */\n      tag_167\n      jump\t// in\n    tag_308:\n        /* \"#utility.yul\":9563:9625   */\n      swap4\n      pop\n        /* \"#utility.yul\":9518:9635   */\n      pop\n        /* \"#utility.yul\":9674:9676   */\n      0x40\n        /* \"#utility.yul\":9700:9752   */\n      tag_309\n        /* \"#utility.yul\":9744:9751   */\n      dup8\n        /* \"#utility.yul\":9735:9741   */\n      dup3\n        /* \"#utility.yul\":9724:9733   */\n      dup9\n        /* \"#utility.yul\":9720:9742   */\n      add\n        /* \"#utility.yul\":9700:9752   */\n      tag_170\n      jump\t// in\n    tag_309:\n        /* \"#utility.yul\":9690:9752   */\n      swap3\n      pop\n        /* \"#utility.yul\":9645:9762   */\n      pop\n        /* \"#utility.yul\":9801:9803   */\n      0x60\n        /* \"#utility.yul\":9827:9880   */\n      tag_310\n        /* \"#utility.yul\":9872:9879   */\n      dup8\n        /* \"#utility.yul\":9863:9869   */\n      dup3\n        /* \"#utility.yul\":9852:9861   */\n      dup9\n        /* \"#utility.yul\":9848:9870   */\n      add\n        /* \"#utility.yul\":9827:9880   */\n      tag_143\n      jump\t// in\n    tag_310:\n        /* \"#utility.yul\":9817:9880   */\n      swap2\n      pop\n        /* \"#utility.yul\":9772:9890   */\n      pop\n        /* \"#utility.yul\":8958:9897   */\n      swap3\n      swap6\n      swap2\n      swap5\n      pop\n      swap3\n      pop\n      jump\t// out\n        /* \"#utility.yul\":9903:10018   */\n    tag_171:\n        /* \"#utility.yul\":9988:10011   */\n      tag_312\n        /* \"#utility.yul\":10005:10010   */\n      dup2\n        /* \"#utility.yul\":9988:10011   */\n      tag_168\n      jump\t// in\n    tag_312:\n        /* \"#utility.yul\":9983:9986   */\n      dup3\n        /* \"#utility.yul\":9976:10012   */\n      mstore\n        /* \"#utility.yul\":9903:10018   */\n      pop\n      pop\n      jump\t// out\n        /* \"#utility.yul\":10024:10242   */\n    tag_75:\n        /* \"#utility.yul\":10115:10119   */\n      0x00\n        /* \"#utility.yul\":10153:10155   */\n      0x20\n        /* \"#utility.yul\":10142:10151   */\n      dup3\n        /* \"#utility.yul\":10138:10156   */\n      add\n        /* \"#utility.yul\":10130:10156   */\n      swap1\n      pop\n        /* \"#utility.yul\":10166:10235   */\n      tag_314\n        /* \"#utility.yul\":10232:10233   */\n      0x00\n        /* \"#utility.yul\":10221:10230   */\n      dup4\n        /* \"#utility.yul\":10217:10234   */\n      add\n        /* \"#utility.yul\":10208:10214   */\n      dup5\n        /* \"#utility.yul\":10166:10235   */\n      tag_171\n      jump\t// in\n    tag_314:\n        /* \"#utility.yul\":10024:10242   */\n      swap3\n      swap2\n      pop\n      pop\n      jump\t// out\n        /* \"#utility.yul\":10248:10428   */\n    tag_172:\n        /* \"#utility.yul\":10296:10373   */\n      0x4e487b7100000000000000000000000000000000000000000000000000000000\n        /* \"#utility.yul\":10293:10294   */\n      0x00\n        /* \"#utility.yul\":10286:10374   */\n      mstore\n        /* \"#utility.yul\":10393:10397   */\n      0x22\n        /* \"#utility.yul\":10390:10391   */\n      0x04\n        /* \"#utility.yul\":10383:10398   */\n      mstore\n        /* \"#utility.yul\":10417:10421   */\n      0x24\n        /* \"#utility.yul\":10414:10415   */\n      0x00\n        /* \"#utility.yul\":10407:10422   */\n      revert\n        /* \"#utility.yul\":10434:10754   */\n    tag_81:\n        /* \"#utility.yul\":10478:10484   */\n      0x00\n        /* \"#utility.yul\":10515:10516   */\n      0x02\n        /* \"#utility.yul\":10509:10513   */\n      dup3\n        /* \"#utility.yul\":10505:10517   */\n      div\n        /* \"#utility.yul\":10495:10517   */\n      swap1\n      pop\n        /* \"#utility.yul\":10562:10563   */\n      0x01\n        /* \"#utility.yul\":10556:10560   */\n      dup3\n        /* \"#utility.yul\":10552:10564   */\n      and\n        /* \"#utility.yul\":10583:10601   */\n      dup1\n        /* \"#utility.yul\":10573:10654   */\n      tag_317\n      jumpi\n        /* \"#utility.yul\":10639:10643   */\n      0x7f\n        /* \"#utility.yul\":10631:10637   */\n      dup3\n        /* \"#utility.yul\":10627:10644   */\n      and\n        /* \"#utility.yul\":10617:10644   */\n      swap2\n      pop\n        /* \"#utility.yul\":10573:10654   */\n    tag_317:\n        /* \"#utility.yul\":10701:10703   */\n      0x20\n        /* \"#utility.yul\":10693:10699   */\n      dup3\n        /* \"#utility.yul\":10690:10704   */\n      lt\n        /* \"#utility.yul\":10670:10688   */\n      dup2\n        /* \"#utility.yul\":10667:10705   */\n      sub\n        /* \"#utility.yul\":10664:10748   */\n      tag_318\n      jumpi\n        /* \"#utility.yul\":10720:10738   */\n      tag_319\n      tag_172\n      jump\t// in\n    tag_319:\n        /* \"#utility.yul\":10664:10748   */\n    tag_318:\n        /* \"#utility.yul\":10485:10754   */\n      pop\n        /* \"#utility.yul\":10434:10754   */\n      swap2\n      swap1\n      pop\n      jump\t// out\n        /* \"#utility.yul\":10760:10940   */\n    tag_173:\n        /* \"#utility.yul\":10808:10885   */\n      0x4e487b7100000000000000000000000000000000000000000000000000000000\n        /* \"#utility.yul\":10805:10806   */\n      0x00\n        /* \"#utility.yul\":10798:10886   */\n      mstore\n        /* \"#utility.yul\":10905:10909   */\n      0x11\n        /* \"#utility.yul\":10902:10903   */\n      0x04\n        /* \"#utility.yul\":10895:10910   */\n      mstore\n        /* \"#utility.yul\":10929:10933   */\n      0x24\n        /* \"#utility.yul\":10926:10927   */\n      0x00\n        /* \"#utility.yul\":10919:10934   */\n      revert\n        /* \"#utility.yul\":10946:11140   */\n    tag_93:\n        /* \"#utility.yul\":10986:10990   */\n      0x00\n        /* \"#utility.yul\":11006:11026   */\n      tag_322\n        /* \"#utility.yul\":11024:11025   */\n      dup3\n        /* \"#utility.yul\":11006:11026   */\n      tag_154\n      jump\t// in\n    tag_322:\n        /* \"#utility.yul\":11001:11026   */\n      swap2\n      pop\n        /* \"#utility.yul\":11040:11060   */\n      tag_323\n        /* \"#utility.yul\":11058:11059   */\n      dup4\n        /* \"#utility.yul\":11040:11060   */\n      tag_154\n      jump\t// in\n    tag_323:\n        /* \"#utility.yul\":11035:11060   */\n      swap3\n      pop\n        /* \"#utility.yul\":11084:11085   */\n      dup3\n        /* \"#utility.yul\":11081:11082   */\n      dup3\n        /* \"#utility.yul\":11077:11086   */\n      sub\n        /* \"#utility.yul\":11069:11086   */\n      swap1\n      pop\n        /* \"#utility.yul\":11108:11109   */\n      dup2\n        /* \"#utility.yul\":11102:11106   */\n      dup2\n        /* \"#utility.yul\":11099:11110   */\n      gt\n        /* \"#utility.yul\":11096:11133   */\n      iszero\n      tag_324\n      jumpi\n        /* \"#utility.yul\":11113:11131   */\n      tag_325\n      tag_173\n      jump\t// in\n    tag_325:\n        /* \"#utility.yul\":11096:11133   */\n    tag_324:\n        /* \"#utility.yul\":10946:11140   */\n      swap3\n      swap2\n      pop\n      pop\n      jump\t// out\n        /* \"#utility.yul\":11146:11337   */\n    tag_96:\n        /* \"#utility.yul\":11186:11189   */\n      0x00\n        /* \"#utility.yul\":11205:11225   */\n      tag_327\n        /* \"#utility.yul\":11223:11224   */\n      dup3\n        /* \"#utility.yul\":11205:11225   */\n      tag_154\n      jump\t// in\n    tag_327:\n        /* \"#utility.yul\":11200:11225   */\n      swap2\n      pop\n        /* \"#utility.yul\":11239:11259   */\n      tag_328\n        /* \"#utility.yul\":11257:11258   */\n      dup4\n        /* \"#utility.yul\":11239:11259   */\n      tag_154\n      jump\t// in\n    tag_328:\n        /* \"#utility.yul\":11234:11259   */\n      swap3\n      pop\n        /* \"#utility.yul\":11282:11283   */\n      dup3\n        /* \"#utility.yul\":11279:11280   */\n      dup3\n        /* \"#utility.yul\":11275:11284   */\n      add\n        /* \"#utility.yul\":11268:11284   */\n      swap1\n      pop\n        /* \"#utility.yul\":11303:11306   */\n      dup1\n        /* \"#utility.yul\":11300:11301   */\n      dup3\n        /* \"#utility.yul\":11297:11307   */\n      gt\n        /* \"#utility.yul\":11294:11330   */\n      iszero\n      tag_329\n      jumpi\n        /* \"#utility.yul\":11310:11328   */\n      tag_330\n      tag_173\n      jump\t// in\n    tag_330:\n        /* \"#utility.yul\":11294:11330   */\n    tag_329:\n        /* \"#utility.yul\":11146:11337   */\n      swap3\n      swap2\n      pop\n      pop\n      jump\t// out\n        /* \"#utility.yul\":11343:11483   */\n    tag_174:\n        /* \"#utility.yul\":11391:11395   */\n      0x00\n        /* \"#utility.yul\":11414:11417   */\n      dup2\n        /* \"#utility.yul\":11406:11417   */\n      swap1\n      pop\n        /* \"#utility.yul\":11437:11440   */\n      dup2\n        /* \"#utility.yul\":11434:11435   */\n      0x00\n        /* \"#utility.yul\":11427:11441   */\n      mstore\n        /* \"#utility.yul\":11471:11475   */\n      0x20\n        /* \"#utility.yul\":11468:11469   */\n      0x00\n        /* \"#utility.yul\":11458:11476   */\n      keccak256\n        /* \"#utility.yul\":11450:11476   */\n      swap1\n      pop\n        /* \"#utility.yul\":11343:11483   */\n      swap2\n      swap1\n      pop\n      jump\t// out\n        /* \"#utility.yul\":11511:12338   */\n    tag_175:\n        /* \"#utility.yul\":11594:11597   */\n      0x00\n        /* \"#utility.yul\":11631:11636   */\n      dup2\n        /* \"#utility.yul\":11625:11637   */\n      sload\n        /* \"#utility.yul\":11660:11696   */\n      tag_333\n        /* \"#utility.yul\":11686:11695   */\n      dup2\n        /* \"#utility.yul\":11660:11696   */\n      tag_81\n      jump\t// in\n    tag_333:\n        /* \"#utility.yul\":11712:11782   */\n      tag_334\n        /* \"#utility.yul\":11775:11781   */\n      dup2\n        /* \"#utility.yul\":11770:11773   */\n      dup7\n        /* \"#utility.yul\":11712:11782   */\n      tag_157\n      jump\t// in\n    tag_334:\n        /* \"#utility.yul\":11705:11782   */\n      swap5\n      pop\n        /* \"#utility.yul\":11813:11814   */\n      0x01\n        /* \"#utility.yul\":11802:11811   */\n      dup3\n        /* \"#utility.yul\":11798:11815   */\n      and\n        /* \"#utility.yul\":11829:11830   */\n      0x00\n        /* \"#utility.yul\":11824:11988   */\n      dup2\n      eq\n      tag_336\n      jumpi\n        /* \"#utility.yul\":12002:12003   */\n      0x01\n        /* \"#utility.yul\":11997:12332   */\n      dup2\n      eq\n      tag_337\n      jumpi\n        /* \"#utility.yul\":11791:12332   */\n      jump(tag_335)\n        /* \"#utility.yul\":11824:11988   */\n    tag_336:\n        /* \"#utility.yul\":11908:11912   */\n      0xff\n        /* \"#utility.yul\":11904:11913   */\n      not\n        /* \"#utility.yul\":11893:11902   */\n      dup4\n        /* \"#utility.yul\":11889:11914   */\n      and\n        /* \"#utility.yul\":11884:11887   */\n      dup7\n        /* \"#utility.yul\":11877:11915   */\n      mstore\n        /* \"#utility.yul\":11968:11974   */\n      dup2\n        /* \"#utility.yul\":11961:11975   */\n      iszero\n        /* \"#utility.yul\":11954:11976   */\n      iszero\n        /* \"#utility.yul\":11948:11952   */\n      0x20\n        /* \"#utility.yul\":11944:11977   */\n      mul\n        /* \"#utility.yul\":11939:11942   */\n      dup7\n        /* \"#utility.yul\":11935:11978   */\n      add\n        /* \"#utility.yul\":11928:11978   */\n      swap4\n      pop\n        /* \"#utility.yul\":11824:11988   */\n      jump(tag_335)\n        /* \"#utility.yul\":11997:12332   */\n    tag_337:\n        /* \"#utility.yul\":12064:12101   */\n      tag_338\n        /* \"#utility.yul\":12095:12100   */\n      dup6\n        /* \"#utility.yul\":12064:12101   */\n      tag_174\n      jump\t// in\n    tag_338:\n        /* \"#utility.yul\":12123:12124   */\n      0x00\n        /* \"#utility.yul\":12137:12291   */\n    tag_339:\n        /* \"#utility.yul\":12151:12157   */\n      dup4\n        /* \"#utility.yul\":12148:12149   */\n      dup2\n        /* \"#utility.yul\":12145:12158   */\n      lt\n        /* \"#utility.yul\":12137:12291   */\n      iszero\n      tag_341\n      jumpi\n        /* \"#utility.yul\":12225:12232   */\n      dup2\n        /* \"#utility.yul\":12219:12233   */\n      sload\n        /* \"#utility.yul\":12215:12216   */\n      dup2\n        /* \"#utility.yul\":12210:12213   */\n      dup10\n        /* \"#utility.yul\":12206:12217   */\n      add\n        /* \"#utility.yul\":12199:12234   */\n      mstore\n        /* \"#utility.yul\":12275:12276   */\n      0x01\n        /* \"#utility.yul\":12266:12273   */\n      dup3\n        /* \"#utility.yul\":12262:12277   */\n      add\n        /* \"#utility.yul\":12251:12277   */\n      swap2\n      pop\n        /* \"#utility.yul\":12173:12177   */\n      0x20\n        /* \"#utility.yul\":12170:12171   */\n      dup2\n        /* \"#utility.yul\":12166:12178   */\n      add\n        /* \"#utility.yul\":12161:12178   */\n      swap1\n      pop\n        /* \"#utility.yul\":12137:12291   */\n      jump(tag_339)\n    tag_341:\n        /* \"#utility.yul\":12320:12321   */\n      dup1\n        /* \"#utility.yul\":12315:12318   */\n      dup9\n        /* \"#utility.yul\":12311:12322   */\n      add\n        /* \"#utility.yul\":12304:12322   */\n      swap6\n      pop\n        /* \"#utility.yul\":12004:12332   */\n      pop\n      pop\n        /* \"#utility.yul\":11791:12332   */\n    tag_335:\n      pop\n        /* \"#utility.yul\":11598:12338   */\n      pop\n      pop\n        /* \"#utility.yul\":11511:12338   */\n      swap3\n      swap2\n      pop\n      pop\n      jump\t// out\n        /* \"#utility.yul\":12344:12433   */\n    tag_176:\n        /* \"#utility.yul\":12380:12387   */\n      0x00\n        /* \"#utility.yul\":12420:12426   */\n      0xffff\n        /* \"#utility.yul\":12413:12418   */\n      dup3\n        /* \"#utility.yul\":12409:12427   */\n      and\n        /* \"#utility.yul\":12398:12427   */\n      swap1\n      pop\n        /* \"#utility.yul\":12344:12433   */\n      swap2\n      swap1\n      pop\n      jump\t// out\n        /* \"#utility.yul\":12439:12554   */\n    tag_177:\n        /* \"#utility.yul\":12524:12547   */\n      tag_344\n        /* \"#utility.yul\":12541:12546   */\n      dup2\n        /* \"#utility.yul\":12524:12547   */\n      tag_176\n      jump\t// in\n    tag_344:\n        /* \"#utility.yul\":12519:12522   */\n      dup3\n        /* \"#utility.yul\":12512:12548   */\n      mstore\n        /* \"#utility.yul\":12439:12554   */\n      pop\n      pop\n      jump\t// out\n        /* \"#utility.yul\":12560:13293   */\n    tag_98:\n        /* \"#utility.yul\":12774:12778   */\n      0x00\n        /* \"#utility.yul\":12812:12815   */\n      0xa0\n        /* \"#utility.yul\":12801:12810   */\n      dup3\n        /* \"#utility.yul\":12797:12816   */\n      add\n        /* \"#utility.yul\":12789:12816   */\n      swap1\n      pop\n        /* \"#utility.yul\":12826:12895   */\n      tag_346\n        /* \"#utility.yul\":12892:12893   */\n      0x00\n        /* \"#utility.yul\":12881:12890   */\n      dup4\n        /* \"#utility.yul\":12877:12894   */\n      add\n        /* \"#utility.yul\":12868:12874   */\n      dup9\n        /* \"#utility.yul\":12826:12895   */\n      tag_137\n      jump\t// in\n    tag_346:\n        /* \"#utility.yul\":12942:12951   */\n      dup2\n        /* \"#utility.yul\":12936:12940   */\n      dup2\n        /* \"#utility.yul\":12932:12952   */\n      sub\n        /* \"#utility.yul\":12927:12929   */\n      0x20\n        /* \"#utility.yul\":12916:12925   */\n      dup4\n        /* \"#utility.yul\":12912:12930   */\n      add\n        /* \"#utility.yul\":12905:12953   */\n      mstore\n        /* \"#utility.yul\":12970:13043   */\n      tag_347\n        /* \"#utility.yul\":13038:13042   */\n      dup2\n        /* \"#utility.yul\":13029:13035   */\n      dup8\n        /* \"#utility.yul\":12970:13043   */\n      tag_175\n      jump\t// in\n    tag_347:\n        /* \"#utility.yul\":12962:13043   */\n      swap1\n      pop\n        /* \"#utility.yul\":13053:13123   */\n      tag_348\n        /* \"#utility.yul\":13119:13121   */\n      0x40\n        /* \"#utility.yul\":13108:13117   */\n      dup4\n        /* \"#utility.yul\":13104:13122   */\n      add\n        /* \"#utility.yul\":13095:13101   */\n      dup7\n        /* \"#utility.yul\":13053:13123   */\n      tag_177\n      jump\t// in\n    tag_348:\n        /* \"#utility.yul\":13133:13203   */\n      tag_349\n        /* \"#utility.yul\":13199:13201   */\n      0x60\n        /* \"#utility.yul\":13188:13197   */\n      dup4\n        /* \"#utility.yul\":13184:13202   */\n      add\n        /* \"#utility.yul\":13175:13181   */\n      dup6\n        /* \"#utility.yul\":13133:13203   */\n      tag_171\n      jump\t// in\n    tag_349:\n        /* \"#utility.yul\":13213:13286   */\n      tag_350\n        /* \"#utility.yul\":13281:13284   */\n      0x80\n        /* \"#utility.yul\":13270:13279   */\n      dup4\n        /* \"#utility.yul\":13266:13285   */\n      add\n        /* \"#utility.yul\":13257:13263   */\n      dup5\n        /* \"#utility.yul\":13213:13286   */\n      tag_165\n      jump\t// in\n    tag_350:\n        /* \"#utility.yul\":12560:13293   */\n      swap7\n      swap6\n      pop\n      pop\n      pop\n      pop\n      pop\n      pop\n      jump\t// out\n        /* \"#utility.yul\":13299:13442   */\n    tag_178:\n        /* \"#utility.yul\":13356:13361   */\n      0x00\n        /* \"#utility.yul\":13387:13393   */\n      dup2\n        /* \"#utility.yul\":13381:13394   */\n      mload\n        /* \"#utility.yul\":13372:13394   */\n      swap1\n      pop\n        /* \"#utility.yul\":13403:13436   */\n      tag_352\n        /* \"#utility.yul\":13430:13435   */\n      dup2\n        /* \"#utility.yul\":13403:13436   */\n      tag_142\n      jump\t// in\n    tag_352:\n        /* \"#utility.yul\":13299:13442   */\n      swap3\n      swap2\n      pop\n      pop\n      jump\t// out\n        /* \"#utility.yul\":13448:13799   */\n    tag_101:\n        /* \"#utility.yul\":13518:13524   */\n      0x00\n        /* \"#utility.yul\":13567:13569   */\n      0x20\n        /* \"#utility.yul\":13555:13564   */\n      dup3\n        /* \"#utility.yul\":13546:13553   */\n      dup5\n        /* \"#utility.yul\":13542:13565   */\n      sub\n        /* \"#utility.yul\":13538:13570   */\n      slt\n        /* \"#utility.yul\":13535:13654   */\n      iszero\n      tag_354\n      jumpi\n        /* \"#utility.yul\":13573:13652   */\n      tag_355\n      tag_139\n      jump\t// in\n    tag_355:\n        /* \"#utility.yul\":13535:13654   */\n    tag_354:\n        /* \"#utility.yul\":13693:13694   */\n      0x00\n        /* \"#utility.yul\":13718:13782   */\n      tag_356\n        /* \"#utility.yul\":13774:13781   */\n      dup5\n        /* \"#utility.yul\":13765:13771   */\n      dup3\n        /* \"#utility.yul\":13754:13763   */\n      dup6\n        /* \"#utility.yul\":13750:13772   */\n      add\n        /* \"#utility.yul\":13718:13782   */\n      tag_178\n      jump\t// in\n    tag_356:\n        /* \"#utility.yul\":13708:13782   */\n      swap2\n      pop\n        /* \"#utility.yul\":13664:13792   */\n      pop\n        /* \"#utility.yul\":13448:13799   */\n      swap3\n      swap2\n      pop\n      pop\n      jump\t// out\n        /* \"#utility.yul\":13805:13911   */\n    tag_179:\n        /* \"#utility.yul\":13849:13857   */\n      0x00\n        /* \"#utility.yul\":13898:13903   */\n      dup2\n        /* \"#utility.yul\":13893:13896   */\n      0xe0\n        /* \"#utility.yul\":13889:13904   */\n      shr\n        /* \"#utility.yul\":13868:13904   */\n      swap1\n      pop\n        /* \"#utility.yul\":13805:13911   */\n      swap2\n      swap1\n      pop\n      jump\t// out\n        /* \"#utility.yul\":13917:14100   */\n    tag_107:\n        /* \"#utility.yul\":13952:13955   */\n      0x00\n        /* \"#utility.yul\":13990:13991   */\n      0x03\n        /* \"#utility.yul\":13972:13988   */\n      returndatasize\n        /* \"#utility.yul\":13969:13992   */\n      gt\n        /* \"#utility.yul\":13966:14094   */\n      iszero\n      tag_359\n      jumpi\n        /* \"#utility.yul\":14028:14029   */\n      0x04\n        /* \"#utility.yul\":14025:14026   */\n      0x00\n        /* \"#utility.yul\":14022:14023   */\n      dup1\n        /* \"#utility.yul\":14007:14030   */\n      returndatacopy\n        /* \"#utility.yul\":14050:14084   */\n      tag_360\n        /* \"#utility.yul\":14081:14082   */\n      0x00\n        /* \"#utility.yul\":14075:14083   */\n      mload\n        /* \"#utility.yul\":14050:14084   */\n      tag_179\n      jump\t// in\n    tag_360:\n        /* \"#utility.yul\":14043:14084   */\n      swap1\n      pop\n        /* \"#utility.yul\":13966:14094   */\n    tag_359:\n        /* \"#utility.yul\":13917:14100   */\n      swap1\n      jump\t// out\n        /* \"#utility.yul\":14106:14817   */\n    tag_109:\n        /* \"#utility.yul\":14145:14148   */\n      0x00\n        /* \"#utility.yul\":14183:14187   */\n      0x44\n        /* \"#utility.yul\":14165:14181   */\n      returndatasize\n        /* \"#utility.yul\":14162:14188   */\n      lt\n        /* \"#utility.yul\":14191:14196   */\n      tag_361\n        /* \"#utility.yul\":14159:14198   */\n      jumpi\n        /* \"#utility.yul\":14220:14240   */\n      tag_363\n      tag_138\n      jump\t// in\n    tag_363:\n        /* \"#utility.yul\":14295:14296   */\n      0x04\n        /* \"#utility.yul\":14277:14293   */\n      returndatasize\n        /* \"#utility.yul\":14273:14297   */\n      sub\n        /* \"#utility.yul\":14270:14271   */\n      0x04\n        /* \"#utility.yul\":14264:14268   */\n      dup3\n        /* \"#utility.yul\":14249:14298   */\n      returndatacopy\n        /* \"#utility.yul\":14328:14332   */\n      dup1\n        /* \"#utility.yul\":14322:14333   */\n      mload\n        /* \"#utility.yul\":14427:14443   */\n      returndatasize\n        /* \"#utility.yul\":14420:14424   */\n      0x24\n        /* \"#utility.yul\":14412:14418   */\n      dup3\n        /* \"#utility.yul\":14408:14425   */\n      add\n        /* \"#utility.yul\":14405:14444   */\n      gt\n        /* \"#utility.yul\":14372:14390   */\n      0xffffffffffffffff\n        /* \"#utility.yul\":14364:14370   */\n      dup3\n        /* \"#utility.yul\":14361:14391   */\n      gt\n        /* \"#utility.yul\":14345:14458   */\n      or\n        /* \"#utility.yul\":14342:14488   */\n      iszero\n      tag_364\n      jumpi\n        /* \"#utility.yul\":14473:14478   */\n      pop\n      pop\n      jump(tag_361)\n        /* \"#utility.yul\":14342:14488   */\n    tag_364:\n        /* \"#utility.yul\":14519:14525   */\n      dup1\n        /* \"#utility.yul\":14513:14517   */\n      dup3\n        /* \"#utility.yul\":14509:14526   */\n      add\n        /* \"#utility.yul\":14555:14558   */\n      dup1\n        /* \"#utility.yul\":14549:14559   */\n      mload\n        /* \"#utility.yul\":14582:14600   */\n      0xffffffffffffffff\n        /* \"#utility.yul\":14574:14580   */\n      dup2\n        /* \"#utility.yul\":14571:14601   */\n      gt\n        /* \"#utility.yul\":14568:14611   */\n      iszero\n      tag_365\n      jumpi\n        /* \"#utility.yul\":14604:14609   */\n      pop\n      pop\n      pop\n      pop\n      jump(tag_361)\n        /* \"#utility.yul\":14568:14611   */\n    tag_365:\n        /* \"#utility.yul\":14652:14658   */\n      dup1\n        /* \"#utility.yul\":14645:14649   */\n      0x20\n        /* \"#utility.yul\":14640:14643   */\n      dup4\n        /* \"#utility.yul\":14636:14650   */\n      add\n        /* \"#utility.yul\":14632:14659   */\n      add\n        /* \"#utility.yul\":14711:14712   */\n      0x04\n        /* \"#utility.yul\":14693:14709   */\n      returndatasize\n        /* \"#utility.yul\":14689:14713   */\n      sub\n        /* \"#utility.yul\":14683:14687   */\n      dup6\n        /* \"#utility.yul\":14679:14714   */\n      add\n        /* \"#utility.yul\":14674:14677   */\n      dup2\n        /* \"#utility.yul\":14671:14715   */\n      gt\n        /* \"#utility.yul\":14668:14725   */\n      iszero\n      tag_366\n      jumpi\n        /* \"#utility.yul\":14718:14723   */\n      pop\n      pop\n      pop\n      pop\n      pop\n      jump(tag_361)\n        /* \"#utility.yul\":14668:14725   */\n    tag_366:\n        /* \"#utility.yul\":14735:14792   */\n      tag_367\n        /* \"#utility.yul\":14783:14789   */\n      dup3\n        /* \"#utility.yul\":14777:14781   */\n      0x20\n        /* \"#utility.yul\":14773:14790   */\n      add\n        /* \"#utility.yul\":14765:14771   */\n      dup6\n        /* \"#utility.yul\":14761:14791   */\n      add\n        /* \"#utility.yul\":14755:14759   */\n      dup7\n        /* \"#utility.yul\":14735:14792   */\n      tag_148\n      jump\t// in\n    tag_367:\n        /* \"#utility.yul\":14808:14811   */\n      dup3\n        /* \"#utility.yul\":14801:14811   */\n      swap6\n      pop\n        /* \"#utility.yul\":14149:14817   */\n      pop\n      pop\n      pop\n      pop\n      pop\n        /* \"#utility.yul\":14106:14817   */\n    tag_361:\n      swap1\n      jump\t// out\n        /* \"#utility.yul\":14823:14922   */\n    tag_180:\n        /* \"#utility.yul\":14875:14881   */\n      0x00\n        /* \"#utility.yul\":14909:14914   */\n      dup2\n        /* \"#utility.yul\":14903:14915   */\n      mload\n        /* \"#utility.yul\":14893:14915   */\n      swap1\n      pop\n        /* \"#utility.yul\":14823:14922   */\n      swap2\n      swap1\n      pop\n      jump\t// out\n        /* \"#utility.yul\":14928:15097   */\n    tag_181:\n        /* \"#utility.yul\":15012:15023   */\n      0x00\n        /* \"#utility.yul\":15046:15052   */\n      dup3\n        /* \"#utility.yul\":15041:15044   */\n      dup3\n        /* \"#utility.yul\":15034:15053   */\n      mstore\n        /* \"#utility.yul\":15086:15090   */\n      0x20\n        /* \"#utility.yul\":15081:15084   */\n      dup3\n        /* \"#utility.yul\":15077:15091   */\n      add\n        /* \"#utility.yul\":15062:15091   */\n      swap1\n      pop\n        /* \"#utility.yul\":14928:15097   */\n      swap3\n      swap2\n      pop\n      pop\n      jump\t// out\n        /* \"#utility.yul\":15103:15480   */\n    tag_182:\n        /* \"#utility.yul\":15191:15194   */\n      0x00\n        /* \"#utility.yul\":15219:15258   */\n      tag_371\n        /* \"#utility.yul\":15252:15257   */\n      dup3\n        /* \"#utility.yul\":15219:15258   */\n      tag_180\n      jump\t// in\n    tag_371:\n        /* \"#utility.yul\":15274:15345   */\n      tag_372\n        /* \"#utility.yul\":15338:15344   */\n      dup2\n        /* \"#utility.yul\":15333:15336   */\n      dup6\n        /* \"#utility.yul\":15274:15345   */\n      tag_181\n      jump\t// in\n    tag_372:\n        /* \"#utility.yul\":15267:15345   */\n      swap4\n      pop\n        /* \"#utility.yul\":15354:15419   */\n      tag_373\n        /* \"#utility.yul\":15412:15418   */\n      dup2\n        /* \"#utility.yul\":15407:15410   */\n      dup6\n        /* \"#utility.yul\":15400:15404   */\n      0x20\n        /* \"#utility.yul\":15393:15398   */\n      dup7\n        /* \"#utility.yul\":15389:15405   */\n      add\n        /* \"#utility.yul\":15354:15419   */\n      tag_158\n      jump\t// in\n    tag_373:\n        /* \"#utility.yul\":15444:15473   */\n      tag_374\n        /* \"#utility.yul\":15466:15472   */\n      dup2\n        /* \"#utility.yul\":15444:15473   */\n      tag_146\n      jump\t// in\n    tag_374:\n        /* \"#utility.yul\":15439:15442   */\n      dup5\n        /* \"#utility.yul\":15435:15474   */\n      add\n        /* \"#utility.yul\":15428:15474   */\n      swap2\n      pop\n        /* \"#utility.yul\":15195:15480   */\n      pop\n        /* \"#utility.yul\":15103:15480   */\n      swap3\n      swap2\n      pop\n      pop\n      jump\t// out\n        /* \"#utility.yul\":15486:15799   */\n    tag_112:\n        /* \"#utility.yul\":15599:15603   */\n      0x00\n        /* \"#utility.yul\":15637:15639   */\n      0x20\n        /* \"#utility.yul\":15626:15635   */\n      dup3\n        /* \"#utility.yul\":15622:15640   */\n      add\n        /* \"#utility.yul\":15614:15640   */\n      swap1\n      pop\n        /* \"#utility.yul\":15686:15695   */\n      dup2\n        /* \"#utility.yul\":15680:15684   */\n      dup2\n        /* \"#utility.yul\":15676:15696   */\n      sub\n        /* \"#utility.yul\":15672:15673   */\n      0x00\n        /* \"#utility.yul\":15661:15670   */\n      dup4\n        /* \"#utility.yul\":15657:15674   */\n      add\n        /* \"#utility.yul\":15650:15697   */\n      mstore\n        /* \"#utility.yul\":15714:15792   */\n      tag_376\n        /* \"#utility.yul\":15787:15791   */\n      dup2\n        /* \"#utility.yul\":15778:15784   */\n      dup5\n        /* \"#utility.yul\":15714:15792   */\n      tag_182\n      jump\t// in\n    tag_376:\n        /* \"#utility.yul\":15706:15792   */\n      swap1\n      pop\n        /* \"#utility.yul\":15486:15799   */\n      swap3\n      swap2\n      pop\n      pop\n      jump\t// out\n        /* \"#utility.yul\":15805:15898   */\n    tag_183:\n        /* \"#utility.yul\":15842:15848   */\n      0x00\n        /* \"#utility.yul\":15889:15891   */\n      0x20\n        /* \"#utility.yul\":15884:15886   */\n      0x1f\n        /* \"#utility.yul\":15877:15882   */\n      dup4\n        /* \"#utility.yul\":15873:15887   */\n      add\n        /* \"#utility.yul\":15869:15892   */\n      div\n        /* \"#utility.yul\":15859:15892   */\n      swap1\n      pop\n        /* \"#utility.yul\":15805:15898   */\n      swap2\n      swap1\n      pop\n      jump\t// out\n        /* \"#utility.yul\":15904:16011   */\n    tag_184:\n        /* \"#utility.yul\":15948:15956   */\n      0x00\n        /* \"#utility.yul\":15998:16003   */\n      dup3\n        /* \"#utility.yul\":15992:15996   */\n      dup3\n        /* \"#utility.yul\":15988:16004   */\n      shl\n        /* \"#utility.yul\":15967:16004   */\n      swap1\n      pop\n        /* \"#utility.yul\":15904:16011   */\n      swap3\n      swap2\n      pop\n      pop\n      jump\t// out\n        /* \"#utility.yul\":16017:16410   */\n    tag_185:\n        /* \"#utility.yul\":16086:16092   */\n      0x00\n        /* \"#utility.yul\":16136:16137   */\n      0x08\n        /* \"#utility.yul\":16124:16134   */\n      dup4\n        /* \"#utility.yul\":16120:16138   */\n      mul\n        /* \"#utility.yul\":16159:16256   */\n      tag_380\n        /* \"#utility.yul\":16189:16255   */\n      0xffffffffffffffffffffffffffffffffffffffffffffffffffffffffffffffff\n        /* \"#utility.yul\":16178:16187   */\n      dup3\n        /* \"#utility.yul\":16159:16256   */\n      tag_184\n      jump\t// in\n    tag_380:\n        /* \"#utility.yul\":16277:16316   */\n      tag_381\n        /* \"#utility.yul\":16307:16315   */\n      dup7\n        /* \"#utility.yul\":16296:16305   */\n      dup4\n        /* \"#utility.yul\":16277:16316   */\n      tag_184\n      jump\t// in\n    tag_381:\n        /* \"#utility.yul\":16265:16316   */\n      swap6\n      pop\n        /* \"#utility.yul\":16349:16353   */\n      dup1\n        /* \"#utility.yul\":16345:16354   */\n      not\n        /* \"#utility.yul\":16338:16343   */\n      dup5\n        /* \"#utility.yul\":16334:16355   */\n      and\n        /* \"#utility.yul\":16325:16355   */\n      swap4\n      pop\n        /* \"#utility.yul\":16398:16402   */\n      dup1\n        /* \"#utility.yul\":16388:16396   */\n      dup7\n        /* \"#utility.yul\":16384:16403   */\n      and\n        /* \"#utility.yul\":16377:16382   */\n      dup5\n        /* \"#utility.yul\":16374:16404   */\n      or\n        /* \"#utility.yul\":16364:16404   */\n      swap3\n      pop\n        /* \"#utility.yul\":16093:16410   */\n      pop\n      pop\n        /* \"#utility.yul\":16017:16410   */\n      swap4\n      swap3\n      pop\n      pop\n      pop\n      jump\t// out\n        /* \"#utility.yul\":16416:16476   */\n    tag_186:\n        /* \"#utility.yul\":16444:16447   */\n      0x00\n        /* \"#utility.yul\":16465:16470   */\n      dup2\n        /* \"#utility.yul\":16458:16470   */\n      swap1\n      pop\n        /* \"#utility.yul\":16416:16476   */\n      swap2\n      swap1\n      pop\n      jump\t// out\n        /* \"#utility.yul\":16482:16624   */\n    tag_187:\n        /* \"#utility.yul\":16532:16541   */\n      0x00\n        /* \"#utility.yul\":16565:16618   */\n      tag_384\n        /* \"#utility.yul\":16583:16617   */\n      tag_385\n        /* \"#utility.yul\":16592:16616   */\n      tag_386\n        /* \"#utility.yul\":16610:16615   */\n      dup5\n        /* \"#utility.yul\":16592:16616   */\n      tag_154\n      jump\t// in\n    tag_386:\n        /* \"#utility.yul\":16583:16617   */\n      tag_186\n      jump\t// in\n    tag_385:\n        /* \"#utility.yul\":16565:16618   */\n      tag_154\n      jump\t// in\n    tag_384:\n        /* \"#utility.yul\":16552:16618   */\n      swap1\n      pop\n        /* \"#utility.yul\":16482:16624   */\n      swap2\n      swap1\n      pop\n      jump\t// out\n        /* \"#utility.yul\":16630:16705   */\n    tag_188:\n        /* \"#utility.yul\":16673:16676   */\n      0x00\n        /* \"#utility.yul\":16694:16699   */\n      dup2\n        /* \"#utility.yul\":16687:16699   */\n      swap1\n      pop\n        /* \"#utility.yul\":16630:16705   */\n      swap2\n      swap1\n      pop\n      jump\t// out\n        /* \"#utility.yul\":16711:16980   */\n    tag_189:\n        /* \"#utility.yul\":16821:16860   */\n      tag_389\n        /* \"#utility.yul\":16852:16859   */\n      dup4\n        /* \"#utility.yul\":16821:16860   */\n      tag_187\n      jump\t// in\n    tag_389:\n        /* \"#utility.yul\":16882:16973   */\n      tag_390\n        /* \"#utility.yul\":16931:16972   */\n      tag_391\n        /* \"#utility.yul\":16955:16971   */\n      dup3\n        /* \"#utility.yul\":16931:16972   */\n      tag_188\n      jump\t// in\n    tag_391:\n        /* \"#utility.yul\":16923:16929   */\n      dup5\n        /* \"#utility.yul\":16916:16920   */\n      dup5\n        /* \"#utility.yul\":16910:16921   */\n      sload\n        /* \"#utility.yul\":16882:16973   */\n      tag_185\n      jump\t// in\n    tag_390:\n        /* \"#utility.yul\":16876:16880   */\n      dup3\n        /* \"#utility.yul\":16869:16974   */\n      sstore\n        /* \"#utility.yul\":16787:16980   */\n      pop\n        /* \"#utility.yul\":16711:16980   */\n      pop\n      pop\n      pop\n      jump\t// out\n        /* \"#utility.yul\":16986:17059   */\n    tag_190:\n        /* \"#utility.yul\":17031:17034   */\n      0x00\n        /* \"#utility.yul\":16986:17059   */\n      swap1\n      jump\t// out\n        /* \"#utility.yul\":17065:17254   */\n    tag_191:\n        /* \"#utility.yul\":17142:17174   */\n      tag_394\n      tag_190\n      jump\t// in\n    tag_394:\n        /* \"#utility.yul\":17183:17248   */\n      tag_395\n        /* \"#utility.yul\":17241:17247   */\n      dup2\n        /* \"#utility.yul\":17233:17239   */\n      dup5\n        /* \"#utility.yul\":17227:17231   */\n      dup5\n        /* \"#utility.yul\":17183:17248   */\n      tag_189\n      jump\t// in\n    tag_395:\n        /* \"#utility.yul\":17118:17254   */\n      pop\n        /* \"#utility.yul\":17065:17254   */\n      pop\n      pop\n      jump\t// out\n        /* \"#utility.yul\":17260:17446   */\n    tag_192:\n        /* \"#utility.yul\":17320:17440   */\n    tag_397:\n        /* \"#utility.yul\":17337:17340   */\n      dup2\n        /* \"#utility.yul\":17330:17335   */\n      dup2\n        /* \"#utility.yul\":17327:17341   */\n      lt\n        /* \"#utility.yul\":17320:17440   */\n      iszero\n      tag_399\n      jumpi\n        /* \"#utility.yul\":17391:17430   */\n      tag_400\n        /* \"#utility.yul\":17428:17429   */\n      0x00\n        /* \"#utility.yul\":17421:17426   */\n      dup3\n        /* \"#utility.yul\":17391:17430   */\n      tag_191\n      jump\t// in\n    tag_400:\n        /* \"#utility.yul\":17364:17365   */\n      0x01\n        /* \"#utility.yul\":17357:17362   */\n      dup2\n        /* \"#utility.yul\":17353:17366   */\n      add\n        /* \"#utility.yul\":17344:17366   */\n      swap1\n      pop\n        /* \"#utility.yul\":17320:17440   */\n      jump(tag_397)\n    tag_399:\n        /* \"#utility.yul\":17260:17446   */\n      pop\n      pop\n      jump\t// out\n        /* \"#utility.yul\":17452:17993   */\n    tag_193:\n        /* \"#utility.yul\":17552:17554   */\n      0x1f\n        /* \"#utility.yul\":17547:17550   */\n      dup3\n        /* \"#utility.yul\":17544:17555   */\n      gt\n        /* \"#utility.yul\":17541:17986   */\n      iszero\n      tag_402\n      jumpi\n        /* \"#utility.yul\":17586:17623   */\n      tag_403\n        /* \"#utility.yul\":17617:17622   */\n      dup2\n        /* \"#utility.yul\":17586:17623   */\n      tag_174\n      jump\t// in\n    tag_403:\n        /* \"#utility.yul\":17669:17698   */\n      tag_404\n        /* \"#utility.yul\":17687:17697   */\n      dup5\n        /* \"#utility.yul\":17669:17698   */\n      tag_183\n      jump\t// in\n    tag_404:\n        /* \"#utility.yul\":17659:17667   */\n      dup2\n        /* \"#utility.yul\":17655:17699   */\n      add\n        /* \"#utility.yul\":17852:17854   */\n      0x20\n        /* \"#utility.yul\":17840:17850   */\n      dup6\n        /* \"#utility.yul\":17837:17855   */\n      lt\n        /* \"#utility.yul\":17834:17883   */\n      iszero\n      tag_405\n      jumpi\n        /* \"#utility.yul\":17873:17881   */\n      dup2\n        /* \"#utility.yul\":17858:17881   */\n      swap1\n      pop\n        /* \"#utility.yul\":17834:17883   */\n    tag_405:\n        /* \"#utility.yul\":17896:17976   */\n      tag_406\n        /* \"#utility.yul\":17952:17974   */\n      tag_407\n        /* \"#utility.yul\":17970:17973   */\n      dup6\n        /* \"#utility.yul\":17952:17974   */\n      tag_183\n      jump\t// in\n    tag_407:\n        /* \"#utility.yul\":17942:17950   */\n      dup4\n        /* \"#utility.yul\":17938:17975   */\n      add\n        /* \"#utility.yul\":17925:17936   */\n      dup3\n        /* \"#utility.yul\":17896:17976   */\n      tag_192\n      jump\t// in\n    tag_406:\n        /* \"#utility.yul\":17556:17986   */\n      pop\n      pop\n        /* \"#utility.yul\":17541:17986   */\n    tag_402:\n        /* \"#utility.yul\":17452:17993   */\n      pop\n      pop\n      pop\n      jump\t// out\n        /* \"#utility.yul\":17999:18116   */\n    tag_194:\n        /* \"#utility.yul\":18053:18061   */\n      0x00\n        /* \"#utility.yul\":18103:18108   */\n      dup3\n        /* \"#utility.yul\":18097:18101   */\n      dup3\n        /* \"#utility.yul\":18093:18109   */\n      shr\n        /* \"#utility.yul\":18072:18109   */\n      swap1\n      pop\n        /* \"#utility.yul\":17999:18116   */\n      swap3\n      swap2\n      pop\n      pop\n      jump\t// out\n        /* \"#utility.yul\":18122:18291   */\n    tag_195:\n        /* \"#utility.yul\":18166:18172   */\n      0x00\n        /* \"#utility.yul\":18199:18250   */\n      tag_410\n        /* \"#utility.yul\":18247:18248   */\n      0x00\n        /* \"#utility.yul\":18243:18249   */\n      not\n        /* \"#utility.yul\":18235:18240   */\n      dup5\n        /* \"#utility.yul\":18232:18233   */\n      0x08\n        /* \"#utility.yul\":18228:18241   */\n      mul\n        /* \"#utility.yul\":18199:18250   */\n      tag_194\n      jump\t// in\n    tag_410:\n        /* \"#utility.yul\":18195:18251   */\n      not\n        /* \"#utility.yul\":18280:18284   */\n      dup1\n        /* \"#utility.yul\":18274:18278   */\n      dup4\n        /* \"#utility.yul\":18270:18285   */\n      and\n        /* \"#utility.yul\":18260:18285   */\n      swap2\n      pop\n        /* \"#utility.yul\":18173:18291   */\n      pop\n        /* \"#utility.yul\":18122:18291   */\n      swap3\n      swap2\n      pop\n      pop\n      jump\t// out\n        /* \"#utility.yul\":18296:18591   */\n    tag_196:\n        /* \"#utility.yul\":18372:18376   */\n      0x00\n        /* \"#utility.yul\":18518:18547   */\n      tag_412\n        /* \"#utility.yul\":18543:18546   */\n      dup4\n        /* \"#utility.yul\":18537:18541   */\n      dup4\n        /* \"#utility.yul\":18518:18547   */\n      tag_195\n      jump\t// in\n    tag_412:\n        /* \"#utility.yul\":18510:18547   */\n      swap2\n      pop\n        /* \"#utility.yul\":18580:18583   */\n      dup3\n        /* \"#utility.yul\":18577:18578   */\n      0x02\n        /* \"#utility.yul\":18573:18584   */\n      mul\n        /* \"#utility.yul\":18567:18571   */\n      dup3\n        /* \"#utility.yul\":18564:18585   */\n      or\n        /* \"#utility.yul\":18556:18585   */\n      swap1\n      pop\n        /* \"#utility.yul\":18296:18591   */\n      swap3\n      swap2\n      pop\n      pop\n      jump\t// out\n        /* \"#utility.yul\":18596:19986   */\n    tag_127:\n        /* \"#utility.yul\":18711:18747   */\n      tag_414\n        /* \"#utility.yul\":18743:18746   */\n      dup3\n        /* \"#utility.yul\":18711:18747   */\n      tag_156\n      jump\t// in\n    tag_414:\n        /* \"#utility.yul\":18812:18830   */\n      0xffffffffffffffff\n        /* \"#utility.yul\":18804:18810   */\n      dup2\n        /* \"#utility.yul\":18801:18831   */\n      gt\n        /* \"#utility.yul\":18798:18854   */\n      iszero\n      tag_415\n      jumpi\n        /* \"#utility.yul\":18834:18852   */\n      tag_416\n      tag_147\n      jump\t// in\n    tag_416:\n        /* \"#utility.yul\":18798:18854   */\n    tag_415:\n        /* \"#utility.yul\":18878:18916   */\n      tag_417\n        /* \"#utility.yul\":18910:18914   */\n      dup3\n        /* \"#utility.yul\":18904:18915   */\n      sload\n        /* \"#utility.yul\":18878:18916   */\n      tag_81\n      jump\t// in\n    tag_417:\n        /* \"#utility.yul\":18963:19029   */\n      tag_418\n        /* \"#utility.yul\":19022:19028   */\n      dup3\n        /* \"#utility.yul\":19014:19020   */\n      dup3\n        /* \"#utility.yul\":19008:19012   */\n      dup6\n        /* \"#utility.yul\":18963:19029   */\n      tag_193\n      jump\t// in\n    tag_418:\n        /* \"#utility.yul\":19056:19057   */\n      0x00\n        /* \"#utility.yul\":19080:19084   */\n      0x20\n        /* \"#utility.yul\":19067:19084   */\n      swap1\n      pop\n        /* \"#utility.yul\":19112:19114   */\n      0x1f\n        /* \"#utility.yul\":19104:19110   */\n      dup4\n        /* \"#utility.yul\":19101:19115   */\n      gt\n        /* \"#utility.yul\":19129:19130   */\n      0x01\n        /* \"#utility.yul\":19124:19741   */\n      dup2\n      eq\n      tag_420\n      jumpi\n        /* \"#utility.yul\":19785:19786   */\n      0x00\n        /* \"#utility.yul\":19802:19808   */\n      dup5\n        /* \"#utility.yul\":19799:19876   */\n      iszero\n      tag_421\n      jumpi\n        /* \"#utility.yul\":19851:19860   */\n      dup3\n        /* \"#utility.yul\":19846:19849   */\n      dup8\n        /* \"#utility.yul\":19842:19861   */\n      add\n        /* \"#utility.yul\":19836:19862   */\n      mload\n        /* \"#utility.yul\":19827:19862   */\n      swap1\n      pop\n        /* \"#utility.yul\":19799:19876   */\n    tag_421:\n        /* \"#utility.yul\":19902:19969   */\n      tag_422\n        /* \"#utility.yul\":19962:19968   */\n      dup6\n        /* \"#utility.yul\":19955:19960   */\n      dup3\n        /* \"#utility.yul\":19902:19969   */\n      tag_196\n      jump\t// in\n    tag_422:\n        /* \"#utility.yul\":19896:19900   */\n      dup7\n        /* \"#utility.yul\":19889:19970   */\n      sstore\n        /* \"#utility.yul\":19758:19980   */\n      pop\n        /* \"#utility.yul\":19094:19980   */\n      jump(tag_419)\n        /* \"#utility.yul\":19124:19741   */\n    tag_420:\n        /* \"#utility.yul\":19176:19180   */\n      0x1f\n        /* \"#utility.yul\":19172:19181   */\n      not\n        /* \"#utility.yul\":19164:19170   */\n      dup5\n        /* \"#utility.yul\":19160:19182   */\n      and\n        /* \"#utility.yul\":19210:19246   */\n      tag_423\n        /* \"#utility.yul\":19241:19245   */\n      dup7\n        /* \"#utility.yul\":19210:19246   */\n      tag_174\n      jump\t// in\n    tag_423:\n        /* \"#utility.yul\":19268:19269   */\n      0x00\n        /* \"#utility.yul\":19282:19490   */\n    tag_424:\n        /* \"#utility.yul\":19296:19303   */\n      dup3\n        /* \"#utility.yul\":19293:19294   */\n      dup2\n        /* \"#utility.yul\":19290:19304   */\n      lt\n        /* \"#utility.yul\":19282:19490   */\n      iszero\n      tag_426\n      jumpi\n        /* \"#utility.yul\":19375:19384   */\n      dup5\n        /* \"#utility.yul\":19370:19373   */\n      dup10\n        /* \"#utility.yul\":19366:19385   */\n      add\n        /* \"#utility.yul\":19360:19386   */\n      mload\n        /* \"#utility.yul\":19352:19358   */\n      dup3\n        /* \"#utility.yul\":19345:19387   */\n      sstore\n        /* \"#utility.yul\":19426:19427   */\n      0x01\n        /* \"#utility.yul\":19418:19424   */\n      dup3\n        /* \"#utility.yul\":19414:19428   */\n      add\n        /* \"#utility.yul\":19404:19428   */\n      swap2\n      pop\n        /* \"#utility.yul\":19473:19475   */\n      0x20\n        /* \"#utility.yul\":19462:19471   */\n      dup6\n        /* \"#utility.yul\":19458:19476   */\n      add\n        /* \"#utility.yul\":19445:19476   */\n      swap5\n      pop\n        /* \"#utility.yul\":19319:19323   */\n      0x20\n        /* \"#utility.yul\":19316:19317   */\n      dup2\n        /* \"#utility.yul\":19312:19324   */\n      add\n        /* \"#utility.yul\":19307:19324   */\n      swap1\n      pop\n        /* \"#utility.yul\":19282:19490   */\n      jump(tag_424)\n    tag_426:\n        /* \"#utility.yul\":19518:19524   */\n      dup7\n        /* \"#utility.yul\":19509:19516   */\n      dup4\n        /* \"#utility.yul\":19506:19525   */\n      lt\n        /* \"#utility.yul\":19503:19682   */\n      iszero\n      tag_427\n      jumpi\n        /* \"#utility.yul\":19576:19585   */\n      dup5\n        /* \"#utility.yul\":19571:19574   */\n      dup10\n        /* \"#utility.yul\":19567:19586   */\n      add\n        /* \"#utility.yul\":19561:19587   */\n      mload\n        /* \"#utility.yul\":19619:19667   */\n      tag_428\n        /* \"#utility.yul\":19661:19665   */\n      0x1f\n        /* \"#utility.yul\":19653:19659   */\n      dup10\n        /* \"#utility.yul\":19649:19666   */\n      and\n        /* \"#utility.yul\":19638:19647   */\n      dup3\n        /* \"#utility.yul\":19619:19667   */\n      tag_195\n      jump\t// in\n    tag_428:\n        /* \"#utility.yul\":19611:19617   */\n      dup4\n        /* \"#utility.yul\":19604:19668   */\n      sstore\n        /* \"#utility.yul\":19526:19682   */\n      pop\n        /* \"#utility.yul\":19503:19682   */\n    tag_427:\n        /* \"#utility.yul\":19728:19729   */\n      0x01\n        /* \"#utility.yul\":19724:19725   */\n      0x02\n        /* \"#utility.yul\":19716:19722   */\n      dup9\n        /* \"#utility.yul\":19712:19726   */\n      mul\n        /* \"#utility.yul\":19708:19730   */\n      add\n        /* \"#utility.yul\":19702:19706   */\n      dup9\n        /* \"#utility.yul\":19695:19731   */\n      sstore\n        /* \"#utility.yul\":19131:19741   */\n      pop\n      pop\n      pop\n        /* \"#utility.yul\":19094:19980   */\n    tag_419:\n      pop\n        /* \"#utility.yul\":18686:19986   */\n      pop\n      pop\n      pop\n        /* \"#utility.yul\":18596:19986   */\n      pop\n      pop\n      jump\t// out\n        /* \"#utility.yul\":19992:20486   */\n    tag_135:\n        /* \"#utility.yul\":20143:20147   */\n      0x00\n        /* \"#utility.yul\":20181:20183   */\n      0x40\n        /* \"#utility.yul\":20170:20179   */\n      dup3\n        /* \"#utility.yul\":20166:20184   */\n      add\n        /* \"#utility.yul\":20158:20184   */\n      swap1\n      pop\n        /* \"#utility.yul\":20230:20239   */\n      dup2\n        /* \"#utility.yul\":20224:20228   */\n      dup2\n        /* \"#utility.yul\":20220:20240   */\n      sub\n        /* \"#utility.yul\":20216:20217   */\n      0x00\n        /* \"#utility.yul\":20205:20214   */\n      dup4\n        /* \"#utility.yul\":20201:20218   */\n      add\n        /* \"#utility.yul\":20194:20241   */\n      mstore\n        /* \"#utility.yul\":20258:20331   */\n      tag_430\n        /* \"#utility.yul\":20326:20330   */\n      dup2\n        /* \"#utility.yul\":20317:20323   */\n      dup6\n        /* \"#utility.yul\":20258:20331   */\n      tag_175\n      jump\t// in\n    tag_430:\n        /* \"#utility.yul\":20250:20331   */\n      swap1\n      pop\n        /* \"#utility.yul\":20378:20387   */\n      dup2\n        /* \"#utility.yul\":20372:20376   */\n      dup2\n        /* \"#utility.yul\":20368:20388   */\n      sub\n        /* \"#utility.yul\":20363:20365   */\n      0x20\n        /* \"#utility.yul\":20352:20361   */\n      dup4\n        /* \"#utility.yul\":20348:20366   */\n      add\n        /* \"#utility.yul\":20341:20389   */\n      mstore\n        /* \"#utility.yul\":20406:20479   */\n      tag_431\n        /* \"#utility.yul\":20474:20478   */\n      dup2\n        /* \"#utility.yul\":20465:20471   */\n      dup5\n        /* \"#utility.yul\":20406:20479   */\n      tag_175\n      jump\t// in\n    tag_431:\n        /* \"#utility.yul\":20398:20479   */\n      swap1\n      pop\n        /* \"#utility.yul\":19992:20486   */\n      swap4\n      swap3\n      pop\n      pop\n      pop\n      jump\t// out\n\n    auxdata: 0xa264697066735822122035fa586e7446cef69b92efa238111a1fcc78ffc843c753ad8b22e6fb1a86a51964736f6c63430008130033\n}\n",
				"bytecode": {
					"linkReferences": {},
					"object": "60a06040523480156200001157600080fd5b50604051620015ee380380620015ee8339818101604052810190620000379190620000de565b808073ffffffffffffffffffffffffffffffffffffffff1660808173ffffffffffffffffffffffffffffffffffffffff1681525050505062000110565b600080fd5b600073ffffffffffffffffffffffffffffffffffffffff82169050919050565b6000620000a68262000079565b9050919050565b620000b88162000099565b8114620000c457600080fd5b50565b600081519050620000d881620000ad565b92915050565b600060208284031215620000f757620000f662000074565b5b60006200010784828501620000c7565b91505092915050565b6080516114bb62000133600039600081816102e5015261050001526114bb6000f3fe608060405234801561001057600080fd5b50600436106100f55760003560e01c806348802b9211610097578063b1e2174911610066578063b1e2174914610253578063c41c7dce14610271578063f5c1279b1461028d578063f68016b7146102ab576100f5565b806348802b92146101c85780634b0795a8146101e65780636e04ff0d146102045780636e74336b14610235576100f5565b8063338cdca1116100d3578063338cdca1146101525780633944ea3a1461017057806343cd3d861461018e5780634585e33b146101ac576100f5565b806309c1ba2e146100fa5780630ca76175146101185780632552317c14610134575b600080fd5b6101026102c9565b60405161010f9190610924565b60405180910390f35b610132600480360381019061012d9190610acf565b6102e3565b005b61013c6103a5565b6040516101499190610b73565b60405180910390f35b61015a6103ab565b6040516101679190610c0d565b60405180910390f35b610178610439565b6040516101859190610c0d565b60405180910390f35b6101966104c7565b6040516101a39190610b73565b60405180910390f35b6101c660048036038101906101c19190610c8f565b6104cd565b005b6101d06106f0565b6040516101dd9190610b73565b60405180910390f35b6101ee6106f6565b6040516101fb9190610c0d565b60405180910390f35b61021e60048036038101906102199190610c8f565b610784565b60405161022c929190610cf7565b60405180910390f35b61023d6107b6565b60405161024a9190610d36565b60405180910390f35b61025b6107bc565b6040516102689190610d36565b60405180910390f35b61028b60048036038101906102869190610db9565b6107c2565b005b610295610829565b6040516102a29190610b73565b60405180910390f35b6102b361082f565b6040516102c09190610e4b565b60405180910390f35b600260009054906101000a900467ffffffffffffffff1681565b7f000000000000000000000000000000000000000000000000000000000000000073ffffffffffffffffffffffffffffffffffffffff163373ffffffffffffffffffffffffffffffffffffffff1614610368576040517fc6829f8300000000000000000000000000000000000000000000000000000000815260040160405180910390fd5b610373838383610845565b827f85e1543bf2f84fe80c6badbce3648c8539ad1df4d2b3d822938ca0538be727e660405160405180910390a2505050565b60005481565b600180546103b890610e95565b80601f01602080910402602001604051908101604052809291908181526020018280546103e490610e95565b80156104315780601f1061040657610100808354040283529160200191610431565b820191906000526020600020905b81548152906001019060200180831161041457829003601f168201915b505050505081565b6005805461044690610e95565b80601f016020809104026020016040519081016040528092919081815260200182805461047290610e95565b80156104bf5780601f10610494576101008083540402835291602001916104bf565b820191906000526020600020905b8154815290600101906020018083116104a257829003601f168201915b505050505081565b60095481565b60008054436104dc9190610ef5565b11156106ec574360008190555060016007546104f89190610f29565b6007819055507f000000000000000000000000000000000000000000000000000000000000000073ffffffffffffffffffffffffffffffffffffffff1663461d2762600260009054906101000a900467ffffffffffffffff16600180600260089054906101000a900463ffffffff166003546040518663ffffffff1660e01b815260040161058a959493929190611013565b6020604051808303816000875af19250505080156105c657506040513d601f19601f820116820180604052508101906105c39190611082565b60015b6106a0576105d26110bc565b806308c379a00361062e57506105e66110de565b806105f15750610630565b7f2ba61e3733e7ac99181c22307780f651ec8fd92fe661a84dfbe711710b2dc36c8160405161062091906111c3565b60405180910390a15061069b565b505b3d806000811461065c576040519150601f19603f3d011682016040523d82523d6000602084013e610661565b606091505b507f9c4bfa18304482256875c29fabb1a44a5ecd325f214ea17bab8f31e869faf4c8816040516106919190610c0d565b60405180910390a1505b6106eb565b8060048190555060016008546106b69190610f29565b600881905550807f1131472297a800fee664d1d89cfa8f7676ff07189ecc53f80bbb5f4969099db860405160405180910390a2505b5b5050565b60085481565b6006805461070390610e95565b80601f016020809104026020016040519081016040528092919081815260200182805461072f90610e95565b801561077c5780601f106107515761010080835404028352916020019161077c565b820191906000526020600020905b81548152906001019060200180831161075f57829003601f168201915b505050505081565b6000606060008054436107979190610ef5565b1191508160405180602001604052806000815250915091509250929050565b60035481565b60045481565b83600190816107d1919061137c565b5082600260006101000a81548167ffffffffffffffff021916908367ffffffffffffffff16021790555081600260086101000a81548163ffffffff021916908363ffffffff1602179055508060038190555050505050565b60075481565b600260089054906101000a900463ffffffff1681565b826004541461088b57826040517fd068bf5b0000000000000000000000000000000000000000000000000000000081526004016108829190610d36565b60405180910390fd5b816005908161089a919061137c565b5080600690816108aa919061137c565b5060016009546108ba9190610f29565b600981905550827f7873807bf6ddc50401cd3d29bbe0decee23fd4d68d273f4b5eb83cded4d2f172600560066040516108f492919061144e565b60405180910390a2505050565b600067ffffffffffffffff82169050919050565b61091e81610901565b82525050565b60006020820190506109396000830184610915565b92915050565b6000604051905090565b600080fd5b600080fd5b6000819050919050565b61096681610953565b811461097157600080fd5b50565b6000813590506109838161095d565b92915050565b600080fd5b600080fd5b6000601f19601f8301169050919050565b7f4e487b7100000000000000000000000000000000000000000000000000000000600052604160045260246000fd5b6109dc82610993565b810181811067ffffffffffffffff821117156109fb576109fa6109a4565b5b80604052505050565b6000610a0e61093f565b9050610a1a82826109d3565b919050565b600067ffffffffffffffff821115610a3a57610a396109a4565b5b610a4382610993565b9050602081019050919050565b82818337600083830152505050565b6000610a72610a6d84610a1f565b610a04565b905082815260208101848484011115610a8e57610a8d61098e565b5b610a99848285610a50565b509392505050565b600082601f830112610ab657610ab5610989565b5b8135610ac6848260208601610a5f565b91505092915050565b600080600060608486031215610ae857610ae7610949565b5b6000610af686828701610974565b935050602084013567ffffffffffffffff811115610b1757610b1661094e565b5b610b2386828701610aa1565b925050604084013567ffffffffffffffff811115610b4457610b4361094e565b5b610b5086828701610aa1565b9150509250925092565b6000819050919050565b610b6d81610b5a565b82525050565b6000602082019050610b886000830184610b64565b92915050565b600081519050919050565b600082825260208201905092915050565b60005b83811015610bc8578082015181840152602081019050610bad565b60008484015250505050565b6000610bdf82610b8e565b610be98185610b99565b9350610bf9818560208601610baa565b610c0281610993565b840191505092915050565b60006020820190508181036000830152610c278184610bd4565b905092915050565b600080fd5b600080fd5b60008083601f840112610c4f57610c4e610989565b5b8235905067ffffffffffffffff811115610c6c57610c6b610c2f565b5b602083019150836001820283011115610c8857610c87610c34565b5b9250929050565b60008060208385031215610ca657610ca5610949565b5b600083013567ffffffffffffffff811115610cc457610cc361094e565b5b610cd085828601610c39565b92509250509250929050565b60008115159050919050565b610cf181610cdc565b82525050565b6000604082019050610d0c6000830185610ce8565b8181036020830152610d1e8184610bd4565b90509392505050565b610d3081610953565b82525050565b6000602082019050610d4b6000830184610d27565b92915050565b610d5a81610901565b8114610d6557600080fd5b50565b600081359050610d7781610d51565b92915050565b600063ffffffff82169050919050565b610d9681610d7d565b8114610da157600080fd5b50565b600081359050610db381610d8d565b92915050565b60008060008060808587031215610dd357610dd2610949565b5b600085013567ffffffffffffffff811115610df157610df061094e565b5b610dfd87828801610aa1565b9450506020610e0e87828801610d68565b9350506040610e1f87828801610da4565b9250506060610e3087828801610974565b91505092959194509250565b610e4581610d7d565b82525050565b6000602082019050610e606000830184610e3c565b92915050565b7f4e487b7100000000000000000000000000000000000000000000000000000000600052602260045260246000fd5b60006002820490506001821680610ead57607f821691505b602082108103610ec057610ebf610e66565b5b50919050565b7f4e487b7100000000000000000000000000000000000000000000000000000000600052601160045260246000fd5b6000610f0082610b5a565b9150610f0b83610b5a565b9250828203905081811115610f2357610f22610ec6565b5b92915050565b6000610f3482610b5a565b9150610f3f83610b5a565b9250828201905080821115610f5757610f56610ec6565b5b92915050565b60008190508160005260206000209050919050565b60008154610f7f81610e95565b610f898186610b99565b94506001821660008114610fa45760018114610fba57610fed565b60ff198316865281151560200286019350610fed565b610fc385610f5d565b60005b83811015610fe557815481890152600182019150602081019050610fc6565b808801955050505b50505092915050565b600061ffff82169050919050565b61100d81610ff6565b82525050565b600060a0820190506110286000830188610915565b818103602083015261103a8187610f72565b90506110496040830186611004565b6110566060830185610e3c565b6110636080830184610d27565b9695505050505050565b60008151905061107c8161095d565b92915050565b60006020828403121561109857611097610949565b5b60006110a68482850161106d565b91505092915050565b60008160e01c9050919050565b600060033d11156110db5760046000803e6110d86000516110af565b90505b90565b600060443d1061116b576110f061093f565b60043d036004823e80513d602482011167ffffffffffffffff8211171561111857505061116b565b808201805167ffffffffffffffff811115611136575050505061116b565b80602083010160043d03850181111561115357505050505061116b565b611162826020018501866109d3565b82955050505050505b90565b600081519050919050565b600082825260208201905092915050565b60006111958261116e565b61119f8185611179565b93506111af818560208601610baa565b6111b881610993565b840191505092915050565b600060208201905081810360008301526111dd818461118a565b905092915050565b60006020601f8301049050919050565b600082821b905092915050565b6000600883026112327fffffffffffffffffffffffffffffffffffffffffffffffffffffffffffffffff826111f5565b61123c86836111f5565b95508019841693508086168417925050509392505050565b6000819050919050565b600061127961127461126f84610b5a565b611254565b610b5a565b9050919050565b6000819050919050565b6112938361125e565b6112a761129f82611280565b848454611202565b825550505050565b600090565b6112bc6112af565b6112c781848461128a565b505050565b5b818110156112eb576112e06000826112b4565b6001810190506112cd565b5050565b601f8211156113305761130181610f5d565b61130a846111e5565b81016020851015611319578190505b61132d611325856111e5565b8301826112cc565b50505b505050565b600082821c905092915050565b600061135360001984600802611335565b1980831691505092915050565b600061136c8383611342565b9150826002028217905092915050565b61138582610b8e565b67ffffffffffffffff81111561139e5761139d6109a4565b5b6113a88254610e95565b6113b38282856112ef565b600060209050601f8311600181146113e657600084156113d4578287015190505b6113de8582611360565b865550611446565b601f1984166113f486610f5d565b60005b8281101561141c578489015182556001820191506020850194506020810190506113f7565b868310156114395784890151611435601f891682611342565b8355505b6001600288020188555050505b505050505050565b600060408201905081810360008301526114688185610f72565b9050818103602083015261147c8184610f72565b9050939250505056fea264697066735822122035fa586e7446cef69b92efa238111a1fcc78ffc843c753ad8b22e6fb1a86a51964736f6c63430008130033",
					"opcodes": "PUSH1 0xA0 PUSH1 0x40 MSTORE CALLVALUE DUP1 ISZERO PUSH3 0x11 JUMPI PUSH1 0x0 DUP1 REVERT JUMPDEST POP PUSH1 0x40 MLOAD PUSH3 0x15EE CODESIZE SUB DUP1 PUSH3 0x15EE DUP4 CODECOPY DUP2 DUP2 ADD PUSH1 0x40 MSTORE DUP2 ADD SWAP1 PUSH3 0x37 SWAP2 SWAP1 PUSH3 0xDE JUMP JUMPDEST DUP1 DUP1 PUSH20 0xFFFFFFFFFFFFFFFFFFFFFFFFFFFFFFFFFFFFFFFF AND PUSH1 0x80 DUP2 PUSH20 0xFFFFFFFFFFFFFFFFFFFFFFFFFFFFFFFFFFFFFFFF AND DUP2 MSTORE POP POP POP POP PUSH3 0x110 JUMP JUMPDEST PUSH1 0x0 DUP1 REVERT JUMPDEST PUSH1 0x0 PUSH20 0xFFFFFFFFFFFFFFFFFFFFFFFFFFFFFFFFFFFFFFFF DUP3 AND SWAP1 POP SWAP2 SWAP1 POP JUMP JUMPDEST PUSH1 0x0 PUSH3 0xA6 DUP3 PUSH3 0x79 JUMP JUMPDEST SWAP1 POP SWAP2 SWAP1 POP JUMP JUMPDEST PUSH3 0xB8 DUP2 PUSH3 0x99 JUMP JUMPDEST DUP2 EQ PUSH3 0xC4 JUMPI PUSH1 0x0 DUP1 REVERT JUMPDEST POP JUMP JUMPDEST PUSH1 0x0 DUP2 MLOAD SWAP1 POP PUSH3 0xD8 DUP2 PUSH3 0xAD JUMP JUMPDEST SWAP3 SWAP2 POP POP JUMP JUMPDEST PUSH1 0x0 PUSH1 0x20 DUP3 DUP5 SUB SLT ISZERO PUSH3 0xF7 JUMPI PUSH3 0xF6 PUSH3 0x74 JUMP JUMPDEST JUMPDEST PUSH1 0x0 PUSH3 0x107 DUP5 DUP3 DUP6 ADD PUSH3 0xC7 JUMP JUMPDEST SWAP2 POP POP SWAP3 SWAP2 POP POP JUMP JUMPDEST PUSH1 0x80 MLOAD PUSH2 0x14BB PUSH3 0x133 PUSH1 0x0 CODECOPY PUSH1 0x0 DUP2 DUP2 PUSH2 0x2E5 ADD MSTORE PUSH2 0x500 ADD MSTORE PUSH2 0x14BB PUSH1 0x0 RETURN INVALID PUSH1 0x80 PUSH1 0x40 MSTORE CALLVALUE DUP1 ISZERO PUSH2 0x10 JUMPI PUSH1 0x0 DUP1 REVERT JUMPDEST POP PUSH1 0x4 CALLDATASIZE LT PUSH2 0xF5 JUMPI PUSH1 0x0 CALLDATALOAD PUSH1 0xE0 SHR DUP1 PUSH4 0x48802B92 GT PUSH2 0x97 JUMPI DUP1 PUSH4 0xB1E21749 GT PUSH2 0x66 JUMPI DUP1 PUSH4 0xB1E21749 EQ PUSH2 0x253 JUMPI DUP1 PUSH4 0xC41C7DCE EQ PUSH2 0x271 JUMPI DUP1 PUSH4 0xF5C1279B EQ PUSH2 0x28D JUMPI DUP1 PUSH4 0xF68016B7 EQ PUSH2 0x2AB JUMPI PUSH2 0xF5 JUMP JUMPDEST DUP1 PUSH4 0x48802B92 EQ PUSH2 0x1C8 JUMPI DUP1 PUSH4 0x4B0795A8 EQ PUSH2 0x1E6 JUMPI DUP1 PUSH4 0x6E04FF0D EQ PUSH2 0x204 JUMPI DUP1 PUSH4 0x6E74336B EQ PUSH2 0x235 JUMPI PUSH2 0xF5 JUMP JUMPDEST DUP1 PUSH4 0x338CDCA1 GT PUSH2 0xD3 JUMPI DUP1 PUSH4 0x338CDCA1 EQ PUSH2 0x152 JUMPI DUP1 PUSH4 0x3944EA3A EQ PUSH2 0x170 JUMPI DUP1 PUSH4 0x43CD3D86 EQ PUSH2 0x18E JUMPI DUP1 PUSH4 0x4585E33B EQ PUSH2 0x1AC JUMPI PUSH2 0xF5 JUMP JUMPDEST DUP1 PUSH4 0x9C1BA2E EQ PUSH2 0xFA JUMPI DUP1 PUSH4 0xCA76175 EQ PUSH2 0x118 JUMPI DUP1 PUSH4 0x2552317C EQ PUSH2 0x134 JUMPI JUMPDEST PUSH1 0x0 DUP1 REVERT JUMPDEST PUSH2 0x102 PUSH2 0x2C9 JUMP JUMPDEST PUSH1 0x40 MLOAD PUSH2 0x10F SWAP2 SWAP1 PUSH2 0x924 JUMP JUMPDEST PUSH1 0x40 MLOAD DUP1 SWAP2 SUB SWAP1 RETURN JUMPDEST PUSH2 0x132 PUSH1 0x4 DUP1 CALLDATASIZE SUB DUP2 ADD SWAP1 PUSH2 0x12D SWAP2 SWAP1 PUSH2 0xACF JUMP JUMPDEST PUSH2 0x2E3 JUMP JUMPDEST STOP JUMPDEST PUSH2 0x13C PUSH2 0x3A5 JUMP JUMPDEST PUSH1 0x40 MLOAD PUSH2 0x149 SWAP2 SWAP1 PUSH2 0xB73 JUMP JUMPDEST PUSH1 0x40 MLOAD DUP1 SWAP2 SUB SWAP1 RETURN JUMPDEST PUSH2 0x15A PUSH2 0x3AB JUMP JUMPDEST PUSH1 0x40 MLOAD PUSH2 0x167 SWAP2 SWAP1 PUSH2 0xC0D JUMP JUMPDEST PUSH1 0x40 MLOAD DUP1 SWAP2 SUB SWAP1 RETURN JUMPDEST PUSH2 0x178 PUSH2 0x439 JUMP JUMPDEST PUSH1 0x40 MLOAD PUSH2 0x185 SWAP2 SWAP1 PUSH2 0xC0D JUMP JUMPDEST PUSH1 0x40 MLOAD DUP1 SWAP2 SUB SWAP1 RETURN JUMPDEST PUSH2 0x196 PUSH2 0x4C7 JUMP JUMPDEST PUSH1 0x40 MLOAD PUSH2 0x1A3 SWAP2 SWAP1 PUSH2 0xB73 JUMP JUMPDEST PUSH1 0x40 MLOAD DUP1 SWAP2 SUB SWAP1 RETURN JUMPDEST PUSH2 0x1C6 PUSH1 0x4 DUP1 CALLDATASIZE SUB DUP2 ADD SWAP1 PUSH2 0x1C1 SWAP2 SWAP1 PUSH2 0xC8F JUMP JUMPDEST PUSH2 0x4CD JUMP JUMPDEST STOP JUMPDEST PUSH2 0x1D0 PUSH2 0x6F0 JUMP JUMPDEST PUSH1 0x40 MLOAD PUSH2 0x1DD SWAP2 SWAP1 PUSH2 0xB73 JUMP JUMPDEST PUSH1 0x40 MLOAD DUP1 SWAP2 SUB SWAP1 RETURN JUMPDEST PUSH2 0x1EE PUSH2 0x6F6 JUMP JUMPDEST PUSH1 0x40 MLOAD PUSH2 0x1FB SWAP2 SWAP1 PUSH2 0xC0D JUMP JUMPDEST PUSH1 0x40 MLOAD DUP1 SWAP2 SUB SWAP1 RETURN JUMPDEST PUSH2 0x21E PUSH1 0x4 DUP1 CALLDATASIZE SUB DUP2 ADD SWAP1 PUSH2 0x219 SWAP2 SWAP1 PUSH2 0xC8F JUMP JUMPDEST PUSH2 0x784 JUMP JUMPDEST PUSH1 0x40 MLOAD PUSH2 0x22C SWAP3 SWAP2 SWAP1 PUSH2 0xCF7 JUMP JUMPDEST PUSH1 0x40 MLOAD DUP1 SWAP2 SUB SWAP1 RETURN JUMPDEST PUSH2 0x23D PUSH2 0x7B6 JUMP JUMPDEST PUSH1 0x40 MLOAD PUSH2 0x24A SWAP2 SWAP1 PUSH2 0xD36 JUMP JUMPDEST PUSH1 0x40 MLOAD DUP1 SWAP2 SUB SWAP1 RETURN JUMPDEST PUSH2 0x25B PUSH2 0x7BC JUMP JUMPDEST PUSH1 0x40 MLOAD PUSH2 0x268 SWAP2 SWAP1 PUSH2 0xD36 JUMP JUMPDEST PUSH1 0x40 MLOAD DUP1 SWAP2 SUB SWAP1 RETURN JUMPDEST PUSH2 0x28B PUSH1 0x4 DUP1 CALLDATASIZE SUB DUP2 ADD SWAP1 PUSH2 0x286 SWAP2 SWAP1 PUSH2 0xDB9 JUMP JUMPDEST PUSH2 0x7C2 JUMP JUMPDEST STOP JUMPDEST PUSH2 0x295 PUSH2 0x829 JUMP JUMPDEST PUSH1 0x40 MLOAD PUSH2 0x2A2 SWAP2 SWAP1 PUSH2 0xB73 JUMP JUMPDEST PUSH1 0x40 MLOAD DUP1 SWAP2 SUB SWAP1 RETURN JUMPDEST PUSH2 0x2B3 PUSH2 0x82F JUMP JUMPDEST PUSH1 0x40 MLOAD PUSH2 0x2C0 SWAP2 SWAP1 PUSH2 0xE4B JUMP JUMPDEST PUSH1 0x40 MLOAD DUP1 SWAP2 SUB SWAP1 RETURN JUMPDEST PUSH1 0x2 PUSH1 0x0 SWAP1 SLOAD SWAP1 PUSH2 0x100 EXP SWAP1 DIV PUSH8 0xFFFFFFFFFFFFFFFF AND DUP2 JUMP JUMPDEST PUSH32 0x0 PUSH20 0xFFFFFFFFFFFFFFFFFFFFFFFFFFFFFFFFFFFFFFFF AND CALLER PUSH20 0xFFFFFFFFFFFFFFFFFFFFFFFFFFFFFFFFFFFFFFFF AND EQ PUSH2 0x368 JUMPI PUSH1 0x40 MLOAD PUSH32 0xC6829F8300000000000000000000000000000000000000000000000000000000 DUP2 MSTORE PUSH1 0x4 ADD PUSH1 0x40 MLOAD DUP1 SWAP2 SUB SWAP1 REVERT JUMPDEST PUSH2 0x373 DUP4 DUP4 DUP4 PUSH2 0x845 JUMP JUMPDEST DUP3 PUSH32 0x85E1543BF2F84FE80C6BADBCE3648C8539AD1DF4D2B3D822938CA0538BE727E6 PUSH1 0x40 MLOAD PUSH1 0x40 MLOAD DUP1 SWAP2 SUB SWAP1 LOG2 POP POP POP JUMP JUMPDEST PUSH1 0x0 SLOAD DUP2 JUMP JUMPDEST PUSH1 0x1 DUP1 SLOAD PUSH2 0x3B8 SWAP1 PUSH2 0xE95 JUMP JUMPDEST DUP1 PUSH1 0x1F ADD PUSH1 0x20 DUP1 SWAP2 DIV MUL PUSH1 0x20 ADD PUSH1 0x40 MLOAD SWAP1 DUP2 ADD PUSH1 0x40 MSTORE DUP1 SWAP3 SWAP2 SWAP1 DUP2 DUP2 MSTORE PUSH1 0x20 ADD DUP3 DUP1 SLOAD PUSH2 0x3E4 SWAP1 PUSH2 0xE95 JUMP JUMPDEST DUP1 ISZERO PUSH2 0x431 JUMPI DUP1 PUSH1 0x1F LT PUSH2 0x406 JUMPI PUSH2 0x100 DUP1 DUP4 SLOAD DIV MUL DUP4 MSTORE SWAP2 PUSH1 0x20 ADD SWAP2 PUSH2 0x431 JUMP JUMPDEST DUP3 ADD SWAP2 SWAP1 PUSH1 0x0 MSTORE PUSH1 0x20 PUSH1 0x0 KECCAK256 SWAP1 JUMPDEST DUP2 SLOAD DUP2 MSTORE SWAP1 PUSH1 0x1 ADD SWAP1 PUSH1 0x20 ADD DUP1 DUP4 GT PUSH2 0x414 JUMPI DUP3 SWAP1 SUB PUSH1 0x1F AND DUP3 ADD SWAP2 JUMPDEST POP POP POP POP POP DUP2 JUMP JUMPDEST PUSH1 0x5 DUP1 SLOAD PUSH2 0x446 SWAP1 PUSH2 0xE95 JUMP JUMPDEST DUP1 PUSH1 0x1F ADD PUSH1 0x20 DUP1 SWAP2 DIV MUL PUSH1 0x20 ADD PUSH1 0x40 MLOAD SWAP1 DUP2 ADD PUSH1 0x40 MSTORE DUP1 SWAP3 SWAP2 SWAP1 DUP2 DUP2 MSTORE PUSH1 0x20 ADD DUP3 DUP1 SLOAD PUSH2 0x472 SWAP1 PUSH2 0xE95 JUMP JUMPDEST DUP1 ISZERO PUSH2 0x4BF JUMPI DUP1 PUSH1 0x1F LT PUSH2 0x494 JUMPI PUSH2 0x100 DUP1 DUP4 SLOAD DIV MUL DUP4 MSTORE SWAP2 PUSH1 0x20 ADD SWAP2 PUSH2 0x4BF JUMP JUMPDEST DUP3 ADD SWAP2 SWAP1 PUSH1 0x0 MSTORE PUSH1 0x20 PUSH1 0x0 KECCAK256 SWAP1 JUMPDEST DUP2 SLOAD DUP2 MSTORE SWAP1 PUSH1 0x1 ADD SWAP1 PUSH1 0x20 ADD DUP1 DUP4 GT PUSH2 0x4A2 JUMPI DUP3 SWAP1 SUB PUSH1 0x1F AND DUP3 ADD SWAP2 JUMPDEST POP POP POP POP POP DUP2 JUMP JUMPDEST PUSH1 0x9 SLOAD DUP2 JUMP JUMPDEST PUSH1 0x0 DUP1 SLOAD NUMBER PUSH2 0x4DC SWAP2 SWAP1 PUSH2 0xEF5 JUMP JUMPDEST GT ISZERO PUSH2 0x6EC JUMPI NUMBER PUSH1 0x0 DUP2 SWAP1 SSTORE POP PUSH1 0x1 PUSH1 0x7 SLOAD PUSH2 0x4F8 SWAP2 SWAP1 PUSH2 0xF29 JUMP JUMPDEST PUSH1 0x7 DUP2 SWAP1 SSTORE POP PUSH32 0x0 PUSH20 0xFFFFFFFFFFFFFFFFFFFFFFFFFFFFFFFFFFFFFFFF AND PUSH4 0x461D2762 PUSH1 0x2 PUSH1 0x0 SWAP1 SLOAD SWAP1 PUSH2 0x100 EXP SWAP1 DIV PUSH8 0xFFFFFFFFFFFFFFFF AND PUSH1 0x1 DUP1 PUSH1 0x2 PUSH1 0x8 SWAP1 SLOAD SWAP1 PUSH2 0x100 EXP SWAP1 DIV PUSH4 0xFFFFFFFF AND PUSH1 0x3 SLOAD PUSH1 0x40 MLOAD DUP7 PUSH4 0xFFFFFFFF AND PUSH1 0xE0 SHL DUP2 MSTORE PUSH1 0x4 ADD PUSH2 0x58A SWAP6 SWAP5 SWAP4 SWAP3 SWAP2 SWAP1 PUSH2 0x1013 JUMP JUMPDEST PUSH1 0x20 PUSH1 0x40 MLOAD DUP1 DUP4 SUB DUP2 PUSH1 0x0 DUP8 GAS CALL SWAP3 POP POP POP DUP1 ISZERO PUSH2 0x5C6 JUMPI POP PUSH1 0x40 MLOAD RETURNDATASIZE PUSH1 0x1F NOT PUSH1 0x1F DUP3 ADD AND DUP3 ADD DUP1 PUSH1 0x40 MSTORE POP DUP2 ADD SWAP1 PUSH2 0x5C3 SWAP2 SWAP1 PUSH2 0x1082 JUMP JUMPDEST PUSH1 0x1 JUMPDEST PUSH2 0x6A0 JUMPI PUSH2 0x5D2 PUSH2 0x10BC JUMP JUMPDEST DUP1 PUSH4 0x8C379A0 SUB PUSH2 0x62E JUMPI POP PUSH2 0x5E6 PUSH2 0x10DE JUMP JUMPDEST DUP1 PUSH2 0x5F1 JUMPI POP PUSH2 0x630 JUMP JUMPDEST PUSH32 0x2BA61E3733E7AC99181C22307780F651EC8FD92FE661A84DFBE711710B2DC36C DUP2 PUSH1 0x40 MLOAD PUSH2 0x620 SWAP2 SWAP1 PUSH2 0x11C3 JUMP JUMPDEST PUSH1 0x40 MLOAD DUP1 SWAP2 SUB SWAP1 LOG1 POP PUSH2 0x69B JUMP JUMPDEST POP JUMPDEST RETURNDATASIZE DUP1 PUSH1 0x0 DUP2 EQ PUSH2 0x65C JUMPI PUSH1 0x40 MLOAD SWAP2 POP PUSH1 0x1F NOT PUSH1 0x3F RETURNDATASIZE ADD AND DUP3 ADD PUSH1 0x40 MSTORE RETURNDATASIZE DUP3 MSTORE RETURNDATASIZE PUSH1 0x0 PUSH1 0x20 DUP5 ADD RETURNDATACOPY PUSH2 0x661 JUMP JUMPDEST PUSH1 0x60 SWAP2 POP JUMPDEST POP PUSH32 0x9C4BFA18304482256875C29FABB1A44A5ECD325F214EA17BAB8F31E869FAF4C8 DUP2 PUSH1 0x40 MLOAD PUSH2 0x691 SWAP2 SWAP1 PUSH2 0xC0D JUMP JUMPDEST PUSH1 0x40 MLOAD DUP1 SWAP2 SUB SWAP1 LOG1 POP JUMPDEST PUSH2 0x6EB JUMP JUMPDEST DUP1 PUSH1 0x4 DUP2 SWAP1 SSTORE POP PUSH1 0x1 PUSH1 0x8 SLOAD PUSH2 0x6B6 SWAP2 SWAP1 PUSH2 0xF29 JUMP JUMPDEST PUSH1 0x8 DUP2 SWAP1 SSTORE POP DUP1 PUSH32 0x1131472297A800FEE664D1D89CFA8F7676FF07189ECC53F80BBB5F4969099DB8 PUSH1 0x40 MLOAD PUSH1 0x40 MLOAD DUP1 SWAP2 SUB SWAP1 LOG2 POP JUMPDEST JUMPDEST POP POP JUMP JUMPDEST PUSH1 0x8 SLOAD DUP2 JUMP JUMPDEST PUSH1 0x6 DUP1 SLOAD PUSH2 0x703 SWAP1 PUSH2 0xE95 JUMP JUMPDEST DUP1 PUSH1 0x1F ADD PUSH1 0x20 DUP1 SWAP2 DIV MUL PUSH1 0x20 ADD PUSH1 0x40 MLOAD SWAP1 DUP2 ADD PUSH1 0x40 MSTORE DUP1 SWAP3 SWAP2 SWAP1 DUP2 DUP2 MSTORE PUSH1 0x20 ADD DUP3 DUP1 SLOAD PUSH2 0x72F SWAP1 PUSH2 0xE95 JUMP JUMPDEST DUP1 ISZERO PUSH2 0x77C JUMPI DUP1 PUSH1 0x1F LT PUSH2 0x751 JUMPI PUSH2 0x100 DUP1 DUP4 SLOAD DIV MUL DUP4 MSTORE SWAP2 PUSH1 0x20 ADD SWAP2 PUSH2 0x77C JUMP JUMPDEST DUP3 ADD SWAP2 SWAP1 PUSH1 0x0 MSTORE PUSH1 0x20 PUSH1 0x0 KECCAK256 SWAP1 JUMPDEST DUP2 SLOAD DUP2 MSTORE SWAP1 PUSH1 0x1 ADD SWAP1 PUSH1 0x20 ADD DUP1 DUP4 GT PUSH2 0x75F JUMPI DUP3 SWAP1 SUB PUSH1 0x1F AND DUP3 ADD SWAP2 JUMPDEST POP POP POP POP POP DUP2 JUMP JUMPDEST PUSH1 0x0 PUSH1 0x60 PUSH1 0x0 DUP1 SLOAD NUMBER PUSH2 0x797 SWAP2 SWAP1 PUSH2 0xEF5 JUMP JUMPDEST GT SWAP2 POP DUP2 PUSH1 0x40 MLOAD DUP1 PUSH1 0x20 ADD PUSH1 0x40 MSTORE DUP1 PUSH1 0x0 DUP2 MSTORE POP SWAP2 POP SWAP2 POP SWAP3 POP SWAP3 SWAP1 POP JUMP JUMPDEST PUSH1 0x3 SLOAD DUP2 JUMP JUMPDEST PUSH1 0x4 SLOAD DUP2 JUMP JUMPDEST DUP4 PUSH1 0x1 SWAP1 DUP2 PUSH2 0x7D1 SWAP2 SWAP1 PUSH2 0x137C JUMP JUMPDEST POP DUP3 PUSH1 0x2 PUSH1 0x0 PUSH2 0x100 EXP DUP2 SLOAD DUP2 PUSH8 0xFFFFFFFFFFFFFFFF MUL NOT AND SWAP1 DUP4 PUSH8 0xFFFFFFFFFFFFFFFF AND MUL OR SWAP1 SSTORE POP DUP2 PUSH1 0x2 PUSH1 0x8 PUSH2 0x100 EXP DUP2 SLOAD DUP2 PUSH4 0xFFFFFFFF MUL NOT AND SWAP1 DUP4 PUSH4 0xFFFFFFFF AND MUL OR SWAP1 SSTORE POP DUP1 PUSH1 0x3 DUP2 SWAP1 SSTORE POP POP POP POP POP JUMP JUMPDEST PUSH1 0x7 SLOAD DUP2 JUMP JUMPDEST PUSH1 0x2 PUSH1 0x8 SWAP1 SLOAD SWAP1 PUSH2 0x100 EXP SWAP1 DIV PUSH4 0xFFFFFFFF AND DUP2 JUMP JUMPDEST DUP3 PUSH1 0x4 SLOAD EQ PUSH2 0x88B JUMPI DUP3 PUSH1 0x40 MLOAD PUSH32 0xD068BF5B00000000000000000000000000000000000000000000000000000000 DUP2 MSTORE PUSH1 0x4 ADD PUSH2 0x882 SWAP2 SWAP1 PUSH2 0xD36 JUMP JUMPDEST PUSH1 0x40 MLOAD DUP1 SWAP2 SUB SWAP1 REVERT JUMPDEST DUP2 PUSH1 0x5 SWAP1 DUP2 PUSH2 0x89A SWAP2 SWAP1 PUSH2 0x137C JUMP JUMPDEST POP DUP1 PUSH1 0x6 SWAP1 DUP2 PUSH2 0x8AA SWAP2 SWAP1 PUSH2 0x137C JUMP JUMPDEST POP PUSH1 0x1 PUSH1 0x9 SLOAD PUSH2 0x8BA SWAP2 SWAP1 PUSH2 0xF29 JUMP JUMPDEST PUSH1 0x9 DUP2 SWAP1 SSTORE POP DUP3 PUSH32 0x7873807BF6DDC50401CD3D29BBE0DECEE23FD4D68D273F4B5EB83CDED4D2F172 PUSH1 0x5 PUSH1 0x6 PUSH1 0x40 MLOAD PUSH2 0x8F4 SWAP3 SWAP2 SWAP1 PUSH2 0x144E JUMP JUMPDEST PUSH1 0x40 MLOAD DUP1 SWAP2 SUB SWAP1 LOG2 POP POP POP JUMP JUMPDEST PUSH1 0x0 PUSH8 0xFFFFFFFFFFFFFFFF DUP3 AND SWAP1 POP SWAP2 SWAP1 POP JUMP JUMPDEST PUSH2 0x91E DUP2 PUSH2 0x901 JUMP JUMPDEST DUP3 MSTORE POP POP JUMP JUMPDEST PUSH1 0x0 PUSH1 0x20 DUP3 ADD SWAP1 POP PUSH2 0x939 PUSH1 0x0 DUP4 ADD DUP5 PUSH2 0x915 JUMP JUMPDEST SWAP3 SWAP2 POP POP JUMP JUMPDEST PUSH1 0x0 PUSH1 0x40 MLOAD SWAP1 POP SWAP1 JUMP JUMPDEST PUSH1 0x0 DUP1 REVERT JUMPDEST PUSH1 0x0 DUP1 REVERT JUMPDEST PUSH1 0x0 DUP2 SWAP1 POP SWAP2 SWAP1 POP JUMP JUMPDEST PUSH2 0x966 DUP2 PUSH2 0x953 JUMP JUMPDEST DUP2 EQ PUSH2 0x971 JUMPI PUSH1 0x0 DUP1 REVERT JUMPDEST POP JUMP JUMPDEST PUSH1 0x0 DUP2 CALLDATALOAD SWAP1 POP PUSH2 0x983 DUP2 PUSH2 0x95D JUMP JUMPDEST SWAP3 SWAP2 POP POP JUMP JUMPDEST PUSH1 0x0 DUP1 REVERT JUMPDEST PUSH1 0x0 DUP1 REVERT JUMPDEST PUSH1 0x0 PUSH1 0x1F NOT PUSH1 0x1F DUP4 ADD AND SWAP1 POP SWAP2 SWAP1 POP JUMP JUMPDEST PUSH32 0x4E487B7100000000000000000000000000000000000000000000000000000000 PUSH1 0x0 MSTORE PUSH1 0x41 PUSH1 0x4 MSTORE PUSH1 0x24 PUSH1 0x0 REVERT JUMPDEST PUSH2 0x9DC DUP3 PUSH2 0x993 JUMP JUMPDEST DUP2 ADD DUP2 DUP2 LT PUSH8 0xFFFFFFFFFFFFFFFF DUP3 GT OR ISZERO PUSH2 0x9FB JUMPI PUSH2 0x9FA PUSH2 0x9A4 JUMP JUMPDEST JUMPDEST DUP1 PUSH1 0x40 MSTORE POP POP POP JUMP JUMPDEST PUSH1 0x0 PUSH2 0xA0E PUSH2 0x93F JUMP JUMPDEST SWAP1 POP PUSH2 0xA1A DUP3 DUP3 PUSH2 0x9D3 JUMP JUMPDEST SWAP2 SWAP1 POP JUMP JUMPDEST PUSH1 0x0 PUSH8 0xFFFFFFFFFFFFFFFF DUP3 GT ISZERO PUSH2 0xA3A JUMPI PUSH2 0xA39 PUSH2 0x9A4 JUMP JUMPDEST JUMPDEST PUSH2 0xA43 DUP3 PUSH2 0x993 JUMP JUMPDEST SWAP1 POP PUSH1 0x20 DUP2 ADD SWAP1 POP SWAP2 SWAP1 POP JUMP JUMPDEST DUP3 DUP2 DUP4 CALLDATACOPY PUSH1 0x0 DUP4 DUP4 ADD MSTORE POP POP POP JUMP JUMPDEST PUSH1 0x0 PUSH2 0xA72 PUSH2 0xA6D DUP5 PUSH2 0xA1F JUMP JUMPDEST PUSH2 0xA04 JUMP JUMPDEST SWAP1 POP DUP3 DUP2 MSTORE PUSH1 0x20 DUP2 ADD DUP5 DUP5 DUP5 ADD GT ISZERO PUSH2 0xA8E JUMPI PUSH2 0xA8D PUSH2 0x98E JUMP JUMPDEST JUMPDEST PUSH2 0xA99 DUP5 DUP3 DUP6 PUSH2 0xA50 JUMP JUMPDEST POP SWAP4 SWAP3 POP POP POP JUMP JUMPDEST PUSH1 0x0 DUP3 PUSH1 0x1F DUP4 ADD SLT PUSH2 0xAB6 JUMPI PUSH2 0xAB5 PUSH2 0x989 JUMP JUMPDEST JUMPDEST DUP2 CALLDATALOAD PUSH2 0xAC6 DUP5 DUP3 PUSH1 0x20 DUP7 ADD PUSH2 0xA5F JUMP JUMPDEST SWAP2 POP POP SWAP3 SWAP2 POP POP JUMP JUMPDEST PUSH1 0x0 DUP1 PUSH1 0x0 PUSH1 0x60 DUP5 DUP7 SUB SLT ISZERO PUSH2 0xAE8 JUMPI PUSH2 0xAE7 PUSH2 0x949 JUMP JUMPDEST JUMPDEST PUSH1 0x0 PUSH2 0xAF6 DUP7 DUP3 DUP8 ADD PUSH2 0x974 JUMP JUMPDEST SWAP4 POP POP PUSH1 0x20 DUP5 ADD CALLDATALOAD PUSH8 0xFFFFFFFFFFFFFFFF DUP2 GT ISZERO PUSH2 0xB17 JUMPI PUSH2 0xB16 PUSH2 0x94E JUMP JUMPDEST JUMPDEST PUSH2 0xB23 DUP7 DUP3 DUP8 ADD PUSH2 0xAA1 JUMP JUMPDEST SWAP3 POP POP PUSH1 0x40 DUP5 ADD CALLDATALOAD PUSH8 0xFFFFFFFFFFFFFFFF DUP2 GT ISZERO PUSH2 0xB44 JUMPI PUSH2 0xB43 PUSH2 0x94E JUMP JUMPDEST JUMPDEST PUSH2 0xB50 DUP7 DUP3 DUP8 ADD PUSH2 0xAA1 JUMP JUMPDEST SWAP2 POP POP SWAP3 POP SWAP3 POP SWAP3 JUMP JUMPDEST PUSH1 0x0 DUP2 SWAP1 POP SWAP2 SWAP1 POP JUMP JUMPDEST PUSH2 0xB6D DUP2 PUSH2 0xB5A JUMP JUMPDEST DUP3 MSTORE POP POP JUMP JUMPDEST PUSH1 0x0 PUSH1 0x20 DUP3 ADD SWAP1 POP PUSH2 0xB88 PUSH1 0x0 DUP4 ADD DUP5 PUSH2 0xB64 JUMP JUMPDEST SWAP3 SWAP2 POP POP JUMP JUMPDEST PUSH1 0x0 DUP2 MLOAD SWAP1 POP SWAP2 SWAP1 POP JUMP JUMPDEST PUSH1 0x0 DUP3 DUP3 MSTORE PUSH1 0x20 DUP3 ADD SWAP1 POP SWAP3 SWAP2 POP POP JUMP JUMPDEST PUSH1 0x0 JUMPDEST DUP4 DUP2 LT ISZERO PUSH2 0xBC8 JUMPI DUP1 DUP3 ADD MLOAD DUP2 DUP5 ADD MSTORE PUSH1 0x20 DUP2 ADD SWAP1 POP PUSH2 0xBAD JUMP JUMPDEST PUSH1 0x0 DUP5 DUP5 ADD MSTORE POP POP POP POP JUMP JUMPDEST PUSH1 0x0 PUSH2 0xBDF DUP3 PUSH2 0xB8E JUMP JUMPDEST PUSH2 0xBE9 DUP2 DUP6 PUSH2 0xB99 JUMP JUMPDEST SWAP4 POP PUSH2 0xBF9 DUP2 DUP6 PUSH1 0x20 DUP7 ADD PUSH2 0xBAA JUMP JUMPDEST PUSH2 0xC02 DUP2 PUSH2 0x993 JUMP JUMPDEST DUP5 ADD SWAP2 POP POP SWAP3 SWAP2 POP POP JUMP JUMPDEST PUSH1 0x0 PUSH1 0x20 DUP3 ADD SWAP1 POP DUP2 DUP2 SUB PUSH1 0x0 DUP4 ADD MSTORE PUSH2 0xC27 DUP2 DUP5 PUSH2 0xBD4 JUMP JUMPDEST SWAP1 POP SWAP3 SWAP2 POP POP JUMP JUMPDEST PUSH1 0x0 DUP1 REVERT JUMPDEST PUSH1 0x0 DUP1 REVERT JUMPDEST PUSH1 0x0 DUP1 DUP4 PUSH1 0x1F DUP5 ADD SLT PUSH2 0xC4F JUMPI PUSH2 0xC4E PUSH2 0x989 JUMP JUMPDEST JUMPDEST DUP3 CALLDATALOAD SWAP1 POP PUSH8 0xFFFFFFFFFFFFFFFF DUP2 GT ISZERO PUSH2 0xC6C JUMPI PUSH2 0xC6B PUSH2 0xC2F JUMP JUMPDEST JUMPDEST PUSH1 0x20 DUP4 ADD SWAP2 POP DUP4 PUSH1 0x1 DUP3 MUL DUP4 ADD GT ISZERO PUSH2 0xC88 JUMPI PUSH2 0xC87 PUSH2 0xC34 JUMP JUMPDEST JUMPDEST SWAP3 POP SWAP3 SWAP1 POP JUMP JUMPDEST PUSH1 0x0 DUP1 PUSH1 0x20 DUP4 DUP6 SUB SLT ISZERO PUSH2 0xCA6 JUMPI PUSH2 0xCA5 PUSH2 0x949 JUMP JUMPDEST JUMPDEST PUSH1 0x0 DUP4 ADD CALLDATALOAD PUSH8 0xFFFFFFFFFFFFFFFF DUP2 GT ISZERO PUSH2 0xCC4 JUMPI PUSH2 0xCC3 PUSH2 0x94E JUMP JUMPDEST JUMPDEST PUSH2 0xCD0 DUP6 DUP3 DUP7 ADD PUSH2 0xC39 JUMP JUMPDEST SWAP3 POP SWAP3 POP POP SWAP3 POP SWAP3 SWAP1 POP JUMP JUMPDEST PUSH1 0x0 DUP2 ISZERO ISZERO SWAP1 POP SWAP2 SWAP1 POP JUMP JUMPDEST PUSH2 0xCF1 DUP2 PUSH2 0xCDC JUMP JUMPDEST DUP3 MSTORE POP POP JUMP JUMPDEST PUSH1 0x0 PUSH1 0x40 DUP3 ADD SWAP1 POP PUSH2 0xD0C PUSH1 0x0 DUP4 ADD DUP6 PUSH2 0xCE8 JUMP JUMPDEST DUP2 DUP2 SUB PUSH1 0x20 DUP4 ADD MSTORE PUSH2 0xD1E DUP2 DUP5 PUSH2 0xBD4 JUMP JUMPDEST SWAP1 POP SWAP4 SWAP3 POP POP POP JUMP JUMPDEST PUSH2 0xD30 DUP2 PUSH2 0x953 JUMP JUMPDEST DUP3 MSTORE POP POP JUMP JUMPDEST PUSH1 0x0 PUSH1 0x20 DUP3 ADD SWAP1 POP PUSH2 0xD4B PUSH1 0x0 DUP4 ADD DUP5 PUSH2 0xD27 JUMP JUMPDEST SWAP3 SWAP2 POP POP JUMP JUMPDEST PUSH2 0xD5A DUP2 PUSH2 0x901 JUMP JUMPDEST DUP2 EQ PUSH2 0xD65 JUMPI PUSH1 0x0 DUP1 REVERT JUMPDEST POP JUMP JUMPDEST PUSH1 0x0 DUP2 CALLDATALOAD SWAP1 POP PUSH2 0xD77 DUP2 PUSH2 0xD51 JUMP JUMPDEST SWAP3 SWAP2 POP POP JUMP JUMPDEST PUSH1 0x0 PUSH4 0xFFFFFFFF DUP3 AND SWAP1 POP SWAP2 SWAP1 POP JUMP JUMPDEST PUSH2 0xD96 DUP2 PUSH2 0xD7D JUMP JUMPDEST DUP2 EQ PUSH2 0xDA1 JUMPI PUSH1 0x0 DUP1 REVERT JUMPDEST POP JUMP JUMPDEST PUSH1 0x0 DUP2 CALLDATALOAD SWAP1 POP PUSH2 0xDB3 DUP2 PUSH2 0xD8D JUMP JUMPDEST SWAP3 SWAP2 POP POP JUMP JUMPDEST PUSH1 0x0 DUP1 PUSH1 0x0 DUP1 PUSH1 0x80 DUP6 DUP8 SUB SLT ISZERO PUSH2 0xDD3 JUMPI PUSH2 0xDD2 PUSH2 0x949 JUMP JUMPDEST JUMPDEST PUSH1 0x0 DUP6 ADD CALLDATALOAD PUSH8 0xFFFFFFFFFFFFFFFF DUP2 GT ISZERO PUSH2 0xDF1 JUMPI PUSH2 0xDF0 PUSH2 0x94E JUMP JUMPDEST JUMPDEST PUSH2 0xDFD DUP8 DUP3 DUP9 ADD PUSH2 0xAA1 JUMP JUMPDEST SWAP5 POP POP PUSH1 0x20 PUSH2 0xE0E DUP8 DUP3 DUP9 ADD PUSH2 0xD68 JUMP JUMPDEST SWAP4 POP POP PUSH1 0x40 PUSH2 0xE1F DUP8 DUP3 DUP9 ADD PUSH2 0xDA4 JUMP JUMPDEST SWAP3 POP POP PUSH1 0x60 PUSH2 0xE30 DUP8 DUP3 DUP9 ADD PUSH2 0x974 JUMP JUMPDEST SWAP2 POP POP SWAP3 SWAP6 SWAP2 SWAP5 POP SWAP3 POP JUMP JUMPDEST PUSH2 0xE45 DUP2 PUSH2 0xD7D JUMP JUMPDEST DUP3 MSTORE POP POP JUMP JUMPDEST PUSH1 0x0 PUSH1 0x20 DUP3 ADD SWAP1 POP PUSH2 0xE60 PUSH1 0x0 DUP4 ADD DUP5 PUSH2 0xE3C JUMP JUMPDEST SWAP3 SWAP2 POP POP JUMP JUMPDEST PUSH32 0x4E487B7100000000000000000000000000000000000000000000000000000000 PUSH1 0x0 MSTORE PUSH1 0x22 PUSH1 0x4 MSTORE PUSH1 0x24 PUSH1 0x0 REVERT JUMPDEST PUSH1 0x0 PUSH1 0x2 DUP3 DIV SWAP1 POP PUSH1 0x1 DUP3 AND DUP1 PUSH2 0xEAD JUMPI PUSH1 0x7F DUP3 AND SWAP2 POP JUMPDEST PUSH1 0x20 DUP3 LT DUP2 SUB PUSH2 0xEC0 JUMPI PUSH2 0xEBF PUSH2 0xE66 JUMP JUMPDEST JUMPDEST POP SWAP2 SWAP1 POP JUMP JUMPDEST PUSH32 0x4E487B7100000000000000000000000000000000000000000000000000000000 PUSH1 0x0 MSTORE PUSH1 0x11 PUSH1 0x4 MSTORE PUSH1 0x24 PUSH1 0x0 REVERT JUMPDEST PUSH1 0x0 PUSH2 0xF00 DUP3 PUSH2 0xB5A JUMP JUMPDEST SWAP2 POP PUSH2 0xF0B DUP4 PUSH2 0xB5A JUMP JUMPDEST SWAP3 POP DUP3 DUP3 SUB SWAP1 POP DUP2 DUP2 GT ISZERO PUSH2 0xF23 JUMPI PUSH2 0xF22 PUSH2 0xEC6 JUMP JUMPDEST JUMPDEST SWAP3 SWAP2 POP POP JUMP JUMPDEST PUSH1 0x0 PUSH2 0xF34 DUP3 PUSH2 0xB5A JUMP JUMPDEST SWAP2 POP PUSH2 0xF3F DUP4 PUSH2 0xB5A JUMP JUMPDEST SWAP3 POP DUP3 DUP3 ADD SWAP1 POP DUP1 DUP3 GT ISZERO PUSH2 0xF57 JUMPI PUSH2 0xF56 PUSH2 0xEC6 JUMP JUMPDEST JUMPDEST SWAP3 SWAP2 POP POP JUMP JUMPDEST PUSH1 0x0 DUP2 SWAP1 POP DUP2 PUSH1 0x0 MSTORE PUSH1 0x20 PUSH1 0x0 KECCAK256 SWAP1 POP SWAP2 SWAP1 POP JUMP JUMPDEST PUSH1 0x0 DUP2 SLOAD PUSH2 0xF7F DUP2 PUSH2 0xE95 JUMP JUMPDEST PUSH2 0xF89 DUP2 DUP7 PUSH2 0xB99 JUMP JUMPDEST SWAP5 POP PUSH1 0x1 DUP3 AND PUSH1 0x0 DUP2 EQ PUSH2 0xFA4 JUMPI PUSH1 0x1 DUP2 EQ PUSH2 0xFBA JUMPI PUSH2 0xFED JUMP JUMPDEST PUSH1 0xFF NOT DUP4 AND DUP7 MSTORE DUP2 ISZERO ISZERO PUSH1 0x20 MUL DUP7 ADD SWAP4 POP PUSH2 0xFED JUMP JUMPDEST PUSH2 0xFC3 DUP6 PUSH2 0xF5D JUMP JUMPDEST PUSH1 0x0 JUMPDEST DUP4 DUP2 LT ISZERO PUSH2 0xFE5 JUMPI DUP2 SLOAD DUP2 DUP10 ADD MSTORE PUSH1 0x1 DUP3 ADD SWAP2 POP PUSH1 0x20 DUP2 ADD SWAP1 POP PUSH2 0xFC6 JUMP JUMPDEST DUP1 DUP9 ADD SWAP6 POP POP POP JUMPDEST POP POP POP SWAP3 SWAP2 POP POP JUMP JUMPDEST PUSH1 0x0 PUSH2 0xFFFF DUP3 AND SWAP1 POP SWAP2 SWAP1 POP JUMP JUMPDEST PUSH2 0x100D DUP2 PUSH2 0xFF6 JUMP JUMPDEST DUP3 MSTORE POP POP JUMP JUMPDEST PUSH1 0x0 PUSH1 0xA0 DUP3 ADD SWAP1 POP PUSH2 0x1028 PUSH1 0x0 DUP4 ADD DUP9 PUSH2 0x915 JUMP JUMPDEST DUP2 DUP2 SUB PUSH1 0x20 DUP4 ADD MSTORE PUSH2 0x103A DUP2 DUP8 PUSH2 0xF72 JUMP JUMPDEST SWAP1 POP PUSH2 0x1049 PUSH1 0x40 DUP4 ADD DUP7 PUSH2 0x1004 JUMP JUMPDEST PUSH2 0x1056 PUSH1 0x60 DUP4 ADD DUP6 PUSH2 0xE3C JUMP JUMPDEST PUSH2 0x1063 PUSH1 0x80 DUP4 ADD DUP5 PUSH2 0xD27 JUMP JUMPDEST SWAP7 SWAP6 POP POP POP POP POP POP JUMP JUMPDEST PUSH1 0x0 DUP2 MLOAD SWAP1 POP PUSH2 0x107C DUP2 PUSH2 0x95D JUMP JUMPDEST SWAP3 SWAP2 POP POP JUMP JUMPDEST PUSH1 0x0 PUSH1 0x20 DUP3 DUP5 SUB SLT ISZERO PUSH2 0x1098 JUMPI PUSH2 0x1097 PUSH2 0x949 JUMP JUMPDEST JUMPDEST PUSH1 0x0 PUSH2 0x10A6 DUP5 DUP3 DUP6 ADD PUSH2 0x106D JUMP JUMPDEST SWAP2 POP POP SWAP3 SWAP2 POP POP JUMP JUMPDEST PUSH1 0x0 DUP2 PUSH1 0xE0 SHR SWAP1 POP SWAP2 SWAP1 POP JUMP JUMPDEST PUSH1 0x0 PUSH1 0x3 RETURNDATASIZE GT ISZERO PUSH2 0x10DB JUMPI PUSH1 0x4 PUSH1 0x0 DUP1 RETURNDATACOPY PUSH2 0x10D8 PUSH1 0x0 MLOAD PUSH2 0x10AF JUMP JUMPDEST SWAP1 POP JUMPDEST SWAP1 JUMP JUMPDEST PUSH1 0x0 PUSH1 0x44 RETURNDATASIZE LT PUSH2 0x116B JUMPI PUSH2 0x10F0 PUSH2 0x93F JUMP JUMPDEST PUSH1 0x4 RETURNDATASIZE SUB PUSH1 0x4 DUP3 RETURNDATACOPY DUP1 MLOAD RETURNDATASIZE PUSH1 0x24 DUP3 ADD GT PUSH8 0xFFFFFFFFFFFFFFFF DUP3 GT OR ISZERO PUSH2 0x1118 JUMPI POP POP PUSH2 0x116B JUMP JUMPDEST DUP1 DUP3 ADD DUP1 MLOAD PUSH8 0xFFFFFFFFFFFFFFFF DUP2 GT ISZERO PUSH2 0x1136 JUMPI POP POP POP POP PUSH2 0x116B JUMP JUMPDEST DUP1 PUSH1 0x20 DUP4 ADD ADD PUSH1 0x4 RETURNDATASIZE SUB DUP6 ADD DUP2 GT ISZERO PUSH2 0x1153 JUMPI POP POP POP POP POP PUSH2 0x116B JUMP JUMPDEST PUSH2 0x1162 DUP3 PUSH1 0x20 ADD DUP6 ADD DUP7 PUSH2 0x9D3 JUMP JUMPDEST DUP3 SWAP6 POP POP POP POP POP POP JUMPDEST SWAP1 JUMP JUMPDEST PUSH1 0x0 DUP2 MLOAD SWAP1 POP SWAP2 SWAP1 POP JUMP JUMPDEST PUSH1 0x0 DUP3 DUP3 MSTORE PUSH1 0x20 DUP3 ADD SWAP1 POP SWAP3 SWAP2 POP POP JUMP JUMPDEST PUSH1 0x0 PUSH2 0x1195 DUP3 PUSH2 0x116E JUMP JUMPDEST PUSH2 0x119F DUP2 DUP6 PUSH2 0x1179 JUMP JUMPDEST SWAP4 POP PUSH2 0x11AF DUP2 DUP6 PUSH1 0x20 DUP7 ADD PUSH2 0xBAA JUMP JUMPDEST PUSH2 0x11B8 DUP2 PUSH2 0x993 JUMP JUMPDEST DUP5 ADD SWAP2 POP POP SWAP3 SWAP2 POP POP JUMP JUMPDEST PUSH1 0x0 PUSH1 0x20 DUP3 ADD SWAP1 POP DUP2 DUP2 SUB PUSH1 0x0 DUP4 ADD MSTORE PUSH2 0x11DD DUP2 DUP5 PUSH2 0x118A JUMP JUMPDEST SWAP1 POP SWAP3 SWAP2 POP POP JUMP JUMPDEST PUSH1 0x0 PUSH1 0x20 PUSH1 0x1F DUP4 ADD DIV SWAP1 POP SWAP2 SWAP1 POP JUMP JUMPDEST PUSH1 0x0 DUP3 DUP3 SHL SWAP1 POP SWAP3 SWAP2 POP POP JUMP JUMPDEST PUSH1 0x0 PUSH1 0x8 DUP4 MUL PUSH2 0x1232 PUSH32 0xFFFFFFFFFFFFFFFFFFFFFFFFFFFFFFFFFFFFFFFFFFFFFFFFFFFFFFFFFFFFFFFF DUP3 PUSH2 0x11F5 JUMP JUMPDEST PUSH2 0x123C DUP7 DUP4 PUSH2 0x11F5 JUMP JUMPDEST SWAP6 POP DUP1 NOT DUP5 AND SWAP4 POP DUP1 DUP7 AND DUP5 OR SWAP3 POP POP POP SWAP4 SWAP3 POP POP POP JUMP JUMPDEST PUSH1 0x0 DUP2 SWAP1 POP SWAP2 SWAP1 POP JUMP JUMPDEST PUSH1 0x0 PUSH2 0x1279 PUSH2 0x1274 PUSH2 0x126F DUP5 PUSH2 0xB5A JUMP JUMPDEST PUSH2 0x1254 JUMP JUMPDEST PUSH2 0xB5A JUMP JUMPDEST SWAP1 POP SWAP2 SWAP1 POP JUMP JUMPDEST PUSH1 0x0 DUP2 SWAP1 POP SWAP2 SWAP1 POP JUMP JUMPDEST PUSH2 0x1293 DUP4 PUSH2 0x125E JUMP JUMPDEST PUSH2 0x12A7 PUSH2 0x129F DUP3 PUSH2 0x1280 JUMP JUMPDEST DUP5 DUP5 SLOAD PUSH2 0x1202 JUMP JUMPDEST DUP3 SSTORE POP POP POP POP JUMP JUMPDEST PUSH1 0x0 SWAP1 JUMP JUMPDEST PUSH2 0x12BC PUSH2 0x12AF JUMP JUMPDEST PUSH2 0x12C7 DUP2 DUP5 DUP5 PUSH2 0x128A JUMP JUMPDEST POP POP POP JUMP JUMPDEST JUMPDEST DUP2 DUP2 LT ISZERO PUSH2 0x12EB JUMPI PUSH2 0x12E0 PUSH1 0x0 DUP3 PUSH2 0x12B4 JUMP JUMPDEST PUSH1 0x1 DUP2 ADD SWAP1 POP PUSH2 0x12CD JUMP JUMPDEST POP POP JUMP JUMPDEST PUSH1 0x1F DUP3 GT ISZERO PUSH2 0x1330 JUMPI PUSH2 0x1301 DUP2 PUSH2 0xF5D JUMP JUMPDEST PUSH2 0x130A DUP5 PUSH2 0x11E5 JUMP JUMPDEST DUP2 ADD PUSH1 0x20 DUP6 LT ISZERO PUSH2 0x1319 JUMPI DUP2 SWAP1 POP JUMPDEST PUSH2 0x132D PUSH2 0x1325 DUP6 PUSH2 0x11E5 JUMP JUMPDEST DUP4 ADD DUP3 PUSH2 0x12CC JUMP JUMPDEST POP POP JUMPDEST POP POP POP JUMP JUMPDEST PUSH1 0x0 DUP3 DUP3 SHR SWAP1 POP SWAP3 SWAP2 POP POP JUMP JUMPDEST PUSH1 0x0 PUSH2 0x1353 PUSH1 0x0 NOT DUP5 PUSH1 0x8 MUL PUSH2 0x1335 JUMP JUMPDEST NOT DUP1 DUP4 AND SWAP2 POP POP SWAP3 SWAP2 POP POP JUMP JUMPDEST PUSH1 0x0 PUSH2 0x136C DUP4 DUP4 PUSH2 0x1342 JUMP JUMPDEST SWAP2 POP DUP3 PUSH1 0x2 MUL DUP3 OR SWAP1 POP SWAP3 SWAP2 POP POP JUMP JUMPDEST PUSH2 0x1385 DUP3 PUSH2 0xB8E JUMP JUMPDEST PUSH8 0xFFFFFFFFFFFFFFFF DUP2 GT ISZERO PUSH2 0x139E JUMPI PUSH2 0x139D PUSH2 0x9A4 JUMP JUMPDEST JUMPDEST PUSH2 0x13A8 DUP3 SLOAD PUSH2 0xE95 JUMP JUMPDEST PUSH2 0x13B3 DUP3 DUP3 DUP6 PUSH2 0x12EF JUMP JUMPDEST PUSH1 0x0 PUSH1 0x20 SWAP1 POP PUSH1 0x1F DUP4 GT PUSH1 0x1 DUP2 EQ PUSH2 0x13E6 JUMPI PUSH1 0x0 DUP5 ISZERO PUSH2 0x13D4 JUMPI DUP3 DUP8 ADD MLOAD SWAP1 POP JUMPDEST PUSH2 0x13DE DUP6 DUP3 PUSH2 0x1360 JUMP JUMPDEST DUP7 SSTORE POP PUSH2 0x1446 JUMP JUMPDEST PUSH1 0x1F NOT DUP5 AND PUSH2 0x13F4 DUP7 PUSH2 0xF5D JUMP JUMPDEST PUSH1 0x0 JUMPDEST DUP3 DUP2 LT ISZERO PUSH2 0x141C JUMPI DUP5 DUP10 ADD MLOAD DUP3 SSTORE PUSH1 0x1 DUP3 ADD SWAP2 POP PUSH1 0x20 DUP6 ADD SWAP5 POP PUSH1 0x20 DUP2 ADD SWAP1 POP PUSH2 0x13F7 JUMP JUMPDEST DUP7 DUP4 LT ISZERO PUSH2 0x1439 JUMPI DUP5 DUP10 ADD MLOAD PUSH2 0x1435 PUSH1 0x1F DUP10 AND DUP3 PUSH2 0x1342 JUMP JUMPDEST DUP4 SSTORE POP JUMPDEST PUSH1 0x1 PUSH1 0x2 DUP9 MUL ADD DUP9 SSTORE POP POP POP JUMPDEST POP POP POP POP POP POP JUMP JUMPDEST PUSH1 0x0 PUSH1 0x40 DUP3 ADD SWAP1 POP DUP2 DUP2 SUB PUSH1 0x0 DUP4 ADD MSTORE PUSH2 0x1468 DUP2 DUP6 PUSH2 0xF72 JUMP JUMPDEST SWAP1 POP DUP2 DUP2 SUB PUSH1 0x20 DUP4 ADD MSTORE PUSH2 0x147C DUP2 DUP5 PUSH2 0xF72 JUMP JUMPDEST SWAP1 POP SWAP4 SWAP3 POP POP POP JUMP INVALID LOG2 PUSH5 0x6970667358 0x22 SLT KECCAK256 CALLDATALOAD STATICCALL PC PUSH15 0x7446CEF69B92EFA238111A1FCC78FF 0xC8 NUMBER 0xC7 MSTORE8 0xAD DUP12 0x22 0xE6 0xFB BYTE DUP7 0xA5 NOT PUSH5 0x736F6C6343 STOP ADDMOD SGT STOP CALLER "
				},
				"gasEstimates": {
					"creation": {
						"codeDepositCost": "1061400",
						"executionCost": "infinite",
						"totalCost": "infinite"
					},
					"external": {
						"checkUpkeep(bytes)": "infinite",
						"donID()": "2518",
						"gasLimit()": "2609",
						"handleOracleFulfillment(bytes32,bytes,bytes)": "infinite",
						"lastBlockNumber()": "2497",
						"performUpkeep(bytes)": "infinite",
						"request()": "infinite",
						"s_lastError()": "infinite",
						"s_lastRequestId()": "2451",
						"s_lastResponse()": "infinite",
						"s_requestCounter()": "2452",
						"s_responseCounter()": "2496",
						"s_upkeepCounter()": "2495",
						"subscriptionId()": "2495",
						"updateRequest(bytes,uint64,uint32,bytes32)": "infinite"
					},
					"internal": {
						"fulfillRequest(bytes32,bytes memory,bytes memory)": "infinite"
					}
				},
				"methodIdentifiers": {
					"checkUpkeep(bytes)": "6e04ff0d",
					"donID()": "6e74336b",
					"gasLimit()": "f68016b7",
					"handleOracleFulfillment(bytes32,bytes,bytes)": "0ca76175",
					"lastBlockNumber()": "2552317c",
					"performUpkeep(bytes)": "4585e33b",
					"request()": "338cdca1",
					"s_lastError()": "4b0795a8",
					"s_lastRequestId()": "b1e21749",
					"s_lastResponse()": "3944ea3a",
					"s_requestCounter()": "48802b92",
					"s_responseCounter()": "43cd3d86",
					"s_upkeepCounter()": "f5c1279b",
					"subscriptionId()": "09c1ba2e",
					"updateRequest(bytes,uint64,uint32,bytes32)": "c41c7dce"
				}
			},
			"storageLayout": {
				"storage": [
					{
						"astId": 2149,
						"contract": "StekcitBMAutomatedFunctions.sol:StekcitBMAutomatedFunctions",
						"label": "lastBlockNumber",
						"offset": 0,
						"slot": "0",
						"type": "t_uint256"
					},
					{
						"astId": 2151,
						"contract": "StekcitBMAutomatedFunctions.sol:StekcitBMAutomatedFunctions",
						"label": "request",
						"offset": 0,
						"slot": "1",
						"type": "t_bytes_storage"
					},
					{
						"astId": 2153,
						"contract": "StekcitBMAutomatedFunctions.sol:StekcitBMAutomatedFunctions",
						"label": "subscriptionId",
						"offset": 0,
						"slot": "2",
						"type": "t_uint64"
					},
					{
						"astId": 2155,
						"contract": "StekcitBMAutomatedFunctions.sol:StekcitBMAutomatedFunctions",
						"label": "gasLimit",
						"offset": 8,
						"slot": "2",
						"type": "t_uint32"
					},
					{
						"astId": 2157,
						"contract": "StekcitBMAutomatedFunctions.sol:StekcitBMAutomatedFunctions",
						"label": "donID",
						"offset": 0,
						"slot": "3",
						"type": "t_bytes32"
					},
					{
						"astId": 2159,
						"contract": "StekcitBMAutomatedFunctions.sol:StekcitBMAutomatedFunctions",
						"label": "s_lastRequestId",
						"offset": 0,
						"slot": "4",
						"type": "t_bytes32"
					},
					{
						"astId": 2161,
						"contract": "StekcitBMAutomatedFunctions.sol:StekcitBMAutomatedFunctions",
						"label": "s_lastResponse",
						"offset": 0,
						"slot": "5",
						"type": "t_bytes_storage"
					},
					{
						"astId": 2163,
						"contract": "StekcitBMAutomatedFunctions.sol:StekcitBMAutomatedFunctions",
						"label": "s_lastError",
						"offset": 0,
						"slot": "6",
						"type": "t_bytes_storage"
					},
					{
						"astId": 2165,
						"contract": "StekcitBMAutomatedFunctions.sol:StekcitBMAutomatedFunctions",
						"label": "s_upkeepCounter",
						"offset": 0,
						"slot": "7",
						"type": "t_uint256"
					},
					{
						"astId": 2167,
						"contract": "StekcitBMAutomatedFunctions.sol:StekcitBMAutomatedFunctions",
						"label": "s_requestCounter",
						"offset": 0,
						"slot": "8",
						"type": "t_uint256"
					},
					{
						"astId": 2169,
						"contract": "StekcitBMAutomatedFunctions.sol:StekcitBMAutomatedFunctions",
						"label": "s_responseCounter",
						"offset": 0,
						"slot": "9",
						"type": "t_uint256"
					}
				],
				"types": {
					"t_bytes32": {
						"encoding": "inplace",
						"label": "bytes32",
						"numberOfBytes": "32"
					},
					"t_bytes_storage": {
						"encoding": "bytes",
						"label": "bytes",
						"numberOfBytes": "32"
					},
					"t_uint256": {
						"encoding": "inplace",
						"label": "uint256",
						"numberOfBytes": "32"
					},
					"t_uint32": {
						"encoding": "inplace",
						"label": "uint32",
						"numberOfBytes": "4"
					},
					"t_uint64": {
						"encoding": "inplace",
						"label": "uint64",
						"numberOfBytes": "8"
					}
				}
			},
			"userdoc": {
				"kind": "user",
				"methods": {
					"checkUpkeep(bytes)": {
						"notice": "Checks if upkeep is needed based on the difference between the current and the last block number."
					},
					"handleOracleFulfillment(bytes32,bytes,bytes)": {
						"notice": "Chainlink Functions response handler called by the Functions Router during fullilment from the designated transmitter node in an OCR round."
					},
					"performUpkeep(bytes)": {
						"notice": "Send a pre-encoded CBOR request if the current block number has incremented since the last recorded block number."
					},
					"updateRequest(bytes,uint64,uint32,bytes32)": {
						"notice": "Update the request settings"
					}
				},
				"notice": "This contract is a demonstration of using Functions and Automation.NOT FOR PRODUCTION USE",
				"version": 1
			}
		}
	}
}