{
	"StekcitBM.sol": {
		"StekcitBM": {
			"abi": [
				{
					"inputs": [],
					"stateMutability": "nonpayable",
					"type": "constructor"
				},
				{
					"anonymous": false,
					"inputs": [
						{
							"indexed": true,
							"internalType": "address",
							"name": "from",
							"type": "address"
						},
						{
							"indexed": true,
							"internalType": "address",
							"name": "to",
							"type": "address"
						}
					],
					"name": "OwnershipTransferRequested",
					"type": "event"
				},
				{
					"anonymous": false,
					"inputs": [
						{
							"indexed": true,
							"internalType": "address",
							"name": "from",
							"type": "address"
						},
						{
							"indexed": true,
							"internalType": "address",
							"name": "to",
							"type": "address"
						}
					],
					"name": "OwnershipTransferred",
					"type": "event"
				},
				{
					"anonymous": false,
					"inputs": [
						{
							"indexed": false,
							"internalType": "uint256",
							"name": "requestId",
							"type": "uint256"
						},
						{
							"indexed": false,
							"internalType": "uint256[]",
							"name": "randomWords",
							"type": "uint256[]"
						},
						{
							"indexed": false,
							"internalType": "uint256",
							"name": "payment",
							"type": "uint256"
						}
					],
					"name": "RequestFulfilled",
					"type": "event"
				},
				{
					"anonymous": false,
					"inputs": [
						{
							"indexed": false,
							"internalType": "uint256",
							"name": "requestId",
							"type": "uint256"
						},
						{
							"indexed": false,
							"internalType": "uint32",
							"name": "numWords",
							"type": "uint32"
						}
					],
					"name": "RequestSent",
					"type": "event"
				},
				{
					"inputs": [],
					"name": "acceptOwnership",
					"outputs": [],
					"stateMutability": "nonpayable",
					"type": "function"
				},
				{
					"inputs": [
						{
							"internalType": "uint256",
							"name": "_requestId",
							"type": "uint256"
						}
					],
					"name": "getRequestStatus",
					"outputs": [
						{
							"internalType": "uint256",
							"name": "paid",
							"type": "uint256"
						},
						{
							"internalType": "bool",
							"name": "fulfilled",
							"type": "bool"
						},
						{
							"internalType": "uint256[]",
							"name": "randomWords",
							"type": "uint256[]"
						}
					],
					"stateMutability": "view",
					"type": "function"
				},
				{
					"inputs": [],
					"name": "lastRequestId",
					"outputs": [
						{
							"internalType": "uint256",
							"name": "",
							"type": "uint256"
						}
					],
					"stateMutability": "view",
					"type": "function"
				},
				{
					"inputs": [],
					"name": "owner",
					"outputs": [
						{
							"internalType": "address",
							"name": "",
							"type": "address"
						}
					],
					"stateMutability": "view",
					"type": "function"
				},
				{
					"inputs": [
						{
							"internalType": "uint256",
							"name": "_requestId",
							"type": "uint256"
						},
						{
							"internalType": "uint256[]",
							"name": "_randomWords",
							"type": "uint256[]"
						}
					],
					"name": "rawFulfillRandomWords",
					"outputs": [],
					"stateMutability": "nonpayable",
					"type": "function"
				},
				{
					"inputs": [
						{
							"internalType": "uint256",
							"name": "",
							"type": "uint256"
						}
					],
					"name": "requestIds",
					"outputs": [
						{
							"internalType": "uint256",
							"name": "",
							"type": "uint256"
						}
					],
					"stateMutability": "view",
					"type": "function"
				},
				{
					"inputs": [],
					"name": "requestRandomWords",
					"outputs": [
						{
							"internalType": "uint256",
							"name": "requestId",
							"type": "uint256"
						}
					],
					"stateMutability": "nonpayable",
					"type": "function"
				},
				{
					"inputs": [
						{
							"internalType": "uint256",
							"name": "",
							"type": "uint256"
						}
					],
					"name": "s_requests",
					"outputs": [
						{
							"internalType": "uint256",
							"name": "paid",
							"type": "uint256"
						},
						{
							"internalType": "bool",
							"name": "fulfilled",
							"type": "bool"
						}
					],
					"stateMutability": "view",
					"type": "function"
				},
				{
					"inputs": [
						{
							"internalType": "address",
							"name": "to",
							"type": "address"
						}
					],
					"name": "transferOwnership",
					"outputs": [],
					"stateMutability": "nonpayable",
					"type": "function"
				},
				{
					"inputs": [],
					"name": "withdrawLink",
					"outputs": [],
					"stateMutability": "nonpayable",
					"type": "function"
				}
			],
			"devdoc": {
				"kind": "dev",
				"methods": {},
				"version": 1
			},
			"evm": {
				"assembly": "    /* \"StekcitBM.sol\":850:4198  contract StekcitBM is... */\n  mstore(0x40, 0xc0)\n    /* \"StekcitBM.sol\":1816:1822  100000 */\n  0x0186a0\n    /* \"StekcitBM.sol\":1790:1822  uint32 callbackGasLimit = 100000 */\n  0x05\n  exp(0x0100, 0x00)\n  dup2\n  sload\n  dup2\n  0xffffffff\n  mul\n  not\n  and\n  swap1\n  dup4\n  0xffffffff\n  and\n  mul\n  or\n  swap1\n  sstore\n  pop\n    /* \"StekcitBM.sol\":1913:1914  1 */\n  0x01\n    /* \"StekcitBM.sol\":1883:1914  uint16 requestConfirmations = 1 */\n  0x05\n  exp(0x0100, 0x04)\n  dup2\n  sload\n  dup2\n  0xffff\n  mul\n  not\n  and\n  swap1\n  dup4\n  0xffff\n  and\n  mul\n  or\n  swap1\n  sstore\n  pop\n    /* \"StekcitBM.sol\":2064:2065  1 */\n  0x01\n    /* \"StekcitBM.sol\":2046:2065  uint32 numWords = 1 */\n  0x05\n  exp(0x0100, 0x06)\n  dup2\n  sload\n  dup2\n  0xffffffff\n  mul\n  not\n  and\n  swap1\n  dup4\n  0xffffffff\n  and\n  mul\n  or\n  swap1\n  sstore\n  pop\n    /* \"StekcitBM.sol\":2145:2187  0x0b9d5D9136855f6FEc3c0993feE6E9CE8a297846 */\n  0x0b9d5d9136855f6fec3c0993fee6e9ce8a297846\n    /* \"StekcitBM.sol\":2123:2187  address linkAddress = 0x0b9d5D9136855f6FEc3c0993feE6E9CE8a297846 */\n  0x05\n  exp(0x0100, 0x0a)\n  dup2\n  sload\n  dup2\n  0xffffffffffffffffffffffffffffffffffffffff\n  mul\n  not\n  and\n  swap1\n  dup4\n  0xffffffffffffffffffffffffffffffffffffffff\n  and\n  mul\n  or\n  swap1\n  sstore\n  pop\n    /* \"StekcitBM.sol\":2272:2314  0x9345AC54dA4D0B5Cda8CB749d8ef37e5F02BBb21 */\n  0x9345ac54da4d0b5cda8cb749d8ef37e5f02bbb21\n    /* \"StekcitBM.sol\":2247:2314  address wrapperAddress = 0x9345AC54dA4D0B5Cda8CB749d8ef37e5F02BBb21 */\n  0x06\n  exp(0x0100, 0x00)\n  dup2\n  sload\n  dup2\n  0xffffffffffffffffffffffffffffffffffffffff\n  mul\n  not\n  and\n  swap1\n  dup4\n  0xffffffffffffffffffffffffffffffffffffffff\n  and\n  mul\n  or\n  swap1\n  sstore\n  pop\n    /* \"StekcitBM.sol\":2321:2438  constructor()... */\n  callvalue\n  dup1\n  iszero\n  tag_1\n  jumpi\n  0x00\n  dup1\n  revert\ntag_1:\n  pop\n    /* \"StekcitBM.sol\":2358:2368  msg.sender */\n  caller\n    /* \"@chainlink/contracts@1.1.0/src/v0.8/shared/access/ConfirmedOwner.sol\":355:363  newOwner */\n  dup1\n    /* \"@chainlink/contracts@1.1.0/src/v0.8/shared/access/ConfirmedOwner.sol\":373:374  0 */\n  0x00\n    /* \"StekcitBM.sol\":2403:2414  linkAddress */\n  0x05\n  0x0a\n  swap1\n  sload\n  swap1\n  0x0100\n  exp\n  swap1\n  div\n  0xffffffffffffffffffffffffffffffffffffffff\n  and\n    /* \"StekcitBM.sol\":2416:2430  wrapperAddress */\n  0x06\n  0x00\n  swap1\n  sload\n  swap1\n  0x0100\n  exp\n  swap1\n  div\n  0xffffffffffffffffffffffffffffffffffffffff\n  and\n    /* \"@chainlink/contracts@1.1.0/src/v0.8/vrf/VRFV2WrapperConsumerBase.sol\":2169:2174  _link */\n  dup2\n    /* \"@chainlink/contracts@1.1.0/src/v0.8/vrf/VRFV2WrapperConsumerBase.sol\":2143:2175  LINK = LinkTokenInterface(_link) */\n  0xffffffffffffffffffffffffffffffffffffffff\n  and\n  0x80\n  dup2\n  0xffffffffffffffffffffffffffffffffffffffff\n  and\n  dup2\n  mstore\n  pop\n  pop\n    /* \"@chainlink/contracts@1.1.0/src/v0.8/vrf/VRFV2WrapperConsumerBase.sol\":2220:2233  _vrfV2Wrapper */\n  dup1\n    /* \"@chainlink/contracts@1.1.0/src/v0.8/vrf/VRFV2WrapperConsumerBase.sol\":2181:2234  VRF_V2_WRAPPER = VRFV2WrapperInterface(_vrfV2Wrapper) */\n  0xffffffffffffffffffffffffffffffffffffffff\n  and\n  0xa0\n  dup2\n  0xffffffffffffffffffffffffffffffffffffffff\n  and\n  dup2\n  mstore\n  pop\n  pop\n    /* \"@chainlink/contracts@1.1.0/src/v0.8/vrf/VRFV2WrapperConsumerBase.sol\":2087:2239  constructor(address _link, address _vrfV2Wrapper) {... */\n  pop\n  pop\n    /* \"@chainlink/contracts@1.1.0/src/v0.8/shared/access/ConfirmedOwnerWithProposal.sol\":618:619  0 */\n  0x00\n    /* \"@chainlink/contracts@1.1.0/src/v0.8/shared/access/ConfirmedOwnerWithProposal.sol\":598:620  newOwner != address(0) */\n  0xffffffffffffffffffffffffffffffffffffffff\n  and\n    /* \"@chainlink/contracts@1.1.0/src/v0.8/shared/access/ConfirmedOwnerWithProposal.sol\":598:606  newOwner */\n  dup3\n    /* \"@chainlink/contracts@1.1.0/src/v0.8/shared/access/ConfirmedOwnerWithProposal.sol\":598:620  newOwner != address(0) */\n  0xffffffffffffffffffffffffffffffffffffffff\n  and\n  eq\n  iszero\n    /* \"@chainlink/contracts@1.1.0/src/v0.8/shared/access/ConfirmedOwnerWithProposal.sol\":590:649  require(newOwner != address(0), \"Cannot set owner to zero\") */\n  tag_8\n  jumpi\n  mload(0x40)\n  0x08c379a000000000000000000000000000000000000000000000000000000000\n  dup2\n  mstore\n  0x04\n  add\n  tag_9\n  swap1\n  tag_10\n  jump\t// in\ntag_9:\n  mload(0x40)\n  dup1\n  swap2\n  sub\n  swap1\n  revert\ntag_8:\n    /* \"@chainlink/contracts@1.1.0/src/v0.8/shared/access/ConfirmedOwnerWithProposal.sol\":666:674  newOwner */\n  dup2\n    /* \"@chainlink/contracts@1.1.0/src/v0.8/shared/access/ConfirmedOwnerWithProposal.sol\":656:663  s_owner */\n  0x00\n  dup1\n    /* \"@chainlink/contracts@1.1.0/src/v0.8/shared/access/ConfirmedOwnerWithProposal.sol\":656:674  s_owner = newOwner */\n  0x0100\n  exp\n  dup2\n  sload\n  dup2\n  0xffffffffffffffffffffffffffffffffffffffff\n  mul\n  not\n  and\n  swap1\n  dup4\n  0xffffffffffffffffffffffffffffffffffffffff\n  and\n  mul\n  or\n  swap1\n  sstore\n  pop\n    /* \"@chainlink/contracts@1.1.0/src/v0.8/shared/access/ConfirmedOwnerWithProposal.sol\":708:709  0 */\n  0x00\n    /* \"@chainlink/contracts@1.1.0/src/v0.8/shared/access/ConfirmedOwnerWithProposal.sol\":684:710  pendingOwner != address(0) */\n  0xffffffffffffffffffffffffffffffffffffffff\n  and\n    /* \"@chainlink/contracts@1.1.0/src/v0.8/shared/access/ConfirmedOwnerWithProposal.sol\":684:696  pendingOwner */\n  dup2\n    /* \"@chainlink/contracts@1.1.0/src/v0.8/shared/access/ConfirmedOwnerWithProposal.sol\":684:710  pendingOwner != address(0) */\n  0xffffffffffffffffffffffffffffffffffffffff\n  and\n  eq\n    /* \"@chainlink/contracts@1.1.0/src/v0.8/shared/access/ConfirmedOwnerWithProposal.sol\":680:759  if (pendingOwner != address(0)) {... */\n  tag_11\n  jumpi\n    /* \"@chainlink/contracts@1.1.0/src/v0.8/shared/access/ConfirmedOwnerWithProposal.sol\":720:752  _transferOwnership(pendingOwner) */\n  tag_12\n    /* \"@chainlink/contracts@1.1.0/src/v0.8/shared/access/ConfirmedOwnerWithProposal.sol\":739:751  pendingOwner */\n  dup2\n    /* \"@chainlink/contracts@1.1.0/src/v0.8/shared/access/ConfirmedOwnerWithProposal.sol\":720:738  _transferOwnership */\n  shl(0x20, tag_13)\n    /* \"@chainlink/contracts@1.1.0/src/v0.8/shared/access/ConfirmedOwnerWithProposal.sol\":720:752  _transferOwnership(pendingOwner) */\n  0x20\n  shr\n  jump\t// in\ntag_12:\n    /* \"@chainlink/contracts@1.1.0/src/v0.8/shared/access/ConfirmedOwnerWithProposal.sol\":680:759  if (pendingOwner != address(0)) {... */\ntag_11:\n    /* \"@chainlink/contracts@1.1.0/src/v0.8/shared/access/ConfirmedOwnerWithProposal.sol\":481:763  constructor(address newOwner, address pendingOwner) {... */\n  pop\n  pop\n    /* \"@chainlink/contracts@1.1.0/src/v0.8/shared/access/ConfirmedOwner.sol\":298:379  constructor(address newOwner) ConfirmedOwnerWithProposal(newOwner, address(0)) {} */\n  pop\n    /* \"StekcitBM.sol\":850:4198  contract StekcitBM is... */\n  jump(tag_16)\n    /* \"@chainlink/contracts@1.1.0/src/v0.8/shared/access/ConfirmedOwnerWithProposal.sol\":1536:1775  function _transferOwnership(address to) private {... */\ntag_13:\n    /* \"@chainlink/contracts@1.1.0/src/v0.8/shared/access/ConfirmedOwnerWithProposal.sol\":1655:1665  msg.sender */\n  caller\n    /* \"@chainlink/contracts@1.1.0/src/v0.8/shared/access/ConfirmedOwnerWithProposal.sol\":1649:1665  to != msg.sender */\n  0xffffffffffffffffffffffffffffffffffffffff\n  and\n    /* \"@chainlink/contracts@1.1.0/src/v0.8/shared/access/ConfirmedOwnerWithProposal.sol\":1649:1651  to */\n  dup2\n    /* \"@chainlink/contracts@1.1.0/src/v0.8/shared/access/ConfirmedOwnerWithProposal.sol\":1649:1665  to != msg.sender */\n  0xffffffffffffffffffffffffffffffffffffffff\n  and\n  eq\n  iszero\n    /* \"@chainlink/contracts@1.1.0/src/v0.8/shared/access/ConfirmedOwnerWithProposal.sol\":1641:1693  require(to != msg.sender, \"Cannot transfer to self\") */\n  tag_18\n  jumpi\n  mload(0x40)\n  0x08c379a000000000000000000000000000000000000000000000000000000000\n  dup2\n  mstore\n  0x04\n  add\n  tag_19\n  swap1\n  tag_20\n  jump\t// in\ntag_19:\n  mload(0x40)\n  dup1\n  swap2\n  sub\n  swap1\n  revert\ntag_18:\n    /* \"@chainlink/contracts@1.1.0/src/v0.8/shared/access/ConfirmedOwnerWithProposal.sol\":1717:1719  to */\n  dup1\n    /* \"@chainlink/contracts@1.1.0/src/v0.8/shared/access/ConfirmedOwnerWithProposal.sol\":1700:1714  s_pendingOwner */\n  0x01\n  0x00\n    /* \"@chainlink/contracts@1.1.0/src/v0.8/shared/access/ConfirmedOwnerWithProposal.sol\":1700:1719  s_pendingOwner = to */\n  0x0100\n  exp\n  dup2\n  sload\n  dup2\n  0xffffffffffffffffffffffffffffffffffffffff\n  mul\n  not\n  and\n  swap1\n  dup4\n  0xffffffffffffffffffffffffffffffffffffffff\n  and\n  mul\n  or\n  swap1\n  sstore\n  pop\n    /* \"@chainlink/contracts@1.1.0/src/v0.8/shared/access/ConfirmedOwnerWithProposal.sol\":1767:1769  to */\n  dup1\n    /* \"@chainlink/contracts@1.1.0/src/v0.8/shared/access/ConfirmedOwnerWithProposal.sol\":1731:1770  OwnershipTransferRequested(s_owner, to) */\n  0xffffffffffffffffffffffffffffffffffffffff\n  and\n    /* \"@chainlink/contracts@1.1.0/src/v0.8/shared/access/ConfirmedOwnerWithProposal.sol\":1758:1765  s_owner */\n  0x00\n  dup1\n  sload\n  swap1\n  0x0100\n  exp\n  swap1\n  div\n  0xffffffffffffffffffffffffffffffffffffffff\n  and\n    /* \"@chainlink/contracts@1.1.0/src/v0.8/shared/access/ConfirmedOwnerWithProposal.sol\":1731:1770  OwnershipTransferRequested(s_owner, to) */\n  0xffffffffffffffffffffffffffffffffffffffff\n  and\n  0xed8889f560326eb138920d842192f0eb3dd22b4f139c87a2c57538e05bae1278\n  mload(0x40)\n  mload(0x40)\n  dup1\n  swap2\n  sub\n  swap1\n  log3\n    /* \"@chainlink/contracts@1.1.0/src/v0.8/shared/access/ConfirmedOwnerWithProposal.sol\":1536:1775  function _transferOwnership(address to) private {... */\n  pop\n  jump\t// out\n    /* \"#utility.yul\":7:176   */\ntag_21:\n    /* \"#utility.yul\":91:102   */\n  0x00\n    /* \"#utility.yul\":125:131   */\n  dup3\n    /* \"#utility.yul\":120:123   */\n  dup3\n    /* \"#utility.yul\":113:132   */\n  mstore\n    /* \"#utility.yul\":165:169   */\n  0x20\n    /* \"#utility.yul\":160:163   */\n  dup3\n    /* \"#utility.yul\":156:170   */\n  add\n    /* \"#utility.yul\":141:170   */\n  swap1\n  pop\n    /* \"#utility.yul\":7:176   */\n  swap3\n  swap2\n  pop\n  pop\n  jump\t// out\n    /* \"#utility.yul\":182:356   */\ntag_22:\n    /* \"#utility.yul\":322:348   */\n  0x43616e6e6f7420736574206f776e657220746f207a65726f0000000000000000\n    /* \"#utility.yul\":318:319   */\n  0x00\n    /* \"#utility.yul\":310:316   */\n  dup3\n    /* \"#utility.yul\":306:320   */\n  add\n    /* \"#utility.yul\":299:349   */\n  mstore\n    /* \"#utility.yul\":182:356   */\n  pop\n  jump\t// out\n    /* \"#utility.yul\":362:728   */\ntag_23:\n    /* \"#utility.yul\":504:507   */\n  0x00\n    /* \"#utility.yul\":525:592   */\n  tag_30\n    /* \"#utility.yul\":589:591   */\n  0x18\n    /* \"#utility.yul\":584:587   */\n  dup4\n    /* \"#utility.yul\":525:592   */\n  tag_21\n  jump\t// in\ntag_30:\n    /* \"#utility.yul\":518:592   */\n  swap2\n  pop\n    /* \"#utility.yul\":601:694   */\n  tag_31\n    /* \"#utility.yul\":690:693   */\n  dup3\n    /* \"#utility.yul\":601:694   */\n  tag_22\n  jump\t// in\ntag_31:\n    /* \"#utility.yul\":719:721   */\n  0x20\n    /* \"#utility.yul\":714:717   */\n  dup3\n    /* \"#utility.yul\":710:722   */\n  add\n    /* \"#utility.yul\":703:722   */\n  swap1\n  pop\n    /* \"#utility.yul\":362:728   */\n  swap2\n  swap1\n  pop\n  jump\t// out\n    /* \"#utility.yul\":734:1153   */\ntag_10:\n    /* \"#utility.yul\":900:904   */\n  0x00\n    /* \"#utility.yul\":938:940   */\n  0x20\n    /* \"#utility.yul\":927:936   */\n  dup3\n    /* \"#utility.yul\":923:941   */\n  add\n    /* \"#utility.yul\":915:941   */\n  swap1\n  pop\n    /* \"#utility.yul\":987:996   */\n  dup2\n    /* \"#utility.yul\":981:985   */\n  dup2\n    /* \"#utility.yul\":977:997   */\n  sub\n    /* \"#utility.yul\":973:974   */\n  0x00\n    /* \"#utility.yul\":962:971   */\n  dup4\n    /* \"#utility.yul\":958:975   */\n  add\n    /* \"#utility.yul\":951:998   */\n  mstore\n    /* \"#utility.yul\":1015:1146   */\n  tag_33\n    /* \"#utility.yul\":1141:1145   */\n  dup2\n    /* \"#utility.yul\":1015:1146   */\n  tag_23\n  jump\t// in\ntag_33:\n    /* \"#utility.yul\":1007:1146   */\n  swap1\n  pop\n    /* \"#utility.yul\":734:1153   */\n  swap2\n  swap1\n  pop\n  jump\t// out\n    /* \"#utility.yul\":1159:1332   */\ntag_24:\n    /* \"#utility.yul\":1299:1324   */\n  0x43616e6e6f74207472616e7366657220746f2073656c66000000000000000000\n    /* \"#utility.yul\":1295:1296   */\n  0x00\n    /* \"#utility.yul\":1287:1293   */\n  dup3\n    /* \"#utility.yul\":1283:1297   */\n  add\n    /* \"#utility.yul\":1276:1325   */\n  mstore\n    /* \"#utility.yul\":1159:1332   */\n  pop\n  jump\t// out\n    /* \"#utility.yul\":1338:1704   */\ntag_25:\n    /* \"#utility.yul\":1480:1483   */\n  0x00\n    /* \"#utility.yul\":1501:1568   */\n  tag_36\n    /* \"#utility.yul\":1565:1567   */\n  0x17\n    /* \"#utility.yul\":1560:1563   */\n  dup4\n    /* \"#utility.yul\":1501:1568   */\n  tag_21\n  jump\t// in\ntag_36:\n    /* \"#utility.yul\":1494:1568   */\n  swap2\n  pop\n    /* \"#utility.yul\":1577:1670   */\n  tag_37\n    /* \"#utility.yul\":1666:1669   */\n  dup3\n    /* \"#utility.yul\":1577:1670   */\n  tag_24\n  jump\t// in\ntag_37:\n    /* \"#utility.yul\":1695:1697   */\n  0x20\n    /* \"#utility.yul\":1690:1693   */\n  dup3\n    /* \"#utility.yul\":1686:1698   */\n  add\n    /* \"#utility.yul\":1679:1698   */\n  swap1\n  pop\n    /* \"#utility.yul\":1338:1704   */\n  swap2\n  swap1\n  pop\n  jump\t// out\n    /* \"#utility.yul\":1710:2129   */\ntag_20:\n    /* \"#utility.yul\":1876:1880   */\n  0x00\n    /* \"#utility.yul\":1914:1916   */\n  0x20\n    /* \"#utility.yul\":1903:1912   */\n  dup3\n    /* \"#utility.yul\":1899:1917   */\n  add\n    /* \"#utility.yul\":1891:1917   */\n  swap1\n  pop\n    /* \"#utility.yul\":1963:1972   */\n  dup2\n    /* \"#utility.yul\":1957:1961   */\n  dup2\n    /* \"#utility.yul\":1953:1973   */\n  sub\n    /* \"#utility.yul\":1949:1950   */\n  0x00\n    /* \"#utility.yul\":1938:1947   */\n  dup4\n    /* \"#utility.yul\":1934:1951   */\n  add\n    /* \"#utility.yul\":1927:1974   */\n  mstore\n    /* \"#utility.yul\":1991:2122   */\n  tag_39\n    /* \"#utility.yul\":2117:2121   */\n  dup2\n    /* \"#utility.yul\":1991:2122   */\n  tag_25\n  jump\t// in\ntag_39:\n    /* \"#utility.yul\":1983:2122   */\n  swap1\n  pop\n    /* \"#utility.yul\":1710:2129   */\n  swap2\n  swap1\n  pop\n  jump\t// out\n    /* \"StekcitBM.sol\":850:4198  contract StekcitBM is... */\ntag_16:\n  mload(0x80)\n  mload(0xa0)\n  codecopy(0x00, dataOffset(sub_0), dataSize(sub_0))\n  0x00\n  assignImmutable(\"0xf6cb0138da7c8b3468e7e4d8ba389a3263d4efb90e59a6ce914e87b867b16a00\")\n  0x00\n  assignImmutable(\"0x064aab4cf973af3102587bae83caeab28cf75517d40727c9b952f0d14fb521fa\")\n  return(0x00, dataSize(sub_0))\nstop\n\nsub_0: assembly {\n        /* \"StekcitBM.sol\":850:4198  contract StekcitBM is... */\n      mstore(0x40, 0x80)\n      callvalue\n      dup1\n      iszero\n      tag_1\n      jumpi\n      0x00\n      dup1\n      revert\n    tag_1:\n      pop\n      jumpi(tag_2, lt(calldatasize, 0x04))\n      shr(0xe0, calldataload(0x00))\n      dup1\n      0xa168fa89\n      gt\n      tag_13\n      jumpi\n      dup1\n      0xa168fa89\n      eq\n      tag_8\n      jumpi\n      dup1\n      0xd8a4676f\n      eq\n      tag_9\n      jumpi\n      dup1\n      0xe0c86289\n      eq\n      tag_10\n      jumpi\n      dup1\n      0xf2fde38b\n      eq\n      tag_11\n      jumpi\n      dup1\n      0xfc2a88c3\n      eq\n      tag_12\n      jumpi\n      jump(tag_2)\n    tag_13:\n      dup1\n      0x1fe543e3\n      eq\n      tag_3\n      jumpi\n      dup1\n      0x79ba5097\n      eq\n      tag_4\n      jumpi\n      dup1\n      0x8796ba8c\n      eq\n      tag_5\n      jumpi\n      dup1\n      0x8da5cb5b\n      eq\n      tag_6\n      jumpi\n      dup1\n      0x8dc654a2\n      eq\n      tag_7\n      jumpi\n    tag_2:\n      0x00\n      dup1\n      revert\n        /* \"@chainlink/contracts@1.1.0/src/v0.8/vrf/VRFV2WrapperConsumerBase.sol\":3804:4088  function rawFulfillRandomWords(uint256 _requestId, uint256[] memory _randomWords) external {... */\n    tag_3:\n      tag_14\n      0x04\n      dup1\n      calldatasize\n      sub\n      dup2\n      add\n      swap1\n      tag_15\n      swap2\n      swap1\n      tag_16\n      jump\t// in\n    tag_15:\n      tag_17\n      jump\t// in\n    tag_14:\n      stop\n        /* \"@chainlink/contracts@1.1.0/src/v0.8/shared/access/ConfirmedOwnerWithProposal.sol\":1026:1342  function acceptOwnership() external override {... */\n    tag_4:\n      tag_18\n      tag_19\n      jump\t// in\n    tag_18:\n      stop\n        /* \"StekcitBM.sol\":1417:1444  uint256[] public requestIds */\n    tag_5:\n      tag_20\n      0x04\n      dup1\n      calldatasize\n      sub\n      dup2\n      add\n      swap1\n      tag_21\n      swap2\n      swap1\n      tag_22\n      jump\t// in\n    tag_21:\n      tag_23\n      jump\t// in\n    tag_20:\n      mload(0x40)\n      tag_24\n      swap2\n      swap1\n      tag_25\n      jump\t// in\n    tag_24:\n      mload(0x40)\n      dup1\n      swap2\n      sub\n      swap1\n      return\n        /* \"@chainlink/contracts@1.1.0/src/v0.8/shared/access/ConfirmedOwnerWithProposal.sol\":1382:1463  function owner() public view override returns (address) {... */\n    tag_6:\n      tag_26\n      tag_27\n      jump\t// in\n    tag_26:\n      mload(0x40)\n      tag_28\n      swap2\n      swap1\n      tag_29\n      jump\t// in\n    tag_28:\n      mload(0x40)\n      dup1\n      swap2\n      sub\n      swap1\n      return\n        /* \"StekcitBM.sol\":3950:4196  function withdrawLink() public onlyOwner {... */\n    tag_7:\n      tag_30\n      tag_31\n      jump\t// in\n    tag_30:\n      stop\n        /* \"StekcitBM.sol\":1292:1351  mapping(uint256 => RequestStatus)... */\n    tag_8:\n      tag_32\n      0x04\n      dup1\n      calldatasize\n      sub\n      dup2\n      add\n      swap1\n      tag_33\n      swap2\n      swap1\n      tag_22\n      jump\t// in\n    tag_33:\n      tag_34\n      jump\t// in\n    tag_32:\n      mload(0x40)\n      tag_35\n      swap3\n      swap2\n      swap1\n      tag_36\n      jump\t// in\n    tag_35:\n      mload(0x40)\n      dup1\n      swap2\n      sub\n      swap1\n      return\n        /* \"StekcitBM.sol\":3490:3873  function getRequestStatus(... */\n    tag_9:\n      tag_37\n      0x04\n      dup1\n      calldatasize\n      sub\n      dup2\n      add\n      swap1\n      tag_38\n      swap2\n      swap1\n      tag_22\n      jump\t// in\n    tag_38:\n      tag_39\n      jump\t// in\n    tag_37:\n      mload(0x40)\n      tag_40\n      swap4\n      swap3\n      swap2\n      swap1\n      tag_41\n      jump\t// in\n    tag_40:\n      mload(0x40)\n      dup1\n      swap2\n      sub\n      swap1\n      return\n        /* \"StekcitBM.sol\":2444:3041  function requestRandomWords()... */\n    tag_10:\n      tag_42\n      tag_43\n      jump\t// in\n    tag_42:\n      mload(0x40)\n      tag_44\n      swap2\n      swap1\n      tag_25\n      jump\t// in\n    tag_44:\n      mload(0x40)\n      dup1\n      swap2\n      sub\n      swap1\n      return\n        /* \"@chainlink/contracts@1.1.0/src/v0.8/shared/access/ConfirmedOwnerWithProposal.sol\":847:945  function transferOwnership(address to) public override onlyOwner {... */\n    tag_11:\n      tag_45\n      0x04\n      dup1\n      calldatasize\n      sub\n      dup2\n      add\n      swap1\n      tag_46\n      swap2\n      swap1\n      tag_47\n      jump\t// in\n    tag_46:\n      tag_48\n      jump\t// in\n    tag_45:\n      stop\n        /* \"StekcitBM.sol\":1450:1478  uint256 public lastRequestId */\n    tag_12:\n      tag_49\n      tag_50\n      jump\t// in\n    tag_49:\n      mload(0x40)\n      tag_51\n      swap2\n      swap1\n      tag_25\n      jump\t// in\n    tag_51:\n      mload(0x40)\n      dup1\n      swap2\n      sub\n      swap1\n      return\n        /* \"@chainlink/contracts@1.1.0/src/v0.8/vrf/VRFV2WrapperConsumerBase.sol\":3804:4088  function rawFulfillRandomWords(uint256 _requestId, uint256[] memory _randomWords) external {... */\n    tag_17:\n        /* \"@chainlink/contracts@1.1.0/src/v0.8/vrf/VRFV2WrapperConsumerBase.sol\":3982:3996  VRF_V2_WRAPPER */\n      immutable(\"0xf6cb0138da7c8b3468e7e4d8ba389a3263d4efb90e59a6ce914e87b867b16a00\")\n        /* \"@chainlink/contracts@1.1.0/src/v0.8/vrf/VRFV2WrapperConsumerBase.sol\":3960:3997  msg.sender == address(VRF_V2_WRAPPER) */\n      0xffffffffffffffffffffffffffffffffffffffff\n      and\n        /* \"@chainlink/contracts@1.1.0/src/v0.8/vrf/VRFV2WrapperConsumerBase.sol\":3960:3970  msg.sender */\n      caller\n        /* \"@chainlink/contracts@1.1.0/src/v0.8/vrf/VRFV2WrapperConsumerBase.sol\":3960:3997  msg.sender == address(VRF_V2_WRAPPER) */\n      0xffffffffffffffffffffffffffffffffffffffff\n      and\n      eq\n        /* \"@chainlink/contracts@1.1.0/src/v0.8/vrf/VRFV2WrapperConsumerBase.sol\":3952:4033  require(msg.sender == address(VRF_V2_WRAPPER), \"only VRF V2 wrapper can fulfill\") */\n      tag_53\n      jumpi\n      mload(0x40)\n      0x08c379a000000000000000000000000000000000000000000000000000000000\n      dup2\n      mstore\n      0x04\n      add\n      tag_54\n      swap1\n      tag_55\n      jump\t// in\n    tag_54:\n      mload(0x40)\n      dup1\n      swap2\n      sub\n      swap1\n      revert\n    tag_53:\n        /* \"@chainlink/contracts@1.1.0/src/v0.8/vrf/VRFV2WrapperConsumerBase.sol\":4039:4083  fulfillRandomWords(_requestId, _randomWords) */\n      tag_56\n        /* \"@chainlink/contracts@1.1.0/src/v0.8/vrf/VRFV2WrapperConsumerBase.sol\":4058:4068  _requestId */\n      dup3\n        /* \"@chainlink/contracts@1.1.0/src/v0.8/vrf/VRFV2WrapperConsumerBase.sol\":4070:4082  _randomWords */\n      dup3\n        /* \"@chainlink/contracts@1.1.0/src/v0.8/vrf/VRFV2WrapperConsumerBase.sol\":4039:4057  fulfillRandomWords */\n      tag_57\n        /* \"@chainlink/contracts@1.1.0/src/v0.8/vrf/VRFV2WrapperConsumerBase.sol\":4039:4083  fulfillRandomWords(_requestId, _randomWords) */\n      jump\t// in\n    tag_56:\n        /* \"@chainlink/contracts@1.1.0/src/v0.8/vrf/VRFV2WrapperConsumerBase.sol\":3804:4088  function rawFulfillRandomWords(uint256 _requestId, uint256[] memory _randomWords) external {... */\n      pop\n      pop\n      jump\t// out\n        /* \"@chainlink/contracts@1.1.0/src/v0.8/shared/access/ConfirmedOwnerWithProposal.sol\":1026:1342  function acceptOwnership() external override {... */\n    tag_19:\n        /* \"@chainlink/contracts@1.1.0/src/v0.8/shared/access/ConfirmedOwnerWithProposal.sol\":1150:1164  s_pendingOwner */\n      0x01\n      0x00\n      swap1\n      sload\n      swap1\n      0x0100\n      exp\n      swap1\n      div\n      0xffffffffffffffffffffffffffffffffffffffff\n      and\n        /* \"@chainlink/contracts@1.1.0/src/v0.8/shared/access/ConfirmedOwnerWithProposal.sol\":1136:1164  msg.sender == s_pendingOwner */\n      0xffffffffffffffffffffffffffffffffffffffff\n      and\n        /* \"@chainlink/contracts@1.1.0/src/v0.8/shared/access/ConfirmedOwnerWithProposal.sol\":1136:1146  msg.sender */\n      caller\n        /* \"@chainlink/contracts@1.1.0/src/v0.8/shared/access/ConfirmedOwnerWithProposal.sol\":1136:1164  msg.sender == s_pendingOwner */\n      0xffffffffffffffffffffffffffffffffffffffff\n      and\n      eq\n        /* \"@chainlink/contracts@1.1.0/src/v0.8/shared/access/ConfirmedOwnerWithProposal.sol\":1128:1191  require(msg.sender == s_pendingOwner, \"Must be proposed owner\") */\n      tag_59\n      jumpi\n      mload(0x40)\n      0x08c379a000000000000000000000000000000000000000000000000000000000\n      dup2\n      mstore\n      0x04\n      add\n      tag_60\n      swap1\n      tag_61\n      jump\t// in\n    tag_60:\n      mload(0x40)\n      dup1\n      swap2\n      sub\n      swap1\n      revert\n    tag_59:\n        /* \"@chainlink/contracts@1.1.0/src/v0.8/shared/access/ConfirmedOwnerWithProposal.sol\":1198:1214  address oldOwner */\n      0x00\n        /* \"@chainlink/contracts@1.1.0/src/v0.8/shared/access/ConfirmedOwnerWithProposal.sol\":1217:1224  s_owner */\n      dup1\n      0x00\n      swap1\n      sload\n      swap1\n      0x0100\n      exp\n      swap1\n      div\n      0xffffffffffffffffffffffffffffffffffffffff\n      and\n        /* \"@chainlink/contracts@1.1.0/src/v0.8/shared/access/ConfirmedOwnerWithProposal.sol\":1198:1224  address oldOwner = s_owner */\n      swap1\n      pop\n        /* \"@chainlink/contracts@1.1.0/src/v0.8/shared/access/ConfirmedOwnerWithProposal.sol\":1240:1250  msg.sender */\n      caller\n        /* \"@chainlink/contracts@1.1.0/src/v0.8/shared/access/ConfirmedOwnerWithProposal.sol\":1230:1237  s_owner */\n      0x00\n      dup1\n        /* \"@chainlink/contracts@1.1.0/src/v0.8/shared/access/ConfirmedOwnerWithProposal.sol\":1230:1250  s_owner = msg.sender */\n      0x0100\n      exp\n      dup2\n      sload\n      dup2\n      0xffffffffffffffffffffffffffffffffffffffff\n      mul\n      not\n      and\n      swap1\n      dup4\n      0xffffffffffffffffffffffffffffffffffffffff\n      and\n      mul\n      or\n      swap1\n      sstore\n      pop\n        /* \"@chainlink/contracts@1.1.0/src/v0.8/shared/access/ConfirmedOwnerWithProposal.sol\":1281:1282  0 */\n      0x00\n        /* \"@chainlink/contracts@1.1.0/src/v0.8/shared/access/ConfirmedOwnerWithProposal.sol\":1256:1270  s_pendingOwner */\n      0x01\n      0x00\n        /* \"@chainlink/contracts@1.1.0/src/v0.8/shared/access/ConfirmedOwnerWithProposal.sol\":1256:1283  s_pendingOwner = address(0) */\n      0x0100\n      exp\n      dup2\n      sload\n      dup2\n      0xffffffffffffffffffffffffffffffffffffffff\n      mul\n      not\n      and\n      swap1\n      dup4\n      0xffffffffffffffffffffffffffffffffffffffff\n      and\n      mul\n      or\n      swap1\n      sstore\n      pop\n        /* \"@chainlink/contracts@1.1.0/src/v0.8/shared/access/ConfirmedOwnerWithProposal.sol\":1326:1336  msg.sender */\n      caller\n        /* \"@chainlink/contracts@1.1.0/src/v0.8/shared/access/ConfirmedOwnerWithProposal.sol\":1295:1337  OwnershipTransferred(oldOwner, msg.sender) */\n      0xffffffffffffffffffffffffffffffffffffffff\n      and\n        /* \"@chainlink/contracts@1.1.0/src/v0.8/shared/access/ConfirmedOwnerWithProposal.sol\":1316:1324  oldOwner */\n      dup2\n        /* \"@chainlink/contracts@1.1.0/src/v0.8/shared/access/ConfirmedOwnerWithProposal.sol\":1295:1337  OwnershipTransferred(oldOwner, msg.sender) */\n      0xffffffffffffffffffffffffffffffffffffffff\n      and\n      0x8be0079c531659141344cd1fd0a4f28419497f9722a3daafe3b4186f6b6457e0\n      mload(0x40)\n      mload(0x40)\n      dup1\n      swap2\n      sub\n      swap1\n      log3\n        /* \"@chainlink/contracts@1.1.0/src/v0.8/shared/access/ConfirmedOwnerWithProposal.sol\":1071:1342  {... */\n      pop\n        /* \"@chainlink/contracts@1.1.0/src/v0.8/shared/access/ConfirmedOwnerWithProposal.sol\":1026:1342  function acceptOwnership() external override {... */\n      jump\t// out\n        /* \"StekcitBM.sol\":1417:1444  uint256[] public requestIds */\n    tag_23:\n      0x03\n      dup2\n      dup2\n      sload\n      dup2\n      lt\n      tag_62\n      jumpi\n      0x00\n      dup1\n      revert\n    tag_62:\n      swap1\n      0x00\n      mstore\n      keccak256(0x00, 0x20)\n      add\n      0x00\n      swap2\n      pop\n      swap1\n      pop\n      sload\n      dup2\n      jump\t// out\n        /* \"@chainlink/contracts@1.1.0/src/v0.8/shared/access/ConfirmedOwnerWithProposal.sol\":1382:1463  function owner() public view override returns (address) {... */\n    tag_27:\n        /* \"@chainlink/contracts@1.1.0/src/v0.8/shared/access/ConfirmedOwnerWithProposal.sol\":1429:1436  address */\n      0x00\n        /* \"@chainlink/contracts@1.1.0/src/v0.8/shared/access/ConfirmedOwnerWithProposal.sol\":1451:1458  s_owner */\n      dup1\n      0x00\n      swap1\n      sload\n      swap1\n      0x0100\n      exp\n      swap1\n      div\n      0xffffffffffffffffffffffffffffffffffffffff\n      and\n        /* \"@chainlink/contracts@1.1.0/src/v0.8/shared/access/ConfirmedOwnerWithProposal.sol\":1444:1458  return s_owner */\n      swap1\n      pop\n        /* \"@chainlink/contracts@1.1.0/src/v0.8/shared/access/ConfirmedOwnerWithProposal.sol\":1382:1463  function owner() public view override returns (address) {... */\n      swap1\n      jump\t// out\n        /* \"StekcitBM.sol\":3950:4196  function withdrawLink() public onlyOwner {... */\n    tag_31:\n        /* \"@chainlink/contracts@1.1.0/src/v0.8/shared/access/ConfirmedOwnerWithProposal.sol\":2075:2095  _validateOwnership() */\n      tag_66\n        /* \"@chainlink/contracts@1.1.0/src/v0.8/shared/access/ConfirmedOwnerWithProposal.sol\":2075:2093  _validateOwnership */\n      tag_67\n        /* \"@chainlink/contracts@1.1.0/src/v0.8/shared/access/ConfirmedOwnerWithProposal.sol\":2075:2095  _validateOwnership() */\n      jump\t// in\n    tag_66:\n        /* \"StekcitBM.sol\":4001:4024  LinkTokenInterface link */\n      0x00\n        /* \"StekcitBM.sol\":4046:4057  linkAddress */\n      0x05\n      0x0a\n      swap1\n      sload\n      swap1\n      0x0100\n      exp\n      swap1\n      div\n      0xffffffffffffffffffffffffffffffffffffffff\n      and\n        /* \"StekcitBM.sol\":4001:4058  LinkTokenInterface link = LinkTokenInterface(linkAddress) */\n      swap1\n      pop\n        /* \"StekcitBM.sol\":4089:4093  link */\n      dup1\n        /* \"StekcitBM.sol\":4089:4102  link.transfer */\n      0xffffffffffffffffffffffffffffffffffffffff\n      and\n      0xa9059cbb\n        /* \"StekcitBM.sol\":4103:4113  msg.sender */\n      caller\n        /* \"StekcitBM.sol\":4115:4119  link */\n      dup4\n        /* \"StekcitBM.sol\":4115:4129  link.balanceOf */\n      0xffffffffffffffffffffffffffffffffffffffff\n      and\n      0x70a08231\n        /* \"StekcitBM.sol\":4138:4142  this */\n      address\n        /* \"StekcitBM.sol\":4115:4144  link.balanceOf(address(this)) */\n      mload(0x40)\n      dup3\n      0xffffffff\n      and\n      0xe0\n      shl\n      dup2\n      mstore\n      0x04\n      add\n      tag_69\n      swap2\n      swap1\n      tag_29\n      jump\t// in\n    tag_69:\n      0x20\n      mload(0x40)\n      dup1\n      dup4\n      sub\n      dup2\n      dup7\n      gas\n      staticcall\n      iszero\n      dup1\n      iszero\n      tag_71\n      jumpi\n      returndatasize\n      0x00\n      dup1\n      returndatacopy\n      revert(0x00, returndatasize)\n    tag_71:\n      pop\n      pop\n      pop\n      pop\n      mload(0x40)\n      returndatasize\n      not(0x1f)\n      0x1f\n      dup3\n      add\n      and\n      dup3\n      add\n      dup1\n      0x40\n      mstore\n      pop\n      dup2\n      add\n      swap1\n      tag_72\n      swap2\n      swap1\n      tag_73\n      jump\t// in\n    tag_72:\n        /* \"StekcitBM.sol\":4089:4145  link.transfer(msg.sender, link.balanceOf(address(this))) */\n      mload(0x40)\n      dup4\n      0xffffffff\n      and\n      0xe0\n      shl\n      dup2\n      mstore\n      0x04\n      add\n      tag_74\n      swap3\n      swap2\n      swap1\n      tag_75\n      jump\t// in\n    tag_74:\n      0x20\n      mload(0x40)\n      dup1\n      dup4\n      sub\n      dup2\n      0x00\n      dup8\n      gas\n      call\n      iszero\n      dup1\n      iszero\n      tag_77\n      jumpi\n      returndatasize\n      0x00\n      dup1\n      returndatacopy\n      revert(0x00, returndatasize)\n    tag_77:\n      pop\n      pop\n      pop\n      pop\n      mload(0x40)\n      returndatasize\n      not(0x1f)\n      0x1f\n      dup3\n      add\n      and\n      dup3\n      add\n      dup1\n      0x40\n      mstore\n      pop\n      dup2\n      add\n      swap1\n      tag_78\n      swap2\n      swap1\n      tag_79\n      jump\t// in\n    tag_78:\n        /* \"StekcitBM.sol\":4068:4189  require(... */\n      tag_80\n      jumpi\n      mload(0x40)\n      0x08c379a000000000000000000000000000000000000000000000000000000000\n      dup2\n      mstore\n      0x04\n      add\n      tag_81\n      swap1\n      tag_82\n      jump\t// in\n    tag_81:\n      mload(0x40)\n      dup1\n      swap2\n      sub\n      swap1\n      revert\n    tag_80:\n        /* \"StekcitBM.sol\":3991:4196  {... */\n      pop\n        /* \"StekcitBM.sol\":3950:4196  function withdrawLink() public onlyOwner {... */\n      jump\t// out\n        /* \"StekcitBM.sol\":1292:1351  mapping(uint256 => RequestStatus)... */\n    tag_34:\n      mstore(0x20, 0x02)\n      dup1\n      0x00\n      mstore\n      keccak256(0x00, 0x40)\n      0x00\n      swap2\n      pop\n      swap1\n      pop\n      dup1\n      0x00\n      add\n      sload\n      swap1\n      dup1\n      0x01\n      add\n      0x00\n      swap1\n      sload\n      swap1\n      0x0100\n      exp\n      swap1\n      div\n      0xff\n      and\n      swap1\n      pop\n      dup3\n      jump\t// out\n        /* \"StekcitBM.sol\":3490:3873  function getRequestStatus(... */\n    tag_39:\n        /* \"StekcitBM.sol\":3597:3609  uint256 paid */\n      0x00\n        /* \"StekcitBM.sol\":3611:3625  bool fulfilled */\n      dup1\n        /* \"StekcitBM.sol\":3627:3655  uint256[] memory randomWords */\n      0x60\n        /* \"StekcitBM.sol\":3709:3710  0 */\n      0x00\n        /* \"StekcitBM.sol\":3679:3689  s_requests */\n      0x02\n        /* \"StekcitBM.sol\":3679:3701  s_requests[_requestId] */\n      0x00\n        /* \"StekcitBM.sol\":3690:3700  _requestId */\n      dup7\n        /* \"StekcitBM.sol\":3679:3701  s_requests[_requestId] */\n      dup2\n      mstore\n      0x20\n      add\n      swap1\n      dup2\n      mstore\n      0x20\n      add\n      0x00\n      keccak256\n        /* \"StekcitBM.sol\":3679:3706  s_requests[_requestId].paid */\n      0x00\n      add\n      sload\n        /* \"StekcitBM.sol\":3679:3710  s_requests[_requestId].paid > 0 */\n      gt\n        /* \"StekcitBM.sol\":3671:3732  require(s_requests[_requestId].paid > 0, \"request not found\") */\n      tag_84\n      jumpi\n      mload(0x40)\n      0x08c379a000000000000000000000000000000000000000000000000000000000\n      dup2\n      mstore\n      0x04\n      add\n      tag_85\n      swap1\n      tag_86\n      jump\t// in\n    tag_85:\n      mload(0x40)\n      dup1\n      swap2\n      sub\n      swap1\n      revert\n    tag_84:\n        /* \"StekcitBM.sol\":3742:3770  RequestStatus memory request */\n      0x00\n        /* \"StekcitBM.sol\":3773:3783  s_requests */\n      0x02\n        /* \"StekcitBM.sol\":3773:3795  s_requests[_requestId] */\n      0x00\n        /* \"StekcitBM.sol\":3784:3794  _requestId */\n      dup7\n        /* \"StekcitBM.sol\":3773:3795  s_requests[_requestId] */\n      dup2\n      mstore\n      0x20\n      add\n      swap1\n      dup2\n      mstore\n      0x20\n      add\n      0x00\n      keccak256\n        /* \"StekcitBM.sol\":3742:3795  RequestStatus memory request = s_requests[_requestId] */\n      mload(0x40)\n      dup1\n      0x60\n      add\n      0x40\n      mstore\n      swap1\n      dup2\n      0x00\n      dup3\n      add\n      sload\n      dup2\n      mstore\n      0x20\n      add\n      0x01\n      dup3\n      add\n      0x00\n      swap1\n      sload\n      swap1\n      0x0100\n      exp\n      swap1\n      div\n      0xff\n      and\n      iszero\n      iszero\n      iszero\n      iszero\n      dup2\n      mstore\n      0x20\n      add\n      0x02\n      dup3\n      add\n      dup1\n      sload\n      dup1\n      0x20\n      mul\n      0x20\n      add\n      mload(0x40)\n      swap1\n      dup2\n      add\n      0x40\n      mstore\n      dup1\n      swap3\n      swap2\n      swap1\n      dup2\n      dup2\n      mstore\n      0x20\n      add\n      dup3\n      dup1\n      sload\n      dup1\n      iszero\n      tag_87\n      jumpi\n      0x20\n      mul\n      dup3\n      add\n      swap2\n      swap1\n      0x00\n      mstore\n      keccak256(0x00, 0x20)\n      swap1\n    tag_88:\n      dup2\n      sload\n      dup2\n      mstore\n      0x20\n      add\n      swap1\n      0x01\n      add\n      swap1\n      dup1\n      dup4\n      gt\n      tag_88\n      jumpi\n    tag_87:\n      pop\n      pop\n      pop\n      pop\n      pop\n      dup2\n      mstore\n      pop\n      pop\n      swap1\n      pop\n        /* \"StekcitBM.sol\":3813:3820  request */\n      dup1\n        /* \"StekcitBM.sol\":3813:3825  request.paid */\n      0x00\n      add\n      mload\n        /* \"StekcitBM.sol\":3827:3834  request */\n      dup2\n        /* \"StekcitBM.sol\":3827:3844  request.fulfilled */\n      0x20\n      add\n      mload\n        /* \"StekcitBM.sol\":3846:3853  request */\n      dup3\n        /* \"StekcitBM.sol\":3846:3865  request.randomWords */\n      0x40\n      add\n      mload\n        /* \"StekcitBM.sol\":3805:3866  return (request.paid, request.fulfilled, request.randomWords) */\n      swap4\n      pop\n      swap4\n      pop\n      swap4\n      pop\n      pop\n        /* \"StekcitBM.sol\":3490:3873  function getRequestStatus(... */\n      swap2\n      swap4\n      swap1\n      swap3\n      pop\n      jump\t// out\n        /* \"StekcitBM.sol\":2444:3041  function requestRandomWords()... */\n    tag_43:\n        /* \"StekcitBM.sol\":2526:2543  uint256 requestId */\n      0x00\n        /* \"@chainlink/contracts@1.1.0/src/v0.8/shared/access/ConfirmedOwnerWithProposal.sol\":2075:2095  _validateOwnership() */\n      tag_90\n        /* \"@chainlink/contracts@1.1.0/src/v0.8/shared/access/ConfirmedOwnerWithProposal.sol\":2075:2093  _validateOwnership */\n      tag_67\n        /* \"@chainlink/contracts@1.1.0/src/v0.8/shared/access/ConfirmedOwnerWithProposal.sol\":2075:2095  _validateOwnership() */\n      jump\t// in\n    tag_90:\n        /* \"StekcitBM.sol\":2571:2684  requestRandomness(... */\n      tag_92\n        /* \"StekcitBM.sol\":2602:2618  callbackGasLimit */\n      0x05\n      0x00\n      swap1\n      sload\n      swap1\n      0x0100\n      exp\n      swap1\n      div\n      0xffffffff\n      and\n        /* \"StekcitBM.sol\":2632:2652  requestConfirmations */\n      0x05\n      0x04\n      swap1\n      sload\n      swap1\n      0x0100\n      exp\n      swap1\n      div\n      0xffff\n      and\n        /* \"StekcitBM.sol\":2666:2674  numWords */\n      0x05\n      0x06\n      swap1\n      sload\n      swap1\n      0x0100\n      exp\n      swap1\n      div\n      0xffffffff\n      and\n        /* \"StekcitBM.sol\":2571:2588  requestRandomness */\n      tag_93\n        /* \"StekcitBM.sol\":2571:2684  requestRandomness(... */\n      jump\t// in\n    tag_92:\n        /* \"StekcitBM.sol\":2559:2684  requestId = requestRandomness(... */\n      swap1\n      pop\n        /* \"StekcitBM.sol\":2718:2890  RequestStatus({... */\n      mload(0x40)\n      dup1\n      0x60\n      add\n      0x40\n      mstore\n      dup1\n        /* \"StekcitBM.sol\":2752:2766  VRF_V2_WRAPPER */\n      immutable(\"0xf6cb0138da7c8b3468e7e4d8ba389a3263d4efb90e59a6ce914e87b867b16a00\")\n        /* \"StekcitBM.sol\":2752:2788  VRF_V2_WRAPPER.calculateRequestPrice */\n      0xffffffffffffffffffffffffffffffffffffffff\n      and\n      0x4306d354\n        /* \"StekcitBM.sol\":2789:2805  callbackGasLimit */\n      0x05\n      0x00\n      swap1\n      sload\n      swap1\n      0x0100\n      exp\n      swap1\n      div\n      0xffffffff\n      and\n        /* \"StekcitBM.sol\":2752:2806  VRF_V2_WRAPPER.calculateRequestPrice(callbackGasLimit) */\n      mload(0x40)\n      dup3\n      0xffffffff\n      and\n      0xe0\n      shl\n      dup2\n      mstore\n      0x04\n      add\n      tag_94\n      swap2\n      swap1\n      tag_95\n      jump\t// in\n    tag_94:\n      0x20\n      mload(0x40)\n      dup1\n      dup4\n      sub\n      dup2\n      dup7\n      gas\n      staticcall\n      iszero\n      dup1\n      iszero\n      tag_97\n      jumpi\n      returndatasize\n      0x00\n      dup1\n      returndatacopy\n      revert(0x00, returndatasize)\n    tag_97:\n      pop\n      pop\n      pop\n      pop\n      mload(0x40)\n      returndatasize\n      not(0x1f)\n      0x1f\n      dup3\n      add\n      and\n      dup3\n      add\n      dup1\n      0x40\n      mstore\n      pop\n      dup2\n      add\n      swap1\n      tag_98\n      swap2\n      swap1\n      tag_73\n      jump\t// in\n    tag_98:\n        /* \"StekcitBM.sol\":2718:2890  RequestStatus({... */\n      dup2\n      mstore\n      0x20\n      add\n        /* \"StekcitBM.sol\":2874:2879  false */\n      0x00\n        /* \"StekcitBM.sol\":2718:2890  RequestStatus({... */\n      iszero\n      iszero\n      dup2\n      mstore\n      0x20\n      add\n        /* \"StekcitBM.sol\":2847:2848  0 */\n      0x00\n        /* \"StekcitBM.sol\":2833:2849  new uint256[](0) */\n      0xffffffffffffffff\n      dup2\n      gt\n      iszero\n      tag_99\n      jumpi\n      tag_100\n      tag_101\n      jump\t// in\n    tag_100:\n    tag_99:\n      mload(0x40)\n      swap1\n      dup1\n      dup3\n      mstore\n      dup1\n      0x20\n      mul\n      0x20\n      add\n      dup3\n      add\n      0x40\n      mstore\n      dup1\n      iszero\n      tag_102\n      jumpi\n      dup2\n      0x20\n      add\n      0x20\n      dup3\n      mul\n      dup1\n      calldatasize\n      dup4\n      calldatacopy\n      dup1\n      dup3\n      add\n      swap2\n      pop\n      pop\n      swap1\n      pop\n    tag_102:\n      pop\n        /* \"StekcitBM.sol\":2718:2890  RequestStatus({... */\n      dup2\n      mstore\n      pop\n        /* \"StekcitBM.sol\":2694:2704  s_requests */\n      0x02\n        /* \"StekcitBM.sol\":2694:2715  s_requests[requestId] */\n      0x00\n        /* \"StekcitBM.sol\":2705:2714  requestId */\n      dup4\n        /* \"StekcitBM.sol\":2694:2715  s_requests[requestId] */\n      dup2\n      mstore\n      0x20\n      add\n      swap1\n      dup2\n      mstore\n      0x20\n      add\n      0x00\n      keccak256\n        /* \"StekcitBM.sol\":2694:2890  s_requests[requestId] = RequestStatus({... */\n      0x00\n      dup3\n      add\n      mload\n      dup2\n      0x00\n      add\n      sstore\n      0x20\n      dup3\n      add\n      mload\n      dup2\n      0x01\n      add\n      exp(0x0100, 0x00)\n      dup2\n      sload\n      dup2\n      0xff\n      mul\n      not\n      and\n      swap1\n      dup4\n      iszero\n      iszero\n      mul\n      or\n      swap1\n      sstore\n      pop\n      0x40\n      dup3\n      add\n      mload\n      dup2\n      0x02\n      add\n      swap1\n      dup1\n      mload\n      swap1\n      0x20\n      add\n      swap1\n      tag_103\n      swap3\n      swap2\n      swap1\n      tag_104\n      jump\t// in\n    tag_103:\n      pop\n      swap1\n      pop\n      pop\n        /* \"StekcitBM.sol\":2900:2910  requestIds */\n      0x03\n        /* \"StekcitBM.sol\":2916:2925  requestId */\n      dup2\n        /* \"StekcitBM.sol\":2900:2926  requestIds.push(requestId) */\n      swap1\n      dup1\n      0x01\n      dup2\n      sload\n      add\n      dup1\n      dup3\n      sstore\n      dup1\n      swap2\n      pop\n      pop\n      0x01\n      swap1\n      sub\n      swap1\n      0x00\n      mstore\n      keccak256(0x00, 0x20)\n      add\n      0x00\n      swap1\n      swap2\n      swap1\n      swap2\n      swap1\n      swap2\n      pop\n      sstore\n        /* \"StekcitBM.sol\":2952:2961  requestId */\n      dup1\n        /* \"StekcitBM.sol\":2936:2949  lastRequestId */\n      0x04\n        /* \"StekcitBM.sol\":2936:2961  lastRequestId = requestId */\n      dup2\n      swap1\n      sstore\n      pop\n        /* \"StekcitBM.sol\":2976:3008  RequestSent(requestId, numWords) */\n      0xcc58b13ad3eab50626c6a6300b1d139cd6ebb1688a7cced9461c2f7e762665ee\n        /* \"StekcitBM.sol\":2988:2997  requestId */\n      dup2\n        /* \"StekcitBM.sol\":2999:3007  numWords */\n      0x05\n      0x06\n      swap1\n      sload\n      swap1\n      0x0100\n      exp\n      swap1\n      div\n      0xffffffff\n      and\n        /* \"StekcitBM.sol\":2976:3008  RequestSent(requestId, numWords) */\n      mload(0x40)\n      tag_106\n      swap3\n      swap2\n      swap1\n      tag_107\n      jump\t// in\n    tag_106:\n      mload(0x40)\n      dup1\n      swap2\n      sub\n      swap1\n      log1\n        /* \"StekcitBM.sol\":2444:3041  function requestRandomWords()... */\n      swap1\n      jump\t// out\n        /* \"@chainlink/contracts@1.1.0/src/v0.8/shared/access/ConfirmedOwnerWithProposal.sol\":847:945  function transferOwnership(address to) public override onlyOwner {... */\n    tag_48:\n        /* \"@chainlink/contracts@1.1.0/src/v0.8/shared/access/ConfirmedOwnerWithProposal.sol\":2075:2095  _validateOwnership() */\n      tag_109\n        /* \"@chainlink/contracts@1.1.0/src/v0.8/shared/access/ConfirmedOwnerWithProposal.sol\":2075:2093  _validateOwnership */\n      tag_67\n        /* \"@chainlink/contracts@1.1.0/src/v0.8/shared/access/ConfirmedOwnerWithProposal.sol\":2075:2095  _validateOwnership() */\n      jump\t// in\n    tag_109:\n        /* \"@chainlink/contracts@1.1.0/src/v0.8/shared/access/ConfirmedOwnerWithProposal.sol\":918:940  _transferOwnership(to) */\n      tag_111\n        /* \"@chainlink/contracts@1.1.0/src/v0.8/shared/access/ConfirmedOwnerWithProposal.sol\":937:939  to */\n      dup2\n        /* \"@chainlink/contracts@1.1.0/src/v0.8/shared/access/ConfirmedOwnerWithProposal.sol\":918:936  _transferOwnership */\n      tag_112\n        /* \"@chainlink/contracts@1.1.0/src/v0.8/shared/access/ConfirmedOwnerWithProposal.sol\":918:940  _transferOwnership(to) */\n      jump\t// in\n    tag_111:\n        /* \"@chainlink/contracts@1.1.0/src/v0.8/shared/access/ConfirmedOwnerWithProposal.sol\":847:945  function transferOwnership(address to) public override onlyOwner {... */\n      pop\n      jump\t// out\n        /* \"StekcitBM.sol\":1450:1478  uint256 public lastRequestId */\n    tag_50:\n      sload(0x04)\n      dup2\n      jump\t// out\n        /* \"StekcitBM.sol\":3047:3484  function fulfillRandomWords(... */\n    tag_57:\n        /* \"StekcitBM.sol\":3214:3215  0 */\n      0x00\n        /* \"StekcitBM.sol\":3184:3194  s_requests */\n      0x02\n        /* \"StekcitBM.sol\":3184:3206  s_requests[_requestId] */\n      0x00\n        /* \"StekcitBM.sol\":3195:3205  _requestId */\n      dup5\n        /* \"StekcitBM.sol\":3184:3206  s_requests[_requestId] */\n      dup2\n      mstore\n      0x20\n      add\n      swap1\n      dup2\n      mstore\n      0x20\n      add\n      0x00\n      keccak256\n        /* \"StekcitBM.sol\":3184:3211  s_requests[_requestId].paid */\n      0x00\n      add\n      sload\n        /* \"StekcitBM.sol\":3184:3215  s_requests[_requestId].paid > 0 */\n      gt\n        /* \"StekcitBM.sol\":3176:3237  require(s_requests[_requestId].paid > 0, \"request not found\") */\n      tag_114\n      jumpi\n      mload(0x40)\n      0x08c379a000000000000000000000000000000000000000000000000000000000\n      dup2\n      mstore\n      0x04\n      add\n      tag_115\n      swap1\n      tag_86\n      jump\t// in\n    tag_115:\n      mload(0x40)\n      dup1\n      swap2\n      sub\n      swap1\n      revert\n    tag_114:\n        /* \"StekcitBM.sol\":3282:3286  true */\n      0x01\n        /* \"StekcitBM.sol\":3247:3257  s_requests */\n      0x02\n        /* \"StekcitBM.sol\":3247:3269  s_requests[_requestId] */\n      0x00\n        /* \"StekcitBM.sol\":3258:3268  _requestId */\n      dup5\n        /* \"StekcitBM.sol\":3247:3269  s_requests[_requestId] */\n      dup2\n      mstore\n      0x20\n      add\n      swap1\n      dup2\n      mstore\n      0x20\n      add\n      0x00\n      keccak256\n        /* \"StekcitBM.sol\":3247:3279  s_requests[_requestId].fulfilled */\n      0x01\n      add\n      0x00\n        /* \"StekcitBM.sol\":3247:3286  s_requests[_requestId].fulfilled = true */\n      0x0100\n      exp\n      dup2\n      sload\n      dup2\n      0xff\n      mul\n      not\n      and\n      swap1\n      dup4\n      iszero\n      iszero\n      mul\n      or\n      swap1\n      sstore\n      pop\n        /* \"StekcitBM.sol\":3333:3345  _randomWords */\n      dup1\n        /* \"StekcitBM.sol\":3296:3306  s_requests */\n      0x02\n        /* \"StekcitBM.sol\":3296:3318  s_requests[_requestId] */\n      0x00\n        /* \"StekcitBM.sol\":3307:3317  _requestId */\n      dup5\n        /* \"StekcitBM.sol\":3296:3318  s_requests[_requestId] */\n      dup2\n      mstore\n      0x20\n      add\n      swap1\n      dup2\n      mstore\n      0x20\n      add\n      0x00\n      keccak256\n        /* \"StekcitBM.sol\":3296:3330  s_requests[_requestId].randomWords */\n      0x02\n      add\n        /* \"StekcitBM.sol\":3296:3345  s_requests[_requestId].randomWords = _randomWords */\n      swap1\n      dup1\n      mload\n      swap1\n      0x20\n      add\n      swap1\n      tag_116\n      swap3\n      swap2\n      swap1\n      tag_104\n      jump\t// in\n    tag_116:\n      pop\n        /* \"StekcitBM.sol\":3360:3477  RequestFulfilled(... */\n      0x147eb1ff0c82f87f2b03e2c43f5a36488ff63ec6b730195fde4605f612f8db51\n        /* \"StekcitBM.sol\":3390:3400  _requestId */\n      dup3\n        /* \"StekcitBM.sol\":3414:3426  _randomWords */\n      dup3\n        /* \"StekcitBM.sol\":3440:3450  s_requests */\n      0x02\n        /* \"StekcitBM.sol\":3440:3462  s_requests[_requestId] */\n      0x00\n        /* \"StekcitBM.sol\":3451:3461  _requestId */\n      dup7\n        /* \"StekcitBM.sol\":3440:3462  s_requests[_requestId] */\n      dup2\n      mstore\n      0x20\n      add\n      swap1\n      dup2\n      mstore\n      0x20\n      add\n      0x00\n      keccak256\n        /* \"StekcitBM.sol\":3440:3467  s_requests[_requestId].paid */\n      0x00\n      add\n      sload\n        /* \"StekcitBM.sol\":3360:3477  RequestFulfilled(... */\n      mload(0x40)\n      tag_117\n      swap4\n      swap3\n      swap2\n      swap1\n      tag_118\n      jump\t// in\n    tag_117:\n      mload(0x40)\n      dup1\n      swap2\n      sub\n      swap1\n      log1\n        /* \"StekcitBM.sol\":3047:3484  function fulfillRandomWords(... */\n      pop\n      pop\n      jump\t// out\n        /* \"@chainlink/contracts@1.1.0/src/v0.8/shared/access/ConfirmedOwnerWithProposal.sol\":1809:1971  function _validateOwnership() internal view {... */\n    tag_67:\n        /* \"@chainlink/contracts@1.1.0/src/v0.8/shared/access/ConfirmedOwnerWithProposal.sol\":1932:1939  s_owner */\n      0x00\n      dup1\n      sload\n      swap1\n      0x0100\n      exp\n      swap1\n      div\n      0xffffffffffffffffffffffffffffffffffffffff\n      and\n        /* \"@chainlink/contracts@1.1.0/src/v0.8/shared/access/ConfirmedOwnerWithProposal.sol\":1918:1939  msg.sender == s_owner */\n      0xffffffffffffffffffffffffffffffffffffffff\n      and\n        /* \"@chainlink/contracts@1.1.0/src/v0.8/shared/access/ConfirmedOwnerWithProposal.sol\":1918:1928  msg.sender */\n      caller\n        /* \"@chainlink/contracts@1.1.0/src/v0.8/shared/access/ConfirmedOwnerWithProposal.sol\":1918:1939  msg.sender == s_owner */\n      0xffffffffffffffffffffffffffffffffffffffff\n      and\n      eq\n        /* \"@chainlink/contracts@1.1.0/src/v0.8/shared/access/ConfirmedOwnerWithProposal.sol\":1910:1966  require(msg.sender == s_owner, \"Only callable by owner\") */\n      tag_120\n      jumpi\n      mload(0x40)\n      0x08c379a000000000000000000000000000000000000000000000000000000000\n      dup2\n      mstore\n      0x04\n      add\n      tag_121\n      swap1\n      tag_122\n      jump\t// in\n    tag_121:\n      mload(0x40)\n      dup1\n      swap2\n      sub\n      swap1\n      revert\n    tag_120:\n        /* \"@chainlink/contracts@1.1.0/src/v0.8/shared/access/ConfirmedOwnerWithProposal.sol\":1809:1971  function _validateOwnership() internal view {... */\n      jump\t// out\n        /* \"@chainlink/contracts@1.1.0/src/v0.8/vrf/VRFV2WrapperConsumerBase.sol\":2968:3367  function requestRandomness(... */\n    tag_93:\n        /* \"@chainlink/contracts@1.1.0/src/v0.8/vrf/VRFV2WrapperConsumerBase.sol\":3103:3120  uint256 requestId */\n      0x00\n        /* \"@chainlink/contracts@1.1.0/src/v0.8/vrf/VRFV2WrapperConsumerBase.sol\":3128:3132  LINK */\n      immutable(\"0x064aab4cf973af3102587bae83caeab28cf75517d40727c9b952f0d14fb521fa\")\n        /* \"@chainlink/contracts@1.1.0/src/v0.8/vrf/VRFV2WrapperConsumerBase.sol\":3128:3148  LINK.transferAndCall */\n      0xffffffffffffffffffffffffffffffffffffffff\n      and\n      0x4000aea0\n        /* \"@chainlink/contracts@1.1.0/src/v0.8/vrf/VRFV2WrapperConsumerBase.sol\":3164:3178  VRF_V2_WRAPPER */\n      immutable(\"0xf6cb0138da7c8b3468e7e4d8ba389a3263d4efb90e59a6ce914e87b867b16a00\")\n        /* \"@chainlink/contracts@1.1.0/src/v0.8/vrf/VRFV2WrapperConsumerBase.sol\":3187:3201  VRF_V2_WRAPPER */\n      immutable(\"0xf6cb0138da7c8b3468e7e4d8ba389a3263d4efb90e59a6ce914e87b867b16a00\")\n        /* \"@chainlink/contracts@1.1.0/src/v0.8/vrf/VRFV2WrapperConsumerBase.sol\":3187:3223  VRF_V2_WRAPPER.calculateRequestPrice */\n      0xffffffffffffffffffffffffffffffffffffffff\n      and\n      0x4306d354\n        /* \"@chainlink/contracts@1.1.0/src/v0.8/vrf/VRFV2WrapperConsumerBase.sol\":3224:3241  _callbackGasLimit */\n      dup9\n        /* \"@chainlink/contracts@1.1.0/src/v0.8/vrf/VRFV2WrapperConsumerBase.sol\":3187:3242  VRF_V2_WRAPPER.calculateRequestPrice(_callbackGasLimit) */\n      mload(0x40)\n      dup3\n      0xffffffff\n      and\n      0xe0\n      shl\n      dup2\n      mstore\n      0x04\n      add\n      tag_124\n      swap2\n      swap1\n      tag_95\n      jump\t// in\n    tag_124:\n      0x20\n      mload(0x40)\n      dup1\n      dup4\n      sub\n      dup2\n      dup7\n      gas\n      staticcall\n      iszero\n      dup1\n      iszero\n      tag_126\n      jumpi\n      returndatasize\n      0x00\n      dup1\n      returndatacopy\n      revert(0x00, returndatasize)\n    tag_126:\n      pop\n      pop\n      pop\n      pop\n      mload(0x40)\n      returndatasize\n      not(0x1f)\n      0x1f\n      dup3\n      add\n      and\n      dup3\n      add\n      dup1\n      0x40\n      mstore\n      pop\n      dup2\n      add\n      swap1\n      tag_127\n      swap2\n      swap1\n      tag_73\n      jump\t// in\n    tag_127:\n        /* \"@chainlink/contracts@1.1.0/src/v0.8/vrf/VRFV2WrapperConsumerBase.sol\":3261:3278  _callbackGasLimit */\n      dup8\n        /* \"@chainlink/contracts@1.1.0/src/v0.8/vrf/VRFV2WrapperConsumerBase.sol\":3280:3301  _requestConfirmations */\n      dup8\n        /* \"@chainlink/contracts@1.1.0/src/v0.8/vrf/VRFV2WrapperConsumerBase.sol\":3303:3312  _numWords */\n      dup8\n        /* \"@chainlink/contracts@1.1.0/src/v0.8/vrf/VRFV2WrapperConsumerBase.sol\":3250:3313  abi.encode(_callbackGasLimit, _requestConfirmations, _numWords) */\n      add(0x20, mload(0x40))\n      tag_128\n      swap4\n      swap3\n      swap2\n      swap1\n      tag_129\n      jump\t// in\n    tag_128:\n      mload(0x40)\n      0x20\n      dup2\n      dup4\n      sub\n      sub\n      dup2\n      mstore\n      swap1\n      0x40\n      mstore\n        /* \"@chainlink/contracts@1.1.0/src/v0.8/vrf/VRFV2WrapperConsumerBase.sol\":3128:3319  LINK.transferAndCall(... */\n      mload(0x40)\n      dup5\n      0xffffffff\n      and\n      0xe0\n      shl\n      dup2\n      mstore\n      0x04\n      add\n      tag_130\n      swap4\n      swap3\n      swap2\n      swap1\n      tag_131\n      jump\t// in\n    tag_130:\n      0x20\n      mload(0x40)\n      dup1\n      dup4\n      sub\n      dup2\n      0x00\n      dup8\n      gas\n      call\n      iszero\n      dup1\n      iszero\n      tag_133\n      jumpi\n      returndatasize\n      0x00\n      dup1\n      returndatacopy\n      revert(0x00, returndatasize)\n    tag_133:\n      pop\n      pop\n      pop\n      pop\n      mload(0x40)\n      returndatasize\n      not(0x1f)\n      0x1f\n      dup3\n      add\n      and\n      dup3\n      add\n      dup1\n      0x40\n      mstore\n      pop\n      dup2\n      add\n      swap1\n      tag_134\n      swap2\n      swap1\n      tag_79\n      jump\t// in\n    tag_134:\n      pop\n        /* \"@chainlink/contracts@1.1.0/src/v0.8/vrf/VRFV2WrapperConsumerBase.sol\":3332:3346  VRF_V2_WRAPPER */\n      immutable(\"0xf6cb0138da7c8b3468e7e4d8ba389a3263d4efb90e59a6ce914e87b867b16a00\")\n        /* \"@chainlink/contracts@1.1.0/src/v0.8/vrf/VRFV2WrapperConsumerBase.sol\":3332:3360  VRF_V2_WRAPPER.lastRequestId */\n      0xffffffffffffffffffffffffffffffffffffffff\n      and\n      0xfc2a88c3\n        /* \"@chainlink/contracts@1.1.0/src/v0.8/vrf/VRFV2WrapperConsumerBase.sol\":3332:3362  VRF_V2_WRAPPER.lastRequestId() */\n      mload(0x40)\n      dup2\n      0xffffffff\n      and\n      0xe0\n      shl\n      dup2\n      mstore\n      0x04\n      add\n      0x20\n      mload(0x40)\n      dup1\n      dup4\n      sub\n      dup2\n      dup7\n      gas\n      staticcall\n      iszero\n      dup1\n      iszero\n      tag_136\n      jumpi\n      returndatasize\n      0x00\n      dup1\n      returndatacopy\n      revert(0x00, returndatasize)\n    tag_136:\n      pop\n      pop\n      pop\n      pop\n      mload(0x40)\n      returndatasize\n      not(0x1f)\n      0x1f\n      dup3\n      add\n      and\n      dup3\n      add\n      dup1\n      0x40\n      mstore\n      pop\n      dup2\n      add\n      swap1\n      tag_137\n      swap2\n      swap1\n      tag_73\n      jump\t// in\n    tag_137:\n        /* \"@chainlink/contracts@1.1.0/src/v0.8/vrf/VRFV2WrapperConsumerBase.sol\":3325:3362  return VRF_V2_WRAPPER.lastRequestId() */\n      swap1\n      pop\n        /* \"@chainlink/contracts@1.1.0/src/v0.8/vrf/VRFV2WrapperConsumerBase.sol\":2968:3367  function requestRandomness(... */\n      swap4\n      swap3\n      pop\n      pop\n      pop\n      jump\t// out\n        /* \"@chainlink/contracts@1.1.0/src/v0.8/shared/access/ConfirmedOwnerWithProposal.sol\":1536:1775  function _transferOwnership(address to) private {... */\n    tag_112:\n        /* \"@chainlink/contracts@1.1.0/src/v0.8/shared/access/ConfirmedOwnerWithProposal.sol\":1655:1665  msg.sender */\n      caller\n        /* \"@chainlink/contracts@1.1.0/src/v0.8/shared/access/ConfirmedOwnerWithProposal.sol\":1649:1665  to != msg.sender */\n      0xffffffffffffffffffffffffffffffffffffffff\n      and\n        /* \"@chainlink/contracts@1.1.0/src/v0.8/shared/access/ConfirmedOwnerWithProposal.sol\":1649:1651  to */\n      dup2\n        /* \"@chainlink/contracts@1.1.0/src/v0.8/shared/access/ConfirmedOwnerWithProposal.sol\":1649:1665  to != msg.sender */\n      0xffffffffffffffffffffffffffffffffffffffff\n      and\n      eq\n      iszero\n        /* \"@chainlink/contracts@1.1.0/src/v0.8/shared/access/ConfirmedOwnerWithProposal.sol\":1641:1693  require(to != msg.sender, \"Cannot transfer to self\") */\n      tag_139\n      jumpi\n      mload(0x40)\n      0x08c379a000000000000000000000000000000000000000000000000000000000\n      dup2\n      mstore\n      0x04\n      add\n      tag_140\n      swap1\n      tag_141\n      jump\t// in\n    tag_140:\n      mload(0x40)\n      dup1\n      swap2\n      sub\n      swap1\n      revert\n    tag_139:\n        /* \"@chainlink/contracts@1.1.0/src/v0.8/shared/access/ConfirmedOwnerWithProposal.sol\":1717:1719  to */\n      dup1\n        /* \"@chainlink/contracts@1.1.0/src/v0.8/shared/access/ConfirmedOwnerWithProposal.sol\":1700:1714  s_pendingOwner */\n      0x01\n      0x00\n        /* \"@chainlink/contracts@1.1.0/src/v0.8/shared/access/ConfirmedOwnerWithProposal.sol\":1700:1719  s_pendingOwner = to */\n      0x0100\n      exp\n      dup2\n      sload\n      dup2\n      0xffffffffffffffffffffffffffffffffffffffff\n      mul\n      not\n      and\n      swap1\n      dup4\n      0xffffffffffffffffffffffffffffffffffffffff\n      and\n      mul\n      or\n      swap1\n      sstore\n      pop\n        /* \"@chainlink/contracts@1.1.0/src/v0.8/shared/access/ConfirmedOwnerWithProposal.sol\":1767:1769  to */\n      dup1\n        /* \"@chainlink/contracts@1.1.0/src/v0.8/shared/access/ConfirmedOwnerWithProposal.sol\":1731:1770  OwnershipTransferRequested(s_owner, to) */\n      0xffffffffffffffffffffffffffffffffffffffff\n      and\n        /* \"@chainlink/contracts@1.1.0/src/v0.8/shared/access/ConfirmedOwnerWithProposal.sol\":1758:1765  s_owner */\n      0x00\n      dup1\n      sload\n      swap1\n      0x0100\n      exp\n      swap1\n      div\n      0xffffffffffffffffffffffffffffffffffffffff\n      and\n        /* \"@chainlink/contracts@1.1.0/src/v0.8/shared/access/ConfirmedOwnerWithProposal.sol\":1731:1770  OwnershipTransferRequested(s_owner, to) */\n      0xffffffffffffffffffffffffffffffffffffffff\n      and\n      0xed8889f560326eb138920d842192f0eb3dd22b4f139c87a2c57538e05bae1278\n      mload(0x40)\n      mload(0x40)\n      dup1\n      swap2\n      sub\n      swap1\n      log3\n        /* \"@chainlink/contracts@1.1.0/src/v0.8/shared/access/ConfirmedOwnerWithProposal.sol\":1536:1775  function _transferOwnership(address to) private {... */\n      pop\n      jump\t// out\n    tag_104:\n      dup3\n      dup1\n      sload\n      dup3\n      dup3\n      sstore\n      swap1\n      0x00\n      mstore\n      keccak256(0x00, 0x20)\n      swap1\n      dup2\n      add\n      swap3\n      dup3\n      iszero\n      tag_142\n      jumpi\n      swap2\n      0x20\n      mul\n      dup3\n      add\n    tag_143:\n      dup3\n      dup2\n      gt\n      iszero\n      tag_144\n      jumpi\n      dup3\n      mload\n      dup3\n      sstore\n      swap2\n      0x20\n      add\n      swap2\n      swap1\n      0x01\n      add\n      swap1\n      jump(tag_143)\n    tag_144:\n    tag_142:\n      pop\n      swap1\n      pop\n      tag_145\n      swap2\n      swap1\n      tag_146\n      jump\t// in\n    tag_145:\n      pop\n      swap1\n      jump\t// out\n    tag_146:\n    tag_147:\n      dup1\n      dup3\n      gt\n      iszero\n      tag_148\n      jumpi\n      0x00\n      dup2\n      0x00\n      swap1\n      sstore\n      pop\n      0x01\n      add\n      jump(tag_147)\n    tag_148:\n      pop\n      swap1\n      jump\t// out\n        /* \"#utility.yul\":7:82   */\n    tag_149:\n        /* \"#utility.yul\":40:46   */\n      0x00\n        /* \"#utility.yul\":73:75   */\n      0x40\n        /* \"#utility.yul\":67:76   */\n      mload\n        /* \"#utility.yul\":57:76   */\n      swap1\n      pop\n        /* \"#utility.yul\":7:82   */\n      swap1\n      jump\t// out\n        /* \"#utility.yul\":88:205   */\n    tag_150:\n        /* \"#utility.yul\":197:198   */\n      0x00\n        /* \"#utility.yul\":194:195   */\n      dup1\n        /* \"#utility.yul\":187:199   */\n      revert\n        /* \"#utility.yul\":211:328   */\n    tag_151:\n        /* \"#utility.yul\":320:321   */\n      0x00\n        /* \"#utility.yul\":317:318   */\n      dup1\n        /* \"#utility.yul\":310:322   */\n      revert\n        /* \"#utility.yul\":334:411   */\n    tag_152:\n        /* \"#utility.yul\":371:378   */\n      0x00\n        /* \"#utility.yul\":400:405   */\n      dup2\n        /* \"#utility.yul\":389:405   */\n      swap1\n      pop\n        /* \"#utility.yul\":334:411   */\n      swap2\n      swap1\n      pop\n      jump\t// out\n        /* \"#utility.yul\":417:539   */\n    tag_153:\n        /* \"#utility.yul\":490:514   */\n      tag_208\n        /* \"#utility.yul\":508:513   */\n      dup2\n        /* \"#utility.yul\":490:514   */\n      tag_152\n      jump\t// in\n    tag_208:\n        /* \"#utility.yul\":483:488   */\n      dup2\n        /* \"#utility.yul\":480:515   */\n      eq\n        /* \"#utility.yul\":470:533   */\n      tag_209\n      jumpi\n        /* \"#utility.yul\":529:530   */\n      0x00\n        /* \"#utility.yul\":526:527   */\n      dup1\n        /* \"#utility.yul\":519:531   */\n      revert\n        /* \"#utility.yul\":470:533   */\n    tag_209:\n        /* \"#utility.yul\":417:539   */\n      pop\n      jump\t// out\n        /* \"#utility.yul\":545:684   */\n    tag_154:\n        /* \"#utility.yul\":591:596   */\n      0x00\n        /* \"#utility.yul\":629:635   */\n      dup2\n        /* \"#utility.yul\":616:636   */\n      calldataload\n        /* \"#utility.yul\":607:636   */\n      swap1\n      pop\n        /* \"#utility.yul\":645:678   */\n      tag_211\n        /* \"#utility.yul\":672:677   */\n      dup2\n        /* \"#utility.yul\":645:678   */\n      tag_153\n      jump\t// in\n    tag_211:\n        /* \"#utility.yul\":545:684   */\n      swap3\n      swap2\n      pop\n      pop\n      jump\t// out\n        /* \"#utility.yul\":690:807   */\n    tag_155:\n        /* \"#utility.yul\":799:800   */\n      0x00\n        /* \"#utility.yul\":796:797   */\n      dup1\n        /* \"#utility.yul\":789:801   */\n      revert\n        /* \"#utility.yul\":813:915   */\n    tag_156:\n        /* \"#utility.yul\":854:860   */\n      0x00\n        /* \"#utility.yul\":905:907   */\n      0x1f\n        /* \"#utility.yul\":901:908   */\n      not\n        /* \"#utility.yul\":896:898   */\n      0x1f\n        /* \"#utility.yul\":889:894   */\n      dup4\n        /* \"#utility.yul\":885:899   */\n      add\n        /* \"#utility.yul\":881:909   */\n      and\n        /* \"#utility.yul\":871:909   */\n      swap1\n      pop\n        /* \"#utility.yul\":813:915   */\n      swap2\n      swap1\n      pop\n      jump\t// out\n        /* \"#utility.yul\":921:1101   */\n    tag_101:\n        /* \"#utility.yul\":969:1046   */\n      0x4e487b7100000000000000000000000000000000000000000000000000000000\n        /* \"#utility.yul\":966:967   */\n      0x00\n        /* \"#utility.yul\":959:1047   */\n      mstore\n        /* \"#utility.yul\":1066:1070   */\n      0x41\n        /* \"#utility.yul\":1063:1064   */\n      0x04\n        /* \"#utility.yul\":1056:1071   */\n      mstore\n        /* \"#utility.yul\":1090:1094   */\n      0x24\n        /* \"#utility.yul\":1087:1088   */\n      0x00\n        /* \"#utility.yul\":1080:1095   */\n      revert\n        /* \"#utility.yul\":1107:1388   */\n    tag_157:\n        /* \"#utility.yul\":1190:1217   */\n      tag_216\n        /* \"#utility.yul\":1212:1216   */\n      dup3\n        /* \"#utility.yul\":1190:1217   */\n      tag_156\n      jump\t// in\n    tag_216:\n        /* \"#utility.yul\":1182:1188   */\n      dup2\n        /* \"#utility.yul\":1178:1218   */\n      add\n        /* \"#utility.yul\":1320:1326   */\n      dup2\n        /* \"#utility.yul\":1308:1318   */\n      dup2\n        /* \"#utility.yul\":1305:1327   */\n      lt\n        /* \"#utility.yul\":1284:1302   */\n      0xffffffffffffffff\n        /* \"#utility.yul\":1272:1282   */\n      dup3\n        /* \"#utility.yul\":1269:1303   */\n      gt\n        /* \"#utility.yul\":1266:1328   */\n      or\n        /* \"#utility.yul\":1263:1351   */\n      iszero\n      tag_217\n      jumpi\n        /* \"#utility.yul\":1331:1349   */\n      tag_218\n      tag_101\n      jump\t// in\n    tag_218:\n        /* \"#utility.yul\":1263:1351   */\n    tag_217:\n        /* \"#utility.yul\":1371:1381   */\n      dup1\n        /* \"#utility.yul\":1367:1369   */\n      0x40\n        /* \"#utility.yul\":1360:1382   */\n      mstore\n        /* \"#utility.yul\":1150:1388   */\n      pop\n        /* \"#utility.yul\":1107:1388   */\n      pop\n      pop\n      jump\t// out\n        /* \"#utility.yul\":1394:1523   */\n    tag_158:\n        /* \"#utility.yul\":1428:1434   */\n      0x00\n        /* \"#utility.yul\":1455:1475   */\n      tag_220\n      tag_149\n      jump\t// in\n    tag_220:\n        /* \"#utility.yul\":1445:1475   */\n      swap1\n      pop\n        /* \"#utility.yul\":1484:1517   */\n      tag_221\n        /* \"#utility.yul\":1512:1516   */\n      dup3\n        /* \"#utility.yul\":1504:1510   */\n      dup3\n        /* \"#utility.yul\":1484:1517   */\n      tag_157\n      jump\t// in\n    tag_221:\n        /* \"#utility.yul\":1394:1523   */\n      swap2\n      swap1\n      pop\n      jump\t// out\n        /* \"#utility.yul\":1529:1840   */\n    tag_159:\n        /* \"#utility.yul\":1606:1610   */\n      0x00\n        /* \"#utility.yul\":1696:1714   */\n      0xffffffffffffffff\n        /* \"#utility.yul\":1688:1694   */\n      dup3\n        /* \"#utility.yul\":1685:1715   */\n      gt\n        /* \"#utility.yul\":1682:1738   */\n      iszero\n      tag_223\n      jumpi\n        /* \"#utility.yul\":1718:1736   */\n      tag_224\n      tag_101\n      jump\t// in\n    tag_224:\n        /* \"#utility.yul\":1682:1738   */\n    tag_223:\n        /* \"#utility.yul\":1768:1772   */\n      0x20\n        /* \"#utility.yul\":1760:1766   */\n      dup3\n        /* \"#utility.yul\":1756:1773   */\n      mul\n        /* \"#utility.yul\":1748:1773   */\n      swap1\n      pop\n        /* \"#utility.yul\":1828:1832   */\n      0x20\n        /* \"#utility.yul\":1822:1826   */\n      dup2\n        /* \"#utility.yul\":1818:1833   */\n      add\n        /* \"#utility.yul\":1810:1833   */\n      swap1\n      pop\n        /* \"#utility.yul\":1529:1840   */\n      swap2\n      swap1\n      pop\n      jump\t// out\n        /* \"#utility.yul\":1846:1963   */\n    tag_160:\n        /* \"#utility.yul\":1955:1956   */\n      0x00\n        /* \"#utility.yul\":1952:1953   */\n      dup1\n        /* \"#utility.yul\":1945:1957   */\n      revert\n        /* \"#utility.yul\":1986:2696   */\n    tag_161:\n        /* \"#utility.yul\":2082:2087   */\n      0x00\n        /* \"#utility.yul\":2107:2188   */\n      tag_227\n        /* \"#utility.yul\":2123:2187   */\n      tag_228\n        /* \"#utility.yul\":2180:2186   */\n      dup5\n        /* \"#utility.yul\":2123:2187   */\n      tag_159\n      jump\t// in\n    tag_228:\n        /* \"#utility.yul\":2107:2188   */\n      tag_158\n      jump\t// in\n    tag_227:\n        /* \"#utility.yul\":2098:2188   */\n      swap1\n      pop\n        /* \"#utility.yul\":2208:2213   */\n      dup1\n        /* \"#utility.yul\":2237:2243   */\n      dup4\n        /* \"#utility.yul\":2230:2235   */\n      dup3\n        /* \"#utility.yul\":2223:2244   */\n      mstore\n        /* \"#utility.yul\":2271:2275   */\n      0x20\n        /* \"#utility.yul\":2264:2269   */\n      dup3\n        /* \"#utility.yul\":2260:2276   */\n      add\n        /* \"#utility.yul\":2253:2276   */\n      swap1\n      pop\n        /* \"#utility.yul\":2324:2328   */\n      0x20\n        /* \"#utility.yul\":2316:2322   */\n      dup5\n        /* \"#utility.yul\":2312:2329   */\n      mul\n        /* \"#utility.yul\":2304:2310   */\n      dup4\n        /* \"#utility.yul\":2300:2330   */\n      add\n        /* \"#utility.yul\":2353:2356   */\n      dup6\n        /* \"#utility.yul\":2345:2351   */\n      dup2\n        /* \"#utility.yul\":2342:2357   */\n      gt\n        /* \"#utility.yul\":2339:2461   */\n      iszero\n      tag_229\n      jumpi\n        /* \"#utility.yul\":2372:2451   */\n      tag_230\n      tag_160\n      jump\t// in\n    tag_230:\n        /* \"#utility.yul\":2339:2461   */\n    tag_229:\n        /* \"#utility.yul\":2487:2493   */\n      dup4\n        /* \"#utility.yul\":2470:2690   */\n    tag_231:\n        /* \"#utility.yul\":2504:2510   */\n      dup2\n        /* \"#utility.yul\":2499:2502   */\n      dup2\n        /* \"#utility.yul\":2496:2511   */\n      lt\n        /* \"#utility.yul\":2470:2690   */\n      iszero\n      tag_233\n      jumpi\n        /* \"#utility.yul\":2579:2582   */\n      dup1\n        /* \"#utility.yul\":2608:2645   */\n      tag_234\n        /* \"#utility.yul\":2641:2644   */\n      dup9\n        /* \"#utility.yul\":2629:2639   */\n      dup3\n        /* \"#utility.yul\":2608:2645   */\n      tag_154\n      jump\t// in\n    tag_234:\n        /* \"#utility.yul\":2603:2606   */\n      dup5\n        /* \"#utility.yul\":2596:2646   */\n      mstore\n        /* \"#utility.yul\":2675:2679   */\n      0x20\n        /* \"#utility.yul\":2670:2673   */\n      dup5\n        /* \"#utility.yul\":2666:2680   */\n      add\n        /* \"#utility.yul\":2659:2680   */\n      swap4\n      pop\n        /* \"#utility.yul\":2546:2690   */\n      pop\n        /* \"#utility.yul\":2530:2534   */\n      0x20\n        /* \"#utility.yul\":2525:2528   */\n      dup2\n        /* \"#utility.yul\":2521:2535   */\n      add\n        /* \"#utility.yul\":2514:2535   */\n      swap1\n      pop\n        /* \"#utility.yul\":2470:2690   */\n      jump(tag_231)\n    tag_233:\n        /* \"#utility.yul\":2474:2495   */\n      pop\n        /* \"#utility.yul\":2088:2696   */\n      pop\n      pop\n        /* \"#utility.yul\":1986:2696   */\n      swap4\n      swap3\n      pop\n      pop\n      pop\n      jump\t// out\n        /* \"#utility.yul\":2719:3089   */\n    tag_162:\n        /* \"#utility.yul\":2790:2795   */\n      0x00\n        /* \"#utility.yul\":2839:2842   */\n      dup3\n        /* \"#utility.yul\":2832:2836   */\n      0x1f\n        /* \"#utility.yul\":2824:2830   */\n      dup4\n        /* \"#utility.yul\":2820:2837   */\n      add\n        /* \"#utility.yul\":2816:2843   */\n      slt\n        /* \"#utility.yul\":2806:2928   */\n      tag_236\n      jumpi\n        /* \"#utility.yul\":2847:2926   */\n      tag_237\n      tag_155\n      jump\t// in\n    tag_237:\n        /* \"#utility.yul\":2806:2928   */\n    tag_236:\n        /* \"#utility.yul\":2964:2970   */\n      dup2\n        /* \"#utility.yul\":2951:2971   */\n      calldataload\n        /* \"#utility.yul\":2989:3083   */\n      tag_238\n        /* \"#utility.yul\":3079:3082   */\n      dup5\n        /* \"#utility.yul\":3071:3077   */\n      dup3\n        /* \"#utility.yul\":3064:3068   */\n      0x20\n        /* \"#utility.yul\":3056:3062   */\n      dup7\n        /* \"#utility.yul\":3052:3069   */\n      add\n        /* \"#utility.yul\":2989:3083   */\n      tag_161\n      jump\t// in\n    tag_238:\n        /* \"#utility.yul\":2980:3083   */\n      swap2\n      pop\n        /* \"#utility.yul\":2796:3089   */\n      pop\n        /* \"#utility.yul\":2719:3089   */\n      swap3\n      swap2\n      pop\n      pop\n      jump\t// out\n        /* \"#utility.yul\":3095:3779   */\n    tag_16:\n        /* \"#utility.yul\":3188:3194   */\n      0x00\n        /* \"#utility.yul\":3196:3202   */\n      dup1\n        /* \"#utility.yul\":3245:3247   */\n      0x40\n        /* \"#utility.yul\":3233:3242   */\n      dup4\n        /* \"#utility.yul\":3224:3231   */\n      dup6\n        /* \"#utility.yul\":3220:3243   */\n      sub\n        /* \"#utility.yul\":3216:3248   */\n      slt\n        /* \"#utility.yul\":3213:3332   */\n      iszero\n      tag_240\n      jumpi\n        /* \"#utility.yul\":3251:3330   */\n      tag_241\n      tag_150\n      jump\t// in\n    tag_241:\n        /* \"#utility.yul\":3213:3332   */\n    tag_240:\n        /* \"#utility.yul\":3371:3372   */\n      0x00\n        /* \"#utility.yul\":3396:3449   */\n      tag_242\n        /* \"#utility.yul\":3441:3448   */\n      dup6\n        /* \"#utility.yul\":3432:3438   */\n      dup3\n        /* \"#utility.yul\":3421:3430   */\n      dup7\n        /* \"#utility.yul\":3417:3439   */\n      add\n        /* \"#utility.yul\":3396:3449   */\n      tag_154\n      jump\t// in\n    tag_242:\n        /* \"#utility.yul\":3386:3449   */\n      swap3\n      pop\n        /* \"#utility.yul\":3342:3459   */\n      pop\n        /* \"#utility.yul\":3526:3528   */\n      0x20\n        /* \"#utility.yul\":3515:3524   */\n      dup4\n        /* \"#utility.yul\":3511:3529   */\n      add\n        /* \"#utility.yul\":3498:3530   */\n      calldataload\n        /* \"#utility.yul\":3557:3575   */\n      0xffffffffffffffff\n        /* \"#utility.yul\":3549:3555   */\n      dup2\n        /* \"#utility.yul\":3546:3576   */\n      gt\n        /* \"#utility.yul\":3543:3660   */\n      iszero\n      tag_243\n      jumpi\n        /* \"#utility.yul\":3579:3658   */\n      tag_244\n      tag_151\n      jump\t// in\n    tag_244:\n        /* \"#utility.yul\":3543:3660   */\n    tag_243:\n        /* \"#utility.yul\":3684:3762   */\n      tag_245\n        /* \"#utility.yul\":3754:3761   */\n      dup6\n        /* \"#utility.yul\":3745:3751   */\n      dup3\n        /* \"#utility.yul\":3734:3743   */\n      dup7\n        /* \"#utility.yul\":3730:3752   */\n      add\n        /* \"#utility.yul\":3684:3762   */\n      tag_162\n      jump\t// in\n    tag_245:\n        /* \"#utility.yul\":3674:3762   */\n      swap2\n      pop\n        /* \"#utility.yul\":3469:3772   */\n      pop\n        /* \"#utility.yul\":3095:3779   */\n      swap3\n      pop\n      swap3\n      swap1\n      pop\n      jump\t// out\n        /* \"#utility.yul\":3785:4114   */\n    tag_22:\n        /* \"#utility.yul\":3844:3850   */\n      0x00\n        /* \"#utility.yul\":3893:3895   */\n      0x20\n        /* \"#utility.yul\":3881:3890   */\n      dup3\n        /* \"#utility.yul\":3872:3879   */\n      dup5\n        /* \"#utility.yul\":3868:3891   */\n      sub\n        /* \"#utility.yul\":3864:3896   */\n      slt\n        /* \"#utility.yul\":3861:3980   */\n      iszero\n      tag_247\n      jumpi\n        /* \"#utility.yul\":3899:3978   */\n      tag_248\n      tag_150\n      jump\t// in\n    tag_248:\n        /* \"#utility.yul\":3861:3980   */\n    tag_247:\n        /* \"#utility.yul\":4019:4020   */\n      0x00\n        /* \"#utility.yul\":4044:4097   */\n      tag_249\n        /* \"#utility.yul\":4089:4096   */\n      dup5\n        /* \"#utility.yul\":4080:4086   */\n      dup3\n        /* \"#utility.yul\":4069:4078   */\n      dup6\n        /* \"#utility.yul\":4065:4087   */\n      add\n        /* \"#utility.yul\":4044:4097   */\n      tag_154\n      jump\t// in\n    tag_249:\n        /* \"#utility.yul\":4034:4097   */\n      swap2\n      pop\n        /* \"#utility.yul\":3990:4107   */\n      pop\n        /* \"#utility.yul\":3785:4114   */\n      swap3\n      swap2\n      pop\n      pop\n      jump\t// out\n        /* \"#utility.yul\":4120:4238   */\n    tag_163:\n        /* \"#utility.yul\":4207:4231   */\n      tag_251\n        /* \"#utility.yul\":4225:4230   */\n      dup2\n        /* \"#utility.yul\":4207:4231   */\n      tag_152\n      jump\t// in\n    tag_251:\n        /* \"#utility.yul\":4202:4205   */\n      dup3\n        /* \"#utility.yul\":4195:4232   */\n      mstore\n        /* \"#utility.yul\":4120:4238   */\n      pop\n      pop\n      jump\t// out\n        /* \"#utility.yul\":4244:4466   */\n    tag_25:\n        /* \"#utility.yul\":4337:4341   */\n      0x00\n        /* \"#utility.yul\":4375:4377   */\n      0x20\n        /* \"#utility.yul\":4364:4373   */\n      dup3\n        /* \"#utility.yul\":4360:4378   */\n      add\n        /* \"#utility.yul\":4352:4378   */\n      swap1\n      pop\n        /* \"#utility.yul\":4388:4459   */\n      tag_253\n        /* \"#utility.yul\":4456:4457   */\n      0x00\n        /* \"#utility.yul\":4445:4454   */\n      dup4\n        /* \"#utility.yul\":4441:4458   */\n      add\n        /* \"#utility.yul\":4432:4438   */\n      dup5\n        /* \"#utility.yul\":4388:4459   */\n      tag_163\n      jump\t// in\n    tag_253:\n        /* \"#utility.yul\":4244:4466   */\n      swap3\n      swap2\n      pop\n      pop\n      jump\t// out\n        /* \"#utility.yul\":4472:4598   */\n    tag_164:\n        /* \"#utility.yul\":4509:4516   */\n      0x00\n        /* \"#utility.yul\":4549:4591   */\n      0xffffffffffffffffffffffffffffffffffffffff\n        /* \"#utility.yul\":4542:4547   */\n      dup3\n        /* \"#utility.yul\":4538:4592   */\n      and\n        /* \"#utility.yul\":4527:4592   */\n      swap1\n      pop\n        /* \"#utility.yul\":4472:4598   */\n      swap2\n      swap1\n      pop\n      jump\t// out\n        /* \"#utility.yul\":4604:4700   */\n    tag_165:\n        /* \"#utility.yul\":4641:4648   */\n      0x00\n        /* \"#utility.yul\":4670:4694   */\n      tag_256\n        /* \"#utility.yul\":4688:4693   */\n      dup3\n        /* \"#utility.yul\":4670:4694   */\n      tag_164\n      jump\t// in\n    tag_256:\n        /* \"#utility.yul\":4659:4694   */\n      swap1\n      pop\n        /* \"#utility.yul\":4604:4700   */\n      swap2\n      swap1\n      pop\n      jump\t// out\n        /* \"#utility.yul\":4706:4824   */\n    tag_166:\n        /* \"#utility.yul\":4793:4817   */\n      tag_258\n        /* \"#utility.yul\":4811:4816   */\n      dup2\n        /* \"#utility.yul\":4793:4817   */\n      tag_165\n      jump\t// in\n    tag_258:\n        /* \"#utility.yul\":4788:4791   */\n      dup3\n        /* \"#utility.yul\":4781:4818   */\n      mstore\n        /* \"#utility.yul\":4706:4824   */\n      pop\n      pop\n      jump\t// out\n        /* \"#utility.yul\":4830:5052   */\n    tag_29:\n        /* \"#utility.yul\":4923:4927   */\n      0x00\n        /* \"#utility.yul\":4961:4963   */\n      0x20\n        /* \"#utility.yul\":4950:4959   */\n      dup3\n        /* \"#utility.yul\":4946:4964   */\n      add\n        /* \"#utility.yul\":4938:4964   */\n      swap1\n      pop\n        /* \"#utility.yul\":4974:5045   */\n      tag_260\n        /* \"#utility.yul\":5042:5043   */\n      0x00\n        /* \"#utility.yul\":5031:5040   */\n      dup4\n        /* \"#utility.yul\":5027:5044   */\n      add\n        /* \"#utility.yul\":5018:5024   */\n      dup5\n        /* \"#utility.yul\":4974:5045   */\n      tag_166\n      jump\t// in\n    tag_260:\n        /* \"#utility.yul\":4830:5052   */\n      swap3\n      swap2\n      pop\n      pop\n      jump\t// out\n        /* \"#utility.yul\":5058:5148   */\n    tag_167:\n        /* \"#utility.yul\":5092:5099   */\n      0x00\n        /* \"#utility.yul\":5135:5140   */\n      dup2\n        /* \"#utility.yul\":5128:5141   */\n      iszero\n        /* \"#utility.yul\":5121:5142   */\n      iszero\n        /* \"#utility.yul\":5110:5142   */\n      swap1\n      pop\n        /* \"#utility.yul\":5058:5148   */\n      swap2\n      swap1\n      pop\n      jump\t// out\n        /* \"#utility.yul\":5154:5263   */\n    tag_168:\n        /* \"#utility.yul\":5235:5256   */\n      tag_263\n        /* \"#utility.yul\":5250:5255   */\n      dup2\n        /* \"#utility.yul\":5235:5256   */\n      tag_167\n      jump\t// in\n    tag_263:\n        /* \"#utility.yul\":5230:5233   */\n      dup3\n        /* \"#utility.yul\":5223:5257   */\n      mstore\n        /* \"#utility.yul\":5154:5263   */\n      pop\n      pop\n      jump\t// out\n        /* \"#utility.yul\":5269:5589   */\n    tag_36:\n        /* \"#utility.yul\":5384:5388   */\n      0x00\n        /* \"#utility.yul\":5422:5424   */\n      0x40\n        /* \"#utility.yul\":5411:5420   */\n      dup3\n        /* \"#utility.yul\":5407:5425   */\n      add\n        /* \"#utility.yul\":5399:5425   */\n      swap1\n      pop\n        /* \"#utility.yul\":5435:5506   */\n      tag_265\n        /* \"#utility.yul\":5503:5504   */\n      0x00\n        /* \"#utility.yul\":5492:5501   */\n      dup4\n        /* \"#utility.yul\":5488:5505   */\n      add\n        /* \"#utility.yul\":5479:5485   */\n      dup6\n        /* \"#utility.yul\":5435:5506   */\n      tag_163\n      jump\t// in\n    tag_265:\n        /* \"#utility.yul\":5516:5582   */\n      tag_266\n        /* \"#utility.yul\":5578:5580   */\n      0x20\n        /* \"#utility.yul\":5567:5576   */\n      dup4\n        /* \"#utility.yul\":5563:5581   */\n      add\n        /* \"#utility.yul\":5554:5560   */\n      dup5\n        /* \"#utility.yul\":5516:5582   */\n      tag_168\n      jump\t// in\n    tag_266:\n        /* \"#utility.yul\":5269:5589   */\n      swap4\n      swap3\n      pop\n      pop\n      pop\n      jump\t// out\n        /* \"#utility.yul\":5595:5709   */\n    tag_169:\n        /* \"#utility.yul\":5662:5668   */\n      0x00\n        /* \"#utility.yul\":5696:5701   */\n      dup2\n        /* \"#utility.yul\":5690:5702   */\n      mload\n        /* \"#utility.yul\":5680:5702   */\n      swap1\n      pop\n        /* \"#utility.yul\":5595:5709   */\n      swap2\n      swap1\n      pop\n      jump\t// out\n        /* \"#utility.yul\":5715:5899   */\n    tag_170:\n        /* \"#utility.yul\":5814:5825   */\n      0x00\n        /* \"#utility.yul\":5848:5854   */\n      dup3\n        /* \"#utility.yul\":5843:5846   */\n      dup3\n        /* \"#utility.yul\":5836:5855   */\n      mstore\n        /* \"#utility.yul\":5888:5892   */\n      0x20\n        /* \"#utility.yul\":5883:5886   */\n      dup3\n        /* \"#utility.yul\":5879:5893   */\n      add\n        /* \"#utility.yul\":5864:5893   */\n      swap1\n      pop\n        /* \"#utility.yul\":5715:5899   */\n      swap3\n      swap2\n      pop\n      pop\n      jump\t// out\n        /* \"#utility.yul\":5905:6037   */\n    tag_171:\n        /* \"#utility.yul\":5972:5976   */\n      0x00\n        /* \"#utility.yul\":5995:5998   */\n      dup2\n        /* \"#utility.yul\":5987:5998   */\n      swap1\n      pop\n        /* \"#utility.yul\":6025:6029   */\n      0x20\n        /* \"#utility.yul\":6020:6023   */\n      dup3\n        /* \"#utility.yul\":6016:6030   */\n      add\n        /* \"#utility.yul\":6008:6030   */\n      swap1\n      pop\n        /* \"#utility.yul\":5905:6037   */\n      swap2\n      swap1\n      pop\n      jump\t// out\n        /* \"#utility.yul\":6043:6151   */\n    tag_172:\n        /* \"#utility.yul\":6120:6144   */\n      tag_271\n        /* \"#utility.yul\":6138:6143   */\n      dup2\n        /* \"#utility.yul\":6120:6144   */\n      tag_152\n      jump\t// in\n    tag_271:\n        /* \"#utility.yul\":6115:6118   */\n      dup3\n        /* \"#utility.yul\":6108:6145   */\n      mstore\n        /* \"#utility.yul\":6043:6151   */\n      pop\n      pop\n      jump\t// out\n        /* \"#utility.yul\":6157:6336   */\n    tag_173:\n        /* \"#utility.yul\":6226:6236   */\n      0x00\n        /* \"#utility.yul\":6247:6293   */\n      tag_273\n        /* \"#utility.yul\":6289:6292   */\n      dup4\n        /* \"#utility.yul\":6281:6287   */\n      dup4\n        /* \"#utility.yul\":6247:6293   */\n      tag_172\n      jump\t// in\n    tag_273:\n        /* \"#utility.yul\":6325:6329   */\n      0x20\n        /* \"#utility.yul\":6320:6323   */\n      dup4\n        /* \"#utility.yul\":6316:6330   */\n      add\n        /* \"#utility.yul\":6302:6330   */\n      swap1\n      pop\n        /* \"#utility.yul\":6157:6336   */\n      swap3\n      swap2\n      pop\n      pop\n      jump\t// out\n        /* \"#utility.yul\":6342:6455   */\n    tag_174:\n        /* \"#utility.yul\":6412:6416   */\n      0x00\n        /* \"#utility.yul\":6444:6448   */\n      0x20\n        /* \"#utility.yul\":6439:6442   */\n      dup3\n        /* \"#utility.yul\":6435:6449   */\n      add\n        /* \"#utility.yul\":6427:6449   */\n      swap1\n      pop\n        /* \"#utility.yul\":6342:6455   */\n      swap2\n      swap1\n      pop\n      jump\t// out\n        /* \"#utility.yul\":6491:7223   */\n    tag_175:\n        /* \"#utility.yul\":6610:6613   */\n      0x00\n        /* \"#utility.yul\":6639:6693   */\n      tag_276\n        /* \"#utility.yul\":6687:6692   */\n      dup3\n        /* \"#utility.yul\":6639:6693   */\n      tag_169\n      jump\t// in\n    tag_276:\n        /* \"#utility.yul\":6709:6795   */\n      tag_277\n        /* \"#utility.yul\":6788:6794   */\n      dup2\n        /* \"#utility.yul\":6783:6786   */\n      dup6\n        /* \"#utility.yul\":6709:6795   */\n      tag_170\n      jump\t// in\n    tag_277:\n        /* \"#utility.yul\":6702:6795   */\n      swap4\n      pop\n        /* \"#utility.yul\":6819:6875   */\n      tag_278\n        /* \"#utility.yul\":6869:6874   */\n      dup4\n        /* \"#utility.yul\":6819:6875   */\n      tag_171\n      jump\t// in\n    tag_278:\n        /* \"#utility.yul\":6898:6905   */\n      dup1\n        /* \"#utility.yul\":6929:6930   */\n      0x00\n        /* \"#utility.yul\":6914:7198   */\n    tag_279:\n        /* \"#utility.yul\":6939:6945   */\n      dup4\n        /* \"#utility.yul\":6936:6937   */\n      dup2\n        /* \"#utility.yul\":6933:6946   */\n      lt\n        /* \"#utility.yul\":6914:7198   */\n      iszero\n      tag_281\n      jumpi\n        /* \"#utility.yul\":7015:7021   */\n      dup2\n        /* \"#utility.yul\":7009:7022   */\n      mload\n        /* \"#utility.yul\":7042:7105   */\n      tag_282\n        /* \"#utility.yul\":7101:7104   */\n      dup9\n        /* \"#utility.yul\":7086:7099   */\n      dup3\n        /* \"#utility.yul\":7042:7105   */\n      tag_173\n      jump\t// in\n    tag_282:\n        /* \"#utility.yul\":7035:7105   */\n      swap8\n      pop\n        /* \"#utility.yul\":7128:7188   */\n      tag_283\n        /* \"#utility.yul\":7181:7187   */\n      dup4\n        /* \"#utility.yul\":7128:7188   */\n      tag_174\n      jump\t// in\n    tag_283:\n        /* \"#utility.yul\":7118:7188   */\n      swap3\n      pop\n        /* \"#utility.yul\":6974:7198   */\n      pop\n        /* \"#utility.yul\":6961:6962   */\n      0x01\n        /* \"#utility.yul\":6958:6959   */\n      dup2\n        /* \"#utility.yul\":6954:6963   */\n      add\n        /* \"#utility.yul\":6949:6963   */\n      swap1\n      pop\n        /* \"#utility.yul\":6914:7198   */\n      jump(tag_279)\n    tag_281:\n        /* \"#utility.yul\":6918:6932   */\n      pop\n        /* \"#utility.yul\":7214:7217   */\n      dup6\n        /* \"#utility.yul\":7207:7217   */\n      swap4\n      pop\n        /* \"#utility.yul\":6615:7223   */\n      pop\n      pop\n      pop\n        /* \"#utility.yul\":6491:7223   */\n      swap3\n      swap2\n      pop\n      pop\n      jump\t// out\n        /* \"#utility.yul\":7229:7810   */\n    tag_41:\n        /* \"#utility.yul\":7422:7426   */\n      0x00\n        /* \"#utility.yul\":7460:7462   */\n      0x60\n        /* \"#utility.yul\":7449:7458   */\n      dup3\n        /* \"#utility.yul\":7445:7463   */\n      add\n        /* \"#utility.yul\":7437:7463   */\n      swap1\n      pop\n        /* \"#utility.yul\":7473:7544   */\n      tag_285\n        /* \"#utility.yul\":7541:7542   */\n      0x00\n        /* \"#utility.yul\":7530:7539   */\n      dup4\n        /* \"#utility.yul\":7526:7543   */\n      add\n        /* \"#utility.yul\":7517:7523   */\n      dup7\n        /* \"#utility.yul\":7473:7544   */\n      tag_163\n      jump\t// in\n    tag_285:\n        /* \"#utility.yul\":7554:7620   */\n      tag_286\n        /* \"#utility.yul\":7616:7618   */\n      0x20\n        /* \"#utility.yul\":7605:7614   */\n      dup4\n        /* \"#utility.yul\":7601:7619   */\n      add\n        /* \"#utility.yul\":7592:7598   */\n      dup6\n        /* \"#utility.yul\":7554:7620   */\n      tag_168\n      jump\t// in\n    tag_286:\n        /* \"#utility.yul\":7667:7676   */\n      dup2\n        /* \"#utility.yul\":7661:7665   */\n      dup2\n        /* \"#utility.yul\":7657:7677   */\n      sub\n        /* \"#utility.yul\":7652:7654   */\n      0x40\n        /* \"#utility.yul\":7641:7650   */\n      dup4\n        /* \"#utility.yul\":7637:7655   */\n      add\n        /* \"#utility.yul\":7630:7678   */\n      mstore\n        /* \"#utility.yul\":7695:7803   */\n      tag_287\n        /* \"#utility.yul\":7798:7802   */\n      dup2\n        /* \"#utility.yul\":7789:7795   */\n      dup5\n        /* \"#utility.yul\":7695:7803   */\n      tag_175\n      jump\t// in\n    tag_287:\n        /* \"#utility.yul\":7687:7803   */\n      swap1\n      pop\n        /* \"#utility.yul\":7229:7810   */\n      swap5\n      swap4\n      pop\n      pop\n      pop\n      pop\n      jump\t// out\n        /* \"#utility.yul\":7816:7938   */\n    tag_176:\n        /* \"#utility.yul\":7889:7913   */\n      tag_289\n        /* \"#utility.yul\":7907:7912   */\n      dup2\n        /* \"#utility.yul\":7889:7913   */\n      tag_165\n      jump\t// in\n    tag_289:\n        /* \"#utility.yul\":7882:7887   */\n      dup2\n        /* \"#utility.yul\":7879:7914   */\n      eq\n        /* \"#utility.yul\":7869:7932   */\n      tag_290\n      jumpi\n        /* \"#utility.yul\":7928:7929   */\n      0x00\n        /* \"#utility.yul\":7925:7926   */\n      dup1\n        /* \"#utility.yul\":7918:7930   */\n      revert\n        /* \"#utility.yul\":7869:7932   */\n    tag_290:\n        /* \"#utility.yul\":7816:7938   */\n      pop\n      jump\t// out\n        /* \"#utility.yul\":7944:8083   */\n    tag_177:\n        /* \"#utility.yul\":7990:7995   */\n      0x00\n        /* \"#utility.yul\":8028:8034   */\n      dup2\n        /* \"#utility.yul\":8015:8035   */\n      calldataload\n        /* \"#utility.yul\":8006:8035   */\n      swap1\n      pop\n        /* \"#utility.yul\":8044:8077   */\n      tag_292\n        /* \"#utility.yul\":8071:8076   */\n      dup2\n        /* \"#utility.yul\":8044:8077   */\n      tag_176\n      jump\t// in\n    tag_292:\n        /* \"#utility.yul\":7944:8083   */\n      swap3\n      swap2\n      pop\n      pop\n      jump\t// out\n        /* \"#utility.yul\":8089:8418   */\n    tag_47:\n        /* \"#utility.yul\":8148:8154   */\n      0x00\n        /* \"#utility.yul\":8197:8199   */\n      0x20\n        /* \"#utility.yul\":8185:8194   */\n      dup3\n        /* \"#utility.yul\":8176:8183   */\n      dup5\n        /* \"#utility.yul\":8172:8195   */\n      sub\n        /* \"#utility.yul\":8168:8200   */\n      slt\n        /* \"#utility.yul\":8165:8284   */\n      iszero\n      tag_294\n      jumpi\n        /* \"#utility.yul\":8203:8282   */\n      tag_295\n      tag_150\n      jump\t// in\n    tag_295:\n        /* \"#utility.yul\":8165:8284   */\n    tag_294:\n        /* \"#utility.yul\":8323:8324   */\n      0x00\n        /* \"#utility.yul\":8348:8401   */\n      tag_296\n        /* \"#utility.yul\":8393:8400   */\n      dup5\n        /* \"#utility.yul\":8384:8390   */\n      dup3\n        /* \"#utility.yul\":8373:8382   */\n      dup6\n        /* \"#utility.yul\":8369:8391   */\n      add\n        /* \"#utility.yul\":8348:8401   */\n      tag_177\n      jump\t// in\n    tag_296:\n        /* \"#utility.yul\":8338:8401   */\n      swap2\n      pop\n        /* \"#utility.yul\":8294:8411   */\n      pop\n        /* \"#utility.yul\":8089:8418   */\n      swap3\n      swap2\n      pop\n      pop\n      jump\t// out\n        /* \"#utility.yul\":8424:8593   */\n    tag_178:\n        /* \"#utility.yul\":8508:8519   */\n      0x00\n        /* \"#utility.yul\":8542:8548   */\n      dup3\n        /* \"#utility.yul\":8537:8540   */\n      dup3\n        /* \"#utility.yul\":8530:8549   */\n      mstore\n        /* \"#utility.yul\":8582:8586   */\n      0x20\n        /* \"#utility.yul\":8577:8580   */\n      dup3\n        /* \"#utility.yul\":8573:8587   */\n      add\n        /* \"#utility.yul\":8558:8587   */\n      swap1\n      pop\n        /* \"#utility.yul\":8424:8593   */\n      swap3\n      swap2\n      pop\n      pop\n      jump\t// out\n        /* \"#utility.yul\":8599:8780   */\n    tag_179:\n        /* \"#utility.yul\":8739:8772   */\n      0x6f6e6c792056524620563220777261707065722063616e2066756c66696c6c00\n        /* \"#utility.yul\":8735:8736   */\n      0x00\n        /* \"#utility.yul\":8727:8733   */\n      dup3\n        /* \"#utility.yul\":8723:8737   */\n      add\n        /* \"#utility.yul\":8716:8773   */\n      mstore\n        /* \"#utility.yul\":8599:8780   */\n      pop\n      jump\t// out\n        /* \"#utility.yul\":8786:9152   */\n    tag_180:\n        /* \"#utility.yul\":8928:8931   */\n      0x00\n        /* \"#utility.yul\":8949:9016   */\n      tag_300\n        /* \"#utility.yul\":9013:9015   */\n      0x1f\n        /* \"#utility.yul\":9008:9011   */\n      dup4\n        /* \"#utility.yul\":8949:9016   */\n      tag_178\n      jump\t// in\n    tag_300:\n        /* \"#utility.yul\":8942:9016   */\n      swap2\n      pop\n        /* \"#utility.yul\":9025:9118   */\n      tag_301\n        /* \"#utility.yul\":9114:9117   */\n      dup3\n        /* \"#utility.yul\":9025:9118   */\n      tag_179\n      jump\t// in\n    tag_301:\n        /* \"#utility.yul\":9143:9145   */\n      0x20\n        /* \"#utility.yul\":9138:9141   */\n      dup3\n        /* \"#utility.yul\":9134:9146   */\n      add\n        /* \"#utility.yul\":9127:9146   */\n      swap1\n      pop\n        /* \"#utility.yul\":8786:9152   */\n      swap2\n      swap1\n      pop\n      jump\t// out\n        /* \"#utility.yul\":9158:9577   */\n    tag_55:\n        /* \"#utility.yul\":9324:9328   */\n      0x00\n        /* \"#utility.yul\":9362:9364   */\n      0x20\n        /* \"#utility.yul\":9351:9360   */\n      dup3\n        /* \"#utility.yul\":9347:9365   */\n      add\n        /* \"#utility.yul\":9339:9365   */\n      swap1\n      pop\n        /* \"#utility.yul\":9411:9420   */\n      dup2\n        /* \"#utility.yul\":9405:9409   */\n      dup2\n        /* \"#utility.yul\":9401:9421   */\n      sub\n        /* \"#utility.yul\":9397:9398   */\n      0x00\n        /* \"#utility.yul\":9386:9395   */\n      dup4\n        /* \"#utility.yul\":9382:9399   */\n      add\n        /* \"#utility.yul\":9375:9422   */\n      mstore\n        /* \"#utility.yul\":9439:9570   */\n      tag_303\n        /* \"#utility.yul\":9565:9569   */\n      dup2\n        /* \"#utility.yul\":9439:9570   */\n      tag_180\n      jump\t// in\n    tag_303:\n        /* \"#utility.yul\":9431:9570   */\n      swap1\n      pop\n        /* \"#utility.yul\":9158:9577   */\n      swap2\n      swap1\n      pop\n      jump\t// out\n        /* \"#utility.yul\":9583:9755   */\n    tag_181:\n        /* \"#utility.yul\":9723:9747   */\n      0x4d7573742062652070726f706f736564206f776e657200000000000000000000\n        /* \"#utility.yul\":9719:9720   */\n      0x00\n        /* \"#utility.yul\":9711:9717   */\n      dup3\n        /* \"#utility.yul\":9707:9721   */\n      add\n        /* \"#utility.yul\":9700:9748   */\n      mstore\n        /* \"#utility.yul\":9583:9755   */\n      pop\n      jump\t// out\n        /* \"#utility.yul\":9761:10127   */\n    tag_182:\n        /* \"#utility.yul\":9903:9906   */\n      0x00\n        /* \"#utility.yul\":9924:9991   */\n      tag_306\n        /* \"#utility.yul\":9988:9990   */\n      0x16\n        /* \"#utility.yul\":9983:9986   */\n      dup4\n        /* \"#utility.yul\":9924:9991   */\n      tag_178\n      jump\t// in\n    tag_306:\n        /* \"#utility.yul\":9917:9991   */\n      swap2\n      pop\n        /* \"#utility.yul\":10000:10093   */\n      tag_307\n        /* \"#utility.yul\":10089:10092   */\n      dup3\n        /* \"#utility.yul\":10000:10093   */\n      tag_181\n      jump\t// in\n    tag_307:\n        /* \"#utility.yul\":10118:10120   */\n      0x20\n        /* \"#utility.yul\":10113:10116   */\n      dup3\n        /* \"#utility.yul\":10109:10121   */\n      add\n        /* \"#utility.yul\":10102:10121   */\n      swap1\n      pop\n        /* \"#utility.yul\":9761:10127   */\n      swap2\n      swap1\n      pop\n      jump\t// out\n        /* \"#utility.yul\":10133:10552   */\n    tag_61:\n        /* \"#utility.yul\":10299:10303   */\n      0x00\n        /* \"#utility.yul\":10337:10339   */\n      0x20\n        /* \"#utility.yul\":10326:10335   */\n      dup3\n        /* \"#utility.yul\":10322:10340   */\n      add\n        /* \"#utility.yul\":10314:10340   */\n      swap1\n      pop\n        /* \"#utility.yul\":10386:10395   */\n      dup2\n        /* \"#utility.yul\":10380:10384   */\n      dup2\n        /* \"#utility.yul\":10376:10396   */\n      sub\n        /* \"#utility.yul\":10372:10373   */\n      0x00\n        /* \"#utility.yul\":10361:10370   */\n      dup4\n        /* \"#utility.yul\":10357:10374   */\n      add\n        /* \"#utility.yul\":10350:10397   */\n      mstore\n        /* \"#utility.yul\":10414:10545   */\n      tag_309\n        /* \"#utility.yul\":10540:10544   */\n      dup2\n        /* \"#utility.yul\":10414:10545   */\n      tag_182\n      jump\t// in\n    tag_309:\n        /* \"#utility.yul\":10406:10545   */\n      swap1\n      pop\n        /* \"#utility.yul\":10133:10552   */\n      swap2\n      swap1\n      pop\n      jump\t// out\n        /* \"#utility.yul\":10558:10701   */\n    tag_183:\n        /* \"#utility.yul\":10615:10620   */\n      0x00\n        /* \"#utility.yul\":10646:10652   */\n      dup2\n        /* \"#utility.yul\":10640:10653   */\n      mload\n        /* \"#utility.yul\":10631:10653   */\n      swap1\n      pop\n        /* \"#utility.yul\":10662:10695   */\n      tag_311\n        /* \"#utility.yul\":10689:10694   */\n      dup2\n        /* \"#utility.yul\":10662:10695   */\n      tag_153\n      jump\t// in\n    tag_311:\n        /* \"#utility.yul\":10558:10701   */\n      swap3\n      swap2\n      pop\n      pop\n      jump\t// out\n        /* \"#utility.yul\":10707:11058   */\n    tag_73:\n        /* \"#utility.yul\":10777:10783   */\n      0x00\n        /* \"#utility.yul\":10826:10828   */\n      0x20\n        /* \"#utility.yul\":10814:10823   */\n      dup3\n        /* \"#utility.yul\":10805:10812   */\n      dup5\n        /* \"#utility.yul\":10801:10824   */\n      sub\n        /* \"#utility.yul\":10797:10829   */\n      slt\n        /* \"#utility.yul\":10794:10913   */\n      iszero\n      tag_313\n      jumpi\n        /* \"#utility.yul\":10832:10911   */\n      tag_314\n      tag_150\n      jump\t// in\n    tag_314:\n        /* \"#utility.yul\":10794:10913   */\n    tag_313:\n        /* \"#utility.yul\":10952:10953   */\n      0x00\n        /* \"#utility.yul\":10977:11041   */\n      tag_315\n        /* \"#utility.yul\":11033:11040   */\n      dup5\n        /* \"#utility.yul\":11024:11030   */\n      dup3\n        /* \"#utility.yul\":11013:11022   */\n      dup6\n        /* \"#utility.yul\":11009:11031   */\n      add\n        /* \"#utility.yul\":10977:11041   */\n      tag_183\n      jump\t// in\n    tag_315:\n        /* \"#utility.yul\":10967:11041   */\n      swap2\n      pop\n        /* \"#utility.yul\":10923:11051   */\n      pop\n        /* \"#utility.yul\":10707:11058   */\n      swap3\n      swap2\n      pop\n      pop\n      jump\t// out\n        /* \"#utility.yul\":11064:11396   */\n    tag_75:\n        /* \"#utility.yul\":11185:11189   */\n      0x00\n        /* \"#utility.yul\":11223:11225   */\n      0x40\n        /* \"#utility.yul\":11212:11221   */\n      dup3\n        /* \"#utility.yul\":11208:11226   */\n      add\n        /* \"#utility.yul\":11200:11226   */\n      swap1\n      pop\n        /* \"#utility.yul\":11236:11307   */\n      tag_317\n        /* \"#utility.yul\":11304:11305   */\n      0x00\n        /* \"#utility.yul\":11293:11302   */\n      dup4\n        /* \"#utility.yul\":11289:11306   */\n      add\n        /* \"#utility.yul\":11280:11286   */\n      dup6\n        /* \"#utility.yul\":11236:11307   */\n      tag_166\n      jump\t// in\n    tag_317:\n        /* \"#utility.yul\":11317:11389   */\n      tag_318\n        /* \"#utility.yul\":11385:11387   */\n      0x20\n        /* \"#utility.yul\":11374:11383   */\n      dup4\n        /* \"#utility.yul\":11370:11388   */\n      add\n        /* \"#utility.yul\":11361:11367   */\n      dup5\n        /* \"#utility.yul\":11317:11389   */\n      tag_163\n      jump\t// in\n    tag_318:\n        /* \"#utility.yul\":11064:11396   */\n      swap4\n      swap3\n      pop\n      pop\n      pop\n      jump\t// out\n        /* \"#utility.yul\":11402:11518   */\n    tag_184:\n        /* \"#utility.yul\":11472:11493   */\n      tag_320\n        /* \"#utility.yul\":11487:11492   */\n      dup2\n        /* \"#utility.yul\":11472:11493   */\n      tag_167\n      jump\t// in\n    tag_320:\n        /* \"#utility.yul\":11465:11470   */\n      dup2\n        /* \"#utility.yul\":11462:11494   */\n      eq\n        /* \"#utility.yul\":11452:11512   */\n      tag_321\n      jumpi\n        /* \"#utility.yul\":11508:11509   */\n      0x00\n        /* \"#utility.yul\":11505:11506   */\n      dup1\n        /* \"#utility.yul\":11498:11510   */\n      revert\n        /* \"#utility.yul\":11452:11512   */\n    tag_321:\n        /* \"#utility.yul\":11402:11518   */\n      pop\n      jump\t// out\n        /* \"#utility.yul\":11524:11661   */\n    tag_185:\n        /* \"#utility.yul\":11578:11583   */\n      0x00\n        /* \"#utility.yul\":11609:11615   */\n      dup2\n        /* \"#utility.yul\":11603:11616   */\n      mload\n        /* \"#utility.yul\":11594:11616   */\n      swap1\n      pop\n        /* \"#utility.yul\":11625:11655   */\n      tag_323\n        /* \"#utility.yul\":11649:11654   */\n      dup2\n        /* \"#utility.yul\":11625:11655   */\n      tag_184\n      jump\t// in\n    tag_323:\n        /* \"#utility.yul\":11524:11661   */\n      swap3\n      swap2\n      pop\n      pop\n      jump\t// out\n        /* \"#utility.yul\":11667:12012   */\n    tag_79:\n        /* \"#utility.yul\":11734:11740   */\n      0x00\n        /* \"#utility.yul\":11783:11785   */\n      0x20\n        /* \"#utility.yul\":11771:11780   */\n      dup3\n        /* \"#utility.yul\":11762:11769   */\n      dup5\n        /* \"#utility.yul\":11758:11781   */\n      sub\n        /* \"#utility.yul\":11754:11786   */\n      slt\n        /* \"#utility.yul\":11751:11870   */\n      iszero\n      tag_325\n      jumpi\n        /* \"#utility.yul\":11789:11868   */\n      tag_326\n      tag_150\n      jump\t// in\n    tag_326:\n        /* \"#utility.yul\":11751:11870   */\n    tag_325:\n        /* \"#utility.yul\":11909:11910   */\n      0x00\n        /* \"#utility.yul\":11934:11995   */\n      tag_327\n        /* \"#utility.yul\":11987:11994   */\n      dup5\n        /* \"#utility.yul\":11978:11984   */\n      dup3\n        /* \"#utility.yul\":11967:11976   */\n      dup6\n        /* \"#utility.yul\":11963:11985   */\n      add\n        /* \"#utility.yul\":11934:11995   */\n      tag_185\n      jump\t// in\n    tag_327:\n        /* \"#utility.yul\":11924:11995   */\n      swap2\n      pop\n        /* \"#utility.yul\":11880:12005   */\n      pop\n        /* \"#utility.yul\":11667:12012   */\n      swap3\n      swap2\n      pop\n      pop\n      jump\t// out\n        /* \"#utility.yul\":12018:12186   */\n    tag_186:\n        /* \"#utility.yul\":12158:12178   */\n      0x556e61626c6520746f207472616e736665720000000000000000000000000000\n        /* \"#utility.yul\":12154:12155   */\n      0x00\n        /* \"#utility.yul\":12146:12152   */\n      dup3\n        /* \"#utility.yul\":12142:12156   */\n      add\n        /* \"#utility.yul\":12135:12179   */\n      mstore\n        /* \"#utility.yul\":12018:12186   */\n      pop\n      jump\t// out\n        /* \"#utility.yul\":12192:12558   */\n    tag_187:\n        /* \"#utility.yul\":12334:12337   */\n      0x00\n        /* \"#utility.yul\":12355:12422   */\n      tag_330\n        /* \"#utility.yul\":12419:12421   */\n      0x12\n        /* \"#utility.yul\":12414:12417   */\n      dup4\n        /* \"#utility.yul\":12355:12422   */\n      tag_178\n      jump\t// in\n    tag_330:\n        /* \"#utility.yul\":12348:12422   */\n      swap2\n      pop\n        /* \"#utility.yul\":12431:12524   */\n      tag_331\n        /* \"#utility.yul\":12520:12523   */\n      dup3\n        /* \"#utility.yul\":12431:12524   */\n      tag_186\n      jump\t// in\n    tag_331:\n        /* \"#utility.yul\":12549:12551   */\n      0x20\n        /* \"#utility.yul\":12544:12547   */\n      dup3\n        /* \"#utility.yul\":12540:12552   */\n      add\n        /* \"#utility.yul\":12533:12552   */\n      swap1\n      pop\n        /* \"#utility.yul\":12192:12558   */\n      swap2\n      swap1\n      pop\n      jump\t// out\n        /* \"#utility.yul\":12564:12983   */\n    tag_82:\n        /* \"#utility.yul\":12730:12734   */\n      0x00\n        /* \"#utility.yul\":12768:12770   */\n      0x20\n        /* \"#utility.yul\":12757:12766   */\n      dup3\n        /* \"#utility.yul\":12753:12771   */\n      add\n        /* \"#utility.yul\":12745:12771   */\n      swap1\n      pop\n        /* \"#utility.yul\":12817:12826   */\n      dup2\n        /* \"#utility.yul\":12811:12815   */\n      dup2\n        /* \"#utility.yul\":12807:12827   */\n      sub\n        /* \"#utility.yul\":12803:12804   */\n      0x00\n        /* \"#utility.yul\":12792:12801   */\n      dup4\n        /* \"#utility.yul\":12788:12805   */\n      add\n        /* \"#utility.yul\":12781:12828   */\n      mstore\n        /* \"#utility.yul\":12845:12976   */\n      tag_333\n        /* \"#utility.yul\":12971:12975   */\n      dup2\n        /* \"#utility.yul\":12845:12976   */\n      tag_187\n      jump\t// in\n    tag_333:\n        /* \"#utility.yul\":12837:12976   */\n      swap1\n      pop\n        /* \"#utility.yul\":12564:12983   */\n      swap2\n      swap1\n      pop\n      jump\t// out\n        /* \"#utility.yul\":12989:13156   */\n    tag_188:\n        /* \"#utility.yul\":13129:13148   */\n      0x72657175657374206e6f7420666f756e64000000000000000000000000000000\n        /* \"#utility.yul\":13125:13126   */\n      0x00\n        /* \"#utility.yul\":13117:13123   */\n      dup3\n        /* \"#utility.yul\":13113:13127   */\n      add\n        /* \"#utility.yul\":13106:13149   */\n      mstore\n        /* \"#utility.yul\":12989:13156   */\n      pop\n      jump\t// out\n        /* \"#utility.yul\":13162:13528   */\n    tag_189:\n        /* \"#utility.yul\":13304:13307   */\n      0x00\n        /* \"#utility.yul\":13325:13392   */\n      tag_336\n        /* \"#utility.yul\":13389:13391   */\n      0x11\n        /* \"#utility.yul\":13384:13387   */\n      dup4\n        /* \"#utility.yul\":13325:13392   */\n      tag_178\n      jump\t// in\n    tag_336:\n        /* \"#utility.yul\":13318:13392   */\n      swap2\n      pop\n        /* \"#utility.yul\":13401:13494   */\n      tag_337\n        /* \"#utility.yul\":13490:13493   */\n      dup3\n        /* \"#utility.yul\":13401:13494   */\n      tag_188\n      jump\t// in\n    tag_337:\n        /* \"#utility.yul\":13519:13521   */\n      0x20\n        /* \"#utility.yul\":13514:13517   */\n      dup3\n        /* \"#utility.yul\":13510:13522   */\n      add\n        /* \"#utility.yul\":13503:13522   */\n      swap1\n      pop\n        /* \"#utility.yul\":13162:13528   */\n      swap2\n      swap1\n      pop\n      jump\t// out\n        /* \"#utility.yul\":13534:13953   */\n    tag_86:\n        /* \"#utility.yul\":13700:13704   */\n      0x00\n        /* \"#utility.yul\":13738:13740   */\n      0x20\n        /* \"#utility.yul\":13727:13736   */\n      dup3\n        /* \"#utility.yul\":13723:13741   */\n      add\n        /* \"#utility.yul\":13715:13741   */\n      swap1\n      pop\n        /* \"#utility.yul\":13787:13796   */\n      dup2\n        /* \"#utility.yul\":13781:13785   */\n      dup2\n        /* \"#utility.yul\":13777:13797   */\n      sub\n        /* \"#utility.yul\":13773:13774   */\n      0x00\n        /* \"#utility.yul\":13762:13771   */\n      dup4\n        /* \"#utility.yul\":13758:13775   */\n      add\n        /* \"#utility.yul\":13751:13798   */\n      mstore\n        /* \"#utility.yul\":13815:13946   */\n      tag_339\n        /* \"#utility.yul\":13941:13945   */\n      dup2\n        /* \"#utility.yul\":13815:13946   */\n      tag_189\n      jump\t// in\n    tag_339:\n        /* \"#utility.yul\":13807:13946   */\n      swap1\n      pop\n        /* \"#utility.yul\":13534:13953   */\n      swap2\n      swap1\n      pop\n      jump\t// out\n        /* \"#utility.yul\":13959:14052   */\n    tag_190:\n        /* \"#utility.yul\":13995:14002   */\n      0x00\n        /* \"#utility.yul\":14035:14045   */\n      0xffffffff\n        /* \"#utility.yul\":14028:14033   */\n      dup3\n        /* \"#utility.yul\":14024:14046   */\n      and\n        /* \"#utility.yul\":14013:14046   */\n      swap1\n      pop\n        /* \"#utility.yul\":13959:14052   */\n      swap2\n      swap1\n      pop\n      jump\t// out\n        /* \"#utility.yul\":14058:14173   */\n    tag_191:\n        /* \"#utility.yul\":14143:14166   */\n      tag_342\n        /* \"#utility.yul\":14160:14165   */\n      dup2\n        /* \"#utility.yul\":14143:14166   */\n      tag_190\n      jump\t// in\n    tag_342:\n        /* \"#utility.yul\":14138:14141   */\n      dup3\n        /* \"#utility.yul\":14131:14167   */\n      mstore\n        /* \"#utility.yul\":14058:14173   */\n      pop\n      pop\n      jump\t// out\n        /* \"#utility.yul\":14179:14397   */\n    tag_95:\n        /* \"#utility.yul\":14270:14274   */\n      0x00\n        /* \"#utility.yul\":14308:14310   */\n      0x20\n        /* \"#utility.yul\":14297:14306   */\n      dup3\n        /* \"#utility.yul\":14293:14311   */\n      add\n        /* \"#utility.yul\":14285:14311   */\n      swap1\n      pop\n        /* \"#utility.yul\":14321:14390   */\n      tag_344\n        /* \"#utility.yul\":14387:14388   */\n      0x00\n        /* \"#utility.yul\":14376:14385   */\n      dup4\n        /* \"#utility.yul\":14372:14389   */\n      add\n        /* \"#utility.yul\":14363:14369   */\n      dup5\n        /* \"#utility.yul\":14321:14390   */\n      tag_191\n      jump\t// in\n    tag_344:\n        /* \"#utility.yul\":14179:14397   */\n      swap3\n      swap2\n      pop\n      pop\n      jump\t// out\n        /* \"#utility.yul\":14403:14731   */\n    tag_107:\n        /* \"#utility.yul\":14522:14526   */\n      0x00\n        /* \"#utility.yul\":14560:14562   */\n      0x40\n        /* \"#utility.yul\":14549:14558   */\n      dup3\n        /* \"#utility.yul\":14545:14563   */\n      add\n        /* \"#utility.yul\":14537:14563   */\n      swap1\n      pop\n        /* \"#utility.yul\":14573:14644   */\n      tag_346\n        /* \"#utility.yul\":14641:14642   */\n      0x00\n        /* \"#utility.yul\":14630:14639   */\n      dup4\n        /* \"#utility.yul\":14626:14643   */\n      add\n        /* \"#utility.yul\":14617:14623   */\n      dup6\n        /* \"#utility.yul\":14573:14644   */\n      tag_163\n      jump\t// in\n    tag_346:\n        /* \"#utility.yul\":14654:14724   */\n      tag_347\n        /* \"#utility.yul\":14720:14722   */\n      0x20\n        /* \"#utility.yul\":14709:14718   */\n      dup4\n        /* \"#utility.yul\":14705:14723   */\n      add\n        /* \"#utility.yul\":14696:14702   */\n      dup5\n        /* \"#utility.yul\":14654:14724   */\n      tag_191\n      jump\t// in\n    tag_347:\n        /* \"#utility.yul\":14403:14731   */\n      swap4\n      swap3\n      pop\n      pop\n      pop\n      jump\t// out\n        /* \"#utility.yul\":14737:15330   */\n    tag_118:\n        /* \"#utility.yul\":14936:14940   */\n      0x00\n        /* \"#utility.yul\":14974:14976   */\n      0x60\n        /* \"#utility.yul\":14963:14972   */\n      dup3\n        /* \"#utility.yul\":14959:14977   */\n      add\n        /* \"#utility.yul\":14951:14977   */\n      swap1\n      pop\n        /* \"#utility.yul\":14987:15058   */\n      tag_349\n        /* \"#utility.yul\":15055:15056   */\n      0x00\n        /* \"#utility.yul\":15044:15053   */\n      dup4\n        /* \"#utility.yul\":15040:15057   */\n      add\n        /* \"#utility.yul\":15031:15037   */\n      dup7\n        /* \"#utility.yul\":14987:15058   */\n      tag_163\n      jump\t// in\n    tag_349:\n        /* \"#utility.yul\":15105:15114   */\n      dup2\n        /* \"#utility.yul\":15099:15103   */\n      dup2\n        /* \"#utility.yul\":15095:15115   */\n      sub\n        /* \"#utility.yul\":15090:15092   */\n      0x20\n        /* \"#utility.yul\":15079:15088   */\n      dup4\n        /* \"#utility.yul\":15075:15093   */\n      add\n        /* \"#utility.yul\":15068:15116   */\n      mstore\n        /* \"#utility.yul\":15133:15241   */\n      tag_350\n        /* \"#utility.yul\":15236:15240   */\n      dup2\n        /* \"#utility.yul\":15227:15233   */\n      dup6\n        /* \"#utility.yul\":15133:15241   */\n      tag_175\n      jump\t// in\n    tag_350:\n        /* \"#utility.yul\":15125:15241   */\n      swap1\n      pop\n        /* \"#utility.yul\":15251:15323   */\n      tag_351\n        /* \"#utility.yul\":15319:15321   */\n      0x40\n        /* \"#utility.yul\":15308:15317   */\n      dup4\n        /* \"#utility.yul\":15304:15322   */\n      add\n        /* \"#utility.yul\":15295:15301   */\n      dup5\n        /* \"#utility.yul\":15251:15323   */\n      tag_163\n      jump\t// in\n    tag_351:\n        /* \"#utility.yul\":14737:15330   */\n      swap5\n      swap4\n      pop\n      pop\n      pop\n      pop\n      jump\t// out\n        /* \"#utility.yul\":15336:15508   */\n    tag_192:\n        /* \"#utility.yul\":15476:15500   */\n      0x4f6e6c792063616c6c61626c65206279206f776e657200000000000000000000\n        /* \"#utility.yul\":15472:15473   */\n      0x00\n        /* \"#utility.yul\":15464:15470   */\n      dup3\n        /* \"#utility.yul\":15460:15474   */\n      add\n        /* \"#utility.yul\":15453:15501   */\n      mstore\n        /* \"#utility.yul\":15336:15508   */\n      pop\n      jump\t// out\n        /* \"#utility.yul\":15514:15880   */\n    tag_193:\n        /* \"#utility.yul\":15656:15659   */\n      0x00\n        /* \"#utility.yul\":15677:15744   */\n      tag_354\n        /* \"#utility.yul\":15741:15743   */\n      0x16\n        /* \"#utility.yul\":15736:15739   */\n      dup4\n        /* \"#utility.yul\":15677:15744   */\n      tag_178\n      jump\t// in\n    tag_354:\n        /* \"#utility.yul\":15670:15744   */\n      swap2\n      pop\n        /* \"#utility.yul\":15753:15846   */\n      tag_355\n        /* \"#utility.yul\":15842:15845   */\n      dup3\n        /* \"#utility.yul\":15753:15846   */\n      tag_192\n      jump\t// in\n    tag_355:\n        /* \"#utility.yul\":15871:15873   */\n      0x20\n        /* \"#utility.yul\":15866:15869   */\n      dup3\n        /* \"#utility.yul\":15862:15874   */\n      add\n        /* \"#utility.yul\":15855:15874   */\n      swap1\n      pop\n        /* \"#utility.yul\":15514:15880   */\n      swap2\n      swap1\n      pop\n      jump\t// out\n        /* \"#utility.yul\":15886:16305   */\n    tag_122:\n        /* \"#utility.yul\":16052:16056   */\n      0x00\n        /* \"#utility.yul\":16090:16092   */\n      0x20\n        /* \"#utility.yul\":16079:16088   */\n      dup3\n        /* \"#utility.yul\":16075:16093   */\n      add\n        /* \"#utility.yul\":16067:16093   */\n      swap1\n      pop\n        /* \"#utility.yul\":16139:16148   */\n      dup2\n        /* \"#utility.yul\":16133:16137   */\n      dup2\n        /* \"#utility.yul\":16129:16149   */\n      sub\n        /* \"#utility.yul\":16125:16126   */\n      0x00\n        /* \"#utility.yul\":16114:16123   */\n      dup4\n        /* \"#utility.yul\":16110:16127   */\n      add\n        /* \"#utility.yul\":16103:16150   */\n      mstore\n        /* \"#utility.yul\":16167:16298   */\n      tag_357\n        /* \"#utility.yul\":16293:16297   */\n      dup2\n        /* \"#utility.yul\":16167:16298   */\n      tag_193\n      jump\t// in\n    tag_357:\n        /* \"#utility.yul\":16159:16298   */\n      swap1\n      pop\n        /* \"#utility.yul\":15886:16305   */\n      swap2\n      swap1\n      pop\n      jump\t// out\n        /* \"#utility.yul\":16311:16400   */\n    tag_194:\n        /* \"#utility.yul\":16347:16354   */\n      0x00\n        /* \"#utility.yul\":16387:16393   */\n      0xffff\n        /* \"#utility.yul\":16380:16385   */\n      dup3\n        /* \"#utility.yul\":16376:16394   */\n      and\n        /* \"#utility.yul\":16365:16394   */\n      swap1\n      pop\n        /* \"#utility.yul\":16311:16400   */\n      swap2\n      swap1\n      pop\n      jump\t// out\n        /* \"#utility.yul\":16406:16521   */\n    tag_195:\n        /* \"#utility.yul\":16491:16514   */\n      tag_360\n        /* \"#utility.yul\":16508:16513   */\n      dup2\n        /* \"#utility.yul\":16491:16514   */\n      tag_194\n      jump\t// in\n    tag_360:\n        /* \"#utility.yul\":16486:16489   */\n      dup3\n        /* \"#utility.yul\":16479:16515   */\n      mstore\n        /* \"#utility.yul\":16406:16521   */\n      pop\n      pop\n      jump\t// out\n        /* \"#utility.yul\":16527:16957   */\n    tag_129:\n        /* \"#utility.yul\":16670:16674   */\n      0x00\n        /* \"#utility.yul\":16708:16710   */\n      0x60\n        /* \"#utility.yul\":16697:16706   */\n      dup3\n        /* \"#utility.yul\":16693:16711   */\n      add\n        /* \"#utility.yul\":16685:16711   */\n      swap1\n      pop\n        /* \"#utility.yul\":16721:16790   */\n      tag_362\n        /* \"#utility.yul\":16787:16788   */\n      0x00\n        /* \"#utility.yul\":16776:16785   */\n      dup4\n        /* \"#utility.yul\":16772:16789   */\n      add\n        /* \"#utility.yul\":16763:16769   */\n      dup7\n        /* \"#utility.yul\":16721:16790   */\n      tag_191\n      jump\t// in\n    tag_362:\n        /* \"#utility.yul\":16800:16870   */\n      tag_363\n        /* \"#utility.yul\":16866:16868   */\n      0x20\n        /* \"#utility.yul\":16855:16864   */\n      dup4\n        /* \"#utility.yul\":16851:16869   */\n      add\n        /* \"#utility.yul\":16842:16848   */\n      dup6\n        /* \"#utility.yul\":16800:16870   */\n      tag_195\n      jump\t// in\n    tag_363:\n        /* \"#utility.yul\":16880:16950   */\n      tag_364\n        /* \"#utility.yul\":16946:16948   */\n      0x40\n        /* \"#utility.yul\":16935:16944   */\n      dup4\n        /* \"#utility.yul\":16931:16949   */\n      add\n        /* \"#utility.yul\":16922:16928   */\n      dup5\n        /* \"#utility.yul\":16880:16950   */\n      tag_191\n      jump\t// in\n    tag_364:\n        /* \"#utility.yul\":16527:16957   */\n      swap5\n      swap4\n      pop\n      pop\n      pop\n      pop\n      jump\t// out\n        /* \"#utility.yul\":16963:17061   */\n    tag_196:\n        /* \"#utility.yul\":17014:17020   */\n      0x00\n        /* \"#utility.yul\":17048:17053   */\n      dup2\n        /* \"#utility.yul\":17042:17054   */\n      mload\n        /* \"#utility.yul\":17032:17054   */\n      swap1\n      pop\n        /* \"#utility.yul\":16963:17061   */\n      swap2\n      swap1\n      pop\n      jump\t// out\n        /* \"#utility.yul\":17067:17235   */\n    tag_197:\n        /* \"#utility.yul\":17150:17161   */\n      0x00\n        /* \"#utility.yul\":17184:17190   */\n      dup3\n        /* \"#utility.yul\":17179:17182   */\n      dup3\n        /* \"#utility.yul\":17172:17191   */\n      mstore\n        /* \"#utility.yul\":17224:17228   */\n      0x20\n        /* \"#utility.yul\":17219:17222   */\n      dup3\n        /* \"#utility.yul\":17215:17229   */\n      add\n        /* \"#utility.yul\":17200:17229   */\n      swap1\n      pop\n        /* \"#utility.yul\":17067:17235   */\n      swap3\n      swap2\n      pop\n      pop\n      jump\t// out\n        /* \"#utility.yul\":17241:17548   */\n    tag_198:\n        /* \"#utility.yul\":17309:17310   */\n      0x00\n        /* \"#utility.yul\":17319:17432   */\n    tag_368:\n        /* \"#utility.yul\":17333:17339   */\n      dup4\n        /* \"#utility.yul\":17330:17331   */\n      dup2\n        /* \"#utility.yul\":17327:17340   */\n      lt\n        /* \"#utility.yul\":17319:17432   */\n      iszero\n      tag_370\n      jumpi\n        /* \"#utility.yul\":17418:17419   */\n      dup1\n        /* \"#utility.yul\":17413:17416   */\n      dup3\n        /* \"#utility.yul\":17409:17420   */\n      add\n        /* \"#utility.yul\":17403:17421   */\n      mload\n        /* \"#utility.yul\":17399:17400   */\n      dup2\n        /* \"#utility.yul\":17394:17397   */\n      dup5\n        /* \"#utility.yul\":17390:17401   */\n      add\n        /* \"#utility.yul\":17383:17422   */\n      mstore\n        /* \"#utility.yul\":17355:17357   */\n      0x20\n        /* \"#utility.yul\":17352:17353   */\n      dup2\n        /* \"#utility.yul\":17348:17358   */\n      add\n        /* \"#utility.yul\":17343:17358   */\n      swap1\n      pop\n        /* \"#utility.yul\":17319:17432   */\n      jump(tag_368)\n    tag_370:\n        /* \"#utility.yul\":17450:17456   */\n      dup4\n        /* \"#utility.yul\":17447:17448   */\n      dup2\n        /* \"#utility.yul\":17444:17457   */\n      gt\n        /* \"#utility.yul\":17441:17542   */\n      iszero\n      tag_371\n      jumpi\n        /* \"#utility.yul\":17530:17531   */\n      0x00\n        /* \"#utility.yul\":17521:17527   */\n      dup5\n        /* \"#utility.yul\":17516:17519   */\n      dup5\n        /* \"#utility.yul\":17512:17528   */\n      add\n        /* \"#utility.yul\":17505:17532   */\n      mstore\n        /* \"#utility.yul\":17441:17542   */\n    tag_371:\n        /* \"#utility.yul\":17290:17548   */\n      pop\n        /* \"#utility.yul\":17241:17548   */\n      pop\n      pop\n      pop\n      jump\t// out\n        /* \"#utility.yul\":17554:17914   */\n    tag_199:\n        /* \"#utility.yul\":17640:17643   */\n      0x00\n        /* \"#utility.yul\":17668:17706   */\n      tag_373\n        /* \"#utility.yul\":17700:17705   */\n      dup3\n        /* \"#utility.yul\":17668:17706   */\n      tag_196\n      jump\t// in\n    tag_373:\n        /* \"#utility.yul\":17722:17792   */\n      tag_374\n        /* \"#utility.yul\":17785:17791   */\n      dup2\n        /* \"#utility.yul\":17780:17783   */\n      dup6\n        /* \"#utility.yul\":17722:17792   */\n      tag_197\n      jump\t// in\n    tag_374:\n        /* \"#utility.yul\":17715:17792   */\n      swap4\n      pop\n        /* \"#utility.yul\":17801:17853   */\n      tag_375\n        /* \"#utility.yul\":17846:17852   */\n      dup2\n        /* \"#utility.yul\":17841:17844   */\n      dup6\n        /* \"#utility.yul\":17834:17838   */\n      0x20\n        /* \"#utility.yul\":17827:17832   */\n      dup7\n        /* \"#utility.yul\":17823:17839   */\n      add\n        /* \"#utility.yul\":17801:17853   */\n      tag_198\n      jump\t// in\n    tag_375:\n        /* \"#utility.yul\":17878:17907   */\n      tag_376\n        /* \"#utility.yul\":17900:17906   */\n      dup2\n        /* \"#utility.yul\":17878:17907   */\n      tag_156\n      jump\t// in\n    tag_376:\n        /* \"#utility.yul\":17873:17876   */\n      dup5\n        /* \"#utility.yul\":17869:17908   */\n      add\n        /* \"#utility.yul\":17862:17908   */\n      swap2\n      pop\n        /* \"#utility.yul\":17644:17914   */\n      pop\n        /* \"#utility.yul\":17554:17914   */\n      swap3\n      swap2\n      pop\n      pop\n      jump\t// out\n        /* \"#utility.yul\":17920:18449   */\n    tag_131:\n        /* \"#utility.yul\":18087:18091   */\n      0x00\n        /* \"#utility.yul\":18125:18127   */\n      0x60\n        /* \"#utility.yul\":18114:18123   */\n      dup3\n        /* \"#utility.yul\":18110:18128   */\n      add\n        /* \"#utility.yul\":18102:18128   */\n      swap1\n      pop\n        /* \"#utility.yul\":18138:18209   */\n      tag_378\n        /* \"#utility.yul\":18206:18207   */\n      0x00\n        /* \"#utility.yul\":18195:18204   */\n      dup4\n        /* \"#utility.yul\":18191:18208   */\n      add\n        /* \"#utility.yul\":18182:18188   */\n      dup7\n        /* \"#utility.yul\":18138:18209   */\n      tag_166\n      jump\t// in\n    tag_378:\n        /* \"#utility.yul\":18219:18291   */\n      tag_379\n        /* \"#utility.yul\":18287:18289   */\n      0x20\n        /* \"#utility.yul\":18276:18285   */\n      dup4\n        /* \"#utility.yul\":18272:18290   */\n      add\n        /* \"#utility.yul\":18263:18269   */\n      dup6\n        /* \"#utility.yul\":18219:18291   */\n      tag_163\n      jump\t// in\n    tag_379:\n        /* \"#utility.yul\":18338:18347   */\n      dup2\n        /* \"#utility.yul\":18332:18336   */\n      dup2\n        /* \"#utility.yul\":18328:18348   */\n      sub\n        /* \"#utility.yul\":18323:18325   */\n      0x40\n        /* \"#utility.yul\":18312:18321   */\n      dup4\n        /* \"#utility.yul\":18308:18326   */\n      add\n        /* \"#utility.yul\":18301:18349   */\n      mstore\n        /* \"#utility.yul\":18366:18442   */\n      tag_380\n        /* \"#utility.yul\":18437:18441   */\n      dup2\n        /* \"#utility.yul\":18428:18434   */\n      dup5\n        /* \"#utility.yul\":18366:18442   */\n      tag_199\n      jump\t// in\n    tag_380:\n        /* \"#utility.yul\":18358:18442   */\n      swap1\n      pop\n        /* \"#utility.yul\":17920:18449   */\n      swap5\n      swap4\n      pop\n      pop\n      pop\n      pop\n      jump\t// out\n        /* \"#utility.yul\":18455:18628   */\n    tag_200:\n        /* \"#utility.yul\":18595:18620   */\n      0x43616e6e6f74207472616e7366657220746f2073656c66000000000000000000\n        /* \"#utility.yul\":18591:18592   */\n      0x00\n        /* \"#utility.yul\":18583:18589   */\n      dup3\n        /* \"#utility.yul\":18579:18593   */\n      add\n        /* \"#utility.yul\":18572:18621   */\n      mstore\n        /* \"#utility.yul\":18455:18628   */\n      pop\n      jump\t// out\n        /* \"#utility.yul\":18634:19000   */\n    tag_201:\n        /* \"#utility.yul\":18776:18779   */\n      0x00\n        /* \"#utility.yul\":18797:18864   */\n      tag_383\n        /* \"#utility.yul\":18861:18863   */\n      0x17\n        /* \"#utility.yul\":18856:18859   */\n      dup4\n        /* \"#utility.yul\":18797:18864   */\n      tag_178\n      jump\t// in\n    tag_383:\n        /* \"#utility.yul\":18790:18864   */\n      swap2\n      pop\n        /* \"#utility.yul\":18873:18966   */\n      tag_384\n        /* \"#utility.yul\":18962:18965   */\n      dup3\n        /* \"#utility.yul\":18873:18966   */\n      tag_200\n      jump\t// in\n    tag_384:\n        /* \"#utility.yul\":18991:18993   */\n      0x20\n        /* \"#utility.yul\":18986:18989   */\n      dup3\n        /* \"#utility.yul\":18982:18994   */\n      add\n        /* \"#utility.yul\":18975:18994   */\n      swap1\n      pop\n        /* \"#utility.yul\":18634:19000   */\n      swap2\n      swap1\n      pop\n      jump\t// out\n        /* \"#utility.yul\":19006:19425   */\n    tag_141:\n        /* \"#utility.yul\":19172:19176   */\n      0x00\n        /* \"#utility.yul\":19210:19212   */\n      0x20\n        /* \"#utility.yul\":19199:19208   */\n      dup3\n        /* \"#utility.yul\":19195:19213   */\n      add\n        /* \"#utility.yul\":19187:19213   */\n      swap1\n      pop\n        /* \"#utility.yul\":19259:19268   */\n      dup2\n        /* \"#utility.yul\":19253:19257   */\n      dup2\n        /* \"#utility.yul\":19249:19269   */\n      sub\n        /* \"#utility.yul\":19245:19246   */\n      0x00\n        /* \"#utility.yul\":19234:19243   */\n      dup4\n        /* \"#utility.yul\":19230:19247   */\n      add\n        /* \"#utility.yul\":19223:19270   */\n      mstore\n        /* \"#utility.yul\":19287:19418   */\n      tag_386\n        /* \"#utility.yul\":19413:19417   */\n      dup2\n        /* \"#utility.yul\":19287:19418   */\n      tag_201\n      jump\t// in\n    tag_386:\n        /* \"#utility.yul\":19279:19418   */\n      swap1\n      pop\n        /* \"#utility.yul\":19006:19425   */\n      swap2\n      swap1\n      pop\n      jump\t// out\n\n    auxdata: 0xa264697066735822122000c4bbd985432baa016601c8c884dfa78c73d16c237804ce91ab577ff5cbc81964736f6c634300080a0033\n}\n",
				"bytecode": {
					"linkReferences": {},
					"object": "60c0604052620186a0600560006101000a81548163ffffffff021916908363ffffffff1602179055506001600560046101000a81548161ffff021916908361ffff1602179055506001600560066101000a81548163ffffffff021916908363ffffffff160217905550730b9d5d9136855f6fec3c0993fee6e9ce8a2978466005600a6101000a81548173ffffffffffffffffffffffffffffffffffffffff021916908373ffffffffffffffffffffffffffffffffffffffff160217905550739345ac54da4d0b5cda8cb749d8ef37e5f02bbb21600660006101000a81548173ffffffffffffffffffffffffffffffffffffffff021916908373ffffffffffffffffffffffffffffffffffffffff1602179055503480156200011f57600080fd5b50338060006005600a9054906101000a900473ffffffffffffffffffffffffffffffffffffffff16600660009054906101000a900473ffffffffffffffffffffffffffffffffffffffff168173ffffffffffffffffffffffffffffffffffffffff1660808173ffffffffffffffffffffffffffffffffffffffff16815250508073ffffffffffffffffffffffffffffffffffffffff1660a08173ffffffffffffffffffffffffffffffffffffffff16815250505050600073ffffffffffffffffffffffffffffffffffffffff168273ffffffffffffffffffffffffffffffffffffffff16141562000247576040517f08c379a00000000000000000000000000000000000000000000000000000000081526004016200023e9062000468565b60405180910390fd5b816000806101000a81548173ffffffffffffffffffffffffffffffffffffffff021916908373ffffffffffffffffffffffffffffffffffffffff160217905550600073ffffffffffffffffffffffffffffffffffffffff168173ffffffffffffffffffffffffffffffffffffffff1614620002ce57620002cd81620002d760201b60201c565b5b505050620004fc565b3373ffffffffffffffffffffffffffffffffffffffff168173ffffffffffffffffffffffffffffffffffffffff16141562000349576040517f08c379a00000000000000000000000000000000000000000000000000000000081526004016200034090620004da565b60405180910390fd5b80600160006101000a81548173ffffffffffffffffffffffffffffffffffffffff021916908373ffffffffffffffffffffffffffffffffffffffff1602179055508073ffffffffffffffffffffffffffffffffffffffff1660008054906101000a900473ffffffffffffffffffffffffffffffffffffffff1673ffffffffffffffffffffffffffffffffffffffff167fed8889f560326eb138920d842192f0eb3dd22b4f139c87a2c57538e05bae127860405160405180910390a350565b600082825260208201905092915050565b7f43616e6e6f7420736574206f776e657220746f207a65726f0000000000000000600082015250565b60006200045060188362000407565b91506200045d8262000418565b602082019050919050565b60006020820190508181036000830152620004838162000441565b9050919050565b7f43616e6e6f74207472616e7366657220746f2073656c66000000000000000000600082015250565b6000620004c260178362000407565b9150620004cf826200048a565b602082019050919050565b60006020820190508181036000830152620004f581620004b3565b9050919050565b60805160a05161183e6200053e600039600081816101de0152818161076501528181610b3701528181610b580152610c7801526000610afb015261183e6000f3fe608060405234801561001057600080fd5b506004361061009e5760003560e01c8063a168fa8911610066578063a168fa8914610121578063d8a4676f14610152578063e0c8628914610184578063f2fde38b146101a2578063fc2a88c3146101be5761009e565b80631fe543e3146100a357806379ba5097146100bf5780638796ba8c146100c95780638da5cb5b146100f95780638dc654a214610117575b600080fd5b6100bd60048036038101906100b89190611048565b6101dc565b005b6100c7610278565b005b6100e360048036038101906100de91906110a4565b61040d565b6040516100f091906110e0565b60405180910390f35b610101610431565b60405161010e919061113c565b60405180910390f35b61011f61045a565b005b61013b600480360381019061013691906110a4565b6105c2565b604051610149929190611172565b60405180910390f35b61016c600480360381019061016791906110a4565b6105f3565b60405161017b93929190611259565b60405180910390f35b61018c61070d565b60405161019991906110e0565b60405180910390f35b6101bc60048036038101906101b791906112c3565b610945565b005b6101c6610959565b6040516101d391906110e0565b60405180910390f35b7f000000000000000000000000000000000000000000000000000000000000000073ffffffffffffffffffffffffffffffffffffffff163373ffffffffffffffffffffffffffffffffffffffff161461026a576040517f08c379a00000000000000000000000000000000000000000000000000000000081526004016102619061134d565b60405180910390fd5b610274828261095f565b5050565b600160009054906101000a900473ffffffffffffffffffffffffffffffffffffffff1673ffffffffffffffffffffffffffffffffffffffff163373ffffffffffffffffffffffffffffffffffffffff1614610308576040517f08c379a00000000000000000000000000000000000000000000000000000000081526004016102ff906113b9565b60405180910390fd5b60008060009054906101000a900473ffffffffffffffffffffffffffffffffffffffff169050336000806101000a81548173ffffffffffffffffffffffffffffffffffffffff021916908373ffffffffffffffffffffffffffffffffffffffff1602179055506000600160006101000a81548173ffffffffffffffffffffffffffffffffffffffff021916908373ffffffffffffffffffffffffffffffffffffffff1602179055503373ffffffffffffffffffffffffffffffffffffffff168173ffffffffffffffffffffffffffffffffffffffff167f8be0079c531659141344cd1fd0a4f28419497f9722a3daafe3b4186f6b6457e060405160405180910390a350565b6003818154811061041d57600080fd5b906000526020600020016000915090505481565b60008060009054906101000a900473ffffffffffffffffffffffffffffffffffffffff16905090565b610462610a67565b60006005600a9054906101000a900473ffffffffffffffffffffffffffffffffffffffff1690508073ffffffffffffffffffffffffffffffffffffffff1663a9059cbb338373ffffffffffffffffffffffffffffffffffffffff166370a08231306040518263ffffffff1660e01b81526004016104df919061113c565b602060405180830381865afa1580156104fc573d6000803e3d6000fd5b505050506040513d601f19601f8201168201806040525081019061052091906113ee565b6040518363ffffffff1660e01b815260040161053d92919061141b565b6020604051808303816000875af115801561055c573d6000803e3d6000fd5b505050506040513d601f19601f820116820180604052508101906105809190611470565b6105bf576040517f08c379a00000000000000000000000000000000000000000000000000000000081526004016105b6906114e9565b60405180910390fd5b50565b60026020528060005260406000206000915090508060000154908060010160009054906101000a900460ff16905082565b60008060606000600260008681526020019081526020016000206000015411610651576040517f08c379a000000000000000000000000000000000000000000000000000000000815260040161064890611555565b60405180910390fd5b600060026000868152602001908152602001600020604051806060016040529081600082015481526020016001820160009054906101000a900460ff16151515158152602001600282018054806020026020016040519081016040528092919081815260200182805480156106e557602002820191906000526020600020905b8154815260200190600101908083116106d1575b5050505050815250509050806000015181602001518260400151935093509350509193909250565b6000610717610a67565b610756600560009054906101000a900463ffffffff16600560049054906101000a900461ffff16600560069054906101000a900463ffffffff16610af7565b905060405180606001604052807f000000000000000000000000000000000000000000000000000000000000000073ffffffffffffffffffffffffffffffffffffffff16634306d354600560009054906101000a900463ffffffff166040518263ffffffff1660e01b81526004016107ce9190611594565b602060405180830381865afa1580156107eb573d6000803e3d6000fd5b505050506040513d601f19601f8201168201806040525081019061080f91906113ee565b8152602001600015158152602001600067ffffffffffffffff81111561083857610837610f05565b5b6040519080825280602002602001820160405280156108665781602001602082028036833780820191505090505b50815250600260008381526020019081526020016000206000820151816000015560208201518160010160006101000a81548160ff02191690831515021790555060408201518160020190805190602001906108c3929190610e3b565b509050506003819080600181540180825580915050600190039060005260206000200160009091909190915055806004819055507fcc58b13ad3eab50626c6a6300b1d139cd6ebb1688a7cced9461c2f7e762665ee81600560069054906101000a900463ffffffff1660405161093a9291906115af565b60405180910390a190565b61094d610a67565b61095681610d0e565b50565b60045481565b60006002600084815260200190815260200160002060000154116109b8576040517f08c379a00000000000000000000000000000000000000000000000000000000081526004016109af90611555565b60405180910390fd5b60016002600084815260200190815260200160002060010160006101000a81548160ff02191690831515021790555080600260008481526020019081526020016000206002019080519060200190610a11929190610e3b565b507f147eb1ff0c82f87f2b03e2c43f5a36488ff63ec6b730195fde4605f612f8db5182826002600086815260200190815260200160002060000154604051610a5b939291906115d8565b60405180910390a15050565b60008054906101000a900473ffffffffffffffffffffffffffffffffffffffff1673ffffffffffffffffffffffffffffffffffffffff163373ffffffffffffffffffffffffffffffffffffffff1614610af5576040517f08c379a0000000000000000000000000000000000000000000000000000000008152600401610aec90611662565b60405180910390fd5b565b60007f000000000000000000000000000000000000000000000000000000000000000073ffffffffffffffffffffffffffffffffffffffff16634000aea07f00000000000000000000000000000000000000000000000000000000000000007f000000000000000000000000000000000000000000000000000000000000000073ffffffffffffffffffffffffffffffffffffffff16634306d354886040518263ffffffff1660e01b8152600401610baf9190611594565b602060405180830381865afa158015610bcc573d6000803e3d6000fd5b505050506040513d601f19601f82011682018060405250810190610bf091906113ee565b878787604051602001610c059392919061169f565b6040516020818303038152906040526040518463ffffffff1660e01b8152600401610c329392919061175e565b6020604051808303816000875af1158015610c51573d6000803e3d6000fd5b505050506040513d601f19601f82011682018060405250810190610c759190611470565b507f000000000000000000000000000000000000000000000000000000000000000073ffffffffffffffffffffffffffffffffffffffff1663fc2a88c36040518163ffffffff1660e01b8152600401602060405180830381865afa158015610ce1573d6000803e3d6000fd5b505050506040513d601f19601f82011682018060405250810190610d0591906113ee565b90509392505050565b3373ffffffffffffffffffffffffffffffffffffffff168173ffffffffffffffffffffffffffffffffffffffff161415610d7d576040517f08c379a0000000000000000000000000000000000000000000000000000000008152600401610d74906117e8565b60405180910390fd5b80600160006101000a81548173ffffffffffffffffffffffffffffffffffffffff021916908373ffffffffffffffffffffffffffffffffffffffff1602179055508073ffffffffffffffffffffffffffffffffffffffff1660008054906101000a900473ffffffffffffffffffffffffffffffffffffffff1673ffffffffffffffffffffffffffffffffffffffff167fed8889f560326eb138920d842192f0eb3dd22b4f139c87a2c57538e05bae127860405160405180910390a350565b828054828255906000526020600020908101928215610e77579160200282015b82811115610e76578251825591602001919060010190610e5b565b5b509050610e849190610e88565b5090565b5b80821115610ea1576000816000905550600101610e89565b5090565b6000604051905090565b600080fd5b600080fd5b6000819050919050565b610ecc81610eb9565b8114610ed757600080fd5b50565b600081359050610ee981610ec3565b92915050565b600080fd5b6000601f19601f8301169050919050565b7f4e487b7100000000000000000000000000000000000000000000000000000000600052604160045260246000fd5b610f3d82610ef4565b810181811067ffffffffffffffff82111715610f5c57610f5b610f05565b5b80604052505050565b6000610f6f610ea5565b9050610f7b8282610f34565b919050565b600067ffffffffffffffff821115610f9b57610f9a610f05565b5b602082029050602081019050919050565b600080fd5b6000610fc4610fbf84610f80565b610f65565b90508083825260208201905060208402830185811115610fe757610fe6610fac565b5b835b818110156110105780610ffc8882610eda565b845260208401935050602081019050610fe9565b5050509392505050565b600082601f83011261102f5761102e610eef565b5b813561103f848260208601610fb1565b91505092915050565b6000806040838503121561105f5761105e610eaf565b5b600061106d85828601610eda565b925050602083013567ffffffffffffffff81111561108e5761108d610eb4565b5b61109a8582860161101a565b9150509250929050565b6000602082840312156110ba576110b9610eaf565b5b60006110c884828501610eda565b91505092915050565b6110da81610eb9565b82525050565b60006020820190506110f560008301846110d1565b92915050565b600073ffffffffffffffffffffffffffffffffffffffff82169050919050565b6000611126826110fb565b9050919050565b6111368161111b565b82525050565b6000602082019050611151600083018461112d565b92915050565b60008115159050919050565b61116c81611157565b82525050565b600060408201905061118760008301856110d1565b6111946020830184611163565b9392505050565b600081519050919050565b600082825260208201905092915050565b6000819050602082019050919050565b6111d081610eb9565b82525050565b60006111e283836111c7565b60208301905092915050565b6000602082019050919050565b60006112068261119b565b61121081856111a6565b935061121b836111b7565b8060005b8381101561124c57815161123388826111d6565b975061123e836111ee565b92505060018101905061121f565b5085935050505092915050565b600060608201905061126e60008301866110d1565b61127b6020830185611163565b818103604083015261128d81846111fb565b9050949350505050565b6112a08161111b565b81146112ab57600080fd5b50565b6000813590506112bd81611297565b92915050565b6000602082840312156112d9576112d8610eaf565b5b60006112e7848285016112ae565b91505092915050565b600082825260208201905092915050565b7f6f6e6c792056524620563220777261707065722063616e2066756c66696c6c00600082015250565b6000611337601f836112f0565b915061134282611301565b602082019050919050565b600060208201905081810360008301526113668161132a565b9050919050565b7f4d7573742062652070726f706f736564206f776e657200000000000000000000600082015250565b60006113a36016836112f0565b91506113ae8261136d565b602082019050919050565b600060208201905081810360008301526113d281611396565b9050919050565b6000815190506113e881610ec3565b92915050565b60006020828403121561140457611403610eaf565b5b6000611412848285016113d9565b91505092915050565b6000604082019050611430600083018561112d565b61143d60208301846110d1565b9392505050565b61144d81611157565b811461145857600080fd5b50565b60008151905061146a81611444565b92915050565b60006020828403121561148657611485610eaf565b5b60006114948482850161145b565b91505092915050565b7f556e61626c6520746f207472616e736665720000000000000000000000000000600082015250565b60006114d36012836112f0565b91506114de8261149d565b602082019050919050565b60006020820190508181036000830152611502816114c6565b9050919050565b7f72657175657374206e6f7420666f756e64000000000000000000000000000000600082015250565b600061153f6011836112f0565b915061154a82611509565b602082019050919050565b6000602082019050818103600083015261156e81611532565b9050919050565b600063ffffffff82169050919050565b61158e81611575565b82525050565b60006020820190506115a96000830184611585565b92915050565b60006040820190506115c460008301856110d1565b6115d16020830184611585565b9392505050565b60006060820190506115ed60008301866110d1565b81810360208301526115ff81856111fb565b905061160e60408301846110d1565b949350505050565b7f4f6e6c792063616c6c61626c65206279206f776e657200000000000000000000600082015250565b600061164c6016836112f0565b915061165782611616565b602082019050919050565b6000602082019050818103600083015261167b8161163f565b9050919050565b600061ffff82169050919050565b61169981611682565b82525050565b60006060820190506116b46000830186611585565b6116c16020830185611690565b6116ce6040830184611585565b949350505050565b600081519050919050565b600082825260208201905092915050565b60005b838110156117105780820151818401526020810190506116f5565b8381111561171f576000848401525b50505050565b6000611730826116d6565b61173a81856116e1565b935061174a8185602086016116f2565b61175381610ef4565b840191505092915050565b6000606082019050611773600083018661112d565b61178060208301856110d1565b81810360408301526117928184611725565b9050949350505050565b7f43616e6e6f74207472616e7366657220746f2073656c66000000000000000000600082015250565b60006117d26017836112f0565b91506117dd8261179c565b602082019050919050565b60006020820190508181036000830152611801816117c5565b905091905056fea264697066735822122000c4bbd985432baa016601c8c884dfa78c73d16c237804ce91ab577ff5cbc81964736f6c634300080a0033",
					"opcodes": "PUSH1 0xC0 PUSH1 0x40 MSTORE PUSH3 0x186A0 PUSH1 0x5 PUSH1 0x0 PUSH2 0x100 EXP DUP2 SLOAD DUP2 PUSH4 0xFFFFFFFF MUL NOT AND SWAP1 DUP4 PUSH4 0xFFFFFFFF AND MUL OR SWAP1 SSTORE POP PUSH1 0x1 PUSH1 0x5 PUSH1 0x4 PUSH2 0x100 EXP DUP2 SLOAD DUP2 PUSH2 0xFFFF MUL NOT AND SWAP1 DUP4 PUSH2 0xFFFF AND MUL OR SWAP1 SSTORE POP PUSH1 0x1 PUSH1 0x5 PUSH1 0x6 PUSH2 0x100 EXP DUP2 SLOAD DUP2 PUSH4 0xFFFFFFFF MUL NOT AND SWAP1 DUP4 PUSH4 0xFFFFFFFF AND MUL OR SWAP1 SSTORE POP PUSH20 0xB9D5D9136855F6FEC3C0993FEE6E9CE8A297846 PUSH1 0x5 PUSH1 0xA PUSH2 0x100 EXP DUP2 SLOAD DUP2 PUSH20 0xFFFFFFFFFFFFFFFFFFFFFFFFFFFFFFFFFFFFFFFF MUL NOT AND SWAP1 DUP4 PUSH20 0xFFFFFFFFFFFFFFFFFFFFFFFFFFFFFFFFFFFFFFFF AND MUL OR SWAP1 SSTORE POP PUSH20 0x9345AC54DA4D0B5CDA8CB749D8EF37E5F02BBB21 PUSH1 0x6 PUSH1 0x0 PUSH2 0x100 EXP DUP2 SLOAD DUP2 PUSH20 0xFFFFFFFFFFFFFFFFFFFFFFFFFFFFFFFFFFFFFFFF MUL NOT AND SWAP1 DUP4 PUSH20 0xFFFFFFFFFFFFFFFFFFFFFFFFFFFFFFFFFFFFFFFF AND MUL OR SWAP1 SSTORE POP CALLVALUE DUP1 ISZERO PUSH3 0x11F JUMPI PUSH1 0x0 DUP1 REVERT JUMPDEST POP CALLER DUP1 PUSH1 0x0 PUSH1 0x5 PUSH1 0xA SWAP1 SLOAD SWAP1 PUSH2 0x100 EXP SWAP1 DIV PUSH20 0xFFFFFFFFFFFFFFFFFFFFFFFFFFFFFFFFFFFFFFFF AND PUSH1 0x6 PUSH1 0x0 SWAP1 SLOAD SWAP1 PUSH2 0x100 EXP SWAP1 DIV PUSH20 0xFFFFFFFFFFFFFFFFFFFFFFFFFFFFFFFFFFFFFFFF AND DUP2 PUSH20 0xFFFFFFFFFFFFFFFFFFFFFFFFFFFFFFFFFFFFFFFF AND PUSH1 0x80 DUP2 PUSH20 0xFFFFFFFFFFFFFFFFFFFFFFFFFFFFFFFFFFFFFFFF AND DUP2 MSTORE POP POP DUP1 PUSH20 0xFFFFFFFFFFFFFFFFFFFFFFFFFFFFFFFFFFFFFFFF AND PUSH1 0xA0 DUP2 PUSH20 0xFFFFFFFFFFFFFFFFFFFFFFFFFFFFFFFFFFFFFFFF AND DUP2 MSTORE POP POP POP POP PUSH1 0x0 PUSH20 0xFFFFFFFFFFFFFFFFFFFFFFFFFFFFFFFFFFFFFFFF AND DUP3 PUSH20 0xFFFFFFFFFFFFFFFFFFFFFFFFFFFFFFFFFFFFFFFF AND EQ ISZERO PUSH3 0x247 JUMPI PUSH1 0x40 MLOAD PUSH32 0x8C379A000000000000000000000000000000000000000000000000000000000 DUP2 MSTORE PUSH1 0x4 ADD PUSH3 0x23E SWAP1 PUSH3 0x468 JUMP JUMPDEST PUSH1 0x40 MLOAD DUP1 SWAP2 SUB SWAP1 REVERT JUMPDEST DUP2 PUSH1 0x0 DUP1 PUSH2 0x100 EXP DUP2 SLOAD DUP2 PUSH20 0xFFFFFFFFFFFFFFFFFFFFFFFFFFFFFFFFFFFFFFFF MUL NOT AND SWAP1 DUP4 PUSH20 0xFFFFFFFFFFFFFFFFFFFFFFFFFFFFFFFFFFFFFFFF AND MUL OR SWAP1 SSTORE POP PUSH1 0x0 PUSH20 0xFFFFFFFFFFFFFFFFFFFFFFFFFFFFFFFFFFFFFFFF AND DUP2 PUSH20 0xFFFFFFFFFFFFFFFFFFFFFFFFFFFFFFFFFFFFFFFF AND EQ PUSH3 0x2CE JUMPI PUSH3 0x2CD DUP2 PUSH3 0x2D7 PUSH1 0x20 SHL PUSH1 0x20 SHR JUMP JUMPDEST JUMPDEST POP POP POP PUSH3 0x4FC JUMP JUMPDEST CALLER PUSH20 0xFFFFFFFFFFFFFFFFFFFFFFFFFFFFFFFFFFFFFFFF AND DUP2 PUSH20 0xFFFFFFFFFFFFFFFFFFFFFFFFFFFFFFFFFFFFFFFF AND EQ ISZERO PUSH3 0x349 JUMPI PUSH1 0x40 MLOAD PUSH32 0x8C379A000000000000000000000000000000000000000000000000000000000 DUP2 MSTORE PUSH1 0x4 ADD PUSH3 0x340 SWAP1 PUSH3 0x4DA JUMP JUMPDEST PUSH1 0x40 MLOAD DUP1 SWAP2 SUB SWAP1 REVERT JUMPDEST DUP1 PUSH1 0x1 PUSH1 0x0 PUSH2 0x100 EXP DUP2 SLOAD DUP2 PUSH20 0xFFFFFFFFFFFFFFFFFFFFFFFFFFFFFFFFFFFFFFFF MUL NOT AND SWAP1 DUP4 PUSH20 0xFFFFFFFFFFFFFFFFFFFFFFFFFFFFFFFFFFFFFFFF AND MUL OR SWAP1 SSTORE POP DUP1 PUSH20 0xFFFFFFFFFFFFFFFFFFFFFFFFFFFFFFFFFFFFFFFF AND PUSH1 0x0 DUP1 SLOAD SWAP1 PUSH2 0x100 EXP SWAP1 DIV PUSH20 0xFFFFFFFFFFFFFFFFFFFFFFFFFFFFFFFFFFFFFFFF AND PUSH20 0xFFFFFFFFFFFFFFFFFFFFFFFFFFFFFFFFFFFFFFFF AND PUSH32 0xED8889F560326EB138920D842192F0EB3DD22B4F139C87A2C57538E05BAE1278 PUSH1 0x40 MLOAD PUSH1 0x40 MLOAD DUP1 SWAP2 SUB SWAP1 LOG3 POP JUMP JUMPDEST PUSH1 0x0 DUP3 DUP3 MSTORE PUSH1 0x20 DUP3 ADD SWAP1 POP SWAP3 SWAP2 POP POP JUMP JUMPDEST PUSH32 0x43616E6E6F7420736574206F776E657220746F207A65726F0000000000000000 PUSH1 0x0 DUP3 ADD MSTORE POP JUMP JUMPDEST PUSH1 0x0 PUSH3 0x450 PUSH1 0x18 DUP4 PUSH3 0x407 JUMP JUMPDEST SWAP2 POP PUSH3 0x45D DUP3 PUSH3 0x418 JUMP JUMPDEST PUSH1 0x20 DUP3 ADD SWAP1 POP SWAP2 SWAP1 POP JUMP JUMPDEST PUSH1 0x0 PUSH1 0x20 DUP3 ADD SWAP1 POP DUP2 DUP2 SUB PUSH1 0x0 DUP4 ADD MSTORE PUSH3 0x483 DUP2 PUSH3 0x441 JUMP JUMPDEST SWAP1 POP SWAP2 SWAP1 POP JUMP JUMPDEST PUSH32 0x43616E6E6F74207472616E7366657220746F2073656C66000000000000000000 PUSH1 0x0 DUP3 ADD MSTORE POP JUMP JUMPDEST PUSH1 0x0 PUSH3 0x4C2 PUSH1 0x17 DUP4 PUSH3 0x407 JUMP JUMPDEST SWAP2 POP PUSH3 0x4CF DUP3 PUSH3 0x48A JUMP JUMPDEST PUSH1 0x20 DUP3 ADD SWAP1 POP SWAP2 SWAP1 POP JUMP JUMPDEST PUSH1 0x0 PUSH1 0x20 DUP3 ADD SWAP1 POP DUP2 DUP2 SUB PUSH1 0x0 DUP4 ADD MSTORE PUSH3 0x4F5 DUP2 PUSH3 0x4B3 JUMP JUMPDEST SWAP1 POP SWAP2 SWAP1 POP JUMP JUMPDEST PUSH1 0x80 MLOAD PUSH1 0xA0 MLOAD PUSH2 0x183E PUSH3 0x53E PUSH1 0x0 CODECOPY PUSH1 0x0 DUP2 DUP2 PUSH2 0x1DE ADD MSTORE DUP2 DUP2 PUSH2 0x765 ADD MSTORE DUP2 DUP2 PUSH2 0xB37 ADD MSTORE DUP2 DUP2 PUSH2 0xB58 ADD MSTORE PUSH2 0xC78 ADD MSTORE PUSH1 0x0 PUSH2 0xAFB ADD MSTORE PUSH2 0x183E PUSH1 0x0 RETURN INVALID PUSH1 0x80 PUSH1 0x40 MSTORE CALLVALUE DUP1 ISZERO PUSH2 0x10 JUMPI PUSH1 0x0 DUP1 REVERT JUMPDEST POP PUSH1 0x4 CALLDATASIZE LT PUSH2 0x9E JUMPI PUSH1 0x0 CALLDATALOAD PUSH1 0xE0 SHR DUP1 PUSH4 0xA168FA89 GT PUSH2 0x66 JUMPI DUP1 PUSH4 0xA168FA89 EQ PUSH2 0x121 JUMPI DUP1 PUSH4 0xD8A4676F EQ PUSH2 0x152 JUMPI DUP1 PUSH4 0xE0C86289 EQ PUSH2 0x184 JUMPI DUP1 PUSH4 0xF2FDE38B EQ PUSH2 0x1A2 JUMPI DUP1 PUSH4 0xFC2A88C3 EQ PUSH2 0x1BE JUMPI PUSH2 0x9E JUMP JUMPDEST DUP1 PUSH4 0x1FE543E3 EQ PUSH2 0xA3 JUMPI DUP1 PUSH4 0x79BA5097 EQ PUSH2 0xBF JUMPI DUP1 PUSH4 0x8796BA8C EQ PUSH2 0xC9 JUMPI DUP1 PUSH4 0x8DA5CB5B EQ PUSH2 0xF9 JUMPI DUP1 PUSH4 0x8DC654A2 EQ PUSH2 0x117 JUMPI JUMPDEST PUSH1 0x0 DUP1 REVERT JUMPDEST PUSH2 0xBD PUSH1 0x4 DUP1 CALLDATASIZE SUB DUP2 ADD SWAP1 PUSH2 0xB8 SWAP2 SWAP1 PUSH2 0x1048 JUMP JUMPDEST PUSH2 0x1DC JUMP JUMPDEST STOP JUMPDEST PUSH2 0xC7 PUSH2 0x278 JUMP JUMPDEST STOP JUMPDEST PUSH2 0xE3 PUSH1 0x4 DUP1 CALLDATASIZE SUB DUP2 ADD SWAP1 PUSH2 0xDE SWAP2 SWAP1 PUSH2 0x10A4 JUMP JUMPDEST PUSH2 0x40D JUMP JUMPDEST PUSH1 0x40 MLOAD PUSH2 0xF0 SWAP2 SWAP1 PUSH2 0x10E0 JUMP JUMPDEST PUSH1 0x40 MLOAD DUP1 SWAP2 SUB SWAP1 RETURN JUMPDEST PUSH2 0x101 PUSH2 0x431 JUMP JUMPDEST PUSH1 0x40 MLOAD PUSH2 0x10E SWAP2 SWAP1 PUSH2 0x113C JUMP JUMPDEST PUSH1 0x40 MLOAD DUP1 SWAP2 SUB SWAP1 RETURN JUMPDEST PUSH2 0x11F PUSH2 0x45A JUMP JUMPDEST STOP JUMPDEST PUSH2 0x13B PUSH1 0x4 DUP1 CALLDATASIZE SUB DUP2 ADD SWAP1 PUSH2 0x136 SWAP2 SWAP1 PUSH2 0x10A4 JUMP JUMPDEST PUSH2 0x5C2 JUMP JUMPDEST PUSH1 0x40 MLOAD PUSH2 0x149 SWAP3 SWAP2 SWAP1 PUSH2 0x1172 JUMP JUMPDEST PUSH1 0x40 MLOAD DUP1 SWAP2 SUB SWAP1 RETURN JUMPDEST PUSH2 0x16C PUSH1 0x4 DUP1 CALLDATASIZE SUB DUP2 ADD SWAP1 PUSH2 0x167 SWAP2 SWAP1 PUSH2 0x10A4 JUMP JUMPDEST PUSH2 0x5F3 JUMP JUMPDEST PUSH1 0x40 MLOAD PUSH2 0x17B SWAP4 SWAP3 SWAP2 SWAP1 PUSH2 0x1259 JUMP JUMPDEST PUSH1 0x40 MLOAD DUP1 SWAP2 SUB SWAP1 RETURN JUMPDEST PUSH2 0x18C PUSH2 0x70D JUMP JUMPDEST PUSH1 0x40 MLOAD PUSH2 0x199 SWAP2 SWAP1 PUSH2 0x10E0 JUMP JUMPDEST PUSH1 0x40 MLOAD DUP1 SWAP2 SUB SWAP1 RETURN JUMPDEST PUSH2 0x1BC PUSH1 0x4 DUP1 CALLDATASIZE SUB DUP2 ADD SWAP1 PUSH2 0x1B7 SWAP2 SWAP1 PUSH2 0x12C3 JUMP JUMPDEST PUSH2 0x945 JUMP JUMPDEST STOP JUMPDEST PUSH2 0x1C6 PUSH2 0x959 JUMP JUMPDEST PUSH1 0x40 MLOAD PUSH2 0x1D3 SWAP2 SWAP1 PUSH2 0x10E0 JUMP JUMPDEST PUSH1 0x40 MLOAD DUP1 SWAP2 SUB SWAP1 RETURN JUMPDEST PUSH32 0x0 PUSH20 0xFFFFFFFFFFFFFFFFFFFFFFFFFFFFFFFFFFFFFFFF AND CALLER PUSH20 0xFFFFFFFFFFFFFFFFFFFFFFFFFFFFFFFFFFFFFFFF AND EQ PUSH2 0x26A JUMPI PUSH1 0x40 MLOAD PUSH32 0x8C379A000000000000000000000000000000000000000000000000000000000 DUP2 MSTORE PUSH1 0x4 ADD PUSH2 0x261 SWAP1 PUSH2 0x134D JUMP JUMPDEST PUSH1 0x40 MLOAD DUP1 SWAP2 SUB SWAP1 REVERT JUMPDEST PUSH2 0x274 DUP3 DUP3 PUSH2 0x95F JUMP JUMPDEST POP POP JUMP JUMPDEST PUSH1 0x1 PUSH1 0x0 SWAP1 SLOAD SWAP1 PUSH2 0x100 EXP SWAP1 DIV PUSH20 0xFFFFFFFFFFFFFFFFFFFFFFFFFFFFFFFFFFFFFFFF AND PUSH20 0xFFFFFFFFFFFFFFFFFFFFFFFFFFFFFFFFFFFFFFFF AND CALLER PUSH20 0xFFFFFFFFFFFFFFFFFFFFFFFFFFFFFFFFFFFFFFFF AND EQ PUSH2 0x308 JUMPI PUSH1 0x40 MLOAD PUSH32 0x8C379A000000000000000000000000000000000000000000000000000000000 DUP2 MSTORE PUSH1 0x4 ADD PUSH2 0x2FF SWAP1 PUSH2 0x13B9 JUMP JUMPDEST PUSH1 0x40 MLOAD DUP1 SWAP2 SUB SWAP1 REVERT JUMPDEST PUSH1 0x0 DUP1 PUSH1 0x0 SWAP1 SLOAD SWAP1 PUSH2 0x100 EXP SWAP1 DIV PUSH20 0xFFFFFFFFFFFFFFFFFFFFFFFFFFFFFFFFFFFFFFFF AND SWAP1 POP CALLER PUSH1 0x0 DUP1 PUSH2 0x100 EXP DUP2 SLOAD DUP2 PUSH20 0xFFFFFFFFFFFFFFFFFFFFFFFFFFFFFFFFFFFFFFFF MUL NOT AND SWAP1 DUP4 PUSH20 0xFFFFFFFFFFFFFFFFFFFFFFFFFFFFFFFFFFFFFFFF AND MUL OR SWAP1 SSTORE POP PUSH1 0x0 PUSH1 0x1 PUSH1 0x0 PUSH2 0x100 EXP DUP2 SLOAD DUP2 PUSH20 0xFFFFFFFFFFFFFFFFFFFFFFFFFFFFFFFFFFFFFFFF MUL NOT AND SWAP1 DUP4 PUSH20 0xFFFFFFFFFFFFFFFFFFFFFFFFFFFFFFFFFFFFFFFF AND MUL OR SWAP1 SSTORE POP CALLER PUSH20 0xFFFFFFFFFFFFFFFFFFFFFFFFFFFFFFFFFFFFFFFF AND DUP2 PUSH20 0xFFFFFFFFFFFFFFFFFFFFFFFFFFFFFFFFFFFFFFFF AND PUSH32 0x8BE0079C531659141344CD1FD0A4F28419497F9722A3DAAFE3B4186F6B6457E0 PUSH1 0x40 MLOAD PUSH1 0x40 MLOAD DUP1 SWAP2 SUB SWAP1 LOG3 POP JUMP JUMPDEST PUSH1 0x3 DUP2 DUP2 SLOAD DUP2 LT PUSH2 0x41D JUMPI PUSH1 0x0 DUP1 REVERT JUMPDEST SWAP1 PUSH1 0x0 MSTORE PUSH1 0x20 PUSH1 0x0 KECCAK256 ADD PUSH1 0x0 SWAP2 POP SWAP1 POP SLOAD DUP2 JUMP JUMPDEST PUSH1 0x0 DUP1 PUSH1 0x0 SWAP1 SLOAD SWAP1 PUSH2 0x100 EXP SWAP1 DIV PUSH20 0xFFFFFFFFFFFFFFFFFFFFFFFFFFFFFFFFFFFFFFFF AND SWAP1 POP SWAP1 JUMP JUMPDEST PUSH2 0x462 PUSH2 0xA67 JUMP JUMPDEST PUSH1 0x0 PUSH1 0x5 PUSH1 0xA SWAP1 SLOAD SWAP1 PUSH2 0x100 EXP SWAP1 DIV PUSH20 0xFFFFFFFFFFFFFFFFFFFFFFFFFFFFFFFFFFFFFFFF AND SWAP1 POP DUP1 PUSH20 0xFFFFFFFFFFFFFFFFFFFFFFFFFFFFFFFFFFFFFFFF AND PUSH4 0xA9059CBB CALLER DUP4 PUSH20 0xFFFFFFFFFFFFFFFFFFFFFFFFFFFFFFFFFFFFFFFF AND PUSH4 0x70A08231 ADDRESS PUSH1 0x40 MLOAD DUP3 PUSH4 0xFFFFFFFF AND PUSH1 0xE0 SHL DUP2 MSTORE PUSH1 0x4 ADD PUSH2 0x4DF SWAP2 SWAP1 PUSH2 0x113C JUMP JUMPDEST PUSH1 0x20 PUSH1 0x40 MLOAD DUP1 DUP4 SUB DUP2 DUP7 GAS STATICCALL ISZERO DUP1 ISZERO PUSH2 0x4FC JUMPI RETURNDATASIZE PUSH1 0x0 DUP1 RETURNDATACOPY RETURNDATASIZE PUSH1 0x0 REVERT JUMPDEST POP POP POP POP PUSH1 0x40 MLOAD RETURNDATASIZE PUSH1 0x1F NOT PUSH1 0x1F DUP3 ADD AND DUP3 ADD DUP1 PUSH1 0x40 MSTORE POP DUP2 ADD SWAP1 PUSH2 0x520 SWAP2 SWAP1 PUSH2 0x13EE JUMP JUMPDEST PUSH1 0x40 MLOAD DUP4 PUSH4 0xFFFFFFFF AND PUSH1 0xE0 SHL DUP2 MSTORE PUSH1 0x4 ADD PUSH2 0x53D SWAP3 SWAP2 SWAP1 PUSH2 0x141B JUMP JUMPDEST PUSH1 0x20 PUSH1 0x40 MLOAD DUP1 DUP4 SUB DUP2 PUSH1 0x0 DUP8 GAS CALL ISZERO DUP1 ISZERO PUSH2 0x55C JUMPI RETURNDATASIZE PUSH1 0x0 DUP1 RETURNDATACOPY RETURNDATASIZE PUSH1 0x0 REVERT JUMPDEST POP POP POP POP PUSH1 0x40 MLOAD RETURNDATASIZE PUSH1 0x1F NOT PUSH1 0x1F DUP3 ADD AND DUP3 ADD DUP1 PUSH1 0x40 MSTORE POP DUP2 ADD SWAP1 PUSH2 0x580 SWAP2 SWAP1 PUSH2 0x1470 JUMP JUMPDEST PUSH2 0x5BF JUMPI PUSH1 0x40 MLOAD PUSH32 0x8C379A000000000000000000000000000000000000000000000000000000000 DUP2 MSTORE PUSH1 0x4 ADD PUSH2 0x5B6 SWAP1 PUSH2 0x14E9 JUMP JUMPDEST PUSH1 0x40 MLOAD DUP1 SWAP2 SUB SWAP1 REVERT JUMPDEST POP JUMP JUMPDEST PUSH1 0x2 PUSH1 0x20 MSTORE DUP1 PUSH1 0x0 MSTORE PUSH1 0x40 PUSH1 0x0 KECCAK256 PUSH1 0x0 SWAP2 POP SWAP1 POP DUP1 PUSH1 0x0 ADD SLOAD SWAP1 DUP1 PUSH1 0x1 ADD PUSH1 0x0 SWAP1 SLOAD SWAP1 PUSH2 0x100 EXP SWAP1 DIV PUSH1 0xFF AND SWAP1 POP DUP3 JUMP JUMPDEST PUSH1 0x0 DUP1 PUSH1 0x60 PUSH1 0x0 PUSH1 0x2 PUSH1 0x0 DUP7 DUP2 MSTORE PUSH1 0x20 ADD SWAP1 DUP2 MSTORE PUSH1 0x20 ADD PUSH1 0x0 KECCAK256 PUSH1 0x0 ADD SLOAD GT PUSH2 0x651 JUMPI PUSH1 0x40 MLOAD PUSH32 0x8C379A000000000000000000000000000000000000000000000000000000000 DUP2 MSTORE PUSH1 0x4 ADD PUSH2 0x648 SWAP1 PUSH2 0x1555 JUMP JUMPDEST PUSH1 0x40 MLOAD DUP1 SWAP2 SUB SWAP1 REVERT JUMPDEST PUSH1 0x0 PUSH1 0x2 PUSH1 0x0 DUP7 DUP2 MSTORE PUSH1 0x20 ADD SWAP1 DUP2 MSTORE PUSH1 0x20 ADD PUSH1 0x0 KECCAK256 PUSH1 0x40 MLOAD DUP1 PUSH1 0x60 ADD PUSH1 0x40 MSTORE SWAP1 DUP2 PUSH1 0x0 DUP3 ADD SLOAD DUP2 MSTORE PUSH1 0x20 ADD PUSH1 0x1 DUP3 ADD PUSH1 0x0 SWAP1 SLOAD SWAP1 PUSH2 0x100 EXP SWAP1 DIV PUSH1 0xFF AND ISZERO ISZERO ISZERO ISZERO DUP2 MSTORE PUSH1 0x20 ADD PUSH1 0x2 DUP3 ADD DUP1 SLOAD DUP1 PUSH1 0x20 MUL PUSH1 0x20 ADD PUSH1 0x40 MLOAD SWAP1 DUP2 ADD PUSH1 0x40 MSTORE DUP1 SWAP3 SWAP2 SWAP1 DUP2 DUP2 MSTORE PUSH1 0x20 ADD DUP3 DUP1 SLOAD DUP1 ISZERO PUSH2 0x6E5 JUMPI PUSH1 0x20 MUL DUP3 ADD SWAP2 SWAP1 PUSH1 0x0 MSTORE PUSH1 0x20 PUSH1 0x0 KECCAK256 SWAP1 JUMPDEST DUP2 SLOAD DUP2 MSTORE PUSH1 0x20 ADD SWAP1 PUSH1 0x1 ADD SWAP1 DUP1 DUP4 GT PUSH2 0x6D1 JUMPI JUMPDEST POP POP POP POP POP DUP2 MSTORE POP POP SWAP1 POP DUP1 PUSH1 0x0 ADD MLOAD DUP2 PUSH1 0x20 ADD MLOAD DUP3 PUSH1 0x40 ADD MLOAD SWAP4 POP SWAP4 POP SWAP4 POP POP SWAP2 SWAP4 SWAP1 SWAP3 POP JUMP JUMPDEST PUSH1 0x0 PUSH2 0x717 PUSH2 0xA67 JUMP JUMPDEST PUSH2 0x756 PUSH1 0x5 PUSH1 0x0 SWAP1 SLOAD SWAP1 PUSH2 0x100 EXP SWAP1 DIV PUSH4 0xFFFFFFFF AND PUSH1 0x5 PUSH1 0x4 SWAP1 SLOAD SWAP1 PUSH2 0x100 EXP SWAP1 DIV PUSH2 0xFFFF AND PUSH1 0x5 PUSH1 0x6 SWAP1 SLOAD SWAP1 PUSH2 0x100 EXP SWAP1 DIV PUSH4 0xFFFFFFFF AND PUSH2 0xAF7 JUMP JUMPDEST SWAP1 POP PUSH1 0x40 MLOAD DUP1 PUSH1 0x60 ADD PUSH1 0x40 MSTORE DUP1 PUSH32 0x0 PUSH20 0xFFFFFFFFFFFFFFFFFFFFFFFFFFFFFFFFFFFFFFFF AND PUSH4 0x4306D354 PUSH1 0x5 PUSH1 0x0 SWAP1 SLOAD SWAP1 PUSH2 0x100 EXP SWAP1 DIV PUSH4 0xFFFFFFFF AND PUSH1 0x40 MLOAD DUP3 PUSH4 0xFFFFFFFF AND PUSH1 0xE0 SHL DUP2 MSTORE PUSH1 0x4 ADD PUSH2 0x7CE SWAP2 SWAP1 PUSH2 0x1594 JUMP JUMPDEST PUSH1 0x20 PUSH1 0x40 MLOAD DUP1 DUP4 SUB DUP2 DUP7 GAS STATICCALL ISZERO DUP1 ISZERO PUSH2 0x7EB JUMPI RETURNDATASIZE PUSH1 0x0 DUP1 RETURNDATACOPY RETURNDATASIZE PUSH1 0x0 REVERT JUMPDEST POP POP POP POP PUSH1 0x40 MLOAD RETURNDATASIZE PUSH1 0x1F NOT PUSH1 0x1F DUP3 ADD AND DUP3 ADD DUP1 PUSH1 0x40 MSTORE POP DUP2 ADD SWAP1 PUSH2 0x80F SWAP2 SWAP1 PUSH2 0x13EE JUMP JUMPDEST DUP2 MSTORE PUSH1 0x20 ADD PUSH1 0x0 ISZERO ISZERO DUP2 MSTORE PUSH1 0x20 ADD PUSH1 0x0 PUSH8 0xFFFFFFFFFFFFFFFF DUP2 GT ISZERO PUSH2 0x838 JUMPI PUSH2 0x837 PUSH2 0xF05 JUMP JUMPDEST JUMPDEST PUSH1 0x40 MLOAD SWAP1 DUP1 DUP3 MSTORE DUP1 PUSH1 0x20 MUL PUSH1 0x20 ADD DUP3 ADD PUSH1 0x40 MSTORE DUP1 ISZERO PUSH2 0x866 JUMPI DUP2 PUSH1 0x20 ADD PUSH1 0x20 DUP3 MUL DUP1 CALLDATASIZE DUP4 CALLDATACOPY DUP1 DUP3 ADD SWAP2 POP POP SWAP1 POP JUMPDEST POP DUP2 MSTORE POP PUSH1 0x2 PUSH1 0x0 DUP4 DUP2 MSTORE PUSH1 0x20 ADD SWAP1 DUP2 MSTORE PUSH1 0x20 ADD PUSH1 0x0 KECCAK256 PUSH1 0x0 DUP3 ADD MLOAD DUP2 PUSH1 0x0 ADD SSTORE PUSH1 0x20 DUP3 ADD MLOAD DUP2 PUSH1 0x1 ADD PUSH1 0x0 PUSH2 0x100 EXP DUP2 SLOAD DUP2 PUSH1 0xFF MUL NOT AND SWAP1 DUP4 ISZERO ISZERO MUL OR SWAP1 SSTORE POP PUSH1 0x40 DUP3 ADD MLOAD DUP2 PUSH1 0x2 ADD SWAP1 DUP1 MLOAD SWAP1 PUSH1 0x20 ADD SWAP1 PUSH2 0x8C3 SWAP3 SWAP2 SWAP1 PUSH2 0xE3B JUMP JUMPDEST POP SWAP1 POP POP PUSH1 0x3 DUP2 SWAP1 DUP1 PUSH1 0x1 DUP2 SLOAD ADD DUP1 DUP3 SSTORE DUP1 SWAP2 POP POP PUSH1 0x1 SWAP1 SUB SWAP1 PUSH1 0x0 MSTORE PUSH1 0x20 PUSH1 0x0 KECCAK256 ADD PUSH1 0x0 SWAP1 SWAP2 SWAP1 SWAP2 SWAP1 SWAP2 POP SSTORE DUP1 PUSH1 0x4 DUP2 SWAP1 SSTORE POP PUSH32 0xCC58B13AD3EAB50626C6A6300B1D139CD6EBB1688A7CCED9461C2F7E762665EE DUP2 PUSH1 0x5 PUSH1 0x6 SWAP1 SLOAD SWAP1 PUSH2 0x100 EXP SWAP1 DIV PUSH4 0xFFFFFFFF AND PUSH1 0x40 MLOAD PUSH2 0x93A SWAP3 SWAP2 SWAP1 PUSH2 0x15AF JUMP JUMPDEST PUSH1 0x40 MLOAD DUP1 SWAP2 SUB SWAP1 LOG1 SWAP1 JUMP JUMPDEST PUSH2 0x94D PUSH2 0xA67 JUMP JUMPDEST PUSH2 0x956 DUP2 PUSH2 0xD0E JUMP JUMPDEST POP JUMP JUMPDEST PUSH1 0x4 SLOAD DUP2 JUMP JUMPDEST PUSH1 0x0 PUSH1 0x2 PUSH1 0x0 DUP5 DUP2 MSTORE PUSH1 0x20 ADD SWAP1 DUP2 MSTORE PUSH1 0x20 ADD PUSH1 0x0 KECCAK256 PUSH1 0x0 ADD SLOAD GT PUSH2 0x9B8 JUMPI PUSH1 0x40 MLOAD PUSH32 0x8C379A000000000000000000000000000000000000000000000000000000000 DUP2 MSTORE PUSH1 0x4 ADD PUSH2 0x9AF SWAP1 PUSH2 0x1555 JUMP JUMPDEST PUSH1 0x40 MLOAD DUP1 SWAP2 SUB SWAP1 REVERT JUMPDEST PUSH1 0x1 PUSH1 0x2 PUSH1 0x0 DUP5 DUP2 MSTORE PUSH1 0x20 ADD SWAP1 DUP2 MSTORE PUSH1 0x20 ADD PUSH1 0x0 KECCAK256 PUSH1 0x1 ADD PUSH1 0x0 PUSH2 0x100 EXP DUP2 SLOAD DUP2 PUSH1 0xFF MUL NOT AND SWAP1 DUP4 ISZERO ISZERO MUL OR SWAP1 SSTORE POP DUP1 PUSH1 0x2 PUSH1 0x0 DUP5 DUP2 MSTORE PUSH1 0x20 ADD SWAP1 DUP2 MSTORE PUSH1 0x20 ADD PUSH1 0x0 KECCAK256 PUSH1 0x2 ADD SWAP1 DUP1 MLOAD SWAP1 PUSH1 0x20 ADD SWAP1 PUSH2 0xA11 SWAP3 SWAP2 SWAP1 PUSH2 0xE3B JUMP JUMPDEST POP PUSH32 0x147EB1FF0C82F87F2B03E2C43F5A36488FF63EC6B730195FDE4605F612F8DB51 DUP3 DUP3 PUSH1 0x2 PUSH1 0x0 DUP7 DUP2 MSTORE PUSH1 0x20 ADD SWAP1 DUP2 MSTORE PUSH1 0x20 ADD PUSH1 0x0 KECCAK256 PUSH1 0x0 ADD SLOAD PUSH1 0x40 MLOAD PUSH2 0xA5B SWAP4 SWAP3 SWAP2 SWAP1 PUSH2 0x15D8 JUMP JUMPDEST PUSH1 0x40 MLOAD DUP1 SWAP2 SUB SWAP1 LOG1 POP POP JUMP JUMPDEST PUSH1 0x0 DUP1 SLOAD SWAP1 PUSH2 0x100 EXP SWAP1 DIV PUSH20 0xFFFFFFFFFFFFFFFFFFFFFFFFFFFFFFFFFFFFFFFF AND PUSH20 0xFFFFFFFFFFFFFFFFFFFFFFFFFFFFFFFFFFFFFFFF AND CALLER PUSH20 0xFFFFFFFFFFFFFFFFFFFFFFFFFFFFFFFFFFFFFFFF AND EQ PUSH2 0xAF5 JUMPI PUSH1 0x40 MLOAD PUSH32 0x8C379A000000000000000000000000000000000000000000000000000000000 DUP2 MSTORE PUSH1 0x4 ADD PUSH2 0xAEC SWAP1 PUSH2 0x1662 JUMP JUMPDEST PUSH1 0x40 MLOAD DUP1 SWAP2 SUB SWAP1 REVERT JUMPDEST JUMP JUMPDEST PUSH1 0x0 PUSH32 0x0 PUSH20 0xFFFFFFFFFFFFFFFFFFFFFFFFFFFFFFFFFFFFFFFF AND PUSH4 0x4000AEA0 PUSH32 0x0 PUSH32 0x0 PUSH20 0xFFFFFFFFFFFFFFFFFFFFFFFFFFFFFFFFFFFFFFFF AND PUSH4 0x4306D354 DUP9 PUSH1 0x40 MLOAD DUP3 PUSH4 0xFFFFFFFF AND PUSH1 0xE0 SHL DUP2 MSTORE PUSH1 0x4 ADD PUSH2 0xBAF SWAP2 SWAP1 PUSH2 0x1594 JUMP JUMPDEST PUSH1 0x20 PUSH1 0x40 MLOAD DUP1 DUP4 SUB DUP2 DUP7 GAS STATICCALL ISZERO DUP1 ISZERO PUSH2 0xBCC JUMPI RETURNDATASIZE PUSH1 0x0 DUP1 RETURNDATACOPY RETURNDATASIZE PUSH1 0x0 REVERT JUMPDEST POP POP POP POP PUSH1 0x40 MLOAD RETURNDATASIZE PUSH1 0x1F NOT PUSH1 0x1F DUP3 ADD AND DUP3 ADD DUP1 PUSH1 0x40 MSTORE POP DUP2 ADD SWAP1 PUSH2 0xBF0 SWAP2 SWAP1 PUSH2 0x13EE JUMP JUMPDEST DUP8 DUP8 DUP8 PUSH1 0x40 MLOAD PUSH1 0x20 ADD PUSH2 0xC05 SWAP4 SWAP3 SWAP2 SWAP1 PUSH2 0x169F JUMP JUMPDEST PUSH1 0x40 MLOAD PUSH1 0x20 DUP2 DUP4 SUB SUB DUP2 MSTORE SWAP1 PUSH1 0x40 MSTORE PUSH1 0x40 MLOAD DUP5 PUSH4 0xFFFFFFFF AND PUSH1 0xE0 SHL DUP2 MSTORE PUSH1 0x4 ADD PUSH2 0xC32 SWAP4 SWAP3 SWAP2 SWAP1 PUSH2 0x175E JUMP JUMPDEST PUSH1 0x20 PUSH1 0x40 MLOAD DUP1 DUP4 SUB DUP2 PUSH1 0x0 DUP8 GAS CALL ISZERO DUP1 ISZERO PUSH2 0xC51 JUMPI RETURNDATASIZE PUSH1 0x0 DUP1 RETURNDATACOPY RETURNDATASIZE PUSH1 0x0 REVERT JUMPDEST POP POP POP POP PUSH1 0x40 MLOAD RETURNDATASIZE PUSH1 0x1F NOT PUSH1 0x1F DUP3 ADD AND DUP3 ADD DUP1 PUSH1 0x40 MSTORE POP DUP2 ADD SWAP1 PUSH2 0xC75 SWAP2 SWAP1 PUSH2 0x1470 JUMP JUMPDEST POP PUSH32 0x0 PUSH20 0xFFFFFFFFFFFFFFFFFFFFFFFFFFFFFFFFFFFFFFFF AND PUSH4 0xFC2A88C3 PUSH1 0x40 MLOAD DUP2 PUSH4 0xFFFFFFFF AND PUSH1 0xE0 SHL DUP2 MSTORE PUSH1 0x4 ADD PUSH1 0x20 PUSH1 0x40 MLOAD DUP1 DUP4 SUB DUP2 DUP7 GAS STATICCALL ISZERO DUP1 ISZERO PUSH2 0xCE1 JUMPI RETURNDATASIZE PUSH1 0x0 DUP1 RETURNDATACOPY RETURNDATASIZE PUSH1 0x0 REVERT JUMPDEST POP POP POP POP PUSH1 0x40 MLOAD RETURNDATASIZE PUSH1 0x1F NOT PUSH1 0x1F DUP3 ADD AND DUP3 ADD DUP1 PUSH1 0x40 MSTORE POP DUP2 ADD SWAP1 PUSH2 0xD05 SWAP2 SWAP1 PUSH2 0x13EE JUMP JUMPDEST SWAP1 POP SWAP4 SWAP3 POP POP POP JUMP JUMPDEST CALLER PUSH20 0xFFFFFFFFFFFFFFFFFFFFFFFFFFFFFFFFFFFFFFFF AND DUP2 PUSH20 0xFFFFFFFFFFFFFFFFFFFFFFFFFFFFFFFFFFFFFFFF AND EQ ISZERO PUSH2 0xD7D JUMPI PUSH1 0x40 MLOAD PUSH32 0x8C379A000000000000000000000000000000000000000000000000000000000 DUP2 MSTORE PUSH1 0x4 ADD PUSH2 0xD74 SWAP1 PUSH2 0x17E8 JUMP JUMPDEST PUSH1 0x40 MLOAD DUP1 SWAP2 SUB SWAP1 REVERT JUMPDEST DUP1 PUSH1 0x1 PUSH1 0x0 PUSH2 0x100 EXP DUP2 SLOAD DUP2 PUSH20 0xFFFFFFFFFFFFFFFFFFFFFFFFFFFFFFFFFFFFFFFF MUL NOT AND SWAP1 DUP4 PUSH20 0xFFFFFFFFFFFFFFFFFFFFFFFFFFFFFFFFFFFFFFFF AND MUL OR SWAP1 SSTORE POP DUP1 PUSH20 0xFFFFFFFFFFFFFFFFFFFFFFFFFFFFFFFFFFFFFFFF AND PUSH1 0x0 DUP1 SLOAD SWAP1 PUSH2 0x100 EXP SWAP1 DIV PUSH20 0xFFFFFFFFFFFFFFFFFFFFFFFFFFFFFFFFFFFFFFFF AND PUSH20 0xFFFFFFFFFFFFFFFFFFFFFFFFFFFFFFFFFFFFFFFF AND PUSH32 0xED8889F560326EB138920D842192F0EB3DD22B4F139C87A2C57538E05BAE1278 PUSH1 0x40 MLOAD PUSH1 0x40 MLOAD DUP1 SWAP2 SUB SWAP1 LOG3 POP JUMP JUMPDEST DUP3 DUP1 SLOAD DUP3 DUP3 SSTORE SWAP1 PUSH1 0x0 MSTORE PUSH1 0x20 PUSH1 0x0 KECCAK256 SWAP1 DUP2 ADD SWAP3 DUP3 ISZERO PUSH2 0xE77 JUMPI SWAP2 PUSH1 0x20 MUL DUP3 ADD JUMPDEST DUP3 DUP2 GT ISZERO PUSH2 0xE76 JUMPI DUP3 MLOAD DUP3 SSTORE SWAP2 PUSH1 0x20 ADD SWAP2 SWAP1 PUSH1 0x1 ADD SWAP1 PUSH2 0xE5B JUMP JUMPDEST JUMPDEST POP SWAP1 POP PUSH2 0xE84 SWAP2 SWAP1 PUSH2 0xE88 JUMP JUMPDEST POP SWAP1 JUMP JUMPDEST JUMPDEST DUP1 DUP3 GT ISZERO PUSH2 0xEA1 JUMPI PUSH1 0x0 DUP2 PUSH1 0x0 SWAP1 SSTORE POP PUSH1 0x1 ADD PUSH2 0xE89 JUMP JUMPDEST POP SWAP1 JUMP JUMPDEST PUSH1 0x0 PUSH1 0x40 MLOAD SWAP1 POP SWAP1 JUMP JUMPDEST PUSH1 0x0 DUP1 REVERT JUMPDEST PUSH1 0x0 DUP1 REVERT JUMPDEST PUSH1 0x0 DUP2 SWAP1 POP SWAP2 SWAP1 POP JUMP JUMPDEST PUSH2 0xECC DUP2 PUSH2 0xEB9 JUMP JUMPDEST DUP2 EQ PUSH2 0xED7 JUMPI PUSH1 0x0 DUP1 REVERT JUMPDEST POP JUMP JUMPDEST PUSH1 0x0 DUP2 CALLDATALOAD SWAP1 POP PUSH2 0xEE9 DUP2 PUSH2 0xEC3 JUMP JUMPDEST SWAP3 SWAP2 POP POP JUMP JUMPDEST PUSH1 0x0 DUP1 REVERT JUMPDEST PUSH1 0x0 PUSH1 0x1F NOT PUSH1 0x1F DUP4 ADD AND SWAP1 POP SWAP2 SWAP1 POP JUMP JUMPDEST PUSH32 0x4E487B7100000000000000000000000000000000000000000000000000000000 PUSH1 0x0 MSTORE PUSH1 0x41 PUSH1 0x4 MSTORE PUSH1 0x24 PUSH1 0x0 REVERT JUMPDEST PUSH2 0xF3D DUP3 PUSH2 0xEF4 JUMP JUMPDEST DUP2 ADD DUP2 DUP2 LT PUSH8 0xFFFFFFFFFFFFFFFF DUP3 GT OR ISZERO PUSH2 0xF5C JUMPI PUSH2 0xF5B PUSH2 0xF05 JUMP JUMPDEST JUMPDEST DUP1 PUSH1 0x40 MSTORE POP POP POP JUMP JUMPDEST PUSH1 0x0 PUSH2 0xF6F PUSH2 0xEA5 JUMP JUMPDEST SWAP1 POP PUSH2 0xF7B DUP3 DUP3 PUSH2 0xF34 JUMP JUMPDEST SWAP2 SWAP1 POP JUMP JUMPDEST PUSH1 0x0 PUSH8 0xFFFFFFFFFFFFFFFF DUP3 GT ISZERO PUSH2 0xF9B JUMPI PUSH2 0xF9A PUSH2 0xF05 JUMP JUMPDEST JUMPDEST PUSH1 0x20 DUP3 MUL SWAP1 POP PUSH1 0x20 DUP2 ADD SWAP1 POP SWAP2 SWAP1 POP JUMP JUMPDEST PUSH1 0x0 DUP1 REVERT JUMPDEST PUSH1 0x0 PUSH2 0xFC4 PUSH2 0xFBF DUP5 PUSH2 0xF80 JUMP JUMPDEST PUSH2 0xF65 JUMP JUMPDEST SWAP1 POP DUP1 DUP4 DUP3 MSTORE PUSH1 0x20 DUP3 ADD SWAP1 POP PUSH1 0x20 DUP5 MUL DUP4 ADD DUP6 DUP2 GT ISZERO PUSH2 0xFE7 JUMPI PUSH2 0xFE6 PUSH2 0xFAC JUMP JUMPDEST JUMPDEST DUP4 JUMPDEST DUP2 DUP2 LT ISZERO PUSH2 0x1010 JUMPI DUP1 PUSH2 0xFFC DUP9 DUP3 PUSH2 0xEDA JUMP JUMPDEST DUP5 MSTORE PUSH1 0x20 DUP5 ADD SWAP4 POP POP PUSH1 0x20 DUP2 ADD SWAP1 POP PUSH2 0xFE9 JUMP JUMPDEST POP POP POP SWAP4 SWAP3 POP POP POP JUMP JUMPDEST PUSH1 0x0 DUP3 PUSH1 0x1F DUP4 ADD SLT PUSH2 0x102F JUMPI PUSH2 0x102E PUSH2 0xEEF JUMP JUMPDEST JUMPDEST DUP2 CALLDATALOAD PUSH2 0x103F DUP5 DUP3 PUSH1 0x20 DUP7 ADD PUSH2 0xFB1 JUMP JUMPDEST SWAP2 POP POP SWAP3 SWAP2 POP POP JUMP JUMPDEST PUSH1 0x0 DUP1 PUSH1 0x40 DUP4 DUP6 SUB SLT ISZERO PUSH2 0x105F JUMPI PUSH2 0x105E PUSH2 0xEAF JUMP JUMPDEST JUMPDEST PUSH1 0x0 PUSH2 0x106D DUP6 DUP3 DUP7 ADD PUSH2 0xEDA JUMP JUMPDEST SWAP3 POP POP PUSH1 0x20 DUP4 ADD CALLDATALOAD PUSH8 0xFFFFFFFFFFFFFFFF DUP2 GT ISZERO PUSH2 0x108E JUMPI PUSH2 0x108D PUSH2 0xEB4 JUMP JUMPDEST JUMPDEST PUSH2 0x109A DUP6 DUP3 DUP7 ADD PUSH2 0x101A JUMP JUMPDEST SWAP2 POP POP SWAP3 POP SWAP3 SWAP1 POP JUMP JUMPDEST PUSH1 0x0 PUSH1 0x20 DUP3 DUP5 SUB SLT ISZERO PUSH2 0x10BA JUMPI PUSH2 0x10B9 PUSH2 0xEAF JUMP JUMPDEST JUMPDEST PUSH1 0x0 PUSH2 0x10C8 DUP5 DUP3 DUP6 ADD PUSH2 0xEDA JUMP JUMPDEST SWAP2 POP POP SWAP3 SWAP2 POP POP JUMP JUMPDEST PUSH2 0x10DA DUP2 PUSH2 0xEB9 JUMP JUMPDEST DUP3 MSTORE POP POP JUMP JUMPDEST PUSH1 0x0 PUSH1 0x20 DUP3 ADD SWAP1 POP PUSH2 0x10F5 PUSH1 0x0 DUP4 ADD DUP5 PUSH2 0x10D1 JUMP JUMPDEST SWAP3 SWAP2 POP POP JUMP JUMPDEST PUSH1 0x0 PUSH20 0xFFFFFFFFFFFFFFFFFFFFFFFFFFFFFFFFFFFFFFFF DUP3 AND SWAP1 POP SWAP2 SWAP1 POP JUMP JUMPDEST PUSH1 0x0 PUSH2 0x1126 DUP3 PUSH2 0x10FB JUMP JUMPDEST SWAP1 POP SWAP2 SWAP1 POP JUMP JUMPDEST PUSH2 0x1136 DUP2 PUSH2 0x111B JUMP JUMPDEST DUP3 MSTORE POP POP JUMP JUMPDEST PUSH1 0x0 PUSH1 0x20 DUP3 ADD SWAP1 POP PUSH2 0x1151 PUSH1 0x0 DUP4 ADD DUP5 PUSH2 0x112D JUMP JUMPDEST SWAP3 SWAP2 POP POP JUMP JUMPDEST PUSH1 0x0 DUP2 ISZERO ISZERO SWAP1 POP SWAP2 SWAP1 POP JUMP JUMPDEST PUSH2 0x116C DUP2 PUSH2 0x1157 JUMP JUMPDEST DUP3 MSTORE POP POP JUMP JUMPDEST PUSH1 0x0 PUSH1 0x40 DUP3 ADD SWAP1 POP PUSH2 0x1187 PUSH1 0x0 DUP4 ADD DUP6 PUSH2 0x10D1 JUMP JUMPDEST PUSH2 0x1194 PUSH1 0x20 DUP4 ADD DUP5 PUSH2 0x1163 JUMP JUMPDEST SWAP4 SWAP3 POP POP POP JUMP JUMPDEST PUSH1 0x0 DUP2 MLOAD SWAP1 POP SWAP2 SWAP1 POP JUMP JUMPDEST PUSH1 0x0 DUP3 DUP3 MSTORE PUSH1 0x20 DUP3 ADD SWAP1 POP SWAP3 SWAP2 POP POP JUMP JUMPDEST PUSH1 0x0 DUP2 SWAP1 POP PUSH1 0x20 DUP3 ADD SWAP1 POP SWAP2 SWAP1 POP JUMP JUMPDEST PUSH2 0x11D0 DUP2 PUSH2 0xEB9 JUMP JUMPDEST DUP3 MSTORE POP POP JUMP JUMPDEST PUSH1 0x0 PUSH2 0x11E2 DUP4 DUP4 PUSH2 0x11C7 JUMP JUMPDEST PUSH1 0x20 DUP4 ADD SWAP1 POP SWAP3 SWAP2 POP POP JUMP JUMPDEST PUSH1 0x0 PUSH1 0x20 DUP3 ADD SWAP1 POP SWAP2 SWAP1 POP JUMP JUMPDEST PUSH1 0x0 PUSH2 0x1206 DUP3 PUSH2 0x119B JUMP JUMPDEST PUSH2 0x1210 DUP2 DUP6 PUSH2 0x11A6 JUMP JUMPDEST SWAP4 POP PUSH2 0x121B DUP4 PUSH2 0x11B7 JUMP JUMPDEST DUP1 PUSH1 0x0 JUMPDEST DUP4 DUP2 LT ISZERO PUSH2 0x124C JUMPI DUP2 MLOAD PUSH2 0x1233 DUP9 DUP3 PUSH2 0x11D6 JUMP JUMPDEST SWAP8 POP PUSH2 0x123E DUP4 PUSH2 0x11EE JUMP JUMPDEST SWAP3 POP POP PUSH1 0x1 DUP2 ADD SWAP1 POP PUSH2 0x121F JUMP JUMPDEST POP DUP6 SWAP4 POP POP POP POP SWAP3 SWAP2 POP POP JUMP JUMPDEST PUSH1 0x0 PUSH1 0x60 DUP3 ADD SWAP1 POP PUSH2 0x126E PUSH1 0x0 DUP4 ADD DUP7 PUSH2 0x10D1 JUMP JUMPDEST PUSH2 0x127B PUSH1 0x20 DUP4 ADD DUP6 PUSH2 0x1163 JUMP JUMPDEST DUP2 DUP2 SUB PUSH1 0x40 DUP4 ADD MSTORE PUSH2 0x128D DUP2 DUP5 PUSH2 0x11FB JUMP JUMPDEST SWAP1 POP SWAP5 SWAP4 POP POP POP POP JUMP JUMPDEST PUSH2 0x12A0 DUP2 PUSH2 0x111B JUMP JUMPDEST DUP2 EQ PUSH2 0x12AB JUMPI PUSH1 0x0 DUP1 REVERT JUMPDEST POP JUMP JUMPDEST PUSH1 0x0 DUP2 CALLDATALOAD SWAP1 POP PUSH2 0x12BD DUP2 PUSH2 0x1297 JUMP JUMPDEST SWAP3 SWAP2 POP POP JUMP JUMPDEST PUSH1 0x0 PUSH1 0x20 DUP3 DUP5 SUB SLT ISZERO PUSH2 0x12D9 JUMPI PUSH2 0x12D8 PUSH2 0xEAF JUMP JUMPDEST JUMPDEST PUSH1 0x0 PUSH2 0x12E7 DUP5 DUP3 DUP6 ADD PUSH2 0x12AE JUMP JUMPDEST SWAP2 POP POP SWAP3 SWAP2 POP POP JUMP JUMPDEST PUSH1 0x0 DUP3 DUP3 MSTORE PUSH1 0x20 DUP3 ADD SWAP1 POP SWAP3 SWAP2 POP POP JUMP JUMPDEST PUSH32 0x6F6E6C792056524620563220777261707065722063616E2066756C66696C6C00 PUSH1 0x0 DUP3 ADD MSTORE POP JUMP JUMPDEST PUSH1 0x0 PUSH2 0x1337 PUSH1 0x1F DUP4 PUSH2 0x12F0 JUMP JUMPDEST SWAP2 POP PUSH2 0x1342 DUP3 PUSH2 0x1301 JUMP JUMPDEST PUSH1 0x20 DUP3 ADD SWAP1 POP SWAP2 SWAP1 POP JUMP JUMPDEST PUSH1 0x0 PUSH1 0x20 DUP3 ADD SWAP1 POP DUP2 DUP2 SUB PUSH1 0x0 DUP4 ADD MSTORE PUSH2 0x1366 DUP2 PUSH2 0x132A JUMP JUMPDEST SWAP1 POP SWAP2 SWAP1 POP JUMP JUMPDEST PUSH32 0x4D7573742062652070726F706F736564206F776E657200000000000000000000 PUSH1 0x0 DUP3 ADD MSTORE POP JUMP JUMPDEST PUSH1 0x0 PUSH2 0x13A3 PUSH1 0x16 DUP4 PUSH2 0x12F0 JUMP JUMPDEST SWAP2 POP PUSH2 0x13AE DUP3 PUSH2 0x136D JUMP JUMPDEST PUSH1 0x20 DUP3 ADD SWAP1 POP SWAP2 SWAP1 POP JUMP JUMPDEST PUSH1 0x0 PUSH1 0x20 DUP3 ADD SWAP1 POP DUP2 DUP2 SUB PUSH1 0x0 DUP4 ADD MSTORE PUSH2 0x13D2 DUP2 PUSH2 0x1396 JUMP JUMPDEST SWAP1 POP SWAP2 SWAP1 POP JUMP JUMPDEST PUSH1 0x0 DUP2 MLOAD SWAP1 POP PUSH2 0x13E8 DUP2 PUSH2 0xEC3 JUMP JUMPDEST SWAP3 SWAP2 POP POP JUMP JUMPDEST PUSH1 0x0 PUSH1 0x20 DUP3 DUP5 SUB SLT ISZERO PUSH2 0x1404 JUMPI PUSH2 0x1403 PUSH2 0xEAF JUMP JUMPDEST JUMPDEST PUSH1 0x0 PUSH2 0x1412 DUP5 DUP3 DUP6 ADD PUSH2 0x13D9 JUMP JUMPDEST SWAP2 POP POP SWAP3 SWAP2 POP POP JUMP JUMPDEST PUSH1 0x0 PUSH1 0x40 DUP3 ADD SWAP1 POP PUSH2 0x1430 PUSH1 0x0 DUP4 ADD DUP6 PUSH2 0x112D JUMP JUMPDEST PUSH2 0x143D PUSH1 0x20 DUP4 ADD DUP5 PUSH2 0x10D1 JUMP JUMPDEST SWAP4 SWAP3 POP POP POP JUMP JUMPDEST PUSH2 0x144D DUP2 PUSH2 0x1157 JUMP JUMPDEST DUP2 EQ PUSH2 0x1458 JUMPI PUSH1 0x0 DUP1 REVERT JUMPDEST POP JUMP JUMPDEST PUSH1 0x0 DUP2 MLOAD SWAP1 POP PUSH2 0x146A DUP2 PUSH2 0x1444 JUMP JUMPDEST SWAP3 SWAP2 POP POP JUMP JUMPDEST PUSH1 0x0 PUSH1 0x20 DUP3 DUP5 SUB SLT ISZERO PUSH2 0x1486 JUMPI PUSH2 0x1485 PUSH2 0xEAF JUMP JUMPDEST JUMPDEST PUSH1 0x0 PUSH2 0x1494 DUP5 DUP3 DUP6 ADD PUSH2 0x145B JUMP JUMPDEST SWAP2 POP POP SWAP3 SWAP2 POP POP JUMP JUMPDEST PUSH32 0x556E61626C6520746F207472616E736665720000000000000000000000000000 PUSH1 0x0 DUP3 ADD MSTORE POP JUMP JUMPDEST PUSH1 0x0 PUSH2 0x14D3 PUSH1 0x12 DUP4 PUSH2 0x12F0 JUMP JUMPDEST SWAP2 POP PUSH2 0x14DE DUP3 PUSH2 0x149D JUMP JUMPDEST PUSH1 0x20 DUP3 ADD SWAP1 POP SWAP2 SWAP1 POP JUMP JUMPDEST PUSH1 0x0 PUSH1 0x20 DUP3 ADD SWAP1 POP DUP2 DUP2 SUB PUSH1 0x0 DUP4 ADD MSTORE PUSH2 0x1502 DUP2 PUSH2 0x14C6 JUMP JUMPDEST SWAP1 POP SWAP2 SWAP1 POP JUMP JUMPDEST PUSH32 0x72657175657374206E6F7420666F756E64000000000000000000000000000000 PUSH1 0x0 DUP3 ADD MSTORE POP JUMP JUMPDEST PUSH1 0x0 PUSH2 0x153F PUSH1 0x11 DUP4 PUSH2 0x12F0 JUMP JUMPDEST SWAP2 POP PUSH2 0x154A DUP3 PUSH2 0x1509 JUMP JUMPDEST PUSH1 0x20 DUP3 ADD SWAP1 POP SWAP2 SWAP1 POP JUMP JUMPDEST PUSH1 0x0 PUSH1 0x20 DUP3 ADD SWAP1 POP DUP2 DUP2 SUB PUSH1 0x0 DUP4 ADD MSTORE PUSH2 0x156E DUP2 PUSH2 0x1532 JUMP JUMPDEST SWAP1 POP SWAP2 SWAP1 POP JUMP JUMPDEST PUSH1 0x0 PUSH4 0xFFFFFFFF DUP3 AND SWAP1 POP SWAP2 SWAP1 POP JUMP JUMPDEST PUSH2 0x158E DUP2 PUSH2 0x1575 JUMP JUMPDEST DUP3 MSTORE POP POP JUMP JUMPDEST PUSH1 0x0 PUSH1 0x20 DUP3 ADD SWAP1 POP PUSH2 0x15A9 PUSH1 0x0 DUP4 ADD DUP5 PUSH2 0x1585 JUMP JUMPDEST SWAP3 SWAP2 POP POP JUMP JUMPDEST PUSH1 0x0 PUSH1 0x40 DUP3 ADD SWAP1 POP PUSH2 0x15C4 PUSH1 0x0 DUP4 ADD DUP6 PUSH2 0x10D1 JUMP JUMPDEST PUSH2 0x15D1 PUSH1 0x20 DUP4 ADD DUP5 PUSH2 0x1585 JUMP JUMPDEST SWAP4 SWAP3 POP POP POP JUMP JUMPDEST PUSH1 0x0 PUSH1 0x60 DUP3 ADD SWAP1 POP PUSH2 0x15ED PUSH1 0x0 DUP4 ADD DUP7 PUSH2 0x10D1 JUMP JUMPDEST DUP2 DUP2 SUB PUSH1 0x20 DUP4 ADD MSTORE PUSH2 0x15FF DUP2 DUP6 PUSH2 0x11FB JUMP JUMPDEST SWAP1 POP PUSH2 0x160E PUSH1 0x40 DUP4 ADD DUP5 PUSH2 0x10D1 JUMP JUMPDEST SWAP5 SWAP4 POP POP POP POP JUMP JUMPDEST PUSH32 0x4F6E6C792063616C6C61626C65206279206F776E657200000000000000000000 PUSH1 0x0 DUP3 ADD MSTORE POP JUMP JUMPDEST PUSH1 0x0 PUSH2 0x164C PUSH1 0x16 DUP4 PUSH2 0x12F0 JUMP JUMPDEST SWAP2 POP PUSH2 0x1657 DUP3 PUSH2 0x1616 JUMP JUMPDEST PUSH1 0x20 DUP3 ADD SWAP1 POP SWAP2 SWAP1 POP JUMP JUMPDEST PUSH1 0x0 PUSH1 0x20 DUP3 ADD SWAP1 POP DUP2 DUP2 SUB PUSH1 0x0 DUP4 ADD MSTORE PUSH2 0x167B DUP2 PUSH2 0x163F JUMP JUMPDEST SWAP1 POP SWAP2 SWAP1 POP JUMP JUMPDEST PUSH1 0x0 PUSH2 0xFFFF DUP3 AND SWAP1 POP SWAP2 SWAP1 POP JUMP JUMPDEST PUSH2 0x1699 DUP2 PUSH2 0x1682 JUMP JUMPDEST DUP3 MSTORE POP POP JUMP JUMPDEST PUSH1 0x0 PUSH1 0x60 DUP3 ADD SWAP1 POP PUSH2 0x16B4 PUSH1 0x0 DUP4 ADD DUP7 PUSH2 0x1585 JUMP JUMPDEST PUSH2 0x16C1 PUSH1 0x20 DUP4 ADD DUP6 PUSH2 0x1690 JUMP JUMPDEST PUSH2 0x16CE PUSH1 0x40 DUP4 ADD DUP5 PUSH2 0x1585 JUMP JUMPDEST SWAP5 SWAP4 POP POP POP POP JUMP JUMPDEST PUSH1 0x0 DUP2 MLOAD SWAP1 POP SWAP2 SWAP1 POP JUMP JUMPDEST PUSH1 0x0 DUP3 DUP3 MSTORE PUSH1 0x20 DUP3 ADD SWAP1 POP SWAP3 SWAP2 POP POP JUMP JUMPDEST PUSH1 0x0 JUMPDEST DUP4 DUP2 LT ISZERO PUSH2 0x1710 JUMPI DUP1 DUP3 ADD MLOAD DUP2 DUP5 ADD MSTORE PUSH1 0x20 DUP2 ADD SWAP1 POP PUSH2 0x16F5 JUMP JUMPDEST DUP4 DUP2 GT ISZERO PUSH2 0x171F JUMPI PUSH1 0x0 DUP5 DUP5 ADD MSTORE JUMPDEST POP POP POP POP JUMP JUMPDEST PUSH1 0x0 PUSH2 0x1730 DUP3 PUSH2 0x16D6 JUMP JUMPDEST PUSH2 0x173A DUP2 DUP6 PUSH2 0x16E1 JUMP JUMPDEST SWAP4 POP PUSH2 0x174A DUP2 DUP6 PUSH1 0x20 DUP7 ADD PUSH2 0x16F2 JUMP JUMPDEST PUSH2 0x1753 DUP2 PUSH2 0xEF4 JUMP JUMPDEST DUP5 ADD SWAP2 POP POP SWAP3 SWAP2 POP POP JUMP JUMPDEST PUSH1 0x0 PUSH1 0x60 DUP3 ADD SWAP1 POP PUSH2 0x1773 PUSH1 0x0 DUP4 ADD DUP7 PUSH2 0x112D JUMP JUMPDEST PUSH2 0x1780 PUSH1 0x20 DUP4 ADD DUP6 PUSH2 0x10D1 JUMP JUMPDEST DUP2 DUP2 SUB PUSH1 0x40 DUP4 ADD MSTORE PUSH2 0x1792 DUP2 DUP5 PUSH2 0x1725 JUMP JUMPDEST SWAP1 POP SWAP5 SWAP4 POP POP POP POP JUMP JUMPDEST PUSH32 0x43616E6E6F74207472616E7366657220746F2073656C66000000000000000000 PUSH1 0x0 DUP3 ADD MSTORE POP JUMP JUMPDEST PUSH1 0x0 PUSH2 0x17D2 PUSH1 0x17 DUP4 PUSH2 0x12F0 JUMP JUMPDEST SWAP2 POP PUSH2 0x17DD DUP3 PUSH2 0x179C JUMP JUMPDEST PUSH1 0x20 DUP3 ADD SWAP1 POP SWAP2 SWAP1 POP JUMP JUMPDEST PUSH1 0x0 PUSH1 0x20 DUP3 ADD SWAP1 POP DUP2 DUP2 SUB PUSH1 0x0 DUP4 ADD MSTORE PUSH2 0x1801 DUP2 PUSH2 0x17C5 JUMP JUMPDEST SWAP1 POP SWAP2 SWAP1 POP JUMP INVALID LOG2 PUSH5 0x6970667358 0x22 SLT KECCAK256 STOP 0xC4 0xBB 0xD9 DUP6 NUMBER 0x2B 0xAA ADD PUSH7 0x1C8C884DFA78C PUSH20 0xD16C237804CE91AB577FF5CBC81964736F6C6343 STOP ADDMOD EXP STOP CALLER "
				},
				"gasEstimates": {
					"creation": {
						"codeDepositCost": "1241200",
						"executionCost": "infinite",
						"totalCost": "infinite"
					},
					"external": {
						"acceptOwnership()": "54563",
						"getRequestStatus(uint256)": "infinite",
						"lastRequestId()": "2517",
						"owner()": "2589",
						"rawFulfillRandomWords(uint256,uint256[])": "infinite",
						"requestIds(uint256)": "infinite",
						"requestRandomWords()": "infinite",
						"s_requests(uint256)": "infinite",
						"transferOwnership(address)": "30723",
						"withdrawLink()": "infinite"
					},
					"internal": {
						"fulfillRandomWords(uint256,uint256[] memory)": "infinite"
					}
				},
				"methodIdentifiers": {
					"acceptOwnership()": "79ba5097",
					"getRequestStatus(uint256)": "d8a4676f",
					"lastRequestId()": "fc2a88c3",
					"owner()": "8da5cb5b",
					"rawFulfillRandomWords(uint256,uint256[])": "1fe543e3",
					"requestIds(uint256)": "8796ba8c",
					"requestRandomWords()": "e0c86289",
					"s_requests(uint256)": "a168fa89",
					"transferOwnership(address)": "f2fde38b",
					"withdrawLink()": "8dc654a2"
				}
			},
			"storageLayout": {
				"storage": [
					{
						"astId": 29,
						"contract": "StekcitBM.sol:StekcitBM",
						"label": "s_owner",
						"offset": 0,
						"slot": "0",
						"type": "t_address"
					},
					{
						"astId": 31,
						"contract": "StekcitBM.sol:StekcitBM",
						"label": "s_pendingOwner",
						"offset": 0,
						"slot": "1",
						"type": "t_address"
					},
					{
						"astId": 467,
						"contract": "StekcitBM.sol:StekcitBM",
						"label": "s_requests",
						"offset": 0,
						"slot": "2",
						"type": "t_mapping(t_uint256,t_struct(RequestStatus)462_storage)"
					},
					{
						"astId": 470,
						"contract": "StekcitBM.sol:StekcitBM",
						"label": "requestIds",
						"offset": 0,
						"slot": "3",
						"type": "t_array(t_uint256)dyn_storage"
					},
					{
						"astId": 472,
						"contract": "StekcitBM.sol:StekcitBM",
						"label": "lastRequestId",
						"offset": 0,
						"slot": "4",
						"type": "t_uint256"
					},
					{
						"astId": 475,
						"contract": "StekcitBM.sol:StekcitBM",
						"label": "callbackGasLimit",
						"offset": 0,
						"slot": "5",
						"type": "t_uint32"
					},
					{
						"astId": 478,
						"contract": "StekcitBM.sol:StekcitBM",
						"label": "requestConfirmations",
						"offset": 4,
						"slot": "5",
						"type": "t_uint16"
					},
					{
						"astId": 481,
						"contract": "StekcitBM.sol:StekcitBM",
						"label": "numWords",
						"offset": 6,
						"slot": "5",
						"type": "t_uint32"
					},
					{
						"astId": 484,
						"contract": "StekcitBM.sol:StekcitBM",
						"label": "linkAddress",
						"offset": 10,
						"slot": "5",
						"type": "t_address"
					},
					{
						"astId": 487,
						"contract": "StekcitBM.sol:StekcitBM",
						"label": "wrapperAddress",
						"offset": 0,
						"slot": "6",
						"type": "t_address"
					}
				],
				"types": {
					"t_address": {
						"encoding": "inplace",
						"label": "address",
						"numberOfBytes": "20"
					},
					"t_array(t_uint256)dyn_storage": {
						"base": "t_uint256",
						"encoding": "dynamic_array",
						"label": "uint256[]",
						"numberOfBytes": "32"
					},
					"t_bool": {
						"encoding": "inplace",
						"label": "bool",
						"numberOfBytes": "1"
					},
					"t_mapping(t_uint256,t_struct(RequestStatus)462_storage)": {
						"encoding": "mapping",
						"key": "t_uint256",
						"label": "mapping(uint256 => struct StekcitBM.RequestStatus)",
						"numberOfBytes": "32",
						"value": "t_struct(RequestStatus)462_storage"
					},
					"t_struct(RequestStatus)462_storage": {
						"encoding": "inplace",
						"label": "struct StekcitBM.RequestStatus",
						"members": [
							{
								"astId": 456,
								"contract": "StekcitBM.sol:StekcitBM",
								"label": "paid",
								"offset": 0,
								"slot": "0",
								"type": "t_uint256"
							},
							{
								"astId": 458,
								"contract": "StekcitBM.sol:StekcitBM",
								"label": "fulfilled",
								"offset": 0,
								"slot": "1",
								"type": "t_bool"
							},
							{
								"astId": 461,
								"contract": "StekcitBM.sol:StekcitBM",
								"label": "randomWords",
								"offset": 0,
								"slot": "2",
								"type": "t_array(t_uint256)dyn_storage"
							}
						],
						"numberOfBytes": "96"
					},
					"t_uint16": {
						"encoding": "inplace",
						"label": "uint16",
						"numberOfBytes": "2"
					},
					"t_uint256": {
						"encoding": "inplace",
						"label": "uint256",
						"numberOfBytes": "32"
					},
					"t_uint32": {
						"encoding": "inplace",
						"label": "uint32",
						"numberOfBytes": "4"
					}
				}
			},
			"userdoc": {
				"kind": "user",
				"methods": {
					"acceptOwnership()": {
						"notice": "Allows an ownership transfer to be completed by the recipient."
					},
					"owner()": {
						"notice": "Get the current owner"
					},
					"transferOwnership(address)": {
						"notice": "Allows an owner to begin transferring ownership to a new address."
					},
					"withdrawLink()": {
						"notice": "Allow withdraw of Link tokens from the contract"
					}
				},
				"notice": "THIS IS AN EXAMPLE CONTRACT THAT USES HARDCODED VALUES FOR CLARITY. THIS IS AN EXAMPLE CONTRACT THAT USES UN-AUDITED CODE. DO NOT USE THIS CODE IN PRODUCTION.",
				"version": 1
			}
		}
	}
}