{
	"StekcitPlayground.sol": {
		"StekcitPlayground": {
			"abi": [
				{
					"inputs": [
						{
							"internalType": "address",
							"name": "_walletAddress",
							"type": "address"
						}
					],
					"name": "createEvent",
					"outputs": [],
					"stateMutability": "nonpayable",
					"type": "function"
				},
				{
					"inputs": [
						{
							"internalType": "address",
							"name": "_walletAddress",
							"type": "address"
						},
						{
							"internalType": "string",
							"name": "username",
							"type": "string"
						}
					],
					"name": "createUser",
					"outputs": [],
					"stateMutability": "nonpayable",
					"type": "function"
				},
				{
					"inputs": [],
					"name": "getAllCreatedEvents",
					"outputs": [
						{
							"components": [
								{
									"internalType": "uint256",
									"name": "id",
									"type": "uint256"
								},
								{
									"internalType": "address",
									"name": "creatingUserWalletAddress",
									"type": "address"
								}
							],
							"internalType": "struct StekcitPlayground.StekcitEvent[]",
							"name": "",
							"type": "tuple[]"
						}
					],
					"stateMutability": "view",
					"type": "function"
				},
				{
					"inputs": [],
					"name": "getAllUsers",
					"outputs": [
						{
							"components": [
								{
									"internalType": "uint256",
									"name": "id",
									"type": "uint256"
								},
								{
									"internalType": "address",
									"name": "userWalletAddress",
									"type": "address"
								},
								{
									"internalType": "string",
									"name": "username",
									"type": "string"
								}
							],
							"internalType": "struct StekcitPlayground.StekcitUser[]",
							"name": "",
							"type": "tuple[]"
						}
					],
					"stateMutability": "view",
					"type": "function"
				},
				{
					"inputs": [
						{
							"internalType": "address",
							"name": "_walletAddress",
							"type": "address"
						}
					],
					"name": "getEventsOfCreatingUser",
					"outputs": [
						{
							"components": [
								{
									"internalType": "uint256",
									"name": "id",
									"type": "uint256"
								},
								{
									"internalType": "address",
									"name": "creatingUserWalletAddress",
									"type": "address"
								}
							],
							"internalType": "struct StekcitPlayground.StekcitEvent[]",
							"name": "",
							"type": "tuple[]"
						}
					],
					"stateMutability": "view",
					"type": "function"
				},
				{
					"inputs": [],
					"name": "getNumberOfAllEvents",
					"outputs": [
						{
							"internalType": "uint256",
							"name": "",
							"type": "uint256"
						}
					],
					"stateMutability": "view",
					"type": "function"
				},
				{
					"inputs": [
						{
							"internalType": "address",
							"name": "_walletAddress",
							"type": "address"
						}
					],
					"name": "getUser",
					"outputs": [
						{
							"components": [
								{
									"internalType": "uint256",
									"name": "id",
									"type": "uint256"
								},
								{
									"internalType": "address",
									"name": "userWalletAddress",
									"type": "address"
								},
								{
									"internalType": "string",
									"name": "username",
									"type": "string"
								}
							],
							"internalType": "struct StekcitPlayground.StekcitUser",
							"name": "",
							"type": "tuple"
						}
					],
					"stateMutability": "view",
					"type": "function"
				},
				{
					"inputs": [
						{
							"internalType": "address",
							"name": "_walletAddress",
							"type": "address"
						},
						{
							"internalType": "string",
							"name": "newUsername",
							"type": "string"
						}
					],
					"name": "updateUser",
					"outputs": [],
					"stateMutability": "nonpayable",
					"type": "function"
				}
			],
			"devdoc": {
				"kind": "dev",
				"methods": {},
				"version": 1
			},
			"evm": {
				"assembly": "    /* \"StekcitPlayground.sol\":58:3778  contract StekcitPlayground {... */\n  mstore(0x40, 0x80)\n    /* \"StekcitPlayground.sol\":115:116  0 */\n  0x00\n    /* \"StekcitPlayground.sol\":91:116  uint256 currentUserId = 0 */\n  dup1\n  sstore\n    /* \"StekcitPlayground.sol\":147:148  0 */\n  0x00\n    /* \"StekcitPlayground.sol\":122:148  uint256 currentEventId = 0 */\n  0x01\n  sstore\n    /* \"StekcitPlayground.sol\":58:3778  contract StekcitPlayground {... */\n  callvalue\n  dup1\n  iszero\n  tag_1\n  jumpi\n  0x00\n  dup1\n  revert\ntag_1:\n  pop\n  dataSize(sub_0)\n  dup1\n  dataOffset(sub_0)\n  0x00\n  codecopy\n  0x00\n  return\nstop\n\nsub_0: assembly {\n        /* \"StekcitPlayground.sol\":58:3778  contract StekcitPlayground {... */\n      mstore(0x40, 0x80)\n      callvalue\n      dup1\n      iszero\n      tag_1\n      jumpi\n      0x00\n      dup1\n      revert\n    tag_1:\n      pop\n      jumpi(tag_2, lt(calldatasize, 0x04))\n      shr(0xe0, calldataload(0x00))\n      dup1\n      0x787b8d47\n      gt\n      tag_11\n      jumpi\n      dup1\n      0x787b8d47\n      eq\n      tag_7\n      jumpi\n      dup1\n      0xb0889819\n      eq\n      tag_8\n      jumpi\n      dup1\n      0xe2842d79\n      eq\n      tag_9\n      jumpi\n      dup1\n      0xf9bcd545\n      eq\n      tag_10\n      jumpi\n      jump(tag_2)\n    tag_11:\n      dup1\n      0x143328c2\n      eq\n      tag_3\n      jumpi\n      dup1\n      0x5ef618b7\n      eq\n      tag_4\n      jumpi\n      dup1\n      0x6f77926b\n      eq\n      tag_5\n      jumpi\n      dup1\n      0x7083b76e\n      eq\n      tag_6\n      jumpi\n    tag_2:\n      0x00\n      dup1\n      revert\n        /* \"StekcitPlayground.sol\":2794:3278  function getAllCreatedEvents() public view returns (StekcitEvent[] memory) {... */\n    tag_3:\n      tag_12\n      tag_13\n      jump\t// in\n    tag_12:\n      mload(0x40)\n      tag_14\n      swap2\n      swap1\n      tag_15\n      jump\t// in\n    tag_14:\n      mload(0x40)\n      dup1\n      swap2\n      sub\n      swap1\n      return\n        /* \"StekcitPlayground.sol\":1808:1908  function getNumberOfAllEvents() public view returns (uint256) {... */\n    tag_4:\n      tag_16\n      tag_17\n      jump\t// in\n    tag_16:\n      mload(0x40)\n      tag_18\n      swap2\n      swap1\n      tag_19\n      jump\t// in\n    tag_18:\n      mload(0x40)\n      dup1\n      swap2\n      sub\n      swap1\n      return\n        /* \"StekcitPlayground.sol\":852:1010  function getUser(address _walletAddress)... */\n    tag_5:\n      tag_20\n      0x04\n      dup1\n      calldatasize\n      sub\n      dup2\n      add\n      swap1\n      tag_21\n      swap2\n      swap1\n      tag_22\n      jump\t// in\n    tag_21:\n      tag_23\n      jump\t// in\n    tag_20:\n      mload(0x40)\n      tag_24\n      swap2\n      swap1\n      tag_25\n      jump\t// in\n    tag_24:\n      mload(0x40)\n      dup1\n      swap2\n      sub\n      swap1\n      return\n        /* \"StekcitPlayground.sol\":1914:2788  function getEventsOfCreatingUser(address _walletAddress)... */\n    tag_6:\n      tag_26\n      0x04\n      dup1\n      calldatasize\n      sub\n      dup2\n      add\n      swap1\n      tag_27\n      swap2\n      swap1\n      tag_22\n      jump\t// in\n    tag_27:\n      tag_28\n      jump\t// in\n    tag_26:\n      mload(0x40)\n      tag_29\n      swap2\n      swap1\n      tag_15\n      jump\t// in\n    tag_29:\n      mload(0x40)\n      dup1\n      swap2\n      sub\n      swap1\n      return\n        /* \"StekcitPlayground.sol\":1290:1802  function createEvent(address _walletAddress) public {... */\n    tag_7:\n      tag_30\n      0x04\n      dup1\n      calldatasize\n      sub\n      dup2\n      add\n      swap1\n      tag_31\n      swap2\n      swap1\n      tag_22\n      jump\t// in\n    tag_31:\n      tag_32\n      jump\t// in\n    tag_30:\n      stop\n        /* \"StekcitPlayground.sol\":1016:1284  function updateUser(address _walletAddress, string memory newUsername)... */\n    tag_8:\n      tag_33\n      0x04\n      dup1\n      calldatasize\n      sub\n      dup2\n      add\n      swap1\n      tag_34\n      swap2\n      swap1\n      tag_35\n      jump\t// in\n    tag_34:\n      tag_36\n      jump\t// in\n    tag_33:\n      stop\n        /* \"StekcitPlayground.sol\":3307:3776  function getAllUsers() public view returns (StekcitUser[] memory) {... */\n    tag_9:\n      tag_37\n      tag_38\n      jump\t// in\n    tag_37:\n      mload(0x40)\n      tag_39\n      swap2\n      swap1\n      tag_40\n      jump\t// in\n    tag_39:\n      mload(0x40)\n      dup1\n      swap2\n      sub\n      swap1\n      return\n        /* \"StekcitPlayground.sol\":516:846  function createUser(address _walletAddress, string memory username) public {... */\n    tag_10:\n      tag_41\n      0x04\n      dup1\n      calldatasize\n      sub\n      dup2\n      add\n      swap1\n      tag_42\n      swap2\n      swap1\n      tag_35\n      jump\t// in\n    tag_42:\n      tag_43\n      jump\t// in\n    tag_41:\n      stop\n        /* \"StekcitPlayground.sol\":2794:3278  function getAllCreatedEvents() public view returns (StekcitEvent[] memory) {... */\n    tag_13:\n        /* \"StekcitPlayground.sol\":2846:2867  StekcitEvent[] memory */\n      0x60\n        /* \"StekcitPlayground.sol\":2879:2903  uint256 countOfAllEvents */\n      0x00\n        /* \"StekcitPlayground.sol\":2906:2920  currentEventId */\n      sload(0x01)\n        /* \"StekcitPlayground.sol\":2879:2920  uint256 countOfAllEvents = currentEventId */\n      swap1\n      pop\n        /* \"StekcitPlayground.sol\":2931:2969  StekcitEvent[] memory allCreatedEvents */\n      0x00\n        /* \"StekcitPlayground.sol\":3004:3020  countOfAllEvents */\n      dup2\n        /* \"StekcitPlayground.sol\":2972:3030  new StekcitEvent[](... */\n      0xffffffffffffffff\n      dup2\n      gt\n      iszero\n      tag_45\n      jumpi\n      tag_46\n      tag_47\n      jump\t// in\n    tag_46:\n    tag_45:\n      mload(0x40)\n      swap1\n      dup1\n      dup3\n      mstore\n      dup1\n      0x20\n      mul\n      0x20\n      add\n      dup3\n      add\n      0x40\n      mstore\n      dup1\n      iszero\n      tag_48\n      jumpi\n      dup2\n      0x20\n      add\n    tag_49:\n      tag_50\n      tag_51\n      jump\t// in\n    tag_50:\n      dup2\n      mstore\n      0x20\n      add\n      swap1\n      0x01\n      swap1\n      sub\n      swap1\n      dup2\n      tag_49\n      jumpi\n      swap1\n      pop\n    tag_48:\n      pop\n        /* \"StekcitPlayground.sol\":2931:3030  StekcitEvent[] memory allCreatedEvents = new StekcitEvent[](... */\n      swap1\n      pop\n        /* \"StekcitPlayground.sol\":3046:3061  uint256 eventId */\n      0x00\n        /* \"StekcitPlayground.sol\":3041:3238  for (uint256 eventId = 0; eventId < countOfAllEvents; eventId++) {... */\n    tag_52:\n        /* \"StekcitPlayground.sol\":3077:3093  countOfAllEvents */\n      dup3\n        /* \"StekcitPlayground.sol\":3067:3074  eventId */\n      dup2\n        /* \"StekcitPlayground.sol\":3067:3093  eventId < countOfAllEvents */\n      lt\n        /* \"StekcitPlayground.sol\":3041:3238  for (uint256 eventId = 0; eventId < countOfAllEvents; eventId++) {... */\n      iszero\n      tag_53\n      jumpi\n        /* \"StekcitPlayground.sol\":3120:3152  StekcitEvent memory currentEvent */\n      0x00\n        /* \"StekcitPlayground.sol\":3155:3164  allEvents */\n      0x04\n        /* \"StekcitPlayground.sol\":3155:3173  allEvents[eventId] */\n      0x00\n        /* \"StekcitPlayground.sol\":3165:3172  eventId */\n      dup4\n        /* \"StekcitPlayground.sol\":3155:3173  allEvents[eventId] */\n      dup2\n      mstore\n      0x20\n      add\n      swap1\n      dup2\n      mstore\n      0x20\n      add\n      0x00\n      keccak256\n        /* \"StekcitPlayground.sol\":3120:3173  StekcitEvent memory currentEvent = allEvents[eventId] */\n      mload(0x40)\n      dup1\n      0x40\n      add\n      0x40\n      mstore\n      swap1\n      dup2\n      0x00\n      dup3\n      add\n      sload\n      dup2\n      mstore\n      0x20\n      add\n      0x01\n      dup3\n      add\n      0x00\n      swap1\n      sload\n      swap1\n      0x0100\n      exp\n      swap1\n      div\n      0xffffffffffffffffffffffffffffffffffffffff\n      and\n      0xffffffffffffffffffffffffffffffffffffffff\n      and\n      0xffffffffffffffffffffffffffffffffffffffff\n      and\n      dup2\n      mstore\n      pop\n      pop\n      swap1\n      pop\n        /* \"StekcitPlayground.sol\":3215:3227  currentEvent */\n      dup1\n        /* \"StekcitPlayground.sol\":3187:3203  allCreatedEvents */\n      dup4\n        /* \"StekcitPlayground.sol\":3204:3211  eventId */\n      dup4\n        /* \"StekcitPlayground.sol\":3187:3212  allCreatedEvents[eventId] */\n      dup2\n      mload\n      dup2\n      lt\n      tag_55\n      jumpi\n      tag_56\n      tag_57\n      jump\t// in\n    tag_56:\n    tag_55:\n      0x20\n      mul\n      0x20\n      add\n      add\n        /* \"StekcitPlayground.sol\":3187:3227  allCreatedEvents[eventId] = currentEvent */\n      dup2\n      swap1\n      mstore\n      pop\n        /* \"StekcitPlayground.sol\":3106:3238  {... */\n      pop\n        /* \"StekcitPlayground.sol\":3095:3104  eventId++ */\n      dup1\n      dup1\n      tag_58\n      swap1\n      tag_59\n      jump\t// in\n    tag_58:\n      swap2\n      pop\n      pop\n        /* \"StekcitPlayground.sol\":3041:3238  for (uint256 eventId = 0; eventId < countOfAllEvents; eventId++) {... */\n      jump(tag_52)\n    tag_53:\n      pop\n        /* \"StekcitPlayground.sol\":3255:3271  allCreatedEvents */\n      dup1\n        /* \"StekcitPlayground.sol\":3248:3271  return allCreatedEvents */\n      swap3\n      pop\n      pop\n      pop\n        /* \"StekcitPlayground.sol\":2794:3278  function getAllCreatedEvents() public view returns (StekcitEvent[] memory) {... */\n      swap1\n      jump\t// out\n        /* \"StekcitPlayground.sol\":1808:1908  function getNumberOfAllEvents() public view returns (uint256) {... */\n    tag_17:\n        /* \"StekcitPlayground.sol\":1861:1868  uint256 */\n      0x00\n        /* \"StekcitPlayground.sol\":1887:1901  currentEventId */\n      sload(0x01)\n        /* \"StekcitPlayground.sol\":1880:1901  return currentEventId */\n      swap1\n      pop\n        /* \"StekcitPlayground.sol\":1808:1908  function getNumberOfAllEvents() public view returns (uint256) {... */\n      swap1\n      jump\t// out\n        /* \"StekcitPlayground.sol\":852:1010  function getUser(address _walletAddress)... */\n    tag_23:\n        /* \"StekcitPlayground.sol\":938:956  StekcitUser memory */\n      tag_61\n      tag_62\n      jump\t// in\n    tag_61:\n        /* \"StekcitPlayground.sol\":979:987  allUsers */\n      0x02\n        /* \"StekcitPlayground.sol\":979:1003  allUsers[_walletAddress] */\n      0x00\n        /* \"StekcitPlayground.sol\":988:1002  _walletAddress */\n      dup4\n        /* \"StekcitPlayground.sol\":979:1003  allUsers[_walletAddress] */\n      0xffffffffffffffffffffffffffffffffffffffff\n      and\n      0xffffffffffffffffffffffffffffffffffffffff\n      and\n      dup2\n      mstore\n      0x20\n      add\n      swap1\n      dup2\n      mstore\n      0x20\n      add\n      0x00\n      keccak256\n        /* \"StekcitPlayground.sol\":972:1003  return allUsers[_walletAddress] */\n      mload(0x40)\n      dup1\n      0x60\n      add\n      0x40\n      mstore\n      swap1\n      dup2\n      0x00\n      dup3\n      add\n      sload\n      dup2\n      mstore\n      0x20\n      add\n      0x01\n      dup3\n      add\n      0x00\n      swap1\n      sload\n      swap1\n      0x0100\n      exp\n      swap1\n      div\n      0xffffffffffffffffffffffffffffffffffffffff\n      and\n      0xffffffffffffffffffffffffffffffffffffffff\n      and\n      0xffffffffffffffffffffffffffffffffffffffff\n      and\n      dup2\n      mstore\n      0x20\n      add\n      0x02\n      dup3\n      add\n      dup1\n      sload\n      tag_64\n      swap1\n      tag_65\n      jump\t// in\n    tag_64:\n      dup1\n      0x1f\n      add\n      0x20\n      dup1\n      swap2\n      div\n      mul\n      0x20\n      add\n      mload(0x40)\n      swap1\n      dup2\n      add\n      0x40\n      mstore\n      dup1\n      swap3\n      swap2\n      swap1\n      dup2\n      dup2\n      mstore\n      0x20\n      add\n      dup3\n      dup1\n      sload\n      tag_66\n      swap1\n      tag_65\n      jump\t// in\n    tag_66:\n      dup1\n      iszero\n      tag_67\n      jumpi\n      dup1\n      0x1f\n      lt\n      tag_68\n      jumpi\n      0x0100\n      dup1\n      dup4\n      sload\n      div\n      mul\n      dup4\n      mstore\n      swap2\n      0x20\n      add\n      swap2\n      jump(tag_67)\n    tag_68:\n      dup3\n      add\n      swap2\n      swap1\n      0x00\n      mstore\n      keccak256(0x00, 0x20)\n      swap1\n    tag_69:\n      dup2\n      sload\n      dup2\n      mstore\n      swap1\n      0x01\n      add\n      swap1\n      0x20\n      add\n      dup1\n      dup4\n      gt\n      tag_69\n      jumpi\n      dup3\n      swap1\n      sub\n      0x1f\n      and\n      dup3\n      add\n      swap2\n    tag_67:\n      pop\n      pop\n      pop\n      pop\n      pop\n      dup2\n      mstore\n      pop\n      pop\n      swap1\n      pop\n        /* \"StekcitPlayground.sol\":852:1010  function getUser(address _walletAddress)... */\n      swap2\n      swap1\n      pop\n      jump\t// out\n        /* \"StekcitPlayground.sol\":1914:2788  function getEventsOfCreatingUser(address _walletAddress)... */\n    tag_28:\n        /* \"StekcitPlayground.sol\":2016:2037  StekcitEvent[] memory */\n      0x60\n        /* \"StekcitPlayground.sol\":2053:2096  uint256[] storage allEventIdsOfCreatingUser */\n      0x00\n        /* \"StekcitPlayground.sol\":2099:2121  eventIdsOfCreatingUser */\n      0x03\n        /* \"StekcitPlayground.sol\":2099:2159  eventIdsOfCreatingUser[... */\n      0x00\n        /* \"StekcitPlayground.sol\":2135:2149  _walletAddress */\n      dup5\n        /* \"StekcitPlayground.sol\":2099:2159  eventIdsOfCreatingUser[... */\n      0xffffffffffffffffffffffffffffffffffffffff\n      and\n      0xffffffffffffffffffffffffffffffffffffffff\n      and\n      dup2\n      mstore\n      0x20\n      add\n      swap1\n      dup2\n      mstore\n      0x20\n      add\n      0x00\n      keccak256\n        /* \"StekcitPlayground.sol\":2053:2159  uint256[] storage allEventIdsOfCreatingUser = eventIdsOfCreatingUser[... */\n      swap1\n      pop\n        /* \"StekcitPlayground.sol\":2170:2195  uint256 numberOfAllEvents */\n      0x00\n        /* \"StekcitPlayground.sol\":2198:2223  allEventIdsOfCreatingUser */\n      dup2\n        /* \"StekcitPlayground.sol\":2198:2230  allEventIdsOfCreatingUser.length */\n      dup1\n      sload\n      swap1\n      pop\n        /* \"StekcitPlayground.sol\":2170:2230  uint256 numberOfAllEvents = allEventIdsOfCreatingUser.length */\n      swap1\n      pop\n        /* \"StekcitPlayground.sol\":2241:2286  StekcitEvent[] memory allEventsOfCreatingUser */\n      0x00\n        /* \"StekcitPlayground.sol\":2321:2338  numberOfAllEvents */\n      dup2\n        /* \"StekcitPlayground.sol\":2289:2348  new StekcitEvent[](... */\n      0xffffffffffffffff\n      dup2\n      gt\n      iszero\n      tag_71\n      jumpi\n      tag_72\n      tag_47\n      jump\t// in\n    tag_72:\n    tag_71:\n      mload(0x40)\n      swap1\n      dup1\n      dup3\n      mstore\n      dup1\n      0x20\n      mul\n      0x20\n      add\n      dup3\n      add\n      0x40\n      mstore\n      dup1\n      iszero\n      tag_73\n      jumpi\n      dup2\n      0x20\n      add\n    tag_74:\n      tag_75\n      tag_51\n      jump\t// in\n    tag_75:\n      dup2\n      mstore\n      0x20\n      add\n      swap1\n      0x01\n      swap1\n      sub\n      swap1\n      dup2\n      tag_74\n      jumpi\n      swap1\n      pop\n    tag_73:\n      pop\n        /* \"StekcitPlayground.sol\":2241:2348  StekcitEvent[] memory allEventsOfCreatingUser = new StekcitEvent[](... */\n      swap1\n      pop\n        /* \"StekcitPlayground.sol\":2377:2405  uint256 eventIdLocationIndex */\n      0x00\n        /* \"StekcitPlayground.sol\":2359:2741  for (... */\n    tag_76:\n        /* \"StekcitPlayground.sol\":2446:2463  numberOfAllEvents */\n      dup3\n        /* \"StekcitPlayground.sol\":2423:2443  eventIdLocationIndex */\n      dup2\n        /* \"StekcitPlayground.sol\":2423:2463  eventIdLocationIndex < numberOfAllEvents */\n      lt\n        /* \"StekcitPlayground.sol\":2359:2741  for (... */\n      iszero\n      tag_77\n      jumpi\n        /* \"StekcitPlayground.sol\":2524:2539  uint256 eventId */\n      0x00\n        /* \"StekcitPlayground.sol\":2542:2567  allEventIdsOfCreatingUser */\n      dup5\n        /* \"StekcitPlayground.sol\":2568:2588  eventIdLocationIndex */\n      dup3\n        /* \"StekcitPlayground.sol\":2542:2589  allEventIdsOfCreatingUser[eventIdLocationIndex] */\n      dup2\n      sload\n      dup2\n      lt\n      tag_79\n      jumpi\n      tag_80\n      tag_57\n      jump\t// in\n    tag_80:\n    tag_79:\n      swap1\n      0x00\n      mstore\n      keccak256(0x00, 0x20)\n      add\n      sload\n        /* \"StekcitPlayground.sol\":2524:2589  uint256 eventId = allEventIdsOfCreatingUser[eventIdLocationIndex] */\n      swap1\n      pop\n        /* \"StekcitPlayground.sol\":2603:2635  StekcitEvent memory currentEvent */\n      0x00\n        /* \"StekcitPlayground.sol\":2638:2647  allEvents */\n      0x04\n        /* \"StekcitPlayground.sol\":2638:2656  allEvents[eventId] */\n      0x00\n        /* \"StekcitPlayground.sol\":2648:2655  eventId */\n      dup4\n        /* \"StekcitPlayground.sol\":2638:2656  allEvents[eventId] */\n      dup2\n      mstore\n      0x20\n      add\n      swap1\n      dup2\n      mstore\n      0x20\n      add\n      0x00\n      keccak256\n        /* \"StekcitPlayground.sol\":2603:2656  StekcitEvent memory currentEvent = allEvents[eventId] */\n      mload(0x40)\n      dup1\n      0x40\n      add\n      0x40\n      mstore\n      swap1\n      dup2\n      0x00\n      dup3\n      add\n      sload\n      dup2\n      mstore\n      0x20\n      add\n      0x01\n      dup3\n      add\n      0x00\n      swap1\n      sload\n      swap1\n      0x0100\n      exp\n      swap1\n      div\n      0xffffffffffffffffffffffffffffffffffffffff\n      and\n      0xffffffffffffffffffffffffffffffffffffffff\n      and\n      0xffffffffffffffffffffffffffffffffffffffff\n      and\n      dup2\n      mstore\n      pop\n      pop\n      swap1\n      pop\n        /* \"StekcitPlayground.sol\":2718:2730  currentEvent */\n      dup1\n        /* \"StekcitPlayground.sol\":2670:2693  allEventsOfCreatingUser */\n      dup5\n        /* \"StekcitPlayground.sol\":2694:2714  eventIdLocationIndex */\n      dup5\n        /* \"StekcitPlayground.sol\":2670:2715  allEventsOfCreatingUser[eventIdLocationIndex] */\n      dup2\n      mload\n      dup2\n      lt\n      tag_82\n      jumpi\n      tag_83\n      tag_57\n      jump\t// in\n    tag_83:\n    tag_82:\n      0x20\n      mul\n      0x20\n      add\n      add\n        /* \"StekcitPlayground.sol\":2670:2730  allEventsOfCreatingUser[eventIdLocationIndex] = currentEvent */\n      dup2\n      swap1\n      mstore\n      pop\n        /* \"StekcitPlayground.sol\":2510:2741  {... */\n      pop\n      pop\n        /* \"StekcitPlayground.sol\":2477:2499  eventIdLocationIndex++ */\n      dup1\n      dup1\n      tag_84\n      swap1\n      tag_59\n      jump\t// in\n    tag_84:\n      swap2\n      pop\n      pop\n        /* \"StekcitPlayground.sol\":2359:2741  for (... */\n      jump(tag_76)\n    tag_77:\n      pop\n        /* \"StekcitPlayground.sol\":2758:2781  allEventsOfCreatingUser */\n      dup1\n        /* \"StekcitPlayground.sol\":2751:2781  return allEventsOfCreatingUser */\n      swap4\n      pop\n      pop\n      pop\n      pop\n        /* \"StekcitPlayground.sol\":1914:2788  function getEventsOfCreatingUser(address _walletAddress)... */\n      swap2\n      swap1\n      pop\n      jump\t// out\n        /* \"StekcitPlayground.sol\":1290:1802  function createEvent(address _walletAddress) public {... */\n    tag_32:\n        /* \"StekcitPlayground.sol\":1352:1370  uint256 newEventId */\n      0x00\n        /* \"StekcitPlayground.sol\":1373:1387  currentEventId */\n      sload(0x01)\n        /* \"StekcitPlayground.sol\":1352:1387  uint256 newEventId = currentEventId */\n      swap1\n      pop\n        /* \"StekcitPlayground.sol\":1398:1426  StekcitEvent memory newEvent */\n      0x00\n        /* \"StekcitPlayground.sol\":1429:1469  StekcitEvent(newEventId, _walletAddress) */\n      mload(0x40)\n      dup1\n      0x40\n      add\n      0x40\n      mstore\n      dup1\n        /* \"StekcitPlayground.sol\":1442:1452  newEventId */\n      dup4\n        /* \"StekcitPlayground.sol\":1429:1469  StekcitEvent(newEventId, _walletAddress) */\n      dup2\n      mstore\n      0x20\n      add\n        /* \"StekcitPlayground.sol\":1454:1468  _walletAddress */\n      dup5\n        /* \"StekcitPlayground.sol\":1429:1469  StekcitEvent(newEventId, _walletAddress) */\n      0xffffffffffffffffffffffffffffffffffffffff\n      and\n      dup2\n      mstore\n      pop\n        /* \"StekcitPlayground.sol\":1398:1469  StekcitEvent memory newEvent = StekcitEvent(newEventId, _walletAddress) */\n      swap1\n      pop\n        /* \"StekcitPlayground.sol\":1504:1512  newEvent */\n      dup1\n        /* \"StekcitPlayground.sol\":1480:1489  allEvents */\n      0x04\n        /* \"StekcitPlayground.sol\":1480:1501  allEvents[newEventId] */\n      0x00\n        /* \"StekcitPlayground.sol\":1490:1500  newEventId */\n      dup5\n        /* \"StekcitPlayground.sol\":1480:1501  allEvents[newEventId] */\n      dup2\n      mstore\n      0x20\n      add\n      swap1\n      dup2\n      mstore\n      0x20\n      add\n      0x00\n      keccak256\n        /* \"StekcitPlayground.sol\":1480:1512  allEvents[newEventId] = newEvent */\n      0x00\n      dup3\n      add\n      mload\n      dup2\n      0x00\n      add\n      sstore\n      0x20\n      dup3\n      add\n      mload\n      dup2\n      0x01\n      add\n      exp(0x0100, 0x00)\n      dup2\n      sload\n      dup2\n      0xffffffffffffffffffffffffffffffffffffffff\n      mul\n      not\n      and\n      swap1\n      dup4\n      0xffffffffffffffffffffffffffffffffffffffff\n      and\n      mul\n      or\n      swap1\n      sstore\n      pop\n      swap1\n      pop\n      pop\n        /* \"StekcitPlayground.sol\":1523:1569  uint256[] storage latestEventIdsOfCreatingUser */\n      0x00\n        /* \"StekcitPlayground.sol\":1572:1594  eventIdsOfCreatingUser */\n      0x03\n        /* \"StekcitPlayground.sol\":1572:1632  eventIdsOfCreatingUser[... */\n      0x00\n        /* \"StekcitPlayground.sol\":1608:1622  _walletAddress */\n      dup6\n        /* \"StekcitPlayground.sol\":1572:1632  eventIdsOfCreatingUser[... */\n      0xffffffffffffffffffffffffffffffffffffffff\n      and\n      0xffffffffffffffffffffffffffffffffffffffff\n      and\n      dup2\n      mstore\n      0x20\n      add\n      swap1\n      dup2\n      mstore\n      0x20\n      add\n      0x00\n      keccak256\n        /* \"StekcitPlayground.sol\":1523:1632  uint256[] storage latestEventIdsOfCreatingUser = eventIdsOfCreatingUser[... */\n      swap1\n      pop\n        /* \"StekcitPlayground.sol\":1643:1671  latestEventIdsOfCreatingUser */\n      dup1\n        /* \"StekcitPlayground.sol\":1677:1687  newEventId */\n      dup4\n        /* \"StekcitPlayground.sol\":1643:1688  latestEventIdsOfCreatingUser.push(newEventId) */\n      swap1\n      dup1\n      0x01\n      dup2\n      sload\n      add\n      dup1\n      dup3\n      sstore\n      dup1\n      swap2\n      pop\n      pop\n      0x01\n      swap1\n      sub\n      swap1\n      0x00\n      mstore\n      keccak256(0x00, 0x20)\n      add\n      0x00\n      swap1\n      swap2\n      swap1\n      swap2\n      swap1\n      swap2\n      pop\n      sstore\n        /* \"StekcitPlayground.sol\":1740:1768  latestEventIdsOfCreatingUser */\n      dup1\n        /* \"StekcitPlayground.sol\":1699:1721  eventIdsOfCreatingUser */\n      0x03\n        /* \"StekcitPlayground.sol\":1699:1737  eventIdsOfCreatingUser[_walletAddress] */\n      0x00\n        /* \"StekcitPlayground.sol\":1722:1736  _walletAddress */\n      dup7\n        /* \"StekcitPlayground.sol\":1699:1737  eventIdsOfCreatingUser[_walletAddress] */\n      0xffffffffffffffffffffffffffffffffffffffff\n      and\n      0xffffffffffffffffffffffffffffffffffffffff\n      and\n      dup2\n      mstore\n      0x20\n      add\n      swap1\n      dup2\n      mstore\n      0x20\n      add\n      0x00\n      keccak256\n        /* \"StekcitPlayground.sol\":1699:1768  eventIdsOfCreatingUser[_walletAddress] = latestEventIdsOfCreatingUser */\n      swap1\n      dup1\n      sload\n      tag_87\n      swap3\n      swap2\n      swap1\n      tag_88\n      jump\t// in\n    tag_87:\n      pop\n        /* \"StekcitPlayground.sol\":1779:1793  currentEventId */\n      0x01\n      0x00\n        /* \"StekcitPlayground.sol\":1779:1795  currentEventId++ */\n      dup2\n      sload\n      dup1\n      swap3\n      swap2\n      swap1\n      tag_89\n      swap1\n      tag_59\n      jump\t// in\n    tag_89:\n      swap2\n      swap1\n      pop\n      sstore\n      pop\n        /* \"StekcitPlayground.sol\":1342:1802  {... */\n      pop\n      pop\n      pop\n        /* \"StekcitPlayground.sol\":1290:1802  function createEvent(address _walletAddress) public {... */\n      pop\n      jump\t// out\n        /* \"StekcitPlayground.sol\":1016:1284  function updateUser(address _walletAddress, string memory newUsername)... */\n    tag_36:\n        /* \"StekcitPlayground.sol\":1116:1150  StekcitUser memory userToBeUpdated */\n      0x00\n        /* \"StekcitPlayground.sol\":1153:1161  allUsers */\n      0x02\n        /* \"StekcitPlayground.sol\":1153:1177  allUsers[_walletAddress] */\n      0x00\n        /* \"StekcitPlayground.sol\":1162:1176  _walletAddress */\n      dup5\n        /* \"StekcitPlayground.sol\":1153:1177  allUsers[_walletAddress] */\n      0xffffffffffffffffffffffffffffffffffffffff\n      and\n      0xffffffffffffffffffffffffffffffffffffffff\n      and\n      dup2\n      mstore\n      0x20\n      add\n      swap1\n      dup2\n      mstore\n      0x20\n      add\n      0x00\n      keccak256\n        /* \"StekcitPlayground.sol\":1116:1177  StekcitUser memory userToBeUpdated = allUsers[_walletAddress] */\n      mload(0x40)\n      dup1\n      0x60\n      add\n      0x40\n      mstore\n      swap1\n      dup2\n      0x00\n      dup3\n      add\n      sload\n      dup2\n      mstore\n      0x20\n      add\n      0x01\n      dup3\n      add\n      0x00\n      swap1\n      sload\n      swap1\n      0x0100\n      exp\n      swap1\n      div\n      0xffffffffffffffffffffffffffffffffffffffff\n      and\n      0xffffffffffffffffffffffffffffffffffffffff\n      and\n      0xffffffffffffffffffffffffffffffffffffffff\n      and\n      dup2\n      mstore\n      0x20\n      add\n      0x02\n      dup3\n      add\n      dup1\n      sload\n      tag_91\n      swap1\n      tag_65\n      jump\t// in\n    tag_91:\n      dup1\n      0x1f\n      add\n      0x20\n      dup1\n      swap2\n      div\n      mul\n      0x20\n      add\n      mload(0x40)\n      swap1\n      dup2\n      add\n      0x40\n      mstore\n      dup1\n      swap3\n      swap2\n      swap1\n      dup2\n      dup2\n      mstore\n      0x20\n      add\n      dup3\n      dup1\n      sload\n      tag_92\n      swap1\n      tag_65\n      jump\t// in\n    tag_92:\n      dup1\n      iszero\n      tag_93\n      jumpi\n      dup1\n      0x1f\n      lt\n      tag_94\n      jumpi\n      0x0100\n      dup1\n      dup4\n      sload\n      div\n      mul\n      dup4\n      mstore\n      swap2\n      0x20\n      add\n      swap2\n      jump(tag_93)\n    tag_94:\n      dup3\n      add\n      swap2\n      swap1\n      0x00\n      mstore\n      keccak256(0x00, 0x20)\n      swap1\n    tag_95:\n      dup2\n      sload\n      dup2\n      mstore\n      swap1\n      0x01\n      add\n      swap1\n      0x20\n      add\n      dup1\n      dup4\n      gt\n      tag_95\n      jumpi\n      dup3\n      swap1\n      sub\n      0x1f\n      and\n      dup3\n      add\n      swap2\n    tag_93:\n      pop\n      pop\n      pop\n      pop\n      pop\n      dup2\n      mstore\n      pop\n      pop\n      swap1\n      pop\n        /* \"StekcitPlayground.sol\":1214:1225  newUsername */\n      dup2\n        /* \"StekcitPlayground.sol\":1187:1202  userToBeUpdated */\n      dup2\n        /* \"StekcitPlayground.sol\":1187:1211  userToBeUpdated.username */\n      0x40\n      add\n        /* \"StekcitPlayground.sol\":1187:1225  userToBeUpdated.username = newUsername */\n      dup2\n      swap1\n      mstore\n      pop\n        /* \"StekcitPlayground.sol\":1262:1277  userToBeUpdated */\n      dup1\n        /* \"StekcitPlayground.sol\":1235:1243  allUsers */\n      0x02\n        /* \"StekcitPlayground.sol\":1235:1259  allUsers[_walletAddress] */\n      0x00\n        /* \"StekcitPlayground.sol\":1244:1258  _walletAddress */\n      dup6\n        /* \"StekcitPlayground.sol\":1235:1259  allUsers[_walletAddress] */\n      0xffffffffffffffffffffffffffffffffffffffff\n      and\n      0xffffffffffffffffffffffffffffffffffffffff\n      and\n      dup2\n      mstore\n      0x20\n      add\n      swap1\n      dup2\n      mstore\n      0x20\n      add\n      0x00\n      keccak256\n        /* \"StekcitPlayground.sol\":1235:1277  allUsers[_walletAddress] = userToBeUpdated */\n      0x00\n      dup3\n      add\n      mload\n      dup2\n      0x00\n      add\n      sstore\n      0x20\n      dup3\n      add\n      mload\n      dup2\n      0x01\n      add\n      exp(0x0100, 0x00)\n      dup2\n      sload\n      dup2\n      0xffffffffffffffffffffffffffffffffffffffff\n      mul\n      not\n      and\n      swap1\n      dup4\n      0xffffffffffffffffffffffffffffffffffffffff\n      and\n      mul\n      or\n      swap1\n      sstore\n      pop\n      0x40\n      dup3\n      add\n      mload\n      dup2\n      0x02\n      add\n      swap1\n      dup2\n      tag_96\n      swap2\n      swap1\n      tag_97\n      jump\t// in\n    tag_96:\n      pop\n      swap1\n      pop\n      pop\n        /* \"StekcitPlayground.sol\":1106:1284  {... */\n      pop\n        /* \"StekcitPlayground.sol\":1016:1284  function updateUser(address _walletAddress, string memory newUsername)... */\n      pop\n      pop\n      jump\t// out\n        /* \"StekcitPlayground.sol\":3307:3776  function getAllUsers() public view returns (StekcitUser[] memory) {... */\n    tag_38:\n        /* \"StekcitPlayground.sol\":3351:3371  StekcitUser[] memory */\n      0x60\n        /* \"StekcitPlayground.sol\":3383:3406  uint256 countOfAllUsers */\n      0x00\n        /* \"StekcitPlayground.sol\":3409:3422  currentUserId */\n      dup1\n      sload\n        /* \"StekcitPlayground.sol\":3383:3422  uint256 countOfAllUsers = currentUserId */\n      swap1\n      pop\n        /* \"StekcitPlayground.sol\":3433:3469  StekcitUser[] memory allCreatedUsers */\n      0x00\n        /* \"StekcitPlayground.sol\":3503:3518  countOfAllUsers */\n      dup2\n        /* \"StekcitPlayground.sol\":3472:3528  new StekcitUser[](... */\n      0xffffffffffffffff\n      dup2\n      gt\n      iszero\n      tag_99\n      jumpi\n      tag_100\n      tag_47\n      jump\t// in\n    tag_100:\n    tag_99:\n      mload(0x40)\n      swap1\n      dup1\n      dup3\n      mstore\n      dup1\n      0x20\n      mul\n      0x20\n      add\n      dup3\n      add\n      0x40\n      mstore\n      dup1\n      iszero\n      tag_101\n      jumpi\n      dup2\n      0x20\n      add\n    tag_102:\n      tag_103\n      tag_62\n      jump\t// in\n    tag_103:\n      dup2\n      mstore\n      0x20\n      add\n      swap1\n      0x01\n      swap1\n      sub\n      swap1\n      dup2\n      tag_102\n      jumpi\n      swap1\n      pop\n    tag_101:\n      pop\n        /* \"StekcitPlayground.sol\":3433:3528  StekcitUser[] memory allCreatedUsers = new StekcitUser[](... */\n      swap1\n      pop\n        /* \"StekcitPlayground.sol\":3754:3769  allCreatedUsers */\n      dup1\n        /* \"StekcitPlayground.sol\":3747:3769  return allCreatedUsers */\n      swap3\n      pop\n      pop\n      pop\n        /* \"StekcitPlayground.sol\":3307:3776  function getAllUsers() public view returns (StekcitUser[] memory) {... */\n      swap1\n      jump\t// out\n        /* \"StekcitPlayground.sol\":516:846  function createUser(address _walletAddress, string memory username) public {... */\n    tag_43:\n        /* \"StekcitPlayground.sol\":601:618  uint256 newUserId */\n      0x00\n        /* \"StekcitPlayground.sol\":621:634  currentUserId */\n      dup1\n      sload\n        /* \"StekcitPlayground.sol\":601:634  uint256 newUserId = currentUserId */\n      swap1\n      pop\n        /* \"StekcitPlayground.sol\":645:671  StekcitUser memory newUser */\n      0x00\n        /* \"StekcitPlayground.sol\":674:768  StekcitUser(... */\n      mload(0x40)\n      dup1\n      0x60\n      add\n      0x40\n      mstore\n      dup1\n        /* \"StekcitPlayground.sol\":699:708  newUserId */\n      dup4\n        /* \"StekcitPlayground.sol\":674:768  StekcitUser(... */\n      dup2\n      mstore\n      0x20\n      add\n        /* \"StekcitPlayground.sol\":722:736  _walletAddress */\n      dup6\n        /* \"StekcitPlayground.sol\":674:768  StekcitUser(... */\n      0xffffffffffffffffffffffffffffffffffffffff\n      and\n      dup2\n      mstore\n      0x20\n      add\n        /* \"StekcitPlayground.sol\":750:758  username */\n      dup5\n        /* \"StekcitPlayground.sol\":674:768  StekcitUser(... */\n      dup2\n      mstore\n      pop\n        /* \"StekcitPlayground.sol\":645:768  StekcitUser memory newUser = StekcitUser(... */\n      swap1\n      pop\n        /* \"StekcitPlayground.sol\":806:813  newUser */\n      dup1\n        /* \"StekcitPlayground.sol\":779:787  allUsers */\n      0x02\n        /* \"StekcitPlayground.sol\":779:803  allUsers[_walletAddress] */\n      0x00\n        /* \"StekcitPlayground.sol\":788:802  _walletAddress */\n      dup7\n        /* \"StekcitPlayground.sol\":779:803  allUsers[_walletAddress] */\n      0xffffffffffffffffffffffffffffffffffffffff\n      and\n      0xffffffffffffffffffffffffffffffffffffffff\n      and\n      dup2\n      mstore\n      0x20\n      add\n      swap1\n      dup2\n      mstore\n      0x20\n      add\n      0x00\n      keccak256\n        /* \"StekcitPlayground.sol\":779:813  allUsers[_walletAddress] = newUser */\n      0x00\n      dup3\n      add\n      mload\n      dup2\n      0x00\n      add\n      sstore\n      0x20\n      dup3\n      add\n      mload\n      dup2\n      0x01\n      add\n      exp(0x0100, 0x00)\n      dup2\n      sload\n      dup2\n      0xffffffffffffffffffffffffffffffffffffffff\n      mul\n      not\n      and\n      swap1\n      dup4\n      0xffffffffffffffffffffffffffffffffffffffff\n      and\n      mul\n      or\n      swap1\n      sstore\n      pop\n      0x40\n      dup3\n      add\n      mload\n      dup2\n      0x02\n      add\n      swap1\n      dup2\n      tag_105\n      swap2\n      swap1\n      tag_97\n      jump\t// in\n    tag_105:\n      pop\n      swap1\n      pop\n      pop\n        /* \"StekcitPlayground.sol\":824:837  currentUserId */\n      0x00\n      dup1\n        /* \"StekcitPlayground.sol\":824:839  currentUserId++ */\n      dup2\n      sload\n      dup1\n      swap3\n      swap2\n      swap1\n      tag_106\n      swap1\n      tag_59\n      jump\t// in\n    tag_106:\n      swap2\n      swap1\n      pop\n      sstore\n      pop\n        /* \"StekcitPlayground.sol\":591:846  {... */\n      pop\n      pop\n        /* \"StekcitPlayground.sol\":516:846  function createUser(address _walletAddress, string memory username) public {... */\n      pop\n      pop\n      jump\t// out\n    tag_51:\n      mload(0x40)\n      dup1\n      0x40\n      add\n      0x40\n      mstore\n      dup1\n      0x00\n      dup2\n      mstore\n      0x20\n      add\n      and(0xffffffffffffffffffffffffffffffffffffffff, 0x00)\n      dup2\n      mstore\n      pop\n      swap1\n      jump\t// out\n    tag_62:\n      mload(0x40)\n      dup1\n      0x60\n      add\n      0x40\n      mstore\n      dup1\n      0x00\n      dup2\n      mstore\n      0x20\n      add\n      and(0xffffffffffffffffffffffffffffffffffffffff, 0x00)\n      dup2\n      mstore\n      0x20\n      add\n      0x60\n      dup2\n      mstore\n      pop\n      swap1\n      jump\t// out\n    tag_88:\n      dup3\n      dup1\n      sload\n      dup3\n      dup3\n      sstore\n      swap1\n      0x00\n      mstore\n      keccak256(0x00, 0x20)\n      swap1\n      dup2\n      add\n      swap3\n      dup3\n      iszero\n      tag_107\n      jumpi\n      0x00\n      mstore\n      keccak256(0x00, 0x20)\n      swap2\n      dup3\n      add\n    tag_108:\n      dup3\n      dup2\n      gt\n      iszero\n      tag_109\n      jumpi\n      dup3\n      sload\n      dup3\n      sstore\n      swap2\n      0x01\n      add\n      swap2\n      swap1\n      0x01\n      add\n      swap1\n      jump(tag_108)\n    tag_109:\n    tag_107:\n      pop\n      swap1\n      pop\n      tag_110\n      swap2\n      swap1\n      tag_111\n      jump\t// in\n    tag_110:\n      pop\n      swap1\n      jump\t// out\n    tag_111:\n    tag_112:\n      dup1\n      dup3\n      gt\n      iszero\n      tag_113\n      jumpi\n      0x00\n      dup2\n      0x00\n      swap1\n      sstore\n      pop\n      0x01\n      add\n      jump(tag_112)\n    tag_113:\n      pop\n      swap1\n      jump\t// out\n        /* \"#utility.yul\":7:149   */\n    tag_114:\n        /* \"#utility.yul\":102:108   */\n      0x00\n        /* \"#utility.yul\":136:141   */\n      dup2\n        /* \"#utility.yul\":130:142   */\n      mload\n        /* \"#utility.yul\":120:142   */\n      swap1\n      pop\n        /* \"#utility.yul\":7:149   */\n      swap2\n      swap1\n      pop\n      jump\t// out\n        /* \"#utility.yul\":155:367   */\n    tag_115:\n        /* \"#utility.yul\":282:293   */\n      0x00\n        /* \"#utility.yul\":316:322   */\n      dup3\n        /* \"#utility.yul\":311:314   */\n      dup3\n        /* \"#utility.yul\":304:323   */\n      mstore\n        /* \"#utility.yul\":356:360   */\n      0x20\n        /* \"#utility.yul\":351:354   */\n      dup3\n        /* \"#utility.yul\":347:361   */\n      add\n        /* \"#utility.yul\":332:361   */\n      swap1\n      pop\n        /* \"#utility.yul\":155:367   */\n      swap3\n      swap2\n      pop\n      pop\n      jump\t// out\n        /* \"#utility.yul\":373:533   */\n    tag_116:\n        /* \"#utility.yul\":468:472   */\n      0x00\n        /* \"#utility.yul\":491:494   */\n      dup2\n        /* \"#utility.yul\":483:494   */\n      swap1\n      pop\n        /* \"#utility.yul\":521:525   */\n      0x20\n        /* \"#utility.yul\":516:519   */\n      dup3\n        /* \"#utility.yul\":512:526   */\n      add\n        /* \"#utility.yul\":504:526   */\n      swap1\n      pop\n        /* \"#utility.yul\":373:533   */\n      swap2\n      swap1\n      pop\n      jump\t// out\n        /* \"#utility.yul\":539:616   */\n    tag_117:\n        /* \"#utility.yul\":576:583   */\n      0x00\n        /* \"#utility.yul\":605:610   */\n      dup2\n        /* \"#utility.yul\":594:610   */\n      swap1\n      pop\n        /* \"#utility.yul\":539:616   */\n      swap2\n      swap1\n      pop\n      jump\t// out\n        /* \"#utility.yul\":622:730   */\n    tag_118:\n        /* \"#utility.yul\":699:723   */\n      tag_176\n        /* \"#utility.yul\":717:722   */\n      dup2\n        /* \"#utility.yul\":699:723   */\n      tag_117\n      jump\t// in\n    tag_176:\n        /* \"#utility.yul\":694:697   */\n      dup3\n        /* \"#utility.yul\":687:724   */\n      mstore\n        /* \"#utility.yul\":622:730   */\n      pop\n      pop\n      jump\t// out\n        /* \"#utility.yul\":736:862   */\n    tag_119:\n        /* \"#utility.yul\":773:780   */\n      0x00\n        /* \"#utility.yul\":813:855   */\n      0xffffffffffffffffffffffffffffffffffffffff\n        /* \"#utility.yul\":806:811   */\n      dup3\n        /* \"#utility.yul\":802:856   */\n      and\n        /* \"#utility.yul\":791:856   */\n      swap1\n      pop\n        /* \"#utility.yul\":736:862   */\n      swap2\n      swap1\n      pop\n      jump\t// out\n        /* \"#utility.yul\":868:964   */\n    tag_120:\n        /* \"#utility.yul\":905:912   */\n      0x00\n        /* \"#utility.yul\":934:958   */\n      tag_179\n        /* \"#utility.yul\":952:957   */\n      dup3\n        /* \"#utility.yul\":934:958   */\n      tag_119\n      jump\t// in\n    tag_179:\n        /* \"#utility.yul\":923:958   */\n      swap1\n      pop\n        /* \"#utility.yul\":868:964   */\n      swap2\n      swap1\n      pop\n      jump\t// out\n        /* \"#utility.yul\":970:1078   */\n    tag_121:\n        /* \"#utility.yul\":1047:1071   */\n      tag_181\n        /* \"#utility.yul\":1065:1070   */\n      dup2\n        /* \"#utility.yul\":1047:1071   */\n      tag_120\n      jump\t// in\n    tag_181:\n        /* \"#utility.yul\":1042:1045   */\n      dup3\n        /* \"#utility.yul\":1035:1072   */\n      mstore\n        /* \"#utility.yul\":970:1078   */\n      pop\n      pop\n      jump\t// out\n        /* \"#utility.yul\":1170:1692   */\n    tag_122:\n        /* \"#utility.yul\":1313:1317   */\n      0x40\n        /* \"#utility.yul\":1308:1311   */\n      dup3\n        /* \"#utility.yul\":1304:1318   */\n      add\n        /* \"#utility.yul\":1398:1402   */\n      0x00\n        /* \"#utility.yul\":1391:1396   */\n      dup3\n        /* \"#utility.yul\":1387:1403   */\n      add\n        /* \"#utility.yul\":1381:1404   */\n      mload\n        /* \"#utility.yul\":1417:1480   */\n      tag_183\n        /* \"#utility.yul\":1474:1478   */\n      0x00\n        /* \"#utility.yul\":1469:1472   */\n      dup6\n        /* \"#utility.yul\":1465:1479   */\n      add\n        /* \"#utility.yul\":1451:1463   */\n      dup3\n        /* \"#utility.yul\":1417:1480   */\n      tag_118\n      jump\t// in\n    tag_183:\n        /* \"#utility.yul\":1328:1490   */\n      pop\n        /* \"#utility.yul\":1593:1597   */\n      0x20\n        /* \"#utility.yul\":1586:1591   */\n      dup3\n        /* \"#utility.yul\":1582:1598   */\n      add\n        /* \"#utility.yul\":1576:1599   */\n      mload\n        /* \"#utility.yul\":1612:1675   */\n      tag_184\n        /* \"#utility.yul\":1669:1673   */\n      0x20\n        /* \"#utility.yul\":1664:1667   */\n      dup6\n        /* \"#utility.yul\":1660:1674   */\n      add\n        /* \"#utility.yul\":1646:1658   */\n      dup3\n        /* \"#utility.yul\":1612:1675   */\n      tag_121\n      jump\t// in\n    tag_184:\n        /* \"#utility.yul\":1500:1685   */\n      pop\n        /* \"#utility.yul\":1282:1692   */\n      pop\n        /* \"#utility.yul\":1170:1692   */\n      pop\n      pop\n      jump\t// out\n        /* \"#utility.yul\":1698:1989   */\n    tag_123:\n        /* \"#utility.yul\":1823:1833   */\n      0x00\n        /* \"#utility.yul\":1844:1946   */\n      tag_186\n        /* \"#utility.yul\":1942:1945   */\n      dup4\n        /* \"#utility.yul\":1934:1940   */\n      dup4\n        /* \"#utility.yul\":1844:1946   */\n      tag_122\n      jump\t// in\n    tag_186:\n        /* \"#utility.yul\":1978:1982   */\n      0x40\n        /* \"#utility.yul\":1973:1976   */\n      dup4\n        /* \"#utility.yul\":1969:1983   */\n      add\n        /* \"#utility.yul\":1955:1983   */\n      swap1\n      pop\n        /* \"#utility.yul\":1698:1989   */\n      swap3\n      swap2\n      pop\n      pop\n      jump\t// out\n        /* \"#utility.yul\":1995:2136   */\n    tag_124:\n        /* \"#utility.yul\":2093:2097   */\n      0x00\n        /* \"#utility.yul\":2125:2129   */\n      0x20\n        /* \"#utility.yul\":2120:2123   */\n      dup3\n        /* \"#utility.yul\":2116:2130   */\n      add\n        /* \"#utility.yul\":2108:2130   */\n      swap1\n      pop\n        /* \"#utility.yul\":1995:2136   */\n      swap2\n      swap1\n      pop\n      jump\t// out\n        /* \"#utility.yul\":2232:3188   */\n    tag_125:\n        /* \"#utility.yul\":2407:2410   */\n      0x00\n        /* \"#utility.yul\":2436:2518   */\n      tag_189\n        /* \"#utility.yul\":2512:2517   */\n      dup3\n        /* \"#utility.yul\":2436:2518   */\n      tag_114\n      jump\t// in\n    tag_189:\n        /* \"#utility.yul\":2534:2648   */\n      tag_190\n        /* \"#utility.yul\":2641:2647   */\n      dup2\n        /* \"#utility.yul\":2636:2639   */\n      dup6\n        /* \"#utility.yul\":2534:2648   */\n      tag_115\n      jump\t// in\n    tag_190:\n        /* \"#utility.yul\":2527:2648   */\n      swap4\n      pop\n        /* \"#utility.yul\":2672:2756   */\n      tag_191\n        /* \"#utility.yul\":2750:2755   */\n      dup4\n        /* \"#utility.yul\":2672:2756   */\n      tag_116\n      jump\t// in\n    tag_191:\n        /* \"#utility.yul\":2779:2786   */\n      dup1\n        /* \"#utility.yul\":2810:2811   */\n      0x00\n        /* \"#utility.yul\":2795:3163   */\n    tag_192:\n        /* \"#utility.yul\":2820:2826   */\n      dup4\n        /* \"#utility.yul\":2817:2818   */\n      dup2\n        /* \"#utility.yul\":2814:2827   */\n      lt\n        /* \"#utility.yul\":2795:3163   */\n      iszero\n      tag_194\n      jumpi\n        /* \"#utility.yul\":2896:2902   */\n      dup2\n        /* \"#utility.yul\":2890:2903   */\n      mload\n        /* \"#utility.yul\":2923:3042   */\n      tag_195\n        /* \"#utility.yul\":3038:3041   */\n      dup9\n        /* \"#utility.yul\":3023:3036   */\n      dup3\n        /* \"#utility.yul\":2923:3042   */\n      tag_123\n      jump\t// in\n    tag_195:\n        /* \"#utility.yul\":2916:3042   */\n      swap8\n      pop\n        /* \"#utility.yul\":3065:3153   */\n      tag_196\n        /* \"#utility.yul\":3146:3152   */\n      dup4\n        /* \"#utility.yul\":3065:3153   */\n      tag_124\n      jump\t// in\n    tag_196:\n        /* \"#utility.yul\":3055:3153   */\n      swap3\n      pop\n        /* \"#utility.yul\":2855:3163   */\n      pop\n        /* \"#utility.yul\":2842:2843   */\n      0x01\n        /* \"#utility.yul\":2839:2840   */\n      dup2\n        /* \"#utility.yul\":2835:2844   */\n      add\n        /* \"#utility.yul\":2830:2844   */\n      swap1\n      pop\n        /* \"#utility.yul\":2795:3163   */\n      jump(tag_192)\n    tag_194:\n        /* \"#utility.yul\":2799:2813   */\n      pop\n        /* \"#utility.yul\":3179:3182   */\n      dup6\n        /* \"#utility.yul\":3172:3182   */\n      swap4\n      pop\n        /* \"#utility.yul\":2412:3188   */\n      pop\n      pop\n      pop\n        /* \"#utility.yul\":2232:3188   */\n      swap3\n      swap2\n      pop\n      pop\n      jump\t// out\n        /* \"#utility.yul\":3194:3679   */\n    tag_15:\n        /* \"#utility.yul\":3393:3397   */\n      0x00\n        /* \"#utility.yul\":3431:3433   */\n      0x20\n        /* \"#utility.yul\":3420:3429   */\n      dup3\n        /* \"#utility.yul\":3416:3434   */\n      add\n        /* \"#utility.yul\":3408:3434   */\n      swap1\n      pop\n        /* \"#utility.yul\":3480:3489   */\n      dup2\n        /* \"#utility.yul\":3474:3478   */\n      dup2\n        /* \"#utility.yul\":3470:3490   */\n      sub\n        /* \"#utility.yul\":3466:3467   */\n      0x00\n        /* \"#utility.yul\":3455:3464   */\n      dup4\n        /* \"#utility.yul\":3451:3468   */\n      add\n        /* \"#utility.yul\":3444:3491   */\n      mstore\n        /* \"#utility.yul\":3508:3672   */\n      tag_198\n        /* \"#utility.yul\":3667:3671   */\n      dup2\n        /* \"#utility.yul\":3658:3664   */\n      dup5\n        /* \"#utility.yul\":3508:3672   */\n      tag_125\n      jump\t// in\n    tag_198:\n        /* \"#utility.yul\":3500:3672   */\n      swap1\n      pop\n        /* \"#utility.yul\":3194:3679   */\n      swap3\n      swap2\n      pop\n      pop\n      jump\t// out\n        /* \"#utility.yul\":3685:3803   */\n    tag_126:\n        /* \"#utility.yul\":3772:3796   */\n      tag_200\n        /* \"#utility.yul\":3790:3795   */\n      dup2\n        /* \"#utility.yul\":3772:3796   */\n      tag_117\n      jump\t// in\n    tag_200:\n        /* \"#utility.yul\":3767:3770   */\n      dup3\n        /* \"#utility.yul\":3760:3797   */\n      mstore\n        /* \"#utility.yul\":3685:3803   */\n      pop\n      pop\n      jump\t// out\n        /* \"#utility.yul\":3809:4031   */\n    tag_19:\n        /* \"#utility.yul\":3902:3906   */\n      0x00\n        /* \"#utility.yul\":3940:3942   */\n      0x20\n        /* \"#utility.yul\":3929:3938   */\n      dup3\n        /* \"#utility.yul\":3925:3943   */\n      add\n        /* \"#utility.yul\":3917:3943   */\n      swap1\n      pop\n        /* \"#utility.yul\":3953:4024   */\n      tag_202\n        /* \"#utility.yul\":4021:4022   */\n      0x00\n        /* \"#utility.yul\":4010:4019   */\n      dup4\n        /* \"#utility.yul\":4006:4023   */\n      add\n        /* \"#utility.yul\":3997:4003   */\n      dup5\n        /* \"#utility.yul\":3953:4024   */\n      tag_126\n      jump\t// in\n    tag_202:\n        /* \"#utility.yul\":3809:4031   */\n      swap3\n      swap2\n      pop\n      pop\n      jump\t// out\n        /* \"#utility.yul\":4037:4112   */\n    tag_127:\n        /* \"#utility.yul\":4070:4076   */\n      0x00\n        /* \"#utility.yul\":4103:4105   */\n      0x40\n        /* \"#utility.yul\":4097:4106   */\n      mload\n        /* \"#utility.yul\":4087:4106   */\n      swap1\n      pop\n        /* \"#utility.yul\":4037:4112   */\n      swap1\n      jump\t// out\n        /* \"#utility.yul\":4118:4235   */\n    tag_128:\n        /* \"#utility.yul\":4227:4228   */\n      0x00\n        /* \"#utility.yul\":4224:4225   */\n      dup1\n        /* \"#utility.yul\":4217:4229   */\n      revert\n        /* \"#utility.yul\":4241:4358   */\n    tag_129:\n        /* \"#utility.yul\":4350:4351   */\n      0x00\n        /* \"#utility.yul\":4347:4348   */\n      dup1\n        /* \"#utility.yul\":4340:4352   */\n      revert\n        /* \"#utility.yul\":4364:4486   */\n    tag_130:\n        /* \"#utility.yul\":4437:4461   */\n      tag_207\n        /* \"#utility.yul\":4455:4460   */\n      dup2\n        /* \"#utility.yul\":4437:4461   */\n      tag_120\n      jump\t// in\n    tag_207:\n        /* \"#utility.yul\":4430:4435   */\n      dup2\n        /* \"#utility.yul\":4427:4462   */\n      eq\n        /* \"#utility.yul\":4417:4480   */\n      tag_208\n      jumpi\n        /* \"#utility.yul\":4476:4477   */\n      0x00\n        /* \"#utility.yul\":4473:4474   */\n      dup1\n        /* \"#utility.yul\":4466:4478   */\n      revert\n        /* \"#utility.yul\":4417:4480   */\n    tag_208:\n        /* \"#utility.yul\":4364:4486   */\n      pop\n      jump\t// out\n        /* \"#utility.yul\":4492:4631   */\n    tag_131:\n        /* \"#utility.yul\":4538:4543   */\n      0x00\n        /* \"#utility.yul\":4576:4582   */\n      dup2\n        /* \"#utility.yul\":4563:4583   */\n      calldataload\n        /* \"#utility.yul\":4554:4583   */\n      swap1\n      pop\n        /* \"#utility.yul\":4592:4625   */\n      tag_210\n        /* \"#utility.yul\":4619:4624   */\n      dup2\n        /* \"#utility.yul\":4592:4625   */\n      tag_130\n      jump\t// in\n    tag_210:\n        /* \"#utility.yul\":4492:4631   */\n      swap3\n      swap2\n      pop\n      pop\n      jump\t// out\n        /* \"#utility.yul\":4637:4966   */\n    tag_22:\n        /* \"#utility.yul\":4696:4702   */\n      0x00\n        /* \"#utility.yul\":4745:4747   */\n      0x20\n        /* \"#utility.yul\":4733:4742   */\n      dup3\n        /* \"#utility.yul\":4724:4731   */\n      dup5\n        /* \"#utility.yul\":4720:4743   */\n      sub\n        /* \"#utility.yul\":4716:4748   */\n      slt\n        /* \"#utility.yul\":4713:4832   */\n      iszero\n      tag_212\n      jumpi\n        /* \"#utility.yul\":4751:4830   */\n      tag_213\n      tag_128\n      jump\t// in\n    tag_213:\n        /* \"#utility.yul\":4713:4832   */\n    tag_212:\n        /* \"#utility.yul\":4871:4872   */\n      0x00\n        /* \"#utility.yul\":4896:4949   */\n      tag_214\n        /* \"#utility.yul\":4941:4948   */\n      dup5\n        /* \"#utility.yul\":4932:4938   */\n      dup3\n        /* \"#utility.yul\":4921:4930   */\n      dup6\n        /* \"#utility.yul\":4917:4939   */\n      add\n        /* \"#utility.yul\":4896:4949   */\n      tag_131\n      jump\t// in\n    tag_214:\n        /* \"#utility.yul\":4886:4949   */\n      swap2\n      pop\n        /* \"#utility.yul\":4842:4959   */\n      pop\n        /* \"#utility.yul\":4637:4966   */\n      swap3\n      swap2\n      pop\n      pop\n      jump\t// out\n        /* \"#utility.yul\":4972:5071   */\n    tag_132:\n        /* \"#utility.yul\":5024:5030   */\n      0x00\n        /* \"#utility.yul\":5058:5063   */\n      dup2\n        /* \"#utility.yul\":5052:5064   */\n      mload\n        /* \"#utility.yul\":5042:5064   */\n      swap1\n      pop\n        /* \"#utility.yul\":4972:5071   */\n      swap2\n      swap1\n      pop\n      jump\t// out\n        /* \"#utility.yul\":5077:5236   */\n    tag_133:\n        /* \"#utility.yul\":5151:5162   */\n      0x00\n        /* \"#utility.yul\":5185:5191   */\n      dup3\n        /* \"#utility.yul\":5180:5183   */\n      dup3\n        /* \"#utility.yul\":5173:5192   */\n      mstore\n        /* \"#utility.yul\":5225:5229   */\n      0x20\n        /* \"#utility.yul\":5220:5223   */\n      dup3\n        /* \"#utility.yul\":5216:5230   */\n      add\n        /* \"#utility.yul\":5201:5230   */\n      swap1\n      pop\n        /* \"#utility.yul\":5077:5236   */\n      swap3\n      swap2\n      pop\n      pop\n      jump\t// out\n        /* \"#utility.yul\":5242:5488   */\n    tag_134:\n        /* \"#utility.yul\":5323:5324   */\n      0x00\n        /* \"#utility.yul\":5333:5446   */\n    tag_218:\n        /* \"#utility.yul\":5347:5353   */\n      dup4\n        /* \"#utility.yul\":5344:5345   */\n      dup2\n        /* \"#utility.yul\":5341:5354   */\n      lt\n        /* \"#utility.yul\":5333:5446   */\n      iszero\n      tag_220\n      jumpi\n        /* \"#utility.yul\":5432:5433   */\n      dup1\n        /* \"#utility.yul\":5427:5430   */\n      dup3\n        /* \"#utility.yul\":5423:5434   */\n      add\n        /* \"#utility.yul\":5417:5435   */\n      mload\n        /* \"#utility.yul\":5413:5414   */\n      dup2\n        /* \"#utility.yul\":5408:5411   */\n      dup5\n        /* \"#utility.yul\":5404:5415   */\n      add\n        /* \"#utility.yul\":5397:5436   */\n      mstore\n        /* \"#utility.yul\":5369:5371   */\n      0x20\n        /* \"#utility.yul\":5366:5367   */\n      dup2\n        /* \"#utility.yul\":5362:5372   */\n      add\n        /* \"#utility.yul\":5357:5372   */\n      swap1\n      pop\n        /* \"#utility.yul\":5333:5446   */\n      jump(tag_218)\n    tag_220:\n        /* \"#utility.yul\":5480:5481   */\n      0x00\n        /* \"#utility.yul\":5471:5477   */\n      dup5\n        /* \"#utility.yul\":5466:5469   */\n      dup5\n        /* \"#utility.yul\":5462:5478   */\n      add\n        /* \"#utility.yul\":5455:5482   */\n      mstore\n        /* \"#utility.yul\":5304:5488   */\n      pop\n        /* \"#utility.yul\":5242:5488   */\n      pop\n      pop\n      pop\n      jump\t// out\n        /* \"#utility.yul\":5494:5596   */\n    tag_135:\n        /* \"#utility.yul\":5535:5541   */\n      0x00\n        /* \"#utility.yul\":5586:5588   */\n      0x1f\n        /* \"#utility.yul\":5582:5589   */\n      not\n        /* \"#utility.yul\":5577:5579   */\n      0x1f\n        /* \"#utility.yul\":5570:5575   */\n      dup4\n        /* \"#utility.yul\":5566:5580   */\n      add\n        /* \"#utility.yul\":5562:5590   */\n      and\n        /* \"#utility.yul\":5552:5590   */\n      swap1\n      pop\n        /* \"#utility.yul\":5494:5596   */\n      swap2\n      swap1\n      pop\n      jump\t// out\n        /* \"#utility.yul\":5602:5959   */\n    tag_136:\n        /* \"#utility.yul\":5680:5683   */\n      0x00\n        /* \"#utility.yul\":5708:5747   */\n      tag_223\n        /* \"#utility.yul\":5741:5746   */\n      dup3\n        /* \"#utility.yul\":5708:5747   */\n      tag_132\n      jump\t// in\n    tag_223:\n        /* \"#utility.yul\":5763:5824   */\n      tag_224\n        /* \"#utility.yul\":5817:5823   */\n      dup2\n        /* \"#utility.yul\":5812:5815   */\n      dup6\n        /* \"#utility.yul\":5763:5824   */\n      tag_133\n      jump\t// in\n    tag_224:\n        /* \"#utility.yul\":5756:5824   */\n      swap4\n      pop\n        /* \"#utility.yul\":5833:5898   */\n      tag_225\n        /* \"#utility.yul\":5891:5897   */\n      dup2\n        /* \"#utility.yul\":5886:5889   */\n      dup6\n        /* \"#utility.yul\":5879:5883   */\n      0x20\n        /* \"#utility.yul\":5872:5877   */\n      dup7\n        /* \"#utility.yul\":5868:5884   */\n      add\n        /* \"#utility.yul\":5833:5898   */\n      tag_134\n      jump\t// in\n    tag_225:\n        /* \"#utility.yul\":5923:5952   */\n      tag_226\n        /* \"#utility.yul\":5945:5951   */\n      dup2\n        /* \"#utility.yul\":5923:5952   */\n      tag_135\n      jump\t// in\n    tag_226:\n        /* \"#utility.yul\":5918:5921   */\n      dup5\n        /* \"#utility.yul\":5914:5953   */\n      add\n        /* \"#utility.yul\":5907:5953   */\n      swap2\n      pop\n        /* \"#utility.yul\":5684:5959   */\n      pop\n        /* \"#utility.yul\":5602:5959   */\n      swap3\n      swap2\n      pop\n      pop\n      jump\t// out\n        /* \"#utility.yul\":6049:6848   */\n    tag_137:\n        /* \"#utility.yul\":6172:6175   */\n      0x00\n        /* \"#utility.yul\":6208:6212   */\n      0x60\n        /* \"#utility.yul\":6203:6206   */\n      dup4\n        /* \"#utility.yul\":6199:6213   */\n      add\n        /* \"#utility.yul\":6293:6297   */\n      0x00\n        /* \"#utility.yul\":6286:6291   */\n      dup4\n        /* \"#utility.yul\":6282:6298   */\n      add\n        /* \"#utility.yul\":6276:6299   */\n      mload\n        /* \"#utility.yul\":6312:6375   */\n      tag_228\n        /* \"#utility.yul\":6369:6373   */\n      0x00\n        /* \"#utility.yul\":6364:6367   */\n      dup7\n        /* \"#utility.yul\":6360:6374   */\n      add\n        /* \"#utility.yul\":6346:6358   */\n      dup3\n        /* \"#utility.yul\":6312:6375   */\n      tag_118\n      jump\t// in\n    tag_228:\n        /* \"#utility.yul\":6223:6385   */\n      pop\n        /* \"#utility.yul\":6480:6484   */\n      0x20\n        /* \"#utility.yul\":6473:6478   */\n      dup4\n        /* \"#utility.yul\":6469:6485   */\n      add\n        /* \"#utility.yul\":6463:6486   */\n      mload\n        /* \"#utility.yul\":6499:6562   */\n      tag_229\n        /* \"#utility.yul\":6556:6560   */\n      0x20\n        /* \"#utility.yul\":6551:6554   */\n      dup7\n        /* \"#utility.yul\":6547:6561   */\n      add\n        /* \"#utility.yul\":6533:6545   */\n      dup3\n        /* \"#utility.yul\":6499:6562   */\n      tag_121\n      jump\t// in\n    tag_229:\n        /* \"#utility.yul\":6395:6572   */\n      pop\n        /* \"#utility.yul\":6658:6662   */\n      0x40\n        /* \"#utility.yul\":6651:6656   */\n      dup4\n        /* \"#utility.yul\":6647:6663   */\n      add\n        /* \"#utility.yul\":6641:6664   */\n      mload\n        /* \"#utility.yul\":6711:6714   */\n      dup5\n        /* \"#utility.yul\":6705:6709   */\n      dup3\n        /* \"#utility.yul\":6701:6715   */\n      sub\n        /* \"#utility.yul\":6694:6698   */\n      0x40\n        /* \"#utility.yul\":6689:6692   */\n      dup7\n        /* \"#utility.yul\":6685:6699   */\n      add\n        /* \"#utility.yul\":6678:6716   */\n      mstore\n        /* \"#utility.yul\":6737:6810   */\n      tag_230\n        /* \"#utility.yul\":6805:6809   */\n      dup3\n        /* \"#utility.yul\":6791:6803   */\n      dup3\n        /* \"#utility.yul\":6737:6810   */\n      tag_136\n      jump\t// in\n    tag_230:\n        /* \"#utility.yul\":6729:6810   */\n      swap2\n      pop\n        /* \"#utility.yul\":6582:6821   */\n      pop\n        /* \"#utility.yul\":6838:6842   */\n      dup1\n        /* \"#utility.yul\":6831:6842   */\n      swap2\n      pop\n        /* \"#utility.yul\":6177:6848   */\n      pop\n        /* \"#utility.yul\":6049:6848   */\n      swap3\n      swap2\n      pop\n      pop\n      jump\t// out\n        /* \"#utility.yul\":6854:7235   */\n    tag_25:\n        /* \"#utility.yul\":7001:7005   */\n      0x00\n        /* \"#utility.yul\":7039:7041   */\n      0x20\n        /* \"#utility.yul\":7028:7037   */\n      dup3\n        /* \"#utility.yul\":7024:7042   */\n      add\n        /* \"#utility.yul\":7016:7042   */\n      swap1\n      pop\n        /* \"#utility.yul\":7088:7097   */\n      dup2\n        /* \"#utility.yul\":7082:7086   */\n      dup2\n        /* \"#utility.yul\":7078:7098   */\n      sub\n        /* \"#utility.yul\":7074:7075   */\n      0x00\n        /* \"#utility.yul\":7063:7072   */\n      dup4\n        /* \"#utility.yul\":7059:7076   */\n      add\n        /* \"#utility.yul\":7052:7099   */\n      mstore\n        /* \"#utility.yul\":7116:7228   */\n      tag_232\n        /* \"#utility.yul\":7223:7227   */\n      dup2\n        /* \"#utility.yul\":7214:7220   */\n      dup5\n        /* \"#utility.yul\":7116:7228   */\n      tag_137\n      jump\t// in\n    tag_232:\n        /* \"#utility.yul\":7108:7228   */\n      swap1\n      pop\n        /* \"#utility.yul\":6854:7235   */\n      swap3\n      swap2\n      pop\n      pop\n      jump\t// out\n        /* \"#utility.yul\":7241:7358   */\n    tag_138:\n        /* \"#utility.yul\":7350:7351   */\n      0x00\n        /* \"#utility.yul\":7347:7348   */\n      dup1\n        /* \"#utility.yul\":7340:7352   */\n      revert\n        /* \"#utility.yul\":7364:7481   */\n    tag_139:\n        /* \"#utility.yul\":7473:7474   */\n      0x00\n        /* \"#utility.yul\":7470:7471   */\n      dup1\n        /* \"#utility.yul\":7463:7475   */\n      revert\n        /* \"#utility.yul\":7487:7667   */\n    tag_47:\n        /* \"#utility.yul\":7535:7612   */\n      0x4e487b7100000000000000000000000000000000000000000000000000000000\n        /* \"#utility.yul\":7532:7533   */\n      0x00\n        /* \"#utility.yul\":7525:7613   */\n      mstore\n        /* \"#utility.yul\":7632:7636   */\n      0x41\n        /* \"#utility.yul\":7629:7630   */\n      0x04\n        /* \"#utility.yul\":7622:7637   */\n      mstore\n        /* \"#utility.yul\":7656:7660   */\n      0x24\n        /* \"#utility.yul\":7653:7654   */\n      0x00\n        /* \"#utility.yul\":7646:7661   */\n      revert\n        /* \"#utility.yul\":7673:7954   */\n    tag_140:\n        /* \"#utility.yul\":7756:7783   */\n      tag_237\n        /* \"#utility.yul\":7778:7782   */\n      dup3\n        /* \"#utility.yul\":7756:7783   */\n      tag_135\n      jump\t// in\n    tag_237:\n        /* \"#utility.yul\":7748:7754   */\n      dup2\n        /* \"#utility.yul\":7744:7784   */\n      add\n        /* \"#utility.yul\":7886:7892   */\n      dup2\n        /* \"#utility.yul\":7874:7884   */\n      dup2\n        /* \"#utility.yul\":7871:7893   */\n      lt\n        /* \"#utility.yul\":7850:7868   */\n      0xffffffffffffffff\n        /* \"#utility.yul\":7838:7848   */\n      dup3\n        /* \"#utility.yul\":7835:7869   */\n      gt\n        /* \"#utility.yul\":7832:7894   */\n      or\n        /* \"#utility.yul\":7829:7917   */\n      iszero\n      tag_238\n      jumpi\n        /* \"#utility.yul\":7897:7915   */\n      tag_239\n      tag_47\n      jump\t// in\n    tag_239:\n        /* \"#utility.yul\":7829:7917   */\n    tag_238:\n        /* \"#utility.yul\":7937:7947   */\n      dup1\n        /* \"#utility.yul\":7933:7935   */\n      0x40\n        /* \"#utility.yul\":7926:7948   */\n      mstore\n        /* \"#utility.yul\":7716:7954   */\n      pop\n        /* \"#utility.yul\":7673:7954   */\n      pop\n      pop\n      jump\t// out\n        /* \"#utility.yul\":7960:8089   */\n    tag_141:\n        /* \"#utility.yul\":7994:8000   */\n      0x00\n        /* \"#utility.yul\":8021:8041   */\n      tag_241\n      tag_127\n      jump\t// in\n    tag_241:\n        /* \"#utility.yul\":8011:8041   */\n      swap1\n      pop\n        /* \"#utility.yul\":8050:8083   */\n      tag_242\n        /* \"#utility.yul\":8078:8082   */\n      dup3\n        /* \"#utility.yul\":8070:8076   */\n      dup3\n        /* \"#utility.yul\":8050:8083   */\n      tag_140\n      jump\t// in\n    tag_242:\n        /* \"#utility.yul\":7960:8089   */\n      swap2\n      swap1\n      pop\n      jump\t// out\n        /* \"#utility.yul\":8095:8403   */\n    tag_142:\n        /* \"#utility.yul\":8157:8161   */\n      0x00\n        /* \"#utility.yul\":8247:8265   */\n      0xffffffffffffffff\n        /* \"#utility.yul\":8239:8245   */\n      dup3\n        /* \"#utility.yul\":8236:8266   */\n      gt\n        /* \"#utility.yul\":8233:8289   */\n      iszero\n      tag_244\n      jumpi\n        /* \"#utility.yul\":8269:8287   */\n      tag_245\n      tag_47\n      jump\t// in\n    tag_245:\n        /* \"#utility.yul\":8233:8289   */\n    tag_244:\n        /* \"#utility.yul\":8307:8336   */\n      tag_246\n        /* \"#utility.yul\":8329:8335   */\n      dup3\n        /* \"#utility.yul\":8307:8336   */\n      tag_135\n      jump\t// in\n    tag_246:\n        /* \"#utility.yul\":8299:8336   */\n      swap1\n      pop\n        /* \"#utility.yul\":8391:8395   */\n      0x20\n        /* \"#utility.yul\":8385:8389   */\n      dup2\n        /* \"#utility.yul\":8381:8396   */\n      add\n        /* \"#utility.yul\":8373:8396   */\n      swap1\n      pop\n        /* \"#utility.yul\":8095:8403   */\n      swap2\n      swap1\n      pop\n      jump\t// out\n        /* \"#utility.yul\":8409:8555   */\n    tag_143:\n        /* \"#utility.yul\":8506:8512   */\n      dup3\n        /* \"#utility.yul\":8501:8504   */\n      dup2\n        /* \"#utility.yul\":8496:8499   */\n      dup4\n        /* \"#utility.yul\":8483:8513   */\n      calldatacopy\n        /* \"#utility.yul\":8547:8548   */\n      0x00\n        /* \"#utility.yul\":8538:8544   */\n      dup4\n        /* \"#utility.yul\":8533:8536   */\n      dup4\n        /* \"#utility.yul\":8529:8545   */\n      add\n        /* \"#utility.yul\":8522:8549   */\n      mstore\n        /* \"#utility.yul\":8409:8555   */\n      pop\n      pop\n      pop\n      jump\t// out\n        /* \"#utility.yul\":8561:8986   */\n    tag_144:\n        /* \"#utility.yul\":8639:8644   */\n      0x00\n        /* \"#utility.yul\":8664:8730   */\n      tag_249\n        /* \"#utility.yul\":8680:8729   */\n      tag_250\n        /* \"#utility.yul\":8722:8728   */\n      dup5\n        /* \"#utility.yul\":8680:8729   */\n      tag_142\n      jump\t// in\n    tag_250:\n        /* \"#utility.yul\":8664:8730   */\n      tag_141\n      jump\t// in\n    tag_249:\n        /* \"#utility.yul\":8655:8730   */\n      swap1\n      pop\n        /* \"#utility.yul\":8753:8759   */\n      dup3\n        /* \"#utility.yul\":8746:8751   */\n      dup2\n        /* \"#utility.yul\":8739:8760   */\n      mstore\n        /* \"#utility.yul\":8791:8795   */\n      0x20\n        /* \"#utility.yul\":8784:8789   */\n      dup2\n        /* \"#utility.yul\":8780:8796   */\n      add\n        /* \"#utility.yul\":8829:8832   */\n      dup5\n        /* \"#utility.yul\":8820:8826   */\n      dup5\n        /* \"#utility.yul\":8815:8818   */\n      dup5\n        /* \"#utility.yul\":8811:8827   */\n      add\n        /* \"#utility.yul\":8808:8833   */\n      gt\n        /* \"#utility.yul\":8805:8917   */\n      iszero\n      tag_251\n      jumpi\n        /* \"#utility.yul\":8836:8915   */\n      tag_252\n      tag_139\n      jump\t// in\n    tag_252:\n        /* \"#utility.yul\":8805:8917   */\n    tag_251:\n        /* \"#utility.yul\":8926:8980   */\n      tag_253\n        /* \"#utility.yul\":8973:8979   */\n      dup5\n        /* \"#utility.yul\":8968:8971   */\n      dup3\n        /* \"#utility.yul\":8963:8966   */\n      dup6\n        /* \"#utility.yul\":8926:8980   */\n      tag_143\n      jump\t// in\n    tag_253:\n        /* \"#utility.yul\":8645:8986   */\n      pop\n        /* \"#utility.yul\":8561:8986   */\n      swap4\n      swap3\n      pop\n      pop\n      pop\n      jump\t// out\n        /* \"#utility.yul\":9006:9346   */\n    tag_145:\n        /* \"#utility.yul\":9062:9067   */\n      0x00\n        /* \"#utility.yul\":9111:9114   */\n      dup3\n        /* \"#utility.yul\":9104:9108   */\n      0x1f\n        /* \"#utility.yul\":9096:9102   */\n      dup4\n        /* \"#utility.yul\":9092:9109   */\n      add\n        /* \"#utility.yul\":9088:9115   */\n      slt\n        /* \"#utility.yul\":9078:9200   */\n      tag_255\n      jumpi\n        /* \"#utility.yul\":9119:9198   */\n      tag_256\n      tag_138\n      jump\t// in\n    tag_256:\n        /* \"#utility.yul\":9078:9200   */\n    tag_255:\n        /* \"#utility.yul\":9236:9242   */\n      dup2\n        /* \"#utility.yul\":9223:9243   */\n      calldataload\n        /* \"#utility.yul\":9261:9340   */\n      tag_257\n        /* \"#utility.yul\":9336:9339   */\n      dup5\n        /* \"#utility.yul\":9328:9334   */\n      dup3\n        /* \"#utility.yul\":9321:9325   */\n      0x20\n        /* \"#utility.yul\":9313:9319   */\n      dup7\n        /* \"#utility.yul\":9309:9326   */\n      add\n        /* \"#utility.yul\":9261:9340   */\n      tag_144\n      jump\t// in\n    tag_257:\n        /* \"#utility.yul\":9252:9340   */\n      swap2\n      pop\n        /* \"#utility.yul\":9068:9346   */\n      pop\n        /* \"#utility.yul\":9006:9346   */\n      swap3\n      swap2\n      pop\n      pop\n      jump\t// out\n        /* \"#utility.yul\":9352:10006   */\n    tag_35:\n        /* \"#utility.yul\":9430:9436   */\n      0x00\n        /* \"#utility.yul\":9438:9444   */\n      dup1\n        /* \"#utility.yul\":9487:9489   */\n      0x40\n        /* \"#utility.yul\":9475:9484   */\n      dup4\n        /* \"#utility.yul\":9466:9473   */\n      dup6\n        /* \"#utility.yul\":9462:9485   */\n      sub\n        /* \"#utility.yul\":9458:9490   */\n      slt\n        /* \"#utility.yul\":9455:9574   */\n      iszero\n      tag_259\n      jumpi\n        /* \"#utility.yul\":9493:9572   */\n      tag_260\n      tag_128\n      jump\t// in\n    tag_260:\n        /* \"#utility.yul\":9455:9574   */\n    tag_259:\n        /* \"#utility.yul\":9613:9614   */\n      0x00\n        /* \"#utility.yul\":9638:9691   */\n      tag_261\n        /* \"#utility.yul\":9683:9690   */\n      dup6\n        /* \"#utility.yul\":9674:9680   */\n      dup3\n        /* \"#utility.yul\":9663:9672   */\n      dup7\n        /* \"#utility.yul\":9659:9681   */\n      add\n        /* \"#utility.yul\":9638:9691   */\n      tag_131\n      jump\t// in\n    tag_261:\n        /* \"#utility.yul\":9628:9691   */\n      swap3\n      pop\n        /* \"#utility.yul\":9584:9701   */\n      pop\n        /* \"#utility.yul\":9768:9770   */\n      0x20\n        /* \"#utility.yul\":9757:9766   */\n      dup4\n        /* \"#utility.yul\":9753:9771   */\n      add\n        /* \"#utility.yul\":9740:9772   */\n      calldataload\n        /* \"#utility.yul\":9799:9817   */\n      0xffffffffffffffff\n        /* \"#utility.yul\":9791:9797   */\n      dup2\n        /* \"#utility.yul\":9788:9818   */\n      gt\n        /* \"#utility.yul\":9785:9902   */\n      iszero\n      tag_262\n      jumpi\n        /* \"#utility.yul\":9821:9900   */\n      tag_263\n      tag_129\n      jump\t// in\n    tag_263:\n        /* \"#utility.yul\":9785:9902   */\n    tag_262:\n        /* \"#utility.yul\":9926:9989   */\n      tag_264\n        /* \"#utility.yul\":9981:9988   */\n      dup6\n        /* \"#utility.yul\":9972:9978   */\n      dup3\n        /* \"#utility.yul\":9961:9970   */\n      dup7\n        /* \"#utility.yul\":9957:9979   */\n      add\n        /* \"#utility.yul\":9926:9989   */\n      tag_145\n      jump\t// in\n    tag_264:\n        /* \"#utility.yul\":9916:9989   */\n      swap2\n      pop\n        /* \"#utility.yul\":9711:9999   */\n      pop\n        /* \"#utility.yul\":9352:10006   */\n      swap3\n      pop\n      swap3\n      swap1\n      pop\n      jump\t// out\n        /* \"#utility.yul\":10012:10153   */\n    tag_146:\n        /* \"#utility.yul\":10106:10112   */\n      0x00\n        /* \"#utility.yul\":10140:10145   */\n      dup2\n        /* \"#utility.yul\":10134:10146   */\n      mload\n        /* \"#utility.yul\":10124:10146   */\n      swap1\n      pop\n        /* \"#utility.yul\":10012:10153   */\n      swap2\n      swap1\n      pop\n      jump\t// out\n        /* \"#utility.yul\":10159:10370   */\n    tag_147:\n        /* \"#utility.yul\":10285:10296   */\n      0x00\n        /* \"#utility.yul\":10319:10325   */\n      dup3\n        /* \"#utility.yul\":10314:10317   */\n      dup3\n        /* \"#utility.yul\":10307:10326   */\n      mstore\n        /* \"#utility.yul\":10359:10363   */\n      0x20\n        /* \"#utility.yul\":10354:10357   */\n      dup3\n        /* \"#utility.yul\":10350:10364   */\n      add\n        /* \"#utility.yul\":10335:10364   */\n      swap1\n      pop\n        /* \"#utility.yul\":10159:10370   */\n      swap3\n      swap2\n      pop\n      pop\n      jump\t// out\n        /* \"#utility.yul\":10376:10535   */\n    tag_148:\n        /* \"#utility.yul\":10470:10474   */\n      0x00\n        /* \"#utility.yul\":10493:10496   */\n      dup2\n        /* \"#utility.yul\":10485:10496   */\n      swap1\n      pop\n        /* \"#utility.yul\":10523:10527   */\n      0x20\n        /* \"#utility.yul\":10518:10521   */\n      dup3\n        /* \"#utility.yul\":10514:10528   */\n      add\n        /* \"#utility.yul\":10506:10528   */\n      swap1\n      pop\n        /* \"#utility.yul\":10376:10535   */\n      swap2\n      swap1\n      pop\n      jump\t// out\n        /* \"#utility.yul\":10625:11414   */\n    tag_149:\n        /* \"#utility.yul\":10738:10741   */\n      0x00\n        /* \"#utility.yul\":10774:10778   */\n      0x60\n        /* \"#utility.yul\":10769:10772   */\n      dup4\n        /* \"#utility.yul\":10765:10779   */\n      add\n        /* \"#utility.yul\":10859:10863   */\n      0x00\n        /* \"#utility.yul\":10852:10857   */\n      dup4\n        /* \"#utility.yul\":10848:10864   */\n      add\n        /* \"#utility.yul\":10842:10865   */\n      mload\n        /* \"#utility.yul\":10878:10941   */\n      tag_269\n        /* \"#utility.yul\":10935:10939   */\n      0x00\n        /* \"#utility.yul\":10930:10933   */\n      dup7\n        /* \"#utility.yul\":10926:10940   */\n      add\n        /* \"#utility.yul\":10912:10924   */\n      dup3\n        /* \"#utility.yul\":10878:10941   */\n      tag_118\n      jump\t// in\n    tag_269:\n        /* \"#utility.yul\":10789:10951   */\n      pop\n        /* \"#utility.yul\":11046:11050   */\n      0x20\n        /* \"#utility.yul\":11039:11044   */\n      dup4\n        /* \"#utility.yul\":11035:11051   */\n      add\n        /* \"#utility.yul\":11029:11052   */\n      mload\n        /* \"#utility.yul\":11065:11128   */\n      tag_270\n        /* \"#utility.yul\":11122:11126   */\n      0x20\n        /* \"#utility.yul\":11117:11120   */\n      dup7\n        /* \"#utility.yul\":11113:11127   */\n      add\n        /* \"#utility.yul\":11099:11111   */\n      dup3\n        /* \"#utility.yul\":11065:11128   */\n      tag_121\n      jump\t// in\n    tag_270:\n        /* \"#utility.yul\":10961:11138   */\n      pop\n        /* \"#utility.yul\":11224:11228   */\n      0x40\n        /* \"#utility.yul\":11217:11222   */\n      dup4\n        /* \"#utility.yul\":11213:11229   */\n      add\n        /* \"#utility.yul\":11207:11230   */\n      mload\n        /* \"#utility.yul\":11277:11280   */\n      dup5\n        /* \"#utility.yul\":11271:11275   */\n      dup3\n        /* \"#utility.yul\":11267:11281   */\n      sub\n        /* \"#utility.yul\":11260:11264   */\n      0x40\n        /* \"#utility.yul\":11255:11258   */\n      dup7\n        /* \"#utility.yul\":11251:11265   */\n      add\n        /* \"#utility.yul\":11244:11282   */\n      mstore\n        /* \"#utility.yul\":11303:11376   */\n      tag_271\n        /* \"#utility.yul\":11371:11375   */\n      dup3\n        /* \"#utility.yul\":11357:11369   */\n      dup3\n        /* \"#utility.yul\":11303:11376   */\n      tag_136\n      jump\t// in\n    tag_271:\n        /* \"#utility.yul\":11295:11376   */\n      swap2\n      pop\n        /* \"#utility.yul\":11148:11387   */\n      pop\n        /* \"#utility.yul\":11404:11408   */\n      dup1\n        /* \"#utility.yul\":11397:11408   */\n      swap2\n      pop\n        /* \"#utility.yul\":10743:11414   */\n      pop\n        /* \"#utility.yul\":10625:11414   */\n      swap3\n      swap2\n      pop\n      pop\n      jump\t// out\n        /* \"#utility.yul\":11420:11684   */\n    tag_150:\n        /* \"#utility.yul\":11543:11553   */\n      0x00\n        /* \"#utility.yul\":11578:11678   */\n      tag_273\n        /* \"#utility.yul\":11674:11677   */\n      dup4\n        /* \"#utility.yul\":11666:11672   */\n      dup4\n        /* \"#utility.yul\":11578:11678   */\n      tag_149\n      jump\t// in\n    tag_273:\n        /* \"#utility.yul\":11564:11678   */\n      swap1\n      pop\n        /* \"#utility.yul\":11420:11684   */\n      swap3\n      swap2\n      pop\n      pop\n      jump\t// out\n        /* \"#utility.yul\":11690:11830   */\n    tag_151:\n        /* \"#utility.yul\":11787:11791   */\n      0x00\n        /* \"#utility.yul\":11819:11823   */\n      0x20\n        /* \"#utility.yul\":11814:11817   */\n      dup3\n        /* \"#utility.yul\":11810:11824   */\n      add\n        /* \"#utility.yul\":11802:11824   */\n      swap1\n      pop\n        /* \"#utility.yul\":11690:11830   */\n      swap2\n      swap1\n      pop\n      jump\t// out\n        /* \"#utility.yul\":11924:13051   */\n    tag_152:\n        /* \"#utility.yul\":12097:12100   */\n      0x00\n        /* \"#utility.yul\":12126:12207   */\n      tag_276\n        /* \"#utility.yul\":12201:12206   */\n      dup3\n        /* \"#utility.yul\":12126:12207   */\n      tag_146\n      jump\t// in\n    tag_276:\n        /* \"#utility.yul\":12223:12336   */\n      tag_277\n        /* \"#utility.yul\":12329:12335   */\n      dup2\n        /* \"#utility.yul\":12324:12327   */\n      dup6\n        /* \"#utility.yul\":12223:12336   */\n      tag_147\n      jump\t// in\n    tag_277:\n        /* \"#utility.yul\":12216:12336   */\n      swap4\n      pop\n        /* \"#utility.yul\":12362:12365   */\n      dup4\n        /* \"#utility.yul\":12407:12411   */\n      0x20\n        /* \"#utility.yul\":12399:12405   */\n      dup3\n        /* \"#utility.yul\":12395:12412   */\n      mul\n        /* \"#utility.yul\":12390:12393   */\n      dup6\n        /* \"#utility.yul\":12386:12413   */\n      add\n        /* \"#utility.yul\":12437:12520   */\n      tag_278\n        /* \"#utility.yul\":12514:12519   */\n      dup6\n        /* \"#utility.yul\":12437:12520   */\n      tag_148\n      jump\t// in\n    tag_278:\n        /* \"#utility.yul\":12543:12550   */\n      dup1\n        /* \"#utility.yul\":12574:12575   */\n      0x00\n        /* \"#utility.yul\":12559:13006   */\n    tag_279:\n        /* \"#utility.yul\":12584:12590   */\n      dup6\n        /* \"#utility.yul\":12581:12582   */\n      dup2\n        /* \"#utility.yul\":12578:12591   */\n      lt\n        /* \"#utility.yul\":12559:13006   */\n      iszero\n      tag_281\n      jumpi\n        /* \"#utility.yul\":12655:12664   */\n      dup5\n        /* \"#utility.yul\":12649:12653   */\n      dup5\n        /* \"#utility.yul\":12645:12665   */\n      sub\n        /* \"#utility.yul\":12640:12643   */\n      dup10\n        /* \"#utility.yul\":12633:12666   */\n      mstore\n        /* \"#utility.yul\":12706:12712   */\n      dup2\n        /* \"#utility.yul\":12700:12713   */\n      mload\n        /* \"#utility.yul\":12734:12852   */\n      tag_282\n        /* \"#utility.yul\":12847:12851   */\n      dup6\n        /* \"#utility.yul\":12832:12845   */\n      dup3\n        /* \"#utility.yul\":12734:12852   */\n      tag_150\n      jump\t// in\n    tag_282:\n        /* \"#utility.yul\":12726:12852   */\n      swap5\n      pop\n        /* \"#utility.yul\":12875:12962   */\n      tag_283\n        /* \"#utility.yul\":12955:12961   */\n      dup4\n        /* \"#utility.yul\":12875:12962   */\n      tag_151\n      jump\t// in\n    tag_283:\n        /* \"#utility.yul\":12865:12962   */\n      swap3\n      pop\n        /* \"#utility.yul\":12991:12995   */\n      0x20\n        /* \"#utility.yul\":12986:12989   */\n      dup11\n        /* \"#utility.yul\":12982:12996   */\n      add\n        /* \"#utility.yul\":12975:12996   */\n      swap10\n      pop\n        /* \"#utility.yul\":12619:13006   */\n      pop\n        /* \"#utility.yul\":12606:12607   */\n      0x01\n        /* \"#utility.yul\":12603:12604   */\n      dup2\n        /* \"#utility.yul\":12599:12608   */\n      add\n        /* \"#utility.yul\":12594:12608   */\n      swap1\n      pop\n        /* \"#utility.yul\":12559:13006   */\n      jump(tag_279)\n    tag_281:\n        /* \"#utility.yul\":12563:12577   */\n      pop\n        /* \"#utility.yul\":13022:13026   */\n      dup3\n        /* \"#utility.yul\":13015:13026   */\n      swap8\n      pop\n        /* \"#utility.yul\":13042:13045   */\n      dup8\n        /* \"#utility.yul\":13035:13045   */\n      swap6\n      pop\n        /* \"#utility.yul\":12102:13051   */\n      pop\n      pop\n      pop\n      pop\n      pop\n        /* \"#utility.yul\":11924:13051   */\n      swap3\n      swap2\n      pop\n      pop\n      jump\t// out\n        /* \"#utility.yul\":13057:13538   */\n    tag_40:\n        /* \"#utility.yul\":13254:13258   */\n      0x00\n        /* \"#utility.yul\":13292:13294   */\n      0x20\n        /* \"#utility.yul\":13281:13290   */\n      dup3\n        /* \"#utility.yul\":13277:13295   */\n      add\n        /* \"#utility.yul\":13269:13295   */\n      swap1\n      pop\n        /* \"#utility.yul\":13341:13350   */\n      dup2\n        /* \"#utility.yul\":13335:13339   */\n      dup2\n        /* \"#utility.yul\":13331:13351   */\n      sub\n        /* \"#utility.yul\":13327:13328   */\n      0x00\n        /* \"#utility.yul\":13316:13325   */\n      dup4\n        /* \"#utility.yul\":13312:13329   */\n      add\n        /* \"#utility.yul\":13305:13352   */\n      mstore\n        /* \"#utility.yul\":13369:13531   */\n      tag_285\n        /* \"#utility.yul\":13526:13530   */\n      dup2\n        /* \"#utility.yul\":13517:13523   */\n      dup5\n        /* \"#utility.yul\":13369:13531   */\n      tag_152\n      jump\t// in\n    tag_285:\n        /* \"#utility.yul\":13361:13531   */\n      swap1\n      pop\n        /* \"#utility.yul\":13057:13538   */\n      swap3\n      swap2\n      pop\n      pop\n      jump\t// out\n        /* \"#utility.yul\":13544:13724   */\n    tag_57:\n        /* \"#utility.yul\":13592:13669   */\n      0x4e487b7100000000000000000000000000000000000000000000000000000000\n        /* \"#utility.yul\":13589:13590   */\n      0x00\n        /* \"#utility.yul\":13582:13670   */\n      mstore\n        /* \"#utility.yul\":13689:13693   */\n      0x32\n        /* \"#utility.yul\":13686:13687   */\n      0x04\n        /* \"#utility.yul\":13679:13694   */\n      mstore\n        /* \"#utility.yul\":13713:13717   */\n      0x24\n        /* \"#utility.yul\":13710:13711   */\n      0x00\n        /* \"#utility.yul\":13703:13718   */\n      revert\n        /* \"#utility.yul\":13730:13910   */\n    tag_153:\n        /* \"#utility.yul\":13778:13855   */\n      0x4e487b7100000000000000000000000000000000000000000000000000000000\n        /* \"#utility.yul\":13775:13776   */\n      0x00\n        /* \"#utility.yul\":13768:13856   */\n      mstore\n        /* \"#utility.yul\":13875:13879   */\n      0x11\n        /* \"#utility.yul\":13872:13873   */\n      0x04\n        /* \"#utility.yul\":13865:13880   */\n      mstore\n        /* \"#utility.yul\":13899:13903   */\n      0x24\n        /* \"#utility.yul\":13896:13897   */\n      0x00\n        /* \"#utility.yul\":13889:13904   */\n      revert\n        /* \"#utility.yul\":13916:14149   */\n    tag_59:\n        /* \"#utility.yul\":13955:13958   */\n      0x00\n        /* \"#utility.yul\":13978:14002   */\n      tag_289\n        /* \"#utility.yul\":13996:14001   */\n      dup3\n        /* \"#utility.yul\":13978:14002   */\n      tag_117\n      jump\t// in\n    tag_289:\n        /* \"#utility.yul\":13969:14002   */\n      swap2\n      pop\n        /* \"#utility.yul\":14024:14090   */\n      0xffffffffffffffffffffffffffffffffffffffffffffffffffffffffffffffff\n        /* \"#utility.yul\":14017:14022   */\n      dup3\n        /* \"#utility.yul\":14014:14091   */\n      sub\n        /* \"#utility.yul\":14011:14114   */\n      tag_290\n      jumpi\n        /* \"#utility.yul\":14094:14112   */\n      tag_291\n      tag_153\n      jump\t// in\n    tag_291:\n        /* \"#utility.yul\":14011:14114   */\n    tag_290:\n        /* \"#utility.yul\":14141:14142   */\n      0x01\n        /* \"#utility.yul\":14134:14139   */\n      dup3\n        /* \"#utility.yul\":14130:14143   */\n      add\n        /* \"#utility.yul\":14123:14143   */\n      swap1\n      pop\n        /* \"#utility.yul\":13916:14149   */\n      swap2\n      swap1\n      pop\n      jump\t// out\n        /* \"#utility.yul\":14155:14335   */\n    tag_154:\n        /* \"#utility.yul\":14203:14280   */\n      0x4e487b7100000000000000000000000000000000000000000000000000000000\n        /* \"#utility.yul\":14200:14201   */\n      0x00\n        /* \"#utility.yul\":14193:14281   */\n      mstore\n        /* \"#utility.yul\":14300:14304   */\n      0x22\n        /* \"#utility.yul\":14297:14298   */\n      0x04\n        /* \"#utility.yul\":14290:14305   */\n      mstore\n        /* \"#utility.yul\":14324:14328   */\n      0x24\n        /* \"#utility.yul\":14321:14322   */\n      0x00\n        /* \"#utility.yul\":14314:14329   */\n      revert\n        /* \"#utility.yul\":14341:14661   */\n    tag_65:\n        /* \"#utility.yul\":14385:14391   */\n      0x00\n        /* \"#utility.yul\":14422:14423   */\n      0x02\n        /* \"#utility.yul\":14416:14420   */\n      dup3\n        /* \"#utility.yul\":14412:14424   */\n      div\n        /* \"#utility.yul\":14402:14424   */\n      swap1\n      pop\n        /* \"#utility.yul\":14469:14470   */\n      0x01\n        /* \"#utility.yul\":14463:14467   */\n      dup3\n        /* \"#utility.yul\":14459:14471   */\n      and\n        /* \"#utility.yul\":14490:14508   */\n      dup1\n        /* \"#utility.yul\":14480:14561   */\n      tag_294\n      jumpi\n        /* \"#utility.yul\":14546:14550   */\n      0x7f\n        /* \"#utility.yul\":14538:14544   */\n      dup3\n        /* \"#utility.yul\":14534:14551   */\n      and\n        /* \"#utility.yul\":14524:14551   */\n      swap2\n      pop\n        /* \"#utility.yul\":14480:14561   */\n    tag_294:\n        /* \"#utility.yul\":14608:14610   */\n      0x20\n        /* \"#utility.yul\":14600:14606   */\n      dup3\n        /* \"#utility.yul\":14597:14611   */\n      lt\n        /* \"#utility.yul\":14577:14595   */\n      dup2\n        /* \"#utility.yul\":14574:14612   */\n      sub\n        /* \"#utility.yul\":14571:14655   */\n      tag_295\n      jumpi\n        /* \"#utility.yul\":14627:14645   */\n      tag_296\n      tag_154\n      jump\t// in\n    tag_296:\n        /* \"#utility.yul\":14571:14655   */\n    tag_295:\n        /* \"#utility.yul\":14392:14661   */\n      pop\n        /* \"#utility.yul\":14341:14661   */\n      swap2\n      swap1\n      pop\n      jump\t// out\n        /* \"#utility.yul\":14667:14808   */\n    tag_155:\n        /* \"#utility.yul\":14716:14720   */\n      0x00\n        /* \"#utility.yul\":14739:14742   */\n      dup2\n        /* \"#utility.yul\":14731:14742   */\n      swap1\n      pop\n        /* \"#utility.yul\":14762:14765   */\n      dup2\n        /* \"#utility.yul\":14759:14760   */\n      0x00\n        /* \"#utility.yul\":14752:14766   */\n      mstore\n        /* \"#utility.yul\":14796:14800   */\n      0x20\n        /* \"#utility.yul\":14793:14794   */\n      0x00\n        /* \"#utility.yul\":14783:14801   */\n      keccak256\n        /* \"#utility.yul\":14775:14801   */\n      swap1\n      pop\n        /* \"#utility.yul\":14667:14808   */\n      swap2\n      swap1\n      pop\n      jump\t// out\n        /* \"#utility.yul\":14814:14907   */\n    tag_156:\n        /* \"#utility.yul\":14851:14857   */\n      0x00\n        /* \"#utility.yul\":14898:14900   */\n      0x20\n        /* \"#utility.yul\":14893:14895   */\n      0x1f\n        /* \"#utility.yul\":14886:14891   */\n      dup4\n        /* \"#utility.yul\":14882:14896   */\n      add\n        /* \"#utility.yul\":14878:14901   */\n      div\n        /* \"#utility.yul\":14868:14901   */\n      swap1\n      pop\n        /* \"#utility.yul\":14814:14907   */\n      swap2\n      swap1\n      pop\n      jump\t// out\n        /* \"#utility.yul\":14913:15020   */\n    tag_157:\n        /* \"#utility.yul\":14957:14965   */\n      0x00\n        /* \"#utility.yul\":15007:15012   */\n      dup3\n        /* \"#utility.yul\":15001:15005   */\n      dup3\n        /* \"#utility.yul\":14997:15013   */\n      shl\n        /* \"#utility.yul\":14976:15013   */\n      swap1\n      pop\n        /* \"#utility.yul\":14913:15020   */\n      swap3\n      swap2\n      pop\n      pop\n      jump\t// out\n        /* \"#utility.yul\":15026:15419   */\n    tag_158:\n        /* \"#utility.yul\":15095:15101   */\n      0x00\n        /* \"#utility.yul\":15145:15146   */\n      0x08\n        /* \"#utility.yul\":15133:15143   */\n      dup4\n        /* \"#utility.yul\":15129:15147   */\n      mul\n        /* \"#utility.yul\":15168:15265   */\n      tag_301\n        /* \"#utility.yul\":15198:15264   */\n      0xffffffffffffffffffffffffffffffffffffffffffffffffffffffffffffffff\n        /* \"#utility.yul\":15187:15196   */\n      dup3\n        /* \"#utility.yul\":15168:15265   */\n      tag_157\n      jump\t// in\n    tag_301:\n        /* \"#utility.yul\":15286:15325   */\n      tag_302\n        /* \"#utility.yul\":15316:15324   */\n      dup7\n        /* \"#utility.yul\":15305:15314   */\n      dup4\n        /* \"#utility.yul\":15286:15325   */\n      tag_157\n      jump\t// in\n    tag_302:\n        /* \"#utility.yul\":15274:15325   */\n      swap6\n      pop\n        /* \"#utility.yul\":15358:15362   */\n      dup1\n        /* \"#utility.yul\":15354:15363   */\n      not\n        /* \"#utility.yul\":15347:15352   */\n      dup5\n        /* \"#utility.yul\":15343:15364   */\n      and\n        /* \"#utility.yul\":15334:15364   */\n      swap4\n      pop\n        /* \"#utility.yul\":15407:15411   */\n      dup1\n        /* \"#utility.yul\":15397:15405   */\n      dup7\n        /* \"#utility.yul\":15393:15412   */\n      and\n        /* \"#utility.yul\":15386:15391   */\n      dup5\n        /* \"#utility.yul\":15383:15413   */\n      or\n        /* \"#utility.yul\":15373:15413   */\n      swap3\n      pop\n        /* \"#utility.yul\":15102:15419   */\n      pop\n      pop\n        /* \"#utility.yul\":15026:15419   */\n      swap4\n      swap3\n      pop\n      pop\n      pop\n      jump\t// out\n        /* \"#utility.yul\":15425:15485   */\n    tag_159:\n        /* \"#utility.yul\":15453:15456   */\n      0x00\n        /* \"#utility.yul\":15474:15479   */\n      dup2\n        /* \"#utility.yul\":15467:15479   */\n      swap1\n      pop\n        /* \"#utility.yul\":15425:15485   */\n      swap2\n      swap1\n      pop\n      jump\t// out\n        /* \"#utility.yul\":15491:15633   */\n    tag_160:\n        /* \"#utility.yul\":15541:15550   */\n      0x00\n        /* \"#utility.yul\":15574:15627   */\n      tag_305\n        /* \"#utility.yul\":15592:15626   */\n      tag_306\n        /* \"#utility.yul\":15601:15625   */\n      tag_307\n        /* \"#utility.yul\":15619:15624   */\n      dup5\n        /* \"#utility.yul\":15601:15625   */\n      tag_117\n      jump\t// in\n    tag_307:\n        /* \"#utility.yul\":15592:15626   */\n      tag_159\n      jump\t// in\n    tag_306:\n        /* \"#utility.yul\":15574:15627   */\n      tag_117\n      jump\t// in\n    tag_305:\n        /* \"#utility.yul\":15561:15627   */\n      swap1\n      pop\n        /* \"#utility.yul\":15491:15633   */\n      swap2\n      swap1\n      pop\n      jump\t// out\n        /* \"#utility.yul\":15639:15714   */\n    tag_161:\n        /* \"#utility.yul\":15682:15685   */\n      0x00\n        /* \"#utility.yul\":15703:15708   */\n      dup2\n        /* \"#utility.yul\":15696:15708   */\n      swap1\n      pop\n        /* \"#utility.yul\":15639:15714   */\n      swap2\n      swap1\n      pop\n      jump\t// out\n        /* \"#utility.yul\":15720:15989   */\n    tag_162:\n        /* \"#utility.yul\":15830:15869   */\n      tag_310\n        /* \"#utility.yul\":15861:15868   */\n      dup4\n        /* \"#utility.yul\":15830:15869   */\n      tag_160\n      jump\t// in\n    tag_310:\n        /* \"#utility.yul\":15891:15982   */\n      tag_311\n        /* \"#utility.yul\":15940:15981   */\n      tag_312\n        /* \"#utility.yul\":15964:15980   */\n      dup3\n        /* \"#utility.yul\":15940:15981   */\n      tag_161\n      jump\t// in\n    tag_312:\n        /* \"#utility.yul\":15932:15938   */\n      dup5\n        /* \"#utility.yul\":15925:15929   */\n      dup5\n        /* \"#utility.yul\":15919:15930   */\n      sload\n        /* \"#utility.yul\":15891:15982   */\n      tag_158\n      jump\t// in\n    tag_311:\n        /* \"#utility.yul\":15885:15889   */\n      dup3\n        /* \"#utility.yul\":15878:15983   */\n      sstore\n        /* \"#utility.yul\":15796:15989   */\n      pop\n        /* \"#utility.yul\":15720:15989   */\n      pop\n      pop\n      pop\n      jump\t// out\n        /* \"#utility.yul\":15995:16068   */\n    tag_163:\n        /* \"#utility.yul\":16040:16043   */\n      0x00\n        /* \"#utility.yul\":15995:16068   */\n      swap1\n      jump\t// out\n        /* \"#utility.yul\":16074:16263   */\n    tag_164:\n        /* \"#utility.yul\":16151:16183   */\n      tag_315\n      tag_163\n      jump\t// in\n    tag_315:\n        /* \"#utility.yul\":16192:16257   */\n      tag_316\n        /* \"#utility.yul\":16250:16256   */\n      dup2\n        /* \"#utility.yul\":16242:16248   */\n      dup5\n        /* \"#utility.yul\":16236:16240   */\n      dup5\n        /* \"#utility.yul\":16192:16257   */\n      tag_162\n      jump\t// in\n    tag_316:\n        /* \"#utility.yul\":16127:16263   */\n      pop\n        /* \"#utility.yul\":16074:16263   */\n      pop\n      pop\n      jump\t// out\n        /* \"#utility.yul\":16269:16455   */\n    tag_165:\n        /* \"#utility.yul\":16329:16449   */\n    tag_318:\n        /* \"#utility.yul\":16346:16349   */\n      dup2\n        /* \"#utility.yul\":16339:16344   */\n      dup2\n        /* \"#utility.yul\":16336:16350   */\n      lt\n        /* \"#utility.yul\":16329:16449   */\n      iszero\n      tag_320\n      jumpi\n        /* \"#utility.yul\":16400:16439   */\n      tag_321\n        /* \"#utility.yul\":16437:16438   */\n      0x00\n        /* \"#utility.yul\":16430:16435   */\n      dup3\n        /* \"#utility.yul\":16400:16439   */\n      tag_164\n      jump\t// in\n    tag_321:\n        /* \"#utility.yul\":16373:16374   */\n      0x01\n        /* \"#utility.yul\":16366:16371   */\n      dup2\n        /* \"#utility.yul\":16362:16375   */\n      add\n        /* \"#utility.yul\":16353:16375   */\n      swap1\n      pop\n        /* \"#utility.yul\":16329:16449   */\n      jump(tag_318)\n    tag_320:\n        /* \"#utility.yul\":16269:16455   */\n      pop\n      pop\n      jump\t// out\n        /* \"#utility.yul\":16461:17004   */\n    tag_166:\n        /* \"#utility.yul\":16562:16564   */\n      0x1f\n        /* \"#utility.yul\":16557:16560   */\n      dup3\n        /* \"#utility.yul\":16554:16565   */\n      gt\n        /* \"#utility.yul\":16551:16997   */\n      iszero\n      tag_323\n      jumpi\n        /* \"#utility.yul\":16596:16634   */\n      tag_324\n        /* \"#utility.yul\":16628:16633   */\n      dup2\n        /* \"#utility.yul\":16596:16634   */\n      tag_155\n      jump\t// in\n    tag_324:\n        /* \"#utility.yul\":16680:16709   */\n      tag_325\n        /* \"#utility.yul\":16698:16708   */\n      dup5\n        /* \"#utility.yul\":16680:16709   */\n      tag_156\n      jump\t// in\n    tag_325:\n        /* \"#utility.yul\":16670:16678   */\n      dup2\n        /* \"#utility.yul\":16666:16710   */\n      add\n        /* \"#utility.yul\":16863:16865   */\n      0x20\n        /* \"#utility.yul\":16851:16861   */\n      dup6\n        /* \"#utility.yul\":16848:16866   */\n      lt\n        /* \"#utility.yul\":16845:16894   */\n      iszero\n      tag_326\n      jumpi\n        /* \"#utility.yul\":16884:16892   */\n      dup2\n        /* \"#utility.yul\":16869:16892   */\n      swap1\n      pop\n        /* \"#utility.yul\":16845:16894   */\n    tag_326:\n        /* \"#utility.yul\":16907:16987   */\n      tag_327\n        /* \"#utility.yul\":16963:16985   */\n      tag_328\n        /* \"#utility.yul\":16981:16984   */\n      dup6\n        /* \"#utility.yul\":16963:16985   */\n      tag_156\n      jump\t// in\n    tag_328:\n        /* \"#utility.yul\":16953:16961   */\n      dup4\n        /* \"#utility.yul\":16949:16986   */\n      add\n        /* \"#utility.yul\":16936:16947   */\n      dup3\n        /* \"#utility.yul\":16907:16987   */\n      tag_165\n      jump\t// in\n    tag_327:\n        /* \"#utility.yul\":16566:16997   */\n      pop\n      pop\n        /* \"#utility.yul\":16551:16997   */\n    tag_323:\n        /* \"#utility.yul\":16461:17004   */\n      pop\n      pop\n      pop\n      jump\t// out\n        /* \"#utility.yul\":17010:17127   */\n    tag_167:\n        /* \"#utility.yul\":17064:17072   */\n      0x00\n        /* \"#utility.yul\":17114:17119   */\n      dup3\n        /* \"#utility.yul\":17108:17112   */\n      dup3\n        /* \"#utility.yul\":17104:17120   */\n      shr\n        /* \"#utility.yul\":17083:17120   */\n      swap1\n      pop\n        /* \"#utility.yul\":17010:17127   */\n      swap3\n      swap2\n      pop\n      pop\n      jump\t// out\n        /* \"#utility.yul\":17133:17302   */\n    tag_168:\n        /* \"#utility.yul\":17177:17183   */\n      0x00\n        /* \"#utility.yul\":17210:17261   */\n      tag_331\n        /* \"#utility.yul\":17258:17259   */\n      0x00\n        /* \"#utility.yul\":17254:17260   */\n      not\n        /* \"#utility.yul\":17246:17251   */\n      dup5\n        /* \"#utility.yul\":17243:17244   */\n      0x08\n        /* \"#utility.yul\":17239:17252   */\n      mul\n        /* \"#utility.yul\":17210:17261   */\n      tag_167\n      jump\t// in\n    tag_331:\n        /* \"#utility.yul\":17206:17262   */\n      not\n        /* \"#utility.yul\":17291:17295   */\n      dup1\n        /* \"#utility.yul\":17285:17289   */\n      dup4\n        /* \"#utility.yul\":17281:17296   */\n      and\n        /* \"#utility.yul\":17271:17296   */\n      swap2\n      pop\n        /* \"#utility.yul\":17184:17302   */\n      pop\n        /* \"#utility.yul\":17133:17302   */\n      swap3\n      swap2\n      pop\n      pop\n      jump\t// out\n        /* \"#utility.yul\":17307:17602   */\n    tag_169:\n        /* \"#utility.yul\":17383:17387   */\n      0x00\n        /* \"#utility.yul\":17529:17558   */\n      tag_333\n        /* \"#utility.yul\":17554:17557   */\n      dup4\n        /* \"#utility.yul\":17548:17552   */\n      dup4\n        /* \"#utility.yul\":17529:17558   */\n      tag_168\n      jump\t// in\n    tag_333:\n        /* \"#utility.yul\":17521:17558   */\n      swap2\n      pop\n        /* \"#utility.yul\":17591:17594   */\n      dup3\n        /* \"#utility.yul\":17588:17589   */\n      0x02\n        /* \"#utility.yul\":17584:17595   */\n      mul\n        /* \"#utility.yul\":17578:17582   */\n      dup3\n        /* \"#utility.yul\":17575:17596   */\n      or\n        /* \"#utility.yul\":17567:17596   */\n      swap1\n      pop\n        /* \"#utility.yul\":17307:17602   */\n      swap3\n      swap2\n      pop\n      pop\n      jump\t// out\n        /* \"#utility.yul\":17607:19002   */\n    tag_97:\n        /* \"#utility.yul\":17724:17761   */\n      tag_335\n        /* \"#utility.yul\":17757:17760   */\n      dup3\n        /* \"#utility.yul\":17724:17761   */\n      tag_132\n      jump\t// in\n    tag_335:\n        /* \"#utility.yul\":17826:17844   */\n      0xffffffffffffffff\n        /* \"#utility.yul\":17818:17824   */\n      dup2\n        /* \"#utility.yul\":17815:17845   */\n      gt\n        /* \"#utility.yul\":17812:17868   */\n      iszero\n      tag_336\n      jumpi\n        /* \"#utility.yul\":17848:17866   */\n      tag_337\n      tag_47\n      jump\t// in\n    tag_337:\n        /* \"#utility.yul\":17812:17868   */\n    tag_336:\n        /* \"#utility.yul\":17892:17930   */\n      tag_338\n        /* \"#utility.yul\":17924:17928   */\n      dup3\n        /* \"#utility.yul\":17918:17929   */\n      sload\n        /* \"#utility.yul\":17892:17930   */\n      tag_65\n      jump\t// in\n    tag_338:\n        /* \"#utility.yul\":17977:18044   */\n      tag_339\n        /* \"#utility.yul\":18037:18043   */\n      dup3\n        /* \"#utility.yul\":18029:18035   */\n      dup3\n        /* \"#utility.yul\":18023:18027   */\n      dup6\n        /* \"#utility.yul\":17977:18044   */\n      tag_166\n      jump\t// in\n    tag_339:\n        /* \"#utility.yul\":18071:18072   */\n      0x00\n        /* \"#utility.yul\":18095:18099   */\n      0x20\n        /* \"#utility.yul\":18082:18099   */\n      swap1\n      pop\n        /* \"#utility.yul\":18127:18129   */\n      0x1f\n        /* \"#utility.yul\":18119:18125   */\n      dup4\n        /* \"#utility.yul\":18116:18130   */\n      gt\n        /* \"#utility.yul\":18144:18145   */\n      0x01\n        /* \"#utility.yul\":18139:18757   */\n      dup2\n      eq\n      tag_341\n      jumpi\n        /* \"#utility.yul\":18801:18802   */\n      0x00\n        /* \"#utility.yul\":18818:18824   */\n      dup5\n        /* \"#utility.yul\":18815:18892   */\n      iszero\n      tag_342\n      jumpi\n        /* \"#utility.yul\":18867:18876   */\n      dup3\n        /* \"#utility.yul\":18862:18865   */\n      dup8\n        /* \"#utility.yul\":18858:18877   */\n      add\n        /* \"#utility.yul\":18852:18878   */\n      mload\n        /* \"#utility.yul\":18843:18878   */\n      swap1\n      pop\n        /* \"#utility.yul\":18815:18892   */\n    tag_342:\n        /* \"#utility.yul\":18918:18985   */\n      tag_343\n        /* \"#utility.yul\":18978:18984   */\n      dup6\n        /* \"#utility.yul\":18971:18976   */\n      dup3\n        /* \"#utility.yul\":18918:18985   */\n      tag_169\n      jump\t// in\n    tag_343:\n        /* \"#utility.yul\":18912:18916   */\n      dup7\n        /* \"#utility.yul\":18905:18986   */\n      sstore\n        /* \"#utility.yul\":18774:18996   */\n      pop\n        /* \"#utility.yul\":18109:18996   */\n      jump(tag_340)\n        /* \"#utility.yul\":18139:18757   */\n    tag_341:\n        /* \"#utility.yul\":18191:18195   */\n      0x1f\n        /* \"#utility.yul\":18187:18196   */\n      not\n        /* \"#utility.yul\":18179:18185   */\n      dup5\n        /* \"#utility.yul\":18175:18197   */\n      and\n        /* \"#utility.yul\":18225:18262   */\n      tag_344\n        /* \"#utility.yul\":18257:18261   */\n      dup7\n        /* \"#utility.yul\":18225:18262   */\n      tag_155\n      jump\t// in\n    tag_344:\n        /* \"#utility.yul\":18284:18285   */\n      0x00\n        /* \"#utility.yul\":18298:18506   */\n    tag_345:\n        /* \"#utility.yul\":18312:18319   */\n      dup3\n        /* \"#utility.yul\":18309:18310   */\n      dup2\n        /* \"#utility.yul\":18306:18320   */\n      lt\n        /* \"#utility.yul\":18298:18506   */\n      iszero\n      tag_347\n      jumpi\n        /* \"#utility.yul\":18391:18400   */\n      dup5\n        /* \"#utility.yul\":18386:18389   */\n      dup10\n        /* \"#utility.yul\":18382:18401   */\n      add\n        /* \"#utility.yul\":18376:18402   */\n      mload\n        /* \"#utility.yul\":18368:18374   */\n      dup3\n        /* \"#utility.yul\":18361:18403   */\n      sstore\n        /* \"#utility.yul\":18442:18443   */\n      0x01\n        /* \"#utility.yul\":18434:18440   */\n      dup3\n        /* \"#utility.yul\":18430:18444   */\n      add\n        /* \"#utility.yul\":18420:18444   */\n      swap2\n      pop\n        /* \"#utility.yul\":18489:18491   */\n      0x20\n        /* \"#utility.yul\":18478:18487   */\n      dup6\n        /* \"#utility.yul\":18474:18492   */\n      add\n        /* \"#utility.yul\":18461:18492   */\n      swap5\n      pop\n        /* \"#utility.yul\":18335:18339   */\n      0x20\n        /* \"#utility.yul\":18332:18333   */\n      dup2\n        /* \"#utility.yul\":18328:18340   */\n      add\n        /* \"#utility.yul\":18323:18340   */\n      swap1\n      pop\n        /* \"#utility.yul\":18298:18506   */\n      jump(tag_345)\n    tag_347:\n        /* \"#utility.yul\":18534:18540   */\n      dup7\n        /* \"#utility.yul\":18525:18532   */\n      dup4\n        /* \"#utility.yul\":18522:18541   */\n      lt\n        /* \"#utility.yul\":18519:18698   */\n      iszero\n      tag_348\n      jumpi\n        /* \"#utility.yul\":18592:18601   */\n      dup5\n        /* \"#utility.yul\":18587:18590   */\n      dup10\n        /* \"#utility.yul\":18583:18602   */\n      add\n        /* \"#utility.yul\":18577:18603   */\n      mload\n        /* \"#utility.yul\":18635:18683   */\n      tag_349\n        /* \"#utility.yul\":18677:18681   */\n      0x1f\n        /* \"#utility.yul\":18669:18675   */\n      dup10\n        /* \"#utility.yul\":18665:18682   */\n      and\n        /* \"#utility.yul\":18654:18663   */\n      dup3\n        /* \"#utility.yul\":18635:18683   */\n      tag_168\n      jump\t// in\n    tag_349:\n        /* \"#utility.yul\":18627:18633   */\n      dup4\n        /* \"#utility.yul\":18620:18684   */\n      sstore\n        /* \"#utility.yul\":18542:18698   */\n      pop\n        /* \"#utility.yul\":18519:18698   */\n    tag_348:\n        /* \"#utility.yul\":18744:18745   */\n      0x01\n        /* \"#utility.yul\":18740:18741   */\n      0x02\n        /* \"#utility.yul\":18732:18738   */\n      dup9\n        /* \"#utility.yul\":18728:18742   */\n      mul\n        /* \"#utility.yul\":18724:18746   */\n      add\n        /* \"#utility.yul\":18718:18722   */\n      dup9\n        /* \"#utility.yul\":18711:18747   */\n      sstore\n        /* \"#utility.yul\":18146:18757   */\n      pop\n      pop\n      pop\n        /* \"#utility.yul\":18109:18996   */\n    tag_340:\n      pop\n        /* \"#utility.yul\":17699:19002   */\n      pop\n      pop\n      pop\n        /* \"#utility.yul\":17607:19002   */\n      pop\n      pop\n      jump\t// out\n\n    auxdata: 0xa26469706673582212204d55d5bb60c77ec39d367d4472343c349fd35fd1113c5e2a91af2b7e7584f06c64736f6c63430008130033\n}\n",
				"bytecode": {
					"linkReferences": {},
					"object": "608060405260008055600060015534801561001957600080fd5b506114cf806100296000396000f3fe608060405234801561001057600080fd5b50600436106100885760003560e01c8063787b8d471161005b578063787b8d4714610129578063b088981914610145578063e2842d7914610161578063f9bcd5451461017f57610088565b8063143328c21461008d5780635ef618b7146100ab5780636f77926b146100c95780637083b76e146100f9575b600080fd5b61009561019b565b6040516100a29190610c95565b60405180910390f35b6100b36102c5565b6040516100c09190610cc6565b60405180910390f35b6100e360048036038101906100de9190610d21565b6102cf565b6040516100f09190610e2e565b60405180910390f35b610113600480360381019061010e9190610d21565b61041a565b6040516101209190610c95565b60405180910390f35b610143600480360381019061013e9190610d21565b6105af565b005b61015f600480360381019061015a9190610f85565b610725565b005b61016961091d565b60405161017691906110f3565b60405180910390f35b61019960048036038101906101949190610f85565b610985565b005b60606000600154905060008167ffffffffffffffff8111156101c0576101bf610e5a565b5b6040519080825280602002602001820160405280156101f957816020015b6101e6610a87565b8152602001906001900390816101de5790505b50905060005b828110156102bc57600060046000838152602001908152602001600020604051806040016040529081600082015481526020016001820160009054906101000a900473ffffffffffffffffffffffffffffffffffffffff1673ffffffffffffffffffffffffffffffffffffffff1673ffffffffffffffffffffffffffffffffffffffff168152505090508083838151811061029d5761029c611115565b5b60200260200101819052505080806102b490611173565b9150506101ff565b50809250505090565b6000600154905090565b6102d7610ab7565b600260008373ffffffffffffffffffffffffffffffffffffffff1673ffffffffffffffffffffffffffffffffffffffff168152602001908152602001600020604051806060016040529081600082015481526020016001820160009054906101000a900473ffffffffffffffffffffffffffffffffffffffff1673ffffffffffffffffffffffffffffffffffffffff1673ffffffffffffffffffffffffffffffffffffffff168152602001600282018054610391906111ea565b80601f01602080910402602001604051908101604052809291908181526020018280546103bd906111ea565b801561040a5780601f106103df5761010080835404028352916020019161040a565b820191906000526020600020905b8154815290600101906020018083116103ed57829003601f168201915b5050505050815250509050919050565b60606000600360008473ffffffffffffffffffffffffffffffffffffffff1673ffffffffffffffffffffffffffffffffffffffff168152602001908152602001600020905060008180549050905060008167ffffffffffffffff81111561048457610483610e5a565b5b6040519080825280602002602001820160405280156104bd57816020015b6104aa610a87565b8152602001906001900390816104a25790505b50905060005b828110156105a35760008482815481106104e0576104df611115565b5b90600052602060002001549050600060046000838152602001908152602001600020604051806040016040529081600082015481526020016001820160009054906101000a900473ffffffffffffffffffffffffffffffffffffffff1673ffffffffffffffffffffffffffffffffffffffff1673ffffffffffffffffffffffffffffffffffffffff168152505090508084848151811061058357610582611115565b5b60200260200101819052505050808061059b90611173565b9150506104c3565b50809350505050919050565b60006001549050600060405180604001604052808381526020018473ffffffffffffffffffffffffffffffffffffffff16815250905080600460008481526020019081526020016000206000820151816000015560208201518160010160006101000a81548173ffffffffffffffffffffffffffffffffffffffff021916908373ffffffffffffffffffffffffffffffffffffffff1602179055509050506000600360008573ffffffffffffffffffffffffffffffffffffffff1673ffffffffffffffffffffffffffffffffffffffff16815260200190815260200160002090508083908060018154018082558091505060019003906000526020600020016000909190919091505580600360008673ffffffffffffffffffffffffffffffffffffffff1673ffffffffffffffffffffffffffffffffffffffff168152602001908152602001600020908054610706929190610aee565b506001600081548092919061071a90611173565b919050555050505050565b6000600260008473ffffffffffffffffffffffffffffffffffffffff1673ffffffffffffffffffffffffffffffffffffffff168152602001908152602001600020604051806060016040529081600082015481526020016001820160009054906101000a900473ffffffffffffffffffffffffffffffffffffffff1673ffffffffffffffffffffffffffffffffffffffff1673ffffffffffffffffffffffffffffffffffffffff1681526020016002820180546107e1906111ea565b80601f016020809104026020016040519081016040528092919081815260200182805461080d906111ea565b801561085a5780601f1061082f5761010080835404028352916020019161085a565b820191906000526020600020905b81548152906001019060200180831161083d57829003601f168201915b505050505081525050905081816040018190525080600260008573ffffffffffffffffffffffffffffffffffffffff1673ffffffffffffffffffffffffffffffffffffffff1681526020019081526020016000206000820151816000015560208201518160010160006101000a81548173ffffffffffffffffffffffffffffffffffffffff021916908373ffffffffffffffffffffffffffffffffffffffff160217905550604082015181600201908161091491906113c7565b50905050505050565b606060008054905060008167ffffffffffffffff81111561094157610940610e5a565b5b60405190808252806020026020018201604052801561097a57816020015b610967610ab7565b81526020019060019003908161095f5790505b509050809250505090565b600080549050600060405180606001604052808381526020018573ffffffffffffffffffffffffffffffffffffffff16815260200184815250905080600260008673ffffffffffffffffffffffffffffffffffffffff1673ffffffffffffffffffffffffffffffffffffffff1681526020019081526020016000206000820151816000015560208201518160010160006101000a81548173ffffffffffffffffffffffffffffffffffffffff021916908373ffffffffffffffffffffffffffffffffffffffff1602179055506040820151816002019081610a6691906113c7565b50905050600080815480929190610a7c90611173565b919050555050505050565b604051806040016040528060008152602001600073ffffffffffffffffffffffffffffffffffffffff1681525090565b604051806060016040528060008152602001600073ffffffffffffffffffffffffffffffffffffffff168152602001606081525090565b828054828255906000526020600020908101928215610b2f5760005260206000209182015b82811115610b2e578254825591600101919060010190610b13565b5b509050610b3c9190610b40565b5090565b5b80821115610b59576000816000905550600101610b41565b5090565b600081519050919050565b600082825260208201905092915050565b6000819050602082019050919050565b6000819050919050565b610b9c81610b89565b82525050565b600073ffffffffffffffffffffffffffffffffffffffff82169050919050565b6000610bcd82610ba2565b9050919050565b610bdd81610bc2565b82525050565b604082016000820151610bf96000850182610b93565b506020820151610c0c6020850182610bd4565b50505050565b6000610c1e8383610be3565b60408301905092915050565b6000602082019050919050565b6000610c4282610b5d565b610c4c8185610b68565b9350610c5783610b79565b8060005b83811015610c88578151610c6f8882610c12565b9750610c7a83610c2a565b925050600181019050610c5b565b5085935050505092915050565b60006020820190508181036000830152610caf8184610c37565b905092915050565b610cc081610b89565b82525050565b6000602082019050610cdb6000830184610cb7565b92915050565b6000604051905090565b600080fd5b600080fd5b610cfe81610bc2565b8114610d0957600080fd5b50565b600081359050610d1b81610cf5565b92915050565b600060208284031215610d3757610d36610ceb565b5b6000610d4584828501610d0c565b91505092915050565b600081519050919050565b600082825260208201905092915050565b60005b83811015610d88578082015181840152602081019050610d6d565b60008484015250505050565b6000601f19601f8301169050919050565b6000610db082610d4e565b610dba8185610d59565b9350610dca818560208601610d6a565b610dd381610d94565b840191505092915050565b6000606083016000830151610df66000860182610b93565b506020830151610e096020860182610bd4565b5060408301518482036040860152610e218282610da5565b9150508091505092915050565b60006020820190508181036000830152610e488184610dde565b905092915050565b600080fd5b600080fd5b7f4e487b7100000000000000000000000000000000000000000000000000000000600052604160045260246000fd5b610e9282610d94565b810181811067ffffffffffffffff82111715610eb157610eb0610e5a565b5b80604052505050565b6000610ec4610ce1565b9050610ed08282610e89565b919050565b600067ffffffffffffffff821115610ef057610eef610e5a565b5b610ef982610d94565b9050602081019050919050565b82818337600083830152505050565b6000610f28610f2384610ed5565b610eba565b905082815260208101848484011115610f4457610f43610e55565b5b610f4f848285610f06565b509392505050565b600082601f830112610f6c57610f6b610e50565b5b8135610f7c848260208601610f15565b91505092915050565b60008060408385031215610f9c57610f9b610ceb565b5b6000610faa85828601610d0c565b925050602083013567ffffffffffffffff811115610fcb57610fca610cf0565b5b610fd785828601610f57565b9150509250929050565b600081519050919050565b600082825260208201905092915050565b6000819050602082019050919050565b60006060830160008301516110256000860182610b93565b5060208301516110386020860182610bd4565b50604083015184820360408601526110508282610da5565b9150508091505092915050565b6000611069838361100d565b905092915050565b6000602082019050919050565b600061108982610fe1565b6110938185610fec565b9350836020820285016110a585610ffd565b8060005b858110156110e157848403895281516110c2858261105d565b94506110cd83611071565b925060208a019950506001810190506110a9565b50829750879550505050505092915050565b6000602082019050818103600083015261110d818461107e565b905092915050565b7f4e487b7100000000000000000000000000000000000000000000000000000000600052603260045260246000fd5b7f4e487b7100000000000000000000000000000000000000000000000000000000600052601160045260246000fd5b600061117e82610b89565b91507fffffffffffffffffffffffffffffffffffffffffffffffffffffffffffffffff82036111b0576111af611144565b5b600182019050919050565b7f4e487b7100000000000000000000000000000000000000000000000000000000600052602260045260246000fd5b6000600282049050600182168061120257607f821691505b602082108103611215576112146111bb565b5b50919050565b60008190508160005260206000209050919050565b60006020601f8301049050919050565b600082821b905092915050565b60006008830261127d7fffffffffffffffffffffffffffffffffffffffffffffffffffffffffffffffff82611240565b6112878683611240565b95508019841693508086168417925050509392505050565b6000819050919050565b60006112c46112bf6112ba84610b89565b61129f565b610b89565b9050919050565b6000819050919050565b6112de836112a9565b6112f26112ea826112cb565b84845461124d565b825550505050565b600090565b6113076112fa565b6113128184846112d5565b505050565b5b818110156113365761132b6000826112ff565b600181019050611318565b5050565b601f82111561137b5761134c8161121b565b61135584611230565b81016020851015611364578190505b61137861137085611230565b830182611317565b50505b505050565b600082821c905092915050565b600061139e60001984600802611380565b1980831691505092915050565b60006113b7838361138d565b9150826002028217905092915050565b6113d082610d4e565b67ffffffffffffffff8111156113e9576113e8610e5a565b5b6113f382546111ea565b6113fe82828561133a565b600060209050601f831160018114611431576000841561141f578287015190505b61142985826113ab565b865550611491565b601f19841661143f8661121b565b60005b8281101561146757848901518255600182019150602085019450602081019050611442565b868310156114845784890151611480601f89168261138d565b8355505b6001600288020188555050505b50505050505056fea26469706673582212204d55d5bb60c77ec39d367d4472343c349fd35fd1113c5e2a91af2b7e7584f06c64736f6c63430008130033",
					"opcodes": "PUSH1 0x80 PUSH1 0x40 MSTORE PUSH1 0x0 DUP1 SSTORE PUSH1 0x0 PUSH1 0x1 SSTORE CALLVALUE DUP1 ISZERO PUSH2 0x19 JUMPI PUSH1 0x0 DUP1 REVERT JUMPDEST POP PUSH2 0x14CF DUP1 PUSH2 0x29 PUSH1 0x0 CODECOPY PUSH1 0x0 RETURN INVALID PUSH1 0x80 PUSH1 0x40 MSTORE CALLVALUE DUP1 ISZERO PUSH2 0x10 JUMPI PUSH1 0x0 DUP1 REVERT JUMPDEST POP PUSH1 0x4 CALLDATASIZE LT PUSH2 0x88 JUMPI PUSH1 0x0 CALLDATALOAD PUSH1 0xE0 SHR DUP1 PUSH4 0x787B8D47 GT PUSH2 0x5B JUMPI DUP1 PUSH4 0x787B8D47 EQ PUSH2 0x129 JUMPI DUP1 PUSH4 0xB0889819 EQ PUSH2 0x145 JUMPI DUP1 PUSH4 0xE2842D79 EQ PUSH2 0x161 JUMPI DUP1 PUSH4 0xF9BCD545 EQ PUSH2 0x17F JUMPI PUSH2 0x88 JUMP JUMPDEST DUP1 PUSH4 0x143328C2 EQ PUSH2 0x8D JUMPI DUP1 PUSH4 0x5EF618B7 EQ PUSH2 0xAB JUMPI DUP1 PUSH4 0x6F77926B EQ PUSH2 0xC9 JUMPI DUP1 PUSH4 0x7083B76E EQ PUSH2 0xF9 JUMPI JUMPDEST PUSH1 0x0 DUP1 REVERT JUMPDEST PUSH2 0x95 PUSH2 0x19B JUMP JUMPDEST PUSH1 0x40 MLOAD PUSH2 0xA2 SWAP2 SWAP1 PUSH2 0xC95 JUMP JUMPDEST PUSH1 0x40 MLOAD DUP1 SWAP2 SUB SWAP1 RETURN JUMPDEST PUSH2 0xB3 PUSH2 0x2C5 JUMP JUMPDEST PUSH1 0x40 MLOAD PUSH2 0xC0 SWAP2 SWAP1 PUSH2 0xCC6 JUMP JUMPDEST PUSH1 0x40 MLOAD DUP1 SWAP2 SUB SWAP1 RETURN JUMPDEST PUSH2 0xE3 PUSH1 0x4 DUP1 CALLDATASIZE SUB DUP2 ADD SWAP1 PUSH2 0xDE SWAP2 SWAP1 PUSH2 0xD21 JUMP JUMPDEST PUSH2 0x2CF JUMP JUMPDEST PUSH1 0x40 MLOAD PUSH2 0xF0 SWAP2 SWAP1 PUSH2 0xE2E JUMP JUMPDEST PUSH1 0x40 MLOAD DUP1 SWAP2 SUB SWAP1 RETURN JUMPDEST PUSH2 0x113 PUSH1 0x4 DUP1 CALLDATASIZE SUB DUP2 ADD SWAP1 PUSH2 0x10E SWAP2 SWAP1 PUSH2 0xD21 JUMP JUMPDEST PUSH2 0x41A JUMP JUMPDEST PUSH1 0x40 MLOAD PUSH2 0x120 SWAP2 SWAP1 PUSH2 0xC95 JUMP JUMPDEST PUSH1 0x40 MLOAD DUP1 SWAP2 SUB SWAP1 RETURN JUMPDEST PUSH2 0x143 PUSH1 0x4 DUP1 CALLDATASIZE SUB DUP2 ADD SWAP1 PUSH2 0x13E SWAP2 SWAP1 PUSH2 0xD21 JUMP JUMPDEST PUSH2 0x5AF JUMP JUMPDEST STOP JUMPDEST PUSH2 0x15F PUSH1 0x4 DUP1 CALLDATASIZE SUB DUP2 ADD SWAP1 PUSH2 0x15A SWAP2 SWAP1 PUSH2 0xF85 JUMP JUMPDEST PUSH2 0x725 JUMP JUMPDEST STOP JUMPDEST PUSH2 0x169 PUSH2 0x91D JUMP JUMPDEST PUSH1 0x40 MLOAD PUSH2 0x176 SWAP2 SWAP1 PUSH2 0x10F3 JUMP JUMPDEST PUSH1 0x40 MLOAD DUP1 SWAP2 SUB SWAP1 RETURN JUMPDEST PUSH2 0x199 PUSH1 0x4 DUP1 CALLDATASIZE SUB DUP2 ADD SWAP1 PUSH2 0x194 SWAP2 SWAP1 PUSH2 0xF85 JUMP JUMPDEST PUSH2 0x985 JUMP JUMPDEST STOP JUMPDEST PUSH1 0x60 PUSH1 0x0 PUSH1 0x1 SLOAD SWAP1 POP PUSH1 0x0 DUP2 PUSH8 0xFFFFFFFFFFFFFFFF DUP2 GT ISZERO PUSH2 0x1C0 JUMPI PUSH2 0x1BF PUSH2 0xE5A JUMP JUMPDEST JUMPDEST PUSH1 0x40 MLOAD SWAP1 DUP1 DUP3 MSTORE DUP1 PUSH1 0x20 MUL PUSH1 0x20 ADD DUP3 ADD PUSH1 0x40 MSTORE DUP1 ISZERO PUSH2 0x1F9 JUMPI DUP2 PUSH1 0x20 ADD JUMPDEST PUSH2 0x1E6 PUSH2 0xA87 JUMP JUMPDEST DUP2 MSTORE PUSH1 0x20 ADD SWAP1 PUSH1 0x1 SWAP1 SUB SWAP1 DUP2 PUSH2 0x1DE JUMPI SWAP1 POP JUMPDEST POP SWAP1 POP PUSH1 0x0 JUMPDEST DUP3 DUP2 LT ISZERO PUSH2 0x2BC JUMPI PUSH1 0x0 PUSH1 0x4 PUSH1 0x0 DUP4 DUP2 MSTORE PUSH1 0x20 ADD SWAP1 DUP2 MSTORE PUSH1 0x20 ADD PUSH1 0x0 KECCAK256 PUSH1 0x40 MLOAD DUP1 PUSH1 0x40 ADD PUSH1 0x40 MSTORE SWAP1 DUP2 PUSH1 0x0 DUP3 ADD SLOAD DUP2 MSTORE PUSH1 0x20 ADD PUSH1 0x1 DUP3 ADD PUSH1 0x0 SWAP1 SLOAD SWAP1 PUSH2 0x100 EXP SWAP1 DIV PUSH20 0xFFFFFFFFFFFFFFFFFFFFFFFFFFFFFFFFFFFFFFFF AND PUSH20 0xFFFFFFFFFFFFFFFFFFFFFFFFFFFFFFFFFFFFFFFF AND PUSH20 0xFFFFFFFFFFFFFFFFFFFFFFFFFFFFFFFFFFFFFFFF AND DUP2 MSTORE POP POP SWAP1 POP DUP1 DUP4 DUP4 DUP2 MLOAD DUP2 LT PUSH2 0x29D JUMPI PUSH2 0x29C PUSH2 0x1115 JUMP JUMPDEST JUMPDEST PUSH1 0x20 MUL PUSH1 0x20 ADD ADD DUP2 SWAP1 MSTORE POP POP DUP1 DUP1 PUSH2 0x2B4 SWAP1 PUSH2 0x1173 JUMP JUMPDEST SWAP2 POP POP PUSH2 0x1FF JUMP JUMPDEST POP DUP1 SWAP3 POP POP POP SWAP1 JUMP JUMPDEST PUSH1 0x0 PUSH1 0x1 SLOAD SWAP1 POP SWAP1 JUMP JUMPDEST PUSH2 0x2D7 PUSH2 0xAB7 JUMP JUMPDEST PUSH1 0x2 PUSH1 0x0 DUP4 PUSH20 0xFFFFFFFFFFFFFFFFFFFFFFFFFFFFFFFFFFFFFFFF AND PUSH20 0xFFFFFFFFFFFFFFFFFFFFFFFFFFFFFFFFFFFFFFFF AND DUP2 MSTORE PUSH1 0x20 ADD SWAP1 DUP2 MSTORE PUSH1 0x20 ADD PUSH1 0x0 KECCAK256 PUSH1 0x40 MLOAD DUP1 PUSH1 0x60 ADD PUSH1 0x40 MSTORE SWAP1 DUP2 PUSH1 0x0 DUP3 ADD SLOAD DUP2 MSTORE PUSH1 0x20 ADD PUSH1 0x1 DUP3 ADD PUSH1 0x0 SWAP1 SLOAD SWAP1 PUSH2 0x100 EXP SWAP1 DIV PUSH20 0xFFFFFFFFFFFFFFFFFFFFFFFFFFFFFFFFFFFFFFFF AND PUSH20 0xFFFFFFFFFFFFFFFFFFFFFFFFFFFFFFFFFFFFFFFF AND PUSH20 0xFFFFFFFFFFFFFFFFFFFFFFFFFFFFFFFFFFFFFFFF AND DUP2 MSTORE PUSH1 0x20 ADD PUSH1 0x2 DUP3 ADD DUP1 SLOAD PUSH2 0x391 SWAP1 PUSH2 0x11EA JUMP JUMPDEST DUP1 PUSH1 0x1F ADD PUSH1 0x20 DUP1 SWAP2 DIV MUL PUSH1 0x20 ADD PUSH1 0x40 MLOAD SWAP1 DUP2 ADD PUSH1 0x40 MSTORE DUP1 SWAP3 SWAP2 SWAP1 DUP2 DUP2 MSTORE PUSH1 0x20 ADD DUP3 DUP1 SLOAD PUSH2 0x3BD SWAP1 PUSH2 0x11EA JUMP JUMPDEST DUP1 ISZERO PUSH2 0x40A JUMPI DUP1 PUSH1 0x1F LT PUSH2 0x3DF JUMPI PUSH2 0x100 DUP1 DUP4 SLOAD DIV MUL DUP4 MSTORE SWAP2 PUSH1 0x20 ADD SWAP2 PUSH2 0x40A JUMP JUMPDEST DUP3 ADD SWAP2 SWAP1 PUSH1 0x0 MSTORE PUSH1 0x20 PUSH1 0x0 KECCAK256 SWAP1 JUMPDEST DUP2 SLOAD DUP2 MSTORE SWAP1 PUSH1 0x1 ADD SWAP1 PUSH1 0x20 ADD DUP1 DUP4 GT PUSH2 0x3ED JUMPI DUP3 SWAP1 SUB PUSH1 0x1F AND DUP3 ADD SWAP2 JUMPDEST POP POP POP POP POP DUP2 MSTORE POP POP SWAP1 POP SWAP2 SWAP1 POP JUMP JUMPDEST PUSH1 0x60 PUSH1 0x0 PUSH1 0x3 PUSH1 0x0 DUP5 PUSH20 0xFFFFFFFFFFFFFFFFFFFFFFFFFFFFFFFFFFFFFFFF AND PUSH20 0xFFFFFFFFFFFFFFFFFFFFFFFFFFFFFFFFFFFFFFFF AND DUP2 MSTORE PUSH1 0x20 ADD SWAP1 DUP2 MSTORE PUSH1 0x20 ADD PUSH1 0x0 KECCAK256 SWAP1 POP PUSH1 0x0 DUP2 DUP1 SLOAD SWAP1 POP SWAP1 POP PUSH1 0x0 DUP2 PUSH8 0xFFFFFFFFFFFFFFFF DUP2 GT ISZERO PUSH2 0x484 JUMPI PUSH2 0x483 PUSH2 0xE5A JUMP JUMPDEST JUMPDEST PUSH1 0x40 MLOAD SWAP1 DUP1 DUP3 MSTORE DUP1 PUSH1 0x20 MUL PUSH1 0x20 ADD DUP3 ADD PUSH1 0x40 MSTORE DUP1 ISZERO PUSH2 0x4BD JUMPI DUP2 PUSH1 0x20 ADD JUMPDEST PUSH2 0x4AA PUSH2 0xA87 JUMP JUMPDEST DUP2 MSTORE PUSH1 0x20 ADD SWAP1 PUSH1 0x1 SWAP1 SUB SWAP1 DUP2 PUSH2 0x4A2 JUMPI SWAP1 POP JUMPDEST POP SWAP1 POP PUSH1 0x0 JUMPDEST DUP3 DUP2 LT ISZERO PUSH2 0x5A3 JUMPI PUSH1 0x0 DUP5 DUP3 DUP2 SLOAD DUP2 LT PUSH2 0x4E0 JUMPI PUSH2 0x4DF PUSH2 0x1115 JUMP JUMPDEST JUMPDEST SWAP1 PUSH1 0x0 MSTORE PUSH1 0x20 PUSH1 0x0 KECCAK256 ADD SLOAD SWAP1 POP PUSH1 0x0 PUSH1 0x4 PUSH1 0x0 DUP4 DUP2 MSTORE PUSH1 0x20 ADD SWAP1 DUP2 MSTORE PUSH1 0x20 ADD PUSH1 0x0 KECCAK256 PUSH1 0x40 MLOAD DUP1 PUSH1 0x40 ADD PUSH1 0x40 MSTORE SWAP1 DUP2 PUSH1 0x0 DUP3 ADD SLOAD DUP2 MSTORE PUSH1 0x20 ADD PUSH1 0x1 DUP3 ADD PUSH1 0x0 SWAP1 SLOAD SWAP1 PUSH2 0x100 EXP SWAP1 DIV PUSH20 0xFFFFFFFFFFFFFFFFFFFFFFFFFFFFFFFFFFFFFFFF AND PUSH20 0xFFFFFFFFFFFFFFFFFFFFFFFFFFFFFFFFFFFFFFFF AND PUSH20 0xFFFFFFFFFFFFFFFFFFFFFFFFFFFFFFFFFFFFFFFF AND DUP2 MSTORE POP POP SWAP1 POP DUP1 DUP5 DUP5 DUP2 MLOAD DUP2 LT PUSH2 0x583 JUMPI PUSH2 0x582 PUSH2 0x1115 JUMP JUMPDEST JUMPDEST PUSH1 0x20 MUL PUSH1 0x20 ADD ADD DUP2 SWAP1 MSTORE POP POP POP DUP1 DUP1 PUSH2 0x59B SWAP1 PUSH2 0x1173 JUMP JUMPDEST SWAP2 POP POP PUSH2 0x4C3 JUMP JUMPDEST POP DUP1 SWAP4 POP POP POP POP SWAP2 SWAP1 POP JUMP JUMPDEST PUSH1 0x0 PUSH1 0x1 SLOAD SWAP1 POP PUSH1 0x0 PUSH1 0x40 MLOAD DUP1 PUSH1 0x40 ADD PUSH1 0x40 MSTORE DUP1 DUP4 DUP2 MSTORE PUSH1 0x20 ADD DUP5 PUSH20 0xFFFFFFFFFFFFFFFFFFFFFFFFFFFFFFFFFFFFFFFF AND DUP2 MSTORE POP SWAP1 POP DUP1 PUSH1 0x4 PUSH1 0x0 DUP5 DUP2 MSTORE PUSH1 0x20 ADD SWAP1 DUP2 MSTORE PUSH1 0x20 ADD PUSH1 0x0 KECCAK256 PUSH1 0x0 DUP3 ADD MLOAD DUP2 PUSH1 0x0 ADD SSTORE PUSH1 0x20 DUP3 ADD MLOAD DUP2 PUSH1 0x1 ADD PUSH1 0x0 PUSH2 0x100 EXP DUP2 SLOAD DUP2 PUSH20 0xFFFFFFFFFFFFFFFFFFFFFFFFFFFFFFFFFFFFFFFF MUL NOT AND SWAP1 DUP4 PUSH20 0xFFFFFFFFFFFFFFFFFFFFFFFFFFFFFFFFFFFFFFFF AND MUL OR SWAP1 SSTORE POP SWAP1 POP POP PUSH1 0x0 PUSH1 0x3 PUSH1 0x0 DUP6 PUSH20 0xFFFFFFFFFFFFFFFFFFFFFFFFFFFFFFFFFFFFFFFF AND PUSH20 0xFFFFFFFFFFFFFFFFFFFFFFFFFFFFFFFFFFFFFFFF AND DUP2 MSTORE PUSH1 0x20 ADD SWAP1 DUP2 MSTORE PUSH1 0x20 ADD PUSH1 0x0 KECCAK256 SWAP1 POP DUP1 DUP4 SWAP1 DUP1 PUSH1 0x1 DUP2 SLOAD ADD DUP1 DUP3 SSTORE DUP1 SWAP2 POP POP PUSH1 0x1 SWAP1 SUB SWAP1 PUSH1 0x0 MSTORE PUSH1 0x20 PUSH1 0x0 KECCAK256 ADD PUSH1 0x0 SWAP1 SWAP2 SWAP1 SWAP2 SWAP1 SWAP2 POP SSTORE DUP1 PUSH1 0x3 PUSH1 0x0 DUP7 PUSH20 0xFFFFFFFFFFFFFFFFFFFFFFFFFFFFFFFFFFFFFFFF AND PUSH20 0xFFFFFFFFFFFFFFFFFFFFFFFFFFFFFFFFFFFFFFFF AND DUP2 MSTORE PUSH1 0x20 ADD SWAP1 DUP2 MSTORE PUSH1 0x20 ADD PUSH1 0x0 KECCAK256 SWAP1 DUP1 SLOAD PUSH2 0x706 SWAP3 SWAP2 SWAP1 PUSH2 0xAEE JUMP JUMPDEST POP PUSH1 0x1 PUSH1 0x0 DUP2 SLOAD DUP1 SWAP3 SWAP2 SWAP1 PUSH2 0x71A SWAP1 PUSH2 0x1173 JUMP JUMPDEST SWAP2 SWAP1 POP SSTORE POP POP POP POP POP JUMP JUMPDEST PUSH1 0x0 PUSH1 0x2 PUSH1 0x0 DUP5 PUSH20 0xFFFFFFFFFFFFFFFFFFFFFFFFFFFFFFFFFFFFFFFF AND PUSH20 0xFFFFFFFFFFFFFFFFFFFFFFFFFFFFFFFFFFFFFFFF AND DUP2 MSTORE PUSH1 0x20 ADD SWAP1 DUP2 MSTORE PUSH1 0x20 ADD PUSH1 0x0 KECCAK256 PUSH1 0x40 MLOAD DUP1 PUSH1 0x60 ADD PUSH1 0x40 MSTORE SWAP1 DUP2 PUSH1 0x0 DUP3 ADD SLOAD DUP2 MSTORE PUSH1 0x20 ADD PUSH1 0x1 DUP3 ADD PUSH1 0x0 SWAP1 SLOAD SWAP1 PUSH2 0x100 EXP SWAP1 DIV PUSH20 0xFFFFFFFFFFFFFFFFFFFFFFFFFFFFFFFFFFFFFFFF AND PUSH20 0xFFFFFFFFFFFFFFFFFFFFFFFFFFFFFFFFFFFFFFFF AND PUSH20 0xFFFFFFFFFFFFFFFFFFFFFFFFFFFFFFFFFFFFFFFF AND DUP2 MSTORE PUSH1 0x20 ADD PUSH1 0x2 DUP3 ADD DUP1 SLOAD PUSH2 0x7E1 SWAP1 PUSH2 0x11EA JUMP JUMPDEST DUP1 PUSH1 0x1F ADD PUSH1 0x20 DUP1 SWAP2 DIV MUL PUSH1 0x20 ADD PUSH1 0x40 MLOAD SWAP1 DUP2 ADD PUSH1 0x40 MSTORE DUP1 SWAP3 SWAP2 SWAP1 DUP2 DUP2 MSTORE PUSH1 0x20 ADD DUP3 DUP1 SLOAD PUSH2 0x80D SWAP1 PUSH2 0x11EA JUMP JUMPDEST DUP1 ISZERO PUSH2 0x85A JUMPI DUP1 PUSH1 0x1F LT PUSH2 0x82F JUMPI PUSH2 0x100 DUP1 DUP4 SLOAD DIV MUL DUP4 MSTORE SWAP2 PUSH1 0x20 ADD SWAP2 PUSH2 0x85A JUMP JUMPDEST DUP3 ADD SWAP2 SWAP1 PUSH1 0x0 MSTORE PUSH1 0x20 PUSH1 0x0 KECCAK256 SWAP1 JUMPDEST DUP2 SLOAD DUP2 MSTORE SWAP1 PUSH1 0x1 ADD SWAP1 PUSH1 0x20 ADD DUP1 DUP4 GT PUSH2 0x83D JUMPI DUP3 SWAP1 SUB PUSH1 0x1F AND DUP3 ADD SWAP2 JUMPDEST POP POP POP POP POP DUP2 MSTORE POP POP SWAP1 POP DUP2 DUP2 PUSH1 0x40 ADD DUP2 SWAP1 MSTORE POP DUP1 PUSH1 0x2 PUSH1 0x0 DUP6 PUSH20 0xFFFFFFFFFFFFFFFFFFFFFFFFFFFFFFFFFFFFFFFF AND PUSH20 0xFFFFFFFFFFFFFFFFFFFFFFFFFFFFFFFFFFFFFFFF AND DUP2 MSTORE PUSH1 0x20 ADD SWAP1 DUP2 MSTORE PUSH1 0x20 ADD PUSH1 0x0 KECCAK256 PUSH1 0x0 DUP3 ADD MLOAD DUP2 PUSH1 0x0 ADD SSTORE PUSH1 0x20 DUP3 ADD MLOAD DUP2 PUSH1 0x1 ADD PUSH1 0x0 PUSH2 0x100 EXP DUP2 SLOAD DUP2 PUSH20 0xFFFFFFFFFFFFFFFFFFFFFFFFFFFFFFFFFFFFFFFF MUL NOT AND SWAP1 DUP4 PUSH20 0xFFFFFFFFFFFFFFFFFFFFFFFFFFFFFFFFFFFFFFFF AND MUL OR SWAP1 SSTORE POP PUSH1 0x40 DUP3 ADD MLOAD DUP2 PUSH1 0x2 ADD SWAP1 DUP2 PUSH2 0x914 SWAP2 SWAP1 PUSH2 0x13C7 JUMP JUMPDEST POP SWAP1 POP POP POP POP POP JUMP JUMPDEST PUSH1 0x60 PUSH1 0x0 DUP1 SLOAD SWAP1 POP PUSH1 0x0 DUP2 PUSH8 0xFFFFFFFFFFFFFFFF DUP2 GT ISZERO PUSH2 0x941 JUMPI PUSH2 0x940 PUSH2 0xE5A JUMP JUMPDEST JUMPDEST PUSH1 0x40 MLOAD SWAP1 DUP1 DUP3 MSTORE DUP1 PUSH1 0x20 MUL PUSH1 0x20 ADD DUP3 ADD PUSH1 0x40 MSTORE DUP1 ISZERO PUSH2 0x97A JUMPI DUP2 PUSH1 0x20 ADD JUMPDEST PUSH2 0x967 PUSH2 0xAB7 JUMP JUMPDEST DUP2 MSTORE PUSH1 0x20 ADD SWAP1 PUSH1 0x1 SWAP1 SUB SWAP1 DUP2 PUSH2 0x95F JUMPI SWAP1 POP JUMPDEST POP SWAP1 POP DUP1 SWAP3 POP POP POP SWAP1 JUMP JUMPDEST PUSH1 0x0 DUP1 SLOAD SWAP1 POP PUSH1 0x0 PUSH1 0x40 MLOAD DUP1 PUSH1 0x60 ADD PUSH1 0x40 MSTORE DUP1 DUP4 DUP2 MSTORE PUSH1 0x20 ADD DUP6 PUSH20 0xFFFFFFFFFFFFFFFFFFFFFFFFFFFFFFFFFFFFFFFF AND DUP2 MSTORE PUSH1 0x20 ADD DUP5 DUP2 MSTORE POP SWAP1 POP DUP1 PUSH1 0x2 PUSH1 0x0 DUP7 PUSH20 0xFFFFFFFFFFFFFFFFFFFFFFFFFFFFFFFFFFFFFFFF AND PUSH20 0xFFFFFFFFFFFFFFFFFFFFFFFFFFFFFFFFFFFFFFFF AND DUP2 MSTORE PUSH1 0x20 ADD SWAP1 DUP2 MSTORE PUSH1 0x20 ADD PUSH1 0x0 KECCAK256 PUSH1 0x0 DUP3 ADD MLOAD DUP2 PUSH1 0x0 ADD SSTORE PUSH1 0x20 DUP3 ADD MLOAD DUP2 PUSH1 0x1 ADD PUSH1 0x0 PUSH2 0x100 EXP DUP2 SLOAD DUP2 PUSH20 0xFFFFFFFFFFFFFFFFFFFFFFFFFFFFFFFFFFFFFFFF MUL NOT AND SWAP1 DUP4 PUSH20 0xFFFFFFFFFFFFFFFFFFFFFFFFFFFFFFFFFFFFFFFF AND MUL OR SWAP1 SSTORE POP PUSH1 0x40 DUP3 ADD MLOAD DUP2 PUSH1 0x2 ADD SWAP1 DUP2 PUSH2 0xA66 SWAP2 SWAP1 PUSH2 0x13C7 JUMP JUMPDEST POP SWAP1 POP POP PUSH1 0x0 DUP1 DUP2 SLOAD DUP1 SWAP3 SWAP2 SWAP1 PUSH2 0xA7C SWAP1 PUSH2 0x1173 JUMP JUMPDEST SWAP2 SWAP1 POP SSTORE POP POP POP POP POP JUMP JUMPDEST PUSH1 0x40 MLOAD DUP1 PUSH1 0x40 ADD PUSH1 0x40 MSTORE DUP1 PUSH1 0x0 DUP2 MSTORE PUSH1 0x20 ADD PUSH1 0x0 PUSH20 0xFFFFFFFFFFFFFFFFFFFFFFFFFFFFFFFFFFFFFFFF AND DUP2 MSTORE POP SWAP1 JUMP JUMPDEST PUSH1 0x40 MLOAD DUP1 PUSH1 0x60 ADD PUSH1 0x40 MSTORE DUP1 PUSH1 0x0 DUP2 MSTORE PUSH1 0x20 ADD PUSH1 0x0 PUSH20 0xFFFFFFFFFFFFFFFFFFFFFFFFFFFFFFFFFFFFFFFF AND DUP2 MSTORE PUSH1 0x20 ADD PUSH1 0x60 DUP2 MSTORE POP SWAP1 JUMP JUMPDEST DUP3 DUP1 SLOAD DUP3 DUP3 SSTORE SWAP1 PUSH1 0x0 MSTORE PUSH1 0x20 PUSH1 0x0 KECCAK256 SWAP1 DUP2 ADD SWAP3 DUP3 ISZERO PUSH2 0xB2F JUMPI PUSH1 0x0 MSTORE PUSH1 0x20 PUSH1 0x0 KECCAK256 SWAP2 DUP3 ADD JUMPDEST DUP3 DUP2 GT ISZERO PUSH2 0xB2E JUMPI DUP3 SLOAD DUP3 SSTORE SWAP2 PUSH1 0x1 ADD SWAP2 SWAP1 PUSH1 0x1 ADD SWAP1 PUSH2 0xB13 JUMP JUMPDEST JUMPDEST POP SWAP1 POP PUSH2 0xB3C SWAP2 SWAP1 PUSH2 0xB40 JUMP JUMPDEST POP SWAP1 JUMP JUMPDEST JUMPDEST DUP1 DUP3 GT ISZERO PUSH2 0xB59 JUMPI PUSH1 0x0 DUP2 PUSH1 0x0 SWAP1 SSTORE POP PUSH1 0x1 ADD PUSH2 0xB41 JUMP JUMPDEST POP SWAP1 JUMP JUMPDEST PUSH1 0x0 DUP2 MLOAD SWAP1 POP SWAP2 SWAP1 POP JUMP JUMPDEST PUSH1 0x0 DUP3 DUP3 MSTORE PUSH1 0x20 DUP3 ADD SWAP1 POP SWAP3 SWAP2 POP POP JUMP JUMPDEST PUSH1 0x0 DUP2 SWAP1 POP PUSH1 0x20 DUP3 ADD SWAP1 POP SWAP2 SWAP1 POP JUMP JUMPDEST PUSH1 0x0 DUP2 SWAP1 POP SWAP2 SWAP1 POP JUMP JUMPDEST PUSH2 0xB9C DUP2 PUSH2 0xB89 JUMP JUMPDEST DUP3 MSTORE POP POP JUMP JUMPDEST PUSH1 0x0 PUSH20 0xFFFFFFFFFFFFFFFFFFFFFFFFFFFFFFFFFFFFFFFF DUP3 AND SWAP1 POP SWAP2 SWAP1 POP JUMP JUMPDEST PUSH1 0x0 PUSH2 0xBCD DUP3 PUSH2 0xBA2 JUMP JUMPDEST SWAP1 POP SWAP2 SWAP1 POP JUMP JUMPDEST PUSH2 0xBDD DUP2 PUSH2 0xBC2 JUMP JUMPDEST DUP3 MSTORE POP POP JUMP JUMPDEST PUSH1 0x40 DUP3 ADD PUSH1 0x0 DUP3 ADD MLOAD PUSH2 0xBF9 PUSH1 0x0 DUP6 ADD DUP3 PUSH2 0xB93 JUMP JUMPDEST POP PUSH1 0x20 DUP3 ADD MLOAD PUSH2 0xC0C PUSH1 0x20 DUP6 ADD DUP3 PUSH2 0xBD4 JUMP JUMPDEST POP POP POP POP JUMP JUMPDEST PUSH1 0x0 PUSH2 0xC1E DUP4 DUP4 PUSH2 0xBE3 JUMP JUMPDEST PUSH1 0x40 DUP4 ADD SWAP1 POP SWAP3 SWAP2 POP POP JUMP JUMPDEST PUSH1 0x0 PUSH1 0x20 DUP3 ADD SWAP1 POP SWAP2 SWAP1 POP JUMP JUMPDEST PUSH1 0x0 PUSH2 0xC42 DUP3 PUSH2 0xB5D JUMP JUMPDEST PUSH2 0xC4C DUP2 DUP6 PUSH2 0xB68 JUMP JUMPDEST SWAP4 POP PUSH2 0xC57 DUP4 PUSH2 0xB79 JUMP JUMPDEST DUP1 PUSH1 0x0 JUMPDEST DUP4 DUP2 LT ISZERO PUSH2 0xC88 JUMPI DUP2 MLOAD PUSH2 0xC6F DUP9 DUP3 PUSH2 0xC12 JUMP JUMPDEST SWAP8 POP PUSH2 0xC7A DUP4 PUSH2 0xC2A JUMP JUMPDEST SWAP3 POP POP PUSH1 0x1 DUP2 ADD SWAP1 POP PUSH2 0xC5B JUMP JUMPDEST POP DUP6 SWAP4 POP POP POP POP SWAP3 SWAP2 POP POP JUMP JUMPDEST PUSH1 0x0 PUSH1 0x20 DUP3 ADD SWAP1 POP DUP2 DUP2 SUB PUSH1 0x0 DUP4 ADD MSTORE PUSH2 0xCAF DUP2 DUP5 PUSH2 0xC37 JUMP JUMPDEST SWAP1 POP SWAP3 SWAP2 POP POP JUMP JUMPDEST PUSH2 0xCC0 DUP2 PUSH2 0xB89 JUMP JUMPDEST DUP3 MSTORE POP POP JUMP JUMPDEST PUSH1 0x0 PUSH1 0x20 DUP3 ADD SWAP1 POP PUSH2 0xCDB PUSH1 0x0 DUP4 ADD DUP5 PUSH2 0xCB7 JUMP JUMPDEST SWAP3 SWAP2 POP POP JUMP JUMPDEST PUSH1 0x0 PUSH1 0x40 MLOAD SWAP1 POP SWAP1 JUMP JUMPDEST PUSH1 0x0 DUP1 REVERT JUMPDEST PUSH1 0x0 DUP1 REVERT JUMPDEST PUSH2 0xCFE DUP2 PUSH2 0xBC2 JUMP JUMPDEST DUP2 EQ PUSH2 0xD09 JUMPI PUSH1 0x0 DUP1 REVERT JUMPDEST POP JUMP JUMPDEST PUSH1 0x0 DUP2 CALLDATALOAD SWAP1 POP PUSH2 0xD1B DUP2 PUSH2 0xCF5 JUMP JUMPDEST SWAP3 SWAP2 POP POP JUMP JUMPDEST PUSH1 0x0 PUSH1 0x20 DUP3 DUP5 SUB SLT ISZERO PUSH2 0xD37 JUMPI PUSH2 0xD36 PUSH2 0xCEB JUMP JUMPDEST JUMPDEST PUSH1 0x0 PUSH2 0xD45 DUP5 DUP3 DUP6 ADD PUSH2 0xD0C JUMP JUMPDEST SWAP2 POP POP SWAP3 SWAP2 POP POP JUMP JUMPDEST PUSH1 0x0 DUP2 MLOAD SWAP1 POP SWAP2 SWAP1 POP JUMP JUMPDEST PUSH1 0x0 DUP3 DUP3 MSTORE PUSH1 0x20 DUP3 ADD SWAP1 POP SWAP3 SWAP2 POP POP JUMP JUMPDEST PUSH1 0x0 JUMPDEST DUP4 DUP2 LT ISZERO PUSH2 0xD88 JUMPI DUP1 DUP3 ADD MLOAD DUP2 DUP5 ADD MSTORE PUSH1 0x20 DUP2 ADD SWAP1 POP PUSH2 0xD6D JUMP JUMPDEST PUSH1 0x0 DUP5 DUP5 ADD MSTORE POP POP POP POP JUMP JUMPDEST PUSH1 0x0 PUSH1 0x1F NOT PUSH1 0x1F DUP4 ADD AND SWAP1 POP SWAP2 SWAP1 POP JUMP JUMPDEST PUSH1 0x0 PUSH2 0xDB0 DUP3 PUSH2 0xD4E JUMP JUMPDEST PUSH2 0xDBA DUP2 DUP6 PUSH2 0xD59 JUMP JUMPDEST SWAP4 POP PUSH2 0xDCA DUP2 DUP6 PUSH1 0x20 DUP7 ADD PUSH2 0xD6A JUMP JUMPDEST PUSH2 0xDD3 DUP2 PUSH2 0xD94 JUMP JUMPDEST DUP5 ADD SWAP2 POP POP SWAP3 SWAP2 POP POP JUMP JUMPDEST PUSH1 0x0 PUSH1 0x60 DUP4 ADD PUSH1 0x0 DUP4 ADD MLOAD PUSH2 0xDF6 PUSH1 0x0 DUP7 ADD DUP3 PUSH2 0xB93 JUMP JUMPDEST POP PUSH1 0x20 DUP4 ADD MLOAD PUSH2 0xE09 PUSH1 0x20 DUP7 ADD DUP3 PUSH2 0xBD4 JUMP JUMPDEST POP PUSH1 0x40 DUP4 ADD MLOAD DUP5 DUP3 SUB PUSH1 0x40 DUP7 ADD MSTORE PUSH2 0xE21 DUP3 DUP3 PUSH2 0xDA5 JUMP JUMPDEST SWAP2 POP POP DUP1 SWAP2 POP POP SWAP3 SWAP2 POP POP JUMP JUMPDEST PUSH1 0x0 PUSH1 0x20 DUP3 ADD SWAP1 POP DUP2 DUP2 SUB PUSH1 0x0 DUP4 ADD MSTORE PUSH2 0xE48 DUP2 DUP5 PUSH2 0xDDE JUMP JUMPDEST SWAP1 POP SWAP3 SWAP2 POP POP JUMP JUMPDEST PUSH1 0x0 DUP1 REVERT JUMPDEST PUSH1 0x0 DUP1 REVERT JUMPDEST PUSH32 0x4E487B7100000000000000000000000000000000000000000000000000000000 PUSH1 0x0 MSTORE PUSH1 0x41 PUSH1 0x4 MSTORE PUSH1 0x24 PUSH1 0x0 REVERT JUMPDEST PUSH2 0xE92 DUP3 PUSH2 0xD94 JUMP JUMPDEST DUP2 ADD DUP2 DUP2 LT PUSH8 0xFFFFFFFFFFFFFFFF DUP3 GT OR ISZERO PUSH2 0xEB1 JUMPI PUSH2 0xEB0 PUSH2 0xE5A JUMP JUMPDEST JUMPDEST DUP1 PUSH1 0x40 MSTORE POP POP POP JUMP JUMPDEST PUSH1 0x0 PUSH2 0xEC4 PUSH2 0xCE1 JUMP JUMPDEST SWAP1 POP PUSH2 0xED0 DUP3 DUP3 PUSH2 0xE89 JUMP JUMPDEST SWAP2 SWAP1 POP JUMP JUMPDEST PUSH1 0x0 PUSH8 0xFFFFFFFFFFFFFFFF DUP3 GT ISZERO PUSH2 0xEF0 JUMPI PUSH2 0xEEF PUSH2 0xE5A JUMP JUMPDEST JUMPDEST PUSH2 0xEF9 DUP3 PUSH2 0xD94 JUMP JUMPDEST SWAP1 POP PUSH1 0x20 DUP2 ADD SWAP1 POP SWAP2 SWAP1 POP JUMP JUMPDEST DUP3 DUP2 DUP4 CALLDATACOPY PUSH1 0x0 DUP4 DUP4 ADD MSTORE POP POP POP JUMP JUMPDEST PUSH1 0x0 PUSH2 0xF28 PUSH2 0xF23 DUP5 PUSH2 0xED5 JUMP JUMPDEST PUSH2 0xEBA JUMP JUMPDEST SWAP1 POP DUP3 DUP2 MSTORE PUSH1 0x20 DUP2 ADD DUP5 DUP5 DUP5 ADD GT ISZERO PUSH2 0xF44 JUMPI PUSH2 0xF43 PUSH2 0xE55 JUMP JUMPDEST JUMPDEST PUSH2 0xF4F DUP5 DUP3 DUP6 PUSH2 0xF06 JUMP JUMPDEST POP SWAP4 SWAP3 POP POP POP JUMP JUMPDEST PUSH1 0x0 DUP3 PUSH1 0x1F DUP4 ADD SLT PUSH2 0xF6C JUMPI PUSH2 0xF6B PUSH2 0xE50 JUMP JUMPDEST JUMPDEST DUP2 CALLDATALOAD PUSH2 0xF7C DUP5 DUP3 PUSH1 0x20 DUP7 ADD PUSH2 0xF15 JUMP JUMPDEST SWAP2 POP POP SWAP3 SWAP2 POP POP JUMP JUMPDEST PUSH1 0x0 DUP1 PUSH1 0x40 DUP4 DUP6 SUB SLT ISZERO PUSH2 0xF9C JUMPI PUSH2 0xF9B PUSH2 0xCEB JUMP JUMPDEST JUMPDEST PUSH1 0x0 PUSH2 0xFAA DUP6 DUP3 DUP7 ADD PUSH2 0xD0C JUMP JUMPDEST SWAP3 POP POP PUSH1 0x20 DUP4 ADD CALLDATALOAD PUSH8 0xFFFFFFFFFFFFFFFF DUP2 GT ISZERO PUSH2 0xFCB JUMPI PUSH2 0xFCA PUSH2 0xCF0 JUMP JUMPDEST JUMPDEST PUSH2 0xFD7 DUP6 DUP3 DUP7 ADD PUSH2 0xF57 JUMP JUMPDEST SWAP2 POP POP SWAP3 POP SWAP3 SWAP1 POP JUMP JUMPDEST PUSH1 0x0 DUP2 MLOAD SWAP1 POP SWAP2 SWAP1 POP JUMP JUMPDEST PUSH1 0x0 DUP3 DUP3 MSTORE PUSH1 0x20 DUP3 ADD SWAP1 POP SWAP3 SWAP2 POP POP JUMP JUMPDEST PUSH1 0x0 DUP2 SWAP1 POP PUSH1 0x20 DUP3 ADD SWAP1 POP SWAP2 SWAP1 POP JUMP JUMPDEST PUSH1 0x0 PUSH1 0x60 DUP4 ADD PUSH1 0x0 DUP4 ADD MLOAD PUSH2 0x1025 PUSH1 0x0 DUP7 ADD DUP3 PUSH2 0xB93 JUMP JUMPDEST POP PUSH1 0x20 DUP4 ADD MLOAD PUSH2 0x1038 PUSH1 0x20 DUP7 ADD DUP3 PUSH2 0xBD4 JUMP JUMPDEST POP PUSH1 0x40 DUP4 ADD MLOAD DUP5 DUP3 SUB PUSH1 0x40 DUP7 ADD MSTORE PUSH2 0x1050 DUP3 DUP3 PUSH2 0xDA5 JUMP JUMPDEST SWAP2 POP POP DUP1 SWAP2 POP POP SWAP3 SWAP2 POP POP JUMP JUMPDEST PUSH1 0x0 PUSH2 0x1069 DUP4 DUP4 PUSH2 0x100D JUMP JUMPDEST SWAP1 POP SWAP3 SWAP2 POP POP JUMP JUMPDEST PUSH1 0x0 PUSH1 0x20 DUP3 ADD SWAP1 POP SWAP2 SWAP1 POP JUMP JUMPDEST PUSH1 0x0 PUSH2 0x1089 DUP3 PUSH2 0xFE1 JUMP JUMPDEST PUSH2 0x1093 DUP2 DUP6 PUSH2 0xFEC JUMP JUMPDEST SWAP4 POP DUP4 PUSH1 0x20 DUP3 MUL DUP6 ADD PUSH2 0x10A5 DUP6 PUSH2 0xFFD JUMP JUMPDEST DUP1 PUSH1 0x0 JUMPDEST DUP6 DUP2 LT ISZERO PUSH2 0x10E1 JUMPI DUP5 DUP5 SUB DUP10 MSTORE DUP2 MLOAD PUSH2 0x10C2 DUP6 DUP3 PUSH2 0x105D JUMP JUMPDEST SWAP5 POP PUSH2 0x10CD DUP4 PUSH2 0x1071 JUMP JUMPDEST SWAP3 POP PUSH1 0x20 DUP11 ADD SWAP10 POP POP PUSH1 0x1 DUP2 ADD SWAP1 POP PUSH2 0x10A9 JUMP JUMPDEST POP DUP3 SWAP8 POP DUP8 SWAP6 POP POP POP POP POP POP SWAP3 SWAP2 POP POP JUMP JUMPDEST PUSH1 0x0 PUSH1 0x20 DUP3 ADD SWAP1 POP DUP2 DUP2 SUB PUSH1 0x0 DUP4 ADD MSTORE PUSH2 0x110D DUP2 DUP5 PUSH2 0x107E JUMP JUMPDEST SWAP1 POP SWAP3 SWAP2 POP POP JUMP JUMPDEST PUSH32 0x4E487B7100000000000000000000000000000000000000000000000000000000 PUSH1 0x0 MSTORE PUSH1 0x32 PUSH1 0x4 MSTORE PUSH1 0x24 PUSH1 0x0 REVERT JUMPDEST PUSH32 0x4E487B7100000000000000000000000000000000000000000000000000000000 PUSH1 0x0 MSTORE PUSH1 0x11 PUSH1 0x4 MSTORE PUSH1 0x24 PUSH1 0x0 REVERT JUMPDEST PUSH1 0x0 PUSH2 0x117E DUP3 PUSH2 0xB89 JUMP JUMPDEST SWAP2 POP PUSH32 0xFFFFFFFFFFFFFFFFFFFFFFFFFFFFFFFFFFFFFFFFFFFFFFFFFFFFFFFFFFFFFFFF DUP3 SUB PUSH2 0x11B0 JUMPI PUSH2 0x11AF PUSH2 0x1144 JUMP JUMPDEST JUMPDEST PUSH1 0x1 DUP3 ADD SWAP1 POP SWAP2 SWAP1 POP JUMP JUMPDEST PUSH32 0x4E487B7100000000000000000000000000000000000000000000000000000000 PUSH1 0x0 MSTORE PUSH1 0x22 PUSH1 0x4 MSTORE PUSH1 0x24 PUSH1 0x0 REVERT JUMPDEST PUSH1 0x0 PUSH1 0x2 DUP3 DIV SWAP1 POP PUSH1 0x1 DUP3 AND DUP1 PUSH2 0x1202 JUMPI PUSH1 0x7F DUP3 AND SWAP2 POP JUMPDEST PUSH1 0x20 DUP3 LT DUP2 SUB PUSH2 0x1215 JUMPI PUSH2 0x1214 PUSH2 0x11BB JUMP JUMPDEST JUMPDEST POP SWAP2 SWAP1 POP JUMP JUMPDEST PUSH1 0x0 DUP2 SWAP1 POP DUP2 PUSH1 0x0 MSTORE PUSH1 0x20 PUSH1 0x0 KECCAK256 SWAP1 POP SWAP2 SWAP1 POP JUMP JUMPDEST PUSH1 0x0 PUSH1 0x20 PUSH1 0x1F DUP4 ADD DIV SWAP1 POP SWAP2 SWAP1 POP JUMP JUMPDEST PUSH1 0x0 DUP3 DUP3 SHL SWAP1 POP SWAP3 SWAP2 POP POP JUMP JUMPDEST PUSH1 0x0 PUSH1 0x8 DUP4 MUL PUSH2 0x127D PUSH32 0xFFFFFFFFFFFFFFFFFFFFFFFFFFFFFFFFFFFFFFFFFFFFFFFFFFFFFFFFFFFFFFFF DUP3 PUSH2 0x1240 JUMP JUMPDEST PUSH2 0x1287 DUP7 DUP4 PUSH2 0x1240 JUMP JUMPDEST SWAP6 POP DUP1 NOT DUP5 AND SWAP4 POP DUP1 DUP7 AND DUP5 OR SWAP3 POP POP POP SWAP4 SWAP3 POP POP POP JUMP JUMPDEST PUSH1 0x0 DUP2 SWAP1 POP SWAP2 SWAP1 POP JUMP JUMPDEST PUSH1 0x0 PUSH2 0x12C4 PUSH2 0x12BF PUSH2 0x12BA DUP5 PUSH2 0xB89 JUMP JUMPDEST PUSH2 0x129F JUMP JUMPDEST PUSH2 0xB89 JUMP JUMPDEST SWAP1 POP SWAP2 SWAP1 POP JUMP JUMPDEST PUSH1 0x0 DUP2 SWAP1 POP SWAP2 SWAP1 POP JUMP JUMPDEST PUSH2 0x12DE DUP4 PUSH2 0x12A9 JUMP JUMPDEST PUSH2 0x12F2 PUSH2 0x12EA DUP3 PUSH2 0x12CB JUMP JUMPDEST DUP5 DUP5 SLOAD PUSH2 0x124D JUMP JUMPDEST DUP3 SSTORE POP POP POP POP JUMP JUMPDEST PUSH1 0x0 SWAP1 JUMP JUMPDEST PUSH2 0x1307 PUSH2 0x12FA JUMP JUMPDEST PUSH2 0x1312 DUP2 DUP5 DUP5 PUSH2 0x12D5 JUMP JUMPDEST POP POP POP JUMP JUMPDEST JUMPDEST DUP2 DUP2 LT ISZERO PUSH2 0x1336 JUMPI PUSH2 0x132B PUSH1 0x0 DUP3 PUSH2 0x12FF JUMP JUMPDEST PUSH1 0x1 DUP2 ADD SWAP1 POP PUSH2 0x1318 JUMP JUMPDEST POP POP JUMP JUMPDEST PUSH1 0x1F DUP3 GT ISZERO PUSH2 0x137B JUMPI PUSH2 0x134C DUP2 PUSH2 0x121B JUMP JUMPDEST PUSH2 0x1355 DUP5 PUSH2 0x1230 JUMP JUMPDEST DUP2 ADD PUSH1 0x20 DUP6 LT ISZERO PUSH2 0x1364 JUMPI DUP2 SWAP1 POP JUMPDEST PUSH2 0x1378 PUSH2 0x1370 DUP6 PUSH2 0x1230 JUMP JUMPDEST DUP4 ADD DUP3 PUSH2 0x1317 JUMP JUMPDEST POP POP JUMPDEST POP POP POP JUMP JUMPDEST PUSH1 0x0 DUP3 DUP3 SHR SWAP1 POP SWAP3 SWAP2 POP POP JUMP JUMPDEST PUSH1 0x0 PUSH2 0x139E PUSH1 0x0 NOT DUP5 PUSH1 0x8 MUL PUSH2 0x1380 JUMP JUMPDEST NOT DUP1 DUP4 AND SWAP2 POP POP SWAP3 SWAP2 POP POP JUMP JUMPDEST PUSH1 0x0 PUSH2 0x13B7 DUP4 DUP4 PUSH2 0x138D JUMP JUMPDEST SWAP2 POP DUP3 PUSH1 0x2 MUL DUP3 OR SWAP1 POP SWAP3 SWAP2 POP POP JUMP JUMPDEST PUSH2 0x13D0 DUP3 PUSH2 0xD4E JUMP JUMPDEST PUSH8 0xFFFFFFFFFFFFFFFF DUP2 GT ISZERO PUSH2 0x13E9 JUMPI PUSH2 0x13E8 PUSH2 0xE5A JUMP JUMPDEST JUMPDEST PUSH2 0x13F3 DUP3 SLOAD PUSH2 0x11EA JUMP JUMPDEST PUSH2 0x13FE DUP3 DUP3 DUP6 PUSH2 0x133A JUMP JUMPDEST PUSH1 0x0 PUSH1 0x20 SWAP1 POP PUSH1 0x1F DUP4 GT PUSH1 0x1 DUP2 EQ PUSH2 0x1431 JUMPI PUSH1 0x0 DUP5 ISZERO PUSH2 0x141F JUMPI DUP3 DUP8 ADD MLOAD SWAP1 POP JUMPDEST PUSH2 0x1429 DUP6 DUP3 PUSH2 0x13AB JUMP JUMPDEST DUP7 SSTORE POP PUSH2 0x1491 JUMP JUMPDEST PUSH1 0x1F NOT DUP5 AND PUSH2 0x143F DUP7 PUSH2 0x121B JUMP JUMPDEST PUSH1 0x0 JUMPDEST DUP3 DUP2 LT ISZERO PUSH2 0x1467 JUMPI DUP5 DUP10 ADD MLOAD DUP3 SSTORE PUSH1 0x1 DUP3 ADD SWAP2 POP PUSH1 0x20 DUP6 ADD SWAP5 POP PUSH1 0x20 DUP2 ADD SWAP1 POP PUSH2 0x1442 JUMP JUMPDEST DUP7 DUP4 LT ISZERO PUSH2 0x1484 JUMPI DUP5 DUP10 ADD MLOAD PUSH2 0x1480 PUSH1 0x1F DUP10 AND DUP3 PUSH2 0x138D JUMP JUMPDEST DUP4 SSTORE POP JUMPDEST PUSH1 0x1 PUSH1 0x2 DUP9 MUL ADD DUP9 SSTORE POP POP POP JUMPDEST POP POP POP POP POP POP JUMP INVALID LOG2 PUSH5 0x6970667358 0x22 SLT KECCAK256 0x4D SSTORE 0xD5 0xBB PUSH1 0xC7 PUSH31 0xC39D367D4472343C349FD35FD1113C5E2A91AF2B7E7584F06C64736F6C6343 STOP ADDMOD SGT STOP CALLER "
				},
				"gasEstimates": {
					"creation": {
						"codeDepositCost": "1065400",
						"executionCost": "11119",
						"totalCost": "1076519"
					},
					"external": {
						"createEvent(address)": "infinite",
						"createUser(address,string)": "infinite",
						"getAllCreatedEvents()": "infinite",
						"getAllUsers()": "infinite",
						"getEventsOfCreatingUser(address)": "infinite",
						"getNumberOfAllEvents()": "2460",
						"getUser(address)": "infinite",
						"updateUser(address,string)": "infinite"
					}
				},
				"methodIdentifiers": {
					"createEvent(address)": "787b8d47",
					"createUser(address,string)": "f9bcd545",
					"getAllCreatedEvents()": "143328c2",
					"getAllUsers()": "e2842d79",
					"getEventsOfCreatingUser(address)": "7083b76e",
					"getNumberOfAllEvents()": "5ef618b7",
					"getUser(address)": "6f77926b",
					"updateUser(address,string)": "b0889819"
				}
			},
			"storageLayout": {
				"storage": [
					{
						"astId": 4,
						"contract": "StekcitPlayground.sol:StekcitPlayground",
						"label": "currentUserId",
						"offset": 0,
						"slot": "0",
						"type": "t_uint256"
					},
					{
						"astId": 7,
						"contract": "StekcitPlayground.sol:StekcitPlayground",
						"label": "currentEventId",
						"offset": 0,
						"slot": "1",
						"type": "t_uint256"
					},
					{
						"astId": 12,
						"contract": "StekcitPlayground.sol:StekcitPlayground",
						"label": "allUsers",
						"offset": 0,
						"slot": "2",
						"type": "t_mapping(t_address,t_struct(StekcitUser)29_storage)"
					},
					{
						"astId": 17,
						"contract": "StekcitPlayground.sol:StekcitPlayground",
						"label": "eventIdsOfCreatingUser",
						"offset": 0,
						"slot": "3",
						"type": "t_mapping(t_address,t_array(t_uint256)dyn_storage)"
					},
					{
						"astId": 22,
						"contract": "StekcitPlayground.sol:StekcitPlayground",
						"label": "allEvents",
						"offset": 0,
						"slot": "4",
						"type": "t_mapping(t_uint256,t_struct(StekcitEvent)34_storage)"
					}
				],
				"types": {
					"t_address": {
						"encoding": "inplace",
						"label": "address",
						"numberOfBytes": "20"
					},
					"t_array(t_uint256)dyn_storage": {
						"base": "t_uint256",
						"encoding": "dynamic_array",
						"label": "uint256[]",
						"numberOfBytes": "32"
					},
					"t_mapping(t_address,t_array(t_uint256)dyn_storage)": {
						"encoding": "mapping",
						"key": "t_address",
						"label": "mapping(address => uint256[])",
						"numberOfBytes": "32",
						"value": "t_array(t_uint256)dyn_storage"
					},
					"t_mapping(t_address,t_struct(StekcitUser)29_storage)": {
						"encoding": "mapping",
						"key": "t_address",
						"label": "mapping(address => struct StekcitPlayground.StekcitUser)",
						"numberOfBytes": "32",
						"value": "t_struct(StekcitUser)29_storage"
					},
					"t_mapping(t_uint256,t_struct(StekcitEvent)34_storage)": {
						"encoding": "mapping",
						"key": "t_uint256",
						"label": "mapping(uint256 => struct StekcitPlayground.StekcitEvent)",
						"numberOfBytes": "32",
						"value": "t_struct(StekcitEvent)34_storage"
					},
					"t_string_storage": {
						"encoding": "bytes",
						"label": "string",
						"numberOfBytes": "32"
					},
					"t_struct(StekcitEvent)34_storage": {
						"encoding": "inplace",
						"label": "struct StekcitPlayground.StekcitEvent",
						"members": [
							{
								"astId": 31,
								"contract": "StekcitPlayground.sol:StekcitPlayground",
								"label": "id",
								"offset": 0,
								"slot": "0",
								"type": "t_uint256"
							},
							{
								"astId": 33,
								"contract": "StekcitPlayground.sol:StekcitPlayground",
								"label": "creatingUserWalletAddress",
								"offset": 0,
								"slot": "1",
								"type": "t_address"
							}
						],
						"numberOfBytes": "64"
					},
					"t_struct(StekcitUser)29_storage": {
						"encoding": "inplace",
						"label": "struct StekcitPlayground.StekcitUser",
						"members": [
							{
								"astId": 24,
								"contract": "StekcitPlayground.sol:StekcitPlayground",
								"label": "id",
								"offset": 0,
								"slot": "0",
								"type": "t_uint256"
							},
							{
								"astId": 26,
								"contract": "StekcitPlayground.sol:StekcitPlayground",
								"label": "userWalletAddress",
								"offset": 0,
								"slot": "1",
								"type": "t_address"
							},
							{
								"astId": 28,
								"contract": "StekcitPlayground.sol:StekcitPlayground",
								"label": "username",
								"offset": 0,
								"slot": "2",
								"type": "t_string_storage"
							}
						],
						"numberOfBytes": "96"
					},
					"t_uint256": {
						"encoding": "inplace",
						"label": "uint256",
						"numberOfBytes": "32"
					}
				}
			},
			"userdoc": {
				"kind": "user",
				"methods": {},
				"version": 1
			}
		}
	}
}