{
	"data": {
		"bytecode": {
			"linkReferences": {},
			"object": "60e0604052620186a0600c5f6101000a81548163ffffffff021916908363ffffffff1602179055506001600c60046101000a81548161ffff021916908361ffff1602179055506001600c60066101000a81548163ffffffff021916908363ffffffff160217905550730b9d5d9136855f6fec3c0993fee6e9ce8a297846600c600a6101000a81548173ffffffffffffffffffffffffffffffffffffffff021916908373ffffffffffffffffffffffffffffffffffffffff160217905550739345ac54da4d0b5cda8cb749d8ef37e5f02bbb21600d5f6101000a81548173ffffffffffffffffffffffffffffffffffffffff021916908373ffffffffffffffffffffffffffffffffffffffff16021790555034801561011b575f80fd5b50604051613a41380380613a41833981810160405281019061013d9190610286565b600c600a9054906101000a900473ffffffffffffffffffffffffffffffffffffffff16600d5f9054906101000a900473ffffffffffffffffffffffffffffffffffffffff16828073ffffffffffffffffffffffffffffffffffffffff1660808173ffffffffffffffffffffffffffffffffffffffff1681525050508173ffffffffffffffffffffffffffffffffffffffff1660a08173ffffffffffffffffffffffffffffffffffffffff16815250508073ffffffffffffffffffffffffffffffffffffffff1660c08173ffffffffffffffffffffffffffffffffffffffff16815250505050506102b1565b5f80fd5b5f73ffffffffffffffffffffffffffffffffffffffff82169050919050565b5f6102558261022c565b9050919050565b6102658161024b565b811461026f575f80fd5b50565b5f815190506102808161025c565b92915050565b5f6020828403121561029b5761029a610228565b5b5f6102a884828501610272565b91505092915050565b60805160a05160c0516137436102fe5f395f818161047101528181610b75015281816116cd015281816116ee015261180901525f61169101525f81816103af01526115b301526137435ff3fe608060405234801561000f575f80fd5b5060043610610114575f3560e01c8063944f059b116100a0578063d8a4676f1161006f578063d8a4676f146102df578063da905c7914610311578063e0c8628914610341578063f520626f1461035f578063fc2a88c31461038f57610114565b8063944f059b146102305780639681096f14610260578063a168fa8914610290578063b1e21749146102c157610114565b80634b0795a8116100e75780634b0795a81461019e57806352a81eeb146101bc57806381cf3808146101ec5780638796ba8c146101f65780638dc654a21461022657610114565b80630ca76175146101185780631fe543e3146101345780633944ea3a1461015057806343a77ff61461016e575b5f80fd5b610132600480360381019061012d9190612139565b6103ad565b005b61014e600480360381019061014991906122b8565b61046f565b005b61015861050b565b6040516101659190612372565b60405180910390f35b61018860048036038101906101839190612392565b610597565b60405161019591906123cc565b60405180910390f35b6101a66105ac565b6040516101b39190612372565b60405180910390f35b6101d660048036038101906101d191906126eb565b610638565b6040516101e3919061282e565b60405180910390f35b6101f4610703565b005b610210600480360381019061020b9190612392565b610705565b60405161021d91906123cc565b60405180910390f35b61022e610725565b005b61024a60048036038101906102459190612847565b61087f565b60405161025791906128d7565b60405180910390f35b61027a600480360381019061027591906128f7565b610925565b604051610287919061282e565b60405180910390f35b6102aa60048036038101906102a59190612392565b610943565b6040516102b8929190612991565b60405180910390f35b6102c961096f565b6040516102d6919061282e565b60405180910390f35b6102f960048036038101906102f49190612392565b610974565b60405161030893929190612a6f565b60405180910390f35b61032b60048036038101906103269190612847565b610a81565b60405161033891906128d7565b60405180910390f35b610349610b27565b60405161035691906123cc565b60405180910390f35b61037960048036038101906103749190612aab565b610d48565b60405161038691906123cc565b60405180910390f35b610397610dfd565b6040516103a491906123cc565b60405180910390f35b7f000000000000000000000000000000000000000000000000000000000000000073ffffffffffffffffffffffffffffffffffffffff163373ffffffffffffffffffffffffffffffffffffffff1614610432576040517fc6829f8300000000000000000000000000000000000000000000000000000000815260040160405180910390fd5b61043d838383610e03565b827f85e1543bf2f84fe80c6badbce3648c8539ad1df4d2b3d822938ca0538be727e660405160405180910390a2505050565b7f000000000000000000000000000000000000000000000000000000000000000073ffffffffffffffffffffffffffffffffffffffff163373ffffffffffffffffffffffffffffffffffffffff16146104fd576040517f08c379a00000000000000000000000000000000000000000000000000000000081526004016104f490612b99565b60405180910390fd5b6105078282610ea9565b5050565b6001805461051890612be4565b80601f016020809104026020016040519081016040528092919081815260200182805461054490612be4565b801561058f5780601f106105665761010080835404028352916020019161058f565b820191905f5260205f20905b81548152906001019060200180831161057257829003601f168201915b505050505081565b6004602052805f5260405f205f915090505481565b600280546105b990612be4565b80601f01602080910402602001604051908101604052809291908181526020018280546105e590612be4565b80156106305780601f1061060757610100808354040283529160200191610630565b820191905f5260205f20905b81548152906001019060200180831161061357829003601f168201915b505050505081565b5f610641611eac565b6106548b82610f8790919063ffffffff16565b5f8a511115610675576106708a82610f9790919063ffffffff16565b61069e565b5f8867ffffffffffffffff16111561069d5761069c89898361100f9092919063ffffffff16565b5b5b5f875111156106bb576106ba878261111c90919063ffffffff16565b5b5f865111156106d8576106d7868261116390919063ffffffff16565b5b6106ec6106e4826111aa565b8686866115af565b5f819055505f549150509998505050505050505050565b565b600a8181548110610714575f80fd5b905f5260205f20015f915090505481565b5f600c600a9054906101000a900473ffffffffffffffffffffffffffffffffffffffff1690508073ffffffffffffffffffffffffffffffffffffffff1663a9059cbb338373ffffffffffffffffffffffffffffffffffffffff166370a08231306040518263ffffffff1660e01b81526004016107a19190612c53565b602060405180830381865afa1580156107bc573d5f803e3d5ffd5b505050506040513d601f19601f820116820180604052508101906107e09190612c80565b6040518363ffffffff1660e01b81526004016107fd929190612cab565b6020604051808303815f875af1158015610819573d5f803e3d5ffd5b505050506040513d601f19601f8201168201806040525081019061083d9190612cfc565b61087c576040517f08c379a000000000000000000000000000000000000000000000000000000000815260040161087390612d71565b60405180910390fd5b50565b6005602052815f5260405f20602052805f5260405f205f915091505080546108a690612be4565b80601f01602080910402602001604051908101604052809291908181526020018280546108d290612be4565b801561091d5780601f106108f45761010080835404028352916020019161091d565b820191905f5260205f20905b81548152906001019060200180831161090057829003601f168201915b505050505081565b5f610932858585856115af565b5f819055505f549050949350505050565b6003602052805f5260405f205f91509050805f015490806001015f9054906101000a900460ff16905082565b5f5481565b5f8060605f60035f8681526020019081526020015f205f0154116109cd576040517f08c379a00000000000000000000000000000000000000000000000000000000081526004016109c490612dd9565b60405180910390fd5b5f60035f8681526020019081526020015f206040518060600160405290815f8201548152602001600182015f9054906101000a900460ff1615151515815260200160028201805480602002602001604051908101604052809291908181526020018280548015610a5a57602002820191905f5260205f20905b815481526020019060010190808311610a46575b5050505050815250509050805f015181602001518260400151935093509350509193909250565b6006602052815f5260405f20602052805f5260405f205f91509150508054610aa890612be4565b80601f0160208091040260200160405190810160405280929190818152602001828054610ad490612be4565b8015610b1f5780601f10610af657610100808354040283529160200191610b1f565b820191905f5260205f20905b815481529060010190602001808311610b0257829003601f168201915b505050505081565b5f610b66600c5f9054906101000a900463ffffffff16600c60049054906101000a900461ffff16600c60069054906101000a900463ffffffff1661168e565b905060405180606001604052807f000000000000000000000000000000000000000000000000000000000000000073ffffffffffffffffffffffffffffffffffffffff16634306d354600c5f9054906101000a900463ffffffff166040518263ffffffff1660e01b8152600401610bdd9190612e06565b602060405180830381865afa158015610bf8573d5f803e3d5ffd5b505050506040513d601f19601f82011682018060405250810190610c1c9190612c80565b81526020015f151581526020015f67ffffffffffffffff811115610c4357610c42612015565b5b604051908082528060200260200182016040528015610c715781602001602082028036833780820191505090505b5081525060035f8381526020019081526020015f205f820151815f01556020820151816001015f6101000a81548160ff0219169083151502179055506040820151816002019080519060200190610cc9929190611f1b565b50905050600a81908060018154018082558091505060019003905f5260205f20015f909190919091505580600b819055507fcc58b13ad3eab50626c6a6300b1d139cd6ebb1688a7cced9461c2f7e762665ee81600c60069054906101000a900463ffffffff16604051610d3d929190612e1f565b60405180910390a190565b5f8060075490508460065f8381526020019081526020015f205f8081526020019081526020015f209081610d7c9190612fe3565b508360065f8381526020019081526020015f205f600181526020019081526020015f209081610dab9190612fe3565b508260065f8381526020019081526020015f205f600281526020019081526020015f209081610dda9190612fe3565b5060075f815480929190610ded906130df565b9190505550809150509392505050565b600b5481565b825f5414610e4857826040517fd068bf5b000000000000000000000000000000000000000000000000000000008152600401610e3f919061282e565b60405180910390fd5b8160019081610e57919061317e565b508060029081610e67919061317e565b50827f7873807bf6ddc50401cd3d29bbe0decee23fd4d68d273f4b5eb83cded4d2f17260016002604051610e9c9291906132ce565b60405180910390a2505050565b5f60035f8481526020019081526020015f205f015411610efe576040517f08c379a0000000000000000000000000000000000000000000000000000000008152600401610ef590612dd9565b60405180910390fd5b600160035f8481526020019081526020015f206001015f6101000a81548160ff0219169083151502179055508060035f8481526020019081526020015f206002019080519060200190610f52929190611f1b565b50805f81518110610f6657610f65613303565b5b602002602001015160045f8481526020019081526020015f20819055505050565b610f93825f808461189d565b5050565b5f815103610fd1576040517fe889636f00000000000000000000000000000000000000000000000000000000815260040160405180910390fd5b600182602001906002811115610fea57610fe9613330565b5b90816002811115610ffe57610ffd613330565b5b815250508082608001819052505050565b5f61101b610100611943565b90506110656040518060400160405280600681526020017f736c6f74494400000000000000000000000000000000000000000000000000008152508261196890919063ffffffff16565b61107b8360ff168261199090919063ffffffff16565b6110c36040518060400160405280600781526020017f76657273696f6e000000000000000000000000000000000000000000000000008152508261196890919063ffffffff16565b6110d6828261199090919063ffffffff16565b6002846020019060028111156110ef576110ee613330565b5b9081600281111561110357611102613330565b5b81525050805f01515f0151846080018190525050505050565b5f815103611156576040517ffe936cb700000000000000000000000000000000000000000000000000000000815260040160405180910390fd5b808260a001819052505050565b5f81510361119d576040517ffe936cb700000000000000000000000000000000000000000000000000000000815260040160405180910390fd5b808260c001819052505050565b60605f6111b8610100611943565b90506112026040518060400160405280600c81526020017f636f64654c6f636174696f6e00000000000000000000000000000000000000008152508261196890919063ffffffff16565b61122a835f0151600281111561121b5761121a613330565b5b8261199f90919063ffffffff16565b6112726040518060400160405280600881526020017f6c616e67756167650000000000000000000000000000000000000000000000008152508261196890919063ffffffff16565b61129a83604001515f81111561128b5761128a613330565b5b8261199f90919063ffffffff16565b6112e26040518060400160405280600681526020017f736f7572636500000000000000000000000000000000000000000000000000008152508261196890919063ffffffff16565b6112f983606001518261196890919063ffffffff16565b5f8360a001515111156113ad5761134e6040518060400160405280600481526020017f61726773000000000000000000000000000000000000000000000000000000008152508261196890919063ffffffff16565b611357816119ee565b5f5b8360a00151518110156113a2576113978460a0015182815181106113805761137f613303565b5b60200260200101518361196890919063ffffffff16565b806001019050611359565b506113ac81611a16565b5b5f83608001515111156114ec575f60028111156113cd576113cc613330565b5b836020015160028111156113e4576113e3613330565b5b0361141b576040517fa80d31f700000000000000000000000000000000000000000000000000000000815260040160405180910390fd5b6114636040518060400160405280600f81526020017f736563726574734c6f636174696f6e00000000000000000000000000000000008152508261196890919063ffffffff16565b61148c8360200151600281111561147d5761147c613330565b5b8261199f90919063ffffffff16565b6114d46040518060400160405280600781526020017f73656372657473000000000000000000000000000000000000000000000000008152508261196890919063ffffffff16565b6114eb836080015182611a3e90919063ffffffff16565b5b5f8360c001515111156115a0576115416040518060400160405280600981526020017f62797465734172677300000000000000000000000000000000000000000000008152508261196890919063ffffffff16565b61154a816119ee565b5f5b8360c00151518110156115955761158a8460c00151828151811061157357611572613303565b5b602002602001015183611a3e90919063ffffffff16565b80600101905061154c565b5061159f81611a16565b5b805f01515f0151915050919050565b5f807f000000000000000000000000000000000000000000000000000000000000000073ffffffffffffffffffffffffffffffffffffffff1663461d27628688600188886040518663ffffffff1660e01b8152600401611613959493929190613388565b6020604051808303815f875af115801561162f573d5f803e3d5ffd5b505050506040513d601f19601f8201168201806040525081019061165391906133f4565b9050807f1131472297a800fee664d1d89cfa8f7676ff07189ecc53f80bbb5f4969099db860405160405180910390a280915050949350505050565b5f7f000000000000000000000000000000000000000000000000000000000000000073ffffffffffffffffffffffffffffffffffffffff16634000aea07f00000000000000000000000000000000000000000000000000000000000000007f000000000000000000000000000000000000000000000000000000000000000073ffffffffffffffffffffffffffffffffffffffff16634306d354886040518263ffffffff1660e01b81526004016117459190612e06565b602060405180830381865afa158015611760573d5f803e3d5ffd5b505050506040513d601f19601f820116820180604052508101906117849190612c80565b8787876040516020016117999392919061341f565b6040516020818303038152906040526040518463ffffffff1660e01b81526004016117c693929190613454565b6020604051808303815f875af11580156117e2573d5f803e3d5ffd5b505050506040513d601f19601f820116820180604052508101906118069190612cfc565b507f000000000000000000000000000000000000000000000000000000000000000073ffffffffffffffffffffffffffffffffffffffff1663fc2a88c36040518163ffffffff1660e01b8152600401602060405180830381865afa158015611870573d5f803e3d5ffd5b505050506040513d601f19601f820116820180604052508101906118949190612c80565b90509392505050565b5f8151036118d7576040517f22ce3edd00000000000000000000000000000000000000000000000000000000815260040160405180910390fd5b82845f019060028111156118ee576118ed613330565b5b9081600281111561190257611901613330565b5b815250508184604001905f81111561191d5761191c613330565b5b90815f8111156119305761192f613330565b5b8152505080846060018190525050505050565b61194b611f66565b611958815f015183611a66565b505f816020018181525050919050565b6119758260038351611adc565b61198b81835f0151611c7c90919063ffffffff16565b505050565b61199b825f83611adc565b5050565b6119c060026005600660ff16901b17835f0151611c9890919063ffffffff16565b506119ea82826040516020016119d691906123cc565b604051602081830303815290604052611a3e565b5050565b6119f9816004611cff565b600181602001818151611a0c9190613490565b9150818152505050565b611a21816007611cff565b600181602001818151611a3491906134c3565b9150818152505050565b611a4b8260028351611adc565b611a6181835f0151611c7c90919063ffffffff16565b505050565b611a6e611f85565b5f602083611a7c9190613523565b14611aa857602082611a8e9190613523565b6020611a9a91906134c3565b82611aa59190613490565b91505b818360200181815250506040518084525f815282810160200181811015611acd575f80fd5b80604052505082905092915050565b60178167ffffffffffffffff1611611b1657611b108160058460ff16901b60ff1617845f0151611c9890919063ffffffff16565b50611c77565b60ff8167ffffffffffffffff1611611b7257611b48601860058460ff16901b17845f0151611c9890919063ffffffff16565b50611b6c8167ffffffffffffffff166001855f0151611d249092919063ffffffff16565b50611c76565b61ffff8167ffffffffffffffff1611611bcf57611ba5601960058460ff16901b17845f0151611c9890919063ffffffff16565b50611bc98167ffffffffffffffff166002855f0151611d249092919063ffffffff16565b50611c75565b63ffffffff8167ffffffffffffffff1611611c2e57611c04601a60058460ff16901b17845f0151611c9890919063ffffffff16565b50611c288167ffffffffffffffff166004855f0151611d249092919063ffffffff16565b50611c74565b611c4e601b60058460ff16901b17845f0151611c9890919063ffffffff16565b50611c728167ffffffffffffffff166008855f0151611d249092919063ffffffff16565b505b5b5b5b505050565b611c84611f85565b611c9083838451611dad565b905092915050565b611ca0611f85565b5f835f01515190505f600182611cb69190613490565b905084602001518210611cda57611cd985600283611cd49190613553565b611e8a565b5b84516020838201018581538151831115611cf2578282525b5050849250505092915050565b611d1f601f60058360ff16901b17835f0151611c9890919063ffffffff16565b505050565b611d2c611f85565b5f845f01515190505f8184611d419190613490565b90508560200151811115611d6657611d6586600283611d609190613553565b611e8a565b5b5f600185610100611d7791906136c3565b611d8191906134c3565b905086518281018783198251161781528151841115611d9e578382525b50508693505050509392505050565b611db5611f85565b8251821115611dc2575f80fd5b5f845f01515190505f8382611dd79190613490565b90508560200151811115611dfc57611dfb86600283611df69190613553565b611e8a565b5b5f8087518051856020830101935080851115611e16578482525b60208901925050505b60208610611e5d5780518252602082611e389190613490565b9150602081611e479190613490565b9050602086611e5691906134c3565b9550611e1f565b5f6001876020036101000a0390508019825116818451168181178552505050879450505050509392505050565b5f825f01519050611e9b8383611a66565b50611ea68382611c7c565b50505050565b6040518060e001604052805f6002811115611eca57611ec9613330565b5b81526020015f6002811115611ee257611ee1613330565b5b81526020015f80811115611ef957611ef8613330565b5b8152602001606081526020016060815260200160608152602001606081525090565b828054828255905f5260205f20908101928215611f55579160200282015b82811115611f54578251825591602001919060010190611f39565b5b509050611f629190611f9e565b5090565b6040518060400160405280611f79611f85565b81526020015f81525090565b6040518060400160405280606081526020015f81525090565b5b80821115611fb5575f815f905550600101611f9f565b5090565b5f604051905090565b5f80fd5b5f80fd5b5f819050919050565b611fdc81611fca565b8114611fe6575f80fd5b50565b5f81359050611ff781611fd3565b92915050565b5f80fd5b5f80fd5b5f601f19601f8301169050919050565b7f4e487b71000000000000000000000000000000000000000000000000000000005f52604160045260245ffd5b61204b82612005565b810181811067ffffffffffffffff8211171561206a57612069612015565b5b80604052505050565b5f61207c611fb9565b90506120888282612042565b919050565b5f67ffffffffffffffff8211156120a7576120a6612015565b5b6120b082612005565b9050602081019050919050565b828183375f83830152505050565b5f6120dd6120d88461208d565b612073565b9050828152602081018484840111156120f9576120f8612001565b5b6121048482856120bd565b509392505050565b5f82601f8301126121205761211f611ffd565b5b81356121308482602086016120cb565b91505092915050565b5f805f606084860312156121505761214f611fc2565b5b5f61215d86828701611fe9565b935050602084013567ffffffffffffffff81111561217e5761217d611fc6565b5b61218a8682870161210c565b925050604084013567ffffffffffffffff8111156121ab576121aa611fc6565b5b6121b78682870161210c565b9150509250925092565b5f819050919050565b6121d3816121c1565b81146121dd575f80fd5b50565b5f813590506121ee816121ca565b92915050565b5f67ffffffffffffffff82111561220e5761220d612015565b5b602082029050602081019050919050565b5f80fd5b5f612235612230846121f4565b612073565b905080838252602082019050602084028301858111156122585761225761221f565b5b835b81811015612281578061226d88826121e0565b84526020840193505060208101905061225a565b5050509392505050565b5f82601f83011261229f5761229e611ffd565b5b81356122af848260208601612223565b91505092915050565b5f80604083850312156122ce576122cd611fc2565b5b5f6122db858286016121e0565b925050602083013567ffffffffffffffff8111156122fc576122fb611fc6565b5b6123088582860161228b565b9150509250929050565b5f81519050919050565b5f82825260208201905092915050565b8281835e5f83830152505050565b5f61234482612312565b61234e818561231c565b935061235e81856020860161232c565b61236781612005565b840191505092915050565b5f6020820190508181035f83015261238a818461233a565b905092915050565b5f602082840312156123a7576123a6611fc2565b5b5f6123b4848285016121e0565b91505092915050565b6123c6816121c1565b82525050565b5f6020820190506123df5f8301846123bd565b92915050565b5f67ffffffffffffffff8211156123ff576123fe612015565b5b61240882612005565b9050602081019050919050565b5f612427612422846123e5565b612073565b90508281526020810184848401111561244357612442612001565b5b61244e8482856120bd565b509392505050565b5f82601f83011261246a57612469611ffd565b5b813561247a848260208601612415565b91505092915050565b5f60ff82169050919050565b61249881612483565b81146124a2575f80fd5b50565b5f813590506124b38161248f565b92915050565b5f67ffffffffffffffff82169050919050565b6124d5816124b9565b81146124df575f80fd5b50565b5f813590506124f0816124cc565b92915050565b5f67ffffffffffffffff8211156125105761250f612015565b5b602082029050602081019050919050565b5f61253361252e846124f6565b612073565b905080838252602082019050602084028301858111156125565761255561221f565b5b835b8181101561259d57803567ffffffffffffffff81111561257b5761257a611ffd565b5b8086016125888982612456565b85526020850194505050602081019050612558565b5050509392505050565b5f82601f8301126125bb576125ba611ffd565b5b81356125cb848260208601612521565b91505092915050565b5f67ffffffffffffffff8211156125ee576125ed612015565b5b602082029050602081019050919050565b5f61261161260c846125d4565b612073565b905080838252602082019050602084028301858111156126345761263361221f565b5b835b8181101561267b57803567ffffffffffffffff81111561265957612658611ffd565b5b808601612666898261210c565b85526020850194505050602081019050612636565b5050509392505050565b5f82601f83011261269957612698611ffd565b5b81356126a98482602086016125ff565b91505092915050565b5f63ffffffff82169050919050565b6126ca816126b2565b81146126d4575f80fd5b50565b5f813590506126e5816126c1565b92915050565b5f805f805f805f805f6101208a8c03121561270957612708611fc2565b5b5f8a013567ffffffffffffffff81111561272657612725611fc6565b5b6127328c828d01612456565b99505060208a013567ffffffffffffffff81111561275357612752611fc6565b5b61275f8c828d0161210c565b98505060406127708c828d016124a5565b97505060606127818c828d016124e2565b96505060808a013567ffffffffffffffff8111156127a2576127a1611fc6565b5b6127ae8c828d016125a7565b95505060a08a013567ffffffffffffffff8111156127cf576127ce611fc6565b5b6127db8c828d01612685565b94505060c06127ec8c828d016124e2565b93505060e06127fd8c828d016126d7565b92505061010061280f8c828d01611fe9565b9150509295985092959850929598565b61282881611fca565b82525050565b5f6020820190506128415f83018461281f565b92915050565b5f806040838503121561285d5761285c611fc2565b5b5f61286a858286016121e0565b925050602061287b858286016121e0565b9150509250929050565b5f81519050919050565b5f82825260208201905092915050565b5f6128a982612885565b6128b3818561288f565b93506128c381856020860161232c565b6128cc81612005565b840191505092915050565b5f6020820190508181035f8301526128ef818461289f565b905092915050565b5f805f806080858703121561290f5761290e611fc2565b5b5f85013567ffffffffffffffff81111561292c5761292b611fc6565b5b6129388782880161210c565b9450506020612949878288016124e2565b935050604061295a878288016126d7565b925050606061296b87828801611fe9565b91505092959194509250565b5f8115159050919050565b61298b81612977565b82525050565b5f6040820190506129a45f8301856123bd565b6129b16020830184612982565b9392505050565b5f81519050919050565b5f82825260208201905092915050565b5f819050602082019050919050565b6129ea816121c1565b82525050565b5f6129fb83836129e1565b60208301905092915050565b5f602082019050919050565b5f612a1d826129b8565b612a2781856129c2565b9350612a32836129d2565b805f5b83811015612a62578151612a4988826129f0565b9750612a5483612a07565b925050600181019050612a35565b5085935050505092915050565b5f606082019050612a825f8301866123bd565b612a8f6020830185612982565b8181036040830152612aa18184612a13565b9050949350505050565b5f805f60608486031215612ac257612ac1611fc2565b5b5f84013567ffffffffffffffff811115612adf57612ade611fc6565b5b612aeb86828701612456565b935050602084013567ffffffffffffffff811115612b0c57612b0b611fc6565b5b612b1886828701612456565b925050604084013567ffffffffffffffff811115612b3957612b38611fc6565b5b612b4586828701612456565b9150509250925092565b7f6f6e6c792056524620563220777261707065722063616e2066756c66696c6c005f82015250565b5f612b83601f8361288f565b9150612b8e82612b4f565b602082019050919050565b5f6020820190508181035f830152612bb081612b77565b9050919050565b7f4e487b71000000000000000000000000000000000000000000000000000000005f52602260045260245ffd5b5f6002820490506001821680612bfb57607f821691505b602082108103612c0e57612c0d612bb7565b5b50919050565b5f73ffffffffffffffffffffffffffffffffffffffff82169050919050565b5f612c3d82612c14565b9050919050565b612c4d81612c33565b82525050565b5f602082019050612c665f830184612c44565b92915050565b5f81519050612c7a816121ca565b92915050565b5f60208284031215612c9557612c94611fc2565b5b5f612ca284828501612c6c565b91505092915050565b5f604082019050612cbe5f830185612c44565b612ccb60208301846123bd565b9392505050565b612cdb81612977565b8114612ce5575f80fd5b50565b5f81519050612cf681612cd2565b92915050565b5f60208284031215612d1157612d10611fc2565b5b5f612d1e84828501612ce8565b91505092915050565b7f556e61626c6520746f207472616e7366657200000000000000000000000000005f82015250565b5f612d5b60128361288f565b9150612d6682612d27565b602082019050919050565b5f6020820190508181035f830152612d8881612d4f565b9050919050565b7f72657175657374206e6f7420666f756e640000000000000000000000000000005f82015250565b5f612dc360118361288f565b9150612dce82612d8f565b602082019050919050565b5f6020820190508181035f830152612df081612db7565b9050919050565b612e00816126b2565b82525050565b5f602082019050612e195f830184612df7565b92915050565b5f604082019050612e325f8301856123bd565b612e3f6020830184612df7565b9392505050565b5f819050815f5260205f209050919050565b5f6020601f8301049050919050565b5f82821b905092915050565b5f60088302612ea27fffffffffffffffffffffffffffffffffffffffffffffffffffffffffffffffff82612e67565b612eac8683612e67565b95508019841693508086168417925050509392505050565b5f819050919050565b5f612ee7612ee2612edd846121c1565b612ec4565b6121c1565b9050919050565b5f819050919050565b612f0083612ecd565b612f14612f0c82612eee565b848454612e73565b825550505050565b5f90565b612f28612f1c565b612f33818484612ef7565b505050565b5b81811015612f5657612f4b5f82612f20565b600181019050612f39565b5050565b601f821115612f9b57612f6c81612e46565b612f7584612e58565b81016020851015612f84578190505b612f98612f9085612e58565b830182612f38565b50505b505050565b5f82821c905092915050565b5f612fbb5f1984600802612fa0565b1980831691505092915050565b5f612fd38383612fac565b9150826002028217905092915050565b612fec82612885565b67ffffffffffffffff81111561300557613004612015565b5b61300f8254612be4565b61301a828285612f5a565b5f60209050601f83116001811461304b575f8415613039578287015190505b6130438582612fc8565b8655506130aa565b601f19841661305986612e46565b5f5b828110156130805784890151825560018201915060208501945060208101905061305b565b8683101561309d5784890151613099601f891682612fac565b8355505b6001600288020188555050505b505050505050565b7f4e487b71000000000000000000000000000000000000000000000000000000005f52601160045260245ffd5b5f6130e9826121c1565b91507fffffffffffffffffffffffffffffffffffffffffffffffffffffffffffffffff820361311b5761311a6130b2565b5b600182019050919050565b5f819050815f5260205f209050919050565b601f8211156131795761314a81613126565b61315384612e58565b81016020851015613162578190505b61317661316e85612e58565b830182612f38565b50505b505050565b61318782612312565b67ffffffffffffffff8111156131a05761319f612015565b5b6131aa8254612be4565b6131b5828285613138565b5f60209050601f8311600181146131e6575f84156131d4578287015190505b6131de8582612fc8565b865550613245565b601f1984166131f486613126565b5f5b8281101561321b578489015182556001820191506020850194506020810190506131f6565b868310156132385784890151613234601f891682612fac565b8355505b6001600288020188555050505b505050505050565b5f815461325981612be4565b613263818661231c565b9450600182165f811461327d5760018114613293576132c5565b60ff1983168652811515602002860193506132c5565b61329c85613126565b5f5b838110156132bd5781548189015260018201915060208101905061329e565b808801955050505b50505092915050565b5f6040820190508181035f8301526132e6818561324d565b905081810360208301526132fa818461324d565b90509392505050565b7f4e487b71000000000000000000000000000000000000000000000000000000005f52603260045260245ffd5b7f4e487b71000000000000000000000000000000000000000000000000000000005f52602160045260245ffd5b613366816124b9565b82525050565b5f61ffff82169050919050565b6133828161336c565b82525050565b5f60a08201905061339b5f83018861335d565b81810360208301526133ad818761233a565b90506133bc6040830186613379565b6133c96060830185612df7565b6133d6608083018461281f565b9695505050505050565b5f815190506133ee81611fd3565b92915050565b5f6020828403121561340957613408611fc2565b5b5f613416848285016133e0565b91505092915050565b5f6060820190506134325f830186612df7565b61343f6020830185613379565b61344c6040830184612df7565b949350505050565b5f6060820190506134675f830186612c44565b61347460208301856123bd565b8181036040830152613486818461233a565b9050949350505050565b5f61349a826121c1565b91506134a5836121c1565b92508282019050808211156134bd576134bc6130b2565b5b92915050565b5f6134cd826121c1565b91506134d8836121c1565b92508282039050818111156134f0576134ef6130b2565b5b92915050565b7f4e487b71000000000000000000000000000000000000000000000000000000005f52601260045260245ffd5b5f61352d826121c1565b9150613538836121c1565b925082613548576135476134f6565b5b828206905092915050565b5f61355d826121c1565b9150613568836121c1565b9250828202613576816121c1565b9150828204841483151761358d5761358c6130b2565b5b5092915050565b5f8160011c9050919050565b5f808291508390505b60018511156135e9578086048111156135c5576135c46130b2565b5b60018516156135d45780820291505b80810290506135e285613594565b94506135a9565b94509492505050565b5f8261360157600190506136bc565b8161360e575f90506136bc565b8160018114613624576002811461362e5761365d565b60019150506136bc565b60ff8411156136405761363f6130b2565b5b8360020a915084821115613657576136566130b2565b5b506136bc565b5060208310610133831016604e8410600b84101617156136925782820a90508381111561368d5761368c6130b2565b5b6136bc565b61369f84848460016135a0565b925090508184048111156136b6576136b56130b2565b5b81810290505b9392505050565b5f6136cd826121c1565b91506136d8836121c1565b92506137057fffffffffffffffffffffffffffffffffffffffffffffffffffffffffffffffff84846135f2565b90509291505056fea2646970667358221220c27fe397389a3519b851a4f9c240db88aa12ed4f2984530535179167b59812c364736f6c634300081a0033",
			"opcodes": "PUSH1 0xE0 PUSH1 0x40 MSTORE PUSH3 0x186A0 PUSH1 0xC PUSH0 PUSH2 0x100 EXP DUP2 SLOAD DUP2 PUSH4 0xFFFFFFFF MUL NOT AND SWAP1 DUP4 PUSH4 0xFFFFFFFF AND MUL OR SWAP1 SSTORE POP PUSH1 0x1 PUSH1 0xC PUSH1 0x4 PUSH2 0x100 EXP DUP2 SLOAD DUP2 PUSH2 0xFFFF MUL NOT AND SWAP1 DUP4 PUSH2 0xFFFF AND MUL OR SWAP1 SSTORE POP PUSH1 0x1 PUSH1 0xC PUSH1 0x6 PUSH2 0x100 EXP DUP2 SLOAD DUP2 PUSH4 0xFFFFFFFF MUL NOT AND SWAP1 DUP4 PUSH4 0xFFFFFFFF AND MUL OR SWAP1 SSTORE POP PUSH20 0xB9D5D9136855F6FEC3C0993FEE6E9CE8A297846 PUSH1 0xC PUSH1 0xA PUSH2 0x100 EXP DUP2 SLOAD DUP2 PUSH20 0xFFFFFFFFFFFFFFFFFFFFFFFFFFFFFFFFFFFFFFFF MUL NOT AND SWAP1 DUP4 PUSH20 0xFFFFFFFFFFFFFFFFFFFFFFFFFFFFFFFFFFFFFFFF AND MUL OR SWAP1 SSTORE POP PUSH20 0x9345AC54DA4D0B5CDA8CB749D8EF37E5F02BBB21 PUSH1 0xD PUSH0 PUSH2 0x100 EXP DUP2 SLOAD DUP2 PUSH20 0xFFFFFFFFFFFFFFFFFFFFFFFFFFFFFFFFFFFFFFFF MUL NOT AND SWAP1 DUP4 PUSH20 0xFFFFFFFFFFFFFFFFFFFFFFFFFFFFFFFFFFFFFFFF AND MUL OR SWAP1 SSTORE POP CALLVALUE DUP1 ISZERO PUSH2 0x11B JUMPI PUSH0 DUP1 REVERT JUMPDEST POP PUSH1 0x40 MLOAD PUSH2 0x3A41 CODESIZE SUB DUP1 PUSH2 0x3A41 DUP4 CODECOPY DUP2 DUP2 ADD PUSH1 0x40 MSTORE DUP2 ADD SWAP1 PUSH2 0x13D SWAP2 SWAP1 PUSH2 0x286 JUMP JUMPDEST PUSH1 0xC PUSH1 0xA SWAP1 SLOAD SWAP1 PUSH2 0x100 EXP SWAP1 DIV PUSH20 0xFFFFFFFFFFFFFFFFFFFFFFFFFFFFFFFFFFFFFFFF AND PUSH1 0xD PUSH0 SWAP1 SLOAD SWAP1 PUSH2 0x100 EXP SWAP1 DIV PUSH20 0xFFFFFFFFFFFFFFFFFFFFFFFFFFFFFFFFFFFFFFFF AND DUP3 DUP1 PUSH20 0xFFFFFFFFFFFFFFFFFFFFFFFFFFFFFFFFFFFFFFFF AND PUSH1 0x80 DUP2 PUSH20 0xFFFFFFFFFFFFFFFFFFFFFFFFFFFFFFFFFFFFFFFF AND DUP2 MSTORE POP POP POP DUP2 PUSH20 0xFFFFFFFFFFFFFFFFFFFFFFFFFFFFFFFFFFFFFFFF AND PUSH1 0xA0 DUP2 PUSH20 0xFFFFFFFFFFFFFFFFFFFFFFFFFFFFFFFFFFFFFFFF AND DUP2 MSTORE POP POP DUP1 PUSH20 0xFFFFFFFFFFFFFFFFFFFFFFFFFFFFFFFFFFFFFFFF AND PUSH1 0xC0 DUP2 PUSH20 0xFFFFFFFFFFFFFFFFFFFFFFFFFFFFFFFFFFFFFFFF AND DUP2 MSTORE POP POP POP POP POP PUSH2 0x2B1 JUMP JUMPDEST PUSH0 DUP1 REVERT JUMPDEST PUSH0 PUSH20 0xFFFFFFFFFFFFFFFFFFFFFFFFFFFFFFFFFFFFFFFF DUP3 AND SWAP1 POP SWAP2 SWAP1 POP JUMP JUMPDEST PUSH0 PUSH2 0x255 DUP3 PUSH2 0x22C JUMP JUMPDEST SWAP1 POP SWAP2 SWAP1 POP JUMP JUMPDEST PUSH2 0x265 DUP2 PUSH2 0x24B JUMP JUMPDEST DUP2 EQ PUSH2 0x26F JUMPI PUSH0 DUP1 REVERT JUMPDEST POP JUMP JUMPDEST PUSH0 DUP2 MLOAD SWAP1 POP PUSH2 0x280 DUP2 PUSH2 0x25C JUMP JUMPDEST SWAP3 SWAP2 POP POP JUMP JUMPDEST PUSH0 PUSH1 0x20 DUP3 DUP5 SUB SLT ISZERO PUSH2 0x29B JUMPI PUSH2 0x29A PUSH2 0x228 JUMP JUMPDEST JUMPDEST PUSH0 PUSH2 0x2A8 DUP5 DUP3 DUP6 ADD PUSH2 0x272 JUMP JUMPDEST SWAP2 POP POP SWAP3 SWAP2 POP POP JUMP JUMPDEST PUSH1 0x80 MLOAD PUSH1 0xA0 MLOAD PUSH1 0xC0 MLOAD PUSH2 0x3743 PUSH2 0x2FE PUSH0 CODECOPY PUSH0 DUP2 DUP2 PUSH2 0x471 ADD MSTORE DUP2 DUP2 PUSH2 0xB75 ADD MSTORE DUP2 DUP2 PUSH2 0x16CD ADD MSTORE DUP2 DUP2 PUSH2 0x16EE ADD MSTORE PUSH2 0x1809 ADD MSTORE PUSH0 PUSH2 0x1691 ADD MSTORE PUSH0 DUP2 DUP2 PUSH2 0x3AF ADD MSTORE PUSH2 0x15B3 ADD MSTORE PUSH2 0x3743 PUSH0 RETURN INVALID PUSH1 0x80 PUSH1 0x40 MSTORE CALLVALUE DUP1 ISZERO PUSH2 0xF JUMPI PUSH0 DUP1 REVERT JUMPDEST POP PUSH1 0x4 CALLDATASIZE LT PUSH2 0x114 JUMPI PUSH0 CALLDATALOAD PUSH1 0xE0 SHR DUP1 PUSH4 0x944F059B GT PUSH2 0xA0 JUMPI DUP1 PUSH4 0xD8A4676F GT PUSH2 0x6F JUMPI DUP1 PUSH4 0xD8A4676F EQ PUSH2 0x2DF JUMPI DUP1 PUSH4 0xDA905C79 EQ PUSH2 0x311 JUMPI DUP1 PUSH4 0xE0C86289 EQ PUSH2 0x341 JUMPI DUP1 PUSH4 0xF520626F EQ PUSH2 0x35F JUMPI DUP1 PUSH4 0xFC2A88C3 EQ PUSH2 0x38F JUMPI PUSH2 0x114 JUMP JUMPDEST DUP1 PUSH4 0x944F059B EQ PUSH2 0x230 JUMPI DUP1 PUSH4 0x9681096F EQ PUSH2 0x260 JUMPI DUP1 PUSH4 0xA168FA89 EQ PUSH2 0x290 JUMPI DUP1 PUSH4 0xB1E21749 EQ PUSH2 0x2C1 JUMPI PUSH2 0x114 JUMP JUMPDEST DUP1 PUSH4 0x4B0795A8 GT PUSH2 0xE7 JUMPI DUP1 PUSH4 0x4B0795A8 EQ PUSH2 0x19E JUMPI DUP1 PUSH4 0x52A81EEB EQ PUSH2 0x1BC JUMPI DUP1 PUSH4 0x81CF3808 EQ PUSH2 0x1EC JUMPI DUP1 PUSH4 0x8796BA8C EQ PUSH2 0x1F6 JUMPI DUP1 PUSH4 0x8DC654A2 EQ PUSH2 0x226 JUMPI PUSH2 0x114 JUMP JUMPDEST DUP1 PUSH4 0xCA76175 EQ PUSH2 0x118 JUMPI DUP1 PUSH4 0x1FE543E3 EQ PUSH2 0x134 JUMPI DUP1 PUSH4 0x3944EA3A EQ PUSH2 0x150 JUMPI DUP1 PUSH4 0x43A77FF6 EQ PUSH2 0x16E JUMPI JUMPDEST PUSH0 DUP1 REVERT JUMPDEST PUSH2 0x132 PUSH1 0x4 DUP1 CALLDATASIZE SUB DUP2 ADD SWAP1 PUSH2 0x12D SWAP2 SWAP1 PUSH2 0x2139 JUMP JUMPDEST PUSH2 0x3AD JUMP JUMPDEST STOP JUMPDEST PUSH2 0x14E PUSH1 0x4 DUP1 CALLDATASIZE SUB DUP2 ADD SWAP1 PUSH2 0x149 SWAP2 SWAP1 PUSH2 0x22B8 JUMP JUMPDEST PUSH2 0x46F JUMP JUMPDEST STOP JUMPDEST PUSH2 0x158 PUSH2 0x50B JUMP JUMPDEST PUSH1 0x40 MLOAD PUSH2 0x165 SWAP2 SWAP1 PUSH2 0x2372 JUMP JUMPDEST PUSH1 0x40 MLOAD DUP1 SWAP2 SUB SWAP1 RETURN JUMPDEST PUSH2 0x188 PUSH1 0x4 DUP1 CALLDATASIZE SUB DUP2 ADD SWAP1 PUSH2 0x183 SWAP2 SWAP1 PUSH2 0x2392 JUMP JUMPDEST PUSH2 0x597 JUMP JUMPDEST PUSH1 0x40 MLOAD PUSH2 0x195 SWAP2 SWAP1 PUSH2 0x23CC JUMP JUMPDEST PUSH1 0x40 MLOAD DUP1 SWAP2 SUB SWAP1 RETURN JUMPDEST PUSH2 0x1A6 PUSH2 0x5AC JUMP JUMPDEST PUSH1 0x40 MLOAD PUSH2 0x1B3 SWAP2 SWAP1 PUSH2 0x2372 JUMP JUMPDEST PUSH1 0x40 MLOAD DUP1 SWAP2 SUB SWAP1 RETURN JUMPDEST PUSH2 0x1D6 PUSH1 0x4 DUP1 CALLDATASIZE SUB DUP2 ADD SWAP1 PUSH2 0x1D1 SWAP2 SWAP1 PUSH2 0x26EB JUMP JUMPDEST PUSH2 0x638 JUMP JUMPDEST PUSH1 0x40 MLOAD PUSH2 0x1E3 SWAP2 SWAP1 PUSH2 0x282E JUMP JUMPDEST PUSH1 0x40 MLOAD DUP1 SWAP2 SUB SWAP1 RETURN JUMPDEST PUSH2 0x1F4 PUSH2 0x703 JUMP JUMPDEST STOP JUMPDEST PUSH2 0x210 PUSH1 0x4 DUP1 CALLDATASIZE SUB DUP2 ADD SWAP1 PUSH2 0x20B SWAP2 SWAP1 PUSH2 0x2392 JUMP JUMPDEST PUSH2 0x705 JUMP JUMPDEST PUSH1 0x40 MLOAD PUSH2 0x21D SWAP2 SWAP1 PUSH2 0x23CC JUMP JUMPDEST PUSH1 0x40 MLOAD DUP1 SWAP2 SUB SWAP1 RETURN JUMPDEST PUSH2 0x22E PUSH2 0x725 JUMP JUMPDEST STOP JUMPDEST PUSH2 0x24A PUSH1 0x4 DUP1 CALLDATASIZE SUB DUP2 ADD SWAP1 PUSH2 0x245 SWAP2 SWAP1 PUSH2 0x2847 JUMP JUMPDEST PUSH2 0x87F JUMP JUMPDEST PUSH1 0x40 MLOAD PUSH2 0x257 SWAP2 SWAP1 PUSH2 0x28D7 JUMP JUMPDEST PUSH1 0x40 MLOAD DUP1 SWAP2 SUB SWAP1 RETURN JUMPDEST PUSH2 0x27A PUSH1 0x4 DUP1 CALLDATASIZE SUB DUP2 ADD SWAP1 PUSH2 0x275 SWAP2 SWAP1 PUSH2 0x28F7 JUMP JUMPDEST PUSH2 0x925 JUMP JUMPDEST PUSH1 0x40 MLOAD PUSH2 0x287 SWAP2 SWAP1 PUSH2 0x282E JUMP JUMPDEST PUSH1 0x40 MLOAD DUP1 SWAP2 SUB SWAP1 RETURN JUMPDEST PUSH2 0x2AA PUSH1 0x4 DUP1 CALLDATASIZE SUB DUP2 ADD SWAP1 PUSH2 0x2A5 SWAP2 SWAP1 PUSH2 0x2392 JUMP JUMPDEST PUSH2 0x943 JUMP JUMPDEST PUSH1 0x40 MLOAD PUSH2 0x2B8 SWAP3 SWAP2 SWAP1 PUSH2 0x2991 JUMP JUMPDEST PUSH1 0x40 MLOAD DUP1 SWAP2 SUB SWAP1 RETURN JUMPDEST PUSH2 0x2C9 PUSH2 0x96F JUMP JUMPDEST PUSH1 0x40 MLOAD PUSH2 0x2D6 SWAP2 SWAP1 PUSH2 0x282E JUMP JUMPDEST PUSH1 0x40 MLOAD DUP1 SWAP2 SUB SWAP1 RETURN JUMPDEST PUSH2 0x2F9 PUSH1 0x4 DUP1 CALLDATASIZE SUB DUP2 ADD SWAP1 PUSH2 0x2F4 SWAP2 SWAP1 PUSH2 0x2392 JUMP JUMPDEST PUSH2 0x974 JUMP JUMPDEST PUSH1 0x40 MLOAD PUSH2 0x308 SWAP4 SWAP3 SWAP2 SWAP1 PUSH2 0x2A6F JUMP JUMPDEST PUSH1 0x40 MLOAD DUP1 SWAP2 SUB SWAP1 RETURN JUMPDEST PUSH2 0x32B PUSH1 0x4 DUP1 CALLDATASIZE SUB DUP2 ADD SWAP1 PUSH2 0x326 SWAP2 SWAP1 PUSH2 0x2847 JUMP JUMPDEST PUSH2 0xA81 JUMP JUMPDEST PUSH1 0x40 MLOAD PUSH2 0x338 SWAP2 SWAP1 PUSH2 0x28D7 JUMP JUMPDEST PUSH1 0x40 MLOAD DUP1 SWAP2 SUB SWAP1 RETURN JUMPDEST PUSH2 0x349 PUSH2 0xB27 JUMP JUMPDEST PUSH1 0x40 MLOAD PUSH2 0x356 SWAP2 SWAP1 PUSH2 0x23CC JUMP JUMPDEST PUSH1 0x40 MLOAD DUP1 SWAP2 SUB SWAP1 RETURN JUMPDEST PUSH2 0x379 PUSH1 0x4 DUP1 CALLDATASIZE SUB DUP2 ADD SWAP1 PUSH2 0x374 SWAP2 SWAP1 PUSH2 0x2AAB JUMP JUMPDEST PUSH2 0xD48 JUMP JUMPDEST PUSH1 0x40 MLOAD PUSH2 0x386 SWAP2 SWAP1 PUSH2 0x23CC JUMP JUMPDEST PUSH1 0x40 MLOAD DUP1 SWAP2 SUB SWAP1 RETURN JUMPDEST PUSH2 0x397 PUSH2 0xDFD JUMP JUMPDEST PUSH1 0x40 MLOAD PUSH2 0x3A4 SWAP2 SWAP1 PUSH2 0x23CC JUMP JUMPDEST PUSH1 0x40 MLOAD DUP1 SWAP2 SUB SWAP1 RETURN JUMPDEST PUSH32 0x0 PUSH20 0xFFFFFFFFFFFFFFFFFFFFFFFFFFFFFFFFFFFFFFFF AND CALLER PUSH20 0xFFFFFFFFFFFFFFFFFFFFFFFFFFFFFFFFFFFFFFFF AND EQ PUSH2 0x432 JUMPI PUSH1 0x40 MLOAD PUSH32 0xC6829F8300000000000000000000000000000000000000000000000000000000 DUP2 MSTORE PUSH1 0x4 ADD PUSH1 0x40 MLOAD DUP1 SWAP2 SUB SWAP1 REVERT JUMPDEST PUSH2 0x43D DUP4 DUP4 DUP4 PUSH2 0xE03 JUMP JUMPDEST DUP3 PUSH32 0x85E1543BF2F84FE80C6BADBCE3648C8539AD1DF4D2B3D822938CA0538BE727E6 PUSH1 0x40 MLOAD PUSH1 0x40 MLOAD DUP1 SWAP2 SUB SWAP1 LOG2 POP POP POP JUMP JUMPDEST PUSH32 0x0 PUSH20 0xFFFFFFFFFFFFFFFFFFFFFFFFFFFFFFFFFFFFFFFF AND CALLER PUSH20 0xFFFFFFFFFFFFFFFFFFFFFFFFFFFFFFFFFFFFFFFF AND EQ PUSH2 0x4FD JUMPI PUSH1 0x40 MLOAD PUSH32 0x8C379A000000000000000000000000000000000000000000000000000000000 DUP2 MSTORE PUSH1 0x4 ADD PUSH2 0x4F4 SWAP1 PUSH2 0x2B99 JUMP JUMPDEST PUSH1 0x40 MLOAD DUP1 SWAP2 SUB SWAP1 REVERT JUMPDEST PUSH2 0x507 DUP3 DUP3 PUSH2 0xEA9 JUMP JUMPDEST POP POP JUMP JUMPDEST PUSH1 0x1 DUP1 SLOAD PUSH2 0x518 SWAP1 PUSH2 0x2BE4 JUMP JUMPDEST DUP1 PUSH1 0x1F ADD PUSH1 0x20 DUP1 SWAP2 DIV MUL PUSH1 0x20 ADD PUSH1 0x40 MLOAD SWAP1 DUP2 ADD PUSH1 0x40 MSTORE DUP1 SWAP3 SWAP2 SWAP1 DUP2 DUP2 MSTORE PUSH1 0x20 ADD DUP3 DUP1 SLOAD PUSH2 0x544 SWAP1 PUSH2 0x2BE4 JUMP JUMPDEST DUP1 ISZERO PUSH2 0x58F JUMPI DUP1 PUSH1 0x1F LT PUSH2 0x566 JUMPI PUSH2 0x100 DUP1 DUP4 SLOAD DIV MUL DUP4 MSTORE SWAP2 PUSH1 0x20 ADD SWAP2 PUSH2 0x58F JUMP JUMPDEST DUP3 ADD SWAP2 SWAP1 PUSH0 MSTORE PUSH1 0x20 PUSH0 KECCAK256 SWAP1 JUMPDEST DUP2 SLOAD DUP2 MSTORE SWAP1 PUSH1 0x1 ADD SWAP1 PUSH1 0x20 ADD DUP1 DUP4 GT PUSH2 0x572 JUMPI DUP3 SWAP1 SUB PUSH1 0x1F AND DUP3 ADD SWAP2 JUMPDEST POP POP POP POP POP DUP2 JUMP JUMPDEST PUSH1 0x4 PUSH1 0x20 MSTORE DUP1 PUSH0 MSTORE PUSH1 0x40 PUSH0 KECCAK256 PUSH0 SWAP2 POP SWAP1 POP SLOAD DUP2 JUMP JUMPDEST PUSH1 0x2 DUP1 SLOAD PUSH2 0x5B9 SWAP1 PUSH2 0x2BE4 JUMP JUMPDEST DUP1 PUSH1 0x1F ADD PUSH1 0x20 DUP1 SWAP2 DIV MUL PUSH1 0x20 ADD PUSH1 0x40 MLOAD SWAP1 DUP2 ADD PUSH1 0x40 MSTORE DUP1 SWAP3 SWAP2 SWAP1 DUP2 DUP2 MSTORE PUSH1 0x20 ADD DUP3 DUP1 SLOAD PUSH2 0x5E5 SWAP1 PUSH2 0x2BE4 JUMP JUMPDEST DUP1 ISZERO PUSH2 0x630 JUMPI DUP1 PUSH1 0x1F LT PUSH2 0x607 JUMPI PUSH2 0x100 DUP1 DUP4 SLOAD DIV MUL DUP4 MSTORE SWAP2 PUSH1 0x20 ADD SWAP2 PUSH2 0x630 JUMP JUMPDEST DUP3 ADD SWAP2 SWAP1 PUSH0 MSTORE PUSH1 0x20 PUSH0 KECCAK256 SWAP1 JUMPDEST DUP2 SLOAD DUP2 MSTORE SWAP1 PUSH1 0x1 ADD SWAP1 PUSH1 0x20 ADD DUP1 DUP4 GT PUSH2 0x613 JUMPI DUP3 SWAP1 SUB PUSH1 0x1F AND DUP3 ADD SWAP2 JUMPDEST POP POP POP POP POP DUP2 JUMP JUMPDEST PUSH0 PUSH2 0x641 PUSH2 0x1EAC JUMP JUMPDEST PUSH2 0x654 DUP12 DUP3 PUSH2 0xF87 SWAP1 SWAP2 SWAP1 PUSH4 0xFFFFFFFF AND JUMP JUMPDEST PUSH0 DUP11 MLOAD GT ISZERO PUSH2 0x675 JUMPI PUSH2 0x670 DUP11 DUP3 PUSH2 0xF97 SWAP1 SWAP2 SWAP1 PUSH4 0xFFFFFFFF AND JUMP JUMPDEST PUSH2 0x69E JUMP JUMPDEST PUSH0 DUP9 PUSH8 0xFFFFFFFFFFFFFFFF AND GT ISZERO PUSH2 0x69D JUMPI PUSH2 0x69C DUP10 DUP10 DUP4 PUSH2 0x100F SWAP1 SWAP3 SWAP2 SWAP1 PUSH4 0xFFFFFFFF AND JUMP JUMPDEST JUMPDEST JUMPDEST PUSH0 DUP8 MLOAD GT ISZERO PUSH2 0x6BB JUMPI PUSH2 0x6BA DUP8 DUP3 PUSH2 0x111C SWAP1 SWAP2 SWAP1 PUSH4 0xFFFFFFFF AND JUMP JUMPDEST JUMPDEST PUSH0 DUP7 MLOAD GT ISZERO PUSH2 0x6D8 JUMPI PUSH2 0x6D7 DUP7 DUP3 PUSH2 0x1163 SWAP1 SWAP2 SWAP1 PUSH4 0xFFFFFFFF AND JUMP JUMPDEST JUMPDEST PUSH2 0x6EC PUSH2 0x6E4 DUP3 PUSH2 0x11AA JUMP JUMPDEST DUP7 DUP7 DUP7 PUSH2 0x15AF JUMP JUMPDEST PUSH0 DUP2 SWAP1 SSTORE POP PUSH0 SLOAD SWAP2 POP POP SWAP10 SWAP9 POP POP POP POP POP POP POP POP POP JUMP JUMPDEST JUMP JUMPDEST PUSH1 0xA DUP2 DUP2 SLOAD DUP2 LT PUSH2 0x714 JUMPI PUSH0 DUP1 REVERT JUMPDEST SWAP1 PUSH0 MSTORE PUSH1 0x20 PUSH0 KECCAK256 ADD PUSH0 SWAP2 POP SWAP1 POP SLOAD DUP2 JUMP JUMPDEST PUSH0 PUSH1 0xC PUSH1 0xA SWAP1 SLOAD SWAP1 PUSH2 0x100 EXP SWAP1 DIV PUSH20 0xFFFFFFFFFFFFFFFFFFFFFFFFFFFFFFFFFFFFFFFF AND SWAP1 POP DUP1 PUSH20 0xFFFFFFFFFFFFFFFFFFFFFFFFFFFFFFFFFFFFFFFF AND PUSH4 0xA9059CBB CALLER DUP4 PUSH20 0xFFFFFFFFFFFFFFFFFFFFFFFFFFFFFFFFFFFFFFFF AND PUSH4 0x70A08231 ADDRESS PUSH1 0x40 MLOAD DUP3 PUSH4 0xFFFFFFFF AND PUSH1 0xE0 SHL DUP2 MSTORE PUSH1 0x4 ADD PUSH2 0x7A1 SWAP2 SWAP1 PUSH2 0x2C53 JUMP JUMPDEST PUSH1 0x20 PUSH1 0x40 MLOAD DUP1 DUP4 SUB DUP2 DUP7 GAS STATICCALL ISZERO DUP1 ISZERO PUSH2 0x7BC JUMPI RETURNDATASIZE PUSH0 DUP1 RETURNDATACOPY RETURNDATASIZE PUSH0 REVERT JUMPDEST POP POP POP POP PUSH1 0x40 MLOAD RETURNDATASIZE PUSH1 0x1F NOT PUSH1 0x1F DUP3 ADD AND DUP3 ADD DUP1 PUSH1 0x40 MSTORE POP DUP2 ADD SWAP1 PUSH2 0x7E0 SWAP2 SWAP1 PUSH2 0x2C80 JUMP JUMPDEST PUSH1 0x40 MLOAD DUP4 PUSH4 0xFFFFFFFF AND PUSH1 0xE0 SHL DUP2 MSTORE PUSH1 0x4 ADD PUSH2 0x7FD SWAP3 SWAP2 SWAP1 PUSH2 0x2CAB JUMP JUMPDEST PUSH1 0x20 PUSH1 0x40 MLOAD DUP1 DUP4 SUB DUP2 PUSH0 DUP8 GAS CALL ISZERO DUP1 ISZERO PUSH2 0x819 JUMPI RETURNDATASIZE PUSH0 DUP1 RETURNDATACOPY RETURNDATASIZE PUSH0 REVERT JUMPDEST POP POP POP POP PUSH1 0x40 MLOAD RETURNDATASIZE PUSH1 0x1F NOT PUSH1 0x1F DUP3 ADD AND DUP3 ADD DUP1 PUSH1 0x40 MSTORE POP DUP2 ADD SWAP1 PUSH2 0x83D SWAP2 SWAP1 PUSH2 0x2CFC JUMP JUMPDEST PUSH2 0x87C JUMPI PUSH1 0x40 MLOAD PUSH32 0x8C379A000000000000000000000000000000000000000000000000000000000 DUP2 MSTORE PUSH1 0x4 ADD PUSH2 0x873 SWAP1 PUSH2 0x2D71 JUMP JUMPDEST PUSH1 0x40 MLOAD DUP1 SWAP2 SUB SWAP1 REVERT JUMPDEST POP JUMP JUMPDEST PUSH1 0x5 PUSH1 0x20 MSTORE DUP2 PUSH0 MSTORE PUSH1 0x40 PUSH0 KECCAK256 PUSH1 0x20 MSTORE DUP1 PUSH0 MSTORE PUSH1 0x40 PUSH0 KECCAK256 PUSH0 SWAP2 POP SWAP2 POP POP DUP1 SLOAD PUSH2 0x8A6 SWAP1 PUSH2 0x2BE4 JUMP JUMPDEST DUP1 PUSH1 0x1F ADD PUSH1 0x20 DUP1 SWAP2 DIV MUL PUSH1 0x20 ADD PUSH1 0x40 MLOAD SWAP1 DUP2 ADD PUSH1 0x40 MSTORE DUP1 SWAP3 SWAP2 SWAP1 DUP2 DUP2 MSTORE PUSH1 0x20 ADD DUP3 DUP1 SLOAD PUSH2 0x8D2 SWAP1 PUSH2 0x2BE4 JUMP JUMPDEST DUP1 ISZERO PUSH2 0x91D JUMPI DUP1 PUSH1 0x1F LT PUSH2 0x8F4 JUMPI PUSH2 0x100 DUP1 DUP4 SLOAD DIV MUL DUP4 MSTORE SWAP2 PUSH1 0x20 ADD SWAP2 PUSH2 0x91D JUMP JUMPDEST DUP3 ADD SWAP2 SWAP1 PUSH0 MSTORE PUSH1 0x20 PUSH0 KECCAK256 SWAP1 JUMPDEST DUP2 SLOAD DUP2 MSTORE SWAP1 PUSH1 0x1 ADD SWAP1 PUSH1 0x20 ADD DUP1 DUP4 GT PUSH2 0x900 JUMPI DUP3 SWAP1 SUB PUSH1 0x1F AND DUP3 ADD SWAP2 JUMPDEST POP POP POP POP POP DUP2 JUMP JUMPDEST PUSH0 PUSH2 0x932 DUP6 DUP6 DUP6 DUP6 PUSH2 0x15AF JUMP JUMPDEST PUSH0 DUP2 SWAP1 SSTORE POP PUSH0 SLOAD SWAP1 POP SWAP5 SWAP4 POP POP POP POP JUMP JUMPDEST PUSH1 0x3 PUSH1 0x20 MSTORE DUP1 PUSH0 MSTORE PUSH1 0x40 PUSH0 KECCAK256 PUSH0 SWAP2 POP SWAP1 POP DUP1 PUSH0 ADD SLOAD SWAP1 DUP1 PUSH1 0x1 ADD PUSH0 SWAP1 SLOAD SWAP1 PUSH2 0x100 EXP SWAP1 DIV PUSH1 0xFF AND SWAP1 POP DUP3 JUMP JUMPDEST PUSH0 SLOAD DUP2 JUMP JUMPDEST PUSH0 DUP1 PUSH1 0x60 PUSH0 PUSH1 0x3 PUSH0 DUP7 DUP2 MSTORE PUSH1 0x20 ADD SWAP1 DUP2 MSTORE PUSH1 0x20 ADD PUSH0 KECCAK256 PUSH0 ADD SLOAD GT PUSH2 0x9CD JUMPI PUSH1 0x40 MLOAD PUSH32 0x8C379A000000000000000000000000000000000000000000000000000000000 DUP2 MSTORE PUSH1 0x4 ADD PUSH2 0x9C4 SWAP1 PUSH2 0x2DD9 JUMP JUMPDEST PUSH1 0x40 MLOAD DUP1 SWAP2 SUB SWAP1 REVERT JUMPDEST PUSH0 PUSH1 0x3 PUSH0 DUP7 DUP2 MSTORE PUSH1 0x20 ADD SWAP1 DUP2 MSTORE PUSH1 0x20 ADD PUSH0 KECCAK256 PUSH1 0x40 MLOAD DUP1 PUSH1 0x60 ADD PUSH1 0x40 MSTORE SWAP1 DUP2 PUSH0 DUP3 ADD SLOAD DUP2 MSTORE PUSH1 0x20 ADD PUSH1 0x1 DUP3 ADD PUSH0 SWAP1 SLOAD SWAP1 PUSH2 0x100 EXP SWAP1 DIV PUSH1 0xFF AND ISZERO ISZERO ISZERO ISZERO DUP2 MSTORE PUSH1 0x20 ADD PUSH1 0x2 DUP3 ADD DUP1 SLOAD DUP1 PUSH1 0x20 MUL PUSH1 0x20 ADD PUSH1 0x40 MLOAD SWAP1 DUP2 ADD PUSH1 0x40 MSTORE DUP1 SWAP3 SWAP2 SWAP1 DUP2 DUP2 MSTORE PUSH1 0x20 ADD DUP3 DUP1 SLOAD DUP1 ISZERO PUSH2 0xA5A JUMPI PUSH1 0x20 MUL DUP3 ADD SWAP2 SWAP1 PUSH0 MSTORE PUSH1 0x20 PUSH0 KECCAK256 SWAP1 JUMPDEST DUP2 SLOAD DUP2 MSTORE PUSH1 0x20 ADD SWAP1 PUSH1 0x1 ADD SWAP1 DUP1 DUP4 GT PUSH2 0xA46 JUMPI JUMPDEST POP POP POP POP POP DUP2 MSTORE POP POP SWAP1 POP DUP1 PUSH0 ADD MLOAD DUP2 PUSH1 0x20 ADD MLOAD DUP3 PUSH1 0x40 ADD MLOAD SWAP4 POP SWAP4 POP SWAP4 POP POP SWAP2 SWAP4 SWAP1 SWAP3 POP JUMP JUMPDEST PUSH1 0x6 PUSH1 0x20 MSTORE DUP2 PUSH0 MSTORE PUSH1 0x40 PUSH0 KECCAK256 PUSH1 0x20 MSTORE DUP1 PUSH0 MSTORE PUSH1 0x40 PUSH0 KECCAK256 PUSH0 SWAP2 POP SWAP2 POP POP DUP1 SLOAD PUSH2 0xAA8 SWAP1 PUSH2 0x2BE4 JUMP JUMPDEST DUP1 PUSH1 0x1F ADD PUSH1 0x20 DUP1 SWAP2 DIV MUL PUSH1 0x20 ADD PUSH1 0x40 MLOAD SWAP1 DUP2 ADD PUSH1 0x40 MSTORE DUP1 SWAP3 SWAP2 SWAP1 DUP2 DUP2 MSTORE PUSH1 0x20 ADD DUP3 DUP1 SLOAD PUSH2 0xAD4 SWAP1 PUSH2 0x2BE4 JUMP JUMPDEST DUP1 ISZERO PUSH2 0xB1F JUMPI DUP1 PUSH1 0x1F LT PUSH2 0xAF6 JUMPI PUSH2 0x100 DUP1 DUP4 SLOAD DIV MUL DUP4 MSTORE SWAP2 PUSH1 0x20 ADD SWAP2 PUSH2 0xB1F JUMP JUMPDEST DUP3 ADD SWAP2 SWAP1 PUSH0 MSTORE PUSH1 0x20 PUSH0 KECCAK256 SWAP1 JUMPDEST DUP2 SLOAD DUP2 MSTORE SWAP1 PUSH1 0x1 ADD SWAP1 PUSH1 0x20 ADD DUP1 DUP4 GT PUSH2 0xB02 JUMPI DUP3 SWAP1 SUB PUSH1 0x1F AND DUP3 ADD SWAP2 JUMPDEST POP POP POP POP POP DUP2 JUMP JUMPDEST PUSH0 PUSH2 0xB66 PUSH1 0xC PUSH0 SWAP1 SLOAD SWAP1 PUSH2 0x100 EXP SWAP1 DIV PUSH4 0xFFFFFFFF AND PUSH1 0xC PUSH1 0x4 SWAP1 SLOAD SWAP1 PUSH2 0x100 EXP SWAP1 DIV PUSH2 0xFFFF AND PUSH1 0xC PUSH1 0x6 SWAP1 SLOAD SWAP1 PUSH2 0x100 EXP SWAP1 DIV PUSH4 0xFFFFFFFF AND PUSH2 0x168E JUMP JUMPDEST SWAP1 POP PUSH1 0x40 MLOAD DUP1 PUSH1 0x60 ADD PUSH1 0x40 MSTORE DUP1 PUSH32 0x0 PUSH20 0xFFFFFFFFFFFFFFFFFFFFFFFFFFFFFFFFFFFFFFFF AND PUSH4 0x4306D354 PUSH1 0xC PUSH0 SWAP1 SLOAD SWAP1 PUSH2 0x100 EXP SWAP1 DIV PUSH4 0xFFFFFFFF AND PUSH1 0x40 MLOAD DUP3 PUSH4 0xFFFFFFFF AND PUSH1 0xE0 SHL DUP2 MSTORE PUSH1 0x4 ADD PUSH2 0xBDD SWAP2 SWAP1 PUSH2 0x2E06 JUMP JUMPDEST PUSH1 0x20 PUSH1 0x40 MLOAD DUP1 DUP4 SUB DUP2 DUP7 GAS STATICCALL ISZERO DUP1 ISZERO PUSH2 0xBF8 JUMPI RETURNDATASIZE PUSH0 DUP1 RETURNDATACOPY RETURNDATASIZE PUSH0 REVERT JUMPDEST POP POP POP POP PUSH1 0x40 MLOAD RETURNDATASIZE PUSH1 0x1F NOT PUSH1 0x1F DUP3 ADD AND DUP3 ADD DUP1 PUSH1 0x40 MSTORE POP DUP2 ADD SWAP1 PUSH2 0xC1C SWAP2 SWAP1 PUSH2 0x2C80 JUMP JUMPDEST DUP2 MSTORE PUSH1 0x20 ADD PUSH0 ISZERO ISZERO DUP2 MSTORE PUSH1 0x20 ADD PUSH0 PUSH8 0xFFFFFFFFFFFFFFFF DUP2 GT ISZERO PUSH2 0xC43 JUMPI PUSH2 0xC42 PUSH2 0x2015 JUMP JUMPDEST JUMPDEST PUSH1 0x40 MLOAD SWAP1 DUP1 DUP3 MSTORE DUP1 PUSH1 0x20 MUL PUSH1 0x20 ADD DUP3 ADD PUSH1 0x40 MSTORE DUP1 ISZERO PUSH2 0xC71 JUMPI DUP2 PUSH1 0x20 ADD PUSH1 0x20 DUP3 MUL DUP1 CALLDATASIZE DUP4 CALLDATACOPY DUP1 DUP3 ADD SWAP2 POP POP SWAP1 POP JUMPDEST POP DUP2 MSTORE POP PUSH1 0x3 PUSH0 DUP4 DUP2 MSTORE PUSH1 0x20 ADD SWAP1 DUP2 MSTORE PUSH1 0x20 ADD PUSH0 KECCAK256 PUSH0 DUP3 ADD MLOAD DUP2 PUSH0 ADD SSTORE PUSH1 0x20 DUP3 ADD MLOAD DUP2 PUSH1 0x1 ADD PUSH0 PUSH2 0x100 EXP DUP2 SLOAD DUP2 PUSH1 0xFF MUL NOT AND SWAP1 DUP4 ISZERO ISZERO MUL OR SWAP1 SSTORE POP PUSH1 0x40 DUP3 ADD MLOAD DUP2 PUSH1 0x2 ADD SWAP1 DUP1 MLOAD SWAP1 PUSH1 0x20 ADD SWAP1 PUSH2 0xCC9 SWAP3 SWAP2 SWAP1 PUSH2 0x1F1B JUMP JUMPDEST POP SWAP1 POP POP PUSH1 0xA DUP2 SWAP1 DUP1 PUSH1 0x1 DUP2 SLOAD ADD DUP1 DUP3 SSTORE DUP1 SWAP2 POP POP PUSH1 0x1 SWAP1 SUB SWAP1 PUSH0 MSTORE PUSH1 0x20 PUSH0 KECCAK256 ADD PUSH0 SWAP1 SWAP2 SWAP1 SWAP2 SWAP1 SWAP2 POP SSTORE DUP1 PUSH1 0xB DUP2 SWAP1 SSTORE POP PUSH32 0xCC58B13AD3EAB50626C6A6300B1D139CD6EBB1688A7CCED9461C2F7E762665EE DUP2 PUSH1 0xC PUSH1 0x6 SWAP1 SLOAD SWAP1 PUSH2 0x100 EXP SWAP1 DIV PUSH4 0xFFFFFFFF AND PUSH1 0x40 MLOAD PUSH2 0xD3D SWAP3 SWAP2 SWAP1 PUSH2 0x2E1F JUMP JUMPDEST PUSH1 0x40 MLOAD DUP1 SWAP2 SUB SWAP1 LOG1 SWAP1 JUMP JUMPDEST PUSH0 DUP1 PUSH1 0x7 SLOAD SWAP1 POP DUP5 PUSH1 0x6 PUSH0 DUP4 DUP2 MSTORE PUSH1 0x20 ADD SWAP1 DUP2 MSTORE PUSH1 0x20 ADD PUSH0 KECCAK256 PUSH0 DUP1 DUP2 MSTORE PUSH1 0x20 ADD SWAP1 DUP2 MSTORE PUSH1 0x20 ADD PUSH0 KECCAK256 SWAP1 DUP2 PUSH2 0xD7C SWAP2 SWAP1 PUSH2 0x2FE3 JUMP JUMPDEST POP DUP4 PUSH1 0x6 PUSH0 DUP4 DUP2 MSTORE PUSH1 0x20 ADD SWAP1 DUP2 MSTORE PUSH1 0x20 ADD PUSH0 KECCAK256 PUSH0 PUSH1 0x1 DUP2 MSTORE PUSH1 0x20 ADD SWAP1 DUP2 MSTORE PUSH1 0x20 ADD PUSH0 KECCAK256 SWAP1 DUP2 PUSH2 0xDAB SWAP2 SWAP1 PUSH2 0x2FE3 JUMP JUMPDEST POP DUP3 PUSH1 0x6 PUSH0 DUP4 DUP2 MSTORE PUSH1 0x20 ADD SWAP1 DUP2 MSTORE PUSH1 0x20 ADD PUSH0 KECCAK256 PUSH0 PUSH1 0x2 DUP2 MSTORE PUSH1 0x20 ADD SWAP1 DUP2 MSTORE PUSH1 0x20 ADD PUSH0 KECCAK256 SWAP1 DUP2 PUSH2 0xDDA SWAP2 SWAP1 PUSH2 0x2FE3 JUMP JUMPDEST POP PUSH1 0x7 PUSH0 DUP2 SLOAD DUP1 SWAP3 SWAP2 SWAP1 PUSH2 0xDED SWAP1 PUSH2 0x30DF JUMP JUMPDEST SWAP2 SWAP1 POP SSTORE POP DUP1 SWAP2 POP POP SWAP4 SWAP3 POP POP POP JUMP JUMPDEST PUSH1 0xB SLOAD DUP2 JUMP JUMPDEST DUP3 PUSH0 SLOAD EQ PUSH2 0xE48 JUMPI DUP3 PUSH1 0x40 MLOAD PUSH32 0xD068BF5B00000000000000000000000000000000000000000000000000000000 DUP2 MSTORE PUSH1 0x4 ADD PUSH2 0xE3F SWAP2 SWAP1 PUSH2 0x282E JUMP JUMPDEST PUSH1 0x40 MLOAD DUP1 SWAP2 SUB SWAP1 REVERT JUMPDEST DUP2 PUSH1 0x1 SWAP1 DUP2 PUSH2 0xE57 SWAP2 SWAP1 PUSH2 0x317E JUMP JUMPDEST POP DUP1 PUSH1 0x2 SWAP1 DUP2 PUSH2 0xE67 SWAP2 SWAP1 PUSH2 0x317E JUMP JUMPDEST POP DUP3 PUSH32 0x7873807BF6DDC50401CD3D29BBE0DECEE23FD4D68D273F4B5EB83CDED4D2F172 PUSH1 0x1 PUSH1 0x2 PUSH1 0x40 MLOAD PUSH2 0xE9C SWAP3 SWAP2 SWAP1 PUSH2 0x32CE JUMP JUMPDEST PUSH1 0x40 MLOAD DUP1 SWAP2 SUB SWAP1 LOG2 POP POP POP JUMP JUMPDEST PUSH0 PUSH1 0x3 PUSH0 DUP5 DUP2 MSTORE PUSH1 0x20 ADD SWAP1 DUP2 MSTORE PUSH1 0x20 ADD PUSH0 KECCAK256 PUSH0 ADD SLOAD GT PUSH2 0xEFE JUMPI PUSH1 0x40 MLOAD PUSH32 0x8C379A000000000000000000000000000000000000000000000000000000000 DUP2 MSTORE PUSH1 0x4 ADD PUSH2 0xEF5 SWAP1 PUSH2 0x2DD9 JUMP JUMPDEST PUSH1 0x40 MLOAD DUP1 SWAP2 SUB SWAP1 REVERT JUMPDEST PUSH1 0x1 PUSH1 0x3 PUSH0 DUP5 DUP2 MSTORE PUSH1 0x20 ADD SWAP1 DUP2 MSTORE PUSH1 0x20 ADD PUSH0 KECCAK256 PUSH1 0x1 ADD PUSH0 PUSH2 0x100 EXP DUP2 SLOAD DUP2 PUSH1 0xFF MUL NOT AND SWAP1 DUP4 ISZERO ISZERO MUL OR SWAP1 SSTORE POP DUP1 PUSH1 0x3 PUSH0 DUP5 DUP2 MSTORE PUSH1 0x20 ADD SWAP1 DUP2 MSTORE PUSH1 0x20 ADD PUSH0 KECCAK256 PUSH1 0x2 ADD SWAP1 DUP1 MLOAD SWAP1 PUSH1 0x20 ADD SWAP1 PUSH2 0xF52 SWAP3 SWAP2 SWAP1 PUSH2 0x1F1B JUMP JUMPDEST POP DUP1 PUSH0 DUP2 MLOAD DUP2 LT PUSH2 0xF66 JUMPI PUSH2 0xF65 PUSH2 0x3303 JUMP JUMPDEST JUMPDEST PUSH1 0x20 MUL PUSH1 0x20 ADD ADD MLOAD PUSH1 0x4 PUSH0 DUP5 DUP2 MSTORE PUSH1 0x20 ADD SWAP1 DUP2 MSTORE PUSH1 0x20 ADD PUSH0 KECCAK256 DUP2 SWAP1 SSTORE POP POP POP JUMP JUMPDEST PUSH2 0xF93 DUP3 PUSH0 DUP1 DUP5 PUSH2 0x189D JUMP JUMPDEST POP POP JUMP JUMPDEST PUSH0 DUP2 MLOAD SUB PUSH2 0xFD1 JUMPI PUSH1 0x40 MLOAD PUSH32 0xE889636F00000000000000000000000000000000000000000000000000000000 DUP2 MSTORE PUSH1 0x4 ADD PUSH1 0x40 MLOAD DUP1 SWAP2 SUB SWAP1 REVERT JUMPDEST PUSH1 0x1 DUP3 PUSH1 0x20 ADD SWAP1 PUSH1 0x2 DUP2 GT ISZERO PUSH2 0xFEA JUMPI PUSH2 0xFE9 PUSH2 0x3330 JUMP JUMPDEST JUMPDEST SWAP1 DUP2 PUSH1 0x2 DUP2 GT ISZERO PUSH2 0xFFE JUMPI PUSH2 0xFFD PUSH2 0x3330 JUMP JUMPDEST JUMPDEST DUP2 MSTORE POP POP DUP1 DUP3 PUSH1 0x80 ADD DUP2 SWAP1 MSTORE POP POP POP JUMP JUMPDEST PUSH0 PUSH2 0x101B PUSH2 0x100 PUSH2 0x1943 JUMP JUMPDEST SWAP1 POP PUSH2 0x1065 PUSH1 0x40 MLOAD DUP1 PUSH1 0x40 ADD PUSH1 0x40 MSTORE DUP1 PUSH1 0x6 DUP2 MSTORE PUSH1 0x20 ADD PUSH32 0x736C6F7449440000000000000000000000000000000000000000000000000000 DUP2 MSTORE POP DUP3 PUSH2 0x1968 SWAP1 SWAP2 SWAP1 PUSH4 0xFFFFFFFF AND JUMP JUMPDEST PUSH2 0x107B DUP4 PUSH1 0xFF AND DUP3 PUSH2 0x1990 SWAP1 SWAP2 SWAP1 PUSH4 0xFFFFFFFF AND JUMP JUMPDEST PUSH2 0x10C3 PUSH1 0x40 MLOAD DUP1 PUSH1 0x40 ADD PUSH1 0x40 MSTORE DUP1 PUSH1 0x7 DUP2 MSTORE PUSH1 0x20 ADD PUSH32 0x76657273696F6E00000000000000000000000000000000000000000000000000 DUP2 MSTORE POP DUP3 PUSH2 0x1968 SWAP1 SWAP2 SWAP1 PUSH4 0xFFFFFFFF AND JUMP JUMPDEST PUSH2 0x10D6 DUP3 DUP3 PUSH2 0x1990 SWAP1 SWAP2 SWAP1 PUSH4 0xFFFFFFFF AND JUMP JUMPDEST PUSH1 0x2 DUP5 PUSH1 0x20 ADD SWAP1 PUSH1 0x2 DUP2 GT ISZERO PUSH2 0x10EF JUMPI PUSH2 0x10EE PUSH2 0x3330 JUMP JUMPDEST JUMPDEST SWAP1 DUP2 PUSH1 0x2 DUP2 GT ISZERO PUSH2 0x1103 JUMPI PUSH2 0x1102 PUSH2 0x3330 JUMP JUMPDEST JUMPDEST DUP2 MSTORE POP POP DUP1 PUSH0 ADD MLOAD PUSH0 ADD MLOAD DUP5 PUSH1 0x80 ADD DUP2 SWAP1 MSTORE POP POP POP POP POP JUMP JUMPDEST PUSH0 DUP2 MLOAD SUB PUSH2 0x1156 JUMPI PUSH1 0x40 MLOAD PUSH32 0xFE936CB700000000000000000000000000000000000000000000000000000000 DUP2 MSTORE PUSH1 0x4 ADD PUSH1 0x40 MLOAD DUP1 SWAP2 SUB SWAP1 REVERT JUMPDEST DUP1 DUP3 PUSH1 0xA0 ADD DUP2 SWAP1 MSTORE POP POP POP JUMP JUMPDEST PUSH0 DUP2 MLOAD SUB PUSH2 0x119D JUMPI PUSH1 0x40 MLOAD PUSH32 0xFE936CB700000000000000000000000000000000000000000000000000000000 DUP2 MSTORE PUSH1 0x4 ADD PUSH1 0x40 MLOAD DUP1 SWAP2 SUB SWAP1 REVERT JUMPDEST DUP1 DUP3 PUSH1 0xC0 ADD DUP2 SWAP1 MSTORE POP POP POP JUMP JUMPDEST PUSH1 0x60 PUSH0 PUSH2 0x11B8 PUSH2 0x100 PUSH2 0x1943 JUMP JUMPDEST SWAP1 POP PUSH2 0x1202 PUSH1 0x40 MLOAD DUP1 PUSH1 0x40 ADD PUSH1 0x40 MSTORE DUP1 PUSH1 0xC DUP2 MSTORE PUSH1 0x20 ADD PUSH32 0x636F64654C6F636174696F6E0000000000000000000000000000000000000000 DUP2 MSTORE POP DUP3 PUSH2 0x1968 SWAP1 SWAP2 SWAP1 PUSH4 0xFFFFFFFF AND JUMP JUMPDEST PUSH2 0x122A DUP4 PUSH0 ADD MLOAD PUSH1 0x2 DUP2 GT ISZERO PUSH2 0x121B JUMPI PUSH2 0x121A PUSH2 0x3330 JUMP JUMPDEST JUMPDEST DUP3 PUSH2 0x199F SWAP1 SWAP2 SWAP1 PUSH4 0xFFFFFFFF AND JUMP JUMPDEST PUSH2 0x1272 PUSH1 0x40 MLOAD DUP1 PUSH1 0x40 ADD PUSH1 0x40 MSTORE DUP1 PUSH1 0x8 DUP2 MSTORE PUSH1 0x20 ADD PUSH32 0x6C616E6775616765000000000000000000000000000000000000000000000000 DUP2 MSTORE POP DUP3 PUSH2 0x1968 SWAP1 SWAP2 SWAP1 PUSH4 0xFFFFFFFF AND JUMP JUMPDEST PUSH2 0x129A DUP4 PUSH1 0x40 ADD MLOAD PUSH0 DUP2 GT ISZERO PUSH2 0x128B JUMPI PUSH2 0x128A PUSH2 0x3330 JUMP JUMPDEST JUMPDEST DUP3 PUSH2 0x199F SWAP1 SWAP2 SWAP1 PUSH4 0xFFFFFFFF AND JUMP JUMPDEST PUSH2 0x12E2 PUSH1 0x40 MLOAD DUP1 PUSH1 0x40 ADD PUSH1 0x40 MSTORE DUP1 PUSH1 0x6 DUP2 MSTORE PUSH1 0x20 ADD PUSH32 0x736F757263650000000000000000000000000000000000000000000000000000 DUP2 MSTORE POP DUP3 PUSH2 0x1968 SWAP1 SWAP2 SWAP1 PUSH4 0xFFFFFFFF AND JUMP JUMPDEST PUSH2 0x12F9 DUP4 PUSH1 0x60 ADD MLOAD DUP3 PUSH2 0x1968 SWAP1 SWAP2 SWAP1 PUSH4 0xFFFFFFFF AND JUMP JUMPDEST PUSH0 DUP4 PUSH1 0xA0 ADD MLOAD MLOAD GT ISZERO PUSH2 0x13AD JUMPI PUSH2 0x134E PUSH1 0x40 MLOAD DUP1 PUSH1 0x40 ADD PUSH1 0x40 MSTORE DUP1 PUSH1 0x4 DUP2 MSTORE PUSH1 0x20 ADD PUSH32 0x6172677300000000000000000000000000000000000000000000000000000000 DUP2 MSTORE POP DUP3 PUSH2 0x1968 SWAP1 SWAP2 SWAP1 PUSH4 0xFFFFFFFF AND JUMP JUMPDEST PUSH2 0x1357 DUP2 PUSH2 0x19EE JUMP JUMPDEST PUSH0 JUMPDEST DUP4 PUSH1 0xA0 ADD MLOAD MLOAD DUP2 LT ISZERO PUSH2 0x13A2 JUMPI PUSH2 0x1397 DUP5 PUSH1 0xA0 ADD MLOAD DUP3 DUP2 MLOAD DUP2 LT PUSH2 0x1380 JUMPI PUSH2 0x137F PUSH2 0x3303 JUMP JUMPDEST JUMPDEST PUSH1 0x20 MUL PUSH1 0x20 ADD ADD MLOAD DUP4 PUSH2 0x1968 SWAP1 SWAP2 SWAP1 PUSH4 0xFFFFFFFF AND JUMP JUMPDEST DUP1 PUSH1 0x1 ADD SWAP1 POP PUSH2 0x1359 JUMP JUMPDEST POP PUSH2 0x13AC DUP2 PUSH2 0x1A16 JUMP JUMPDEST JUMPDEST PUSH0 DUP4 PUSH1 0x80 ADD MLOAD MLOAD GT ISZERO PUSH2 0x14EC JUMPI PUSH0 PUSH1 0x2 DUP2 GT ISZERO PUSH2 0x13CD JUMPI PUSH2 0x13CC PUSH2 0x3330 JUMP JUMPDEST JUMPDEST DUP4 PUSH1 0x20 ADD MLOAD PUSH1 0x2 DUP2 GT ISZERO PUSH2 0x13E4 JUMPI PUSH2 0x13E3 PUSH2 0x3330 JUMP JUMPDEST JUMPDEST SUB PUSH2 0x141B JUMPI PUSH1 0x40 MLOAD PUSH32 0xA80D31F700000000000000000000000000000000000000000000000000000000 DUP2 MSTORE PUSH1 0x4 ADD PUSH1 0x40 MLOAD DUP1 SWAP2 SUB SWAP1 REVERT JUMPDEST PUSH2 0x1463 PUSH1 0x40 MLOAD DUP1 PUSH1 0x40 ADD PUSH1 0x40 MSTORE DUP1 PUSH1 0xF DUP2 MSTORE PUSH1 0x20 ADD PUSH32 0x736563726574734C6F636174696F6E0000000000000000000000000000000000 DUP2 MSTORE POP DUP3 PUSH2 0x1968 SWAP1 SWAP2 SWAP1 PUSH4 0xFFFFFFFF AND JUMP JUMPDEST PUSH2 0x148C DUP4 PUSH1 0x20 ADD MLOAD PUSH1 0x2 DUP2 GT ISZERO PUSH2 0x147D JUMPI PUSH2 0x147C PUSH2 0x3330 JUMP JUMPDEST JUMPDEST DUP3 PUSH2 0x199F SWAP1 SWAP2 SWAP1 PUSH4 0xFFFFFFFF AND JUMP JUMPDEST PUSH2 0x14D4 PUSH1 0x40 MLOAD DUP1 PUSH1 0x40 ADD PUSH1 0x40 MSTORE DUP1 PUSH1 0x7 DUP2 MSTORE PUSH1 0x20 ADD PUSH32 0x7365637265747300000000000000000000000000000000000000000000000000 DUP2 MSTORE POP DUP3 PUSH2 0x1968 SWAP1 SWAP2 SWAP1 PUSH4 0xFFFFFFFF AND JUMP JUMPDEST PUSH2 0x14EB DUP4 PUSH1 0x80 ADD MLOAD DUP3 PUSH2 0x1A3E SWAP1 SWAP2 SWAP1 PUSH4 0xFFFFFFFF AND JUMP JUMPDEST JUMPDEST PUSH0 DUP4 PUSH1 0xC0 ADD MLOAD MLOAD GT ISZERO PUSH2 0x15A0 JUMPI PUSH2 0x1541 PUSH1 0x40 MLOAD DUP1 PUSH1 0x40 ADD PUSH1 0x40 MSTORE DUP1 PUSH1 0x9 DUP2 MSTORE PUSH1 0x20 ADD PUSH32 0x6279746573417267730000000000000000000000000000000000000000000000 DUP2 MSTORE POP DUP3 PUSH2 0x1968 SWAP1 SWAP2 SWAP1 PUSH4 0xFFFFFFFF AND JUMP JUMPDEST PUSH2 0x154A DUP2 PUSH2 0x19EE JUMP JUMPDEST PUSH0 JUMPDEST DUP4 PUSH1 0xC0 ADD MLOAD MLOAD DUP2 LT ISZERO PUSH2 0x1595 JUMPI PUSH2 0x158A DUP5 PUSH1 0xC0 ADD MLOAD DUP3 DUP2 MLOAD DUP2 LT PUSH2 0x1573 JUMPI PUSH2 0x1572 PUSH2 0x3303 JUMP JUMPDEST JUMPDEST PUSH1 0x20 MUL PUSH1 0x20 ADD ADD MLOAD DUP4 PUSH2 0x1A3E SWAP1 SWAP2 SWAP1 PUSH4 0xFFFFFFFF AND JUMP JUMPDEST DUP1 PUSH1 0x1 ADD SWAP1 POP PUSH2 0x154C JUMP JUMPDEST POP PUSH2 0x159F DUP2 PUSH2 0x1A16 JUMP JUMPDEST JUMPDEST DUP1 PUSH0 ADD MLOAD PUSH0 ADD MLOAD SWAP2 POP POP SWAP2 SWAP1 POP JUMP JUMPDEST PUSH0 DUP1 PUSH32 0x0 PUSH20 0xFFFFFFFFFFFFFFFFFFFFFFFFFFFFFFFFFFFFFFFF AND PUSH4 0x461D2762 DUP7 DUP9 PUSH1 0x1 DUP9 DUP9 PUSH1 0x40 MLOAD DUP7 PUSH4 0xFFFFFFFF AND PUSH1 0xE0 SHL DUP2 MSTORE PUSH1 0x4 ADD PUSH2 0x1613 SWAP6 SWAP5 SWAP4 SWAP3 SWAP2 SWAP1 PUSH2 0x3388 JUMP JUMPDEST PUSH1 0x20 PUSH1 0x40 MLOAD DUP1 DUP4 SUB DUP2 PUSH0 DUP8 GAS CALL ISZERO DUP1 ISZERO PUSH2 0x162F JUMPI RETURNDATASIZE PUSH0 DUP1 RETURNDATACOPY RETURNDATASIZE PUSH0 REVERT JUMPDEST POP POP POP POP PUSH1 0x40 MLOAD RETURNDATASIZE PUSH1 0x1F NOT PUSH1 0x1F DUP3 ADD AND DUP3 ADD DUP1 PUSH1 0x40 MSTORE POP DUP2 ADD SWAP1 PUSH2 0x1653 SWAP2 SWAP1 PUSH2 0x33F4 JUMP JUMPDEST SWAP1 POP DUP1 PUSH32 0x1131472297A800FEE664D1D89CFA8F7676FF07189ECC53F80BBB5F4969099DB8 PUSH1 0x40 MLOAD PUSH1 0x40 MLOAD DUP1 SWAP2 SUB SWAP1 LOG2 DUP1 SWAP2 POP POP SWAP5 SWAP4 POP POP POP POP JUMP JUMPDEST PUSH0 PUSH32 0x0 PUSH20 0xFFFFFFFFFFFFFFFFFFFFFFFFFFFFFFFFFFFFFFFF AND PUSH4 0x4000AEA0 PUSH32 0x0 PUSH32 0x0 PUSH20 0xFFFFFFFFFFFFFFFFFFFFFFFFFFFFFFFFFFFFFFFF AND PUSH4 0x4306D354 DUP9 PUSH1 0x40 MLOAD DUP3 PUSH4 0xFFFFFFFF AND PUSH1 0xE0 SHL DUP2 MSTORE PUSH1 0x4 ADD PUSH2 0x1745 SWAP2 SWAP1 PUSH2 0x2E06 JUMP JUMPDEST PUSH1 0x20 PUSH1 0x40 MLOAD DUP1 DUP4 SUB DUP2 DUP7 GAS STATICCALL ISZERO DUP1 ISZERO PUSH2 0x1760 JUMPI RETURNDATASIZE PUSH0 DUP1 RETURNDATACOPY RETURNDATASIZE PUSH0 REVERT JUMPDEST POP POP POP POP PUSH1 0x40 MLOAD RETURNDATASIZE PUSH1 0x1F NOT PUSH1 0x1F DUP3 ADD AND DUP3 ADD DUP1 PUSH1 0x40 MSTORE POP DUP2 ADD SWAP1 PUSH2 0x1784 SWAP2 SWAP1 PUSH2 0x2C80 JUMP JUMPDEST DUP8 DUP8 DUP8 PUSH1 0x40 MLOAD PUSH1 0x20 ADD PUSH2 0x1799 SWAP4 SWAP3 SWAP2 SWAP1 PUSH2 0x341F JUMP JUMPDEST PUSH1 0x40 MLOAD PUSH1 0x20 DUP2 DUP4 SUB SUB DUP2 MSTORE SWAP1 PUSH1 0x40 MSTORE PUSH1 0x40 MLOAD DUP5 PUSH4 0xFFFFFFFF AND PUSH1 0xE0 SHL DUP2 MSTORE PUSH1 0x4 ADD PUSH2 0x17C6 SWAP4 SWAP3 SWAP2 SWAP1 PUSH2 0x3454 JUMP JUMPDEST PUSH1 0x20 PUSH1 0x40 MLOAD DUP1 DUP4 SUB DUP2 PUSH0 DUP8 GAS CALL ISZERO DUP1 ISZERO PUSH2 0x17E2 JUMPI RETURNDATASIZE PUSH0 DUP1 RETURNDATACOPY RETURNDATASIZE PUSH0 REVERT JUMPDEST POP POP POP POP PUSH1 0x40 MLOAD RETURNDATASIZE PUSH1 0x1F NOT PUSH1 0x1F DUP3 ADD AND DUP3 ADD DUP1 PUSH1 0x40 MSTORE POP DUP2 ADD SWAP1 PUSH2 0x1806 SWAP2 SWAP1 PUSH2 0x2CFC JUMP JUMPDEST POP PUSH32 0x0 PUSH20 0xFFFFFFFFFFFFFFFFFFFFFFFFFFFFFFFFFFFFFFFF AND PUSH4 0xFC2A88C3 PUSH1 0x40 MLOAD DUP2 PUSH4 0xFFFFFFFF AND PUSH1 0xE0 SHL DUP2 MSTORE PUSH1 0x4 ADD PUSH1 0x20 PUSH1 0x40 MLOAD DUP1 DUP4 SUB DUP2 DUP7 GAS STATICCALL ISZERO DUP1 ISZERO PUSH2 0x1870 JUMPI RETURNDATASIZE PUSH0 DUP1 RETURNDATACOPY RETURNDATASIZE PUSH0 REVERT JUMPDEST POP POP POP POP PUSH1 0x40 MLOAD RETURNDATASIZE PUSH1 0x1F NOT PUSH1 0x1F DUP3 ADD AND DUP3 ADD DUP1 PUSH1 0x40 MSTORE POP DUP2 ADD SWAP1 PUSH2 0x1894 SWAP2 SWAP1 PUSH2 0x2C80 JUMP JUMPDEST SWAP1 POP SWAP4 SWAP3 POP POP POP JUMP JUMPDEST PUSH0 DUP2 MLOAD SUB PUSH2 0x18D7 JUMPI PUSH1 0x40 MLOAD PUSH32 0x22CE3EDD00000000000000000000000000000000000000000000000000000000 DUP2 MSTORE PUSH1 0x4 ADD PUSH1 0x40 MLOAD DUP1 SWAP2 SUB SWAP1 REVERT JUMPDEST DUP3 DUP5 PUSH0 ADD SWAP1 PUSH1 0x2 DUP2 GT ISZERO PUSH2 0x18EE JUMPI PUSH2 0x18ED PUSH2 0x3330 JUMP JUMPDEST JUMPDEST SWAP1 DUP2 PUSH1 0x2 DUP2 GT ISZERO PUSH2 0x1902 JUMPI PUSH2 0x1901 PUSH2 0x3330 JUMP JUMPDEST JUMPDEST DUP2 MSTORE POP POP DUP2 DUP5 PUSH1 0x40 ADD SWAP1 PUSH0 DUP2 GT ISZERO PUSH2 0x191D JUMPI PUSH2 0x191C PUSH2 0x3330 JUMP JUMPDEST JUMPDEST SWAP1 DUP2 PUSH0 DUP2 GT ISZERO PUSH2 0x1930 JUMPI PUSH2 0x192F PUSH2 0x3330 JUMP JUMPDEST JUMPDEST DUP2 MSTORE POP POP DUP1 DUP5 PUSH1 0x60 ADD DUP2 SWAP1 MSTORE POP POP POP POP POP JUMP JUMPDEST PUSH2 0x194B PUSH2 0x1F66 JUMP JUMPDEST PUSH2 0x1958 DUP2 PUSH0 ADD MLOAD DUP4 PUSH2 0x1A66 JUMP JUMPDEST POP PUSH0 DUP2 PUSH1 0x20 ADD DUP2 DUP2 MSTORE POP POP SWAP2 SWAP1 POP JUMP JUMPDEST PUSH2 0x1975 DUP3 PUSH1 0x3 DUP4 MLOAD PUSH2 0x1ADC JUMP JUMPDEST PUSH2 0x198B DUP2 DUP4 PUSH0 ADD MLOAD PUSH2 0x1C7C SWAP1 SWAP2 SWAP1 PUSH4 0xFFFFFFFF AND JUMP JUMPDEST POP POP POP JUMP JUMPDEST PUSH2 0x199B DUP3 PUSH0 DUP4 PUSH2 0x1ADC JUMP JUMPDEST POP POP JUMP JUMPDEST PUSH2 0x19C0 PUSH1 0x2 PUSH1 0x5 PUSH1 0x6 PUSH1 0xFF AND SWAP1 SHL OR DUP4 PUSH0 ADD MLOAD PUSH2 0x1C98 SWAP1 SWAP2 SWAP1 PUSH4 0xFFFFFFFF AND JUMP JUMPDEST POP PUSH2 0x19EA DUP3 DUP3 PUSH1 0x40 MLOAD PUSH1 0x20 ADD PUSH2 0x19D6 SWAP2 SWAP1 PUSH2 0x23CC JUMP JUMPDEST PUSH1 0x40 MLOAD PUSH1 0x20 DUP2 DUP4 SUB SUB DUP2 MSTORE SWAP1 PUSH1 0x40 MSTORE PUSH2 0x1A3E JUMP JUMPDEST POP POP JUMP JUMPDEST PUSH2 0x19F9 DUP2 PUSH1 0x4 PUSH2 0x1CFF JUMP JUMPDEST PUSH1 0x1 DUP2 PUSH1 0x20 ADD DUP2 DUP2 MLOAD PUSH2 0x1A0C SWAP2 SWAP1 PUSH2 0x3490 JUMP JUMPDEST SWAP2 POP DUP2 DUP2 MSTORE POP POP POP JUMP JUMPDEST PUSH2 0x1A21 DUP2 PUSH1 0x7 PUSH2 0x1CFF JUMP JUMPDEST PUSH1 0x1 DUP2 PUSH1 0x20 ADD DUP2 DUP2 MLOAD PUSH2 0x1A34 SWAP2 SWAP1 PUSH2 0x34C3 JUMP JUMPDEST SWAP2 POP DUP2 DUP2 MSTORE POP POP POP JUMP JUMPDEST PUSH2 0x1A4B DUP3 PUSH1 0x2 DUP4 MLOAD PUSH2 0x1ADC JUMP JUMPDEST PUSH2 0x1A61 DUP2 DUP4 PUSH0 ADD MLOAD PUSH2 0x1C7C SWAP1 SWAP2 SWAP1 PUSH4 0xFFFFFFFF AND JUMP JUMPDEST POP POP POP JUMP JUMPDEST PUSH2 0x1A6E PUSH2 0x1F85 JUMP JUMPDEST PUSH0 PUSH1 0x20 DUP4 PUSH2 0x1A7C SWAP2 SWAP1 PUSH2 0x3523 JUMP JUMPDEST EQ PUSH2 0x1AA8 JUMPI PUSH1 0x20 DUP3 PUSH2 0x1A8E SWAP2 SWAP1 PUSH2 0x3523 JUMP JUMPDEST PUSH1 0x20 PUSH2 0x1A9A SWAP2 SWAP1 PUSH2 0x34C3 JUMP JUMPDEST DUP3 PUSH2 0x1AA5 SWAP2 SWAP1 PUSH2 0x3490 JUMP JUMPDEST SWAP2 POP JUMPDEST DUP2 DUP4 PUSH1 0x20 ADD DUP2 DUP2 MSTORE POP POP PUSH1 0x40 MLOAD DUP1 DUP5 MSTORE PUSH0 DUP2 MSTORE DUP3 DUP2 ADD PUSH1 0x20 ADD DUP2 DUP2 LT ISZERO PUSH2 0x1ACD JUMPI PUSH0 DUP1 REVERT JUMPDEST DUP1 PUSH1 0x40 MSTORE POP POP DUP3 SWAP1 POP SWAP3 SWAP2 POP POP JUMP JUMPDEST PUSH1 0x17 DUP2 PUSH8 0xFFFFFFFFFFFFFFFF AND GT PUSH2 0x1B16 JUMPI PUSH2 0x1B10 DUP2 PUSH1 0x5 DUP5 PUSH1 0xFF AND SWAP1 SHL PUSH1 0xFF AND OR DUP5 PUSH0 ADD MLOAD PUSH2 0x1C98 SWAP1 SWAP2 SWAP1 PUSH4 0xFFFFFFFF AND JUMP JUMPDEST POP PUSH2 0x1C77 JUMP JUMPDEST PUSH1 0xFF DUP2 PUSH8 0xFFFFFFFFFFFFFFFF AND GT PUSH2 0x1B72 JUMPI PUSH2 0x1B48 PUSH1 0x18 PUSH1 0x5 DUP5 PUSH1 0xFF AND SWAP1 SHL OR DUP5 PUSH0 ADD MLOAD PUSH2 0x1C98 SWAP1 SWAP2 SWAP1 PUSH4 0xFFFFFFFF AND JUMP JUMPDEST POP PUSH2 0x1B6C DUP2 PUSH8 0xFFFFFFFFFFFFFFFF AND PUSH1 0x1 DUP6 PUSH0 ADD MLOAD PUSH2 0x1D24 SWAP1 SWAP3 SWAP2 SWAP1 PUSH4 0xFFFFFFFF AND JUMP JUMPDEST POP PUSH2 0x1C76 JUMP JUMPDEST PUSH2 0xFFFF DUP2 PUSH8 0xFFFFFFFFFFFFFFFF AND GT PUSH2 0x1BCF JUMPI PUSH2 0x1BA5 PUSH1 0x19 PUSH1 0x5 DUP5 PUSH1 0xFF AND SWAP1 SHL OR DUP5 PUSH0 ADD MLOAD PUSH2 0x1C98 SWAP1 SWAP2 SWAP1 PUSH4 0xFFFFFFFF AND JUMP JUMPDEST POP PUSH2 0x1BC9 DUP2 PUSH8 0xFFFFFFFFFFFFFFFF AND PUSH1 0x2 DUP6 PUSH0 ADD MLOAD PUSH2 0x1D24 SWAP1 SWAP3 SWAP2 SWAP1 PUSH4 0xFFFFFFFF AND JUMP JUMPDEST POP PUSH2 0x1C75 JUMP JUMPDEST PUSH4 0xFFFFFFFF DUP2 PUSH8 0xFFFFFFFFFFFFFFFF AND GT PUSH2 0x1C2E JUMPI PUSH2 0x1C04 PUSH1 0x1A PUSH1 0x5 DUP5 PUSH1 0xFF AND SWAP1 SHL OR DUP5 PUSH0 ADD MLOAD PUSH2 0x1C98 SWAP1 SWAP2 SWAP1 PUSH4 0xFFFFFFFF AND JUMP JUMPDEST POP PUSH2 0x1C28 DUP2 PUSH8 0xFFFFFFFFFFFFFFFF AND PUSH1 0x4 DUP6 PUSH0 ADD MLOAD PUSH2 0x1D24 SWAP1 SWAP3 SWAP2 SWAP1 PUSH4 0xFFFFFFFF AND JUMP JUMPDEST POP PUSH2 0x1C74 JUMP JUMPDEST PUSH2 0x1C4E PUSH1 0x1B PUSH1 0x5 DUP5 PUSH1 0xFF AND SWAP1 SHL OR DUP5 PUSH0 ADD MLOAD PUSH2 0x1C98 SWAP1 SWAP2 SWAP1 PUSH4 0xFFFFFFFF AND JUMP JUMPDEST POP PUSH2 0x1C72 DUP2 PUSH8 0xFFFFFFFFFFFFFFFF AND PUSH1 0x8 DUP6 PUSH0 ADD MLOAD PUSH2 0x1D24 SWAP1 SWAP3 SWAP2 SWAP1 PUSH4 0xFFFFFFFF AND JUMP JUMPDEST POP JUMPDEST JUMPDEST JUMPDEST JUMPDEST POP POP POP JUMP JUMPDEST PUSH2 0x1C84 PUSH2 0x1F85 JUMP JUMPDEST PUSH2 0x1C90 DUP4 DUP4 DUP5 MLOAD PUSH2 0x1DAD JUMP JUMPDEST SWAP1 POP SWAP3 SWAP2 POP POP JUMP JUMPDEST PUSH2 0x1CA0 PUSH2 0x1F85 JUMP JUMPDEST PUSH0 DUP4 PUSH0 ADD MLOAD MLOAD SWAP1 POP PUSH0 PUSH1 0x1 DUP3 PUSH2 0x1CB6 SWAP2 SWAP1 PUSH2 0x3490 JUMP JUMPDEST SWAP1 POP DUP5 PUSH1 0x20 ADD MLOAD DUP3 LT PUSH2 0x1CDA JUMPI PUSH2 0x1CD9 DUP6 PUSH1 0x2 DUP4 PUSH2 0x1CD4 SWAP2 SWAP1 PUSH2 0x3553 JUMP JUMPDEST PUSH2 0x1E8A JUMP JUMPDEST JUMPDEST DUP5 MLOAD PUSH1 0x20 DUP4 DUP3 ADD ADD DUP6 DUP2 MSTORE8 DUP2 MLOAD DUP4 GT ISZERO PUSH2 0x1CF2 JUMPI DUP3 DUP3 MSTORE JUMPDEST POP POP DUP5 SWAP3 POP POP POP SWAP3 SWAP2 POP POP JUMP JUMPDEST PUSH2 0x1D1F PUSH1 0x1F PUSH1 0x5 DUP4 PUSH1 0xFF AND SWAP1 SHL OR DUP4 PUSH0 ADD MLOAD PUSH2 0x1C98 SWAP1 SWAP2 SWAP1 PUSH4 0xFFFFFFFF AND JUMP JUMPDEST POP POP POP JUMP JUMPDEST PUSH2 0x1D2C PUSH2 0x1F85 JUMP JUMPDEST PUSH0 DUP5 PUSH0 ADD MLOAD MLOAD SWAP1 POP PUSH0 DUP2 DUP5 PUSH2 0x1D41 SWAP2 SWAP1 PUSH2 0x3490 JUMP JUMPDEST SWAP1 POP DUP6 PUSH1 0x20 ADD MLOAD DUP2 GT ISZERO PUSH2 0x1D66 JUMPI PUSH2 0x1D65 DUP7 PUSH1 0x2 DUP4 PUSH2 0x1D60 SWAP2 SWAP1 PUSH2 0x3553 JUMP JUMPDEST PUSH2 0x1E8A JUMP JUMPDEST JUMPDEST PUSH0 PUSH1 0x1 DUP6 PUSH2 0x100 PUSH2 0x1D77 SWAP2 SWAP1 PUSH2 0x36C3 JUMP JUMPDEST PUSH2 0x1D81 SWAP2 SWAP1 PUSH2 0x34C3 JUMP JUMPDEST SWAP1 POP DUP7 MLOAD DUP3 DUP2 ADD DUP8 DUP4 NOT DUP3 MLOAD AND OR DUP2 MSTORE DUP2 MLOAD DUP5 GT ISZERO PUSH2 0x1D9E JUMPI DUP4 DUP3 MSTORE JUMPDEST POP POP DUP7 SWAP4 POP POP POP POP SWAP4 SWAP3 POP POP POP JUMP JUMPDEST PUSH2 0x1DB5 PUSH2 0x1F85 JUMP JUMPDEST DUP3 MLOAD DUP3 GT ISZERO PUSH2 0x1DC2 JUMPI PUSH0 DUP1 REVERT JUMPDEST PUSH0 DUP5 PUSH0 ADD MLOAD MLOAD SWAP1 POP PUSH0 DUP4 DUP3 PUSH2 0x1DD7 SWAP2 SWAP1 PUSH2 0x3490 JUMP JUMPDEST SWAP1 POP DUP6 PUSH1 0x20 ADD MLOAD DUP2 GT ISZERO PUSH2 0x1DFC JUMPI PUSH2 0x1DFB DUP7 PUSH1 0x2 DUP4 PUSH2 0x1DF6 SWAP2 SWAP1 PUSH2 0x3553 JUMP JUMPDEST PUSH2 0x1E8A JUMP JUMPDEST JUMPDEST PUSH0 DUP1 DUP8 MLOAD DUP1 MLOAD DUP6 PUSH1 0x20 DUP4 ADD ADD SWAP4 POP DUP1 DUP6 GT ISZERO PUSH2 0x1E16 JUMPI DUP5 DUP3 MSTORE JUMPDEST PUSH1 0x20 DUP10 ADD SWAP3 POP POP POP JUMPDEST PUSH1 0x20 DUP7 LT PUSH2 0x1E5D JUMPI DUP1 MLOAD DUP3 MSTORE PUSH1 0x20 DUP3 PUSH2 0x1E38 SWAP2 SWAP1 PUSH2 0x3490 JUMP JUMPDEST SWAP2 POP PUSH1 0x20 DUP2 PUSH2 0x1E47 SWAP2 SWAP1 PUSH2 0x3490 JUMP JUMPDEST SWAP1 POP PUSH1 0x20 DUP7 PUSH2 0x1E56 SWAP2 SWAP1 PUSH2 0x34C3 JUMP JUMPDEST SWAP6 POP PUSH2 0x1E1F JUMP JUMPDEST PUSH0 PUSH1 0x1 DUP8 PUSH1 0x20 SUB PUSH2 0x100 EXP SUB SWAP1 POP DUP1 NOT DUP3 MLOAD AND DUP2 DUP5 MLOAD AND DUP2 DUP2 OR DUP6 MSTORE POP POP POP DUP8 SWAP5 POP POP POP POP POP SWAP4 SWAP3 POP POP POP JUMP JUMPDEST PUSH0 DUP3 PUSH0 ADD MLOAD SWAP1 POP PUSH2 0x1E9B DUP4 DUP4 PUSH2 0x1A66 JUMP JUMPDEST POP PUSH2 0x1EA6 DUP4 DUP3 PUSH2 0x1C7C JUMP JUMPDEST POP POP POP POP JUMP JUMPDEST PUSH1 0x40 MLOAD DUP1 PUSH1 0xE0 ADD PUSH1 0x40 MSTORE DUP1 PUSH0 PUSH1 0x2 DUP2 GT ISZERO PUSH2 0x1ECA JUMPI PUSH2 0x1EC9 PUSH2 0x3330 JUMP JUMPDEST JUMPDEST DUP2 MSTORE PUSH1 0x20 ADD PUSH0 PUSH1 0x2 DUP2 GT ISZERO PUSH2 0x1EE2 JUMPI PUSH2 0x1EE1 PUSH2 0x3330 JUMP JUMPDEST JUMPDEST DUP2 MSTORE PUSH1 0x20 ADD PUSH0 DUP1 DUP2 GT ISZERO PUSH2 0x1EF9 JUMPI PUSH2 0x1EF8 PUSH2 0x3330 JUMP JUMPDEST JUMPDEST DUP2 MSTORE PUSH1 0x20 ADD PUSH1 0x60 DUP2 MSTORE PUSH1 0x20 ADD PUSH1 0x60 DUP2 MSTORE PUSH1 0x20 ADD PUSH1 0x60 DUP2 MSTORE PUSH1 0x20 ADD PUSH1 0x60 DUP2 MSTORE POP SWAP1 JUMP JUMPDEST DUP3 DUP1 SLOAD DUP3 DUP3 SSTORE SWAP1 PUSH0 MSTORE PUSH1 0x20 PUSH0 KECCAK256 SWAP1 DUP2 ADD SWAP3 DUP3 ISZERO PUSH2 0x1F55 JUMPI SWAP2 PUSH1 0x20 MUL DUP3 ADD JUMPDEST DUP3 DUP2 GT ISZERO PUSH2 0x1F54 JUMPI DUP3 MLOAD DUP3 SSTORE SWAP2 PUSH1 0x20 ADD SWAP2 SWAP1 PUSH1 0x1 ADD SWAP1 PUSH2 0x1F39 JUMP JUMPDEST JUMPDEST POP SWAP1 POP PUSH2 0x1F62 SWAP2 SWAP1 PUSH2 0x1F9E JUMP JUMPDEST POP SWAP1 JUMP JUMPDEST PUSH1 0x40 MLOAD DUP1 PUSH1 0x40 ADD PUSH1 0x40 MSTORE DUP1 PUSH2 0x1F79 PUSH2 0x1F85 JUMP JUMPDEST DUP2 MSTORE PUSH1 0x20 ADD PUSH0 DUP2 MSTORE POP SWAP1 JUMP JUMPDEST PUSH1 0x40 MLOAD DUP1 PUSH1 0x40 ADD PUSH1 0x40 MSTORE DUP1 PUSH1 0x60 DUP2 MSTORE PUSH1 0x20 ADD PUSH0 DUP2 MSTORE POP SWAP1 JUMP JUMPDEST JUMPDEST DUP1 DUP3 GT ISZERO PUSH2 0x1FB5 JUMPI PUSH0 DUP2 PUSH0 SWAP1 SSTORE POP PUSH1 0x1 ADD PUSH2 0x1F9F JUMP JUMPDEST POP SWAP1 JUMP JUMPDEST PUSH0 PUSH1 0x40 MLOAD SWAP1 POP SWAP1 JUMP JUMPDEST PUSH0 DUP1 REVERT JUMPDEST PUSH0 DUP1 REVERT JUMPDEST PUSH0 DUP2 SWAP1 POP SWAP2 SWAP1 POP JUMP JUMPDEST PUSH2 0x1FDC DUP2 PUSH2 0x1FCA JUMP JUMPDEST DUP2 EQ PUSH2 0x1FE6 JUMPI PUSH0 DUP1 REVERT JUMPDEST POP JUMP JUMPDEST PUSH0 DUP2 CALLDATALOAD SWAP1 POP PUSH2 0x1FF7 DUP2 PUSH2 0x1FD3 JUMP JUMPDEST SWAP3 SWAP2 POP POP JUMP JUMPDEST PUSH0 DUP1 REVERT JUMPDEST PUSH0 DUP1 REVERT JUMPDEST PUSH0 PUSH1 0x1F NOT PUSH1 0x1F DUP4 ADD AND SWAP1 POP SWAP2 SWAP1 POP JUMP JUMPDEST PUSH32 0x4E487B7100000000000000000000000000000000000000000000000000000000 PUSH0 MSTORE PUSH1 0x41 PUSH1 0x4 MSTORE PUSH1 0x24 PUSH0 REVERT JUMPDEST PUSH2 0x204B DUP3 PUSH2 0x2005 JUMP JUMPDEST DUP2 ADD DUP2 DUP2 LT PUSH8 0xFFFFFFFFFFFFFFFF DUP3 GT OR ISZERO PUSH2 0x206A JUMPI PUSH2 0x2069 PUSH2 0x2015 JUMP JUMPDEST JUMPDEST DUP1 PUSH1 0x40 MSTORE POP POP POP JUMP JUMPDEST PUSH0 PUSH2 0x207C PUSH2 0x1FB9 JUMP JUMPDEST SWAP1 POP PUSH2 0x2088 DUP3 DUP3 PUSH2 0x2042 JUMP JUMPDEST SWAP2 SWAP1 POP JUMP JUMPDEST PUSH0 PUSH8 0xFFFFFFFFFFFFFFFF DUP3 GT ISZERO PUSH2 0x20A7 JUMPI PUSH2 0x20A6 PUSH2 0x2015 JUMP JUMPDEST JUMPDEST PUSH2 0x20B0 DUP3 PUSH2 0x2005 JUMP JUMPDEST SWAP1 POP PUSH1 0x20 DUP2 ADD SWAP1 POP SWAP2 SWAP1 POP JUMP JUMPDEST DUP3 DUP2 DUP4 CALLDATACOPY PUSH0 DUP4 DUP4 ADD MSTORE POP POP POP JUMP JUMPDEST PUSH0 PUSH2 0x20DD PUSH2 0x20D8 DUP5 PUSH2 0x208D JUMP JUMPDEST PUSH2 0x2073 JUMP JUMPDEST SWAP1 POP DUP3 DUP2 MSTORE PUSH1 0x20 DUP2 ADD DUP5 DUP5 DUP5 ADD GT ISZERO PUSH2 0x20F9 JUMPI PUSH2 0x20F8 PUSH2 0x2001 JUMP JUMPDEST JUMPDEST PUSH2 0x2104 DUP5 DUP3 DUP6 PUSH2 0x20BD JUMP JUMPDEST POP SWAP4 SWAP3 POP POP POP JUMP JUMPDEST PUSH0 DUP3 PUSH1 0x1F DUP4 ADD SLT PUSH2 0x2120 JUMPI PUSH2 0x211F PUSH2 0x1FFD JUMP JUMPDEST JUMPDEST DUP2 CALLDATALOAD PUSH2 0x2130 DUP5 DUP3 PUSH1 0x20 DUP7 ADD PUSH2 0x20CB JUMP JUMPDEST SWAP2 POP POP SWAP3 SWAP2 POP POP JUMP JUMPDEST PUSH0 DUP1 PUSH0 PUSH1 0x60 DUP5 DUP7 SUB SLT ISZERO PUSH2 0x2150 JUMPI PUSH2 0x214F PUSH2 0x1FC2 JUMP JUMPDEST JUMPDEST PUSH0 PUSH2 0x215D DUP7 DUP3 DUP8 ADD PUSH2 0x1FE9 JUMP JUMPDEST SWAP4 POP POP PUSH1 0x20 DUP5 ADD CALLDATALOAD PUSH8 0xFFFFFFFFFFFFFFFF DUP2 GT ISZERO PUSH2 0x217E JUMPI PUSH2 0x217D PUSH2 0x1FC6 JUMP JUMPDEST JUMPDEST PUSH2 0x218A DUP7 DUP3 DUP8 ADD PUSH2 0x210C JUMP JUMPDEST SWAP3 POP POP PUSH1 0x40 DUP5 ADD CALLDATALOAD PUSH8 0xFFFFFFFFFFFFFFFF DUP2 GT ISZERO PUSH2 0x21AB JUMPI PUSH2 0x21AA PUSH2 0x1FC6 JUMP JUMPDEST JUMPDEST PUSH2 0x21B7 DUP7 DUP3 DUP8 ADD PUSH2 0x210C JUMP JUMPDEST SWAP2 POP POP SWAP3 POP SWAP3 POP SWAP3 JUMP JUMPDEST PUSH0 DUP2 SWAP1 POP SWAP2 SWAP1 POP JUMP JUMPDEST PUSH2 0x21D3 DUP2 PUSH2 0x21C1 JUMP JUMPDEST DUP2 EQ PUSH2 0x21DD JUMPI PUSH0 DUP1 REVERT JUMPDEST POP JUMP JUMPDEST PUSH0 DUP2 CALLDATALOAD SWAP1 POP PUSH2 0x21EE DUP2 PUSH2 0x21CA JUMP JUMPDEST SWAP3 SWAP2 POP POP JUMP JUMPDEST PUSH0 PUSH8 0xFFFFFFFFFFFFFFFF DUP3 GT ISZERO PUSH2 0x220E JUMPI PUSH2 0x220D PUSH2 0x2015 JUMP JUMPDEST JUMPDEST PUSH1 0x20 DUP3 MUL SWAP1 POP PUSH1 0x20 DUP2 ADD SWAP1 POP SWAP2 SWAP1 POP JUMP JUMPDEST PUSH0 DUP1 REVERT JUMPDEST PUSH0 PUSH2 0x2235 PUSH2 0x2230 DUP5 PUSH2 0x21F4 JUMP JUMPDEST PUSH2 0x2073 JUMP JUMPDEST SWAP1 POP DUP1 DUP4 DUP3 MSTORE PUSH1 0x20 DUP3 ADD SWAP1 POP PUSH1 0x20 DUP5 MUL DUP4 ADD DUP6 DUP2 GT ISZERO PUSH2 0x2258 JUMPI PUSH2 0x2257 PUSH2 0x221F JUMP JUMPDEST JUMPDEST DUP4 JUMPDEST DUP2 DUP2 LT ISZERO PUSH2 0x2281 JUMPI DUP1 PUSH2 0x226D DUP9 DUP3 PUSH2 0x21E0 JUMP JUMPDEST DUP5 MSTORE PUSH1 0x20 DUP5 ADD SWAP4 POP POP PUSH1 0x20 DUP2 ADD SWAP1 POP PUSH2 0x225A JUMP JUMPDEST POP POP POP SWAP4 SWAP3 POP POP POP JUMP JUMPDEST PUSH0 DUP3 PUSH1 0x1F DUP4 ADD SLT PUSH2 0x229F JUMPI PUSH2 0x229E PUSH2 0x1FFD JUMP JUMPDEST JUMPDEST DUP2 CALLDATALOAD PUSH2 0x22AF DUP5 DUP3 PUSH1 0x20 DUP7 ADD PUSH2 0x2223 JUMP JUMPDEST SWAP2 POP POP SWAP3 SWAP2 POP POP JUMP JUMPDEST PUSH0 DUP1 PUSH1 0x40 DUP4 DUP6 SUB SLT ISZERO PUSH2 0x22CE JUMPI PUSH2 0x22CD PUSH2 0x1FC2 JUMP JUMPDEST JUMPDEST PUSH0 PUSH2 0x22DB DUP6 DUP3 DUP7 ADD PUSH2 0x21E0 JUMP JUMPDEST SWAP3 POP POP PUSH1 0x20 DUP4 ADD CALLDATALOAD PUSH8 0xFFFFFFFFFFFFFFFF DUP2 GT ISZERO PUSH2 0x22FC JUMPI PUSH2 0x22FB PUSH2 0x1FC6 JUMP JUMPDEST JUMPDEST PUSH2 0x2308 DUP6 DUP3 DUP7 ADD PUSH2 0x228B JUMP JUMPDEST SWAP2 POP POP SWAP3 POP SWAP3 SWAP1 POP JUMP JUMPDEST PUSH0 DUP2 MLOAD SWAP1 POP SWAP2 SWAP1 POP JUMP JUMPDEST PUSH0 DUP3 DUP3 MSTORE PUSH1 0x20 DUP3 ADD SWAP1 POP SWAP3 SWAP2 POP POP JUMP JUMPDEST DUP3 DUP2 DUP4 MCOPY PUSH0 DUP4 DUP4 ADD MSTORE POP POP POP JUMP JUMPDEST PUSH0 PUSH2 0x2344 DUP3 PUSH2 0x2312 JUMP JUMPDEST PUSH2 0x234E DUP2 DUP6 PUSH2 0x231C JUMP JUMPDEST SWAP4 POP PUSH2 0x235E DUP2 DUP6 PUSH1 0x20 DUP7 ADD PUSH2 0x232C JUMP JUMPDEST PUSH2 0x2367 DUP2 PUSH2 0x2005 JUMP JUMPDEST DUP5 ADD SWAP2 POP POP SWAP3 SWAP2 POP POP JUMP JUMPDEST PUSH0 PUSH1 0x20 DUP3 ADD SWAP1 POP DUP2 DUP2 SUB PUSH0 DUP4 ADD MSTORE PUSH2 0x238A DUP2 DUP5 PUSH2 0x233A JUMP JUMPDEST SWAP1 POP SWAP3 SWAP2 POP POP JUMP JUMPDEST PUSH0 PUSH1 0x20 DUP3 DUP5 SUB SLT ISZERO PUSH2 0x23A7 JUMPI PUSH2 0x23A6 PUSH2 0x1FC2 JUMP JUMPDEST JUMPDEST PUSH0 PUSH2 0x23B4 DUP5 DUP3 DUP6 ADD PUSH2 0x21E0 JUMP JUMPDEST SWAP2 POP POP SWAP3 SWAP2 POP POP JUMP JUMPDEST PUSH2 0x23C6 DUP2 PUSH2 0x21C1 JUMP JUMPDEST DUP3 MSTORE POP POP JUMP JUMPDEST PUSH0 PUSH1 0x20 DUP3 ADD SWAP1 POP PUSH2 0x23DF PUSH0 DUP4 ADD DUP5 PUSH2 0x23BD JUMP JUMPDEST SWAP3 SWAP2 POP POP JUMP JUMPDEST PUSH0 PUSH8 0xFFFFFFFFFFFFFFFF DUP3 GT ISZERO PUSH2 0x23FF JUMPI PUSH2 0x23FE PUSH2 0x2015 JUMP JUMPDEST JUMPDEST PUSH2 0x2408 DUP3 PUSH2 0x2005 JUMP JUMPDEST SWAP1 POP PUSH1 0x20 DUP2 ADD SWAP1 POP SWAP2 SWAP1 POP JUMP JUMPDEST PUSH0 PUSH2 0x2427 PUSH2 0x2422 DUP5 PUSH2 0x23E5 JUMP JUMPDEST PUSH2 0x2073 JUMP JUMPDEST SWAP1 POP DUP3 DUP2 MSTORE PUSH1 0x20 DUP2 ADD DUP5 DUP5 DUP5 ADD GT ISZERO PUSH2 0x2443 JUMPI PUSH2 0x2442 PUSH2 0x2001 JUMP JUMPDEST JUMPDEST PUSH2 0x244E DUP5 DUP3 DUP6 PUSH2 0x20BD JUMP JUMPDEST POP SWAP4 SWAP3 POP POP POP JUMP JUMPDEST PUSH0 DUP3 PUSH1 0x1F DUP4 ADD SLT PUSH2 0x246A JUMPI PUSH2 0x2469 PUSH2 0x1FFD JUMP JUMPDEST JUMPDEST DUP2 CALLDATALOAD PUSH2 0x247A DUP5 DUP3 PUSH1 0x20 DUP7 ADD PUSH2 0x2415 JUMP JUMPDEST SWAP2 POP POP SWAP3 SWAP2 POP POP JUMP JUMPDEST PUSH0 PUSH1 0xFF DUP3 AND SWAP1 POP SWAP2 SWAP1 POP JUMP JUMPDEST PUSH2 0x2498 DUP2 PUSH2 0x2483 JUMP JUMPDEST DUP2 EQ PUSH2 0x24A2 JUMPI PUSH0 DUP1 REVERT JUMPDEST POP JUMP JUMPDEST PUSH0 DUP2 CALLDATALOAD SWAP1 POP PUSH2 0x24B3 DUP2 PUSH2 0x248F JUMP JUMPDEST SWAP3 SWAP2 POP POP JUMP JUMPDEST PUSH0 PUSH8 0xFFFFFFFFFFFFFFFF DUP3 AND SWAP1 POP SWAP2 SWAP1 POP JUMP JUMPDEST PUSH2 0x24D5 DUP2 PUSH2 0x24B9 JUMP JUMPDEST DUP2 EQ PUSH2 0x24DF JUMPI PUSH0 DUP1 REVERT JUMPDEST POP JUMP JUMPDEST PUSH0 DUP2 CALLDATALOAD SWAP1 POP PUSH2 0x24F0 DUP2 PUSH2 0x24CC JUMP JUMPDEST SWAP3 SWAP2 POP POP JUMP JUMPDEST PUSH0 PUSH8 0xFFFFFFFFFFFFFFFF DUP3 GT ISZERO PUSH2 0x2510 JUMPI PUSH2 0x250F PUSH2 0x2015 JUMP JUMPDEST JUMPDEST PUSH1 0x20 DUP3 MUL SWAP1 POP PUSH1 0x20 DUP2 ADD SWAP1 POP SWAP2 SWAP1 POP JUMP JUMPDEST PUSH0 PUSH2 0x2533 PUSH2 0x252E DUP5 PUSH2 0x24F6 JUMP JUMPDEST PUSH2 0x2073 JUMP JUMPDEST SWAP1 POP DUP1 DUP4 DUP3 MSTORE PUSH1 0x20 DUP3 ADD SWAP1 POP PUSH1 0x20 DUP5 MUL DUP4 ADD DUP6 DUP2 GT ISZERO PUSH2 0x2556 JUMPI PUSH2 0x2555 PUSH2 0x221F JUMP JUMPDEST JUMPDEST DUP4 JUMPDEST DUP2 DUP2 LT ISZERO PUSH2 0x259D JUMPI DUP1 CALLDATALOAD PUSH8 0xFFFFFFFFFFFFFFFF DUP2 GT ISZERO PUSH2 0x257B JUMPI PUSH2 0x257A PUSH2 0x1FFD JUMP JUMPDEST JUMPDEST DUP1 DUP7 ADD PUSH2 0x2588 DUP10 DUP3 PUSH2 0x2456 JUMP JUMPDEST DUP6 MSTORE PUSH1 0x20 DUP6 ADD SWAP5 POP POP POP PUSH1 0x20 DUP2 ADD SWAP1 POP PUSH2 0x2558 JUMP JUMPDEST POP POP POP SWAP4 SWAP3 POP POP POP JUMP JUMPDEST PUSH0 DUP3 PUSH1 0x1F DUP4 ADD SLT PUSH2 0x25BB JUMPI PUSH2 0x25BA PUSH2 0x1FFD JUMP JUMPDEST JUMPDEST DUP2 CALLDATALOAD PUSH2 0x25CB DUP5 DUP3 PUSH1 0x20 DUP7 ADD PUSH2 0x2521 JUMP JUMPDEST SWAP2 POP POP SWAP3 SWAP2 POP POP JUMP JUMPDEST PUSH0 PUSH8 0xFFFFFFFFFFFFFFFF DUP3 GT ISZERO PUSH2 0x25EE JUMPI PUSH2 0x25ED PUSH2 0x2015 JUMP JUMPDEST JUMPDEST PUSH1 0x20 DUP3 MUL SWAP1 POP PUSH1 0x20 DUP2 ADD SWAP1 POP SWAP2 SWAP1 POP JUMP JUMPDEST PUSH0 PUSH2 0x2611 PUSH2 0x260C DUP5 PUSH2 0x25D4 JUMP JUMPDEST PUSH2 0x2073 JUMP JUMPDEST SWAP1 POP DUP1 DUP4 DUP3 MSTORE PUSH1 0x20 DUP3 ADD SWAP1 POP PUSH1 0x20 DUP5 MUL DUP4 ADD DUP6 DUP2 GT ISZERO PUSH2 0x2634 JUMPI PUSH2 0x2633 PUSH2 0x221F JUMP JUMPDEST JUMPDEST DUP4 JUMPDEST DUP2 DUP2 LT ISZERO PUSH2 0x267B JUMPI DUP1 CALLDATALOAD PUSH8 0xFFFFFFFFFFFFFFFF DUP2 GT ISZERO PUSH2 0x2659 JUMPI PUSH2 0x2658 PUSH2 0x1FFD JUMP JUMPDEST JUMPDEST DUP1 DUP7 ADD PUSH2 0x2666 DUP10 DUP3 PUSH2 0x210C JUMP JUMPDEST DUP6 MSTORE PUSH1 0x20 DUP6 ADD SWAP5 POP POP POP PUSH1 0x20 DUP2 ADD SWAP1 POP PUSH2 0x2636 JUMP JUMPDEST POP POP POP SWAP4 SWAP3 POP POP POP JUMP JUMPDEST PUSH0 DUP3 PUSH1 0x1F DUP4 ADD SLT PUSH2 0x2699 JUMPI PUSH2 0x2698 PUSH2 0x1FFD JUMP JUMPDEST JUMPDEST DUP2 CALLDATALOAD PUSH2 0x26A9 DUP5 DUP3 PUSH1 0x20 DUP7 ADD PUSH2 0x25FF JUMP JUMPDEST SWAP2 POP POP SWAP3 SWAP2 POP POP JUMP JUMPDEST PUSH0 PUSH4 0xFFFFFFFF DUP3 AND SWAP1 POP SWAP2 SWAP1 POP JUMP JUMPDEST PUSH2 0x26CA DUP2 PUSH2 0x26B2 JUMP JUMPDEST DUP2 EQ PUSH2 0x26D4 JUMPI PUSH0 DUP1 REVERT JUMPDEST POP JUMP JUMPDEST PUSH0 DUP2 CALLDATALOAD SWAP1 POP PUSH2 0x26E5 DUP2 PUSH2 0x26C1 JUMP JUMPDEST SWAP3 SWAP2 POP POP JUMP JUMPDEST PUSH0 DUP1 PUSH0 DUP1 PUSH0 DUP1 PUSH0 DUP1 PUSH0 PUSH2 0x120 DUP11 DUP13 SUB SLT ISZERO PUSH2 0x2709 JUMPI PUSH2 0x2708 PUSH2 0x1FC2 JUMP JUMPDEST JUMPDEST PUSH0 DUP11 ADD CALLDATALOAD PUSH8 0xFFFFFFFFFFFFFFFF DUP2 GT ISZERO PUSH2 0x2726 JUMPI PUSH2 0x2725 PUSH2 0x1FC6 JUMP JUMPDEST JUMPDEST PUSH2 0x2732 DUP13 DUP3 DUP14 ADD PUSH2 0x2456 JUMP JUMPDEST SWAP10 POP POP PUSH1 0x20 DUP11 ADD CALLDATALOAD PUSH8 0xFFFFFFFFFFFFFFFF DUP2 GT ISZERO PUSH2 0x2753 JUMPI PUSH2 0x2752 PUSH2 0x1FC6 JUMP JUMPDEST JUMPDEST PUSH2 0x275F DUP13 DUP3 DUP14 ADD PUSH2 0x210C JUMP JUMPDEST SWAP9 POP POP PUSH1 0x40 PUSH2 0x2770 DUP13 DUP3 DUP14 ADD PUSH2 0x24A5 JUMP JUMPDEST SWAP8 POP POP PUSH1 0x60 PUSH2 0x2781 DUP13 DUP3 DUP14 ADD PUSH2 0x24E2 JUMP JUMPDEST SWAP7 POP POP PUSH1 0x80 DUP11 ADD CALLDATALOAD PUSH8 0xFFFFFFFFFFFFFFFF DUP2 GT ISZERO PUSH2 0x27A2 JUMPI PUSH2 0x27A1 PUSH2 0x1FC6 JUMP JUMPDEST JUMPDEST PUSH2 0x27AE DUP13 DUP3 DUP14 ADD PUSH2 0x25A7 JUMP JUMPDEST SWAP6 POP POP PUSH1 0xA0 DUP11 ADD CALLDATALOAD PUSH8 0xFFFFFFFFFFFFFFFF DUP2 GT ISZERO PUSH2 0x27CF JUMPI PUSH2 0x27CE PUSH2 0x1FC6 JUMP JUMPDEST JUMPDEST PUSH2 0x27DB DUP13 DUP3 DUP14 ADD PUSH2 0x2685 JUMP JUMPDEST SWAP5 POP POP PUSH1 0xC0 PUSH2 0x27EC DUP13 DUP3 DUP14 ADD PUSH2 0x24E2 JUMP JUMPDEST SWAP4 POP POP PUSH1 0xE0 PUSH2 0x27FD DUP13 DUP3 DUP14 ADD PUSH2 0x26D7 JUMP JUMPDEST SWAP3 POP POP PUSH2 0x100 PUSH2 0x280F DUP13 DUP3 DUP14 ADD PUSH2 0x1FE9 JUMP JUMPDEST SWAP2 POP POP SWAP3 SWAP6 SWAP9 POP SWAP3 SWAP6 SWAP9 POP SWAP3 SWAP6 SWAP9 JUMP JUMPDEST PUSH2 0x2828 DUP2 PUSH2 0x1FCA JUMP JUMPDEST DUP3 MSTORE POP POP JUMP JUMPDEST PUSH0 PUSH1 0x20 DUP3 ADD SWAP1 POP PUSH2 0x2841 PUSH0 DUP4 ADD DUP5 PUSH2 0x281F JUMP JUMPDEST SWAP3 SWAP2 POP POP JUMP JUMPDEST PUSH0 DUP1 PUSH1 0x40 DUP4 DUP6 SUB SLT ISZERO PUSH2 0x285D JUMPI PUSH2 0x285C PUSH2 0x1FC2 JUMP JUMPDEST JUMPDEST PUSH0 PUSH2 0x286A DUP6 DUP3 DUP7 ADD PUSH2 0x21E0 JUMP JUMPDEST SWAP3 POP POP PUSH1 0x20 PUSH2 0x287B DUP6 DUP3 DUP7 ADD PUSH2 0x21E0 JUMP JUMPDEST SWAP2 POP POP SWAP3 POP SWAP3 SWAP1 POP JUMP JUMPDEST PUSH0 DUP2 MLOAD SWAP1 POP SWAP2 SWAP1 POP JUMP JUMPDEST PUSH0 DUP3 DUP3 MSTORE PUSH1 0x20 DUP3 ADD SWAP1 POP SWAP3 SWAP2 POP POP JUMP JUMPDEST PUSH0 PUSH2 0x28A9 DUP3 PUSH2 0x2885 JUMP JUMPDEST PUSH2 0x28B3 DUP2 DUP6 PUSH2 0x288F JUMP JUMPDEST SWAP4 POP PUSH2 0x28C3 DUP2 DUP6 PUSH1 0x20 DUP7 ADD PUSH2 0x232C JUMP JUMPDEST PUSH2 0x28CC DUP2 PUSH2 0x2005 JUMP JUMPDEST DUP5 ADD SWAP2 POP POP SWAP3 SWAP2 POP POP JUMP JUMPDEST PUSH0 PUSH1 0x20 DUP3 ADD SWAP1 POP DUP2 DUP2 SUB PUSH0 DUP4 ADD MSTORE PUSH2 0x28EF DUP2 DUP5 PUSH2 0x289F JUMP JUMPDEST SWAP1 POP SWAP3 SWAP2 POP POP JUMP JUMPDEST PUSH0 DUP1 PUSH0 DUP1 PUSH1 0x80 DUP6 DUP8 SUB SLT ISZERO PUSH2 0x290F JUMPI PUSH2 0x290E PUSH2 0x1FC2 JUMP JUMPDEST JUMPDEST PUSH0 DUP6 ADD CALLDATALOAD PUSH8 0xFFFFFFFFFFFFFFFF DUP2 GT ISZERO PUSH2 0x292C JUMPI PUSH2 0x292B PUSH2 0x1FC6 JUMP JUMPDEST JUMPDEST PUSH2 0x2938 DUP8 DUP3 DUP9 ADD PUSH2 0x210C JUMP JUMPDEST SWAP5 POP POP PUSH1 0x20 PUSH2 0x2949 DUP8 DUP3 DUP9 ADD PUSH2 0x24E2 JUMP JUMPDEST SWAP4 POP POP PUSH1 0x40 PUSH2 0x295A DUP8 DUP3 DUP9 ADD PUSH2 0x26D7 JUMP JUMPDEST SWAP3 POP POP PUSH1 0x60 PUSH2 0x296B DUP8 DUP3 DUP9 ADD PUSH2 0x1FE9 JUMP JUMPDEST SWAP2 POP POP SWAP3 SWAP6 SWAP2 SWAP5 POP SWAP3 POP JUMP JUMPDEST PUSH0 DUP2 ISZERO ISZERO SWAP1 POP SWAP2 SWAP1 POP JUMP JUMPDEST PUSH2 0x298B DUP2 PUSH2 0x2977 JUMP JUMPDEST DUP3 MSTORE POP POP JUMP JUMPDEST PUSH0 PUSH1 0x40 DUP3 ADD SWAP1 POP PUSH2 0x29A4 PUSH0 DUP4 ADD DUP6 PUSH2 0x23BD JUMP JUMPDEST PUSH2 0x29B1 PUSH1 0x20 DUP4 ADD DUP5 PUSH2 0x2982 JUMP JUMPDEST SWAP4 SWAP3 POP POP POP JUMP JUMPDEST PUSH0 DUP2 MLOAD SWAP1 POP SWAP2 SWAP1 POP JUMP JUMPDEST PUSH0 DUP3 DUP3 MSTORE PUSH1 0x20 DUP3 ADD SWAP1 POP SWAP3 SWAP2 POP POP JUMP JUMPDEST PUSH0 DUP2 SWAP1 POP PUSH1 0x20 DUP3 ADD SWAP1 POP SWAP2 SWAP1 POP JUMP JUMPDEST PUSH2 0x29EA DUP2 PUSH2 0x21C1 JUMP JUMPDEST DUP3 MSTORE POP POP JUMP JUMPDEST PUSH0 PUSH2 0x29FB DUP4 DUP4 PUSH2 0x29E1 JUMP JUMPDEST PUSH1 0x20 DUP4 ADD SWAP1 POP SWAP3 SWAP2 POP POP JUMP JUMPDEST PUSH0 PUSH1 0x20 DUP3 ADD SWAP1 POP SWAP2 SWAP1 POP JUMP JUMPDEST PUSH0 PUSH2 0x2A1D DUP3 PUSH2 0x29B8 JUMP JUMPDEST PUSH2 0x2A27 DUP2 DUP6 PUSH2 0x29C2 JUMP JUMPDEST SWAP4 POP PUSH2 0x2A32 DUP4 PUSH2 0x29D2 JUMP JUMPDEST DUP1 PUSH0 JUMPDEST DUP4 DUP2 LT ISZERO PUSH2 0x2A62 JUMPI DUP2 MLOAD PUSH2 0x2A49 DUP9 DUP3 PUSH2 0x29F0 JUMP JUMPDEST SWAP8 POP PUSH2 0x2A54 DUP4 PUSH2 0x2A07 JUMP JUMPDEST SWAP3 POP POP PUSH1 0x1 DUP2 ADD SWAP1 POP PUSH2 0x2A35 JUMP JUMPDEST POP DUP6 SWAP4 POP POP POP POP SWAP3 SWAP2 POP POP JUMP JUMPDEST PUSH0 PUSH1 0x60 DUP3 ADD SWAP1 POP PUSH2 0x2A82 PUSH0 DUP4 ADD DUP7 PUSH2 0x23BD JUMP JUMPDEST PUSH2 0x2A8F PUSH1 0x20 DUP4 ADD DUP6 PUSH2 0x2982 JUMP JUMPDEST DUP2 DUP2 SUB PUSH1 0x40 DUP4 ADD MSTORE PUSH2 0x2AA1 DUP2 DUP5 PUSH2 0x2A13 JUMP JUMPDEST SWAP1 POP SWAP5 SWAP4 POP POP POP POP JUMP JUMPDEST PUSH0 DUP1 PUSH0 PUSH1 0x60 DUP5 DUP7 SUB SLT ISZERO PUSH2 0x2AC2 JUMPI PUSH2 0x2AC1 PUSH2 0x1FC2 JUMP JUMPDEST JUMPDEST PUSH0 DUP5 ADD CALLDATALOAD PUSH8 0xFFFFFFFFFFFFFFFF DUP2 GT ISZERO PUSH2 0x2ADF JUMPI PUSH2 0x2ADE PUSH2 0x1FC6 JUMP JUMPDEST JUMPDEST PUSH2 0x2AEB DUP7 DUP3 DUP8 ADD PUSH2 0x2456 JUMP JUMPDEST SWAP4 POP POP PUSH1 0x20 DUP5 ADD CALLDATALOAD PUSH8 0xFFFFFFFFFFFFFFFF DUP2 GT ISZERO PUSH2 0x2B0C JUMPI PUSH2 0x2B0B PUSH2 0x1FC6 JUMP JUMPDEST JUMPDEST PUSH2 0x2B18 DUP7 DUP3 DUP8 ADD PUSH2 0x2456 JUMP JUMPDEST SWAP3 POP POP PUSH1 0x40 DUP5 ADD CALLDATALOAD PUSH8 0xFFFFFFFFFFFFFFFF DUP2 GT ISZERO PUSH2 0x2B39 JUMPI PUSH2 0x2B38 PUSH2 0x1FC6 JUMP JUMPDEST JUMPDEST PUSH2 0x2B45 DUP7 DUP3 DUP8 ADD PUSH2 0x2456 JUMP JUMPDEST SWAP2 POP POP SWAP3 POP SWAP3 POP SWAP3 JUMP JUMPDEST PUSH32 0x6F6E6C792056524620563220777261707065722063616E2066756C66696C6C00 PUSH0 DUP3 ADD MSTORE POP JUMP JUMPDEST PUSH0 PUSH2 0x2B83 PUSH1 0x1F DUP4 PUSH2 0x288F JUMP JUMPDEST SWAP2 POP PUSH2 0x2B8E DUP3 PUSH2 0x2B4F JUMP JUMPDEST PUSH1 0x20 DUP3 ADD SWAP1 POP SWAP2 SWAP1 POP JUMP JUMPDEST PUSH0 PUSH1 0x20 DUP3 ADD SWAP1 POP DUP2 DUP2 SUB PUSH0 DUP4 ADD MSTORE PUSH2 0x2BB0 DUP2 PUSH2 0x2B77 JUMP JUMPDEST SWAP1 POP SWAP2 SWAP1 POP JUMP JUMPDEST PUSH32 0x4E487B7100000000000000000000000000000000000000000000000000000000 PUSH0 MSTORE PUSH1 0x22 PUSH1 0x4 MSTORE PUSH1 0x24 PUSH0 REVERT JUMPDEST PUSH0 PUSH1 0x2 DUP3 DIV SWAP1 POP PUSH1 0x1 DUP3 AND DUP1 PUSH2 0x2BFB JUMPI PUSH1 0x7F DUP3 AND SWAP2 POP JUMPDEST PUSH1 0x20 DUP3 LT DUP2 SUB PUSH2 0x2C0E JUMPI PUSH2 0x2C0D PUSH2 0x2BB7 JUMP JUMPDEST JUMPDEST POP SWAP2 SWAP1 POP JUMP JUMPDEST PUSH0 PUSH20 0xFFFFFFFFFFFFFFFFFFFFFFFFFFFFFFFFFFFFFFFF DUP3 AND SWAP1 POP SWAP2 SWAP1 POP JUMP JUMPDEST PUSH0 PUSH2 0x2C3D DUP3 PUSH2 0x2C14 JUMP JUMPDEST SWAP1 POP SWAP2 SWAP1 POP JUMP JUMPDEST PUSH2 0x2C4D DUP2 PUSH2 0x2C33 JUMP JUMPDEST DUP3 MSTORE POP POP JUMP JUMPDEST PUSH0 PUSH1 0x20 DUP3 ADD SWAP1 POP PUSH2 0x2C66 PUSH0 DUP4 ADD DUP5 PUSH2 0x2C44 JUMP JUMPDEST SWAP3 SWAP2 POP POP JUMP JUMPDEST PUSH0 DUP2 MLOAD SWAP1 POP PUSH2 0x2C7A DUP2 PUSH2 0x21CA JUMP JUMPDEST SWAP3 SWAP2 POP POP JUMP JUMPDEST PUSH0 PUSH1 0x20 DUP3 DUP5 SUB SLT ISZERO PUSH2 0x2C95 JUMPI PUSH2 0x2C94 PUSH2 0x1FC2 JUMP JUMPDEST JUMPDEST PUSH0 PUSH2 0x2CA2 DUP5 DUP3 DUP6 ADD PUSH2 0x2C6C JUMP JUMPDEST SWAP2 POP POP SWAP3 SWAP2 POP POP JUMP JUMPDEST PUSH0 PUSH1 0x40 DUP3 ADD SWAP1 POP PUSH2 0x2CBE PUSH0 DUP4 ADD DUP6 PUSH2 0x2C44 JUMP JUMPDEST PUSH2 0x2CCB PUSH1 0x20 DUP4 ADD DUP5 PUSH2 0x23BD JUMP JUMPDEST SWAP4 SWAP3 POP POP POP JUMP JUMPDEST PUSH2 0x2CDB DUP2 PUSH2 0x2977 JUMP JUMPDEST DUP2 EQ PUSH2 0x2CE5 JUMPI PUSH0 DUP1 REVERT JUMPDEST POP JUMP JUMPDEST PUSH0 DUP2 MLOAD SWAP1 POP PUSH2 0x2CF6 DUP2 PUSH2 0x2CD2 JUMP JUMPDEST SWAP3 SWAP2 POP POP JUMP JUMPDEST PUSH0 PUSH1 0x20 DUP3 DUP5 SUB SLT ISZERO PUSH2 0x2D11 JUMPI PUSH2 0x2D10 PUSH2 0x1FC2 JUMP JUMPDEST JUMPDEST PUSH0 PUSH2 0x2D1E DUP5 DUP3 DUP6 ADD PUSH2 0x2CE8 JUMP JUMPDEST SWAP2 POP POP SWAP3 SWAP2 POP POP JUMP JUMPDEST PUSH32 0x556E61626C6520746F207472616E736665720000000000000000000000000000 PUSH0 DUP3 ADD MSTORE POP JUMP JUMPDEST PUSH0 PUSH2 0x2D5B PUSH1 0x12 DUP4 PUSH2 0x288F JUMP JUMPDEST SWAP2 POP PUSH2 0x2D66 DUP3 PUSH2 0x2D27 JUMP JUMPDEST PUSH1 0x20 DUP3 ADD SWAP1 POP SWAP2 SWAP1 POP JUMP JUMPDEST PUSH0 PUSH1 0x20 DUP3 ADD SWAP1 POP DUP2 DUP2 SUB PUSH0 DUP4 ADD MSTORE PUSH2 0x2D88 DUP2 PUSH2 0x2D4F JUMP JUMPDEST SWAP1 POP SWAP2 SWAP1 POP JUMP JUMPDEST PUSH32 0x72657175657374206E6F7420666F756E64000000000000000000000000000000 PUSH0 DUP3 ADD MSTORE POP JUMP JUMPDEST PUSH0 PUSH2 0x2DC3 PUSH1 0x11 DUP4 PUSH2 0x288F JUMP JUMPDEST SWAP2 POP PUSH2 0x2DCE DUP3 PUSH2 0x2D8F JUMP JUMPDEST PUSH1 0x20 DUP3 ADD SWAP1 POP SWAP2 SWAP1 POP JUMP JUMPDEST PUSH0 PUSH1 0x20 DUP3 ADD SWAP1 POP DUP2 DUP2 SUB PUSH0 DUP4 ADD MSTORE PUSH2 0x2DF0 DUP2 PUSH2 0x2DB7 JUMP JUMPDEST SWAP1 POP SWAP2 SWAP1 POP JUMP JUMPDEST PUSH2 0x2E00 DUP2 PUSH2 0x26B2 JUMP JUMPDEST DUP3 MSTORE POP POP JUMP JUMPDEST PUSH0 PUSH1 0x20 DUP3 ADD SWAP1 POP PUSH2 0x2E19 PUSH0 DUP4 ADD DUP5 PUSH2 0x2DF7 JUMP JUMPDEST SWAP3 SWAP2 POP POP JUMP JUMPDEST PUSH0 PUSH1 0x40 DUP3 ADD SWAP1 POP PUSH2 0x2E32 PUSH0 DUP4 ADD DUP6 PUSH2 0x23BD JUMP JUMPDEST PUSH2 0x2E3F PUSH1 0x20 DUP4 ADD DUP5 PUSH2 0x2DF7 JUMP JUMPDEST SWAP4 SWAP3 POP POP POP JUMP JUMPDEST PUSH0 DUP2 SWAP1 POP DUP2 PUSH0 MSTORE PUSH1 0x20 PUSH0 KECCAK256 SWAP1 POP SWAP2 SWAP1 POP JUMP JUMPDEST PUSH0 PUSH1 0x20 PUSH1 0x1F DUP4 ADD DIV SWAP1 POP SWAP2 SWAP1 POP JUMP JUMPDEST PUSH0 DUP3 DUP3 SHL SWAP1 POP SWAP3 SWAP2 POP POP JUMP JUMPDEST PUSH0 PUSH1 0x8 DUP4 MUL PUSH2 0x2EA2 PUSH32 0xFFFFFFFFFFFFFFFFFFFFFFFFFFFFFFFFFFFFFFFFFFFFFFFFFFFFFFFFFFFFFFFF DUP3 PUSH2 0x2E67 JUMP JUMPDEST PUSH2 0x2EAC DUP7 DUP4 PUSH2 0x2E67 JUMP JUMPDEST SWAP6 POP DUP1 NOT DUP5 AND SWAP4 POP DUP1 DUP7 AND DUP5 OR SWAP3 POP POP POP SWAP4 SWAP3 POP POP POP JUMP JUMPDEST PUSH0 DUP2 SWAP1 POP SWAP2 SWAP1 POP JUMP JUMPDEST PUSH0 PUSH2 0x2EE7 PUSH2 0x2EE2 PUSH2 0x2EDD DUP5 PUSH2 0x21C1 JUMP JUMPDEST PUSH2 0x2EC4 JUMP JUMPDEST PUSH2 0x21C1 JUMP JUMPDEST SWAP1 POP SWAP2 SWAP1 POP JUMP JUMPDEST PUSH0 DUP2 SWAP1 POP SWAP2 SWAP1 POP JUMP JUMPDEST PUSH2 0x2F00 DUP4 PUSH2 0x2ECD JUMP JUMPDEST PUSH2 0x2F14 PUSH2 0x2F0C DUP3 PUSH2 0x2EEE JUMP JUMPDEST DUP5 DUP5 SLOAD PUSH2 0x2E73 JUMP JUMPDEST DUP3 SSTORE POP POP POP POP JUMP JUMPDEST PUSH0 SWAP1 JUMP JUMPDEST PUSH2 0x2F28 PUSH2 0x2F1C JUMP JUMPDEST PUSH2 0x2F33 DUP2 DUP5 DUP5 PUSH2 0x2EF7 JUMP JUMPDEST POP POP POP JUMP JUMPDEST JUMPDEST DUP2 DUP2 LT ISZERO PUSH2 0x2F56 JUMPI PUSH2 0x2F4B PUSH0 DUP3 PUSH2 0x2F20 JUMP JUMPDEST PUSH1 0x1 DUP2 ADD SWAP1 POP PUSH2 0x2F39 JUMP JUMPDEST POP POP JUMP JUMPDEST PUSH1 0x1F DUP3 GT ISZERO PUSH2 0x2F9B JUMPI PUSH2 0x2F6C DUP2 PUSH2 0x2E46 JUMP JUMPDEST PUSH2 0x2F75 DUP5 PUSH2 0x2E58 JUMP JUMPDEST DUP2 ADD PUSH1 0x20 DUP6 LT ISZERO PUSH2 0x2F84 JUMPI DUP2 SWAP1 POP JUMPDEST PUSH2 0x2F98 PUSH2 0x2F90 DUP6 PUSH2 0x2E58 JUMP JUMPDEST DUP4 ADD DUP3 PUSH2 0x2F38 JUMP JUMPDEST POP POP JUMPDEST POP POP POP JUMP JUMPDEST PUSH0 DUP3 DUP3 SHR SWAP1 POP SWAP3 SWAP2 POP POP JUMP JUMPDEST PUSH0 PUSH2 0x2FBB PUSH0 NOT DUP5 PUSH1 0x8 MUL PUSH2 0x2FA0 JUMP JUMPDEST NOT DUP1 DUP4 AND SWAP2 POP POP SWAP3 SWAP2 POP POP JUMP JUMPDEST PUSH0 PUSH2 0x2FD3 DUP4 DUP4 PUSH2 0x2FAC JUMP JUMPDEST SWAP2 POP DUP3 PUSH1 0x2 MUL DUP3 OR SWAP1 POP SWAP3 SWAP2 POP POP JUMP JUMPDEST PUSH2 0x2FEC DUP3 PUSH2 0x2885 JUMP JUMPDEST PUSH8 0xFFFFFFFFFFFFFFFF DUP2 GT ISZERO PUSH2 0x3005 JUMPI PUSH2 0x3004 PUSH2 0x2015 JUMP JUMPDEST JUMPDEST PUSH2 0x300F DUP3 SLOAD PUSH2 0x2BE4 JUMP JUMPDEST PUSH2 0x301A DUP3 DUP3 DUP6 PUSH2 0x2F5A JUMP JUMPDEST PUSH0 PUSH1 0x20 SWAP1 POP PUSH1 0x1F DUP4 GT PUSH1 0x1 DUP2 EQ PUSH2 0x304B JUMPI PUSH0 DUP5 ISZERO PUSH2 0x3039 JUMPI DUP3 DUP8 ADD MLOAD SWAP1 POP JUMPDEST PUSH2 0x3043 DUP6 DUP3 PUSH2 0x2FC8 JUMP JUMPDEST DUP7 SSTORE POP PUSH2 0x30AA JUMP JUMPDEST PUSH1 0x1F NOT DUP5 AND PUSH2 0x3059 DUP7 PUSH2 0x2E46 JUMP JUMPDEST PUSH0 JUMPDEST DUP3 DUP2 LT ISZERO PUSH2 0x3080 JUMPI DUP5 DUP10 ADD MLOAD DUP3 SSTORE PUSH1 0x1 DUP3 ADD SWAP2 POP PUSH1 0x20 DUP6 ADD SWAP5 POP PUSH1 0x20 DUP2 ADD SWAP1 POP PUSH2 0x305B JUMP JUMPDEST DUP7 DUP4 LT ISZERO PUSH2 0x309D JUMPI DUP5 DUP10 ADD MLOAD PUSH2 0x3099 PUSH1 0x1F DUP10 AND DUP3 PUSH2 0x2FAC JUMP JUMPDEST DUP4 SSTORE POP JUMPDEST PUSH1 0x1 PUSH1 0x2 DUP9 MUL ADD DUP9 SSTORE POP POP POP JUMPDEST POP POP POP POP POP POP JUMP JUMPDEST PUSH32 0x4E487B7100000000000000000000000000000000000000000000000000000000 PUSH0 MSTORE PUSH1 0x11 PUSH1 0x4 MSTORE PUSH1 0x24 PUSH0 REVERT JUMPDEST PUSH0 PUSH2 0x30E9 DUP3 PUSH2 0x21C1 JUMP JUMPDEST SWAP2 POP PUSH32 0xFFFFFFFFFFFFFFFFFFFFFFFFFFFFFFFFFFFFFFFFFFFFFFFFFFFFFFFFFFFFFFFF DUP3 SUB PUSH2 0x311B JUMPI PUSH2 0x311A PUSH2 0x30B2 JUMP JUMPDEST JUMPDEST PUSH1 0x1 DUP3 ADD SWAP1 POP SWAP2 SWAP1 POP JUMP JUMPDEST PUSH0 DUP2 SWAP1 POP DUP2 PUSH0 MSTORE PUSH1 0x20 PUSH0 KECCAK256 SWAP1 POP SWAP2 SWAP1 POP JUMP JUMPDEST PUSH1 0x1F DUP3 GT ISZERO PUSH2 0x3179 JUMPI PUSH2 0x314A DUP2 PUSH2 0x3126 JUMP JUMPDEST PUSH2 0x3153 DUP5 PUSH2 0x2E58 JUMP JUMPDEST DUP2 ADD PUSH1 0x20 DUP6 LT ISZERO PUSH2 0x3162 JUMPI DUP2 SWAP1 POP JUMPDEST PUSH2 0x3176 PUSH2 0x316E DUP6 PUSH2 0x2E58 JUMP JUMPDEST DUP4 ADD DUP3 PUSH2 0x2F38 JUMP JUMPDEST POP POP JUMPDEST POP POP POP JUMP JUMPDEST PUSH2 0x3187 DUP3 PUSH2 0x2312 JUMP JUMPDEST PUSH8 0xFFFFFFFFFFFFFFFF DUP2 GT ISZERO PUSH2 0x31A0 JUMPI PUSH2 0x319F PUSH2 0x2015 JUMP JUMPDEST JUMPDEST PUSH2 0x31AA DUP3 SLOAD PUSH2 0x2BE4 JUMP JUMPDEST PUSH2 0x31B5 DUP3 DUP3 DUP6 PUSH2 0x3138 JUMP JUMPDEST PUSH0 PUSH1 0x20 SWAP1 POP PUSH1 0x1F DUP4 GT PUSH1 0x1 DUP2 EQ PUSH2 0x31E6 JUMPI PUSH0 DUP5 ISZERO PUSH2 0x31D4 JUMPI DUP3 DUP8 ADD MLOAD SWAP1 POP JUMPDEST PUSH2 0x31DE DUP6 DUP3 PUSH2 0x2FC8 JUMP JUMPDEST DUP7 SSTORE POP PUSH2 0x3245 JUMP JUMPDEST PUSH1 0x1F NOT DUP5 AND PUSH2 0x31F4 DUP7 PUSH2 0x3126 JUMP JUMPDEST PUSH0 JUMPDEST DUP3 DUP2 LT ISZERO PUSH2 0x321B JUMPI DUP5 DUP10 ADD MLOAD DUP3 SSTORE PUSH1 0x1 DUP3 ADD SWAP2 POP PUSH1 0x20 DUP6 ADD SWAP5 POP PUSH1 0x20 DUP2 ADD SWAP1 POP PUSH2 0x31F6 JUMP JUMPDEST DUP7 DUP4 LT ISZERO PUSH2 0x3238 JUMPI DUP5 DUP10 ADD MLOAD PUSH2 0x3234 PUSH1 0x1F DUP10 AND DUP3 PUSH2 0x2FAC JUMP JUMPDEST DUP4 SSTORE POP JUMPDEST PUSH1 0x1 PUSH1 0x2 DUP9 MUL ADD DUP9 SSTORE POP POP POP JUMPDEST POP POP POP POP POP POP JUMP JUMPDEST PUSH0 DUP2 SLOAD PUSH2 0x3259 DUP2 PUSH2 0x2BE4 JUMP JUMPDEST PUSH2 0x3263 DUP2 DUP7 PUSH2 0x231C JUMP JUMPDEST SWAP5 POP PUSH1 0x1 DUP3 AND PUSH0 DUP2 EQ PUSH2 0x327D JUMPI PUSH1 0x1 DUP2 EQ PUSH2 0x3293 JUMPI PUSH2 0x32C5 JUMP JUMPDEST PUSH1 0xFF NOT DUP4 AND DUP7 MSTORE DUP2 ISZERO ISZERO PUSH1 0x20 MUL DUP7 ADD SWAP4 POP PUSH2 0x32C5 JUMP JUMPDEST PUSH2 0x329C DUP6 PUSH2 0x3126 JUMP JUMPDEST PUSH0 JUMPDEST DUP4 DUP2 LT ISZERO PUSH2 0x32BD JUMPI DUP2 SLOAD DUP2 DUP10 ADD MSTORE PUSH1 0x1 DUP3 ADD SWAP2 POP PUSH1 0x20 DUP2 ADD SWAP1 POP PUSH2 0x329E JUMP JUMPDEST DUP1 DUP9 ADD SWAP6 POP POP POP JUMPDEST POP POP POP SWAP3 SWAP2 POP POP JUMP JUMPDEST PUSH0 PUSH1 0x40 DUP3 ADD SWAP1 POP DUP2 DUP2 SUB PUSH0 DUP4 ADD MSTORE PUSH2 0x32E6 DUP2 DUP6 PUSH2 0x324D JUMP JUMPDEST SWAP1 POP DUP2 DUP2 SUB PUSH1 0x20 DUP4 ADD MSTORE PUSH2 0x32FA DUP2 DUP5 PUSH2 0x324D JUMP JUMPDEST SWAP1 POP SWAP4 SWAP3 POP POP POP JUMP JUMPDEST PUSH32 0x4E487B7100000000000000000000000000000000000000000000000000000000 PUSH0 MSTORE PUSH1 0x32 PUSH1 0x4 MSTORE PUSH1 0x24 PUSH0 REVERT JUMPDEST PUSH32 0x4E487B7100000000000000000000000000000000000000000000000000000000 PUSH0 MSTORE PUSH1 0x21 PUSH1 0x4 MSTORE PUSH1 0x24 PUSH0 REVERT JUMPDEST PUSH2 0x3366 DUP2 PUSH2 0x24B9 JUMP JUMPDEST DUP3 MSTORE POP POP JUMP JUMPDEST PUSH0 PUSH2 0xFFFF DUP3 AND SWAP1 POP SWAP2 SWAP1 POP JUMP JUMPDEST PUSH2 0x3382 DUP2 PUSH2 0x336C JUMP JUMPDEST DUP3 MSTORE POP POP JUMP JUMPDEST PUSH0 PUSH1 0xA0 DUP3 ADD SWAP1 POP PUSH2 0x339B PUSH0 DUP4 ADD DUP9 PUSH2 0x335D JUMP JUMPDEST DUP2 DUP2 SUB PUSH1 0x20 DUP4 ADD MSTORE PUSH2 0x33AD DUP2 DUP8 PUSH2 0x233A JUMP JUMPDEST SWAP1 POP PUSH2 0x33BC PUSH1 0x40 DUP4 ADD DUP7 PUSH2 0x3379 JUMP JUMPDEST PUSH2 0x33C9 PUSH1 0x60 DUP4 ADD DUP6 PUSH2 0x2DF7 JUMP JUMPDEST PUSH2 0x33D6 PUSH1 0x80 DUP4 ADD DUP5 PUSH2 0x281F JUMP JUMPDEST SWAP7 SWAP6 POP POP POP POP POP POP JUMP JUMPDEST PUSH0 DUP2 MLOAD SWAP1 POP PUSH2 0x33EE DUP2 PUSH2 0x1FD3 JUMP JUMPDEST SWAP3 SWAP2 POP POP JUMP JUMPDEST PUSH0 PUSH1 0x20 DUP3 DUP5 SUB SLT ISZERO PUSH2 0x3409 JUMPI PUSH2 0x3408 PUSH2 0x1FC2 JUMP JUMPDEST JUMPDEST PUSH0 PUSH2 0x3416 DUP5 DUP3 DUP6 ADD PUSH2 0x33E0 JUMP JUMPDEST SWAP2 POP POP SWAP3 SWAP2 POP POP JUMP JUMPDEST PUSH0 PUSH1 0x60 DUP3 ADD SWAP1 POP PUSH2 0x3432 PUSH0 DUP4 ADD DUP7 PUSH2 0x2DF7 JUMP JUMPDEST PUSH2 0x343F PUSH1 0x20 DUP4 ADD DUP6 PUSH2 0x3379 JUMP JUMPDEST PUSH2 0x344C PUSH1 0x40 DUP4 ADD DUP5 PUSH2 0x2DF7 JUMP JUMPDEST SWAP5 SWAP4 POP POP POP POP JUMP JUMPDEST PUSH0 PUSH1 0x60 DUP3 ADD SWAP1 POP PUSH2 0x3467 PUSH0 DUP4 ADD DUP7 PUSH2 0x2C44 JUMP JUMPDEST PUSH2 0x3474 PUSH1 0x20 DUP4 ADD DUP6 PUSH2 0x23BD JUMP JUMPDEST DUP2 DUP2 SUB PUSH1 0x40 DUP4 ADD MSTORE PUSH2 0x3486 DUP2 DUP5 PUSH2 0x233A JUMP JUMPDEST SWAP1 POP SWAP5 SWAP4 POP POP POP POP JUMP JUMPDEST PUSH0 PUSH2 0x349A DUP3 PUSH2 0x21C1 JUMP JUMPDEST SWAP2 POP PUSH2 0x34A5 DUP4 PUSH2 0x21C1 JUMP JUMPDEST SWAP3 POP DUP3 DUP3 ADD SWAP1 POP DUP1 DUP3 GT ISZERO PUSH2 0x34BD JUMPI PUSH2 0x34BC PUSH2 0x30B2 JUMP JUMPDEST JUMPDEST SWAP3 SWAP2 POP POP JUMP JUMPDEST PUSH0 PUSH2 0x34CD DUP3 PUSH2 0x21C1 JUMP JUMPDEST SWAP2 POP PUSH2 0x34D8 DUP4 PUSH2 0x21C1 JUMP JUMPDEST SWAP3 POP DUP3 DUP3 SUB SWAP1 POP DUP2 DUP2 GT ISZERO PUSH2 0x34F0 JUMPI PUSH2 0x34EF PUSH2 0x30B2 JUMP JUMPDEST JUMPDEST SWAP3 SWAP2 POP POP JUMP JUMPDEST PUSH32 0x4E487B7100000000000000000000000000000000000000000000000000000000 PUSH0 MSTORE PUSH1 0x12 PUSH1 0x4 MSTORE PUSH1 0x24 PUSH0 REVERT JUMPDEST PUSH0 PUSH2 0x352D DUP3 PUSH2 0x21C1 JUMP JUMPDEST SWAP2 POP PUSH2 0x3538 DUP4 PUSH2 0x21C1 JUMP JUMPDEST SWAP3 POP DUP3 PUSH2 0x3548 JUMPI PUSH2 0x3547 PUSH2 0x34F6 JUMP JUMPDEST JUMPDEST DUP3 DUP3 MOD SWAP1 POP SWAP3 SWAP2 POP POP JUMP JUMPDEST PUSH0 PUSH2 0x355D DUP3 PUSH2 0x21C1 JUMP JUMPDEST SWAP2 POP PUSH2 0x3568 DUP4 PUSH2 0x21C1 JUMP JUMPDEST SWAP3 POP DUP3 DUP3 MUL PUSH2 0x3576 DUP2 PUSH2 0x21C1 JUMP JUMPDEST SWAP2 POP DUP3 DUP3 DIV DUP5 EQ DUP4 ISZERO OR PUSH2 0x358D JUMPI PUSH2 0x358C PUSH2 0x30B2 JUMP JUMPDEST JUMPDEST POP SWAP3 SWAP2 POP POP JUMP JUMPDEST PUSH0 DUP2 PUSH1 0x1 SHR SWAP1 POP SWAP2 SWAP1 POP JUMP JUMPDEST PUSH0 DUP1 DUP3 SWAP2 POP DUP4 SWAP1 POP JUMPDEST PUSH1 0x1 DUP6 GT ISZERO PUSH2 0x35E9 JUMPI DUP1 DUP7 DIV DUP2 GT ISZERO PUSH2 0x35C5 JUMPI PUSH2 0x35C4 PUSH2 0x30B2 JUMP JUMPDEST JUMPDEST PUSH1 0x1 DUP6 AND ISZERO PUSH2 0x35D4 JUMPI DUP1 DUP3 MUL SWAP2 POP JUMPDEST DUP1 DUP2 MUL SWAP1 POP PUSH2 0x35E2 DUP6 PUSH2 0x3594 JUMP JUMPDEST SWAP5 POP PUSH2 0x35A9 JUMP JUMPDEST SWAP5 POP SWAP5 SWAP3 POP POP POP JUMP JUMPDEST PUSH0 DUP3 PUSH2 0x3601 JUMPI PUSH1 0x1 SWAP1 POP PUSH2 0x36BC JUMP JUMPDEST DUP2 PUSH2 0x360E JUMPI PUSH0 SWAP1 POP PUSH2 0x36BC JUMP JUMPDEST DUP2 PUSH1 0x1 DUP2 EQ PUSH2 0x3624 JUMPI PUSH1 0x2 DUP2 EQ PUSH2 0x362E JUMPI PUSH2 0x365D JUMP JUMPDEST PUSH1 0x1 SWAP2 POP POP PUSH2 0x36BC JUMP JUMPDEST PUSH1 0xFF DUP5 GT ISZERO PUSH2 0x3640 JUMPI PUSH2 0x363F PUSH2 0x30B2 JUMP JUMPDEST JUMPDEST DUP4 PUSH1 0x2 EXP SWAP2 POP DUP5 DUP3 GT ISZERO PUSH2 0x3657 JUMPI PUSH2 0x3656 PUSH2 0x30B2 JUMP JUMPDEST JUMPDEST POP PUSH2 0x36BC JUMP JUMPDEST POP PUSH1 0x20 DUP4 LT PUSH2 0x133 DUP4 LT AND PUSH1 0x4E DUP5 LT PUSH1 0xB DUP5 LT AND OR ISZERO PUSH2 0x3692 JUMPI DUP3 DUP3 EXP SWAP1 POP DUP4 DUP2 GT ISZERO PUSH2 0x368D JUMPI PUSH2 0x368C PUSH2 0x30B2 JUMP JUMPDEST JUMPDEST PUSH2 0x36BC JUMP JUMPDEST PUSH2 0x369F DUP5 DUP5 DUP5 PUSH1 0x1 PUSH2 0x35A0 JUMP JUMPDEST SWAP3 POP SWAP1 POP DUP2 DUP5 DIV DUP2 GT ISZERO PUSH2 0x36B6 JUMPI PUSH2 0x36B5 PUSH2 0x30B2 JUMP JUMPDEST JUMPDEST DUP2 DUP2 MUL SWAP1 POP JUMPDEST SWAP4 SWAP3 POP POP POP JUMP JUMPDEST PUSH0 PUSH2 0x36CD DUP3 PUSH2 0x21C1 JUMP JUMPDEST SWAP2 POP PUSH2 0x36D8 DUP4 PUSH2 0x21C1 JUMP JUMPDEST SWAP3 POP PUSH2 0x3705 PUSH32 0xFFFFFFFFFFFFFFFFFFFFFFFFFFFFFFFFFFFFFFFFFFFFFFFFFFFFFFFFFFFFFFFF DUP5 DUP5 PUSH2 0x35F2 JUMP JUMPDEST SWAP1 POP SWAP3 SWAP2 POP POP JUMP INVALID LOG2 PUSH5 0x6970667358 0x22 SLT KECCAK256 0xC2 PUSH32 0xE397389A3519B851A4F9C240DB88AA12ED4F2984530535179167B59812C36473 PUSH16 0x6C634300081A00330000000000000000 "
		},
		"gasEstimates": {
			"creation": {
				"codeDepositCost": "2829400",
				"executionCost": "infinite",
				"totalCost": "infinite"
			},
			"external": {
				"allRandomWords(uint256)": "infinite",
				"allStekcitTickets(uint256,uint256)": "infinite",
				"allStekcitUsers(uint256,uint256)": "infinite",
				"createStekcitUser(string,string,string)": "infinite",
				"getRequestStatus(uint256)": "infinite",
				"handleOracleFulfillment(bytes32,bytes,bytes)": "infinite",
				"lastRequestId()": "2535",
				"purchaseStekcitTicket()": "210",
				"rawFulfillRandomWords(uint256,uint256[])": "infinite",
				"requestIds(uint256)": "infinite",
				"requestRandomWords()": "infinite",
				"s_lastError()": "infinite",
				"s_lastRequestId()": "2513",
				"s_lastResponse()": "infinite",
				"s_requests(uint256)": "infinite",
				"sendRequest(string,bytes,uint8,uint64,string[],bytes[],uint64,uint32,bytes32)": "infinite",
				"sendRequestCBOR(bytes,uint64,uint32,bytes32)": "infinite",
				"withdrawLink()": "infinite"
			},
			"internal": {
				"fulfillRandomWords(uint256,uint256[] memory)": "infinite",
				"fulfillRequest(bytes32,bytes memory,bytes memory)": "infinite"
			}
		},
		"methodIdentifiers": {
			"allRandomWords(uint256)": "43a77ff6",
			"allStekcitTickets(uint256,uint256)": "944f059b",
			"allStekcitUsers(uint256,uint256)": "da905c79",
			"createStekcitUser(string,string,string)": "f520626f",
			"getRequestStatus(uint256)": "d8a4676f",
			"handleOracleFulfillment(bytes32,bytes,bytes)": "0ca76175",
			"lastRequestId()": "fc2a88c3",
			"purchaseStekcitTicket()": "81cf3808",
			"rawFulfillRandomWords(uint256,uint256[])": "1fe543e3",
			"requestIds(uint256)": "8796ba8c",
			"requestRandomWords()": "e0c86289",
			"s_lastError()": "4b0795a8",
			"s_lastRequestId()": "b1e21749",
			"s_lastResponse()": "3944ea3a",
			"s_requests(uint256)": "a168fa89",
			"sendRequest(string,bytes,uint8,uint64,string[],bytes[],uint64,uint32,bytes32)": "52a81eeb",
			"sendRequestCBOR(bytes,uint64,uint32,bytes32)": "9681096f",
			"withdrawLink()": "8dc654a2"
		}
	},
	"abi": [
		{
			"inputs": [
				{
					"internalType": "address",
					"name": "router",
					"type": "address"
				}
			],
			"stateMutability": "nonpayable",
			"type": "constructor"
		},
		{
			"inputs": [],
			"name": "EmptyArgs",
			"type": "error"
		},
		{
			"inputs": [],
			"name": "EmptySecrets",
			"type": "error"
		},
		{
			"inputs": [],
			"name": "EmptySource",
			"type": "error"
		},
		{
			"inputs": [],
			"name": "NoInlineSecrets",
			"type": "error"
		},
		{
			"inputs": [],
			"name": "OnlyRouterCanFulfill",
			"type": "error"
		},
		{
			"inputs": [
				{
					"internalType": "bytes32",
					"name": "requestId",
					"type": "bytes32"
				}
			],
			"name": "UnexpectedRequestID",
			"type": "error"
		},
		{
			"anonymous": false,
			"inputs": [
				{
					"indexed": true,
					"internalType": "bytes32",
					"name": "id",
					"type": "bytes32"
				}
			],
			"name": "RequestFulfilled",
			"type": "event"
		},
		{
			"anonymous": false,
			"inputs": [
				{
					"indexed": true,
					"internalType": "bytes32",
					"name": "id",
					"type": "bytes32"
				}
			],
			"name": "RequestSent",
			"type": "event"
		},
		{
			"anonymous": false,
			"inputs": [
				{
					"indexed": false,
					"internalType": "uint256",
					"name": "requestId",
					"type": "uint256"
				},
				{
					"indexed": false,
					"internalType": "uint32",
					"name": "numWords",
					"type": "uint32"
				}
			],
			"name": "RequestSent",
			"type": "event"
		},
		{
			"anonymous": false,
			"inputs": [
				{
					"indexed": true,
					"internalType": "bytes32",
					"name": "requestId",
					"type": "bytes32"
				},
				{
					"indexed": false,
					"internalType": "bytes",
					"name": "response",
					"type": "bytes"
				},
				{
					"indexed": false,
					"internalType": "bytes",
					"name": "err",
					"type": "bytes"
				}
			],
			"name": "Response",
			"type": "event"
		},
		{
			"inputs": [
				{
					"internalType": "uint256",
					"name": "",
					"type": "uint256"
				}
			],
			"name": "allRandomWords",
			"outputs": [
				{
					"internalType": "uint256",
					"name": "",
					"type": "uint256"
				}
			],
			"stateMutability": "view",
			"type": "function"
		},
		{
			"inputs": [
				{
					"internalType": "uint256",
					"name": "",
					"type": "uint256"
				},
				{
					"internalType": "uint256",
					"name": "",
					"type": "uint256"
				}
			],
			"name": "allStekcitTickets",
			"outputs": [
				{
					"internalType": "string",
					"name": "",
					"type": "string"
				}
			],
			"stateMutability": "view",
			"type": "function"
		},
		{
			"inputs": [
				{
					"internalType": "uint256",
					"name": "",
					"type": "uint256"
				},
				{
					"internalType": "uint256",
					"name": "",
					"type": "uint256"
				}
			],
			"name": "allStekcitUsers",
			"outputs": [
				{
					"internalType": "string",
					"name": "",
					"type": "string"
				}
			],
			"stateMutability": "view",
			"type": "function"
		},
		{
			"inputs": [
				{
					"internalType": "string",
					"name": "walletAddress",
					"type": "string"
				},
				{
					"internalType": "string",
					"name": "username",
					"type": "string"
				},
				{
					"internalType": "string",
					"name": "email",
					"type": "string"
				}
			],
			"name": "createStekcitUser",
			"outputs": [
				{
					"internalType": "uint256",
					"name": "",
					"type": "uint256"
				}
			],
			"stateMutability": "nonpayable",
			"type": "function"
		},
		{
			"inputs": [
				{
					"internalType": "uint256",
					"name": "_requestId",
					"type": "uint256"
				}
			],
			"name": "getRequestStatus",
			"outputs": [
				{
					"internalType": "uint256",
					"name": "paid",
					"type": "uint256"
				},
				{
					"internalType": "bool",
					"name": "fulfilled",
					"type": "bool"
				},
				{
					"internalType": "uint256[]",
					"name": "randomWords",
					"type": "uint256[]"
				}
			],
			"stateMutability": "view",
			"type": "function"
		},
		{
			"inputs": [
				{
					"internalType": "bytes32",
					"name": "requestId",
					"type": "bytes32"
				},
				{
					"internalType": "bytes",
					"name": "response",
					"type": "bytes"
				},
				{
					"internalType": "bytes",
					"name": "err",
					"type": "bytes"
				}
			],
			"name": "handleOracleFulfillment",
			"outputs": [],
			"stateMutability": "nonpayable",
			"type": "function"
		},
		{
			"inputs": [],
			"name": "lastRequestId",
			"outputs": [
				{
					"internalType": "uint256",
					"name": "",
					"type": "uint256"
				}
			],
			"stateMutability": "view",
			"type": "function"
		},
		{
			"inputs": [],
			"name": "purchaseStekcitTicket",
			"outputs": [],
			"stateMutability": "nonpayable",
			"type": "function"
		},
		{
			"inputs": [
				{
					"internalType": "uint256",
					"name": "_requestId",
					"type": "uint256"
				},
				{
					"internalType": "uint256[]",
					"name": "_randomWords",
					"type": "uint256[]"
				}
			],
			"name": "rawFulfillRandomWords",
			"outputs": [],
			"stateMutability": "nonpayable",
			"type": "function"
		},
		{
			"inputs": [
				{
					"internalType": "uint256",
					"name": "",
					"type": "uint256"
				}
			],
			"name": "requestIds",
			"outputs": [
				{
					"internalType": "uint256",
					"name": "",
					"type": "uint256"
				}
			],
			"stateMutability": "view",
			"type": "function"
		},
		{
			"inputs": [],
			"name": "requestRandomWords",
			"outputs": [
				{
					"internalType": "uint256",
					"name": "requestId",
					"type": "uint256"
				}
			],
			"stateMutability": "nonpayable",
			"type": "function"
		},
		{
			"inputs": [],
			"name": "s_lastError",
			"outputs": [
				{
					"internalType": "bytes",
					"name": "",
					"type": "bytes"
				}
			],
			"stateMutability": "view",
			"type": "function"
		},
		{
			"inputs": [],
			"name": "s_lastRequestId",
			"outputs": [
				{
					"internalType": "bytes32",
					"name": "",
					"type": "bytes32"
				}
			],
			"stateMutability": "view",
			"type": "function"
		},
		{
			"inputs": [],
			"name": "s_lastResponse",
			"outputs": [
				{
					"internalType": "bytes",
					"name": "",
					"type": "bytes"
				}
			],
			"stateMutability": "view",
			"type": "function"
		},
		{
			"inputs": [
				{
					"internalType": "uint256",
					"name": "",
					"type": "uint256"
				}
			],
			"name": "s_requests",
			"outputs": [
				{
					"internalType": "uint256",
					"name": "paid",
					"type": "uint256"
				},
				{
					"internalType": "bool",
					"name": "fulfilled",
					"type": "bool"
				}
			],
			"stateMutability": "view",
			"type": "function"
		},
		{
			"inputs": [
				{
					"internalType": "string",
					"name": "source",
					"type": "string"
				},
				{
					"internalType": "bytes",
					"name": "encryptedSecretsUrls",
					"type": "bytes"
				},
				{
					"internalType": "uint8",
					"name": "donHostedSecretsSlotID",
					"type": "uint8"
				},
				{
					"internalType": "uint64",
					"name": "donHostedSecretsVersion",
					"type": "uint64"
				},
				{
					"internalType": "string[]",
					"name": "args",
					"type": "string[]"
				},
				{
					"internalType": "bytes[]",
					"name": "bytesArgs",
					"type": "bytes[]"
				},
				{
					"internalType": "uint64",
					"name": "subscriptionId",
					"type": "uint64"
				},
				{
					"internalType": "uint32",
					"name": "gasLimit",
					"type": "uint32"
				},
				{
					"internalType": "bytes32",
					"name": "donID",
					"type": "bytes32"
				}
			],
			"name": "sendRequest",
			"outputs": [
				{
					"internalType": "bytes32",
					"name": "requestId",
					"type": "bytes32"
				}
			],
			"stateMutability": "nonpayable",
			"type": "function"
		},
		{
			"inputs": [
				{
					"internalType": "bytes",
					"name": "request",
					"type": "bytes"
				},
				{
					"internalType": "uint64",
					"name": "subscriptionId",
					"type": "uint64"
				},
				{
					"internalType": "uint32",
					"name": "gasLimit",
					"type": "uint32"
				},
				{
					"internalType": "bytes32",
					"name": "donID",
					"type": "bytes32"
				}
			],
			"name": "sendRequestCBOR",
			"outputs": [
				{
					"internalType": "bytes32",
					"name": "requestId",
					"type": "bytes32"
				}
			],
			"stateMutability": "nonpayable",
			"type": "function"
		},
		{
			"inputs": [],
			"name": "withdrawLink",
			"outputs": [],
			"stateMutability": "nonpayable",
			"type": "function"
		}
	]
}